{
  "contractName": "AccessControlList",
  "abi": [
    {
      "anonymous": false,
      "inputs": [
        {
          "indexed": true,
          "internalType": "bytes32",
          "name": "role",
          "type": "bytes32"
        },
        {
          "indexed": true,
          "internalType": "bytes32",
          "name": "previousAdminRole",
          "type": "bytes32"
        },
        {
          "indexed": true,
          "internalType": "bytes32",
          "name": "newAdminRole",
          "type": "bytes32"
        }
      ],
      "name": "RoleAdminChanged",
      "type": "event"
    },
    {
      "anonymous": false,
      "inputs": [
        {
          "indexed": true,
          "internalType": "bytes32",
          "name": "role",
          "type": "bytes32"
        },
        {
          "indexed": true,
          "internalType": "address",
          "name": "account",
          "type": "address"
        },
        {
          "indexed": true,
          "internalType": "address",
          "name": "sender",
          "type": "address"
        }
      ],
      "name": "RoleGranted",
      "type": "event"
    },
    {
      "anonymous": false,
      "inputs": [
        {
          "indexed": true,
          "internalType": "bytes32",
          "name": "role",
          "type": "bytes32"
        },
        {
          "indexed": true,
          "internalType": "address",
          "name": "account",
          "type": "address"
        },
        {
          "indexed": true,
          "internalType": "address",
          "name": "sender",
          "type": "address"
        }
      ],
      "name": "RoleRevoked",
      "type": "event"
    },
    {
      "inputs": [
        {
          "internalType": "address",
          "name": "",
          "type": "address"
        }
      ],
      "name": "AccessStatistics",
      "outputs": [
        {
          "internalType": "uint256",
          "name": "requestCount",
          "type": "uint256"
        },
        {
          "internalType": "uint256",
          "name": "lastAccessDate",
          "type": "uint256"
        },
        {
          "internalType": "bool",
          "name": "activated",
          "type": "bool"
        }
      ],
      "stateMutability": "view",
      "type": "function",
      "constant": true
    },
    {
      "inputs": [],
      "name": "DEFAULT_ADMIN_ROLE",
      "outputs": [
        {
          "internalType": "bytes32",
          "name": "",
          "type": "bytes32"
        }
      ],
      "stateMutability": "view",
      "type": "function",
      "constant": true
    },
    {
      "inputs": [
        {
          "internalType": "uint256",
          "name": "",
          "type": "uint256"
        },
        {
          "internalType": "bytes32",
          "name": "",
          "type": "bytes32"
        }
      ],
      "name": "PolicyList",
      "outputs": [
        {
          "internalType": "uint256",
          "name": "ResourceID",
          "type": "uint256"
        },
        {
          "internalType": "bytes32",
          "name": "SubjectRole",
          "type": "bytes32"
        },
        {
          "internalType": "enum AccessControlList.ActionType",
          "name": "Action",
          "type": "uint8"
        }
      ],
      "stateMutability": "view",
      "type": "function",
      "constant": true
    },
    {
      "inputs": [
        {
          "internalType": "uint256",
          "name": "",
          "type": "uint256"
        }
      ],
      "name": "ResourceList",
      "outputs": [
        {
          "internalType": "uint256",
          "name": "ResourceID",
          "type": "uint256"
        },
        {
          "internalType": "string",
          "name": "Title",
          "type": "string"
        },
        {
          "internalType": "string",
          "name": "Description",
          "type": "string"
        }
      ],
      "stateMutability": "view",
      "type": "function",
      "constant": true
    },
    {
      "inputs": [
        {
          "internalType": "string",
          "name": "",
          "type": "string"
        }
      ],
      "name": "RoleList",
      "outputs": [
        {
          "internalType": "bytes32",
          "name": "",
          "type": "bytes32"
        }
      ],
      "stateMutability": "view",
      "type": "function",
      "constant": true
    },
    {
      "inputs": [
        {
          "internalType": "bytes32",
          "name": "role",
          "type": "bytes32"
        }
      ],
      "name": "getRoleAdmin",
      "outputs": [
        {
          "internalType": "bytes32",
          "name": "",
          "type": "bytes32"
        }
      ],
      "stateMutability": "view",
      "type": "function",
      "constant": true
    },
    {
      "inputs": [
        {
          "internalType": "bytes32",
          "name": "role",
          "type": "bytes32"
        },
        {
          "internalType": "uint256",
          "name": "index",
          "type": "uint256"
        }
      ],
      "name": "getRoleMember",
      "outputs": [
        {
          "internalType": "address",
          "name": "",
          "type": "address"
        }
      ],
      "stateMutability": "view",
      "type": "function",
      "constant": true
    },
    {
      "inputs": [
        {
          "internalType": "bytes32",
          "name": "role",
          "type": "bytes32"
        }
      ],
      "name": "getRoleMemberCount",
      "outputs": [
        {
          "internalType": "uint256",
          "name": "",
          "type": "uint256"
        }
      ],
      "stateMutability": "view",
      "type": "function",
      "constant": true
    },
    {
      "inputs": [
        {
          "internalType": "bytes32",
          "name": "role",
          "type": "bytes32"
        },
        {
          "internalType": "address",
          "name": "account",
          "type": "address"
        }
      ],
      "name": "hasRole",
      "outputs": [
        {
          "internalType": "bool",
          "name": "",
          "type": "bool"
        }
      ],
      "stateMutability": "view",
      "type": "function",
      "constant": true
    },
    {
      "inputs": [
        {
          "internalType": "bytes32",
          "name": "role",
          "type": "bytes32"
        },
        {
          "internalType": "address",
          "name": "account",
          "type": "address"
        }
      ],
      "name": "renounceRole",
      "outputs": [],
      "stateMutability": "nonpayable",
      "type": "function"
    },
    {
      "inputs": [
        {
          "internalType": "bytes32",
          "name": "role",
          "type": "bytes32"
        },
        {
          "internalType": "address",
          "name": "account",
          "type": "address"
        }
      ],
      "name": "revokeRole",
      "outputs": [],
      "stateMutability": "nonpayable",
      "type": "function"
    },
    {
      "inputs": [
        {
          "internalType": "string",
          "name": "roleName",
          "type": "string"
        }
      ],
      "name": "addRole",
      "outputs": [],
      "stateMutability": "nonpayable",
      "type": "function"
    },
    {
      "inputs": [
        {
          "internalType": "string",
          "name": "roleName",
          "type": "string"
        },
        {
          "internalType": "address",
          "name": "_address",
          "type": "address"
        }
      ],
      "name": "grantRole",
      "outputs": [],
      "stateMutability": "nonpayable",
      "type": "function"
    },
    {
      "inputs": [
        {
          "internalType": "bytes32",
          "name": "role",
          "type": "bytes32"
        },
        {
          "internalType": "address",
          "name": "account",
          "type": "address"
        }
      ],
      "name": "grantRole",
      "outputs": [],
      "stateMutability": "nonpayable",
      "type": "function"
    },
    {
      "inputs": [
        {
          "internalType": "string",
          "name": "resTitle",
          "type": "string"
        },
        {
          "internalType": "string",
          "name": "resDescription",
          "type": "string"
        }
      ],
      "name": "addResource",
      "outputs": [
        {
          "internalType": "uint256",
          "name": "",
          "type": "uint256"
        }
      ],
      "stateMutability": "nonpayable",
      "type": "function"
    },
    {
      "inputs": [
        {
          "internalType": "uint256",
          "name": "resourceID",
          "type": "uint256"
        },
        {
          "internalType": "string",
          "name": "role",
          "type": "string"
        },
        {
          "internalType": "uint256",
          "name": "action",
          "type": "uint256"
        }
      ],
      "name": "addPolicy",
      "outputs": [],
      "stateMutability": "nonpayable",
      "type": "function"
    },
    {
      "inputs": [
        {
          "internalType": "uint256",
          "name": "action",
          "type": "uint256"
        }
      ],
      "name": "getActionEnumValue",
      "outputs": [
        {
          "internalType": "enum AccessControlList.ActionType",
          "name": "",
          "type": "uint8"
        }
      ],
      "stateMutability": "nonpayable",
      "type": "function"
    },
    {
      "inputs": [
        {
          "internalType": "uint256",
          "name": "resourceID",
          "type": "uint256"
        },
        {
          "internalType": "address",
          "name": "_address",
          "type": "address"
        }
      ],
      "name": "requestResource",
      "outputs": [
        {
          "internalType": "enum AccessControlList.ActionType",
          "name": "",
          "type": "uint8"
        }
      ],
      "stateMutability": "nonpayable",
      "type": "function"
    },
    {
      "inputs": [
        {
          "internalType": "uint256",
          "name": "_roleID",
          "type": "uint256"
        }
      ],
      "name": "getRole",
      "outputs": [
        {
          "internalType": "string",
          "name": "name",
          "type": "string"
        },
        {
          "internalType": "bytes32",
          "name": "ID",
          "type": "bytes32"
        }
      ],
      "stateMutability": "view",
      "type": "function",
      "constant": true
    },
    {
      "inputs": [
        {
          "internalType": "string",
          "name": "role",
          "type": "string"
        }
      ],
      "name": "getRole",
      "outputs": [
        {
          "internalType": "bytes32",
          "name": "",
          "type": "bytes32"
        }
      ],
      "stateMutability": "view",
      "type": "function",
      "constant": true
    },
    {
      "inputs": [
        {
          "internalType": "uint256",
          "name": "resourceID",
          "type": "uint256"
        },
        {
          "internalType": "string",
          "name": "role",
          "type": "string"
        }
      ],
      "name": "getPolicy",
      "outputs": [
        {
          "internalType": "uint256",
          "name": "",
          "type": "uint256"
        }
      ],
      "stateMutability": "view",
      "type": "function",
      "constant": true
    },
    {
      "inputs": [
        {
          "internalType": "uint256",
          "name": "resourceID",
          "type": "uint256"
        }
      ],
      "name": "getResource",
      "outputs": [
        {
          "internalType": "uint256",
          "name": "ResourceID",
          "type": "uint256"
        },
        {
          "internalType": "string",
          "name": "Title",
          "type": "string"
        },
        {
          "internalType": "string",
          "name": "Description",
          "type": "string"
        }
      ],
      "stateMutability": "view",
      "type": "function",
      "constant": true
    },
    {
      "inputs": [],
      "name": "getResourceCount",
      "outputs": [
        {
          "internalType": "uint256",
          "name": "resourceCount",
          "type": "uint256"
        }
      ],
      "stateMutability": "view",
      "type": "function",
      "constant": true
    },
    {
      "inputs": [],
      "name": "getRoleCount",
      "outputs": [
        {
          "internalType": "uint256",
          "name": "resourceCount",
          "type": "uint256"
        }
      ],
      "stateMutability": "view",
      "type": "function",
      "constant": true
    }
  ],
  "bytecode": "0x608060405234801561001057600080fd5b506115ec806100206000396000f3fe608060405234801561001057600080fd5b50600436106101285760003560e01c8063182fefe21461012d5780631c512f61146101425780631e8fca2d1461016b5780631f123d151461018d578063248a9ca3146101a057806327fca355146101c05780632c5c5b01146101d35780632f2ff15d146101f557806336568abe14610208578063381e2d851461021b5780633e96e8681461022e5780635312fdc2146102415780636237ad64146102625780636e9067fb1461027557806383d33319146102885780638d225030146102905780639010d07c146102a357806391d14854146102c35780639f96de0f146102e3578063a217fddf146102eb578063c19ae2ed146102f3578063ca15c87314610306578063d547741f14610319578063e0a720cb1461032c575b600080fd5b61014061013b36600461127a565b61034e565b005b6101556101503660046110c4565b61041c565b60405161016291906113a7565b60405180910390f35b61017e6101793660046110c4565b61043d565b6040516101629392919061150e565b61017e61019b3660046110c4565b610586565b6101b36101ae3660046110c4565b6106bf565b604051610162919061139e565b6101b36101ce366004611240565b6106d4565b6101e66101e1366004611116565b610737565b604051610162939291906114ea565b6101406102033660046110dc565b610766565b6101406102163660046110dc565b6107b7565b61015561022936600461121d565b6107f9565b61014061023c366004611137565b61093d565b61025461024f3660046110c4565b6109cc565b6040516101629291906113bc565b6101b3610270366004611137565b610aad565b6101b3610283366004611137565b610aca565b6101b3610af2565b6101b361029e3660046111bd565b610b04565b6102b66102b1366004611116565b610b80565b604051610162919061137f565b6102d66102d13660046110dc565b610b9e565b6040516101629190611393565b6101b3610bbc565b6101b3610bc8565b610140610301366004611171565b610bcd565b6101b36103143660046110c4565b610c56565b6101406103273660046110dc565b610c6d565b61033f61033a3660046110a9565b610ca7565b60405161016293929190611543565b604051806060016040528084815260200160048460405161036f91906112f3565b908152602001604051809103902054815260200161038c8361041c565b600281111561039757fe5b905260008481526003602052604080822090519091906004906103bb9087906112f3565b9081526020016040518091039020548152602001908152602001600020600082015181600001556020820151816001015560408201518160020160006101000a81548160ff0219169083600281111561041057fe5b02179055505050505050565b60008161042b57506000610438565b8160011415610438575060015b919050565b600081815260056020908152604080832080546001808301805485516002938216156101000260001901909116839004601f8101889004880282018801909652858152606096879694959294939092019290918491908301828280156104e45780601f106104b9576101008083540402835291602001916104e4565b820191906000526020600020905b8154815290600101906020018083116104c757829003601f168201915b5050845460408051602060026001851615610100026000190190941693909304601f8101849004840282018401909252818152959750869450925084019050828280156105725780601f1061054757610100808354040283529160200191610572565b820191906000526020600020905b81548152906001019060200180831161055557829003601f168201915b505050505090509250925092509193909250565b6005602090815260009182526040918290208054600180830180548651600293821615610100026000190190911692909204601f8101869004860283018601909652858252919492939092908301828280156106235780601f106105f857610100808354040283529160200191610623565b820191906000526020600020905b81548152906001019060200180831161060657829003601f168201915b50505060028085018054604080516020601f60001961010060018716150201909416959095049283018590048502810185019091528181529596959450909250908301828280156106b55780601f1061068a576101008083540402835291602001916106b5565b820191906000526020600020905b81548152906001019060200180831161069857829003601f168201915b5050505050905083565b60009081526020819052604090206002015490565b600082815260036020526040808220905182906004906106f59086906112f3565b908152602001604051809103902054815260200190815260200160002060020160009054906101000a900460ff16600281111561072e57fe5b90505b92915050565b600360209081526000928352604080842090915290825290208054600182015460029092015490919060ff1683565b600082815260208190526040902060020154610784906102d1610ccb565b6107a95760405162461bcd60e51b81526004016107a090611420565b60405180910390fd5b6107b38282610ccf565b5050565b6107bf610ccb565b6001600160a01b0316816001600160a01b0316146107ef5760405162461bcd60e51b81526004016107a09061149b565b6107b38282610d3e565b6001600160a01b038116600090815260066020526040812060028101546001919060ff16156108545760075460018201544291908203101561085257815460010180835560075411610852575060029250610731915050565b505b60005b6108616002610dad565b811015610933576108a660046009838154811061087a57fe5b90600052602060002001604051610891919061130f565b90815260200160405180910390205486610b9e565b1561092b576000868152600360205260408120600980548391600491869081106108cc57fe5b906000526020600020016040516108e3919061130f565b908152602001604051809103902054815260200190815260200160002060020160009054906101000a900460ff16600281111561091c57fe5b141561092b5760009250610933565b600101610857565b5090949350505050565b80600961094a6002610dad565b8154811061095457fe5b906000526020600020019080519060200190610971929190610f7d565b5061097c6002610db1565b60008160405160200161098f91906112f3565b604051602081830303815290604052805190602001209050806004836040516109b891906112f3565b908152604051908190036020019020555050565b60606000600983815481106109dd57fe5b906000526020600020016004600985815481106109f657fe5b90600052602060002001604051610a0d919061130f565b908152604080516020928190038301812054845460026001821615610100026000190190911604601f81018590048502830185019093528282529290918491830182828015610a9d5780601f10610a7257610100808354040283529160200191610a9d565b820191906000526020600020905b815481529060010190602001808311610a8057829003601f168201915b5050505050915091509150915091565b805160208183018101805160048252928201919093012091525481565b6000600482604051610adc91906112f3565b9081526020016040518091039020549050919050565b6000610afe6002610dad565b90505b90565b600080610b116001610dad565b6040805160608101825282815260208082018881528284018890526000858152600583529390932082518155925180519495509193610b569260018501920190610f7d565b5060408201518051610b72916002840191602090910190610f7d565b5090505061072e6001610db1565b600082815260208190526040812061072e908363ffffffff610dba16565b600082815260208190526040812061072e908363ffffffff610dc616565b6000610afe6001610dad565b600081565b610bd78282610bcd565b6001600160a01b03811660009081526006602052604090206002015460ff166107b357604080516060810182526000808252602080830182815260018486018181526001600160a01b039790971684526006909252939091209151825591519181019190915590516002909101805460ff191691151591909117905550565b600081815260208190526040812061073190610ddb565b600082815260208190526040902060020154610c8b906102d1610ccb565b6107ef5760405162461bcd60e51b81526004016107a09061145d565b60066020526000908152604090208054600182015460029092015490919060ff1683565b3390565b6000828152602081905260409020610ced908263ffffffff610de616565b156107b357610cfa610ccb565b6001600160a01b0316816001600160a01b0316837f2f8788117e7eff1d82e926ec794901d17c78024a50270940304540a733656f0d60405160405180910390a45050565b6000828152602081905260409020610d5c908263ffffffff610dfb16565b156107b357610d69610ccb565b6001600160a01b0316816001600160a01b0316837ff6391f5c32d9c69d2a47ea670b442974b53935d1edc7fd64eb21e047a839171b60405160405180910390a45050565b5490565b80546001019055565b600061072e8383610e10565b600061072e836001600160a01b038416610e55565b600061073182610dad565b600061072e836001600160a01b038416610e6d565b600061072e836001600160a01b038416610eb7565b81546000908210610e335760405162461bcd60e51b81526004016107a0906113de565b826000018281548110610e4257fe5b9060005260206000200154905092915050565b60009081526001919091016020526040902054151590565b6000610e798383610e55565b610eaf57508154600181810184556000848152602080822090930184905584548482528286019093526040902091909155610731565b506000610731565b60008181526001830160205260408120548015610f735783546000198083019190810190600090879083908110610eea57fe5b9060005260206000200154905080876000018481548110610f0757fe5b600091825260208083209091019290925582815260018981019092526040902090840190558654879080610f3757fe5b60019003818190600052602060002001600090559055866001016000878152602001908152602001600020600090556001945050505050610731565b6000915050610731565b828054600181600116156101000203166002900490600052602060002090601f016020900481019282601f10610fbe57805160ff1916838001178555610feb565b82800160010185558215610feb579182015b82811115610feb578251825591602001919060010190610fd0565b50610ff7929150610ffb565b5090565b610b0191905b80821115610ff75760008155600101611001565b80356001600160a01b038116811461073157600080fd5b600082601f83011261103c578081fd5b81356001600160401b0380821115611052578283fd5b604051601f8301601f191681016020018281118282101715611072578485fd5b60405282815292508284830160200186101561108d57600080fd5b8260208601602083013760006020848301015250505092915050565b6000602082840312156110ba578081fd5b61072e8383611015565b6000602082840312156110d5578081fd5b5035919050565b600080604083850312156110ee578081fd5b8235915060208301356001600160a01b038116811461110b578182fd5b809150509250929050565b60008060408385031215611128578182fd5b50508035926020909101359150565b600060208284031215611148578081fd5b81356001600160401b0381111561115d578182fd5b6111698482850161102c565b949350505050565b60008060408385031215611183578182fd5b82356001600160401b03811115611198578283fd5b6111a48582860161102c565b9250506111b48460208501611015565b90509250929050565b600080604083850312156111cf578182fd5b82356001600160401b03808211156111e5578384fd5b6111f18683870161102c565b93506020850135915080821115611206578283fd5b506112138582860161102c565b9150509250929050565b6000806040838503121561122f578182fd5b823591506111b48460208501611015565b60008060408385031215611252578182fd5b8235915060208301356001600160401b0381111561126e578182fd5b6112138582860161102c565b60008060006060848603121561128e578081fd5b8335925060208401356001600160401b038111156112aa578182fd5b6112b68682870161102c565b925050604084013590509250925092565b600081518084526112df816020860160208601611566565b601f01601f19169290920160200192915050565b60008251611305818460208701611566565b9190910192915050565b600080835460018082166000811461132e576001811461134557611374565b60ff198316865260028304607f1686019350611374565b600283048786526020808720875b8381101561136c5781548a820152908501908201611353565b505050860193505b509195945050505050565b6001600160a01b0391909116815260200190565b901515815260200190565b90815260200190565b602081016113b48361155b565b825292915050565b6000604082526113cf60408301856112c7565b90508260208301529392505050565b60208082526022908201527f456e756d657261626c655365743a20696e646578206f7574206f6620626f756e604082015261647360f01b606082015260800190565b6020808252602f9082015260008051602061159783398151915260408201526e0818591b5a5b881d1bc819dc985b9d608a1b606082015260800190565b602080825260309082015260008051602061159783398151915260408201526f2061646d696e20746f207265766f6b6560801b606082015260800190565b6020808252602f908201527f416363657373436f6e74726f6c3a2063616e206f6e6c792072656e6f756e636560408201526e103937b632b9903337b91039b2b63360891b606082015260800190565b83815260208101839052606081016115018361155b565b6040830152949350505050565b60008482526060602083015261152760608301856112c7565b828103604084015261153981856112c7565b9695505050505050565b92835260208301919091521515604082015260600190565b806003811061043857fe5b60005b83811015611581578181015183820152602001611569565b83811115611590576000848401525b5050505056fe416363657373436f6e74726f6c3a2073656e646572206d75737420626520616ea26469706673582212208bbe3269eb2840cff755599888888ccc4da81b0c5143f2e20b0fe0ff83f2109a64736f6c63430006020033",
  "source": "pragma solidity >=0.4.22 <0.8.0;\npragma experimental ABIEncoderV2;\n\nimport \"@openzeppelin/contracts/access/AccessControl.sol\";\nimport \"@openzeppelin/contracts/utils/Counters.sol\";\n\ncontract AccessControlList is AccessControl {\n    using Counters for Counters.Counter;\n    Counters.Counter private _recourceIds;\n    Counters.Counter private _roleIds;\n\n    enum SubjectType {Role, Address}\n\n    enum ActionType {Autorized, Denied, Penalized}\n\n    struct ABACL {\n        string resourceName;\n        address SubjectAddress;\n    }\n\n    struct RBACL {\n        uint256 ResourceID;\n        bytes32 SubjectRole;\n        ActionType Action;\n    }\n\n    struct RBACLRoleData {\n        bool exists;\n        bool approved;\n    }\n\n    struct Resource {\n        uint256 ResourceID;\n        string Title;\n        string Description;\n    }\n\n    struct AccessStatistic {\n        uint256 requestCount;\n        uint256 lastAccessDate;\n        bool activated;\n    }\n\n    mapping(uint256 => mapping(bytes32 => RBACL)) public PolicyList;\n    mapping(string => bytes32) public RoleList;\n    mapping(uint256 => Resource) public ResourceList;\n    mapping(address => AccessStatistic) public AccessStatistics;\n\n    uint256 requestCountTreshhold;\n    uint256 requestTimeTreshhold;\n\n    string[] roleNames;\n\n    function addRole(string memory roleName) public {\n        roleNames[_roleIds.current()] = roleName;\n        _roleIds.increment();\n        bytes32 newRole = keccak256(abi.encodePacked(roleName));\n        RoleList[roleName] = newRole;\n    }\n\n    function grantRole(string memory roleName, address _address) public {\n        grantRole(roleName, _address);\n        if (!AccessStatistics[_address].activated) {\n            AccessStatistics[_address] = AccessStatistic({\n                requestCount: 0,\n                lastAccessDate: 0,\n                activated: true\n            });\n        }\n    }\n\n    function addResource(string memory resTitle, string memory resDescription)\n        public\n        returns (uint256)\n    {\n        uint256 newResourceId = _recourceIds.current();\n        ResourceList[newResourceId] = Resource({\n            ResourceID: newResourceId,\n            Title: resTitle,\n            Description: resDescription\n        });\n        _recourceIds.increment();\n        return newResourceId;\n    }\n\n    function addPolicy(\n        uint256 resourceID,\n        string memory role,\n        uint256 action\n    ) public {\n        PolicyList[resourceID][RoleList[role]] = RBACL({\n            ResourceID: resourceID,\n            SubjectRole: RoleList[role],\n            Action: getActionEnumValue(action)\n        });\n    }\n\n    function getActionEnumValue(uint256 action) public returns (ActionType) {\n        if (action == 0) {\n            return ActionType.Autorized;\n        } else if (action == 1) {\n            return ActionType.Denied;\n        }\n    }\n\n    function requestResource(uint256 resourceID, address _address)\n        public\n        returns (ActionType)\n    {\n        ActionType act = ActionType.Denied;\n        AccessStatistic storage accessStatistic = AccessStatistics[_address];\n        if (accessStatistic.activated) {\n            uint256 chainStartTime = now;\n            if (\n                chainStartTime - accessStatistic.lastAccessDate <\n                requestCountTreshhold\n            ) {\n                accessStatistic.requestCount += 1;\n                if (accessStatistic.requestCount >= requestCountTreshhold) {\n                    act = ActionType.Penalized;\n                    return act;\n                }\n            }\n        }\n        for (uint256 i = 0; i < _roleIds.current(); i++) {\n            if (hasRole(RoleList[roleNames[i]], _address)) {\n                if (\n                    PolicyList[resourceID][RoleList[roleNames[i]]].Action ==\n                    ActionType.Autorized\n                ) {\n                    act = ActionType.Autorized;\n                    break;\n                }\n            }\n        }\n        return act;\n    }\n\n    function getRole(string memory role) public view returns (bytes32) {\n        return RoleList[role];\n    }\n\n    function getRole(uint256 _roleID)\n        public\n        view\n        returns (string memory name, bytes32 ID)\n    {\n        return (roleNames[_roleID], RoleList[roleNames[_roleID]]);\n    }\n\n    function getPolicy(uint256 resourceID, string memory role)\n        public\n        view\n        returns (uint256)\n    {\n        return uint256(PolicyList[resourceID][RoleList[role]].Action);\n    }\n\n    function getResource(uint256 resourceID)\n        public\n        view\n        returns (\n            uint256 ResourceID,\n            string memory Title,\n            string memory Description\n        )\n    {\n        return (\n            ResourceList[resourceID].ResourceID,\n            ResourceList[resourceID].Title,\n            ResourceList[resourceID].Description\n        );\n    }\n\n    function getResourceCount() public view returns (uint256 resourceCount) {\n        return _recourceIds.current();\n    }\n\n    function getRoleCount() public view returns (uint256 resourceCount) {\n        return _roleIds.current();\n    }\n}\n",
  "sourcePath": "/home/fatemeh/Desktop/Consensys Course/assetdonation/AssetDonation/contracts/AccessControlList.sol",
  "compiler": {
    "name": "solc",
    "version": "0.6.2+commit.bacdbe57.Emscripten.clang"
  },
  "schemaVersion": "3.3.1",
  "updatedAt": "2021-03-26T00:16:14.925Z",
  "networkType": "ethereum",
  "devdoc": {
    "methods": {
      "getRoleAdmin(bytes32)": {
        "details": "Returns the admin role that controls `role`. See {grantRole} and {revokeRole}.     * To change a role's admin, use {_setRoleAdmin}."
      },
      "getRoleMember(bytes32,uint256)": {
        "details": "Returns one of the accounts that have `role`. `index` must be a value between 0 and {getRoleMemberCount}, non-inclusive.     * Role bearers are not sorted in any particular way, and their ordering may change at any point.     * WARNING: When using {getRoleMember} and {getRoleMemberCount}, make sure you perform all queries on the same block. See the following https://forum.openzeppelin.com/t/iterating-over-elements-on-enumerableset-in-openzeppelin-contracts/2296[forum post] for more information."
      },
      "getRoleMemberCount(bytes32)": {
        "details": "Returns the number of accounts that have `role`. Can be used together with {getRoleMember} to enumerate all bearers of a role."
      },
      "grantRole(bytes32,address)": {
        "details": "Grants `role` to `account`.     * If `account` had not been already granted `role`, emits a {RoleGranted} event.     * Requirements:     * - the caller must have ``role``'s admin role."
      },
      "hasRole(bytes32,address)": {
        "details": "Returns `true` if `account` has been granted `role`."
      },
      "renounceRole(bytes32,address)": {
        "details": "Revokes `role` from the calling account.     * Roles are often managed via {grantRole} and {revokeRole}: this function's purpose is to provide a mechanism for accounts to lose their privileges if they are compromised (such as when a trusted device is misplaced).     * If the calling account had been granted `role`, emits a {RoleRevoked} event.     * Requirements:     * - the caller must be `account`."
      },
      "revokeRole(bytes32,address)": {
        "details": "Revokes `role` from `account`.     * If `account` had been granted `role`, emits a {RoleRevoked} event.     * Requirements:     * - the caller must have ``role``'s admin role."
      }
    }
  },
  "userdoc": {
    "methods": {}
  }
}