{
  "contractName": "Administration",
  "abi": [
    {
      "inputs": [],
      "stateMutability": "nonpayable",
      "type": "constructor"
    },
    {
      "anonymous": false,
      "inputs": [
        {
          "indexed": false,
          "internalType": "address",
          "name": "account",
          "type": "address"
        }
      ],
      "name": "Paused",
      "type": "event"
    },
    {
      "anonymous": false,
      "inputs": [
        {
          "indexed": true,
          "internalType": "bytes32",
          "name": "role",
          "type": "bytes32"
        },
        {
          "indexed": true,
          "internalType": "bytes32",
          "name": "previousAdminRole",
          "type": "bytes32"
        },
        {
          "indexed": true,
          "internalType": "bytes32",
          "name": "newAdminRole",
          "type": "bytes32"
        }
      ],
      "name": "RoleAdminChanged",
      "type": "event"
    },
    {
      "anonymous": false,
      "inputs": [
        {
          "indexed": true,
          "internalType": "bytes32",
          "name": "role",
          "type": "bytes32"
        },
        {
          "indexed": true,
          "internalType": "address",
          "name": "account",
          "type": "address"
        },
        {
          "indexed": true,
          "internalType": "address",
          "name": "sender",
          "type": "address"
        }
      ],
      "name": "RoleGranted",
      "type": "event"
    },
    {
      "anonymous": false,
      "inputs": [
        {
          "indexed": true,
          "internalType": "bytes32",
          "name": "role",
          "type": "bytes32"
        },
        {
          "indexed": true,
          "internalType": "address",
          "name": "account",
          "type": "address"
        },
        {
          "indexed": true,
          "internalType": "address",
          "name": "sender",
          "type": "address"
        }
      ],
      "name": "RoleRevoked",
      "type": "event"
    },
    {
      "anonymous": false,
      "inputs": [
        {
          "indexed": false,
          "internalType": "address",
          "name": "account",
          "type": "address"
        }
      ],
      "name": "Unpaused",
      "type": "event"
    },
    {
      "inputs": [],
      "name": "DEFAULT_ADMIN_ROLE",
      "outputs": [
        {
          "internalType": "bytes32",
          "name": "",
          "type": "bytes32"
        }
      ],
      "stateMutability": "view",
      "type": "function",
      "constant": true
    },
    {
      "inputs": [],
      "name": "DONOR",
      "outputs": [
        {
          "internalType": "bytes32",
          "name": "",
          "type": "bytes32"
        }
      ],
      "stateMutability": "view",
      "type": "function",
      "constant": true
    },
    {
      "inputs": [],
      "name": "RECEIVER",
      "outputs": [
        {
          "internalType": "bytes32",
          "name": "",
          "type": "bytes32"
        }
      ],
      "stateMutability": "view",
      "type": "function",
      "constant": true
    },
    {
      "inputs": [
        {
          "internalType": "address",
          "name": "",
          "type": "address"
        }
      ],
      "name": "donors",
      "outputs": [
        {
          "internalType": "bool",
          "name": "exists",
          "type": "bool"
        },
        {
          "internalType": "bool",
          "name": "approved",
          "type": "bool"
        },
        {
          "internalType": "uint32",
          "name": "donationCount",
          "type": "uint32"
        }
      ],
      "stateMutability": "view",
      "type": "function",
      "constant": true
    },
    {
      "inputs": [
        {
          "internalType": "bytes32",
          "name": "role",
          "type": "bytes32"
        }
      ],
      "name": "getRoleAdmin",
      "outputs": [
        {
          "internalType": "bytes32",
          "name": "",
          "type": "bytes32"
        }
      ],
      "stateMutability": "view",
      "type": "function",
      "constant": true
    },
    {
      "inputs": [
        {
          "internalType": "bytes32",
          "name": "role",
          "type": "bytes32"
        },
        {
          "internalType": "uint256",
          "name": "index",
          "type": "uint256"
        }
      ],
      "name": "getRoleMember",
      "outputs": [
        {
          "internalType": "address",
          "name": "",
          "type": "address"
        }
      ],
      "stateMutability": "view",
      "type": "function",
      "constant": true
    },
    {
      "inputs": [
        {
          "internalType": "bytes32",
          "name": "role",
          "type": "bytes32"
        }
      ],
      "name": "getRoleMemberCount",
      "outputs": [
        {
          "internalType": "uint256",
          "name": "",
          "type": "uint256"
        }
      ],
      "stateMutability": "view",
      "type": "function",
      "constant": true
    },
    {
      "inputs": [
        {
          "internalType": "bytes32",
          "name": "role",
          "type": "bytes32"
        },
        {
          "internalType": "address",
          "name": "account",
          "type": "address"
        }
      ],
      "name": "grantRole",
      "outputs": [],
      "stateMutability": "nonpayable",
      "type": "function"
    },
    {
      "inputs": [
        {
          "internalType": "bytes32",
          "name": "role",
          "type": "bytes32"
        },
        {
          "internalType": "address",
          "name": "account",
          "type": "address"
        }
      ],
      "name": "hasRole",
      "outputs": [
        {
          "internalType": "bool",
          "name": "",
          "type": "bool"
        }
      ],
      "stateMutability": "view",
      "type": "function",
      "constant": true
    },
    {
      "inputs": [],
      "name": "paused",
      "outputs": [
        {
          "internalType": "bool",
          "name": "",
          "type": "bool"
        }
      ],
      "stateMutability": "view",
      "type": "function",
      "constant": true
    },
    {
      "inputs": [
        {
          "internalType": "address",
          "name": "",
          "type": "address"
        }
      ],
      "name": "receivers",
      "outputs": [
        {
          "internalType": "bool",
          "name": "exists",
          "type": "bool"
        },
        {
          "internalType": "bool",
          "name": "approved",
          "type": "bool"
        },
        {
          "internalType": "uint32",
          "name": "requestCount",
          "type": "uint32"
        }
      ],
      "stateMutability": "view",
      "type": "function",
      "constant": true
    },
    {
      "inputs": [
        {
          "internalType": "bytes32",
          "name": "role",
          "type": "bytes32"
        },
        {
          "internalType": "address",
          "name": "account",
          "type": "address"
        }
      ],
      "name": "renounceRole",
      "outputs": [],
      "stateMutability": "nonpayable",
      "type": "function"
    },
    {
      "inputs": [
        {
          "internalType": "bytes32",
          "name": "role",
          "type": "bytes32"
        },
        {
          "internalType": "address",
          "name": "account",
          "type": "address"
        }
      ],
      "name": "revokeRole",
      "outputs": [],
      "stateMutability": "nonpayable",
      "type": "function"
    },
    {
      "inputs": [
        {
          "internalType": "address",
          "name": "donorAddress",
          "type": "address"
        }
      ],
      "name": "addDonor",
      "outputs": [],
      "stateMutability": "nonpayable",
      "type": "function"
    },
    {
      "inputs": [
        {
          "internalType": "address",
          "name": "receiverAddress",
          "type": "address"
        }
      ],
      "name": "addReceiver",
      "outputs": [],
      "stateMutability": "nonpayable",
      "type": "function"
    },
    {
      "inputs": [
        {
          "internalType": "address",
          "name": "receiverAddress",
          "type": "address"
        }
      ],
      "name": "getReceiver",
      "outputs": [
        {
          "components": [
            {
              "internalType": "bool",
              "name": "exists",
              "type": "bool"
            },
            {
              "internalType": "bool",
              "name": "approved",
              "type": "bool"
            },
            {
              "internalType": "uint32",
              "name": "requestCount",
              "type": "uint32"
            }
          ],
          "internalType": "struct Administration.receiver",
          "name": "",
          "type": "tuple"
        }
      ],
      "stateMutability": "view",
      "type": "function",
      "constant": true
    },
    {
      "inputs": [],
      "name": "getDonor",
      "outputs": [
        {
          "components": [
            {
              "internalType": "bool",
              "name": "exists",
              "type": "bool"
            },
            {
              "internalType": "bool",
              "name": "approved",
              "type": "bool"
            },
            {
              "internalType": "uint32",
              "name": "donationCount",
              "type": "uint32"
            }
          ],
          "internalType": "struct Administration.donor",
          "name": "",
          "type": "tuple"
        }
      ],
      "stateMutability": "view",
      "type": "function",
      "constant": true
    },
    {
      "inputs": [
        {
          "internalType": "address",
          "name": "donorAddress",
          "type": "address"
        }
      ],
      "name": "approveDonor",
      "outputs": [],
      "stateMutability": "nonpayable",
      "type": "function"
    },
    {
      "inputs": [
        {
          "internalType": "address",
          "name": "receiverAddress",
          "type": "address"
        }
      ],
      "name": "approveReceiver",
      "outputs": [],
      "stateMutability": "nonpayable",
      "type": "function"
    },
    {
      "inputs": [],
      "name": "pause",
      "outputs": [],
      "stateMutability": "nonpayable",
      "type": "function"
    },
    {
      "inputs": [],
      "name": "unpause",
      "outputs": [],
      "stateMutability": "nonpayable",
      "type": "function"
    },
    {
      "inputs": [],
      "name": "systemPaused",
      "outputs": [
        {
          "internalType": "bool",
          "name": "",
          "type": "bool"
        }
      ],
      "stateMutability": "view",
      "type": "function",
      "constant": true
    },
    {
      "inputs": [],
      "name": "isAdminUser",
      "outputs": [
        {
          "internalType": "bool",
          "name": "",
          "type": "bool"
        }
      ],
      "stateMutability": "view",
      "type": "function",
      "constant": true
    }
  ],
  "bytecode": "0x60806040523480156200001157600080fd5b506001805460ff19169055620000326000336001600160e01b036200003816565b62000170565b6200004d82826001600160e01b036200005116565b5050565b6000828152602081815260409091206200007691839062000a26620000d3821b17901c565b156200004d576200008f6001600160e01b03620000fc16565b6001600160a01b0316816001600160a01b0316837f2f8788117e7eff1d82e926ec794901d17c78024a50270940304540a733656f0d60405160405180910390a45050565b6000620000f3836001600160a01b0384166001600160e01b036200010016565b90505b92915050565b3390565b60006200011783836001600160e01b036200015816565b6200014f57508154600181810184556000848152602080822090930184905584548482528286019093526040902091909155620000f6565b506000620000f6565b60009081526001919091016020526040902054151590565b610f7a80620001806000396000f3fe608060405234801561001057600080fd5b506004361061011d5760003560e01c80630cb8150f1461012257806315f807621461014d578063248a9ca31461016257806325746834146101825780632a781270146101975780632f2ff15d146101aa57806336568abe146101bd5780633f036ce6146101d05780633f4ba83a146101f05780634576d251146101f85780635c975abb1461020057806369d83ed11461020857806372dbb89f1461021b5780638456cb591461022e5780639010d07c1461023657806391d14854146102565780639d2f83f014610269578063a217fddf14610271578063ad7430cc14610279578063ca0cdea814610281578063ca15c87314610294578063d547741f146102a7578063e0218fb3146102ba575b600080fd5b610135610130366004610be1565b6102c2565b60405161014493929190610ce2565b60405180910390f35b6101556102ef565b6040516101449190610cd7565b610175610170366004610c08565b61030f565b6040516101449190610d00565b610195610190366004610be1565b610324565b005b6101956101a5366004610be1565b61041a565b6101956101b8366004610c20565b61045d565b6101956101cb366004610c20565b6104aa565b6101e36101de366004610be1565b6104ec565b6040516101449190610f16565b610195610549565b61017561057a565b610155610591565b610195610216366004610be1565b61059a565b610195610229366004610be1565b610668565b61019561069d565b610249610244366004610c5a565b6106cc565b6040516101449190610cc3565b610155610264366004610c20565b6106f3565b610155610711565b610175610722565b610175610727565b61013561028f366004610be1565b610733565b6101756102a2366004610c08565b610760565b6101956102b5366004610c20565b610777565b6101e36107b1565b60036020526000908152604090205460ff8082169161010081049091169062010000900463ffffffff1683565b60006102fb81336106f3565b156103085750600161030c565b5060005b90565b60009081526020819052604090206002015490565b6001600160a01b0381166000908152600260205260409020805460ff166103be57604080516060810182526001808252600060208084018281528486019384526001600160a01b03881683526002909152939020915182549351915160ff199094169015151761ff001916610100911515919091021765ffffffff000019166201000063ffffffff90931692909202919091179055610416565b6001600160a01b0382166000908152600260205260409020546103f7906103f29062010000900463ffffffff166001610806565b61082b565b815463ffffffff91909116620100000265ffffffff0000199091161781555b5050565b61043760405161042990610c9e565b60405180910390208261045d565b6001600160a01b03166000908152600260205260409020805461ff001916610100179055565b60008281526020819052604090206002015461047b90610264610854565b6104a05760405162461bcd60e51b815260040161049790610d4b565b60405180910390fd5b6104168282610858565b6104b2610854565b6001600160a01b0316816001600160a01b0316146104e25760405162461bcd60e51b815260040161049790610ec7565b61041682826108c7565b6104f4610bc1565b506001600160a01b03166000908152600360209081526040918290208251606081018452905460ff808216151583526101008204161515928201929092526201000090910463ffffffff169181019190915290565b6105546000336106f3565b6105705760405162461bcd60e51b815260040161049790610e53565b610578610936565b565b60405161058690610c9e565b604051809103902081565b60015460ff1690565b6001600160a01b0381166000908152600360205260409020805460ff1661063457604080516060810182526001808252600060208084018281528486019384526001600160a01b03881683526003909152939020915182549351915160ff199094169015151761ff001916610100911515919091021765ffffffff000019166201000063ffffffff90931692909202919091179055610416565b6001600160a01b0382166000908152600360205260409020546103f7906103f29062010000900463ffffffff166001610806565b61067760405161042990610caf565b6001600160a01b03166000908152600360205260409020805461ff001916610100179055565b6106a86000336106f3565b6106c45760405162461bcd60e51b815260040161049790610e53565b6105786109a2565b60008281526020819052604081206106ea908363ffffffff6109fa16565b90505b92915050565b60008281526020819052604081206106ea908363ffffffff610a0616565b60008061071c610591565b91505090565b600081565b60405161058690610caf565b60026020526000908152604090205460ff8082169161010081049091169062010000900463ffffffff1683565b60008181526020819052604081206106ed90610a1b565b60008281526020819052604090206002015461079590610264610854565b6104e25760405162461bcd60e51b815260040161049790610deb565b6107b9610bc1565b50336000908152600260209081526040918290208251606081018452905460ff808216151583526101008204161515928201929092526201000090910463ffffffff169181019190915290565b6000828201838110156106ea5760405162461bcd60e51b815260040161049790610db6565b6000600160201b82106108505760405162461bcd60e51b815260040161049790610e81565b5090565b3390565b6000828152602081905260409020610876908263ffffffff610a2616565b1561041657610883610854565b6001600160a01b0316816001600160a01b0316837f2f8788117e7eff1d82e926ec794901d17c78024a50270940304540a733656f0d60405160405180910390a45050565b60008281526020819052604090206108e5908263ffffffff610a3b16565b15610416576108f2610854565b6001600160a01b0316816001600160a01b0316837ff6391f5c32d9c69d2a47ea670b442974b53935d1edc7fd64eb21e047a839171b60405160405180910390a45050565b60015460ff166109585760405162461bcd60e51b815260040161049790610d88565b6001805460ff191690557f5db9ee0a495bf2e6ff9c91a7834c1ba4fdd244a5e8aa4e537bd38aeae4b073aa61098b610854565b6040516109989190610cc3565b60405180910390a1565b60015460ff16156109c55760405162461bcd60e51b815260040161049790610e29565b6001805460ff1916811790557f62e78cea01bee320cd4e420270b5ea74000d11b0c9f74754ebdbfc544b05a25861098b610854565b60006106ea8383610a50565b60006106ea836001600160a01b038416610a95565b60006106ed82610aad565b60006106ea836001600160a01b038416610ab1565b60006106ea836001600160a01b038416610afb565b81546000908210610a735760405162461bcd60e51b815260040161049790610d09565b826000018281548110610a8257fe5b9060005260206000200154905092915050565b60009081526001919091016020526040902054151590565b5490565b6000610abd8383610a95565b610af3575081546001818101845560008481526020808220909301849055845484825282860190935260409020919091556106ed565b5060006106ed565b60008181526001830160205260408120548015610bb75783546000198083019190810190600090879083908110610b2e57fe5b9060005260206000200154905080876000018481548110610b4b57fe5b600091825260208083209091019290925582815260018981019092526040902090840190558654879080610b7b57fe5b600190038181906000526020600020016000905590558660010160008781526020019081526020016000206000905560019450505050506106ed565b60009150506106ed565b604080516060810182526000808252602082018190529181019190915290565b600060208284031215610bf2578081fd5b81356001600160a01b03811681146106ea578182fd5b600060208284031215610c19578081fd5b5035919050565b60008060408385031215610c32578081fd5b8235915060208301356001600160a01b0381168114610c4f578182fd5b809150509250929050565b60008060408385031215610c6c578182fd5b50508035926020909101359150565b80511515825260208082015115159083015260409081015163ffffffff16910152565b642227a727a960d91b815260050190565b672922a1a2a4ab22a960c11b815260080190565b6001600160a01b0391909116815260200190565b901515815260200190565b9215158352901515602083015263ffffffff16604082015260600190565b90815260200190565b60208082526022908201527f456e756d657261626c655365743a20696e646578206f7574206f6620626f756e604082015261647360f01b606082015260800190565b6020808252602f90820152600080516020610f2583398151915260408201526e0818591b5a5b881d1bc819dc985b9d608a1b606082015260800190565b60208082526014908201527314185d5cd8589b194e881b9bdd081c185d5cd95960621b604082015260600190565b6020808252601b908201527a536166654d6174683a206164646974696f6e206f766572666c6f7760281b604082015260600190565b6020808252603090820152600080516020610f2583398151915260408201526f2061646d696e20746f207265766f6b6560801b606082015260800190565b60208082526010908201526f14185d5cd8589b194e881c185d5cd95960821b604082015260600190565b60208082526014908201527329b2b73232b91034b9903737ba1020a226a4a71760611b604082015260600190565b60208082526026908201527f53616665436173743a2076616c756520646f65736e27742066697420696e203360408201526532206269747360d01b606082015260800190565b6020808252602f908201527f416363657373436f6e74726f6c3a2063616e206f6e6c792072656e6f756e636560408201526e103937b632b9903337b91039b2b63360891b606082015260800190565b606081016106ed8284610c7b56fe416363657373436f6e74726f6c3a2073656e646572206d75737420626520616ea264697066735822122013b803af99a7dff651dcdcb49753b40039c37b3f1b0a7b71ac96d533f058f21864736f6c63430006020033",
  "source": "pragma solidity ^0.6.2;\npragma experimental ABIEncoderV2;\n\nimport \"@openzeppelin/contracts/access/AccessControl.sol\";\nimport \"@openzeppelin/contracts/utils/Pausable.sol\";\nimport \"@openzeppelin/contracts/math/SafeMath.sol\";\nimport \"@openzeppelin/contracts/utils/SafeCast.sol\";\n\n/// @title A Asset donation smart contract\n/// @author Fatemeh Heidari Soureshjani\n/// @notice This contract facilitates donation of physical assets for specific periods of time between asset owners and receivers\n/// @dev time\n\ncontract Administration is AccessControl, Pausable {\n    //bool noAdmin;\n\n    constructor() public AccessControl() Pausable() {\n        //noAdmin = true;\n        _setupRole(DEFAULT_ADMIN_ROLE, msg.sender);\n    }\n\n    bytes32 public constant DONOR = keccak256(\"DONOR\");\n    bytes32 public constant RECEIVER = keccak256(\"RECEIVER\");\n    struct donor {\n        bool exists;\n        bool approved;\n        uint32 donationCount;\n        //uint32 pageNo;\n    }\n\n    struct receiver {\n        bool exists;\n        bool approved;\n        uint32 requestCount;\n        //uint32 pageNo;\n    }\n\n    mapping(address => donor) public donors;\n    mapping(address => receiver) public receivers;\n    modifier isAdmin() {\n        require(\n            hasRole(DEFAULT_ADMIN_ROLE, msg.sender),\n            \"Sender is not ADMIN.\"\n        );\n        _;\n    }\n\n    // modifier isDonor(address donorAddress) {\n    //     if (!noAdmin) {\n    //         require(hasRole(DONOR, donorAddress));\n    //     }\n    //     _;\n    // }\n    // modifier isReceiver(address receiverAddress) {\n    //     if (!noAdmin) {\n    //         require(hasRole(RECEIVER, receiverAddress));\n    //     }\n    //     _;\n    // }\n\n    function addDonor(address donorAddress) public {\n        donor storage d = donors[donorAddress];\n        if (!d.exists) {\n            donors[donorAddress] = donor({\n                exists: true,\n                approved: false,\n                donationCount: 1\n            });\n        } else {\n            d.donationCount = SafeCast.toUint32(\n                SafeMath.add(uint256(donors[donorAddress].donationCount), 1)\n            );\n        }\n    }\n\n    /// @notice Adds an address to list of receivers\n    function addReceiver(address receiverAddress) public {\n        receiver storage r = receivers[receiverAddress];\n        if (!r.exists) {\n            receivers[receiverAddress] = receiver({\n                exists: true,\n                approved: false,\n                requestCount: 1\n            });\n        } else {\n            r.requestCount = SafeCast.toUint32(\n                SafeMath.add(\n                    uint256(receivers[receiverAddress].requestCount),\n                    1\n                )\n            );\n        }\n    }\n\n    function getReceiver(address receiverAddress)\n        public\n        view\n        returns (receiver memory)\n    {\n        return receivers[receiverAddress];\n    }\n\n    function getDonor() public view returns (donor memory) {\n        return donors[msg.sender];\n    }\n\n    /// @notice Admin approves an address to have the donor role\n    /// @param donorAddress The address of donor to be approved\n    function approveDonor(address donorAddress) public {\n        grantRole(DONOR, donorAddress);\n        donors[donorAddress].approved = true;\n    }\n\n    /// @notice Adds an address to list of receivers\n    // function addReceiver() public {\n    //     if (!receivers[msg.sender]) {\n    //         receivers[msg.sender] = false;\n    //     }\n    // }\n\n    /// @notice Admin approves an address to have the receiver role\n    /// @param receiverAddress The address of receiver to be approved\n    function approveReceiver(address receiverAddress) public {\n        grantRole(RECEIVER, receiverAddress);\n        receivers[receiverAddress].approved = true;\n    }\n\n    function pause() public isAdmin {\n        _pause();\n    }\n\n    // function getAdmin() public returns(address){\n    //     return getRoleAdmin(DEFAULT_ADMIN_ROLE);\n    // }\n\n    function unpause() public isAdmin {\n        _unpause();\n    }\n\n    function systemPaused() public view returns (bool) {\n        bool paused = paused();\n        return paused;\n    }\n\n    function isAdminUser() public view returns (bool) {\n        if (hasRole(DEFAULT_ADMIN_ROLE, msg.sender)) return true;\n        else return false;\n    }\n}\n",
  "sourcePath": "/home/fatemeh/Desktop/Consensys Course/assetdonation/AssetDonation/contracts/Administration.sol",
  "compiler": {
    "name": "solc",
    "version": "0.6.2+commit.bacdbe57.Emscripten.clang"
  },
  "schemaVersion": "3.3.1",
  "updatedAt": "2020-12-14T00:50:19.921Z",
  "networkType": "ethereum",
  "devdoc": {
    "author": "Fatemeh Heidari Soureshjani",
    "details": "time",
    "methods": {
      "approveDonor(address)": {
        "params": {
          "donorAddress": "The address of donor to be approved"
        }
      },
      "approveReceiver(address)": {
        "params": {
          "receiverAddress": "The address of receiver to be approved"
        }
      },
      "getRoleAdmin(bytes32)": {
        "details": "Returns the admin role that controls `role`. See {grantRole} and {revokeRole}.     * To change a role's admin, use {_setRoleAdmin}."
      },
      "getRoleMember(bytes32,uint256)": {
        "details": "Returns one of the accounts that have `role`. `index` must be a value between 0 and {getRoleMemberCount}, non-inclusive.     * Role bearers are not sorted in any particular way, and their ordering may change at any point.     * WARNING: When using {getRoleMember} and {getRoleMemberCount}, make sure you perform all queries on the same block. See the following https://forum.openzeppelin.com/t/iterating-over-elements-on-enumerableset-in-openzeppelin-contracts/2296[forum post] for more information."
      },
      "getRoleMemberCount(bytes32)": {
        "details": "Returns the number of accounts that have `role`. Can be used together with {getRoleMember} to enumerate all bearers of a role."
      },
      "grantRole(bytes32,address)": {
        "details": "Grants `role` to `account`.     * If `account` had not been already granted `role`, emits a {RoleGranted} event.     * Requirements:     * - the caller must have ``role``'s admin role."
      },
      "hasRole(bytes32,address)": {
        "details": "Returns `true` if `account` has been granted `role`."
      },
      "paused()": {
        "details": "Returns true if the contract is paused, and false otherwise."
      },
      "renounceRole(bytes32,address)": {
        "details": "Revokes `role` from the calling account.     * Roles are often managed via {grantRole} and {revokeRole}: this function's purpose is to provide a mechanism for accounts to lose their privileges if they are compromised (such as when a trusted device is misplaced).     * If the calling account had been granted `role`, emits a {RoleRevoked} event.     * Requirements:     * - the caller must be `account`."
      },
      "revokeRole(bytes32,address)": {
        "details": "Revokes `role` from `account`.     * If `account` had been granted `role`, emits a {RoleRevoked} event.     * Requirements:     * - the caller must have ``role``'s admin role."
      }
    },
    "title": "A Asset donation smart contract"
  },
  "userdoc": {
    "methods": {
      "addReceiver(address)": {
        "notice": "Adds an address to list of receivers"
      },
      "approveDonor(address)": {
        "notice": "Admin approves an address to have the donor role"
      },
      "approveReceiver(address)": {
        "notice": "Admin approves an address to have the receiver role"
      }
    },
    "notice": "This contract facilitates donation of physical assets for specific periods of time between asset owners and receivers"
  }
}