{
  "contractName": "Administration",
  "abi": [
    {
      "inputs": [],
      "name": "systemPaused",
      "outputs": [
        {
          "internalType": "bool",
          "name": "",
          "type": "bool"
        }
      ],
      "stateMutability": "nonpayable",
      "type": "function"
    },
    {
      "inputs": [],
      "name": "addDonor",
      "outputs": [],
      "stateMutability": "nonpayable",
      "type": "function"
    }
  ],
  "bytecode": "0x6080604052348015600f57600080fd5b5060a18061001e6000396000f3fe6080604052348015600f57600080fd5b506004361060325760003560e01c806379e085a21460375780639d2f83f014603f575b600080fd5b603d6059565b005b6045605b565b604051605091906060565b60405180910390f35b565b600090565b90151581526020019056fea26469706673582212204df62f06709c4023c76903923598b073d37b2742598fd79cf8d842adc61d29c064736f6c63430006020033",
  "source": "pragma solidity ^0.6.2;\npragma experimental ABIEncoderV2;\n\ncontract Administration {\n    function systemPaused() public returns(bool){}\n    function addDonor() public {}\n}\n\nimport \"@openzeppelin/contracts/token/ERC721/ERC721.sol\";\nimport \"@openzeppelin/contracts/access/AccessControl.sol\";\nimport \"@openzeppelin/contracts/math/SafeMath.sol\";\n\n/// @title A Asset donation smart contract\n/// @author Fatemeh Heidari Soureshjani\n/// @notice This contract facilitates donation of physical assets for specific periods of time between asset owners and receivers\n/// @dev time\n\ncontract DonateAsset is ERC721 {\n    Administration ADM;\n\n    uint32 lastAssetId;\n\n    constructor(address _adm) public ERC721(\"MyToken\", \"MTS\") {\n        ADM = Administration(_adm);\n        lastAssetId = 0;\n    }\n\n    enum Status {Free, Requested, Donated, Inactive, Burned}\n\n    struct Asset {\n        uint32 assetId;\n        string assetTitle;\n        string assetDescription;\n        uint32 availablityDate;\n        string location;\n        Status status;\n        address owner;\n        address recipient;\n        uint32 donatedDateFrom;\n        uint32 donatedDateTo;\n        uint32 requestCount;\n        string imageIPFSHash;\n    }\n\n    mapping(uint32 => Asset) public donationList;\n\n    modifier assetIsFree(uint32 assetId) {\n        require(\n            donationList[assetId].recipient == address(0) &&\n                (donationList[assetId].status == Status.Free ||\n                    donationList[assetId].status == Status.Requested)\n        );\n        _;\n    }\n\n    modifier assetExists(uint32 assetId) {\n        require(donationList[assetId].owner != address(0), \"Invalid asset\");\n        _;\n    }\n\n    modifier isAssetOwner(uint256 assetId) {\n        require(ownerOf(assetId) == msg.sender);\n        _;\n    }\n\n    modifier whenNotPaused(){\n        require(!ADM.systemPaused());\n        _;\n    }\n\n    event LogFree(uint32 assetId);\n\n    event LogDonated(uint32 assetId);\n\n    // event LogInactive(uint32 assetId);\n    // event LogIBurned(uint32 assetId);\n\n    function UpdateAsset(Asset memory asset) public {\n        if (asset.status > donationList[asset.assetId].status) {\n            donationList[asset.assetId].status = asset.status;\n        }\n        donationList[asset.assetId].requestCount = asset.requestCount;\n    }\n\n    /// @notice Adds a new asset to list of donated assets(Should be called by a donor)\n    /// @dev other asset struct members should be added\n    /// @param assetDescription Descrption of the asset entered by owner\n    /// @param availablityDate the first date the owner can donate the asset\n    /// @param location the location of the donated asset\n    /// @param imageIPFSHash IPFS hash of the asset image uploaded by owner and saved to IPFS\n    function addAsset(\n        string memory assetTitle,\n        string memory assetDescription,\n        uint32 availablityDate,\n        string memory location,\n        string memory imageIPFSHash\n    ) public whenNotPaused {\n        ADM.addDonor();\n        uint32 assetId = mintToken(msg.sender);\n        donationList[assetId] = Asset({\n            assetId: assetId,\n            assetTitle: assetTitle,\n            assetDescription: assetDescription,\n            availablityDate: availablityDate,\n            location: location,\n            status: Status.Free,\n            owner: msg.sender,\n            recipient: address(0),\n            donatedDateFrom: 0,\n            donatedDateTo: 0,\n            requestCount: 0,\n            imageIPFSHash: imageIPFSHash\n        });\n        emit LogFree(assetId);\n    }\n\n    /// @notice Returns all donations of an donor(it shoud be called by a donor)\n    /// @dev There must be better way than returing always an array of 16\n    /// @return Asset returns an array of type asset and length 16 of donations of msg.sender\n    function getDonationsByOwner(uint32 pageNo)\n        public\n        view\n        returns (Asset[8] memory)\n    {\n        uint tokenCount = uint32(balanceOf(msg.sender)); //donors[msg.sender].donationCount;\n        //uint32 pageNo = donors[msg.sender].pageNo;\n        uint nextStart = SafeMath.mul(uint256(pageNo) , 8);\n        uint rem = SafeMath.sub( tokenCount , nextStart);\n        uint index = 0;\n        uint32 tokenId;\n        Asset[8] memory assetList;\n        if (rem < 0) {\n            return assetList;\n        } else {\n            if ((rem) < 8) {\n                index = rem;\n            } else {\n                index = 8;\n            }\n            uint loopEnd = SafeMath.add( nextStart , index);\n            for (uint i = nextStart; i < loopEnd; i++) {\n                tokenId = uint32(tokenOfOwnerByIndex(msg.sender, i));\n                assetList[SafeMath.sub(i , nextStart)] = donationList[tokenId];\n            }\n            return assetList;\n        }\n    }\n\n    /// @notice returns all donations\n    /// @dev There must be better way than returing always an array of 16\n    /// @return Asset returns an array of type asset and length 16 of all donations\n    function getAllDonations() public view returns (Asset[16] memory) {\n        uint32 index = 0;\n        Asset[16] memory assetList;\n        if (lastAssetId <= 16) {\n            index = lastAssetId;\n        } else {\n            index = 16;\n        }\n        for (uint32 i = 0; i < index; i++) {\n            assetList[i] = donationList[i];\n        }\n        return assetList;\n    }\n\n    /// @notice The ERC721 stadard for nunfungible token is used to maintain ownership of assets\n    /// @notice everytime a new token is minted based on current value of lastAssetId for assetOwner address, and then lastAssetId is increased\n    /// @param assetOwner the owner of the new asset\n    /// @return returns the id of new minted token\n    function mintToken(\n        address assetOwner //isDonor(msg.sender)\n    ) public whenNotPaused returns (uint32) {\n        _safeMint(assetOwner, lastAssetId);\n        uint32 assetId = lastAssetId;\n        lastAssetId = uint32(SafeMath.add(uint256(lastAssetId),1));\n        return assetId;\n    }\n\n    /// @notice a donor can approve a specific request and this function assigns the recipient of this asset to the recipientAddress\n    /// @notice caller should be a donor and recipient should be a receiver\n    /// @dev change related request's status to approved\n    /// @param assetId unique id of asset to be donated\n    /// @param recipientAddress donation receiver\n    function donateAsset(uint32 assetId, address recipientAddress)\n        public\n        assetExists(assetId)\n        //isReceiver(recipientAddress)\n        assetIsFree(assetId)\n        isAssetOwner(assetId)\n        //isDonor(msg.sender)\n        whenNotPaused\n    {\n        donationList[assetId].recipient = recipientAddress;\n        donationList[assetId].status = Status.Donated;\n        emit LogDonated(assetId);\n    }\n\n    function getAssetRequestCount(uint32 assetId) public view returns (uint32) {\n        return donationList[assetId].requestCount;\n    }\n\n    function getDonation(uint32 assetId) public view returns (Asset memory) {\n        return donationList[assetId];\n    }\n}\n",
  "sourcePath": "/home/fatemeh/Desktop/Consensys Course/assetdonation/AssetDonation/contracts/DonateAsset.sol",
  "compiler": {
    "name": "solc",
    "version": "0.6.2+commit.bacdbe57.Emscripten.clang"
  },
  "schemaVersion": "3.3.1",
  "updatedAt": "2020-12-09T15:39:40.924Z",
  "networkType": "ethereum",
  "devdoc": {
    "methods": {}
  },
  "userdoc": {
    "methods": {}
  }
}