{
  "contractName": "Administration",
  "abi": [
    {
      "inputs": [],
      "stateMutability": "nonpayable",
      "type": "constructor"
    },
    {
      "anonymous": false,
      "inputs": [
        {
          "indexed": false,
          "internalType": "address",
          "name": "account",
          "type": "address"
        }
      ],
      "name": "Paused",
      "type": "event"
    },
    {
      "anonymous": false,
      "inputs": [
        {
          "indexed": true,
          "internalType": "bytes32",
          "name": "role",
          "type": "bytes32"
        },
        {
          "indexed": true,
          "internalType": "bytes32",
          "name": "previousAdminRole",
          "type": "bytes32"
        },
        {
          "indexed": true,
          "internalType": "bytes32",
          "name": "newAdminRole",
          "type": "bytes32"
        }
      ],
      "name": "RoleAdminChanged",
      "type": "event"
    },
    {
      "anonymous": false,
      "inputs": [
        {
          "indexed": true,
          "internalType": "bytes32",
          "name": "role",
          "type": "bytes32"
        },
        {
          "indexed": true,
          "internalType": "address",
          "name": "account",
          "type": "address"
        },
        {
          "indexed": true,
          "internalType": "address",
          "name": "sender",
          "type": "address"
        }
      ],
      "name": "RoleGranted",
      "type": "event"
    },
    {
      "anonymous": false,
      "inputs": [
        {
          "indexed": true,
          "internalType": "bytes32",
          "name": "role",
          "type": "bytes32"
        },
        {
          "indexed": true,
          "internalType": "address",
          "name": "account",
          "type": "address"
        },
        {
          "indexed": true,
          "internalType": "address",
          "name": "sender",
          "type": "address"
        }
      ],
      "name": "RoleRevoked",
      "type": "event"
    },
    {
      "anonymous": false,
      "inputs": [
        {
          "indexed": false,
          "internalType": "address",
          "name": "account",
          "type": "address"
        }
      ],
      "name": "Unpaused",
      "type": "event"
    },
    {
      "inputs": [],
      "name": "DEFAULT_ADMIN_ROLE",
      "outputs": [
        {
          "internalType": "bytes32",
          "name": "",
          "type": "bytes32"
        }
      ],
      "stateMutability": "view",
      "type": "function",
      "constant": true
    },
    {
      "inputs": [],
      "name": "DONOR",
      "outputs": [
        {
          "internalType": "bytes32",
          "name": "",
          "type": "bytes32"
        }
      ],
      "stateMutability": "view",
      "type": "function",
      "constant": true
    },
    {
      "inputs": [],
      "name": "RECEIVER",
      "outputs": [
        {
          "internalType": "bytes32",
          "name": "",
          "type": "bytes32"
        }
      ],
      "stateMutability": "view",
      "type": "function",
      "constant": true
    },
    {
      "inputs": [
        {
          "internalType": "address",
          "name": "",
          "type": "address"
        }
      ],
      "name": "donors",
      "outputs": [
        {
          "internalType": "bool",
          "name": "",
          "type": "bool"
        }
      ],
      "stateMutability": "view",
      "type": "function",
      "constant": true
    },
    {
      "inputs": [
        {
          "internalType": "bytes32",
          "name": "role",
          "type": "bytes32"
        }
      ],
      "name": "getRoleAdmin",
      "outputs": [
        {
          "internalType": "bytes32",
          "name": "",
          "type": "bytes32"
        }
      ],
      "stateMutability": "view",
      "type": "function",
      "constant": true
    },
    {
      "inputs": [
        {
          "internalType": "bytes32",
          "name": "role",
          "type": "bytes32"
        },
        {
          "internalType": "uint256",
          "name": "index",
          "type": "uint256"
        }
      ],
      "name": "getRoleMember",
      "outputs": [
        {
          "internalType": "address",
          "name": "",
          "type": "address"
        }
      ],
      "stateMutability": "view",
      "type": "function",
      "constant": true
    },
    {
      "inputs": [
        {
          "internalType": "bytes32",
          "name": "role",
          "type": "bytes32"
        }
      ],
      "name": "getRoleMemberCount",
      "outputs": [
        {
          "internalType": "uint256",
          "name": "",
          "type": "uint256"
        }
      ],
      "stateMutability": "view",
      "type": "function",
      "constant": true
    },
    {
      "inputs": [
        {
          "internalType": "bytes32",
          "name": "role",
          "type": "bytes32"
        },
        {
          "internalType": "address",
          "name": "account",
          "type": "address"
        }
      ],
      "name": "grantRole",
      "outputs": [],
      "stateMutability": "nonpayable",
      "type": "function"
    },
    {
      "inputs": [
        {
          "internalType": "bytes32",
          "name": "role",
          "type": "bytes32"
        },
        {
          "internalType": "address",
          "name": "account",
          "type": "address"
        }
      ],
      "name": "hasRole",
      "outputs": [
        {
          "internalType": "bool",
          "name": "",
          "type": "bool"
        }
      ],
      "stateMutability": "view",
      "type": "function",
      "constant": true
    },
    {
      "inputs": [],
      "name": "paused",
      "outputs": [
        {
          "internalType": "bool",
          "name": "",
          "type": "bool"
        }
      ],
      "stateMutability": "view",
      "type": "function",
      "constant": true
    },
    {
      "inputs": [
        {
          "internalType": "address",
          "name": "",
          "type": "address"
        }
      ],
      "name": "receivers",
      "outputs": [
        {
          "internalType": "bool",
          "name": "",
          "type": "bool"
        }
      ],
      "stateMutability": "view",
      "type": "function",
      "constant": true
    },
    {
      "inputs": [
        {
          "internalType": "bytes32",
          "name": "role",
          "type": "bytes32"
        },
        {
          "internalType": "address",
          "name": "account",
          "type": "address"
        }
      ],
      "name": "renounceRole",
      "outputs": [],
      "stateMutability": "nonpayable",
      "type": "function"
    },
    {
      "inputs": [
        {
          "internalType": "bytes32",
          "name": "role",
          "type": "bytes32"
        },
        {
          "internalType": "address",
          "name": "account",
          "type": "address"
        }
      ],
      "name": "revokeRole",
      "outputs": [],
      "stateMutability": "nonpayable",
      "type": "function"
    },
    {
      "inputs": [],
      "name": "addDonor",
      "outputs": [],
      "stateMutability": "nonpayable",
      "type": "function"
    },
    {
      "inputs": [
        {
          "internalType": "address",
          "name": "donorAddress",
          "type": "address"
        }
      ],
      "name": "approveDonor",
      "outputs": [],
      "stateMutability": "nonpayable",
      "type": "function"
    },
    {
      "inputs": [],
      "name": "addReceiver",
      "outputs": [],
      "stateMutability": "nonpayable",
      "type": "function"
    },
    {
      "inputs": [
        {
          "internalType": "address",
          "name": "receiverAddress",
          "type": "address"
        }
      ],
      "name": "approveReceiver",
      "outputs": [],
      "stateMutability": "nonpayable",
      "type": "function"
    },
    {
      "inputs": [],
      "name": "pause",
      "outputs": [],
      "stateMutability": "nonpayable",
      "type": "function"
    },
    {
      "inputs": [],
      "name": "unpause",
      "outputs": [],
      "stateMutability": "nonpayable",
      "type": "function"
    }
  ],
  "bytecode": "0x608060405234801561001057600080fd5b506001805460ff1916905561002f6000336001600160e01b0361003416565b61015d565b61004782826001600160e01b0361004b16565b5050565b60008281526020818152604090912061006d91839061082e6100c7821b17901c565b15610047576100836001600160e01b036100ee16565b6001600160a01b0316816001600160a01b0316837f2f8788117e7eff1d82e926ec794901d17c78024a50270940304540a733656f0d60405160405180910390a45050565b60006100e5836001600160a01b0384166001600160e01b036100f216565b90505b92915050565b3390565b600061010783836001600160e01b0361014516565b61013d575081546001818101845560008481526020808220909301849055845484825282860190935260409020919091556100e8565b5060006100e8565b60009081526001919091016020526040902054151590565b610ace8061016c6000396000f3fe608060405234801561001057600080fd5b50600436106100f15760003560e01c80630cb8150f146100f6578063248a9ca3146101305780632a7812701461015f5780632f2ff15d1461018757806336568abe146101b35780633f4ba83a146101df5780634576d251146101e75780635c975abb146101ef57806372dbb89f146101f757806379e085a21461021d5780638456cb59146102255780638ad545121461022d5780639010d07c1461023557806391d1485414610274578063a217fddf146102a0578063ad7430cc146102a8578063ca0cdea8146102b0578063ca15c873146102d6578063d547741f146102f3575b600080fd5b61011c6004803603602081101561010c57600080fd5b50356001600160a01b031661031f565b604080519115158252519081900360200190f35b61014d6004803603602081101561014657600080fd5b5035610334565b60408051918252519081900360200190f35b6101856004803603602081101561017557600080fd5b50356001600160a01b0316610349565b005b6101856004803603604081101561019d57600080fd5b50803590602001356001600160a01b0316610391565b610185600480360360408110156101c957600080fd5b50803590602001356001600160a01b03166103fd565b61018561045e565b61014d610468565b61011c610485565b6101856004803603602081101561020d57600080fd5b50356001600160a01b031661048e565b6101856104d9565b6101856104f2565b6101856104fa565b6102586004803603604081101561024b57600080fd5b5080359060200135610513565b604080516001600160a01b039092168252519081900360200190f35b61011c6004803603604081101561028a57600080fd5b50803590602001356001600160a01b031661053a565b61014d610558565b61014d61055d565b61011c600480360360208110156102c657600080fd5b50356001600160a01b031661057d565b61014d600480360360208110156102ec57600080fd5b5035610592565b6101856004803603604081101561030957600080fd5b50803590602001356001600160a01b03166105a9565b60036020526000908152604090205460ff1681565b60009081526020819052604090206002015490565b60408051642227a727a960d91b8152905190819003600501902061036d9082610391565b6001600160a01b03166000908152600260205260409020805460ff19166001179055565b6000828152602081905260409020600201546103b4906103af610602565b61053a565b6103ef5760405162461bcd60e51b815260040180806020018281038252602f815260200180610a0b602f913960400191505060405180910390fd5b6103f98282610606565b5050565b610405610602565b6001600160a01b0316816001600160a01b0316146104545760405162461bcd60e51b815260040180806020018281038252602f815260200180610a6a602f913960400191505060405180910390fd5b6103f98282610675565b6104666106e4565b565b60408051642227a727a960d91b8152905190819003600501902081565b60015460ff1690565b60408051672922a1a2a4ab22a960c11b815290519081900360080190206104b59082610391565b6001600160a01b03166000908152600360205260409020805460ff19166001179055565b336000908152600260205260409020805460ff19169055565b610466610782565b336000908152600360205260409020805460ff19169055565b6000828152602081905260408120610531908363ffffffff61080216565b90505b92915050565b6000828152602081905260408120610531908363ffffffff61080e16565b600081565b60408051672922a1a2a4ab22a960c11b8152905190819003600801902081565b60026020526000908152604090205460ff1681565b600081815260208190526040812061053490610823565b6000828152602081905260409020600201546105c7906103af610602565b6104545760405162461bcd60e51b8152600401808060200182810382526030815260200180610a3a6030913960400191505060405180910390fd5b3390565b6000828152602081905260409020610624908263ffffffff61082e16565b156103f957610631610602565b6001600160a01b0316816001600160a01b0316837f2f8788117e7eff1d82e926ec794901d17c78024a50270940304540a733656f0d60405160405180910390a45050565b6000828152602081905260409020610693908263ffffffff61084316565b156103f9576106a0610602565b6001600160a01b0316816001600160a01b0316837ff6391f5c32d9c69d2a47ea670b442974b53935d1edc7fd64eb21e047a839171b60405160405180910390a45050565b60015460ff16610732576040805162461bcd60e51b815260206004820152601460248201527314185d5cd8589b194e881b9bdd081c185d5cd95960621b604482015290519081900360640190fd5b6001805460ff191690557f5db9ee0a495bf2e6ff9c91a7834c1ba4fdd244a5e8aa4e537bd38aeae4b073aa610765610602565b604080516001600160a01b039092168252519081900360200190a1565b60015460ff16156107cd576040805162461bcd60e51b815260206004820152601060248201526f14185d5cd8589b194e881c185d5cd95960821b604482015290519081900360640190fd5b6001805460ff1916811790557f62e78cea01bee320cd4e420270b5ea74000d11b0c9f74754ebdbfc544b05a258610765610602565b60006105318383610858565b6000610531836001600160a01b0384166108bc565b6000610534826108d4565b6000610531836001600160a01b0384166108d8565b6000610531836001600160a01b038416610922565b8154600090821061089a5760405162461bcd60e51b81526004018080602001828103825260228152602001806109e96022913960400191505060405180910390fd5b8260000182815481106108a957fe5b9060005260206000200154905092915050565b60009081526001919091016020526040902054151590565b5490565b60006108e483836108bc565b61091a57508154600181810184556000848152602080822090930184905584548482528286019093526040902091909155610534565b506000610534565b600081815260018301602052604081205480156109de578354600019808301919081019060009087908390811061095557fe5b906000526020600020015490508087600001848154811061097257fe5b6000918252602080832090910192909255828152600189810190925260409020908401905586548790806109a257fe5b60019003818190600052602060002001600090559055866001016000878152602001908152602001600020600090556001945050505050610534565b600091505061053456fe456e756d657261626c655365743a20696e646578206f7574206f6620626f756e6473416363657373436f6e74726f6c3a2073656e646572206d75737420626520616e2061646d696e20746f206772616e74416363657373436f6e74726f6c3a2073656e646572206d75737420626520616e2061646d696e20746f207265766f6b65416363657373436f6e74726f6c3a2063616e206f6e6c792072656e6f756e636520726f6c657320666f722073656c66a2646970667358221220086712d8943b980fd63ceeba82c3c3389d38f7d10fa8efdf308786d8ff4fae3f64736f6c63430006020033",
  "source": "pragma solidity ^0.6.2;\n\nimport \"@openzeppelin/contracts/access/AccessControl.sol\";\nimport \"@openzeppelin/contracts/utils/Pausable.sol\";\n\n/// @title A Asset donation smart contract\n/// @author Fatemeh Heidari Soureshjani\n/// @notice This contract facilitates donation of physical assets for specific periods of time between asset owners and receivers\n/// @dev time\n\ncontract Administration is AccessControl ,Pausable{\n\n    constructor() public AccessControl() Pausable(){\n        _setupRole(DEFAULT_ADMIN_ROLE, msg.sender);\n    }\n\n    bytes32 public constant DONOR = keccak256(\"DONOR\");\n    bytes32 public constant RECEIVER = keccak256(\"RECEIVER\");\n\n    mapping(address => bool) public donors;\n    mapping(address => bool) public receivers;\n\n    modifier isDonor(address donorAddress) {\n        require(hasRole(DONOR, donorAddress));\n        _;\n    }\n    modifier isReceiver(address receiverAddress) {\n        require(hasRole(RECEIVER, receiverAddress));\n        _;\n    }\n\n    function addDonor() public {\n        donors[msg.sender] = false;\n    }\n\n    /// @notice Admin approves an address to have the donor role\n    /// @param donorAddress The address of donor to be approved\n    function approveDonor(address donorAddress) public {\n        grantRole(DONOR, donorAddress);\n        donors[donorAddress] = true;\n    }\n\n    /// @notice Adds an address to list of receivers\n    function addReceiver() public {\n        receivers[msg.sender] = false;\n    }\n\n    /// @notice Admin approves an address to have the receiver role\n    /// @param receiverAddress The address of receiver to be approved\n    function approveReceiver(address receiverAddress) public {\n        grantRole(RECEIVER, receiverAddress);\n        receivers[receiverAddress] = true;\n    }\n\n    function pause() public {\n        _pause();\n    }\n    function unpause() public {\n        _unpause();\n    }    \n}\n",
  "sourcePath": "/home/fatemeh/Desktop/Consensys Course/assetdonation/AssetDonation/contracts/Administration.sol",
  "compiler": {
    "name": "solc",
    "version": "0.6.2+commit.bacdbe57.Emscripten.clang"
  },
  "schemaVersion": "3.3.1",
  "updatedAt": "2020-12-05T19:15:33.946Z",
  "networkType": "ethereum",
  "devdoc": {
    "author": "Fatemeh Heidari Soureshjani",
    "details": "time",
    "methods": {
      "approveDonor(address)": {
        "params": {
          "donorAddress": "The address of donor to be approved"
        }
      },
      "approveReceiver(address)": {
        "params": {
          "receiverAddress": "The address of receiver to be approved"
        }
      },
      "getRoleAdmin(bytes32)": {
        "details": "Returns the admin role that controls `role`. See {grantRole} and {revokeRole}.     * To change a role's admin, use {_setRoleAdmin}."
      },
      "getRoleMember(bytes32,uint256)": {
        "details": "Returns one of the accounts that have `role`. `index` must be a value between 0 and {getRoleMemberCount}, non-inclusive.     * Role bearers are not sorted in any particular way, and their ordering may change at any point.     * WARNING: When using {getRoleMember} and {getRoleMemberCount}, make sure you perform all queries on the same block. See the following https://forum.openzeppelin.com/t/iterating-over-elements-on-enumerableset-in-openzeppelin-contracts/2296[forum post] for more information."
      },
      "getRoleMemberCount(bytes32)": {
        "details": "Returns the number of accounts that have `role`. Can be used together with {getRoleMember} to enumerate all bearers of a role."
      },
      "grantRole(bytes32,address)": {
        "details": "Grants `role` to `account`.     * If `account` had not been already granted `role`, emits a {RoleGranted} event.     * Requirements:     * - the caller must have ``role``'s admin role."
      },
      "hasRole(bytes32,address)": {
        "details": "Returns `true` if `account` has been granted `role`."
      },
      "paused()": {
        "details": "Returns true if the contract is paused, and false otherwise."
      },
      "renounceRole(bytes32,address)": {
        "details": "Revokes `role` from the calling account.     * Roles are often managed via {grantRole} and {revokeRole}: this function's purpose is to provide a mechanism for accounts to lose their privileges if they are compromised (such as when a trusted device is misplaced).     * If the calling account had been granted `role`, emits a {RoleRevoked} event.     * Requirements:     * - the caller must be `account`."
      },
      "revokeRole(bytes32,address)": {
        "details": "Revokes `role` from `account`.     * If `account` had been granted `role`, emits a {RoleRevoked} event.     * Requirements:     * - the caller must have ``role``'s admin role."
      }
    },
    "title": "A Asset donation smart contract"
  },
  "userdoc": {
    "methods": {
      "addReceiver()": {
        "notice": "Adds an address to list of receivers"
      },
      "approveDonor(address)": {
        "notice": "Admin approves an address to have the donor role"
      },
      "approveReceiver(address)": {
        "notice": "Admin approves an address to have the receiver role"
      }
    },
    "notice": "This contract facilitates donation of physical assets for specific periods of time between asset owners and receivers"
  }
}