{
  "contractName": "Administration",
  "abi": [
    {
      "inputs": [],
      "stateMutability": "nonpayable",
      "type": "constructor"
    },
    {
      "anonymous": false,
      "inputs": [
        {
          "indexed": false,
          "internalType": "address",
          "name": "account",
          "type": "address"
        }
      ],
      "name": "Paused",
      "type": "event"
    },
    {
      "anonymous": false,
      "inputs": [
        {
          "indexed": true,
          "internalType": "bytes32",
          "name": "role",
          "type": "bytes32"
        },
        {
          "indexed": true,
          "internalType": "bytes32",
          "name": "previousAdminRole",
          "type": "bytes32"
        },
        {
          "indexed": true,
          "internalType": "bytes32",
          "name": "newAdminRole",
          "type": "bytes32"
        }
      ],
      "name": "RoleAdminChanged",
      "type": "event"
    },
    {
      "anonymous": false,
      "inputs": [
        {
          "indexed": true,
          "internalType": "bytes32",
          "name": "role",
          "type": "bytes32"
        },
        {
          "indexed": true,
          "internalType": "address",
          "name": "account",
          "type": "address"
        },
        {
          "indexed": true,
          "internalType": "address",
          "name": "sender",
          "type": "address"
        }
      ],
      "name": "RoleGranted",
      "type": "event"
    },
    {
      "anonymous": false,
      "inputs": [
        {
          "indexed": true,
          "internalType": "bytes32",
          "name": "role",
          "type": "bytes32"
        },
        {
          "indexed": true,
          "internalType": "address",
          "name": "account",
          "type": "address"
        },
        {
          "indexed": true,
          "internalType": "address",
          "name": "sender",
          "type": "address"
        }
      ],
      "name": "RoleRevoked",
      "type": "event"
    },
    {
      "anonymous": false,
      "inputs": [
        {
          "indexed": false,
          "internalType": "address",
          "name": "account",
          "type": "address"
        }
      ],
      "name": "Unpaused",
      "type": "event"
    },
    {
      "inputs": [],
      "name": "DEFAULT_ADMIN_ROLE",
      "outputs": [
        {
          "internalType": "bytes32",
          "name": "",
          "type": "bytes32"
        }
      ],
      "stateMutability": "view",
      "type": "function",
      "constant": true
    },
    {
      "inputs": [],
      "name": "DONOR",
      "outputs": [
        {
          "internalType": "bytes32",
          "name": "",
          "type": "bytes32"
        }
      ],
      "stateMutability": "view",
      "type": "function",
      "constant": true
    },
    {
      "inputs": [],
      "name": "RECEIVER",
      "outputs": [
        {
          "internalType": "bytes32",
          "name": "",
          "type": "bytes32"
        }
      ],
      "stateMutability": "view",
      "type": "function",
      "constant": true
    },
    {
      "inputs": [
        {
          "internalType": "address",
          "name": "",
          "type": "address"
        }
      ],
      "name": "donors",
      "outputs": [
        {
          "internalType": "bool",
          "name": "exists",
          "type": "bool"
        },
        {
          "internalType": "bool",
          "name": "approved",
          "type": "bool"
        },
        {
          "internalType": "uint32",
          "name": "donationCount",
          "type": "uint32"
        }
      ],
      "stateMutability": "view",
      "type": "function",
      "constant": true
    },
    {
      "inputs": [
        {
          "internalType": "bytes32",
          "name": "role",
          "type": "bytes32"
        }
      ],
      "name": "getRoleAdmin",
      "outputs": [
        {
          "internalType": "bytes32",
          "name": "",
          "type": "bytes32"
        }
      ],
      "stateMutability": "view",
      "type": "function",
      "constant": true
    },
    {
      "inputs": [
        {
          "internalType": "bytes32",
          "name": "role",
          "type": "bytes32"
        },
        {
          "internalType": "uint256",
          "name": "index",
          "type": "uint256"
        }
      ],
      "name": "getRoleMember",
      "outputs": [
        {
          "internalType": "address",
          "name": "",
          "type": "address"
        }
      ],
      "stateMutability": "view",
      "type": "function",
      "constant": true
    },
    {
      "inputs": [
        {
          "internalType": "bytes32",
          "name": "role",
          "type": "bytes32"
        }
      ],
      "name": "getRoleMemberCount",
      "outputs": [
        {
          "internalType": "uint256",
          "name": "",
          "type": "uint256"
        }
      ],
      "stateMutability": "view",
      "type": "function",
      "constant": true
    },
    {
      "inputs": [
        {
          "internalType": "bytes32",
          "name": "role",
          "type": "bytes32"
        },
        {
          "internalType": "address",
          "name": "account",
          "type": "address"
        }
      ],
      "name": "grantRole",
      "outputs": [],
      "stateMutability": "nonpayable",
      "type": "function"
    },
    {
      "inputs": [
        {
          "internalType": "bytes32",
          "name": "role",
          "type": "bytes32"
        },
        {
          "internalType": "address",
          "name": "account",
          "type": "address"
        }
      ],
      "name": "hasRole",
      "outputs": [
        {
          "internalType": "bool",
          "name": "",
          "type": "bool"
        }
      ],
      "stateMutability": "view",
      "type": "function",
      "constant": true
    },
    {
      "inputs": [],
      "name": "paused",
      "outputs": [
        {
          "internalType": "bool",
          "name": "",
          "type": "bool"
        }
      ],
      "stateMutability": "view",
      "type": "function",
      "constant": true
    },
    {
      "inputs": [
        {
          "internalType": "address",
          "name": "",
          "type": "address"
        }
      ],
      "name": "receivers",
      "outputs": [
        {
          "internalType": "bool",
          "name": "",
          "type": "bool"
        }
      ],
      "stateMutability": "view",
      "type": "function",
      "constant": true
    },
    {
      "inputs": [
        {
          "internalType": "bytes32",
          "name": "role",
          "type": "bytes32"
        },
        {
          "internalType": "address",
          "name": "account",
          "type": "address"
        }
      ],
      "name": "renounceRole",
      "outputs": [],
      "stateMutability": "nonpayable",
      "type": "function"
    },
    {
      "inputs": [
        {
          "internalType": "bytes32",
          "name": "role",
          "type": "bytes32"
        },
        {
          "internalType": "address",
          "name": "account",
          "type": "address"
        }
      ],
      "name": "revokeRole",
      "outputs": [],
      "stateMutability": "nonpayable",
      "type": "function"
    },
    {
      "inputs": [
        {
          "internalType": "address",
          "name": "donorAddress",
          "type": "address"
        }
      ],
      "name": "addDonor",
      "outputs": [],
      "stateMutability": "nonpayable",
      "type": "function"
    },
    {
      "inputs": [],
      "name": "getDonor",
      "outputs": [
        {
          "components": [
            {
              "internalType": "bool",
              "name": "exists",
              "type": "bool"
            },
            {
              "internalType": "bool",
              "name": "approved",
              "type": "bool"
            },
            {
              "internalType": "uint32",
              "name": "donationCount",
              "type": "uint32"
            }
          ],
          "internalType": "struct Administration.donor",
          "name": "",
          "type": "tuple"
        }
      ],
      "stateMutability": "view",
      "type": "function",
      "constant": true
    },
    {
      "inputs": [
        {
          "internalType": "address",
          "name": "donorAddress",
          "type": "address"
        }
      ],
      "name": "approveDonor",
      "outputs": [],
      "stateMutability": "nonpayable",
      "type": "function"
    },
    {
      "inputs": [],
      "name": "addReceiver",
      "outputs": [],
      "stateMutability": "nonpayable",
      "type": "function"
    },
    {
      "inputs": [
        {
          "internalType": "address",
          "name": "receiverAddress",
          "type": "address"
        }
      ],
      "name": "approveReceiver",
      "outputs": [],
      "stateMutability": "nonpayable",
      "type": "function"
    },
    {
      "inputs": [],
      "name": "pause",
      "outputs": [],
      "stateMutability": "nonpayable",
      "type": "function"
    },
    {
      "inputs": [],
      "name": "unpause",
      "outputs": [],
      "stateMutability": "nonpayable",
      "type": "function"
    },
    {
      "inputs": [],
      "name": "systemPaused",
      "outputs": [
        {
          "internalType": "bool",
          "name": "",
          "type": "bool"
        }
      ],
      "stateMutability": "view",
      "type": "function",
      "constant": true
    },
    {
      "inputs": [],
      "name": "isAdminUser",
      "outputs": [
        {
          "internalType": "bool",
          "name": "",
          "type": "bool"
        }
      ],
      "stateMutability": "view",
      "type": "function",
      "constant": true
    }
  ],
  "bytecode": "0x608060405234801561001057600080fd5b506001805460ff1916905561002f6000336001600160e01b0361003416565b61015d565b61004782826001600160e01b0361004b16565b5050565b60008281526020818152604090912061006d91839061085d6100c7821b17901c565b15610047576100836001600160e01b036100ee16565b6001600160a01b0316816001600160a01b0316837f2f8788117e7eff1d82e926ec794901d17c78024a50270940304540a733656f0d60405160405180910390a45050565b60006100e5836001600160a01b0384166001600160e01b036100f216565b90505b92915050565b3390565b600061010783836001600160e01b0361014516565b61013d575081546001818101845560008481526020808220909301849055845484825282860190935260409020919091556100e8565b5060006100e8565b60009081526001919091016020526040902054151590565b610d09806200016d6000396000f3fe608060405234801561001057600080fd5b50600436106101125760003560e01c80630cb8150f1461011757806315f8076214610140578063248a9ca31461014857806325746834146101685780632a7812701461017d5780632f2ff15d1461019057806336568abe146101a35780633f4ba83a146101b65780634576d251146101be5780635c975abb146101c657806372dbb89f146101ce5780638456cb59146101e15780638ad54512146101e95780639010d07c146101f157806391d14854146102115780639d2f83f014610224578063a217fddf1461022c578063ad7430cc14610234578063ca0cdea81461023c578063ca15c8731461025e578063d547741f14610271578063e0218fb314610284575b600080fd5b61012a610125366004610a18565b610299565b6040516101379190610af2565b60405180910390f35b61012a6102ae565b61015b610156366004610a46565b6102ce565b6040516101379190610b1b565b61017b610176366004610a18565b6102e3565b005b61017b61018b366004610a18565b6103be565b61017b61019e366004610a5e565b610401565b61017b6101b1366004610a5e565b610452565b61017b610494565b61015b6104b2565b61012a6104c9565b61017b6101dc366004610a18565b6104d2565b61017b610505565b61017b610521565b6102046101ff366004610a98565b610551565b6040516101379190610ade565b61012a61021f366004610a5e565b610578565b61012a610596565b61015b6105a7565b61015b6105ac565b61024f61024a366004610a18565b6105b8565b60405161013793929190610afd565b61015b61026c366004610a46565b6105e5565b61017b61027f366004610a5e565b6105fc565b61028c610636565b6040516101379190610c88565b60036020526000908152604090205460ff1681565b60006102ba8133610578565b156102c7575060016102cb565b5060005b90565b60009081526020819052604090206002015490565b6001600160a01b03811660009081526002602052604090205460ff1661037c57604080516060810182526001808252600060208084018281528486019384526001600160a01b03871683526002909152939020915182549351915160ff199094169015151761ff001916610100911515919091021765ffffffff000019166201000063ffffffff909316929092029190911790556103bb565b6001600160a01b03811660009081526002602052604090208054600163ffffffff62010000808404821692909201160265ffffffff0000199091161790555b50565b6103db6040516103cd90610ab9565b604051809103902082610401565b6001600160a01b03166000908152600260205260409020805461ff001916610100179055565b60008281526020819052604090206002015461041f9061021f61068b565b6104445760405162461bcd60e51b815260040161043b90610b66565b60405180910390fd5b61044e828261068f565b5050565b61045a61068b565b6001600160a01b0316816001600160a01b03161461048a5760405162461bcd60e51b815260040161043b90610c39565b61044e82826106fe565b61049f600033610578565b6104a857600080fd5b6104b061076d565b565b6040516104be90610ab9565b604051809103902081565b60015460ff1690565b6104e16040516103cd90610aca565b6001600160a01b03166000908152600360205260409020805460ff19166001179055565b610510600033610578565b61051957600080fd5b6104b06107d9565b3360009081526003602052604090205460ff166104b057336000908152600360205260409020805460ff19169055565b600082815260208190526040812061056f908363ffffffff61083116565b90505b92915050565b600082815260208190526040812061056f908363ffffffff61083d16565b6000806105a16104c9565b91505090565b600081565b6040516104be90610aca565b60026020526000908152604090205460ff8082169161010081049091169062010000900463ffffffff1683565b600081815260208190526040812061057290610852565b60008281526020819052604090206002015461061a9061021f61068b565b61048a5760405162461bcd60e51b815260040161043b90610bd1565b61063e6109f8565b50336000908152600260209081526040918290208251606081018452905460ff808216151583526101008204161515928201929092526201000090910463ffffffff169181019190915290565b3390565b60008281526020819052604090206106ad908263ffffffff61085d16565b1561044e576106ba61068b565b6001600160a01b0316816001600160a01b0316837f2f8788117e7eff1d82e926ec794901d17c78024a50270940304540a733656f0d60405160405180910390a45050565b600082815260208190526040902061071c908263ffffffff61087216565b1561044e5761072961068b565b6001600160a01b0316816001600160a01b0316837ff6391f5c32d9c69d2a47ea670b442974b53935d1edc7fd64eb21e047a839171b60405160405180910390a45050565b60015460ff1661078f5760405162461bcd60e51b815260040161043b90610ba3565b6001805460ff191690557f5db9ee0a495bf2e6ff9c91a7834c1ba4fdd244a5e8aa4e537bd38aeae4b073aa6107c261068b565b6040516107cf9190610ade565b60405180910390a1565b60015460ff16156107fc5760405162461bcd60e51b815260040161043b90610c0f565b6001805460ff1916811790557f62e78cea01bee320cd4e420270b5ea74000d11b0c9f74754ebdbfc544b05a2586107c261068b565b600061056f8383610887565b600061056f836001600160a01b0384166108cc565b6000610572826108e4565b600061056f836001600160a01b0384166108e8565b600061056f836001600160a01b038416610932565b815460009082106108aa5760405162461bcd60e51b815260040161043b90610b24565b8260000182815481106108b957fe5b9060005260206000200154905092915050565b60009081526001919091016020526040902054151590565b5490565b60006108f483836108cc565b61092a57508154600181810184556000848152602080822090930184905584548482528286019093526040902091909155610572565b506000610572565b600081815260018301602052604081205480156109ee578354600019808301919081019060009087908390811061096557fe5b906000526020600020015490508087600001848154811061098257fe5b6000918252602080832090910192909255828152600189810190925260409020908401905586548790806109b257fe5b60019003818190600052602060002001600090559055866001016000878152602001908152602001600020600090556001945050505050610572565b6000915050610572565b604080516060810182526000808252602082018190529181019190915290565b600060208284031215610a29578081fd5b81356001600160a01b0381168114610a3f578182fd5b9392505050565b600060208284031215610a57578081fd5b5035919050565b60008060408385031215610a70578081fd5b8235915060208301356001600160a01b0381168114610a8d578182fd5b809150509250929050565b60008060408385031215610aaa578182fd5b50508035926020909101359150565b642227a727a960d91b815260050190565b672922a1a2a4ab22a960c11b815260080190565b6001600160a01b0391909116815260200190565b901515815260200190565b9215158352901515602083015263ffffffff16604082015260600190565b90815260200190565b60208082526022908201527f456e756d657261626c655365743a20696e646578206f7574206f6620626f756e604082015261647360f01b606082015260800190565b6020808252602f90820152600080516020610cb483398151915260408201526e0818591b5a5b881d1bc819dc985b9d608a1b606082015260800190565b60208082526014908201527314185d5cd8589b194e881b9bdd081c185d5cd95960621b604082015260600190565b6020808252603090820152600080516020610cb483398151915260408201526f2061646d696e20746f207265766f6b6560801b606082015260800190565b60208082526010908201526f14185d5cd8589b194e881c185d5cd95960821b604082015260600190565b6020808252602f908201527f416363657373436f6e74726f6c3a2063616e206f6e6c792072656e6f756e636560408201526e103937b632b9903337b91039b2b63360891b606082015260800190565b81511515815260208083015115159082015260409182015163ffffffff16918101919091526060019056fe416363657373436f6e74726f6c3a2073656e646572206d75737420626520616ea2646970667358221220705b7ece13a606271f556c602d01e42076124f5606446928f6136099f57d7edc64736f6c63430006020033",
  "source": "pragma solidity ^0.6.2;\npragma experimental ABIEncoderV2;\n\nimport \"@openzeppelin/contracts/access/AccessControl.sol\";\nimport \"@openzeppelin/contracts/utils/Pausable.sol\";\nimport \"@openzeppelin/contracts/math/SafeMath.sol\";\n\n/// @title A Asset donation smart contract\n/// @author Fatemeh Heidari Soureshjani\n/// @notice This contract facilitates donation of physical assets for specific periods of time between asset owners and receivers\n/// @dev time\n\ncontract Administration is AccessControl, Pausable {\n    //bool noAdmin;\n\n    constructor() public AccessControl() Pausable() {\n        //noAdmin = true;\n        _setupRole(DEFAULT_ADMIN_ROLE, msg.sender);\n    }\n\n    bytes32 public constant DONOR = keccak256(\"DONOR\");\n    bytes32 public constant RECEIVER = keccak256(\"RECEIVER\");\n    struct donor {\n        bool exists;\n        bool approved;\n        uint32 donationCount;\n        //uint32 pageNo;\n    }\n\n    mapping(address => donor) public donors;\n    mapping(address => bool) public receivers;\n    modifier isAdmin() {\n        require(hasRole(DEFAULT_ADMIN_ROLE, msg.sender));\n        _;\n    }\n\n    // modifier isDonor(address donorAddress) {\n    //     if (!noAdmin) {\n    //         require(hasRole(DONOR, donorAddress));\n    //     }\n    //     _;\n    // }\n    // modifier isReceiver(address receiverAddress) {\n    //     if (!noAdmin) {\n    //         require(hasRole(RECEIVER, receiverAddress));\n    //     }\n    //     _;\n    // }\n\n    function addDonor(address donorAddress) public {\n        if (!donors[donorAddress].exists) {\n            donors[donorAddress] = donor({\n                exists: true,\n                approved: false,\n                donationCount: 1\n            });\n        } else {\n            donors[donorAddress].donationCount =\n                donors[donorAddress].donationCount +\n                1; //20;//uint32(SafeMath.add(uint256(donors[msg.sender].donationCount), 1));\n        }\n    }\n\n    function getDonor() public view returns (donor memory) {\n        return donors[msg.sender];\n    }\n\n    /// @notice Admin approves an address to have the donor role\n    /// @param donorAddress The address of donor to be approved\n    function approveDonor(address donorAddress) public {\n        grantRole(DONOR, donorAddress);\n        donors[donorAddress].approved = true;\n    }\n\n    /// @notice Adds an address to list of receivers\n    function addReceiver() public {\n        if (!receivers[msg.sender]) {\n            receivers[msg.sender] = false;\n        }\n    }\n\n    /// @notice Admin approves an address to have the receiver role\n    /// @param receiverAddress The address of receiver to be approved\n    function approveReceiver(address receiverAddress) public {\n        grantRole(RECEIVER, receiverAddress);\n        receivers[receiverAddress] = true;\n    }\n\n    function pause() public isAdmin {\n        _pause();\n    }\n\n    // function getAdmin() public returns(address){\n    //     return getRoleAdmin(DEFAULT_ADMIN_ROLE);\n    // }\n\n    function unpause() public isAdmin {\n        _unpause();\n    }\n\n    function systemPaused() public view returns (bool) {\n        bool paused = paused();\n        return paused;\n    }\n\n    function isAdminUser() public view returns (bool) {\n        if (hasRole(DEFAULT_ADMIN_ROLE, msg.sender)) return true;\n        else return false;\n    }\n}\n",
  "sourcePath": "/home/fatemeh/Desktop/Consensys Course/assetdonation/AssetDonation/contracts/Administration.sol",
  "compiler": {
    "name": "solc",
    "version": "0.6.2+commit.bacdbe57.Emscripten.clang"
  },
  "schemaVersion": "3.3.1",
  "updatedAt": "2020-12-10T02:05:16.812Z",
  "networkType": "ethereum",
  "devdoc": {
    "author": "Fatemeh Heidari Soureshjani",
    "details": "time",
    "methods": {
      "approveDonor(address)": {
        "params": {
          "donorAddress": "The address of donor to be approved"
        }
      },
      "approveReceiver(address)": {
        "params": {
          "receiverAddress": "The address of receiver to be approved"
        }
      },
      "getRoleAdmin(bytes32)": {
        "details": "Returns the admin role that controls `role`. See {grantRole} and {revokeRole}.     * To change a role's admin, use {_setRoleAdmin}."
      },
      "getRoleMember(bytes32,uint256)": {
        "details": "Returns one of the accounts that have `role`. `index` must be a value between 0 and {getRoleMemberCount}, non-inclusive.     * Role bearers are not sorted in any particular way, and their ordering may change at any point.     * WARNING: When using {getRoleMember} and {getRoleMemberCount}, make sure you perform all queries on the same block. See the following https://forum.openzeppelin.com/t/iterating-over-elements-on-enumerableset-in-openzeppelin-contracts/2296[forum post] for more information."
      },
      "getRoleMemberCount(bytes32)": {
        "details": "Returns the number of accounts that have `role`. Can be used together with {getRoleMember} to enumerate all bearers of a role."
      },
      "grantRole(bytes32,address)": {
        "details": "Grants `role` to `account`.     * If `account` had not been already granted `role`, emits a {RoleGranted} event.     * Requirements:     * - the caller must have ``role``'s admin role."
      },
      "hasRole(bytes32,address)": {
        "details": "Returns `true` if `account` has been granted `role`."
      },
      "paused()": {
        "details": "Returns true if the contract is paused, and false otherwise."
      },
      "renounceRole(bytes32,address)": {
        "details": "Revokes `role` from the calling account.     * Roles are often managed via {grantRole} and {revokeRole}: this function's purpose is to provide a mechanism for accounts to lose their privileges if they are compromised (such as when a trusted device is misplaced).     * If the calling account had been granted `role`, emits a {RoleRevoked} event.     * Requirements:     * - the caller must be `account`."
      },
      "revokeRole(bytes32,address)": {
        "details": "Revokes `role` from `account`.     * If `account` had been granted `role`, emits a {RoleRevoked} event.     * Requirements:     * - the caller must have ``role``'s admin role."
      }
    },
    "title": "A Asset donation smart contract"
  },
  "userdoc": {
    "methods": {
      "addReceiver()": {
        "notice": "Adds an address to list of receivers"
      },
      "approveDonor(address)": {
        "notice": "Admin approves an address to have the donor role"
      },
      "approveReceiver(address)": {
        "notice": "Admin approves an address to have the receiver role"
      }
    },
    "notice": "This contract facilitates donation of physical assets for specific periods of time between asset owners and receivers"
  }
}