{
  "contractName": "Administration",
  "abi": [
    {
      "inputs": [],
      "name": "systemPaused",
      "outputs": [
        {
          "internalType": "bool",
          "name": "",
          "type": "bool"
        }
      ],
      "stateMutability": "nonpayable",
      "type": "function"
    },
    {
      "inputs": [
        {
          "internalType": "address",
          "name": "donorAddress",
          "type": "address"
        }
      ],
      "name": "addDonor",
      "outputs": [],
      "stateMutability": "nonpayable",
      "type": "function"
    },
    {
      "inputs": [
        {
          "internalType": "address",
          "name": "donorAddress",
          "type": "address"
        }
      ],
      "name": "getDonor",
      "outputs": [
        {
          "components": [
            {
              "internalType": "bool",
              "name": "exists",
              "type": "bool"
            },
            {
              "internalType": "bool",
              "name": "approved",
              "type": "bool"
            },
            {
              "internalType": "uint32",
              "name": "donationCount",
              "type": "uint32"
            }
          ],
          "internalType": "struct donor",
          "name": "",
          "type": "tuple"
        }
      ],
      "stateMutability": "view",
      "type": "function"
    }
  ],
  "bytecode": "0x608060405234801561001057600080fd5b50610168806100206000396000f3fe608060405234801561001057600080fd5b50600436106100415760003560e01c8063257468341461004657806396c590431461005b5780639d2f83f014610084575b600080fd5b6100596100543660046100ce565b610099565b005b61006e6100693660046100ce565b61009c565b60405161007b9190610107565b60405180910390f35b61008c6100a9565b60405161007b91906100fc565b50565b6100a46100ae565b919050565b600090565b604080516060810182526000808252602082018190529181019190915290565b6000602082840312156100df578081fd5b81356001600160a01b03811681146100f5578182fd5b9392505050565b901515815260200190565b81511515815260208083015115159082015260409182015163ffffffff16918101919091526060019056fea26469706673582212206faa27f290be43541104465e759742c803cfe11622af8ea0ac61338e7f69254964736f6c63430006020033",
  "source": "pragma solidity ^0.6.2;\npragma experimental ABIEncoderV2;\nstruct donor {\n    bool exists;\n    bool approved;\n    uint32 donationCount;\n}\n\ncontract Administration {\n    function systemPaused() public returns (bool) {}\n\n    function addDonor(address donorAddress) public {}\n\n    function getDonor(address donorAddress)\n        public\n        view\n        returns (donor memory)\n    {}\n}\n\nimport \"@openzeppelin/contracts/token/ERC721/ERC721.sol\";\nimport \"@openzeppelin/contracts/access/AccessControl.sol\";\nimport \"@openzeppelin/contracts/math/SafeMath.sol\";\nimport \"@openzeppelin/contracts/utils/SafeCast.sol\";\n\n/// @title A Asset donation smart contract\n/// @author Fatemeh Heidari Soureshjani\n/// @notice This contract facilitates donation of physical assets for specific periods of time between asset owners and receivers\n/// @dev time\n\ncontract DonateAsset is ERC721 {\n    Administration ADM;\n\n    uint32 lastAssetId;\n    uint32 lastDonationId;\n\n    constructor(address _adm) public ERC721(\"MyToken\", \"MTS\") {\n        ADM = Administration(_adm);\n        lastAssetId = 0;\n        lastDonationId = 0;\n    }\n\n    enum Status {Free, Requested, Donated, Inactive, Burned}\n\n    struct Asset {\n        string assetTitle;\n        string assetDescription;\n        uint32 availablityDate;\n        string location;\n        address owner;\n        string imageIPFSHash;\n    }\n\n    struct Donation {\n        uint32 donationId;\n        uint256 assetId;\n        uint32 availablityDate;\n        string location;\n        Status status;\n        address owner;\n        address recipient;\n        uint32 requestCount;\n    }\n\n    mapping(uint32 => Donation) public donationList;\n    mapping(uint256 => Asset) public AssetList;\n\n    modifier assetIsFree(uint32 donationId) {\n        require(\n            donationList[donationId].recipient == address(0) &&\n                (donationList[donationId].status == Status.Free ||\n                    donationList[donationId].status == Status.Requested),\n            \"Asset is not Free.\"\n        );\n        _;\n    }\n\n    modifier assetExists(uint32 donationId) {\n        require(donationList[donationId].owner != address(0), \"Invalid asset\");\n        _;\n    }\n\n    modifier isAssetOwner(uint256 assetId) {\n        require(ownerOf(assetId) == msg.sender, \"Sender nis ot asset owner.\");\n        _;\n    }\n\n    modifier whenNotPaused() {\n        require(!ADM.systemPaused(), \"System is in emergency stop.\");\n        _;\n    }\n\n    event LogFree(uint32 assetId);\n\n    event LogDonated(uint32 assetId);\n\n    // event LogInactive(uint32 assetId);\n    // event LogIBurned(uint32 assetId);\n\n    function UpdateDonation(Donation memory donation, uint32 donationId)\n        public\n    {\n        if (donation.status > donationList[donationId].status) {\n            donationList[donationId].status = donation.status;\n        }\n        donationList[donationId].requestCount = donation.requestCount;\n    }\n\n    /// @notice Adds a new asset to list of donated assets(Should be called by a donor)\n    /// @dev other asset struct members should be added\n    /// @param assetDescription Descrption of the asset entered by owner\n    /// @param availablityDate the first date the owner can donate the asset\n    /// @param location the location of the donated asset\n    /// @param imageIPFSHash IPFS hash of the asset image uploaded by owner and saved to IPFS\n    function addAsset(\n        string memory assetTitle,\n        string memory assetDescription,\n        uint32 availablityDate,\n        string memory location,\n        string memory imageIPFSHash\n    ) public whenNotPaused {\n        ADM.addDonor(msg.sender);\n        uint32 assetId = mintToken(msg.sender);\n        AssetList[assetId] = Asset({\n            assetTitle: assetTitle,\n            assetDescription: assetDescription,\n            availablityDate: availablityDate,\n            location: location,\n            owner: msg.sender,\n            imageIPFSHash: imageIPFSHash\n        });\n        donationList[lastDonationId] = Donation({\n            donationId:lastDonationId,\n            assetId: assetId,\n            availablityDate: availablityDate,\n            location: location,\n            status: Status.Free,\n            owner: msg.sender,\n            recipient: address(0),\n            requestCount: 0\n        });\n        lastDonationId = SafeCast.toUint32(\n            SafeMath.add(uint256(lastDonationId), 1)\n        );\n        emit LogFree(assetId);\n    }\n\n    /// @notice Returns all donations of an donor(it shoud be called by a donor)\n    /// @dev There must be better way than returing always an array of 16\n    /// @return Asset returns an array of type asset and length 16 of donations of msg.sender\n    function getDonationsByOwner(uint256 pageNo)\n        public\n        view\n        returns (Donation[8] memory)\n    {\n        donor memory d = ADM.getDonor(msg.sender);\n        uint256 donationCount = d.donationCount; //uint(balanceOf(msg.sender)); //donors[msg.sender].donationCount;\n        //uint32 pageNo = donors[msg.sender].pageNo;\n        uint256 nextStart = SafeMath.mul(pageNo, 8); //0\n        uint256 rem = SafeMath.sub(donationCount, nextStart); //1\n        uint256 index = 0;\n        uint32 j = 0;\n        Donation[8] memory _donationList;\n        if (rem < 0) {\n            return _donationList;\n        } else {\n            if ((rem) < 8) {\n                index = rem; //1\n            } else {\n                index = 8;\n            }\n            uint256 loopEnd = SafeMath.add(nextStart, index); //9\n            for (uint32 i = SafeCast.toUint32( nextStart); i < lastDonationId; i++) {\n                if (donationList[i].owner == msg.sender) {\n                    //if (j > nextStart) {\n                        _donationList[SafeMath.sub(\n                            j,\n                            nextStart\n                        )] = donationList[i];\n                        j++;\n                    //} else {\n                    //    j++;\n                    //}\n                }\n                if (j == loopEnd) {\n                    break;\n                }\n            }\n            // for (uint i = nextStart; i < loopEnd; i++) {\n            //     tokenId = uint32(donationOfOwnerByIndex(msg.sender, i));\n            //     assetList[SafeMath.sub(i , nextStart)] = donationList[tokenId];\n            // }\n            return _donationList;\n        }\n    }\n\n    /// @notice returns all donations\n    /// @dev There must be better way than returing always an array of 16\n    /// @return Asset returns an array of type asset and length 16 of all donations\n    function getAllDonations() public view returns (Donation[16] memory) {\n        uint32 index = 0;\n        Donation[16] memory _donationList;\n        if (lastAssetId <= 16) {\n            index = lastDonationId;\n        } else {\n            index = 16;\n        }\n        for (uint32 i = 0; i < index; i++) {\n            _donationList[i] = donationList[i];\n        }\n        return _donationList;\n    }\n\n    /// @notice The ERC721 stadard for nunfungible token is used to maintain ownership of assets\n    /// @notice everytime a new token is minted based on current value of lastAssetId for assetOwner address, and then lastAssetId is increased\n    /// @param assetOwner the owner of the new asset\n    /// @return returns the id of new minted token\n    function mintToken(\n        address assetOwner //isDonor(msg.sender)\n    ) public whenNotPaused returns (uint32) {\n        _safeMint(assetOwner, lastAssetId);\n        uint32 assetId = lastAssetId;\n        lastAssetId = SafeCast.toUint32(SafeMath.add(uint256(lastAssetId), 1));\n        return assetId;\n    }\n\n    /// @notice a donor can approve a specific request and this function assigns the recipient of this asset to the recipientAddress\n    /// @notice caller should be a donor and recipient should be a receiver\n    /// @dev change related request's status to approved\n    /// @param donationId unique id of donation to be donated\n    /// @param recipientAddress donation receiver\n    function donateAsset(\n        uint32 donationId,\n        uint256 assetId,\n        address recipientAddress\n    ) public \n    //assetIsFree(donationId) \n    //isAssetOwner(assetId) \n    whenNotPaused \n    {\n        //uint256 tokenId = donationList[donationId].assetId;\n        safeTransferFrom(msg.sender, recipientAddress, assetId);\n        donationList[donationId].recipient = recipientAddress;\n        donationList[donationId].status = Status.Donated;\n        emit LogDonated(donationId);\n    }\n\n    function getDonationRequestCount(uint32 donationId)\n        public\n        view\n        returns (uint32)\n    {\n        return donationList[donationId].requestCount;\n    }\n\n    function getDonation(uint32 donationId)\n        public\n        view\n        returns (Donation memory)\n    {\n        return donationList[donationId];\n    }\n\n    function getAsset(uint256 assetId) public view returns (Asset memory) {\n        return AssetList[assetId];\n    }\n}\n",
  "sourcePath": "/home/fatemeh/Desktop/Consensys Course/assetdonation/AssetDonation/contracts/DonateAsset.sol",
  "compiler": {
    "name": "solc",
    "version": "0.6.2+commit.bacdbe57.Emscripten.clang"
  },
  "schemaVersion": "3.3.1",
  "updatedAt": "2020-12-15T19:14:44.514Z",
  "devdoc": {
    "methods": {}
  },
  "userdoc": {
    "methods": {}
  }
}