{
  "contractName": "AssetDonation",
  "abi": [
    {
      "inputs": [],
      "stateMutability": "nonpayable",
      "type": "constructor"
    },
    {
      "anonymous": false,
      "inputs": [
        {
          "indexed": true,
          "internalType": "address",
          "name": "owner",
          "type": "address"
        },
        {
          "indexed": true,
          "internalType": "address",
          "name": "approved",
          "type": "address"
        },
        {
          "indexed": true,
          "internalType": "uint256",
          "name": "tokenId",
          "type": "uint256"
        }
      ],
      "name": "Approval",
      "type": "event"
    },
    {
      "anonymous": false,
      "inputs": [
        {
          "indexed": true,
          "internalType": "address",
          "name": "owner",
          "type": "address"
        },
        {
          "indexed": true,
          "internalType": "address",
          "name": "operator",
          "type": "address"
        },
        {
          "indexed": false,
          "internalType": "bool",
          "name": "approved",
          "type": "bool"
        }
      ],
      "name": "ApprovalForAll",
      "type": "event"
    },
    {
      "anonymous": false,
      "inputs": [
        {
          "indexed": true,
          "internalType": "bytes32",
          "name": "role",
          "type": "bytes32"
        },
        {
          "indexed": true,
          "internalType": "bytes32",
          "name": "previousAdminRole",
          "type": "bytes32"
        },
        {
          "indexed": true,
          "internalType": "bytes32",
          "name": "newAdminRole",
          "type": "bytes32"
        }
      ],
      "name": "RoleAdminChanged",
      "type": "event"
    },
    {
      "anonymous": false,
      "inputs": [
        {
          "indexed": true,
          "internalType": "bytes32",
          "name": "role",
          "type": "bytes32"
        },
        {
          "indexed": true,
          "internalType": "address",
          "name": "account",
          "type": "address"
        },
        {
          "indexed": true,
          "internalType": "address",
          "name": "sender",
          "type": "address"
        }
      ],
      "name": "RoleGranted",
      "type": "event"
    },
    {
      "anonymous": false,
      "inputs": [
        {
          "indexed": true,
          "internalType": "bytes32",
          "name": "role",
          "type": "bytes32"
        },
        {
          "indexed": true,
          "internalType": "address",
          "name": "account",
          "type": "address"
        },
        {
          "indexed": true,
          "internalType": "address",
          "name": "sender",
          "type": "address"
        }
      ],
      "name": "RoleRevoked",
      "type": "event"
    },
    {
      "anonymous": false,
      "inputs": [
        {
          "indexed": true,
          "internalType": "address",
          "name": "from",
          "type": "address"
        },
        {
          "indexed": true,
          "internalType": "address",
          "name": "to",
          "type": "address"
        },
        {
          "indexed": true,
          "internalType": "uint256",
          "name": "tokenId",
          "type": "uint256"
        }
      ],
      "name": "Transfer",
      "type": "event"
    },
    {
      "inputs": [],
      "name": "DEFAULT_ADMIN_ROLE",
      "outputs": [
        {
          "internalType": "bytes32",
          "name": "",
          "type": "bytes32"
        }
      ],
      "stateMutability": "view",
      "type": "function",
      "constant": true
    },
    {
      "inputs": [],
      "name": "DONOR",
      "outputs": [
        {
          "internalType": "bytes32",
          "name": "",
          "type": "bytes32"
        }
      ],
      "stateMutability": "view",
      "type": "function",
      "constant": true
    },
    {
      "inputs": [],
      "name": "RECEIVER",
      "outputs": [
        {
          "internalType": "bytes32",
          "name": "",
          "type": "bytes32"
        }
      ],
      "stateMutability": "view",
      "type": "function",
      "constant": true
    },
    {
      "inputs": [
        {
          "internalType": "address",
          "name": "to",
          "type": "address"
        },
        {
          "internalType": "uint256",
          "name": "tokenId",
          "type": "uint256"
        }
      ],
      "name": "approve",
      "outputs": [],
      "stateMutability": "nonpayable",
      "type": "function"
    },
    {
      "inputs": [
        {
          "internalType": "uint32",
          "name": "",
          "type": "uint32"
        },
        {
          "internalType": "uint32",
          "name": "",
          "type": "uint32"
        }
      ],
      "name": "assetRequestList",
      "outputs": [
        {
          "internalType": "address",
          "name": "receiver",
          "type": "address"
        },
        {
          "internalType": "string",
          "name": "requestDescription",
          "type": "string"
        },
        {
          "internalType": "uint32",
          "name": "requestDateFrom",
          "type": "uint32"
        },
        {
          "internalType": "uint32",
          "name": "requestDateTo",
          "type": "uint32"
        }
      ],
      "stateMutability": "view",
      "type": "function",
      "constant": true
    },
    {
      "inputs": [
        {
          "internalType": "address",
          "name": "owner",
          "type": "address"
        }
      ],
      "name": "balanceOf",
      "outputs": [
        {
          "internalType": "uint256",
          "name": "",
          "type": "uint256"
        }
      ],
      "stateMutability": "view",
      "type": "function",
      "constant": true
    },
    {
      "inputs": [],
      "name": "baseURI",
      "outputs": [
        {
          "internalType": "string",
          "name": "",
          "type": "string"
        }
      ],
      "stateMutability": "view",
      "type": "function",
      "constant": true
    },
    {
      "inputs": [
        {
          "internalType": "uint32",
          "name": "",
          "type": "uint32"
        }
      ],
      "name": "donationList",
      "outputs": [
        {
          "internalType": "uint32",
          "name": "assetId",
          "type": "uint32"
        },
        {
          "internalType": "string",
          "name": "assetDescription",
          "type": "string"
        },
        {
          "internalType": "uint32",
          "name": "availablityDate",
          "type": "uint32"
        },
        {
          "internalType": "string",
          "name": "location",
          "type": "string"
        },
        {
          "internalType": "enum AssetDonation.Status",
          "name": "status",
          "type": "uint8"
        },
        {
          "internalType": "address",
          "name": "owner",
          "type": "address"
        },
        {
          "internalType": "address",
          "name": "recipient",
          "type": "address"
        },
        {
          "internalType": "uint32",
          "name": "donatedDateFrom",
          "type": "uint32"
        },
        {
          "internalType": "uint32",
          "name": "donatedDateTo",
          "type": "uint32"
        },
        {
          "internalType": "uint32",
          "name": "requestCount",
          "type": "uint32"
        }
      ],
      "stateMutability": "view",
      "type": "function",
      "constant": true
    },
    {
      "inputs": [
        {
          "internalType": "address",
          "name": "",
          "type": "address"
        }
      ],
      "name": "donors",
      "outputs": [
        {
          "internalType": "bool",
          "name": "",
          "type": "bool"
        }
      ],
      "stateMutability": "view",
      "type": "function",
      "constant": true
    },
    {
      "inputs": [
        {
          "internalType": "uint256",
          "name": "tokenId",
          "type": "uint256"
        }
      ],
      "name": "getApproved",
      "outputs": [
        {
          "internalType": "address",
          "name": "",
          "type": "address"
        }
      ],
      "stateMutability": "view",
      "type": "function",
      "constant": true
    },
    {
      "inputs": [
        {
          "internalType": "bytes32",
          "name": "role",
          "type": "bytes32"
        }
      ],
      "name": "getRoleAdmin",
      "outputs": [
        {
          "internalType": "bytes32",
          "name": "",
          "type": "bytes32"
        }
      ],
      "stateMutability": "view",
      "type": "function",
      "constant": true
    },
    {
      "inputs": [
        {
          "internalType": "bytes32",
          "name": "role",
          "type": "bytes32"
        },
        {
          "internalType": "uint256",
          "name": "index",
          "type": "uint256"
        }
      ],
      "name": "getRoleMember",
      "outputs": [
        {
          "internalType": "address",
          "name": "",
          "type": "address"
        }
      ],
      "stateMutability": "view",
      "type": "function",
      "constant": true
    },
    {
      "inputs": [
        {
          "internalType": "bytes32",
          "name": "role",
          "type": "bytes32"
        }
      ],
      "name": "getRoleMemberCount",
      "outputs": [
        {
          "internalType": "uint256",
          "name": "",
          "type": "uint256"
        }
      ],
      "stateMutability": "view",
      "type": "function",
      "constant": true
    },
    {
      "inputs": [
        {
          "internalType": "bytes32",
          "name": "role",
          "type": "bytes32"
        },
        {
          "internalType": "address",
          "name": "account",
          "type": "address"
        }
      ],
      "name": "grantRole",
      "outputs": [],
      "stateMutability": "nonpayable",
      "type": "function"
    },
    {
      "inputs": [
        {
          "internalType": "bytes32",
          "name": "role",
          "type": "bytes32"
        },
        {
          "internalType": "address",
          "name": "account",
          "type": "address"
        }
      ],
      "name": "hasRole",
      "outputs": [
        {
          "internalType": "bool",
          "name": "",
          "type": "bool"
        }
      ],
      "stateMutability": "view",
      "type": "function",
      "constant": true
    },
    {
      "inputs": [
        {
          "internalType": "address",
          "name": "owner",
          "type": "address"
        },
        {
          "internalType": "address",
          "name": "operator",
          "type": "address"
        }
      ],
      "name": "isApprovedForAll",
      "outputs": [
        {
          "internalType": "bool",
          "name": "",
          "type": "bool"
        }
      ],
      "stateMutability": "view",
      "type": "function",
      "constant": true
    },
    {
      "inputs": [],
      "name": "name",
      "outputs": [
        {
          "internalType": "string",
          "name": "",
          "type": "string"
        }
      ],
      "stateMutability": "view",
      "type": "function",
      "constant": true
    },
    {
      "inputs": [
        {
          "internalType": "uint256",
          "name": "tokenId",
          "type": "uint256"
        }
      ],
      "name": "ownerOf",
      "outputs": [
        {
          "internalType": "address",
          "name": "",
          "type": "address"
        }
      ],
      "stateMutability": "view",
      "type": "function",
      "constant": true
    },
    {
      "inputs": [
        {
          "internalType": "address",
          "name": "",
          "type": "address"
        }
      ],
      "name": "receivers",
      "outputs": [
        {
          "internalType": "bool",
          "name": "",
          "type": "bool"
        }
      ],
      "stateMutability": "view",
      "type": "function",
      "constant": true
    },
    {
      "inputs": [
        {
          "internalType": "bytes32",
          "name": "role",
          "type": "bytes32"
        },
        {
          "internalType": "address",
          "name": "account",
          "type": "address"
        }
      ],
      "name": "renounceRole",
      "outputs": [],
      "stateMutability": "nonpayable",
      "type": "function"
    },
    {
      "inputs": [
        {
          "internalType": "bytes32",
          "name": "role",
          "type": "bytes32"
        },
        {
          "internalType": "address",
          "name": "account",
          "type": "address"
        }
      ],
      "name": "revokeRole",
      "outputs": [],
      "stateMutability": "nonpayable",
      "type": "function"
    },
    {
      "inputs": [
        {
          "internalType": "address",
          "name": "from",
          "type": "address"
        },
        {
          "internalType": "address",
          "name": "to",
          "type": "address"
        },
        {
          "internalType": "uint256",
          "name": "tokenId",
          "type": "uint256"
        }
      ],
      "name": "safeTransferFrom",
      "outputs": [],
      "stateMutability": "nonpayable",
      "type": "function"
    },
    {
      "inputs": [
        {
          "internalType": "address",
          "name": "from",
          "type": "address"
        },
        {
          "internalType": "address",
          "name": "to",
          "type": "address"
        },
        {
          "internalType": "uint256",
          "name": "tokenId",
          "type": "uint256"
        },
        {
          "internalType": "bytes",
          "name": "_data",
          "type": "bytes"
        }
      ],
      "name": "safeTransferFrom",
      "outputs": [],
      "stateMutability": "nonpayable",
      "type": "function"
    },
    {
      "inputs": [
        {
          "internalType": "address",
          "name": "operator",
          "type": "address"
        },
        {
          "internalType": "bool",
          "name": "approved",
          "type": "bool"
        }
      ],
      "name": "setApprovalForAll",
      "outputs": [],
      "stateMutability": "nonpayable",
      "type": "function"
    },
    {
      "inputs": [
        {
          "internalType": "bytes4",
          "name": "interfaceId",
          "type": "bytes4"
        }
      ],
      "name": "supportsInterface",
      "outputs": [
        {
          "internalType": "bool",
          "name": "",
          "type": "bool"
        }
      ],
      "stateMutability": "view",
      "type": "function",
      "constant": true
    },
    {
      "inputs": [],
      "name": "symbol",
      "outputs": [
        {
          "internalType": "string",
          "name": "",
          "type": "string"
        }
      ],
      "stateMutability": "view",
      "type": "function",
      "constant": true
    },
    {
      "inputs": [
        {
          "internalType": "uint256",
          "name": "index",
          "type": "uint256"
        }
      ],
      "name": "tokenByIndex",
      "outputs": [
        {
          "internalType": "uint256",
          "name": "",
          "type": "uint256"
        }
      ],
      "stateMutability": "view",
      "type": "function",
      "constant": true
    },
    {
      "inputs": [
        {
          "internalType": "address",
          "name": "owner",
          "type": "address"
        },
        {
          "internalType": "uint256",
          "name": "index",
          "type": "uint256"
        }
      ],
      "name": "tokenOfOwnerByIndex",
      "outputs": [
        {
          "internalType": "uint256",
          "name": "",
          "type": "uint256"
        }
      ],
      "stateMutability": "view",
      "type": "function",
      "constant": true
    },
    {
      "inputs": [
        {
          "internalType": "uint256",
          "name": "tokenId",
          "type": "uint256"
        }
      ],
      "name": "tokenURI",
      "outputs": [
        {
          "internalType": "string",
          "name": "",
          "type": "string"
        }
      ],
      "stateMutability": "view",
      "type": "function",
      "constant": true
    },
    {
      "inputs": [],
      "name": "totalSupply",
      "outputs": [
        {
          "internalType": "uint256",
          "name": "",
          "type": "uint256"
        }
      ],
      "stateMutability": "view",
      "type": "function",
      "constant": true
    },
    {
      "inputs": [
        {
          "internalType": "address",
          "name": "from",
          "type": "address"
        },
        {
          "internalType": "address",
          "name": "to",
          "type": "address"
        },
        {
          "internalType": "uint256",
          "name": "tokenId",
          "type": "uint256"
        }
      ],
      "name": "transferFrom",
      "outputs": [],
      "stateMutability": "nonpayable",
      "type": "function"
    },
    {
      "inputs": [],
      "name": "addDonor",
      "outputs": [],
      "stateMutability": "nonpayable",
      "type": "function"
    },
    {
      "inputs": [
        {
          "internalType": "address",
          "name": "donorAddress",
          "type": "address"
        }
      ],
      "name": "approveDonor",
      "outputs": [],
      "stateMutability": "nonpayable",
      "type": "function"
    },
    {
      "inputs": [
        {
          "internalType": "string",
          "name": "assetDescription",
          "type": "string"
        },
        {
          "internalType": "uint32",
          "name": "availablityDate",
          "type": "uint32"
        },
        {
          "internalType": "string",
          "name": "location",
          "type": "string"
        }
      ],
      "name": "addAsset",
      "outputs": [],
      "stateMutability": "nonpayable",
      "type": "function"
    },
    {
      "inputs": [],
      "name": "getDonations",
      "outputs": [
        {
          "components": [
            {
              "internalType": "uint32",
              "name": "assetId",
              "type": "uint32"
            },
            {
              "internalType": "string",
              "name": "assetDescription",
              "type": "string"
            },
            {
              "internalType": "uint32",
              "name": "availablityDate",
              "type": "uint32"
            },
            {
              "internalType": "string",
              "name": "location",
              "type": "string"
            },
            {
              "internalType": "enum AssetDonation.Status",
              "name": "status",
              "type": "uint8"
            },
            {
              "internalType": "address",
              "name": "owner",
              "type": "address"
            },
            {
              "internalType": "address",
              "name": "recipient",
              "type": "address"
            },
            {
              "internalType": "uint32",
              "name": "donatedDateFrom",
              "type": "uint32"
            },
            {
              "internalType": "uint32",
              "name": "donatedDateTo",
              "type": "uint32"
            },
            {
              "internalType": "uint32",
              "name": "requestCount",
              "type": "uint32"
            }
          ],
          "internalType": "struct AssetDonation.Asset[16]",
          "name": "",
          "type": "tuple[16]"
        }
      ],
      "stateMutability": "view",
      "type": "function",
      "constant": true
    },
    {
      "inputs": [],
      "name": "getAllDonations",
      "outputs": [
        {
          "components": [
            {
              "internalType": "uint32",
              "name": "assetId",
              "type": "uint32"
            },
            {
              "internalType": "string",
              "name": "assetDescription",
              "type": "string"
            },
            {
              "internalType": "uint32",
              "name": "availablityDate",
              "type": "uint32"
            },
            {
              "internalType": "string",
              "name": "location",
              "type": "string"
            },
            {
              "internalType": "enum AssetDonation.Status",
              "name": "status",
              "type": "uint8"
            },
            {
              "internalType": "address",
              "name": "owner",
              "type": "address"
            },
            {
              "internalType": "address",
              "name": "recipient",
              "type": "address"
            },
            {
              "internalType": "uint32",
              "name": "donatedDateFrom",
              "type": "uint32"
            },
            {
              "internalType": "uint32",
              "name": "donatedDateTo",
              "type": "uint32"
            },
            {
              "internalType": "uint32",
              "name": "requestCount",
              "type": "uint32"
            }
          ],
          "internalType": "struct AssetDonation.Asset[16]",
          "name": "",
          "type": "tuple[16]"
        }
      ],
      "stateMutability": "view",
      "type": "function",
      "constant": true
    },
    {
      "inputs": [
        {
          "internalType": "uint32",
          "name": "assetId",
          "type": "uint32"
        }
      ],
      "name": "getDonationRequests",
      "outputs": [
        {
          "components": [
            {
              "internalType": "address",
              "name": "receiver",
              "type": "address"
            },
            {
              "internalType": "string",
              "name": "requestDescription",
              "type": "string"
            },
            {
              "internalType": "uint32",
              "name": "requestDateFrom",
              "type": "uint32"
            },
            {
              "internalType": "uint32",
              "name": "requestDateTo",
              "type": "uint32"
            }
          ],
          "internalType": "struct AssetDonation.Request[16]",
          "name": "",
          "type": "tuple[16]"
        }
      ],
      "stateMutability": "view",
      "type": "function",
      "constant": true
    },
    {
      "inputs": [
        {
          "internalType": "address",
          "name": "assetOwner",
          "type": "address"
        }
      ],
      "name": "mintToken",
      "outputs": [
        {
          "internalType": "uint32",
          "name": "",
          "type": "uint32"
        }
      ],
      "stateMutability": "nonpayable",
      "type": "function"
    },
    {
      "inputs": [
        {
          "internalType": "uint32",
          "name": "assetId",
          "type": "uint32"
        },
        {
          "internalType": "address",
          "name": "recipientAddress",
          "type": "address"
        }
      ],
      "name": "donateAsset",
      "outputs": [],
      "stateMutability": "nonpayable",
      "type": "function"
    },
    {
      "inputs": [],
      "name": "addReceiver",
      "outputs": [],
      "stateMutability": "nonpayable",
      "type": "function"
    },
    {
      "inputs": [
        {
          "internalType": "address",
          "name": "receiverAddress",
          "type": "address"
        }
      ],
      "name": "approveReceiver",
      "outputs": [],
      "stateMutability": "nonpayable",
      "type": "function"
    },
    {
      "inputs": [
        {
          "internalType": "address",
          "name": "receiver",
          "type": "address"
        },
        {
          "internalType": "uint32",
          "name": "assetId",
          "type": "uint32"
        },
        {
          "internalType": "string",
          "name": "requestDescription",
          "type": "string"
        },
        {
          "internalType": "uint32",
          "name": "requestDateFrom",
          "type": "uint32"
        },
        {
          "internalType": "uint32",
          "name": "requestDateTo",
          "type": "uint32"
        }
      ],
      "name": "requestAsset",
      "outputs": [],
      "stateMutability": "nonpayable",
      "type": "function"
    }
  ],
  "bytecode": "0x60806040523480156200001157600080fd5b506040518060400160405280600781526020017f4d79546f6b656e000000000000000000000000000000000000000000000000008152506040518060400160405280600381526020017f4d54530000000000000000000000000000000000000000000000000000000000815250620000966301ffc9a760e01b6200015c60201b60201c565b8160069080519060200190620000ae92919062000234565b508060079080519060200190620000c792919062000234565b50620000e06380ac58cd60e01b6200015c60201b60201c565b620000f8635b5e139f60e01b6200015c60201b60201c565b6200011063780e9d6360e01b6200015c60201b60201c565b50506000600b60006101000a81548163ffffffff021916908363ffffffff1602179055506000600b60046101000a81548163ffffffff021916908363ffffffff16021790555062000358565b63ffffffff60e01b817bffffffffffffffffffffffffffffffffffffffffffffffffffffffff19161415620001c8576040517f08c379a0000000000000000000000000000000000000000000000000000000008152600401620001bf9062000325565b60405180910390fd5b6001600080837bffffffffffffffffffffffffffffffffffffffffffffffffffffffff19167bffffffffffffffffffffffffffffffffffffffffffffffffffffffff1916815260200190815260200160002060006101000a81548160ff02191690831515021790555050565b828054600181600116156101000203166002900490600052602060002090601f016020900481019282601f106200027757805160ff1916838001178555620002a8565b82800160010185558215620002a8579182015b82811115620002a75782518255916020019190600101906200028a565b5b509050620002b79190620002bb565b5090565b620002e091905b80821115620002dc576000816000905550600101620002c2565b5090565b90565b6000620002f2601c8362000347565b91507f4552433136353a20696e76616c696420696e74657266616365206964000000006000830152602082019050919050565b600060208201905081810360008301526200034081620002e3565b9050919050565b600082825260208201905092915050565b6156e180620003686000396000f3fe608060405234801561001057600080fd5b506004361061025e5760003560e01c806367c7e97911610146578063a217fddf116100c3578063c87b56dd11610087578063c87b56dd14610763578063ca0cdea814610793578063ca15c873146107c3578063d547741f146107f3578063e25f84161461080f578063e985e9c51461082d5761025e565b8063a217fddf146106d3578063a22cb465146106f1578063a6e5a7901461070d578063ad7430cc14610729578063b88d4fde146107475761025e565b80638ad545121161010a5780638ad545121461061b5780638e25a7ef146106255780639010d07c1461065557806391d148541461068557806395d89b41146106b55761025e565b806367c7e979146105745780636c0360eb146105a757806370a08231146105c557806372dbb89f146105f557806379e085a2146106115761025e565b80632a781270116101df57806342842e0e116101a357806342842e0e146104855780634576d251146104a157806349d17fe9146104bf5780634bb0eaaf146104db5780634f6ccce7146105145780636352211e146105445761025e565b80632a781270146103e35780632f2ff15d146103ff5780632f745c591461041b57806336568abe1461044b57806338a59a07146104675761025e565b80630cb8150f116102265780630cb8150f1461032d57806318160ddd1461035d5780631ddae70d1461037b57806323b872dd14610397578063248a9ca3146103b35761025e565b806301173a741461026357806301ffc9a71461029357806306fdde03146102c3578063081812fc146102e1578063095ea7b314610311575b600080fd5b61027d60048036036102789190810190613da3565b61085d565b60405161028a919061527e565b60405180910390f35b6102ad60048036036102a8919081019061407a565b6108d6565b6040516102ba9190614fab565b60405180910390f35b6102cb61093d565b6040516102d89190614fe1565b60405180910390f35b6102fb60048036036102f6919081019061414b565b6109df565b6040516103089190614eb4565b60405180910390f35b61032b60048036036103269190810190613f0e565b610a64565b005b61034760048036036103429190810190613da3565b610b7c565b6040516103549190614fab565b60405180910390f35b610365610b9c565b6040516103729190615263565b60405180910390f35b61039560048036036103909190810190613f4a565b610bad565b005b6103b160048036036103ac9190810190613e08565b610da1565b005b6103cd60048036036103c89190810190613fd9565b610e01565b6040516103da9190614fc6565b60405180910390f35b6103fd60048036036103f89190810190613da3565b610e21565b005b61041960048036036104149190810190614002565b610e99565b005b61043560048036036104309190810190613f0e565b610f0d565b6040516104429190615263565b60405180910390f35b61046560048036036104609190810190614002565b610f68565b005b61046f610feb565b60405161047c9190614f67565b60405180910390f35b61049f600480360361049a9190810190613e08565b61138f565b005b6104a96113af565b6040516104b69190614fc6565b60405180910390f35b6104d960048036036104d4919081019061419d565b6113c6565b005b6104f560048036036104f09190810190614174565b6114ec565b60405161050b9a99989796959493929190615299565b60405180910390f35b61052e6004803603610529919081019061414b565b61170d565b60405161053b9190615263565b60405180910390f35b61055e6004803603610559919081019061414b565b611730565b60405161056b9190614eb4565b60405180910390f35b61058e600480360361058991908101906141d9565b611767565b60405161059e9493929190614f1b565b60405180910390f35b6105af61187c565b6040516105bc9190614fe1565b60405180910390f35b6105df60048036036105da9190810190613da3565b61191e565b6040516105ec9190615263565b60405180910390f35b61060f600480360361060a9190810190613da3565b6119dd565b005b610619611a55565b005b610623611ab8565b005b61063f600480360361063a9190810190614174565b611b12565b60405161064c9190614f89565b60405180910390f35b61066f600480360361066a919081019061403e565b611d30565b60405161067c9190614eb4565b60405180910390f35b61069f600480360361069a9190810190614002565b611d62565b6040516106ac9190614fab565b60405180910390f35b6106bd611d94565b6040516106ca9190614fe1565b60405180910390f35b6106db611e36565b6040516106e89190614fc6565b60405180910390f35b61070b60048036036107069190810190613ed2565b611e3d565b005b610727600480360361072291908101906140cc565b611fbe565b005b610731612249565b60405161073e9190614fc6565b60405180910390f35b610761600480360361075c9190810190613e57565b612260565b005b61077d6004803603610778919081019061414b565b6122c2565b60405161078a9190614fe1565b60405180910390f35b6107ad60048036036107a89190810190613da3565b61244d565b6040516107ba9190614fab565b60405180910390f35b6107dd60048036036107d89190810190613fd9565b61246d565b6040516107ea9190615263565b60405180910390f35b61080d60048036036108089190810190614002565b612494565b005b610817612508565b6040516108249190614f67565b60405180910390f35b61084760048036036108429190810190613dcc565b6128ab565b6040516108549190614fab565b60405180910390f35b600061088182600b60009054906101000a900463ffffffff1663ffffffff1661293f565b600b600081819054906101000a900463ffffffff168092919060010191906101000a81548163ffffffff021916908363ffffffff16021790555050600b60009054906101000a900463ffffffff169050919050565b6000806000837bffffffffffffffffffffffffffffffffffffffffffffffffffffffff19167bffffffffffffffffffffffffffffffffffffffffffffffffffffffff1916815260200190815260200160002060009054906101000a900460ff169050919050565b606060068054600181600116156101000203166002900480601f0160208091040260200160405190810160405280929190818152602001828054600181600116156101000203166002900480156109d55780601f106109aa576101008083540402835291602001916109d5565b820191906000526020600020905b8154815290600101906020018083116109b857829003601f168201915b5050505050905090565b60006109ea8261295d565b610a29576040517f08c379a0000000000000000000000000000000000000000000000000000000008152600401610a2090615183565b60405180910390fd5b6004600083815260200190815260200160002060009054906101000a900473ffffffffffffffffffffffffffffffffffffffff169050919050565b6000610a6f82611730565b90508073ffffffffffffffffffffffffffffffffffffffff168373ffffffffffffffffffffffffffffffffffffffff161415610ae0576040517f08c379a0000000000000000000000000000000000000000000000000000000008152600401610ad7906151e3565b60405180910390fd5b8073ffffffffffffffffffffffffffffffffffffffff16610aff61297a565b73ffffffffffffffffffffffffffffffffffffffff161480610b2e5750610b2d81610b2861297a565b6128ab565b5b610b6d576040517f08c379a0000000000000000000000000000000000000000000000000000000008152600401610b6490615103565b60405180910390fd5b610b778383612982565b505050565b600d6020528060005260406000206000915054906101000a900460ff1681565b6000610ba86002612a3b565b905090565b6000600e60008663ffffffff1663ffffffff168152602001908152602001600020905060405180608001604052808773ffffffffffffffffffffffffffffffffffffffff1681526020018581526020018463ffffffff1681526020018363ffffffff16815250600f60008763ffffffff1663ffffffff168152602001908152602001600020600083600501601c9054906101000a900463ffffffff1663ffffffff1663ffffffff16815260200190815260200160002060008201518160000160006101000a81548173ffffffffffffffffffffffffffffffffffffffff021916908373ffffffffffffffffffffffffffffffffffffffff1602179055506020820151816001019080519060200190610cc6929190613a75565b5060408201518160020160006101000a81548163ffffffff021916908363ffffffff16021790555060608201518160020160046101000a81548163ffffffff021916908363ffffffff1602179055509050506001600e60008763ffffffff1663ffffffff16815260200190815260200160002060040160006101000a81548160ff02191690836004811115610d5757fe5b021790555080600501601c81819054906101000a900463ffffffff168092919060010191906101000a81548163ffffffff021916908363ffffffff16021790555050505050505050565b610db2610dac61297a565b82612a50565b610df1576040517f08c379a0000000000000000000000000000000000000000000000000000000008152600401610de890615203565b60405180910390fd5b610dfc838383612b2e565b505050565b6000600a6000838152602001908152602001600020600201549050919050565b610e3e604051610e3090614e8a565b604051809103902082610e99565b6001600c60008373ffffffffffffffffffffffffffffffffffffffff1673ffffffffffffffffffffffffffffffffffffffff16815260200190815260200160002060006101000a81548160ff02191690831515021790555050565b610ec0600a600084815260200190815260200160002060020154610ebb61297a565b611d62565b610eff576040517f08c379a0000000000000000000000000000000000000000000000000000000008152600401610ef690615023565b60405180910390fd5b610f098282612d45565b5050565b6000610f6082600160008673ffffffffffffffffffffffffffffffffffffffff1673ffffffffffffffffffffffffffffffffffffffff168152602001908152602001600020612dd990919063ffffffff16565b905092915050565b610f7061297a565b73ffffffffffffffffffffffffffffffffffffffff168173ffffffffffffffffffffffffffffffffffffffff1614610fdd576040517f08c379a0000000000000000000000000000000000000000000000000000000008152600401610fd490615243565b60405180910390fd5b610fe78282612df3565b5050565b610ff3613af5565b6000809050611000613af5565b6010600b60009054906101000a900463ffffffff1663ffffffff161161103a57600b60009054906101000a900463ffffffff16915061103f565b601091505b60008090505b8263ffffffff168163ffffffff16101561138657600e60008263ffffffff1663ffffffff168152602001908152602001600020604051806101400160405290816000820160009054906101000a900463ffffffff1663ffffffff1663ffffffff168152602001600182018054600181600116156101000203166002900480601f0160208091040260200160405190810160405280929190818152602001828054600181600116156101000203166002900480156111435780601f1061111857610100808354040283529160200191611143565b820191906000526020600020905b81548152906001019060200180831161112657829003601f168201915b505050505081526020016002820160009054906101000a900463ffffffff1663ffffffff1663ffffffff168152602001600382018054600181600116156101000203166002900480601f01602080910402602001604051908101604052809291908181526020018280546001816001161561010002031660029004801561120b5780601f106111e05761010080835404028352916020019161120b565b820191906000526020600020905b8154815290600101906020018083116111ee57829003601f168201915b505050505081526020016004820160009054906101000a900460ff16600481111561123257fe5b600481111561123d57fe5b81526020016004820160019054906101000a900473ffffffffffffffffffffffffffffffffffffffff1673ffffffffffffffffffffffffffffffffffffffff1673ffffffffffffffffffffffffffffffffffffffff1681526020016005820160009054906101000a900473ffffffffffffffffffffffffffffffffffffffff1673ffffffffffffffffffffffffffffffffffffffff1673ffffffffffffffffffffffffffffffffffffffff1681526020016005820160149054906101000a900463ffffffff1663ffffffff1663ffffffff1681526020016005820160189054906101000a900463ffffffff1663ffffffff1663ffffffff16815260200160058201601c9054906101000a900463ffffffff1663ffffffff1663ffffffff1681525050828263ffffffff166010811061137157fe5b60200201819052508080600101915050611045565b50809250505090565b6113aa83838360405180602001604052806000815250612260565b505050565b6040516113bb90614e8a565b604051809103902081565b81600073ffffffffffffffffffffffffffffffffffffffff16600e60008363ffffffff1663ffffffff16815260200190815260200160002060050160009054906101000a900473ffffffffffffffffffffffffffffffffffffffff1673ffffffffffffffffffffffffffffffffffffffff161461144257600080fd5b81600e60008563ffffffff1663ffffffff16815260200190815260200160002060050160006101000a81548173ffffffffffffffffffffffffffffffffffffffff021916908373ffffffffffffffffffffffffffffffffffffffff1602179055506002600e60008563ffffffff1663ffffffff16815260200190815260200160002060040160006101000a81548160ff021916908360048111156114e257fe5b0217905550505050565b600e6020528060005260406000206000915090508060000160009054906101000a900463ffffffff1690806001018054600181600116156101000203166002900480601f0160208091040260200160405190810160405280929190818152602001828054600181600116156101000203166002900480156115ae5780601f10611583576101008083540402835291602001916115ae565b820191906000526020600020905b81548152906001019060200180831161159157829003601f168201915b5050505050908060020160009054906101000a900463ffffffff1690806003018054600181600116156101000203166002900480601f0160208091040260200160405190810160405280929190818152602001828054600181600116156101000203166002900480156116625780601f1061163757610100808354040283529160200191611662565b820191906000526020600020905b81548152906001019060200180831161164557829003601f168201915b5050505050908060040160009054906101000a900460ff16908060040160019054906101000a900473ffffffffffffffffffffffffffffffffffffffff16908060050160009054906101000a900473ffffffffffffffffffffffffffffffffffffffff16908060050160149054906101000a900463ffffffff16908060050160189054906101000a900463ffffffff169080600501601c9054906101000a900463ffffffff1690508a565b600080611724836002612e8790919063ffffffff16565b50905080915050919050565b600061176082604051806060016040528060298152602001615683602991396002612eb69092919063ffffffff16565b9050919050565b600f602052816000526040600020602052806000526040600020600091509150508060000160009054906101000a900473ffffffffffffffffffffffffffffffffffffffff1690806001018054600181600116156101000203166002900480601f0160208091040260200160405190810160405280929190818152602001828054600181600116156101000203166002900480156118465780601f1061181b57610100808354040283529160200191611846565b820191906000526020600020905b81548152906001019060200180831161182957829003601f168201915b5050505050908060020160009054906101000a900463ffffffff16908060020160049054906101000a900463ffffffff16905084565b606060098054600181600116156101000203166002900480601f0160208091040260200160405190810160405280929190818152602001828054600181600116156101000203166002900480156119145780601f106118e957610100808354040283529160200191611914565b820191906000526020600020905b8154815290600101906020018083116118f757829003601f168201915b5050505050905090565b60008073ffffffffffffffffffffffffffffffffffffffff168273ffffffffffffffffffffffffffffffffffffffff16141561198f576040517f08c379a000000000000000000000000000000000000000000000000000000000815260040161198690615123565b60405180910390fd5b6119d6600160008473ffffffffffffffffffffffffffffffffffffffff1673ffffffffffffffffffffffffffffffffffffffff168152602001908152602001600020612ed5565b9050919050565b6119fa6040516119ec90614e9f565b604051809103902082610e99565b6001600d60008373ffffffffffffffffffffffffffffffffffffffff1673ffffffffffffffffffffffffffffffffffffffff16815260200190815260200160002060006101000a81548160ff02191690831515021790555050565b6000600c60003373ffffffffffffffffffffffffffffffffffffffff1673ffffffffffffffffffffffffffffffffffffffff16815260200190815260200160002060006101000a81548160ff021916908315150217905550611ab633610e21565b565b6000600d60003373ffffffffffffffffffffffffffffffffffffffff1673ffffffffffffffffffffffffffffffffffffffff16815260200190815260200160002060006101000a81548160ff021916908315150217905550565b611b1a613b23565b611b22613b23565b6000600f60008563ffffffff1663ffffffff168152602001908152602001600020905060008090505b600e60008663ffffffff1663ffffffff168152602001908152602001600020600501601c9054906101000a900463ffffffff1663ffffffff168163ffffffff161015611d25578160008263ffffffff1663ffffffff1681526020019081526020016000206040518060800160405290816000820160009054906101000a900473ffffffffffffffffffffffffffffffffffffffff1673ffffffffffffffffffffffffffffffffffffffff1673ffffffffffffffffffffffffffffffffffffffff168152602001600182018054600181600116156101000203166002900480601f016020809104026020016040519081016040528092919081815260200182805460018160011615610100020316600290048015611ca95780601f10611c7e57610100808354040283529160200191611ca9565b820191906000526020600020905b815481529060010190602001808311611c8c57829003601f168201915b505050505081526020016002820160009054906101000a900463ffffffff1663ffffffff1663ffffffff1681526020016002820160049054906101000a900463ffffffff1663ffffffff1663ffffffff1681525050838263ffffffff1660108110611d1057fe5b60200201819052508080600101915050611b4b565b508192505050919050565b6000611d5a82600a6000868152602001908152602001600020600001612eea90919063ffffffff16565b905092915050565b6000611d8c82600a6000868152602001908152602001600020600001612f0490919063ffffffff16565b905092915050565b606060078054600181600116156101000203166002900480601f016020809104026020016040519081016040528092919081815260200182805460018160011615610100020316600290048015611e2c5780601f10611e0157610100808354040283529160200191611e2c565b820191906000526020600020905b815481529060010190602001808311611e0f57829003601f168201915b5050505050905090565b6000801b81565b611e4561297a565b73ffffffffffffffffffffffffffffffffffffffff168273ffffffffffffffffffffffffffffffffffffffff161415611eb3576040517f08c379a0000000000000000000000000000000000000000000000000000000008152600401611eaa906150a3565b60405180910390fd5b8060056000611ec061297a565b73ffffffffffffffffffffffffffffffffffffffff1673ffffffffffffffffffffffffffffffffffffffff16815260200190815260200160002060008473ffffffffffffffffffffffffffffffffffffffff1673ffffffffffffffffffffffffffffffffffffffff16815260200190815260200160002060006101000a81548160ff0219169083151502179055508173ffffffffffffffffffffffffffffffffffffffff16611f6d61297a565b73ffffffffffffffffffffffffffffffffffffffff167f17307eab39ab6107e8899845ad3d59bd9653f200f220920489ca2b5937696c3183604051611fb29190614fab565b60405180910390a35050565b6000611fc93361085d565b90506040518061014001604052808263ffffffff1681526020018581526020018463ffffffff1681526020018381526020016000600481111561200857fe5b81526020013373ffffffffffffffffffffffffffffffffffffffff168152602001600073ffffffffffffffffffffffffffffffffffffffff168152602001600063ffffffff168152602001600063ffffffff168152602001600063ffffffff16815250600e60008363ffffffff1663ffffffff16815260200190815260200160002060008201518160000160006101000a81548163ffffffff021916908363ffffffff16021790555060208201518160010190805190602001906120cd929190613a75565b5060408201518160020160006101000a81548163ffffffff021916908363ffffffff1602179055506060820151816003019080519060200190612111929190613a75565b5060808201518160040160006101000a81548160ff0219169083600481111561213657fe5b021790555060a08201518160040160016101000a81548173ffffffffffffffffffffffffffffffffffffffff021916908373ffffffffffffffffffffffffffffffffffffffff16021790555060c08201518160050160006101000a81548173ffffffffffffffffffffffffffffffffffffffff021916908373ffffffffffffffffffffffffffffffffffffffff16021790555060e08201518160050160146101000a81548163ffffffff021916908363ffffffff1602179055506101008201518160050160186101000a81548163ffffffff021916908363ffffffff16021790555061012082015181600501601c6101000a81548163ffffffff021916908363ffffffff16021790555090505050505050565b60405161225590614e9f565b604051809103902081565b61227161226b61297a565b83612a50565b6122b0576040517f08c379a00000000000000000000000000000000000000000000000000000000081526004016122a790615203565b60405180910390fd5b6122bc84848484612f34565b50505050565b60606122cd8261295d565b61230c576040517f08c379a0000000000000000000000000000000000000000000000000000000008152600401612303906151c3565b60405180910390fd5b6060600860008481526020019081526020016000208054600181600116156101000203166002900480601f0160208091040260200160405190810160405280929190818152602001828054600181600116156101000203166002900480156123b55780601f1061238a576101008083540402835291602001916123b5565b820191906000526020600020905b81548152906001019060200180831161239857829003601f168201915b505050505090506000600980546001816001161561010002031660029004905014156123e45780915050612448565b60008151111561241957600981604051602001612402929190614e66565b604051602081830303815290604052915050612448565b600961242484612f90565b604051602001612435929190614e66565b6040516020818303038152906040529150505b919050565b600c6020528060005260406000206000915054906101000a900460ff1681565b600061248d600a60008481526020019081526020016000206000016130c0565b9050919050565b6124bb600a6000848152602001908152602001600020600201546124b661297a565b611d62565b6124fa576040517f08c379a00000000000000000000000000000000000000000000000000000000081526004016124f1906150e3565b60405180910390fd5b6125048282612df3565b5050565b612510613af5565b600061251b3361191e565b90506000809050600061252c613af5565b60108463ffffffff161161254257839250612547565b601092505b60008090505b8363ffffffff168163ffffffff1610156128a057612571338263ffffffff16610f0d565b9250600e60008463ffffffff1663ffffffff168152602001908152602001600020604051806101400160405290816000820160009054906101000a900463ffffffff1663ffffffff1663ffffffff168152602001600182018054600181600116156101000203166002900480601f01602080910402602001604051908101604052809291908181526020018280546001816001161561010002031660029004801561265d5780601f106126325761010080835404028352916020019161265d565b820191906000526020600020905b81548152906001019060200180831161264057829003601f168201915b505050505081526020016002820160009054906101000a900463ffffffff1663ffffffff1663ffffffff168152602001600382018054600181600116156101000203166002900480601f0160208091040260200160405190810160405280929190818152602001828054600181600116156101000203166002900480156127255780601f106126fa57610100808354040283529160200191612725565b820191906000526020600020905b81548152906001019060200180831161270857829003601f168201915b505050505081526020016004820160009054906101000a900460ff16600481111561274c57fe5b600481111561275757fe5b81526020016004820160019054906101000a900473ffffffffffffffffffffffffffffffffffffffff1673ffffffffffffffffffffffffffffffffffffffff1673ffffffffffffffffffffffffffffffffffffffff1681526020016005820160009054906101000a900473ffffffffffffffffffffffffffffffffffffffff1673ffffffffffffffffffffffffffffffffffffffff1673ffffffffffffffffffffffffffffffffffffffff1681526020016005820160149054906101000a900463ffffffff1663ffffffff1663ffffffff1681526020016005820160189054906101000a900463ffffffff1663ffffffff1663ffffffff16815260200160058201601c9054906101000a900463ffffffff1663ffffffff1663ffffffff1681525050828263ffffffff166010811061288b57fe5b6020020181905250808060010191505061254d565b508094505050505090565b6000600560008473ffffffffffffffffffffffffffffffffffffffff1673ffffffffffffffffffffffffffffffffffffffff16815260200190815260200160002060008373ffffffffffffffffffffffffffffffffffffffff1673ffffffffffffffffffffffffffffffffffffffff16815260200190815260200160002060009054906101000a900460ff16905092915050565b6129598282604051806020016040528060008152506130d5565b5050565b600061297382600261313090919063ffffffff16565b9050919050565b600033905090565b816004600083815260200190815260200160002060006101000a81548173ffffffffffffffffffffffffffffffffffffffff021916908373ffffffffffffffffffffffffffffffffffffffff160217905550808273ffffffffffffffffffffffffffffffffffffffff166129f583611730565b73ffffffffffffffffffffffffffffffffffffffff167f8c5be1e5ebec7d5bd14f71427d1e84f3dd0314c0f7b2291e5b200ac8c7c3b92560405160405180910390a45050565b6000612a498260000161314a565b9050919050565b6000612a5b8261295d565b612a9a576040517f08c379a0000000000000000000000000000000000000000000000000000000008152600401612a91906150c3565b60405180910390fd5b6000612aa583611730565b90508073ffffffffffffffffffffffffffffffffffffffff168473ffffffffffffffffffffffffffffffffffffffff161480612b1457508373ffffffffffffffffffffffffffffffffffffffff16612afc846109df565b73ffffffffffffffffffffffffffffffffffffffff16145b80612b255750612b2481856128ab565b5b91505092915050565b8273ffffffffffffffffffffffffffffffffffffffff16612b4e82611730565b73ffffffffffffffffffffffffffffffffffffffff1614612ba4576040517f08c379a0000000000000000000000000000000000000000000000000000000008152600401612b9b906151a3565b60405180910390fd5b600073ffffffffffffffffffffffffffffffffffffffff168273ffffffffffffffffffffffffffffffffffffffff161415612c14576040517f08c379a0000000000000000000000000000000000000000000000000000000008152600401612c0b90615083565b60405180910390fd5b612c1f83838361315b565b612c2a600082612982565b612c7b81600160008673ffffffffffffffffffffffffffffffffffffffff1673ffffffffffffffffffffffffffffffffffffffff16815260200190815260200160002061316090919063ffffffff16565b50612ccd81600160008573ffffffffffffffffffffffffffffffffffffffff1673ffffffffffffffffffffffffffffffffffffffff16815260200190815260200160002061317a90919063ffffffff16565b50612ce4818360026131949092919063ffffffff16565b50808273ffffffffffffffffffffffffffffffffffffffff168473ffffffffffffffffffffffffffffffffffffffff167fddf252ad1be2c89b69c2b068fc378daa952ba7f163c4a11628f55a4df523b3ef60405160405180910390a4505050565b612d6d81600a60008581526020019081526020016000206000016131c990919063ffffffff16565b15612dd557612d7a61297a565b73ffffffffffffffffffffffffffffffffffffffff168173ffffffffffffffffffffffffffffffffffffffff16837f2f8788117e7eff1d82e926ec794901d17c78024a50270940304540a733656f0d60405160405180910390a45b5050565b6000612de883600001836131f9565b60001c905092915050565b612e1b81600a600085815260200190815260200160002060000161326690919063ffffffff16565b15612e8357612e2861297a565b73ffffffffffffffffffffffffffffffffffffffff168173ffffffffffffffffffffffffffffffffffffffff16837ff6391f5c32d9c69d2a47ea670b442974b53935d1edc7fd64eb21e047a839171b60405160405180910390a45b5050565b600080600080612e9a8660000186613296565b915091508160001c8160001c8090509350935050509250929050565b6000612ec9846000018460001b84613319565b60001c90509392505050565b6000612ee3826000016133aa565b9050919050565b6000612ef983600001836131f9565b60001c905092915050565b6000612f2c836000018373ffffffffffffffffffffffffffffffffffffffff1660001b6133bb565b905092915050565b612f3f848484612b2e565b612f4b848484846133de565b612f8a576040517f08c379a0000000000000000000000000000000000000000000000000000000008152600401612f8190615043565b60405180910390fd5b50505050565b60606000821415612fd8576040518060400160405280600181526020017f300000000000000000000000000000000000000000000000000000000000000081525090506130bb565b600082905060005b60008214613002578080600101915050600a8281612ffa57fe5b049150612fe0565b6060816040519080825280601f01601f1916602001820160405280156130375781602001600182028038833980820191505090505b50905060006001830390508593505b600084146130b357600a848161305857fe5b0660300160f81b8282806001900393508151811061307257fe5b60200101907effffffffffffffffffffffffffffffffffffffffffffffffffffffffffffff1916908160001a905350600a84816130ab57fe5b049350613046565b819450505050505b919050565b60006130ce826000016133aa565b9050919050565b6130df8383613542565b6130ec60008484846133de565b61312b576040517f08c379a000000000000000000000000000000000000000000000000000000000815260040161312290615043565b60405180910390fd5b505050565b6000613142836000018360001b6136d0565b905092915050565b600081600001805490509050919050565b505050565b6000613172836000018360001b6136f3565b905092915050565b600061318c836000018360001b6137db565b905092915050565b60006131c0846000018460001b8473ffffffffffffffffffffffffffffffffffffffff1660001b61384b565b90509392505050565b60006131f1836000018373ffffffffffffffffffffffffffffffffffffffff1660001b6137db565b905092915050565b600081836000018054905011613244576040517f08c379a000000000000000000000000000000000000000000000000000000000815260040161323b90615003565b60405180910390fd5b82600001828154811061325357fe5b9060005260206000200154905092915050565b600061328e836000018373ffffffffffffffffffffffffffffffffffffffff1660001b6136f3565b905092915050565b600080828460000180549050116132e2576040517f08c379a00000000000000000000000000000000000000000000000000000000081526004016132d990615143565b60405180910390fd5b60008460000184815481106132f357fe5b906000526020600020906002020190508060000154816001015492509250509250929050565b6000808460010160008581526020019081526020016000205490506000811415839061337b576040517f08c379a00000000000000000000000000000000000000000000000000000000081526004016133729190614fe1565b60405180910390fd5b5084600001600182038154811061338e57fe5b9060005260206000209060020201600101549150509392505050565b600081600001805490509050919050565b600080836001016000848152602001908152602001600020541415905092915050565b60006133ff8473ffffffffffffffffffffffffffffffffffffffff16613927565b61340c576001905061353a565b60606134d363150b7a0260e01b61342161297a565b8887876040516024016134379493929190614ecf565b604051602081830303815290604052907bffffffffffffffffffffffffffffffffffffffffffffffffffffffff19166020820180517bffffffffffffffffffffffffffffffffffffffffffffffffffffffff8381831617835250505050604051806060016040528060328152602001615651603291398773ffffffffffffffffffffffffffffffffffffffff1661393a9092919063ffffffff16565b90506000818060200190516134eb91908101906140a3565b905063150b7a0260e01b7bffffffffffffffffffffffffffffffffffffffffffffffffffffffff1916817bffffffffffffffffffffffffffffffffffffffffffffffffffffffff191614925050505b949350505050565b600073ffffffffffffffffffffffffffffffffffffffff168273ffffffffffffffffffffffffffffffffffffffff1614156135b2576040517f08c379a00000000000000000000000000000000000000000000000000000000081526004016135a990615163565b60405180910390fd5b6135bb8161295d565b156135fb576040517f08c379a00000000000000000000000000000000000000000000000000000000081526004016135f290615063565b60405180910390fd5b6136076000838361315b565b61365881600160008573ffffffffffffffffffffffffffffffffffffffff1673ffffffffffffffffffffffffffffffffffffffff16815260200190815260200160002061317a90919063ffffffff16565b5061366f818360026131949092919063ffffffff16565b50808273ffffffffffffffffffffffffffffffffffffffff16600073ffffffffffffffffffffffffffffffffffffffff167fddf252ad1be2c89b69c2b068fc378daa952ba7f163c4a11628f55a4df523b3ef60405160405180910390a45050565b600080836001016000848152602001908152602001600020541415905092915050565b600080836001016000848152602001908152602001600020549050600081146137cf576000600182039050600060018660000180549050039050600086600001828154811061373e57fe5b906000526020600020015490508087600001848154811061375b57fe5b906000526020600020018190555060018301876001016000838152602001908152602001600020819055508660000180548061379357fe5b600190038181906000526020600020016000905590558660010160008781526020019081526020016000206000905560019450505050506137d5565b60009150505b92915050565b60006137e783836133bb565b613840578260000182908060018154018082558091505060019003906000526020600020016000909190919091505582600001805490508360010160008481526020019081526020016000208190555060019050613845565b600090505b92915050565b60008084600101600085815260200190815260200160002054905060008114156138f257846000016040518060400160405280868152602001858152509080600181540180825580915050600190039060005260206000209060020201600090919091909150600082015181600001556020820151816001015550508460000180549050856001016000868152602001908152602001600020819055506001915050613920565b8285600001600183038154811061390557fe5b90600052602060002090600202016001018190555060009150505b9392505050565b600080823b905060008111915050919050565b60606139498484600085613952565b90509392505050565b606061395d85613927565b61399c576040517f08c379a000000000000000000000000000000000000000000000000000000000815260040161399390615223565b60405180910390fd5b600060608673ffffffffffffffffffffffffffffffffffffffff1685876040516139c69190614e4f565b60006040518083038185875af1925050503d8060008114613a03576040519150601f19603f3d011682016040523d82523d6000602084013e613a08565b606091505b50915091508115613a1d578092505050613a6d565b600081511115613a305780518082602001fd5b836040517f08c379a0000000000000000000000000000000000000000000000000000000008152600401613a649190614fe1565b60405180910390fd5b949350505050565b828054600181600116156101000203166002900490600052602060002090601f016020900481019282601f10613ab657805160ff1916838001178555613ae4565b82800160010185558215613ae4579182015b82811115613ae3578251825591602001919060010190613ac8565b5b509050613af19190613b51565b5090565b6040518061020001604052806010905b613b0d613b76565b815260200190600190039081613b055790505090565b6040518061020001604052806010905b613b3b613c1e565b815260200190600190039081613b335790505090565b613b7391905b80821115613b6f576000816000905550600101613b57565b5090565b90565b604051806101400160405280600063ffffffff16815260200160608152602001600063ffffffff1681526020016060815260200160006004811115613bb757fe5b8152602001600073ffffffffffffffffffffffffffffffffffffffff168152602001600073ffffffffffffffffffffffffffffffffffffffff168152602001600063ffffffff168152602001600063ffffffff168152602001600063ffffffff1681525090565b6040518060800160405280600073ffffffffffffffffffffffffffffffffffffffff16815260200160608152602001600063ffffffff168152602001600063ffffffff1681525090565b600081359050613c77816155c6565b92915050565b600081359050613c8c816155dd565b92915050565b600081359050613ca1816155f4565b92915050565b600081359050613cb68161560b565b92915050565b600081519050613ccb8161560b565b92915050565b600082601f830112613ce257600080fd5b8135613cf5613cf082615370565b615343565b91508082526020830160208301858383011115613d1157600080fd5b613d1c838284615566565b50505092915050565b600082601f830112613d3657600080fd5b8135613d49613d448261539c565b615343565b91508082526020830160208301858383011115613d6557600080fd5b613d70838284615566565b50505092915050565b600081359050613d8881615622565b92915050565b600081359050613d9d81615639565b92915050565b600060208284031215613db557600080fd5b6000613dc384828501613c68565b91505092915050565b60008060408385031215613ddf57600080fd5b6000613ded85828601613c68565b9250506020613dfe85828601613c68565b9150509250929050565b600080600060608486031215613e1d57600080fd5b6000613e2b86828701613c68565b9350506020613e3c86828701613c68565b9250506040613e4d86828701613d79565b9150509250925092565b60008060008060808587031215613e6d57600080fd5b6000613e7b87828801613c68565b9450506020613e8c87828801613c68565b9350506040613e9d87828801613d79565b925050606085013567ffffffffffffffff811115613eba57600080fd5b613ec687828801613cd1565b91505092959194509250565b60008060408385031215613ee557600080fd5b6000613ef385828601613c68565b9250506020613f0485828601613c7d565b9150509250929050565b60008060408385031215613f2157600080fd5b6000613f2f85828601613c68565b9250506020613f4085828601613d79565b9150509250929050565b600080600080600060a08688031215613f6257600080fd5b6000613f7088828901613c68565b9550506020613f8188828901613d8e565b945050604086013567ffffffffffffffff811115613f9e57600080fd5b613faa88828901613d25565b9350506060613fbb88828901613d8e565b9250506080613fcc88828901613d8e565b9150509295509295909350565b600060208284031215613feb57600080fd5b6000613ff984828501613c92565b91505092915050565b6000806040838503121561401557600080fd5b600061402385828601613c92565b925050602061403485828601613c68565b9150509250929050565b6000806040838503121561405157600080fd5b600061405f85828601613c92565b925050602061407085828601613d79565b9150509250929050565b60006020828403121561408c57600080fd5b600061409a84828501613ca7565b91505092915050565b6000602082840312156140b557600080fd5b60006140c384828501613cbc565b91505092915050565b6000806000606084860312156140e157600080fd5b600084013567ffffffffffffffff8111156140fb57600080fd5b61410786828701613d25565b935050602061411886828701613d8e565b925050604084013567ffffffffffffffff81111561413557600080fd5b61414186828701613d25565b9150509250925092565b60006020828403121561415d57600080fd5b600061416b84828501613d79565b91505092915050565b60006020828403121561418657600080fd5b600061419484828501613d8e565b91505092915050565b600080604083850312156141b057600080fd5b60006141be85828601613d8e565b92505060206141cf85828601613c68565b9150509250929050565b600080604083850312156141ec57600080fd5b60006141fa85828601613d8e565b925050602061420b85828601613d8e565b9150509250929050565b60006142218383614cde565b905092915050565b60006142358383614dbf565b905092915050565b614246816154b3565b82525050565b614255816154a1565b82525050565b614264816154a1565b82525050565b6000614275826153f1565b61427f8185615442565b935083602082028501614291856153c8565b8060005b858110156142cd57848403895281516142ae8582614215565b94506142b983615428565b925060208a01995050600181019050614295565b50829750879550505050505092915050565b60006142ea826153fc565b6142f4818561544d565b935083602082028501614306856153d2565b8060005b8581101561434257848403895281516143238582614229565b945061432e83615435565b925060208a0199505060018101905061430a565b50829750879550505050505092915050565b61435d816154c5565b82525050565b61436c816154d1565b82525050565b600061437d82615407565b6143878185615458565b9350614397818560208601615575565b6143a0816155a8565b840191505092915050565b60006143b682615407565b6143c08185615469565b93506143d0818560208601615575565b80840191505092915050565b6143e581615554565b82525050565b6143f481615554565b82525050565b60006144058261541d565b61440f8185615485565b935061441f818560208601615575565b614428816155a8565b840191505092915050565b600061443e8261541d565b6144488185615496565b9350614458818560208601615575565b80840191505092915050565b600061446f82615412565b6144798185615474565b9350614489818560208601615575565b614492816155a8565b840191505092915050565b60006144a882615412565b6144b28185615485565b93506144c2818560208601615575565b6144cb816155a8565b840191505092915050565b6000815460018116600081146144f357600181146145185761455c565b607f60028304166145048187615496565b955060ff198316865280860193505061455c565b600282046145268187615496565b9550614531856153dc565b60005b8281101561455357815481890152600182019150602081019050614534565b82880195505050505b505092915050565b6000614571602283615485565b91507f456e756d657261626c655365743a20696e646578206f7574206f6620626f756e60008301527f64730000000000000000000000000000000000000000000000000000000000006020830152604082019050919050565b60006145d7602f83615485565b91507f416363657373436f6e74726f6c3a2073656e646572206d75737420626520616e60008301527f2061646d696e20746f206772616e7400000000000000000000000000000000006020830152604082019050919050565b600061463d603283615485565b91507f4552433732313a207472616e7366657220746f206e6f6e20455243373231526560008301527f63656976657220696d706c656d656e74657200000000000000000000000000006020830152604082019050919050565b60006146a3601c83615485565b91507f4552433732313a20746f6b656e20616c7265616479206d696e746564000000006000830152602082019050919050565b60006146e3602483615485565b91507f4552433732313a207472616e7366657220746f20746865207a65726f2061646460008301527f72657373000000000000000000000000000000000000000000000000000000006020830152604082019050919050565b6000614749601983615485565b91507f4552433732313a20617070726f766520746f2063616c6c6572000000000000006000830152602082019050919050565b6000614789602c83615485565b91507f4552433732313a206f70657261746f7220717565727920666f72206e6f6e657860008301527f697374656e7420746f6b656e00000000000000000000000000000000000000006020830152604082019050919050565b60006147ef603083615485565b91507f416363657373436f6e74726f6c3a2073656e646572206d75737420626520616e60008301527f2061646d696e20746f207265766f6b65000000000000000000000000000000006020830152604082019050919050565b6000614855603883615485565b91507f4552433732313a20617070726f76652063616c6c6572206973206e6f74206f7760008301527f6e6572206e6f7220617070726f76656420666f7220616c6c00000000000000006020830152604082019050919050565b60006148bb600583615496565b91507f444f4e4f520000000000000000000000000000000000000000000000000000006000830152600582019050919050565b60006148fb602a83615485565b91507f4552433732313a2062616c616e636520717565727920666f7220746865207a6560008301527f726f2061646472657373000000000000000000000000000000000000000000006020830152604082019050919050565b6000614961602283615485565b91507f456e756d657261626c654d61703a20696e646578206f7574206f6620626f756e60008301527f64730000000000000000000000000000000000000000000000000000000000006020830152604082019050919050565b60006149c7602083615485565b91507f4552433732313a206d696e7420746f20746865207a65726f20616464726573736000830152602082019050919050565b6000614a07602c83615485565b91507f4552433732313a20617070726f76656420717565727920666f72206e6f6e657860008301527f697374656e7420746f6b656e00000000000000000000000000000000000000006020830152604082019050919050565b6000614a6d600883615496565b91507f52454345495645520000000000000000000000000000000000000000000000006000830152600882019050919050565b6000614aad602983615485565b91507f4552433732313a207472616e73666572206f6620746f6b656e2074686174206960008301527f73206e6f74206f776e00000000000000000000000000000000000000000000006020830152604082019050919050565b6000614b13602f83615485565b91507f4552433732314d657461646174613a2055524920717565727920666f72206e6f60008301527f6e6578697374656e7420746f6b656e00000000000000000000000000000000006020830152604082019050919050565b6000614b79602183615485565b91507f4552433732313a20617070726f76616c20746f2063757272656e74206f776e6560008301527f72000000000000000000000000000000000000000000000000000000000000006020830152604082019050919050565b6000614bdf603183615485565b91507f4552433732313a207472616e736665722063616c6c6572206973206e6f74206f60008301527f776e6572206e6f7220617070726f7665640000000000000000000000000000006020830152604082019050919050565b6000614c45601d83615485565b91507f416464726573733a2063616c6c20746f206e6f6e2d636f6e74726163740000006000830152602082019050919050565b6000614c85602f83615485565b91507f416363657373436f6e74726f6c3a2063616e206f6e6c792072656e6f756e636560008301527f20726f6c657320666f722073656c6600000000000000000000000000000000006020830152604082019050919050565b600061014083016000830151614cf76000860182614e31565b5060208301518482036020860152614d0f8282614464565b9150506040830151614d246040860182614e31565b5060608301518482036060860152614d3c8282614464565b9150506080830151614d5160808601826143dc565b5060a0830151614d6460a086018261424c565b5060c0830151614d7760c086018261424c565b5060e0830151614d8a60e0860182614e31565b50610100830151614d9f610100860182614e31565b50610120830151614db4610120860182614e31565b508091505092915050565b6000608083016000830151614dd7600086018261424c565b5060208301518482036020860152614def8282614464565b9150506040830151614e046040860182614e31565b506060830151614e176060860182614e31565b508091505092915050565b614e2b8161553a565b82525050565b614e3a81615544565b82525050565b614e4981615544565b82525050565b6000614e5b82846143ab565b915081905092915050565b6000614e7282856144d6565b9150614e7e8284614433565b91508190509392505050565b6000614e95826148ae565b9150819050919050565b6000614eaa82614a60565b9150819050919050565b6000602082019050614ec9600083018461425b565b92915050565b6000608082019050614ee4600083018761423d565b614ef1602083018661425b565b614efe6040830185614e22565b8181036060830152614f108184614372565b905095945050505050565b6000608082019050614f30600083018761425b565b8181036020830152614f42818661449d565b9050614f516040830185614e40565b614f5e6060830184614e40565b95945050505050565b60006020820190508181036000830152614f81818461426a565b905092915050565b60006020820190508181036000830152614fa381846142df565b905092915050565b6000602082019050614fc06000830184614354565b92915050565b6000602082019050614fdb6000830184614363565b92915050565b60006020820190508181036000830152614ffb81846143fa565b905092915050565b6000602082019050818103600083015261501c81614564565b9050919050565b6000602082019050818103600083015261503c816145ca565b9050919050565b6000602082019050818103600083015261505c81614630565b9050919050565b6000602082019050818103600083015261507c81614696565b9050919050565b6000602082019050818103600083015261509c816146d6565b9050919050565b600060208201905081810360008301526150bc8161473c565b9050919050565b600060208201905081810360008301526150dc8161477c565b9050919050565b600060208201905081810360008301526150fc816147e2565b9050919050565b6000602082019050818103600083015261511c81614848565b9050919050565b6000602082019050818103600083015261513c816148ee565b9050919050565b6000602082019050818103600083015261515c81614954565b9050919050565b6000602082019050818103600083015261517c816149ba565b9050919050565b6000602082019050818103600083015261519c816149fa565b9050919050565b600060208201905081810360008301526151bc81614aa0565b9050919050565b600060208201905081810360008301526151dc81614b06565b9050919050565b600060208201905081810360008301526151fc81614b6c565b9050919050565b6000602082019050818103600083015261521c81614bd2565b9050919050565b6000602082019050818103600083015261523c81614c38565b9050919050565b6000602082019050818103600083015261525c81614c78565b9050919050565b60006020820190506152786000830184614e22565b92915050565b60006020820190506152936000830184614e40565b92915050565b6000610140820190506152af600083018d614e40565b81810360208301526152c1818c61449d565b90506152d0604083018b614e40565b81810360608301526152e2818a61449d565b90506152f160808301896143eb565b6152fe60a083018861425b565b61530b60c083018761425b565b61531860e0830186614e40565b615326610100830185614e40565b615334610120830184614e40565b9b9a5050505050505050505050565b6000604051905081810181811067ffffffffffffffff8211171561536657600080fd5b8060405250919050565b600067ffffffffffffffff82111561538757600080fd5b601f19601f8301169050602081019050919050565b600067ffffffffffffffff8211156153b357600080fd5b601f19601f8301169050602081019050919050565b6000819050919050565b6000819050919050565b60008190508160005260206000209050919050565b600060109050919050565b600060109050919050565b600081519050919050565b600081519050919050565b600081519050919050565b6000602082019050919050565b6000602082019050919050565b600081905092915050565b600081905092915050565b600082825260208201905092915050565b600081905092915050565b600082825260208201905092915050565b600082825260208201905092915050565b600081905092915050565b60006154ac8261551a565b9050919050565b60006154be8261551a565b9050919050565b60008115159050919050565b6000819050919050565b60007fffffffff0000000000000000000000000000000000000000000000000000000082169050919050565b6000819050615515826155b9565b919050565b600073ffffffffffffffffffffffffffffffffffffffff82169050919050565b6000819050919050565b600063ffffffff82169050919050565b600061555f82615507565b9050919050565b82818337600083830152505050565b60005b83811015615593578082015181840152602081019050615578565b838111156155a2576000848401525b50505050565b6000601f19601f8301169050919050565b600581106155c357fe5b50565b6155cf816154a1565b81146155da57600080fd5b50565b6155e6816154c5565b81146155f157600080fd5b50565b6155fd816154d1565b811461560857600080fd5b50565b615614816154db565b811461561f57600080fd5b50565b61562b8161553a565b811461563657600080fd5b50565b61564281615544565b811461564d57600080fd5b5056fe4552433732313a207472616e7366657220746f206e6f6e20455243373231526563656976657220696d706c656d656e7465724552433732313a206f776e657220717565727920666f72206e6f6e6578697374656e7420746f6b656ea264697066735822122053fe6e42ace01045e75bad9029f52c94e54dccc563f88d056bc4b636575fbd8c64736f6c63430006020033",
  "source": "// SPDX-License-Identifier: MIT\npragma solidity ^0.6.2;\npragma experimental ABIEncoderV2;\n\nimport \"@openzeppelin/contracts/token/ERC721/ERC721.sol\";\nimport \"@openzeppelin/contracts/access/AccessControl.sol\";\n\ncontract AssetDonation is ERC721, AccessControl {\n    uint32 lastAssetId;\n    uint32 lastRequestId;\n    uint32 constant maxNoOfReqsPerAsst = 3;\n\n    mapping(address => bool) public donors;\n    mapping(address => bool) public receivers;\n\n    constructor() public ERC721(\"MyToken\", \"MTS\") AccessControl() {\n        lastAssetId = 0;\n        lastRequestId = 0;\n    }\n\n    bytes32 public constant DONOR = keccak256(\"DONOR\");\n    bytes32 public constant RECEIVER = keccak256(\"RECEIVER\");\n\n    enum Status {Free, Requested, Donated, Inactive, Burned}\n\n    // struct AssetType{\n    //   string assetType;\n    // }\n\n    struct Asset {\n        uint32 assetId; \n        string assetDescription;\n        uint32 availablityDate;\n        string location;\n        Status status;\n        address owner;\n        address recipient;\n        uint32 donatedDateFrom;\n        uint32 donatedDateTo;\n        //mapping (uint=>Request) requestList;\n        //Request[maxNoOfReqsPerAsst] requestList;\n        uint32 requestCount;\n        //   AssetType assetType;\n    }\n\n    mapping(uint32 => Asset) public donationList;\n\n    struct Request {\n        address receiver;\n        string requestDescription;\n        uint32 requestDateFrom;\n        uint32 requestDateTo;\n        //   AssetType assetType;\n    }\n    mapping(uint32 => mapping(uint32 => Request)) public assetRequestList;\n\n    modifier isDonor(address donorAddress) {\n        require(hasRole(DONOR, donorAddress));\n        _;\n    }\n\n    function addDonor() public {\n        donors[msg.sender] = false;\n        approveDonor(msg.sender);\n    }\n\n    function approveDonor(address donorAddress) public {\n        grantRole(DONOR, donorAddress);\n        donors[donorAddress] = true;\n    }\n\n    function addAsset(\n        string memory assetDescription,\n        uint32 availablityDate,\n        string memory location /*isDonor(msg.sender)*/\n    ) public {\n        //Request[maxNoOfReqsPerAsst] storage requests;\n        //mapping(uint=>Request) memory\n        uint32 assetId = mintToken(msg.sender);\n        donationList[assetId] = Asset({\n            assetId:assetId,\n            assetDescription: assetDescription,\n            availablityDate: availablityDate,\n            location: location,\n            status: Status.Free,\n            owner: msg.sender,\n            recipient: address(0),\n            donatedDateFrom: 0,\n            donatedDateTo: 0, //requestList: requests,\n            requestCount: 0\n        });\n    }\n\n    function getDonations() public view returns (Asset[16] memory) {\n        uint32 tokenCount = uint32(balanceOf(msg.sender));\n        uint32 index = 0;\n        uint32 tokenId;\n        Asset[16] memory assetList;\n        if (tokenCount <= 16) {\n            index = tokenCount;\n        } else {\n            index = 16;\n        }\n        for (uint32 i = 0; i < index; i++) {\n            tokenId = uint32(tokenOfOwnerByIndex(msg.sender, i));\n            assetList[i] = donationList[tokenId];\n        }\n        return assetList;\n    }\n\n    function getAllDonations() public view returns (Asset[16] memory) {\n        uint32 index = 0;\n        Asset[16] memory assetList;\n        if (lastAssetId <= 16) {\n            index = lastAssetId;\n        } else {\n            index = 16;\n        }\n        for (uint32 i = 0; i < index; i++) {\n            assetList[i] = donationList[i];\n        }\n        return assetList;\n    }\n\n    function getDonationRequests(uint32 assetId)\n        public\n        view\n        returns (Request[16] memory)\n    {\n        Request[16] memory requestArray;\n\n\n            mapping(uint32 => Request) storage requestMapping\n         = assetRequestList[assetId];\n        for (uint32 i = 0; i < donationList[assetId].requestCount; i++) {\n            requestArray[i] = requestMapping[i];\n        }\n        return requestArray;\n    }\n\n    function mintToken(address assetOwner) public returns (uint32) {\n        _safeMint(assetOwner, lastAssetId);\n        lastAssetId++;\n        return lastAssetId;\n    }\n\n    modifier assetIsFree(uint32 assetId) {\n        require(donationList[assetId].recipient == address(0));\n        _;\n    }\n\n    function donateAsset(uint32 assetId, address recipientAddress)\n        public\n        /*isDonor(msg.sender) isRequester(recipientAddress)*/\n        assetIsFree(assetId)\n    {\n        donationList[assetId].recipient = recipientAddress;\n        donationList[assetId].status = Status.Donated;\n    }\n\n    function addReceiver() public {\n        receivers[msg.sender] = false;\n    }\n\n    function approveReceiver(address receiverAddress) public {\n        grantRole(RECEIVER, receiverAddress);\n        receivers[receiverAddress] = true;\n    }\n\n    function requestAsset(\n        address receiver,\n        uint32 assetId,\n        string memory requestDescription,\n        uint32 requestDateFrom,\n        uint32 requestDateTo\n    ) public {\n        Asset storage requestedItem = donationList[assetId];\n        //if (requestedItem.requestCount < maxNoOfReqsPerAsst) {\n        assetRequestList[assetId][requestedItem.requestCount] = Request({\n            receiver: receiver,\n            requestDescription: requestDescription,\n            requestDateFrom: requestDateFrom,\n            requestDateTo: requestDateTo\n        });\n        donationList[assetId].status = Status.Requested;\n        requestedItem.requestCount++;\n        //}\n    }\n\n    // function addAsset(address assetOwner, string memory ownerName,AssetType memory assetType) isDonor public{\n    //   _safeMint(assetOwner, lastAssetId);\n    //   donationList[lastAssetId]=Asset({ownerName:ownerName,status:Status.Free,recipient:address(0),assetType:assetType});\n    //   lastAssetId ++;\n    // }\n\n    // struct AssetRequest{\n    //   address recipient;\n    //   AssetType assetType;\n    // }\n\n    // mapping (uint => AssetRequest) public requestList;\n\n    // modifier isRecipient(address recipientAddress){\n    //   _;\n    // }\n    // modifier isDonor(address donorAddress){\n    //   _;\n    // }\n\n    // function requestAsset(address recipientAddress, AssetType memory assetType) isRecipient public{\n    //   requestList[lastRequestId] = AssetRequest({recipientAddress:recipientAddress,assetType:assetType});\n    // }\n}\n",
  "sourcePath": "/home/fatemeh/Desktop/Consensys Course/assetdonation/AssetDonation/contracts/AssetDonation.sol",
  "compiler": {
    "name": "solc",
    "version": "0.6.2+commit.bacdbe57.Emscripten.clang"
  },
  "schemaVersion": "3.3.1",
  "updatedAt": "2020-12-02T10:48:21.459Z",
  "networkType": "ethereum",
  "devdoc": {
    "methods": {
      "approve(address,uint256)": {
        "details": "See {IERC721-approve}."
      },
      "balanceOf(address)": {
        "details": "See {IERC721-balanceOf}."
      },
      "baseURI()": {
        "details": "Returns the base URI set via {_setBaseURI}. This will be automatically added as a prefix in {tokenURI} to each token's URI, or to the token ID if no specific URI is set for that token ID."
      },
      "getApproved(uint256)": {
        "details": "See {IERC721-getApproved}."
      },
      "getRoleAdmin(bytes32)": {
        "details": "Returns the admin role that controls `role`. See {grantRole} and {revokeRole}.     * To change a role's admin, use {_setRoleAdmin}."
      },
      "getRoleMember(bytes32,uint256)": {
        "details": "Returns one of the accounts that have `role`. `index` must be a value between 0 and {getRoleMemberCount}, non-inclusive.     * Role bearers are not sorted in any particular way, and their ordering may change at any point.     * WARNING: When using {getRoleMember} and {getRoleMemberCount}, make sure you perform all queries on the same block. See the following https://forum.openzeppelin.com/t/iterating-over-elements-on-enumerableset-in-openzeppelin-contracts/2296[forum post] for more information."
      },
      "getRoleMemberCount(bytes32)": {
        "details": "Returns the number of accounts that have `role`. Can be used together with {getRoleMember} to enumerate all bearers of a role."
      },
      "grantRole(bytes32,address)": {
        "details": "Grants `role` to `account`.     * If `account` had not been already granted `role`, emits a {RoleGranted} event.     * Requirements:     * - the caller must have ``role``'s admin role."
      },
      "hasRole(bytes32,address)": {
        "details": "Returns `true` if `account` has been granted `role`."
      },
      "isApprovedForAll(address,address)": {
        "details": "See {IERC721-isApprovedForAll}."
      },
      "name()": {
        "details": "See {IERC721Metadata-name}."
      },
      "ownerOf(uint256)": {
        "details": "See {IERC721-ownerOf}."
      },
      "renounceRole(bytes32,address)": {
        "details": "Revokes `role` from the calling account.     * Roles are often managed via {grantRole} and {revokeRole}: this function's purpose is to provide a mechanism for accounts to lose their privileges if they are compromised (such as when a trusted device is misplaced).     * If the calling account had been granted `role`, emits a {RoleRevoked} event.     * Requirements:     * - the caller must be `account`."
      },
      "revokeRole(bytes32,address)": {
        "details": "Revokes `role` from `account`.     * If `account` had been granted `role`, emits a {RoleRevoked} event.     * Requirements:     * - the caller must have ``role``'s admin role."
      },
      "safeTransferFrom(address,address,uint256)": {
        "details": "See {IERC721-safeTransferFrom}."
      },
      "safeTransferFrom(address,address,uint256,bytes)": {
        "details": "See {IERC721-safeTransferFrom}."
      },
      "setApprovalForAll(address,bool)": {
        "details": "See {IERC721-setApprovalForAll}."
      },
      "supportsInterface(bytes4)": {
        "details": "See {IERC165-supportsInterface}.     * Time complexity O(1), guaranteed to always use less than 30 000 gas."
      },
      "symbol()": {
        "details": "See {IERC721Metadata-symbol}."
      },
      "tokenByIndex(uint256)": {
        "details": "See {IERC721Enumerable-tokenByIndex}."
      },
      "tokenOfOwnerByIndex(address,uint256)": {
        "details": "See {IERC721Enumerable-tokenOfOwnerByIndex}."
      },
      "tokenURI(uint256)": {
        "details": "See {IERC721Metadata-tokenURI}."
      },
      "totalSupply()": {
        "details": "See {IERC721Enumerable-totalSupply}."
      },
      "transferFrom(address,address,uint256)": {
        "details": "See {IERC721-transferFrom}."
      }
    }
  },
  "userdoc": {
    "methods": {}
  }
}