{
  "contractName": "AssetDonation",
  "abi": [
    {
      "inputs": [],
      "stateMutability": "nonpayable",
      "type": "constructor"
    },
    {
      "anonymous": false,
      "inputs": [
        {
          "indexed": true,
          "internalType": "address",
          "name": "owner",
          "type": "address"
        },
        {
          "indexed": true,
          "internalType": "address",
          "name": "approved",
          "type": "address"
        },
        {
          "indexed": true,
          "internalType": "uint256",
          "name": "tokenId",
          "type": "uint256"
        }
      ],
      "name": "Approval",
      "type": "event"
    },
    {
      "anonymous": false,
      "inputs": [
        {
          "indexed": true,
          "internalType": "address",
          "name": "owner",
          "type": "address"
        },
        {
          "indexed": true,
          "internalType": "address",
          "name": "operator",
          "type": "address"
        },
        {
          "indexed": false,
          "internalType": "bool",
          "name": "approved",
          "type": "bool"
        }
      ],
      "name": "ApprovalForAll",
      "type": "event"
    },
    {
      "anonymous": false,
      "inputs": [
        {
          "indexed": true,
          "internalType": "bytes32",
          "name": "role",
          "type": "bytes32"
        },
        {
          "indexed": true,
          "internalType": "bytes32",
          "name": "previousAdminRole",
          "type": "bytes32"
        },
        {
          "indexed": true,
          "internalType": "bytes32",
          "name": "newAdminRole",
          "type": "bytes32"
        }
      ],
      "name": "RoleAdminChanged",
      "type": "event"
    },
    {
      "anonymous": false,
      "inputs": [
        {
          "indexed": true,
          "internalType": "bytes32",
          "name": "role",
          "type": "bytes32"
        },
        {
          "indexed": true,
          "internalType": "address",
          "name": "account",
          "type": "address"
        },
        {
          "indexed": true,
          "internalType": "address",
          "name": "sender",
          "type": "address"
        }
      ],
      "name": "RoleGranted",
      "type": "event"
    },
    {
      "anonymous": false,
      "inputs": [
        {
          "indexed": true,
          "internalType": "bytes32",
          "name": "role",
          "type": "bytes32"
        },
        {
          "indexed": true,
          "internalType": "address",
          "name": "account",
          "type": "address"
        },
        {
          "indexed": true,
          "internalType": "address",
          "name": "sender",
          "type": "address"
        }
      ],
      "name": "RoleRevoked",
      "type": "event"
    },
    {
      "anonymous": false,
      "inputs": [
        {
          "indexed": true,
          "internalType": "address",
          "name": "from",
          "type": "address"
        },
        {
          "indexed": true,
          "internalType": "address",
          "name": "to",
          "type": "address"
        },
        {
          "indexed": true,
          "internalType": "uint256",
          "name": "tokenId",
          "type": "uint256"
        }
      ],
      "name": "Transfer",
      "type": "event"
    },
    {
      "inputs": [],
      "name": "DEFAULT_ADMIN_ROLE",
      "outputs": [
        {
          "internalType": "bytes32",
          "name": "",
          "type": "bytes32"
        }
      ],
      "stateMutability": "view",
      "type": "function",
      "constant": true
    },
    {
      "inputs": [],
      "name": "DONOR",
      "outputs": [
        {
          "internalType": "bytes32",
          "name": "",
          "type": "bytes32"
        }
      ],
      "stateMutability": "view",
      "type": "function",
      "constant": true
    },
    {
      "inputs": [],
      "name": "RECEIVER",
      "outputs": [
        {
          "internalType": "bytes32",
          "name": "",
          "type": "bytes32"
        }
      ],
      "stateMutability": "view",
      "type": "function",
      "constant": true
    },
    {
      "inputs": [
        {
          "internalType": "address",
          "name": "to",
          "type": "address"
        },
        {
          "internalType": "uint256",
          "name": "tokenId",
          "type": "uint256"
        }
      ],
      "name": "approve",
      "outputs": [],
      "stateMutability": "nonpayable",
      "type": "function"
    },
    {
      "inputs": [
        {
          "internalType": "address",
          "name": "owner",
          "type": "address"
        }
      ],
      "name": "balanceOf",
      "outputs": [
        {
          "internalType": "uint256",
          "name": "",
          "type": "uint256"
        }
      ],
      "stateMutability": "view",
      "type": "function",
      "constant": true
    },
    {
      "inputs": [],
      "name": "baseURI",
      "outputs": [
        {
          "internalType": "string",
          "name": "",
          "type": "string"
        }
      ],
      "stateMutability": "view",
      "type": "function",
      "constant": true
    },
    {
      "inputs": [
        {
          "internalType": "uint256",
          "name": "",
          "type": "uint256"
        }
      ],
      "name": "donationList",
      "outputs": [
        {
          "internalType": "string",
          "name": "assetDescription",
          "type": "string"
        },
        {
          "internalType": "uint256",
          "name": "availablityDate",
          "type": "uint256"
        },
        {
          "internalType": "string",
          "name": "location",
          "type": "string"
        },
        {
          "internalType": "enum AssetDonation.Status",
          "name": "status",
          "type": "uint8"
        },
        {
          "internalType": "address",
          "name": "owner",
          "type": "address"
        },
        {
          "internalType": "address",
          "name": "recipient",
          "type": "address"
        },
        {
          "internalType": "uint256",
          "name": "donatedDateFrom",
          "type": "uint256"
        },
        {
          "internalType": "uint256",
          "name": "donatedDateTo",
          "type": "uint256"
        },
        {
          "internalType": "uint256",
          "name": "requestCount",
          "type": "uint256"
        }
      ],
      "stateMutability": "view",
      "type": "function",
      "constant": true
    },
    {
      "inputs": [
        {
          "internalType": "address",
          "name": "",
          "type": "address"
        }
      ],
      "name": "donors",
      "outputs": [
        {
          "internalType": "bool",
          "name": "",
          "type": "bool"
        }
      ],
      "stateMutability": "view",
      "type": "function",
      "constant": true
    },
    {
      "inputs": [
        {
          "internalType": "uint256",
          "name": "tokenId",
          "type": "uint256"
        }
      ],
      "name": "getApproved",
      "outputs": [
        {
          "internalType": "address",
          "name": "",
          "type": "address"
        }
      ],
      "stateMutability": "view",
      "type": "function",
      "constant": true
    },
    {
      "inputs": [
        {
          "internalType": "bytes32",
          "name": "role",
          "type": "bytes32"
        }
      ],
      "name": "getRoleAdmin",
      "outputs": [
        {
          "internalType": "bytes32",
          "name": "",
          "type": "bytes32"
        }
      ],
      "stateMutability": "view",
      "type": "function",
      "constant": true
    },
    {
      "inputs": [
        {
          "internalType": "bytes32",
          "name": "role",
          "type": "bytes32"
        },
        {
          "internalType": "uint256",
          "name": "index",
          "type": "uint256"
        }
      ],
      "name": "getRoleMember",
      "outputs": [
        {
          "internalType": "address",
          "name": "",
          "type": "address"
        }
      ],
      "stateMutability": "view",
      "type": "function",
      "constant": true
    },
    {
      "inputs": [
        {
          "internalType": "bytes32",
          "name": "role",
          "type": "bytes32"
        }
      ],
      "name": "getRoleMemberCount",
      "outputs": [
        {
          "internalType": "uint256",
          "name": "",
          "type": "uint256"
        }
      ],
      "stateMutability": "view",
      "type": "function",
      "constant": true
    },
    {
      "inputs": [
        {
          "internalType": "bytes32",
          "name": "role",
          "type": "bytes32"
        },
        {
          "internalType": "address",
          "name": "account",
          "type": "address"
        }
      ],
      "name": "grantRole",
      "outputs": [],
      "stateMutability": "nonpayable",
      "type": "function"
    },
    {
      "inputs": [
        {
          "internalType": "bytes32",
          "name": "role",
          "type": "bytes32"
        },
        {
          "internalType": "address",
          "name": "account",
          "type": "address"
        }
      ],
      "name": "hasRole",
      "outputs": [
        {
          "internalType": "bool",
          "name": "",
          "type": "bool"
        }
      ],
      "stateMutability": "view",
      "type": "function",
      "constant": true
    },
    {
      "inputs": [
        {
          "internalType": "address",
          "name": "owner",
          "type": "address"
        },
        {
          "internalType": "address",
          "name": "operator",
          "type": "address"
        }
      ],
      "name": "isApprovedForAll",
      "outputs": [
        {
          "internalType": "bool",
          "name": "",
          "type": "bool"
        }
      ],
      "stateMutability": "view",
      "type": "function",
      "constant": true
    },
    {
      "inputs": [],
      "name": "name",
      "outputs": [
        {
          "internalType": "string",
          "name": "",
          "type": "string"
        }
      ],
      "stateMutability": "view",
      "type": "function",
      "constant": true
    },
    {
      "inputs": [
        {
          "internalType": "uint256",
          "name": "tokenId",
          "type": "uint256"
        }
      ],
      "name": "ownerOf",
      "outputs": [
        {
          "internalType": "address",
          "name": "",
          "type": "address"
        }
      ],
      "stateMutability": "view",
      "type": "function",
      "constant": true
    },
    {
      "inputs": [
        {
          "internalType": "address",
          "name": "",
          "type": "address"
        }
      ],
      "name": "receivers",
      "outputs": [
        {
          "internalType": "bool",
          "name": "",
          "type": "bool"
        }
      ],
      "stateMutability": "view",
      "type": "function",
      "constant": true
    },
    {
      "inputs": [
        {
          "internalType": "bytes32",
          "name": "role",
          "type": "bytes32"
        },
        {
          "internalType": "address",
          "name": "account",
          "type": "address"
        }
      ],
      "name": "renounceRole",
      "outputs": [],
      "stateMutability": "nonpayable",
      "type": "function"
    },
    {
      "inputs": [
        {
          "internalType": "bytes32",
          "name": "role",
          "type": "bytes32"
        },
        {
          "internalType": "address",
          "name": "account",
          "type": "address"
        }
      ],
      "name": "revokeRole",
      "outputs": [],
      "stateMutability": "nonpayable",
      "type": "function"
    },
    {
      "inputs": [
        {
          "internalType": "address",
          "name": "from",
          "type": "address"
        },
        {
          "internalType": "address",
          "name": "to",
          "type": "address"
        },
        {
          "internalType": "uint256",
          "name": "tokenId",
          "type": "uint256"
        }
      ],
      "name": "safeTransferFrom",
      "outputs": [],
      "stateMutability": "nonpayable",
      "type": "function"
    },
    {
      "inputs": [
        {
          "internalType": "address",
          "name": "from",
          "type": "address"
        },
        {
          "internalType": "address",
          "name": "to",
          "type": "address"
        },
        {
          "internalType": "uint256",
          "name": "tokenId",
          "type": "uint256"
        },
        {
          "internalType": "bytes",
          "name": "_data",
          "type": "bytes"
        }
      ],
      "name": "safeTransferFrom",
      "outputs": [],
      "stateMutability": "nonpayable",
      "type": "function"
    },
    {
      "inputs": [
        {
          "internalType": "address",
          "name": "operator",
          "type": "address"
        },
        {
          "internalType": "bool",
          "name": "approved",
          "type": "bool"
        }
      ],
      "name": "setApprovalForAll",
      "outputs": [],
      "stateMutability": "nonpayable",
      "type": "function"
    },
    {
      "inputs": [
        {
          "internalType": "bytes4",
          "name": "interfaceId",
          "type": "bytes4"
        }
      ],
      "name": "supportsInterface",
      "outputs": [
        {
          "internalType": "bool",
          "name": "",
          "type": "bool"
        }
      ],
      "stateMutability": "view",
      "type": "function",
      "constant": true
    },
    {
      "inputs": [],
      "name": "symbol",
      "outputs": [
        {
          "internalType": "string",
          "name": "",
          "type": "string"
        }
      ],
      "stateMutability": "view",
      "type": "function",
      "constant": true
    },
    {
      "inputs": [
        {
          "internalType": "uint256",
          "name": "index",
          "type": "uint256"
        }
      ],
      "name": "tokenByIndex",
      "outputs": [
        {
          "internalType": "uint256",
          "name": "",
          "type": "uint256"
        }
      ],
      "stateMutability": "view",
      "type": "function",
      "constant": true
    },
    {
      "inputs": [
        {
          "internalType": "address",
          "name": "owner",
          "type": "address"
        },
        {
          "internalType": "uint256",
          "name": "index",
          "type": "uint256"
        }
      ],
      "name": "tokenOfOwnerByIndex",
      "outputs": [
        {
          "internalType": "uint256",
          "name": "",
          "type": "uint256"
        }
      ],
      "stateMutability": "view",
      "type": "function",
      "constant": true
    },
    {
      "inputs": [
        {
          "internalType": "uint256",
          "name": "tokenId",
          "type": "uint256"
        }
      ],
      "name": "tokenURI",
      "outputs": [
        {
          "internalType": "string",
          "name": "",
          "type": "string"
        }
      ],
      "stateMutability": "view",
      "type": "function",
      "constant": true
    },
    {
      "inputs": [],
      "name": "totalSupply",
      "outputs": [
        {
          "internalType": "uint256",
          "name": "",
          "type": "uint256"
        }
      ],
      "stateMutability": "view",
      "type": "function",
      "constant": true
    },
    {
      "inputs": [
        {
          "internalType": "address",
          "name": "from",
          "type": "address"
        },
        {
          "internalType": "address",
          "name": "to",
          "type": "address"
        },
        {
          "internalType": "uint256",
          "name": "tokenId",
          "type": "uint256"
        }
      ],
      "name": "transferFrom",
      "outputs": [],
      "stateMutability": "nonpayable",
      "type": "function"
    },
    {
      "inputs": [],
      "name": "addDonor",
      "outputs": [],
      "stateMutability": "nonpayable",
      "type": "function"
    },
    {
      "inputs": [
        {
          "internalType": "address",
          "name": "donorAddress",
          "type": "address"
        }
      ],
      "name": "approveDonor",
      "outputs": [],
      "stateMutability": "nonpayable",
      "type": "function"
    },
    {
      "inputs": [
        {
          "internalType": "string",
          "name": "assetDescription",
          "type": "string"
        },
        {
          "internalType": "uint256",
          "name": "availablityDate",
          "type": "uint256"
        },
        {
          "internalType": "string",
          "name": "location",
          "type": "string"
        }
      ],
      "name": "addAsset",
      "outputs": [],
      "stateMutability": "nonpayable",
      "type": "function"
    },
    {
      "inputs": [],
      "name": "getDonations",
      "outputs": [
        {
          "components": [
            {
              "internalType": "string",
              "name": "assetDescription",
              "type": "string"
            },
            {
              "internalType": "uint256",
              "name": "availablityDate",
              "type": "uint256"
            },
            {
              "internalType": "string",
              "name": "location",
              "type": "string"
            },
            {
              "internalType": "enum AssetDonation.Status",
              "name": "status",
              "type": "uint8"
            },
            {
              "internalType": "address",
              "name": "owner",
              "type": "address"
            },
            {
              "internalType": "address",
              "name": "recipient",
              "type": "address"
            },
            {
              "internalType": "uint256",
              "name": "donatedDateFrom",
              "type": "uint256"
            },
            {
              "internalType": "uint256",
              "name": "donatedDateTo",
              "type": "uint256"
            },
            {
              "internalType": "address[3]",
              "name": "requestList",
              "type": "address[3]"
            },
            {
              "internalType": "uint256",
              "name": "requestCount",
              "type": "uint256"
            }
          ],
          "internalType": "struct AssetDonation.Asset[16]",
          "name": "",
          "type": "tuple[16]"
        }
      ],
      "stateMutability": "view",
      "type": "function",
      "constant": true
    },
    {
      "inputs": [
        {
          "internalType": "address",
          "name": "assetOwner",
          "type": "address"
        }
      ],
      "name": "mintToken",
      "outputs": [
        {
          "internalType": "uint256",
          "name": "",
          "type": "uint256"
        }
      ],
      "stateMutability": "nonpayable",
      "type": "function"
    },
    {
      "inputs": [
        {
          "internalType": "uint256",
          "name": "tokenId",
          "type": "uint256"
        },
        {
          "internalType": "address",
          "name": "recipientAddress",
          "type": "address"
        }
      ],
      "name": "donateAsset",
      "outputs": [],
      "stateMutability": "nonpayable",
      "type": "function"
    },
    {
      "inputs": [],
      "name": "addReceiver",
      "outputs": [],
      "stateMutability": "nonpayable",
      "type": "function"
    },
    {
      "inputs": [
        {
          "internalType": "address",
          "name": "receiverAddress",
          "type": "address"
        }
      ],
      "name": "approveReceiver",
      "outputs": [],
      "stateMutability": "nonpayable",
      "type": "function"
    },
    {
      "inputs": [
        {
          "internalType": "address",
          "name": "receiver",
          "type": "address"
        },
        {
          "internalType": "uint256",
          "name": "assetId",
          "type": "uint256"
        }
      ],
      "name": "requestAsset",
      "outputs": [],
      "stateMutability": "nonpayable",
      "type": "function"
    }
  ],
  "bytecode": "0x60806040523480156200001157600080fd5b506040518060400160405280600781526020017f4d79546f6b656e000000000000000000000000000000000000000000000000008152506040518060400160405280600381526020017f4d54530000000000000000000000000000000000000000000000000000000000815250620000966301ffc9a760e01b6200012860201b60201c565b8160069080519060200190620000ae92919062000200565b508060079080519060200190620000c792919062000200565b50620000e06380ac58cd60e01b6200012860201b60201c565b620000f8635b5e139f60e01b6200012860201b60201c565b6200011063780e9d6360e01b6200012860201b60201c565b50506000600b819055506000600c8190555062000324565b63ffffffff60e01b817bffffffffffffffffffffffffffffffffffffffffffffffffffffffff1916141562000194576040517f08c379a00000000000000000000000000000000000000000000000000000000081526004016200018b90620002f1565b60405180910390fd5b6001600080837bffffffffffffffffffffffffffffffffffffffffffffffffffffffff19167bffffffffffffffffffffffffffffffffffffffffffffffffffffffff1916815260200190815260200160002060006101000a81548160ff02191690831515021790555050565b828054600181600116156101000203166002900490600052602060002090601f016020900481019282601f106200024357805160ff191683800117855562000274565b8280016001018555821562000274579182015b828111156200027357825182559160200191906001019062000256565b5b50905062000283919062000287565b5090565b620002ac91905b80821115620002a85760008160009055506001016200028e565b5090565b90565b6000620002be601c8362000313565b91507f4552433136353a20696e76616c696420696e74657266616365206964000000006000830152602082019050919050565b600060208201905081810360008301526200030c81620002af565b9050919050565b600082825260208201905092915050565b614a3680620003346000396000f3fe608060405234801561001057600080fd5b506004361061023d5760003560e01c80636c0360eb1161013b578063ad7430cc116100b8578063cb1ecf481161007c578063cb1ecf4814610718578063d547741f14610734578063e25f841614610750578063e985e9c51461076e578063eebf36a11461079e5761023d565b8063ad7430cc1461064e578063b88d4fde1461066c578063c87b56dd14610688578063ca0cdea8146106b8578063ca15c873146106e85761023d565b80639010d07c116100ff5780639010d07c1461059657806391d14854146105c657806395d89b41146105f6578063a217fddf14610614578063a22cb465146106325761023d565b80636c0360eb1461051857806370a082311461053657806372dbb89f1461056657806379e085a2146105825780638ad545121461058c5761023d565b806323b872dd116101c957806336568abe1161018d57806336568abe1461046257806342842e0e1461047e5780634576d2511461049a5780634f6ccce7146104b85780636352211e146104e85761023d565b806323b872dd146103ae578063248a9ca3146103ca5780632a781270146103fa5780632f2ff15d146104165780632f745c59146104325761023d565b8063081812fc11610210578063081812fc146102f8578063095ea7b3146103285780630cb8150f146103445780630e94ed191461037457806318160ddd146103905761023d565b806301173a741461024257806301ffc9a7146102725780630238cbdc146102a257806306fdde03146102da575b600080fd5b61025c60048036036102579190810190613337565b6107ba565b60405161026991906146a4565b60405180910390f35b61028c6004803603610287919081019061357f565b6107e0565b6040516102999190614351565b60405180910390f35b6102bc60048036036102b79190810190613650565b610847565b6040516102d1999897969594939291906143a9565b60405180910390f35b6102e2610a12565b6040516102ef9190614387565b60405180910390f35b610312600480360361030d9190810190613650565b610ab4565b60405161031f91906142c8565b60405180910390f35b610342600480360361033d91908101906134a2565b610b39565b005b61035e60048036036103599190810190613337565b610c51565b60405161036b9190614351565b60405180910390f35b61038e60048036036103899190810190613679565b610c71565b005b610398610d3b565b6040516103a591906146a4565b60405180910390f35b6103c860048036036103c3919081019061339c565b610d4c565b005b6103e460048036036103df91908101906134de565b610dac565b6040516103f1919061436c565b60405180910390f35b610414600480360361040f9190810190613337565b610dcc565b005b610430600480360361042b9190810190613507565b610e44565b005b61044c600480360361044791908101906134a2565b610eb8565b60405161045991906146a4565b60405180910390f35b61047c60048036036104779190810190613507565b610f13565b005b6104986004803603610493919081019061339c565b610f96565b005b6104a2610fb6565b6040516104af919061436c565b60405180910390f35b6104d260048036036104cd9190810190613650565b610fcd565b6040516104df91906146a4565b60405180910390f35b61050260048036036104fd9190810190613650565b610ff0565b60405161050f91906142c8565b60405180910390f35b610520611027565b60405161052d9190614387565b60405180910390f35b610550600480360361054b9190810190613337565b6110c9565b60405161055d91906146a4565b60405180910390f35b610580600480360361057b9190810190613337565b611188565b005b61058a611200565b005b610594611263565b005b6105b060048036036105ab9190810190613543565b6112bd565b6040516105bd91906142c8565b60405180910390f35b6105e060048036036105db9190810190613507565b6112ef565b6040516105ed9190614351565b60405180910390f35b6105fe611321565b60405161060b9190614387565b60405180910390f35b61061c6113c3565b604051610629919061436c565b60405180910390f35b61064c60048036036106479190810190613466565b6113ca565b005b61065661154b565b604051610663919061436c565b60405180910390f35b610686600480360361068191908101906133eb565b611562565b005b6106a2600480360361069d9190810190613650565b6115c4565b6040516106af9190614387565b60405180910390f35b6106d260048036036106cd9190810190613337565b61174f565b6040516106df9190614351565b60405180910390f35b61070260048036036106fd91908101906134de565b61176f565b60405161070f91906146a4565b60405180910390f35b610732600480360361072d91908101906134a2565b611796565b005b61074e60048036036107499190810190613507565b611827565b005b61075861189b565b604051610765919061432f565b60405180910390f35b61078860048036036107839190810190613360565b611bf9565b6040516107959190614351565b60405180910390f35b6107b860048036036107b391908101906135d1565b611c8d565b005b60006107c882600b54611e74565b600b6000815480929190600101919050559050919050565b6000806000837bffffffffffffffffffffffffffffffffffffffffffffffffffffffff19167bffffffffffffffffffffffffffffffffffffffffffffffffffffffff1916815260200190815260200160002060009054906101000a900460ff169050919050565b600f602052806000526040600020600091509050806000018054600181600116156101000203166002900480601f0160208091040260200160405190810160405280929190818152602001828054600181600116156101000203166002900480156108f35780601f106108c8576101008083540402835291602001916108f3565b820191906000526020600020905b8154815290600101906020018083116108d657829003601f168201915b505050505090806001015490806002018054600181600116156101000203166002900480601f0160208091040260200160405190810160405280929190818152602001828054600181600116156101000203166002900480156109975780601f1061096c57610100808354040283529160200191610997565b820191906000526020600020905b81548152906001019060200180831161097a57829003601f168201915b5050505050908060030160009054906101000a900460ff16908060030160019054906101000a900473ffffffffffffffffffffffffffffffffffffffff16908060040160009054906101000a900473ffffffffffffffffffffffffffffffffffffffff169080600501549080600601549080600a0154905089565b606060068054600181600116156101000203166002900480601f016020809104026020016040519081016040528092919081815260200182805460018160011615610100020316600290048015610aaa5780601f10610a7f57610100808354040283529160200191610aaa565b820191906000526020600020905b815481529060010190602001808311610a8d57829003601f168201915b5050505050905090565b6000610abf82611e92565b610afe576040517f08c379a0000000000000000000000000000000000000000000000000000000008152600401610af5906145c4565b60405180910390fd5b6004600083815260200190815260200160002060009054906101000a900473ffffffffffffffffffffffffffffffffffffffff169050919050565b6000610b4482610ff0565b90508073ffffffffffffffffffffffffffffffffffffffff168373ffffffffffffffffffffffffffffffffffffffff161415610bb5576040517f08c379a0000000000000000000000000000000000000000000000000000000008152600401610bac90614624565b60405180910390fd5b8073ffffffffffffffffffffffffffffffffffffffff16610bd4611eaf565b73ffffffffffffffffffffffffffffffffffffffff161480610c035750610c0281610bfd611eaf565b611bf9565b5b610c42576040517f08c379a0000000000000000000000000000000000000000000000000000000008152600401610c3990614544565b60405180910390fd5b610c4c8383611eb7565b505050565b600e6020528060005260406000206000915054906101000a900460ff1681565b81600073ffffffffffffffffffffffffffffffffffffffff16600f600083815260200190815260200160002060040160009054906101000a900473ffffffffffffffffffffffffffffffffffffffff1673ffffffffffffffffffffffffffffffffffffffff1614610ce157600080fd5b81600f600085815260200190815260200160002060040160006101000a81548173ffffffffffffffffffffffffffffffffffffffff021916908373ffffffffffffffffffffffffffffffffffffffff160217905550505050565b6000610d476002611f70565b905090565b610d5d610d57611eaf565b82611f85565b610d9c576040517f08c379a0000000000000000000000000000000000000000000000000000000008152600401610d9390614644565b60405180910390fd5b610da7838383612063565b505050565b6000600a6000838152602001908152602001600020600201549050919050565b610de9604051610ddb9061429e565b604051809103902082610e44565b6001600d60008373ffffffffffffffffffffffffffffffffffffffff1673ffffffffffffffffffffffffffffffffffffffff16815260200190815260200160002060006101000a81548160ff02191690831515021790555050565b610e6b600a600084815260200190815260200160002060020154610e66611eaf565b6112ef565b610eaa576040517f08c379a0000000000000000000000000000000000000000000000000000000008152600401610ea190614464565b60405180910390fd5b610eb4828261227a565b5050565b6000610f0b82600160008673ffffffffffffffffffffffffffffffffffffffff1673ffffffffffffffffffffffffffffffffffffffff16815260200190815260200160002061230e90919063ffffffff16565b905092915050565b610f1b611eaf565b73ffffffffffffffffffffffffffffffffffffffff168173ffffffffffffffffffffffffffffffffffffffff1614610f88576040517f08c379a0000000000000000000000000000000000000000000000000000000008152600401610f7f90614684565b60405180910390fd5b610f928282612328565b5050565b610fb183838360405180602001604052806000815250611562565b505050565b604051610fc29061429e565b604051809103902081565b600080610fe48360026123bc90919063ffffffff16565b50905080915050919050565b6000611020826040518060600160405280602981526020016149d86029913960026123eb9092919063ffffffff16565b9050919050565b606060098054600181600116156101000203166002900480601f0160208091040260200160405190810160405280929190818152602001828054600181600116156101000203166002900480156110bf5780601f10611094576101008083540402835291602001916110bf565b820191906000526020600020905b8154815290600101906020018083116110a257829003601f168201915b5050505050905090565b60008073ffffffffffffffffffffffffffffffffffffffff168273ffffffffffffffffffffffffffffffffffffffff16141561113a576040517f08c379a000000000000000000000000000000000000000000000000000000000815260040161113190614564565b60405180910390fd5b611181600160008473ffffffffffffffffffffffffffffffffffffffff1673ffffffffffffffffffffffffffffffffffffffff16815260200190815260200160002061240a565b9050919050565b6111a5604051611197906142b3565b604051809103902082610e44565b6001600e60008373ffffffffffffffffffffffffffffffffffffffff1673ffffffffffffffffffffffffffffffffffffffff16815260200190815260200160002060006101000a81548160ff02191690831515021790555050565b6000600d60003373ffffffffffffffffffffffffffffffffffffffff1673ffffffffffffffffffffffffffffffffffffffff16815260200190815260200160002060006101000a81548160ff02191690831515021790555061126133610dcc565b565b6000600e60003373ffffffffffffffffffffffffffffffffffffffff1673ffffffffffffffffffffffffffffffffffffffff16815260200190815260200160002060006101000a81548160ff021916908315150217905550565b60006112e782600a600086815260200190815260200160002060000161241f90919063ffffffff16565b905092915050565b600061131982600a600086815260200190815260200160002060000161243990919063ffffffff16565b905092915050565b606060078054600181600116156101000203166002900480601f0160208091040260200160405190810160405280929190818152602001828054600181600116156101000203166002900480156113b95780601f1061138e576101008083540402835291602001916113b9565b820191906000526020600020905b81548152906001019060200180831161139c57829003601f168201915b5050505050905090565b6000801b81565b6113d2611eaf565b73ffffffffffffffffffffffffffffffffffffffff168273ffffffffffffffffffffffffffffffffffffffff161415611440576040517f08c379a0000000000000000000000000000000000000000000000000000000008152600401611437906144e4565b60405180910390fd5b806005600061144d611eaf565b73ffffffffffffffffffffffffffffffffffffffff1673ffffffffffffffffffffffffffffffffffffffff16815260200190815260200160002060008473ffffffffffffffffffffffffffffffffffffffff1673ffffffffffffffffffffffffffffffffffffffff16815260200190815260200160002060006101000a81548160ff0219169083151502179055508173ffffffffffffffffffffffffffffffffffffffff166114fa611eaf565b73ffffffffffffffffffffffffffffffffffffffff167f17307eab39ab6107e8899845ad3d59bd9653f200f220920489ca2b5937696c318360405161153f9190614351565b60405180910390a35050565b604051611557906142b3565b604051809103902081565b61157361156d611eaf565b83611f85565b6115b2576040517f08c379a00000000000000000000000000000000000000000000000000000000081526004016115a990614644565b60405180910390fd5b6115be84848484612469565b50505050565b60606115cf82611e92565b61160e576040517f08c379a000000000000000000000000000000000000000000000000000000000815260040161160590614604565b60405180910390fd5b6060600860008481526020019081526020016000208054600181600116156101000203166002900480601f0160208091040260200160405190810160405280929190818152602001828054600181600116156101000203166002900480156116b75780601f1061168c576101008083540402835291602001916116b7565b820191906000526020600020905b81548152906001019060200180831161169a57829003601f168201915b505050505090506000600980546001816001161561010002031660029004905014156116e6578091505061174a565b60008151111561171b5760098160405160200161170492919061427a565b60405160208183030381529060405291505061174a565b6009611726846124c5565b60405160200161173792919061427a565b6040516020818303038152906040529150505b919050565b600d6020528060005260406000206000915054906101000a900460ff1681565b600061178f600a60008481526020019081526020016000206000016125f5565b9050919050565b6000600f60008381526020019081526020016000209050600381600a0154101561182257828160070182600a0154600381106117ce57fe5b0160006101000a81548173ffffffffffffffffffffffffffffffffffffffff021916908373ffffffffffffffffffffffffffffffffffffffff16021790555080600a01600081548092919060010191905055505b505050565b61184e600a600084815260200190815260200160002060020154611849611eaf565b6112ef565b61188d576040517f08c379a000000000000000000000000000000000000000000000000000000000815260040161188490614524565b60405180910390fd5b6118978282612328565b5050565b6118a3612faa565b60006118ae336110c9565b9050600080905060006118bf612faa565b601084116118cf578392506118d4565b601092505b60008090505b83811015611bee576118ec3382610eb8565b9250600f600084815260200190815260200160002060405180610140016040529081600082018054600181600116156101000203166002900480601f0160208091040260200160405190810160405280929190818152602001828054600181600116156101000203166002900480156119a65780601f1061197b576101008083540402835291602001916119a6565b820191906000526020600020905b81548152906001019060200180831161198957829003601f168201915b5050505050815260200160018201548152602001600282018054600181600116156101000203166002900480601f016020809104026020016040519081016040528092919081815260200182805460018160011615610100020316600290048015611a525780601f10611a2757610100808354040283529160200191611a52565b820191906000526020600020905b815481529060010190602001808311611a3557829003601f168201915b505050505081526020016003820160009054906101000a900460ff166003811115611a7957fe5b6003811115611a8457fe5b81526020016003820160019054906101000a900473ffffffffffffffffffffffffffffffffffffffff1673ffffffffffffffffffffffffffffffffffffffff1673ffffffffffffffffffffffffffffffffffffffff1681526020016004820160009054906101000a900473ffffffffffffffffffffffffffffffffffffffff1673ffffffffffffffffffffffffffffffffffffffff1673ffffffffffffffffffffffffffffffffffffffff168152602001600582015481526020016006820154815260200160078201600380602002604051908101604052809291908260038015611bba576020028201915b8160009054906101000a900473ffffffffffffffffffffffffffffffffffffffff1673ffffffffffffffffffffffffffffffffffffffff1681526020019060010190808311611b70575b50505050508152602001600a82015481525050828260108110611bd957fe5b602002018190525080806001019150506118da565b508094505050505090565b6000600560008473ffffffffffffffffffffffffffffffffffffffff1673ffffffffffffffffffffffffffffffffffffffff16815260200190815260200160002060008373ffffffffffffffffffffffffffffffffffffffff1673ffffffffffffffffffffffffffffffffffffffff16815260200190815260200160002060009054906101000a900460ff16905092915050565b611c95612fd8565b6000611ca0336107ba565b905060405180610140016040528086815260200185815260200184815260200160006003811115611ccd57fe5b81526020013373ffffffffffffffffffffffffffffffffffffffff168152602001600073ffffffffffffffffffffffffffffffffffffffff16815260200160008152602001600081526020018381526020016000815250600f60008381526020019081526020016000206000820151816000019080519060200190611d53929190612ffa565b50602082015181600101556040820151816002019080519060200190611d7a929190612ffa565b5060608201518160030160006101000a81548160ff02191690836003811115611d9f57fe5b021790555060808201518160030160016101000a81548173ffffffffffffffffffffffffffffffffffffffff021916908373ffffffffffffffffffffffffffffffffffffffff16021790555060a08201518160040160006101000a81548173ffffffffffffffffffffffffffffffffffffffff021916908373ffffffffffffffffffffffffffffffffffffffff16021790555060c0820151816005015560e0820151816006015561010082015181600701906003611e5e92919061307a565b5061012082015181600a01559050505050505050565b611e8e82826040518060200160405280600081525061260a565b5050565b6000611ea882600261266590919063ffffffff16565b9050919050565b600033905090565b816004600083815260200190815260200160002060006101000a81548173ffffffffffffffffffffffffffffffffffffffff021916908373ffffffffffffffffffffffffffffffffffffffff160217905550808273ffffffffffffffffffffffffffffffffffffffff16611f2a83610ff0565b73ffffffffffffffffffffffffffffffffffffffff167f8c5be1e5ebec7d5bd14f71427d1e84f3dd0314c0f7b2291e5b200ac8c7c3b92560405160405180910390a45050565b6000611f7e8260000161267f565b9050919050565b6000611f9082611e92565b611fcf576040517f08c379a0000000000000000000000000000000000000000000000000000000008152600401611fc690614504565b60405180910390fd5b6000611fda83610ff0565b90508073ffffffffffffffffffffffffffffffffffffffff168473ffffffffffffffffffffffffffffffffffffffff16148061204957508373ffffffffffffffffffffffffffffffffffffffff1661203184610ab4565b73ffffffffffffffffffffffffffffffffffffffff16145b8061205a57506120598185611bf9565b5b91505092915050565b8273ffffffffffffffffffffffffffffffffffffffff1661208382610ff0565b73ffffffffffffffffffffffffffffffffffffffff16146120d9576040517f08c379a00000000000000000000000000000000000000000000000000000000081526004016120d0906145e4565b60405180910390fd5b600073ffffffffffffffffffffffffffffffffffffffff168273ffffffffffffffffffffffffffffffffffffffff161415612149576040517f08c379a0000000000000000000000000000000000000000000000000000000008152600401612140906144c4565b60405180910390fd5b612154838383612690565b61215f600082611eb7565b6121b081600160008673ffffffffffffffffffffffffffffffffffffffff1673ffffffffffffffffffffffffffffffffffffffff16815260200190815260200160002061269590919063ffffffff16565b5061220281600160008573ffffffffffffffffffffffffffffffffffffffff1673ffffffffffffffffffffffffffffffffffffffff1681526020019081526020016000206126af90919063ffffffff16565b50612219818360026126c99092919063ffffffff16565b50808273ffffffffffffffffffffffffffffffffffffffff168473ffffffffffffffffffffffffffffffffffffffff167fddf252ad1be2c89b69c2b068fc378daa952ba7f163c4a11628f55a4df523b3ef60405160405180910390a4505050565b6122a281600a60008581526020019081526020016000206000016126fe90919063ffffffff16565b1561230a576122af611eaf565b73ffffffffffffffffffffffffffffffffffffffff168173ffffffffffffffffffffffffffffffffffffffff16837f2f8788117e7eff1d82e926ec794901d17c78024a50270940304540a733656f0d60405160405180910390a45b5050565b600061231d836000018361272e565b60001c905092915050565b61235081600a600085815260200190815260200160002060000161279b90919063ffffffff16565b156123b85761235d611eaf565b73ffffffffffffffffffffffffffffffffffffffff168173ffffffffffffffffffffffffffffffffffffffff16837ff6391f5c32d9c69d2a47ea670b442974b53935d1edc7fd64eb21e047a839171b60405160405180910390a45b5050565b6000806000806123cf86600001866127cb565b915091508160001c8160001c8090509350935050509250929050565b60006123fe846000018460001b8461284e565b60001c90509392505050565b6000612418826000016128df565b9050919050565b600061242e836000018361272e565b60001c905092915050565b6000612461836000018373ffffffffffffffffffffffffffffffffffffffff1660001b6128f0565b905092915050565b612474848484612063565b61248084848484612913565b6124bf576040517f08c379a00000000000000000000000000000000000000000000000000000000081526004016124b690614484565b60405180910390fd5b50505050565b6060600082141561250d576040518060400160405280600181526020017f300000000000000000000000000000000000000000000000000000000000000081525090506125f0565b600082905060005b60008214612537578080600101915050600a828161252f57fe5b049150612515565b6060816040519080825280601f01601f19166020018201604052801561256c5781602001600182028038833980820191505090505b50905060006001830390508593505b600084146125e857600a848161258d57fe5b0660300160f81b828280600190039350815181106125a757fe5b60200101907effffffffffffffffffffffffffffffffffffffffffffffffffffffffffffff1916908160001a905350600a84816125e057fe5b04935061257b565b819450505050505b919050565b6000612603826000016128df565b9050919050565b6126148383612a77565b6126216000848484612913565b612660576040517f08c379a000000000000000000000000000000000000000000000000000000000815260040161265790614484565b60405180910390fd5b505050565b6000612677836000018360001b612c05565b905092915050565b600081600001805490509050919050565b505050565b60006126a7836000018360001b612c28565b905092915050565b60006126c1836000018360001b612d10565b905092915050565b60006126f5846000018460001b8473ffffffffffffffffffffffffffffffffffffffff1660001b612d80565b90509392505050565b6000612726836000018373ffffffffffffffffffffffffffffffffffffffff1660001b612d10565b905092915050565b600081836000018054905011612779576040517f08c379a000000000000000000000000000000000000000000000000000000000815260040161277090614444565b60405180910390fd5b82600001828154811061278857fe5b9060005260206000200154905092915050565b60006127c3836000018373ffffffffffffffffffffffffffffffffffffffff1660001b612c28565b905092915050565b60008082846000018054905011612817576040517f08c379a000000000000000000000000000000000000000000000000000000000815260040161280e90614584565b60405180910390fd5b600084600001848154811061282857fe5b906000526020600020906002020190508060000154816001015492509250509250929050565b600080846001016000858152602001908152602001600020549050600081141583906128b0576040517f08c379a00000000000000000000000000000000000000000000000000000000081526004016128a79190614387565b60405180910390fd5b508460000160018203815481106128c357fe5b9060005260206000209060020201600101549150509392505050565b600081600001805490509050919050565b600080836001016000848152602001908152602001600020541415905092915050565b60006129348473ffffffffffffffffffffffffffffffffffffffff16612e5c565b6129415760019050612a6f565b6060612a0863150b7a0260e01b612956611eaf565b88878760405160240161296c94939291906142e3565b604051602081830303815290604052907bffffffffffffffffffffffffffffffffffffffffffffffffffffffff19166020820180517bffffffffffffffffffffffffffffffffffffffffffffffffffffffff83818316178352505050506040518060600160405280603281526020016149a6603291398773ffffffffffffffffffffffffffffffffffffffff16612e6f9092919063ffffffff16565b9050600081806020019051612a2091908101906135a8565b905063150b7a0260e01b7bffffffffffffffffffffffffffffffffffffffffffffffffffffffff1916817bffffffffffffffffffffffffffffffffffffffffffffffffffffffff191614925050505b949350505050565b600073ffffffffffffffffffffffffffffffffffffffff168273ffffffffffffffffffffffffffffffffffffffff161415612ae7576040517f08c379a0000000000000000000000000000000000000000000000000000000008152600401612ade906145a4565b60405180910390fd5b612af081611e92565b15612b30576040517f08c379a0000000000000000000000000000000000000000000000000000000008152600401612b27906144a4565b60405180910390fd5b612b3c60008383612690565b612b8d81600160008573ffffffffffffffffffffffffffffffffffffffff1673ffffffffffffffffffffffffffffffffffffffff1681526020019081526020016000206126af90919063ffffffff16565b50612ba4818360026126c99092919063ffffffff16565b50808273ffffffffffffffffffffffffffffffffffffffff16600073ffffffffffffffffffffffffffffffffffffffff167fddf252ad1be2c89b69c2b068fc378daa952ba7f163c4a11628f55a4df523b3ef60405160405180910390a45050565b600080836001016000848152602001908152602001600020541415905092915050565b60008083600101600084815260200190815260200160002054905060008114612d045760006001820390506000600186600001805490500390506000866000018281548110612c7357fe5b9060005260206000200154905080876000018481548110612c9057fe5b9060005260206000200181905550600183018760010160008381526020019081526020016000208190555086600001805480612cc857fe5b60019003818190600052602060002001600090559055866001016000878152602001908152602001600020600090556001945050505050612d0a565b60009150505b92915050565b6000612d1c83836128f0565b612d75578260000182908060018154018082558091505060019003906000526020600020016000909190919091505582600001805490508360010160008481526020019081526020016000208190555060019050612d7a565b600090505b92915050565b6000808460010160008581526020019081526020016000205490506000811415612e2757846000016040518060400160405280868152602001858152509080600181540180825580915050600190039060005260206000209060020201600090919091909150600082015181600001556020820151816001015550508460000180549050856001016000868152602001908152602001600020819055506001915050612e55565b82856000016001830381548110612e3a57fe5b90600052602060002090600202016001018190555060009150505b9392505050565b600080823b905060008111915050919050565b6060612e7e8484600085612e87565b90509392505050565b6060612e9285612e5c565b612ed1576040517f08c379a0000000000000000000000000000000000000000000000000000000008152600401612ec890614664565b60405180910390fd5b600060608673ffffffffffffffffffffffffffffffffffffffff168587604051612efb9190614263565b60006040518083038185875af1925050503d8060008114612f38576040519150601f19603f3d011682016040523d82523d6000602084013e612f3d565b606091505b50915091508115612f52578092505050612fa2565b600081511115612f655780518082602001fd5b836040517f08c379a0000000000000000000000000000000000000000000000000000000008152600401612f999190614387565b60405180910390fd5b949350505050565b6040518061020001604052806010905b612fc26130f7565b815260200190600190039081612fba5790505090565b6040518060600160405280600390602082028038833980820191505090505090565b828054600181600116156101000203166002900490600052602060002090601f016020900481019282601f1061303b57805160ff1916838001178555613069565b82800160010185558215613069579182015b8281111561306857825182559160200191906001019061304d565b5b5090506130769190613187565b5090565b82600381019282156130e6579160200282015b828111156130e55782518260006101000a81548173ffffffffffffffffffffffffffffffffffffffff021916908373ffffffffffffffffffffffffffffffffffffffff1602179055509160200191906001019061308d565b5b5090506130f391906131ac565b5090565b6040518061014001604052806060815260200160008152602001606081526020016000600381111561312557fe5b8152602001600073ffffffffffffffffffffffffffffffffffffffff168152602001600073ffffffffffffffffffffffffffffffffffffffff168152602001600081526020016000815260200161317a6131ef565b8152602001600081525090565b6131a991905b808211156131a557600081600090555060010161318d565b5090565b90565b6131ec91905b808211156131e857600081816101000a81549073ffffffffffffffffffffffffffffffffffffffff0219169055506001016131b2565b5090565b90565b6040518060600160405280600390602082028038833980820191505090505090565b60008135905061322081614932565b92915050565b60008135905061323581614949565b92915050565b60008135905061324a81614960565b92915050565b60008135905061325f81614977565b92915050565b60008151905061327481614977565b92915050565b600082601f83011261328b57600080fd5b813561329e613299826146ec565b6146bf565b915080825260208301602083018583830111156132ba57600080fd5b6132c58382846148d2565b50505092915050565b600082601f8301126132df57600080fd5b81356132f26132ed82614718565b6146bf565b9150808252602083016020830185838301111561330e57600080fd5b6133198382846148d2565b50505092915050565b6000813590506133318161498e565b92915050565b60006020828403121561334957600080fd5b600061335784828501613211565b91505092915050565b6000806040838503121561337357600080fd5b600061338185828601613211565b925050602061339285828601613211565b9150509250929050565b6000806000606084860312156133b157600080fd5b60006133bf86828701613211565b93505060206133d086828701613211565b92505060406133e186828701613322565b9150509250925092565b6000806000806080858703121561340157600080fd5b600061340f87828801613211565b945050602061342087828801613211565b935050604061343187828801613322565b925050606085013567ffffffffffffffff81111561344e57600080fd5b61345a8782880161327a565b91505092959194509250565b6000806040838503121561347957600080fd5b600061348785828601613211565b925050602061349885828601613226565b9150509250929050565b600080604083850312156134b557600080fd5b60006134c385828601613211565b92505060206134d485828601613322565b9150509250929050565b6000602082840312156134f057600080fd5b60006134fe8482850161323b565b91505092915050565b6000806040838503121561351a57600080fd5b60006135288582860161323b565b925050602061353985828601613211565b9150509250929050565b6000806040838503121561355657600080fd5b60006135648582860161323b565b925050602061357585828601613322565b9150509250929050565b60006020828403121561359157600080fd5b600061359f84828501613250565b91505092915050565b6000602082840312156135ba57600080fd5b60006135c884828501613265565b91505092915050565b6000806000606084860312156135e657600080fd5b600084013567ffffffffffffffff81111561360057600080fd5b61360c868287016132ce565b935050602061361d86828701613322565b925050604084013567ffffffffffffffff81111561363a57600080fd5b613646868287016132ce565b9150509250925092565b60006020828403121561366257600080fd5b600061367084828501613322565b91505092915050565b6000806040838503121561368c57600080fd5b600061369a85828601613322565b92505060206136ab85828601613211565b9150509250929050565b60006136c183836136f0565b60208301905092915050565b60006136d98383614164565b905092915050565b6136ea8161482f565b82525050565b6136f98161481d565b82525050565b6137088161481d565b82525050565b6137178161476d565b61372181846147be565b925061372c82614744565b8060005b8381101561375d57815161374487826136b5565b965061374f836147a4565b925050600181019050613730565b505050505050565b600061377082614778565b61377a81856147c9565b93508360208202850161378c8561474e565b8060005b858110156137c857848403895281516137a985826136cd565b94506137b4836147b1565b925060208a01995050600181019050613790565b50829750879550505050505092915050565b6137e381614841565b82525050565b6137f28161484d565b82525050565b600061380382614783565b61380d81856147d4565b935061381d8185602086016148e1565b61382681614914565b840191505092915050565b600061383c82614783565b61384681856147e5565b93506138568185602086016148e1565b80840191505092915050565b61386b816148c0565b82525050565b61387a816148c0565b82525050565b600061388b82614799565b6138958185614801565b93506138a58185602086016148e1565b6138ae81614914565b840191505092915050565b60006138c482614799565b6138ce8185614812565b93506138de8185602086016148e1565b80840191505092915050565b60006138f58261478e565b6138ff81856147f0565b935061390f8185602086016148e1565b61391881614914565b840191505092915050565b600061392e8261478e565b6139388185614801565b93506139488185602086016148e1565b61395181614914565b840191505092915050565b600081546001811660008114613979576001811461399e576139e2565b607f600283041661398a8187614812565b955060ff19831686528086019350506139e2565b600282046139ac8187614812565b95506139b785614758565b60005b828110156139d9578154818901526001820191506020810190506139ba565b82880195505050505b505092915050565b60006139f7602283614801565b91507f456e756d657261626c655365743a20696e646578206f7574206f6620626f756e60008301527f64730000000000000000000000000000000000000000000000000000000000006020830152604082019050919050565b6000613a5d602f83614801565b91507f416363657373436f6e74726f6c3a2073656e646572206d75737420626520616e60008301527f2061646d696e20746f206772616e7400000000000000000000000000000000006020830152604082019050919050565b6000613ac3603283614801565b91507f4552433732313a207472616e7366657220746f206e6f6e20455243373231526560008301527f63656976657220696d706c656d656e74657200000000000000000000000000006020830152604082019050919050565b6000613b29601c83614801565b91507f4552433732313a20746f6b656e20616c7265616479206d696e746564000000006000830152602082019050919050565b6000613b69602483614801565b91507f4552433732313a207472616e7366657220746f20746865207a65726f2061646460008301527f72657373000000000000000000000000000000000000000000000000000000006020830152604082019050919050565b6000613bcf601983614801565b91507f4552433732313a20617070726f766520746f2063616c6c6572000000000000006000830152602082019050919050565b6000613c0f602c83614801565b91507f4552433732313a206f70657261746f7220717565727920666f72206e6f6e657860008301527f697374656e7420746f6b656e00000000000000000000000000000000000000006020830152604082019050919050565b6000613c75603083614801565b91507f416363657373436f6e74726f6c3a2073656e646572206d75737420626520616e60008301527f2061646d696e20746f207265766f6b65000000000000000000000000000000006020830152604082019050919050565b6000613cdb603883614801565b91507f4552433732313a20617070726f76652063616c6c6572206973206e6f74206f7760008301527f6e6572206e6f7220617070726f76656420666f7220616c6c00000000000000006020830152604082019050919050565b6000613d41600583614812565b91507f444f4e4f520000000000000000000000000000000000000000000000000000006000830152600582019050919050565b6000613d81602a83614801565b91507f4552433732313a2062616c616e636520717565727920666f7220746865207a6560008301527f726f2061646472657373000000000000000000000000000000000000000000006020830152604082019050919050565b6000613de7602283614801565b91507f456e756d657261626c654d61703a20696e646578206f7574206f6620626f756e60008301527f64730000000000000000000000000000000000000000000000000000000000006020830152604082019050919050565b6000613e4d602083614801565b91507f4552433732313a206d696e7420746f20746865207a65726f20616464726573736000830152602082019050919050565b6000613e8d602c83614801565b91507f4552433732313a20617070726f76656420717565727920666f72206e6f6e657860008301527f697374656e7420746f6b656e00000000000000000000000000000000000000006020830152604082019050919050565b6000613ef3600883614812565b91507f52454345495645520000000000000000000000000000000000000000000000006000830152600882019050919050565b6000613f33602983614801565b91507f4552433732313a207472616e73666572206f6620746f6b656e2074686174206960008301527f73206e6f74206f776e00000000000000000000000000000000000000000000006020830152604082019050919050565b6000613f99602f83614801565b91507f4552433732314d657461646174613a2055524920717565727920666f72206e6f60008301527f6e6578697374656e7420746f6b656e00000000000000000000000000000000006020830152604082019050919050565b6000613fff602183614801565b91507f4552433732313a20617070726f76616c20746f2063757272656e74206f776e6560008301527f72000000000000000000000000000000000000000000000000000000000000006020830152604082019050919050565b6000614065603183614801565b91507f4552433732313a207472616e736665722063616c6c6572206973206e6f74206f60008301527f776e6572206e6f7220617070726f7665640000000000000000000000000000006020830152604082019050919050565b60006140cb601d83614801565b91507f416464726573733a2063616c6c20746f206e6f6e2d636f6e74726163740000006000830152602082019050919050565b600061410b602f83614801565b91507f416363657373436f6e74726f6c3a2063616e206f6e6c792072656e6f756e636560008301527f20726f6c657320666f722073656c6600000000000000000000000000000000006020830152604082019050919050565b600061018083016000830151848203600086015261418282826138ea565b91505060208301516141976020860182614245565b50604083015184820360408601526141af82826138ea565b91505060608301516141c46060860182613862565b5060808301516141d760808601826136f0565b5060a08301516141ea60a08601826136f0565b5060c08301516141fd60c0860182614245565b5060e083015161421060e0860182614245565b5061010083015161422561010086018261370e565b5061012083015161423a610160860182614245565b508091505092915050565b61424e816148b6565b82525050565b61425d816148b6565b82525050565b600061426f8284613831565b915081905092915050565b6000614286828561395c565b915061429282846138b9565b91508190509392505050565b60006142a982613d34565b9150819050919050565b60006142be82613ee6565b9150819050919050565b60006020820190506142dd60008301846136ff565b92915050565b60006080820190506142f860008301876136e1565b61430560208301866136ff565b6143126040830185614254565b818103606083015261432481846137f8565b905095945050505050565b600060208201905081810360008301526143498184613765565b905092915050565b600060208201905061436660008301846137da565b92915050565b600060208201905061438160008301846137e9565b92915050565b600060208201905081810360008301526143a18184613880565b905092915050565b60006101208201905081810360008301526143c4818c613923565b90506143d3602083018b614254565b81810360408301526143e5818a613923565b90506143f46060830189613871565b61440160808301886136ff565b61440e60a08301876136ff565b61441b60c0830186614254565b61442860e0830185614254565b614436610100830184614254565b9a9950505050505050505050565b6000602082019050818103600083015261445d816139ea565b9050919050565b6000602082019050818103600083015261447d81613a50565b9050919050565b6000602082019050818103600083015261449d81613ab6565b9050919050565b600060208201905081810360008301526144bd81613b1c565b9050919050565b600060208201905081810360008301526144dd81613b5c565b9050919050565b600060208201905081810360008301526144fd81613bc2565b9050919050565b6000602082019050818103600083015261451d81613c02565b9050919050565b6000602082019050818103600083015261453d81613c68565b9050919050565b6000602082019050818103600083015261455d81613cce565b9050919050565b6000602082019050818103600083015261457d81613d74565b9050919050565b6000602082019050818103600083015261459d81613dda565b9050919050565b600060208201905081810360008301526145bd81613e40565b9050919050565b600060208201905081810360008301526145dd81613e80565b9050919050565b600060208201905081810360008301526145fd81613f26565b9050919050565b6000602082019050818103600083015261461d81613f8c565b9050919050565b6000602082019050818103600083015261463d81613ff2565b9050919050565b6000602082019050818103600083015261465d81614058565b9050919050565b6000602082019050818103600083015261467d816140be565b9050919050565b6000602082019050818103600083015261469d816140fe565b9050919050565b60006020820190506146b96000830184614254565b92915050565b6000604051905081810181811067ffffffffffffffff821117156146e257600080fd5b8060405250919050565b600067ffffffffffffffff82111561470357600080fd5b601f19601f8301169050602081019050919050565b600067ffffffffffffffff82111561472f57600080fd5b601f19601f8301169050602081019050919050565b6000819050919050565b6000819050919050565b60008190508160005260206000209050919050565b600060039050919050565b600060109050919050565b600081519050919050565b600081519050919050565b600081519050919050565b6000602082019050919050565b6000602082019050919050565b600081905092915050565b600081905092915050565b600082825260208201905092915050565b600081905092915050565b600082825260208201905092915050565b600082825260208201905092915050565b600081905092915050565b600061482882614896565b9050919050565b600061483a82614896565b9050919050565b60008115159050919050565b6000819050919050565b60007fffffffff0000000000000000000000000000000000000000000000000000000082169050919050565b600081905061489182614925565b919050565b600073ffffffffffffffffffffffffffffffffffffffff82169050919050565b6000819050919050565b60006148cb82614883565b9050919050565b82818337600083830152505050565b60005b838110156148ff5780820151818401526020810190506148e4565b8381111561490e576000848401525b50505050565b6000601f19601f8301169050919050565b6004811061492f57fe5b50565b61493b8161481d565b811461494657600080fd5b50565b61495281614841565b811461495d57600080fd5b50565b6149698161484d565b811461497457600080fd5b50565b61498081614857565b811461498b57600080fd5b50565b614997816148b6565b81146149a257600080fd5b5056fe4552433732313a207472616e7366657220746f206e6f6e20455243373231526563656976657220696d706c656d656e7465724552433732313a206f776e657220717565727920666f72206e6f6e6578697374656e7420746f6b656ea264697066735822122043021d618d1b9b7383dda3dcd637e2f7a9150501bfb61b1aa63a9a6dbb5efbeb64736f6c63430006020033",
  "source": "// SPDX-License-Identifier: MIT\npragma solidity ^0.6.2;\npragma experimental ABIEncoderV2;\n\nimport \"@openzeppelin/contracts/token/ERC721/ERC721.sol\";\nimport \"@openzeppelin/contracts/access/AccessControl.sol\";\n\ncontract AssetDonation is ERC721, AccessControl {\n\n\n    uint256 lastAssetId;\n    uint256 lastRequestId;\n    uint constant maxNoOfReqsPerAsst = 3;\n\n    mapping (address=>bool) public donors;\n    mapping (address=>bool) public receivers;\n\n\n    constructor() ERC721(\"MyToken\",\"MTS\") AccessControl() public {\n      lastAssetId = 0;\n      lastRequestId = 0;\n    }\n\n\n\n    bytes32 public constant DONOR = keccak256(\"DONOR\");\n    bytes32 public constant RECEIVER = keccak256(\"RECEIVER\");\n\n    enum Status {Free, Donated, Inactive, Burned}\n\n    // struct AssetType{\n    //   string assetType;\n    // }\n\n    struct Asset {\n        string assetDescription;\n        uint256 availablityDate;\n        string location;\n        Status status;\n        address owner;\n        address recipient;\n        uint256 donatedDateFrom;\n        uint256 donatedDateTo;\n        address[maxNoOfReqsPerAsst] requestList;\n        uint requestCount;\n        //   AssetType assetType;\n    }\n    \n    mapping(uint256 => Asset) public donationList;\n\n    modifier isDonor(address donorAddress) {\n        require(hasRole(DONOR, donorAddress));\n        _;\n    }\n\n    function addDonor() public {\n        donors[msg.sender] = false;\n        approveDonor(msg.sender);\n    }\n\n    function approveDonor(address donorAddress) public {\n        grantRole(DONOR, donorAddress);\n        donors[donorAddress] = true;\n    }\n\n    function addAsset(\n        string memory assetDescription,\n        uint256 availablityDate,\n        string memory location\n    ) public /*isDonor(msg.sender)*/ {\n        address[maxNoOfReqsPerAsst] memory requests;\n        uint256 assetId = mintToken(msg.sender);\n        donationList[assetId] = Asset({\n            assetDescription: assetDescription,\n            availablityDate: availablityDate,\n            location: location,\n            status: Status.Free,\n            owner: msg.sender,\n            recipient: address(0),\n            donatedDateFrom: 0,\n            donatedDateTo: 0,\n            requestList: requests,\n            requestCount:0\n        });\n    }\n\n    function getDonations() public view returns (Asset[16] memory) {\n        uint tokenCount = balanceOf(msg.sender);\n        uint index = 0;\n        uint tokenId;\n        Asset[16] memory assetList;\n        if(tokenCount <= 16){\n            index = tokenCount;\n        }\n        else{\n            index = 16;\n        }\n        for(uint i = 0; i < index; i++){\n            tokenId = tokenOfOwnerByIndex(msg.sender,i);\n            assetList[i]=donationList[tokenId];\n        } \n        return assetList;\n    }\n\n    function mintToken(address assetOwner) public returns (uint256) {\n        _safeMint(assetOwner, lastAssetId);\n        return lastAssetId++;\n    }\n\n    modifier assetIsFree(uint tokenId){\n      require(donationList[tokenId].recipient == address(0));\n      _;\n    }\n\n    function donateAsset(uint tokenId,address recipientAddress)/*isDonor(msg.sender) isRequester(recipientAddress)*/ assetIsFree(tokenId)  public{\n      donationList[tokenId].recipient = recipientAddress;\n    }\n\n    function addReceiver() public {\n        receivers[msg.sender] = false;\n    }\n\n    function approveReceiver(address receiverAddress) public {\n        grantRole(RECEIVER, receiverAddress);\n        receivers[receiverAddress] = true;\n    }\n\n    function requestAsset(address receiver, uint assetId) public{\n        Asset storage requestedItem = donationList[assetId];\n        if(requestedItem.requestCount<maxNoOfReqsPerAsst)\n        {\n            requestedItem.requestList[requestedItem.requestCount] = receiver;\n            requestedItem.requestCount++;\n        }\n    }\n\n    // function addAsset(address assetOwner, string memory ownerName,AssetType memory assetType) isDonor public{\n    //   _safeMint(assetOwner, lastAssetId);\n    //   donationList[lastAssetId]=Asset({ownerName:ownerName,status:Status.Free,recipient:address(0),assetType:assetType});\n    //   lastAssetId ++;\n    // }\n\n    // struct AssetRequest{\n    //   address recipient;\n    //   AssetType assetType;\n    // }\n\n    // mapping (uint => AssetRequest) public requestList;\n\n\n    // modifier isRecipient(address recipientAddress){\n    //   _;\n    // }\n    // modifier isDonor(address donorAddress){\n    //   _;\n    // }\n\n\n    // function requestAsset(address recipientAddress, AssetType memory assetType) isRecipient public{\n    //   requestList[lastRequestId] = AssetRequest({recipientAddress:recipientAddress,assetType:assetType});\n    // }\n\n}\n",
  "sourcePath": "/home/fatemeh/Desktop/Consensys Course/assetdonation/AssetDonation/contracts/AssetDonation.sol",
  "compiler": {
    "name": "solc",
    "version": "0.6.2+commit.bacdbe57.Emscripten.clang"
  },
  "schemaVersion": "3.3.1",
  "updatedAt": "2020-11-30T20:53:28.102Z",
  "networkType": "ethereum",
  "devdoc": {
    "methods": {
      "approve(address,uint256)": {
        "details": "See {IERC721-approve}."
      },
      "balanceOf(address)": {
        "details": "See {IERC721-balanceOf}."
      },
      "baseURI()": {
        "details": "Returns the base URI set via {_setBaseURI}. This will be automatically added as a prefix in {tokenURI} to each token's URI, or to the token ID if no specific URI is set for that token ID."
      },
      "getApproved(uint256)": {
        "details": "See {IERC721-getApproved}."
      },
      "getRoleAdmin(bytes32)": {
        "details": "Returns the admin role that controls `role`. See {grantRole} and {revokeRole}.     * To change a role's admin, use {_setRoleAdmin}."
      },
      "getRoleMember(bytes32,uint256)": {
        "details": "Returns one of the accounts that have `role`. `index` must be a value between 0 and {getRoleMemberCount}, non-inclusive.     * Role bearers are not sorted in any particular way, and their ordering may change at any point.     * WARNING: When using {getRoleMember} and {getRoleMemberCount}, make sure you perform all queries on the same block. See the following https://forum.openzeppelin.com/t/iterating-over-elements-on-enumerableset-in-openzeppelin-contracts/2296[forum post] for more information."
      },
      "getRoleMemberCount(bytes32)": {
        "details": "Returns the number of accounts that have `role`. Can be used together with {getRoleMember} to enumerate all bearers of a role."
      },
      "grantRole(bytes32,address)": {
        "details": "Grants `role` to `account`.     * If `account` had not been already granted `role`, emits a {RoleGranted} event.     * Requirements:     * - the caller must have ``role``'s admin role."
      },
      "hasRole(bytes32,address)": {
        "details": "Returns `true` if `account` has been granted `role`."
      },
      "isApprovedForAll(address,address)": {
        "details": "See {IERC721-isApprovedForAll}."
      },
      "name()": {
        "details": "See {IERC721Metadata-name}."
      },
      "ownerOf(uint256)": {
        "details": "See {IERC721-ownerOf}."
      },
      "renounceRole(bytes32,address)": {
        "details": "Revokes `role` from the calling account.     * Roles are often managed via {grantRole} and {revokeRole}: this function's purpose is to provide a mechanism for accounts to lose their privileges if they are compromised (such as when a trusted device is misplaced).     * If the calling account had been granted `role`, emits a {RoleRevoked} event.     * Requirements:     * - the caller must be `account`."
      },
      "revokeRole(bytes32,address)": {
        "details": "Revokes `role` from `account`.     * If `account` had been granted `role`, emits a {RoleRevoked} event.     * Requirements:     * - the caller must have ``role``'s admin role."
      },
      "safeTransferFrom(address,address,uint256)": {
        "details": "See {IERC721-safeTransferFrom}."
      },
      "safeTransferFrom(address,address,uint256,bytes)": {
        "details": "See {IERC721-safeTransferFrom}."
      },
      "setApprovalForAll(address,bool)": {
        "details": "See {IERC721-setApprovalForAll}."
      },
      "supportsInterface(bytes4)": {
        "details": "See {IERC165-supportsInterface}.     * Time complexity O(1), guaranteed to always use less than 30 000 gas."
      },
      "symbol()": {
        "details": "See {IERC721Metadata-symbol}."
      },
      "tokenByIndex(uint256)": {
        "details": "See {IERC721Enumerable-tokenByIndex}."
      },
      "tokenOfOwnerByIndex(address,uint256)": {
        "details": "See {IERC721Enumerable-tokenOfOwnerByIndex}."
      },
      "tokenURI(uint256)": {
        "details": "See {IERC721Metadata-tokenURI}."
      },
      "totalSupply()": {
        "details": "See {IERC721Enumerable-totalSupply}."
      },
      "transferFrom(address,address,uint256)": {
        "details": "See {IERC721-transferFrom}."
      }
    }
  },
  "userdoc": {
    "methods": {}
  }
}