{
  "contractName": "AssetDonation",
  "abi": [
    {
      "inputs": [],
      "stateMutability": "nonpayable",
      "type": "constructor"
    },
    {
      "anonymous": false,
      "inputs": [
        {
          "indexed": true,
          "internalType": "address",
          "name": "owner",
          "type": "address"
        },
        {
          "indexed": true,
          "internalType": "address",
          "name": "approved",
          "type": "address"
        },
        {
          "indexed": true,
          "internalType": "uint256",
          "name": "tokenId",
          "type": "uint256"
        }
      ],
      "name": "Approval",
      "type": "event"
    },
    {
      "anonymous": false,
      "inputs": [
        {
          "indexed": true,
          "internalType": "address",
          "name": "owner",
          "type": "address"
        },
        {
          "indexed": true,
          "internalType": "address",
          "name": "operator",
          "type": "address"
        },
        {
          "indexed": false,
          "internalType": "bool",
          "name": "approved",
          "type": "bool"
        }
      ],
      "name": "ApprovalForAll",
      "type": "event"
    },
    {
      "anonymous": false,
      "inputs": [
        {
          "indexed": true,
          "internalType": "bytes32",
          "name": "role",
          "type": "bytes32"
        },
        {
          "indexed": true,
          "internalType": "bytes32",
          "name": "previousAdminRole",
          "type": "bytes32"
        },
        {
          "indexed": true,
          "internalType": "bytes32",
          "name": "newAdminRole",
          "type": "bytes32"
        }
      ],
      "name": "RoleAdminChanged",
      "type": "event"
    },
    {
      "anonymous": false,
      "inputs": [
        {
          "indexed": true,
          "internalType": "bytes32",
          "name": "role",
          "type": "bytes32"
        },
        {
          "indexed": true,
          "internalType": "address",
          "name": "account",
          "type": "address"
        },
        {
          "indexed": true,
          "internalType": "address",
          "name": "sender",
          "type": "address"
        }
      ],
      "name": "RoleGranted",
      "type": "event"
    },
    {
      "anonymous": false,
      "inputs": [
        {
          "indexed": true,
          "internalType": "bytes32",
          "name": "role",
          "type": "bytes32"
        },
        {
          "indexed": true,
          "internalType": "address",
          "name": "account",
          "type": "address"
        },
        {
          "indexed": true,
          "internalType": "address",
          "name": "sender",
          "type": "address"
        }
      ],
      "name": "RoleRevoked",
      "type": "event"
    },
    {
      "anonymous": false,
      "inputs": [
        {
          "indexed": true,
          "internalType": "address",
          "name": "from",
          "type": "address"
        },
        {
          "indexed": true,
          "internalType": "address",
          "name": "to",
          "type": "address"
        },
        {
          "indexed": true,
          "internalType": "uint256",
          "name": "tokenId",
          "type": "uint256"
        }
      ],
      "name": "Transfer",
      "type": "event"
    },
    {
      "inputs": [],
      "name": "DEFAULT_ADMIN_ROLE",
      "outputs": [
        {
          "internalType": "bytes32",
          "name": "",
          "type": "bytes32"
        }
      ],
      "stateMutability": "view",
      "type": "function",
      "constant": true
    },
    {
      "inputs": [],
      "name": "DONOR",
      "outputs": [
        {
          "internalType": "bytes32",
          "name": "",
          "type": "bytes32"
        }
      ],
      "stateMutability": "view",
      "type": "function",
      "constant": true
    },
    {
      "inputs": [
        {
          "internalType": "address",
          "name": "to",
          "type": "address"
        },
        {
          "internalType": "uint256",
          "name": "tokenId",
          "type": "uint256"
        }
      ],
      "name": "approve",
      "outputs": [],
      "stateMutability": "nonpayable",
      "type": "function"
    },
    {
      "inputs": [
        {
          "internalType": "address",
          "name": "owner",
          "type": "address"
        }
      ],
      "name": "balanceOf",
      "outputs": [
        {
          "internalType": "uint256",
          "name": "",
          "type": "uint256"
        }
      ],
      "stateMutability": "view",
      "type": "function",
      "constant": true
    },
    {
      "inputs": [],
      "name": "baseURI",
      "outputs": [
        {
          "internalType": "string",
          "name": "",
          "type": "string"
        }
      ],
      "stateMutability": "view",
      "type": "function",
      "constant": true
    },
    {
      "inputs": [
        {
          "internalType": "uint256",
          "name": "",
          "type": "uint256"
        }
      ],
      "name": "donationList",
      "outputs": [
        {
          "internalType": "string",
          "name": "assetDescription",
          "type": "string"
        },
        {
          "internalType": "uint256",
          "name": "availablityDate",
          "type": "uint256"
        },
        {
          "internalType": "string",
          "name": "location",
          "type": "string"
        },
        {
          "internalType": "enum AssetDonation.Status",
          "name": "status",
          "type": "uint8"
        },
        {
          "internalType": "address",
          "name": "owner",
          "type": "address"
        },
        {
          "internalType": "address",
          "name": "recipient",
          "type": "address"
        },
        {
          "internalType": "uint256",
          "name": "DonatedDateFrom",
          "type": "uint256"
        },
        {
          "internalType": "uint256",
          "name": "DonatedDateTo",
          "type": "uint256"
        }
      ],
      "stateMutability": "view",
      "type": "function",
      "constant": true
    },
    {
      "inputs": [
        {
          "internalType": "uint256",
          "name": "tokenId",
          "type": "uint256"
        }
      ],
      "name": "getApproved",
      "outputs": [
        {
          "internalType": "address",
          "name": "",
          "type": "address"
        }
      ],
      "stateMutability": "view",
      "type": "function",
      "constant": true
    },
    {
      "inputs": [
        {
          "internalType": "bytes32",
          "name": "role",
          "type": "bytes32"
        }
      ],
      "name": "getRoleAdmin",
      "outputs": [
        {
          "internalType": "bytes32",
          "name": "",
          "type": "bytes32"
        }
      ],
      "stateMutability": "view",
      "type": "function",
      "constant": true
    },
    {
      "inputs": [
        {
          "internalType": "bytes32",
          "name": "role",
          "type": "bytes32"
        },
        {
          "internalType": "uint256",
          "name": "index",
          "type": "uint256"
        }
      ],
      "name": "getRoleMember",
      "outputs": [
        {
          "internalType": "address",
          "name": "",
          "type": "address"
        }
      ],
      "stateMutability": "view",
      "type": "function",
      "constant": true
    },
    {
      "inputs": [
        {
          "internalType": "bytes32",
          "name": "role",
          "type": "bytes32"
        }
      ],
      "name": "getRoleMemberCount",
      "outputs": [
        {
          "internalType": "uint256",
          "name": "",
          "type": "uint256"
        }
      ],
      "stateMutability": "view",
      "type": "function",
      "constant": true
    },
    {
      "inputs": [
        {
          "internalType": "bytes32",
          "name": "role",
          "type": "bytes32"
        },
        {
          "internalType": "address",
          "name": "account",
          "type": "address"
        }
      ],
      "name": "grantRole",
      "outputs": [],
      "stateMutability": "nonpayable",
      "type": "function"
    },
    {
      "inputs": [
        {
          "internalType": "bytes32",
          "name": "role",
          "type": "bytes32"
        },
        {
          "internalType": "address",
          "name": "account",
          "type": "address"
        }
      ],
      "name": "hasRole",
      "outputs": [
        {
          "internalType": "bool",
          "name": "",
          "type": "bool"
        }
      ],
      "stateMutability": "view",
      "type": "function",
      "constant": true
    },
    {
      "inputs": [
        {
          "internalType": "address",
          "name": "owner",
          "type": "address"
        },
        {
          "internalType": "address",
          "name": "operator",
          "type": "address"
        }
      ],
      "name": "isApprovedForAll",
      "outputs": [
        {
          "internalType": "bool",
          "name": "",
          "type": "bool"
        }
      ],
      "stateMutability": "view",
      "type": "function",
      "constant": true
    },
    {
      "inputs": [],
      "name": "name",
      "outputs": [
        {
          "internalType": "string",
          "name": "",
          "type": "string"
        }
      ],
      "stateMutability": "view",
      "type": "function",
      "constant": true
    },
    {
      "inputs": [
        {
          "internalType": "uint256",
          "name": "tokenId",
          "type": "uint256"
        }
      ],
      "name": "ownerOf",
      "outputs": [
        {
          "internalType": "address",
          "name": "",
          "type": "address"
        }
      ],
      "stateMutability": "view",
      "type": "function",
      "constant": true
    },
    {
      "inputs": [
        {
          "internalType": "bytes32",
          "name": "role",
          "type": "bytes32"
        },
        {
          "internalType": "address",
          "name": "account",
          "type": "address"
        }
      ],
      "name": "renounceRole",
      "outputs": [],
      "stateMutability": "nonpayable",
      "type": "function"
    },
    {
      "inputs": [
        {
          "internalType": "bytes32",
          "name": "role",
          "type": "bytes32"
        },
        {
          "internalType": "address",
          "name": "account",
          "type": "address"
        }
      ],
      "name": "revokeRole",
      "outputs": [],
      "stateMutability": "nonpayable",
      "type": "function"
    },
    {
      "inputs": [
        {
          "internalType": "address",
          "name": "from",
          "type": "address"
        },
        {
          "internalType": "address",
          "name": "to",
          "type": "address"
        },
        {
          "internalType": "uint256",
          "name": "tokenId",
          "type": "uint256"
        }
      ],
      "name": "safeTransferFrom",
      "outputs": [],
      "stateMutability": "nonpayable",
      "type": "function"
    },
    {
      "inputs": [
        {
          "internalType": "address",
          "name": "from",
          "type": "address"
        },
        {
          "internalType": "address",
          "name": "to",
          "type": "address"
        },
        {
          "internalType": "uint256",
          "name": "tokenId",
          "type": "uint256"
        },
        {
          "internalType": "bytes",
          "name": "_data",
          "type": "bytes"
        }
      ],
      "name": "safeTransferFrom",
      "outputs": [],
      "stateMutability": "nonpayable",
      "type": "function"
    },
    {
      "inputs": [
        {
          "internalType": "address",
          "name": "operator",
          "type": "address"
        },
        {
          "internalType": "bool",
          "name": "approved",
          "type": "bool"
        }
      ],
      "name": "setApprovalForAll",
      "outputs": [],
      "stateMutability": "nonpayable",
      "type": "function"
    },
    {
      "inputs": [
        {
          "internalType": "bytes4",
          "name": "interfaceId",
          "type": "bytes4"
        }
      ],
      "name": "supportsInterface",
      "outputs": [
        {
          "internalType": "bool",
          "name": "",
          "type": "bool"
        }
      ],
      "stateMutability": "view",
      "type": "function",
      "constant": true
    },
    {
      "inputs": [],
      "name": "symbol",
      "outputs": [
        {
          "internalType": "string",
          "name": "",
          "type": "string"
        }
      ],
      "stateMutability": "view",
      "type": "function",
      "constant": true
    },
    {
      "inputs": [
        {
          "internalType": "uint256",
          "name": "index",
          "type": "uint256"
        }
      ],
      "name": "tokenByIndex",
      "outputs": [
        {
          "internalType": "uint256",
          "name": "",
          "type": "uint256"
        }
      ],
      "stateMutability": "view",
      "type": "function",
      "constant": true
    },
    {
      "inputs": [
        {
          "internalType": "address",
          "name": "owner",
          "type": "address"
        },
        {
          "internalType": "uint256",
          "name": "index",
          "type": "uint256"
        }
      ],
      "name": "tokenOfOwnerByIndex",
      "outputs": [
        {
          "internalType": "uint256",
          "name": "",
          "type": "uint256"
        }
      ],
      "stateMutability": "view",
      "type": "function",
      "constant": true
    },
    {
      "inputs": [
        {
          "internalType": "uint256",
          "name": "tokenId",
          "type": "uint256"
        }
      ],
      "name": "tokenURI",
      "outputs": [
        {
          "internalType": "string",
          "name": "",
          "type": "string"
        }
      ],
      "stateMutability": "view",
      "type": "function",
      "constant": true
    },
    {
      "inputs": [],
      "name": "totalSupply",
      "outputs": [
        {
          "internalType": "uint256",
          "name": "",
          "type": "uint256"
        }
      ],
      "stateMutability": "view",
      "type": "function",
      "constant": true
    },
    {
      "inputs": [
        {
          "internalType": "address",
          "name": "from",
          "type": "address"
        },
        {
          "internalType": "address",
          "name": "to",
          "type": "address"
        },
        {
          "internalType": "uint256",
          "name": "tokenId",
          "type": "uint256"
        }
      ],
      "name": "transferFrom",
      "outputs": [],
      "stateMutability": "nonpayable",
      "type": "function"
    },
    {
      "inputs": [
        {
          "internalType": "address",
          "name": "assetOwner",
          "type": "address"
        }
      ],
      "name": "addDonar",
      "outputs": [],
      "stateMutability": "nonpayable",
      "type": "function"
    },
    {
      "inputs": [
        {
          "internalType": "string",
          "name": "assetDescription",
          "type": "string"
        },
        {
          "internalType": "uint256",
          "name": "availablityDate",
          "type": "uint256"
        },
        {
          "internalType": "string",
          "name": "location",
          "type": "string"
        }
      ],
      "name": "addAsset",
      "outputs": [],
      "stateMutability": "nonpayable",
      "type": "function"
    },
    {
      "inputs": [],
      "name": "getDonations",
      "outputs": [
        {
          "components": [
            {
              "internalType": "string",
              "name": "assetDescription",
              "type": "string"
            },
            {
              "internalType": "uint256",
              "name": "availablityDate",
              "type": "uint256"
            },
            {
              "internalType": "string",
              "name": "location",
              "type": "string"
            },
            {
              "internalType": "enum AssetDonation.Status",
              "name": "status",
              "type": "uint8"
            },
            {
              "internalType": "address",
              "name": "owner",
              "type": "address"
            },
            {
              "internalType": "address",
              "name": "recipient",
              "type": "address"
            },
            {
              "internalType": "uint256",
              "name": "DonatedDateFrom",
              "type": "uint256"
            },
            {
              "internalType": "uint256",
              "name": "DonatedDateTo",
              "type": "uint256"
            }
          ],
          "internalType": "struct AssetDonation.Asset[16]",
          "name": "",
          "type": "tuple[16]"
        }
      ],
      "stateMutability": "view",
      "type": "function",
      "constant": true
    },
    {
      "inputs": [
        {
          "internalType": "address",
          "name": "assetOwner",
          "type": "address"
        }
      ],
      "name": "mintToken",
      "outputs": [
        {
          "internalType": "uint256",
          "name": "",
          "type": "uint256"
        }
      ],
      "stateMutability": "nonpayable",
      "type": "function"
    },
    {
      "inputs": [
        {
          "internalType": "uint256",
          "name": "tokenId",
          "type": "uint256"
        },
        {
          "internalType": "address",
          "name": "recipientAddress",
          "type": "address"
        }
      ],
      "name": "donateAsset",
      "outputs": [],
      "stateMutability": "nonpayable",
      "type": "function"
    }
  ],
  "bytecode": "0x60806040523480156200001157600080fd5b506040518060400160405280600781526020017f4d79546f6b656e000000000000000000000000000000000000000000000000008152506040518060400160405280600381526020017f4d54530000000000000000000000000000000000000000000000000000000000815250620000966301ffc9a760e01b6200012860201b60201c565b8160069080519060200190620000ae92919062000200565b508060079080519060200190620000c792919062000200565b50620000e06380ac58cd60e01b6200012860201b60201c565b620000f8635b5e139f60e01b6200012860201b60201c565b6200011063780e9d6360e01b6200012860201b60201c565b50506000600b819055506000600c8190555062000324565b63ffffffff60e01b817bffffffffffffffffffffffffffffffffffffffffffffffffffffffff1916141562000194576040517f08c379a00000000000000000000000000000000000000000000000000000000081526004016200018b90620002f1565b60405180910390fd5b6001600080837bffffffffffffffffffffffffffffffffffffffffffffffffffffffff19167bffffffffffffffffffffffffffffffffffffffffffffffffffffffff1916815260200190815260200160002060006101000a81548160ff02191690831515021790555050565b828054600181600116156101000203166002900490600052602060002090601f016020900481019282601f106200024357805160ff191683800117855562000274565b8280016001018555821562000274579182015b828111156200027357825182559160200191906001019062000256565b5b50905062000283919062000287565b5090565b620002ac91905b80821115620002a85760008160009055506001016200028e565b5090565b90565b6000620002be601c8362000313565b91507f4552433136353a20696e76616c696420696e74657266616365206964000000006000830152602082019050919050565b600060208201905081810360008301526200030c81620002af565b9050919050565b600082825260208201905092915050565b6143ca80620003346000396000f3fe608060405234801561001057600080fd5b50600436106101f05760003560e01c80636352211e1161010f578063b88d4fde116100a2578063e15d046c11610071578063e15d046c1461061c578063e25f841614610638578063e985e9c514610656578063eebf36a114610686576101f0565b8063b88d4fde14610584578063c87b56dd146105a0578063ca15c873146105d0578063d547741f14610600576101f0565b806391d14854116100de57806391d14854146104fc57806395d89b411461052c578063a217fddf1461054a578063a22cb46514610568576101f0565b80636352211e1461044e5780636c0360eb1461047e57806370a082311461049c5780639010d07c146104cc576101f0565b806323b872dd1161018757806336568abe1161015657806336568abe146103c857806342842e0e146103e45780634576d251146104005780634f6ccce71461041e576101f0565b806323b872dd14610330578063248a9ca31461034c5780632f2ff15d1461037c5780632f745c5914610398576101f0565b8063081812fc116101c3578063081812fc146102aa578063095ea7b3146102da5780630e94ed19146102f657806318160ddd14610312576101f0565b806301173a74146101f557806301ffc9a7146102255780630238cbdc1461025557806306fdde031461028c575b600080fd5b61020f600480360361020a9190810190612df5565b6106a2565b60405161021c9190614065565b60405180910390f35b61023f600480360361023a919081019061303d565b6106c8565b60405161024c9190613d21565b60405180910390f35b61026f600480360361026a919081019061310e565b61072f565b604051610283989796959493929190613d79565b60405180910390f35b6102946108f4565b6040516102a19190613d57565b60405180910390f35b6102c460048036036102bf919081019061310e565b610996565b6040516102d19190613c98565b60405180910390f35b6102f460048036036102ef9190810190612f60565b610a1b565b005b610310600480360361030b9190810190613137565b610b33565b005b61031a610c25565b6040516103279190614065565b60405180910390f35b61034a60048036036103459190810190612e5a565b610c36565b005b61036660048036036103619190810190612f9c565b610c96565b6040516103739190613d3c565b60405180910390f35b61039660048036036103919190810190612fc5565b610cb6565b005b6103b260048036036103ad9190810190612f60565b610d2a565b6040516103bf9190614065565b60405180910390f35b6103e260048036036103dd9190810190612fc5565b610d85565b005b6103fe60048036036103f99190810190612e5a565b610e08565b005b610408610e28565b6040516104159190613d3c565b60405180910390f35b6104386004803603610433919081019061310e565b610e3f565b6040516104459190614065565b60405180910390f35b6104686004803603610463919081019061310e565b610e62565b6040516104759190613c98565b60405180910390f35b610486610e99565b6040516104939190613d57565b60405180910390f35b6104b660048036036104b19190810190612df5565b610f3b565b6040516104c39190614065565b60405180910390f35b6104e660048036036104e19190810190613001565b610ffa565b6040516104f39190613c98565b60405180910390f35b61051660048036036105119190810190612fc5565b61102c565b6040516105239190613d21565b60405180910390f35b61053461105e565b6040516105419190613d57565b60405180910390f35b610552611100565b60405161055f9190613d3c565b60405180910390f35b610582600480360361057d9190810190612f24565b611107565b005b61059e60048036036105999190810190612ea9565b611288565b005b6105ba60048036036105b5919081019061310e565b6112ea565b6040516105c79190613d57565b60405180910390f35b6105ea60048036036105e59190810190612f9c565b611475565b6040516105f79190614065565b60405180910390f35b61061a60048036036106159190810190612fc5565b61149c565b005b61063660048036036106319190810190612df5565b611510565b005b610640611530565b60405161064d9190613cff565b60405180910390f35b610670600480360361066b9190810190612e1e565b611809565b60405161067d9190613d21565b60405180910390f35b6106a0600480360361069b919081019061308f565b61189d565b005b60006106b082600b54611a4a565b600b6000815480929190600101919050559050919050565b6000806000837bffffffffffffffffffffffffffffffffffffffffffffffffffffffff19167bffffffffffffffffffffffffffffffffffffffffffffffffffffffff1916815260200190815260200160002060009054906101000a900460ff169050919050565b600d602052806000526040600020600091509050806000018054600181600116156101000203166002900480601f0160208091040260200160405190810160405280929190818152602001828054600181600116156101000203166002900480156107db5780601f106107b0576101008083540402835291602001916107db565b820191906000526020600020905b8154815290600101906020018083116107be57829003601f168201915b505050505090806001015490806002018054600181600116156101000203166002900480601f01602080910402602001604051908101604052809291908181526020018280546001816001161561010002031660029004801561087f5780601f106108545761010080835404028352916020019161087f565b820191906000526020600020905b81548152906001019060200180831161086257829003601f168201915b5050505050908060030160009054906101000a900460ff16908060030160019054906101000a900473ffffffffffffffffffffffffffffffffffffffff16908060040160009054906101000a900473ffffffffffffffffffffffffffffffffffffffff16908060050154908060060154905088565b606060068054600181600116156101000203166002900480601f01602080910402602001604051908101604052809291908181526020018280546001816001161561010002031660029004801561098c5780601f106109615761010080835404028352916020019161098c565b820191906000526020600020905b81548152906001019060200180831161096f57829003601f168201915b5050505050905090565b60006109a182611a68565b6109e0576040517f08c379a00000000000000000000000000000000000000000000000000000000081526004016109d790613f85565b60405180910390fd5b6004600083815260200190815260200160002060009054906101000a900473ffffffffffffffffffffffffffffffffffffffff169050919050565b6000610a2682610e62565b90508073ffffffffffffffffffffffffffffffffffffffff168373ffffffffffffffffffffffffffffffffffffffff161415610a97576040517f08c379a0000000000000000000000000000000000000000000000000000000008152600401610a8e90613fe5565b60405180910390fd5b8073ffffffffffffffffffffffffffffffffffffffff16610ab6611a85565b73ffffffffffffffffffffffffffffffffffffffff161480610ae55750610ae481610adf611a85565b611809565b5b610b24576040517f08c379a0000000000000000000000000000000000000000000000000000000008152600401610b1b90613f05565b60405180910390fd5b610b2e8383611a8d565b505050565b33610b51604051610b4390613c83565b60405180910390208261102c565b610b5a57600080fd5b82600073ffffffffffffffffffffffffffffffffffffffff16600d600083815260200190815260200160002060040160009054906101000a900473ffffffffffffffffffffffffffffffffffffffff1673ffffffffffffffffffffffffffffffffffffffff1614610bca57600080fd5b82600d600086815260200190815260200160002060040160006101000a81548173ffffffffffffffffffffffffffffffffffffffff021916908373ffffffffffffffffffffffffffffffffffffffff16021790555050505050565b6000610c316002611b46565b905090565b610c47610c41611a85565b82611b5b565b610c86576040517f08c379a0000000000000000000000000000000000000000000000000000000008152600401610c7d90614005565b60405180910390fd5b610c91838383611c39565b505050565b6000600a6000838152602001908152602001600020600201549050919050565b610cdd600a600084815260200190815260200160002060020154610cd8611a85565b61102c565b610d1c576040517f08c379a0000000000000000000000000000000000000000000000000000000008152600401610d1390613e25565b60405180910390fd5b610d268282611e50565b5050565b6000610d7d82600160008673ffffffffffffffffffffffffffffffffffffffff1673ffffffffffffffffffffffffffffffffffffffff168152602001908152602001600020611ee490919063ffffffff16565b905092915050565b610d8d611a85565b73ffffffffffffffffffffffffffffffffffffffff168173ffffffffffffffffffffffffffffffffffffffff1614610dfa576040517f08c379a0000000000000000000000000000000000000000000000000000000008152600401610df190614045565b60405180910390fd5b610e048282611efe565b5050565b610e2383838360405180602001604052806000815250611288565b505050565b604051610e3490613c83565b604051809103902081565b600080610e56836002611f9290919063ffffffff16565b50905080915050919050565b6000610e928260405180606001604052806029815260200161436c602991396002611fc19092919063ffffffff16565b9050919050565b606060098054600181600116156101000203166002900480601f016020809104026020016040519081016040528092919081815260200182805460018160011615610100020316600290048015610f315780601f10610f0657610100808354040283529160200191610f31565b820191906000526020600020905b815481529060010190602001808311610f1457829003601f168201915b5050505050905090565b60008073ffffffffffffffffffffffffffffffffffffffff168273ffffffffffffffffffffffffffffffffffffffff161415610fac576040517f08c379a0000000000000000000000000000000000000000000000000000000008152600401610fa390613f25565b60405180910390fd5b610ff3600160008473ffffffffffffffffffffffffffffffffffffffff1673ffffffffffffffffffffffffffffffffffffffff168152602001908152602001600020611fe0565b9050919050565b600061102482600a6000868152602001908152602001600020600001611ff590919063ffffffff16565b905092915050565b600061105682600a600086815260200190815260200160002060000161200f90919063ffffffff16565b905092915050565b606060078054600181600116156101000203166002900480601f0160208091040260200160405190810160405280929190818152602001828054600181600116156101000203166002900480156110f65780601f106110cb576101008083540402835291602001916110f6565b820191906000526020600020905b8154815290600101906020018083116110d957829003601f168201915b5050505050905090565b6000801b81565b61110f611a85565b73ffffffffffffffffffffffffffffffffffffffff168273ffffffffffffffffffffffffffffffffffffffff16141561117d576040517f08c379a000000000000000000000000000000000000000000000000000000000815260040161117490613ea5565b60405180910390fd5b806005600061118a611a85565b73ffffffffffffffffffffffffffffffffffffffff1673ffffffffffffffffffffffffffffffffffffffff16815260200190815260200160002060008473ffffffffffffffffffffffffffffffffffffffff1673ffffffffffffffffffffffffffffffffffffffff16815260200190815260200160002060006101000a81548160ff0219169083151502179055508173ffffffffffffffffffffffffffffffffffffffff16611237611a85565b73ffffffffffffffffffffffffffffffffffffffff167f17307eab39ab6107e8899845ad3d59bd9653f200f220920489ca2b5937696c318360405161127c9190613d21565b60405180910390a35050565b611299611293611a85565b83611b5b565b6112d8576040517f08c379a00000000000000000000000000000000000000000000000000000000081526004016112cf90614005565b60405180910390fd5b6112e48484848461203f565b50505050565b60606112f582611a68565b611334576040517f08c379a000000000000000000000000000000000000000000000000000000000815260040161132b90613fc5565b60405180910390fd5b6060600860008481526020019081526020016000208054600181600116156101000203166002900480601f0160208091040260200160405190810160405280929190818152602001828054600181600116156101000203166002900480156113dd5780601f106113b2576101008083540402835291602001916113dd565b820191906000526020600020905b8154815290600101906020018083116113c057829003601f168201915b5050505050905060006009805460018160011615610100020316600290049050141561140c5780915050611470565b6000815111156114415760098160405160200161142a929190613c5f565b604051602081830303815290604052915050611470565b600961144c8461209b565b60405160200161145d929190613c5f565b6040516020818303038152906040529150505b919050565b6000611495600a60008481526020019081526020016000206000016121cb565b9050919050565b6114c3600a6000848152602001908152602001600020600201546114be611a85565b61102c565b611502576040517f08c379a00000000000000000000000000000000000000000000000000000000081526004016114f990613ee5565b60405180910390fd5b61150c8282611efe565b5050565b61152d60405161151f90613c83565b604051809103902082610cb6565b50565b611538612b80565b600061154333610f3b565b905060008090506000611554612b80565b6010841161156457839250611569565b601092505b60008090505b838110156117fe576115813382610d2a565b9250600d600084815260200190815260200160002060405180610100016040529081600082018054600181600116156101000203166002900480601f01602080910402602001604051908101604052809291908181526020018280546001816001161561010002031660029004801561163b5780601f106116105761010080835404028352916020019161163b565b820191906000526020600020905b81548152906001019060200180831161161e57829003601f168201915b5050505050815260200160018201548152602001600282018054600181600116156101000203166002900480601f0160208091040260200160405190810160405280929190818152602001828054600181600116156101000203166002900480156116e75780601f106116bc576101008083540402835291602001916116e7565b820191906000526020600020905b8154815290600101906020018083116116ca57829003601f168201915b505050505081526020016003820160009054906101000a900460ff16600381111561170e57fe5b600381111561171957fe5b81526020016003820160019054906101000a900473ffffffffffffffffffffffffffffffffffffffff1673ffffffffffffffffffffffffffffffffffffffff1673ffffffffffffffffffffffffffffffffffffffff1681526020016004820160009054906101000a900473ffffffffffffffffffffffffffffffffffffffff1673ffffffffffffffffffffffffffffffffffffffff1673ffffffffffffffffffffffffffffffffffffffff168152602001600582015481526020016006820154815250508282601081106117e957fe5b6020020181905250808060010191505061156f565b508094505050505090565b6000600560008473ffffffffffffffffffffffffffffffffffffffff1673ffffffffffffffffffffffffffffffffffffffff16815260200190815260200160002060008373ffffffffffffffffffffffffffffffffffffffff1673ffffffffffffffffffffffffffffffffffffffff16815260200190815260200160002060009054906101000a900460ff16905092915050565b60006118a8336106a2565b9050604051806101000160405280858152602001848152602001838152602001600060038111156118d557fe5b81526020013373ffffffffffffffffffffffffffffffffffffffff168152602001600073ffffffffffffffffffffffffffffffffffffffff168152602001600081526020016000815250600d6000838152602001908152602001600020600082015181600001908051906020019061194e929190612bae565b50602082015181600101556040820151816002019080519060200190611975929190612bae565b5060608201518160030160006101000a81548160ff0219169083600381111561199a57fe5b021790555060808201518160030160016101000a81548173ffffffffffffffffffffffffffffffffffffffff021916908373ffffffffffffffffffffffffffffffffffffffff16021790555060a08201518160040160006101000a81548173ffffffffffffffffffffffffffffffffffffffff021916908373ffffffffffffffffffffffffffffffffffffffff16021790555060c0820151816005015560e0820151816006015590505050505050565b611a648282604051806020016040528060008152506121e0565b5050565b6000611a7e82600261223b90919063ffffffff16565b9050919050565b600033905090565b816004600083815260200190815260200160002060006101000a81548173ffffffffffffffffffffffffffffffffffffffff021916908373ffffffffffffffffffffffffffffffffffffffff160217905550808273ffffffffffffffffffffffffffffffffffffffff16611b0083610e62565b73ffffffffffffffffffffffffffffffffffffffff167f8c5be1e5ebec7d5bd14f71427d1e84f3dd0314c0f7b2291e5b200ac8c7c3b92560405160405180910390a45050565b6000611b5482600001612255565b9050919050565b6000611b6682611a68565b611ba5576040517f08c379a0000000000000000000000000000000000000000000000000000000008152600401611b9c90613ec5565b60405180910390fd5b6000611bb083610e62565b90508073ffffffffffffffffffffffffffffffffffffffff168473ffffffffffffffffffffffffffffffffffffffff161480611c1f57508373ffffffffffffffffffffffffffffffffffffffff16611c0784610996565b73ffffffffffffffffffffffffffffffffffffffff16145b80611c305750611c2f8185611809565b5b91505092915050565b8273ffffffffffffffffffffffffffffffffffffffff16611c5982610e62565b73ffffffffffffffffffffffffffffffffffffffff1614611caf576040517f08c379a0000000000000000000000000000000000000000000000000000000008152600401611ca690613fa5565b60405180910390fd5b600073ffffffffffffffffffffffffffffffffffffffff168273ffffffffffffffffffffffffffffffffffffffff161415611d1f576040517f08c379a0000000000000000000000000000000000000000000000000000000008152600401611d1690613e85565b60405180910390fd5b611d2a838383612266565b611d35600082611a8d565b611d8681600160008673ffffffffffffffffffffffffffffffffffffffff1673ffffffffffffffffffffffffffffffffffffffff16815260200190815260200160002061226b90919063ffffffff16565b50611dd881600160008573ffffffffffffffffffffffffffffffffffffffff1673ffffffffffffffffffffffffffffffffffffffff16815260200190815260200160002061228590919063ffffffff16565b50611def8183600261229f9092919063ffffffff16565b50808273ffffffffffffffffffffffffffffffffffffffff168473ffffffffffffffffffffffffffffffffffffffff167fddf252ad1be2c89b69c2b068fc378daa952ba7f163c4a11628f55a4df523b3ef60405160405180910390a4505050565b611e7881600a60008581526020019081526020016000206000016122d490919063ffffffff16565b15611ee057611e85611a85565b73ffffffffffffffffffffffffffffffffffffffff168173ffffffffffffffffffffffffffffffffffffffff16837f2f8788117e7eff1d82e926ec794901d17c78024a50270940304540a733656f0d60405160405180910390a45b5050565b6000611ef38360000183612304565b60001c905092915050565b611f2681600a600085815260200190815260200160002060000161237190919063ffffffff16565b15611f8e57611f33611a85565b73ffffffffffffffffffffffffffffffffffffffff168173ffffffffffffffffffffffffffffffffffffffff16837ff6391f5c32d9c69d2a47ea670b442974b53935d1edc7fd64eb21e047a839171b60405160405180910390a45b5050565b600080600080611fa586600001866123a1565b915091508160001c8160001c8090509350935050509250929050565b6000611fd4846000018460001b84612424565b60001c90509392505050565b6000611fee826000016124b5565b9050919050565b60006120048360000183612304565b60001c905092915050565b6000612037836000018373ffffffffffffffffffffffffffffffffffffffff1660001b6124c6565b905092915050565b61204a848484611c39565b612056848484846124e9565b612095576040517f08c379a000000000000000000000000000000000000000000000000000000000815260040161208c90613e45565b60405180910390fd5b50505050565b606060008214156120e3576040518060400160405280600181526020017f300000000000000000000000000000000000000000000000000000000000000081525090506121c6565b600082905060005b6000821461210d578080600101915050600a828161210557fe5b0491506120eb565b6060816040519080825280601f01601f1916602001820160405280156121425781602001600182028038833980820191505090505b50905060006001830390508593505b600084146121be57600a848161216357fe5b0660300160f81b8282806001900393508151811061217d57fe5b60200101907effffffffffffffffffffffffffffffffffffffffffffffffffffffffffffff1916908160001a905350600a84816121b657fe5b049350612151565b819450505050505b919050565b60006121d9826000016124b5565b9050919050565b6121ea838361264d565b6121f760008484846124e9565b612236576040517f08c379a000000000000000000000000000000000000000000000000000000000815260040161222d90613e45565b60405180910390fd5b505050565b600061224d836000018360001b6127db565b905092915050565b600081600001805490509050919050565b505050565b600061227d836000018360001b6127fe565b905092915050565b6000612297836000018360001b6128e6565b905092915050565b60006122cb846000018460001b8473ffffffffffffffffffffffffffffffffffffffff1660001b612956565b90509392505050565b60006122fc836000018373ffffffffffffffffffffffffffffffffffffffff1660001b6128e6565b905092915050565b60008183600001805490501161234f576040517f08c379a000000000000000000000000000000000000000000000000000000000815260040161234690613e05565b60405180910390fd5b82600001828154811061235e57fe5b9060005260206000200154905092915050565b6000612399836000018373ffffffffffffffffffffffffffffffffffffffff1660001b6127fe565b905092915050565b600080828460000180549050116123ed576040517f08c379a00000000000000000000000000000000000000000000000000000000081526004016123e490613f45565b60405180910390fd5b60008460000184815481106123fe57fe5b906000526020600020906002020190508060000154816001015492509250509250929050565b60008084600101600085815260200190815260200160002054905060008114158390612486576040517f08c379a000000000000000000000000000000000000000000000000000000000815260040161247d9190613d57565b60405180910390fd5b5084600001600182038154811061249957fe5b9060005260206000209060020201600101549150509392505050565b600081600001805490509050919050565b600080836001016000848152602001908152602001600020541415905092915050565b600061250a8473ffffffffffffffffffffffffffffffffffffffff16612a32565b6125175760019050612645565b60606125de63150b7a0260e01b61252c611a85565b8887876040516024016125429493929190613cb3565b604051602081830303815290604052907bffffffffffffffffffffffffffffffffffffffffffffffffffffffff19166020820180517bffffffffffffffffffffffffffffffffffffffffffffffffffffffff838183161783525050505060405180606001604052806032815260200161433a603291398773ffffffffffffffffffffffffffffffffffffffff16612a459092919063ffffffff16565b90506000818060200190516125f69190810190613066565b905063150b7a0260e01b7bffffffffffffffffffffffffffffffffffffffffffffffffffffffff1916817bffffffffffffffffffffffffffffffffffffffffffffffffffffffff191614925050505b949350505050565b600073ffffffffffffffffffffffffffffffffffffffff168273ffffffffffffffffffffffffffffffffffffffff1614156126bd576040517f08c379a00000000000000000000000000000000000000000000000000000000081526004016126b490613f65565b60405180910390fd5b6126c681611a68565b15612706576040517f08c379a00000000000000000000000000000000000000000000000000000000081526004016126fd90613e65565b60405180910390fd5b61271260008383612266565b61276381600160008573ffffffffffffffffffffffffffffffffffffffff1673ffffffffffffffffffffffffffffffffffffffff16815260200190815260200160002061228590919063ffffffff16565b5061277a8183600261229f9092919063ffffffff16565b50808273ffffffffffffffffffffffffffffffffffffffff16600073ffffffffffffffffffffffffffffffffffffffff167fddf252ad1be2c89b69c2b068fc378daa952ba7f163c4a11628f55a4df523b3ef60405160405180910390a45050565b600080836001016000848152602001908152602001600020541415905092915050565b600080836001016000848152602001908152602001600020549050600081146128da576000600182039050600060018660000180549050039050600086600001828154811061284957fe5b906000526020600020015490508087600001848154811061286657fe5b906000526020600020018190555060018301876001016000838152602001908152602001600020819055508660000180548061289e57fe5b600190038181906000526020600020016000905590558660010160008781526020019081526020016000206000905560019450505050506128e0565b60009150505b92915050565b60006128f283836124c6565b61294b578260000182908060018154018082558091505060019003906000526020600020016000909190919091505582600001805490508360010160008481526020019081526020016000208190555060019050612950565b600090505b92915050565b60008084600101600085815260200190815260200160002054905060008114156129fd57846000016040518060400160405280868152602001858152509080600181540180825580915050600190039060005260206000209060020201600090919091909150600082015181600001556020820151816001015550508460000180549050856001016000868152602001908152602001600020819055506001915050612a2b565b82856000016001830381548110612a1057fe5b90600052602060002090600202016001018190555060009150505b9392505050565b600080823b905060008111915050919050565b6060612a548484600085612a5d565b90509392505050565b6060612a6885612a32565b612aa7576040517f08c379a0000000000000000000000000000000000000000000000000000000008152600401612a9e90614025565b60405180910390fd5b600060608673ffffffffffffffffffffffffffffffffffffffff168587604051612ad19190613c48565b60006040518083038185875af1925050503d8060008114612b0e576040519150601f19603f3d011682016040523d82523d6000602084013e612b13565b606091505b50915091508115612b28578092505050612b78565b600081511115612b3b5780518082602001fd5b836040517f08c379a0000000000000000000000000000000000000000000000000000000008152600401612b6f9190613d57565b60405180910390fd5b949350505050565b6040518061020001604052806010905b612b98612c2e565b815260200190600190039081612b905790505090565b828054600181600116156101000203166002900490600052602060002090601f016020900481019282601f10612bef57805160ff1916838001178555612c1d565b82800160010185558215612c1d579182015b82811115612c1c578251825591602001919060010190612c01565b5b509050612c2a9190612caa565b5090565b60405180610100016040528060608152602001600081526020016060815260200160006003811115612c5c57fe5b8152602001600073ffffffffffffffffffffffffffffffffffffffff168152602001600073ffffffffffffffffffffffffffffffffffffffff16815260200160008152602001600081525090565b612ccc91905b80821115612cc8576000816000905550600101612cb0565b5090565b90565b600081359050612cde816142c6565b92915050565b600081359050612cf3816142dd565b92915050565b600081359050612d08816142f4565b92915050565b600081359050612d1d8161430b565b92915050565b600081519050612d328161430b565b92915050565b600082601f830112612d4957600080fd5b8135612d5c612d57826140ad565b614080565b91508082526020830160208301858383011115612d7857600080fd5b612d83838284614266565b50505092915050565b600082601f830112612d9d57600080fd5b8135612db0612dab826140d9565b614080565b91508082526020830160208301858383011115612dcc57600080fd5b612dd7838284614266565b50505092915050565b600081359050612def81614322565b92915050565b600060208284031215612e0757600080fd5b6000612e1584828501612ccf565b91505092915050565b60008060408385031215612e3157600080fd5b6000612e3f85828601612ccf565b9250506020612e5085828601612ccf565b9150509250929050565b600080600060608486031215612e6f57600080fd5b6000612e7d86828701612ccf565b9350506020612e8e86828701612ccf565b9250506040612e9f86828701612de0565b9150509250925092565b60008060008060808587031215612ebf57600080fd5b6000612ecd87828801612ccf565b9450506020612ede87828801612ccf565b9350506040612eef87828801612de0565b925050606085013567ffffffffffffffff811115612f0c57600080fd5b612f1887828801612d38565b91505092959194509250565b60008060408385031215612f3757600080fd5b6000612f4585828601612ccf565b9250506020612f5685828601612ce4565b9150509250929050565b60008060408385031215612f7357600080fd5b6000612f8185828601612ccf565b9250506020612f9285828601612de0565b9150509250929050565b600060208284031215612fae57600080fd5b6000612fbc84828501612cf9565b91505092915050565b60008060408385031215612fd857600080fd5b6000612fe685828601612cf9565b9250506020612ff785828601612ccf565b9150509250929050565b6000806040838503121561301457600080fd5b600061302285828601612cf9565b925050602061303385828601612de0565b9150509250929050565b60006020828403121561304f57600080fd5b600061305d84828501612d0e565b91505092915050565b60006020828403121561307857600080fd5b600061308684828501612d23565b91505092915050565b6000806000606084860312156130a457600080fd5b600084013567ffffffffffffffff8111156130be57600080fd5b6130ca86828701612d8c565b93505060206130db86828701612de0565b925050604084013567ffffffffffffffff8111156130f857600080fd5b61310486828701612d8c565b9150509250925092565b60006020828403121561312057600080fd5b600061312e84828501612de0565b91505092915050565b6000806040838503121561314a57600080fd5b600061315885828601612de0565b925050602061316985828601612ccf565b9150509250929050565b600061317f8383613b73565b905092915050565b613190816141c3565b82525050565b61319f816141b1565b82525050565b6131ae816141b1565b82525050565b60006131bf82614124565b6131c9818561415d565b9350836020820285016131db85614105565b8060005b8581101561321757848403895281516131f88582613173565b945061320383614150565b925060208a019950506001810190506131df565b50829750879550505050505092915050565b613232816141d5565b82525050565b613241816141e1565b82525050565b60006132528261412f565b61325c8185614168565b935061326c818560208601614275565b613275816142a8565b840191505092915050565b600061328b8261412f565b6132958185614179565b93506132a5818560208601614275565b80840191505092915050565b6132ba81614254565b82525050565b6132c981614254565b82525050565b60006132da82614145565b6132e48185614195565b93506132f4818560208601614275565b6132fd816142a8565b840191505092915050565b600061331382614145565b61331d81856141a6565b935061332d818560208601614275565b80840191505092915050565b60006133448261413a565b61334e8185614184565b935061335e818560208601614275565b613367816142a8565b840191505092915050565b600061337d8261413a565b6133878185614195565b9350613397818560208601614275565b6133a0816142a8565b840191505092915050565b6000815460018116600081146133c857600181146133ed57613431565b607f60028304166133d981876141a6565b955060ff1983168652808601935050613431565b600282046133fb81876141a6565b95506134068561410f565b60005b8281101561342857815481890152600182019150602081019050613409565b82880195505050505b505092915050565b6000613446602283614195565b91507f456e756d657261626c655365743a20696e646578206f7574206f6620626f756e60008301527f64730000000000000000000000000000000000000000000000000000000000006020830152604082019050919050565b60006134ac602f83614195565b91507f416363657373436f6e74726f6c3a2073656e646572206d75737420626520616e60008301527f2061646d696e20746f206772616e7400000000000000000000000000000000006020830152604082019050919050565b6000613512603283614195565b91507f4552433732313a207472616e7366657220746f206e6f6e20455243373231526560008301527f63656976657220696d706c656d656e74657200000000000000000000000000006020830152604082019050919050565b6000613578601c83614195565b91507f4552433732313a20746f6b656e20616c7265616479206d696e746564000000006000830152602082019050919050565b60006135b8602483614195565b91507f4552433732313a207472616e7366657220746f20746865207a65726f2061646460008301527f72657373000000000000000000000000000000000000000000000000000000006020830152604082019050919050565b600061361e601983614195565b91507f4552433732313a20617070726f766520746f2063616c6c6572000000000000006000830152602082019050919050565b600061365e602c83614195565b91507f4552433732313a206f70657261746f7220717565727920666f72206e6f6e657860008301527f697374656e7420746f6b656e00000000000000000000000000000000000000006020830152604082019050919050565b60006136c4603083614195565b91507f416363657373436f6e74726f6c3a2073656e646572206d75737420626520616e60008301527f2061646d696e20746f207265766f6b65000000000000000000000000000000006020830152604082019050919050565b600061372a603883614195565b91507f4552433732313a20617070726f76652063616c6c6572206973206e6f74206f7760008301527f6e6572206e6f7220617070726f76656420666f7220616c6c00000000000000006020830152604082019050919050565b60006137906005836141a6565b91507f444f4e4f520000000000000000000000000000000000000000000000000000006000830152600582019050919050565b60006137d0602a83614195565b91507f4552433732313a2062616c616e636520717565727920666f7220746865207a6560008301527f726f2061646472657373000000000000000000000000000000000000000000006020830152604082019050919050565b6000613836602283614195565b91507f456e756d657261626c654d61703a20696e646578206f7574206f6620626f756e60008301527f64730000000000000000000000000000000000000000000000000000000000006020830152604082019050919050565b600061389c602083614195565b91507f4552433732313a206d696e7420746f20746865207a65726f20616464726573736000830152602082019050919050565b60006138dc602c83614195565b91507f4552433732313a20617070726f76656420717565727920666f72206e6f6e657860008301527f697374656e7420746f6b656e00000000000000000000000000000000000000006020830152604082019050919050565b6000613942602983614195565b91507f4552433732313a207472616e73666572206f6620746f6b656e2074686174206960008301527f73206e6f74206f776e00000000000000000000000000000000000000000000006020830152604082019050919050565b60006139a8602f83614195565b91507f4552433732314d657461646174613a2055524920717565727920666f72206e6f60008301527f6e6578697374656e7420746f6b656e00000000000000000000000000000000006020830152604082019050919050565b6000613a0e602183614195565b91507f4552433732313a20617070726f76616c20746f2063757272656e74206f776e6560008301527f72000000000000000000000000000000000000000000000000000000000000006020830152604082019050919050565b6000613a74603183614195565b91507f4552433732313a207472616e736665722063616c6c6572206973206e6f74206f60008301527f776e6572206e6f7220617070726f7665640000000000000000000000000000006020830152604082019050919050565b6000613ada601d83614195565b91507f416464726573733a2063616c6c20746f206e6f6e2d636f6e74726163740000006000830152602082019050919050565b6000613b1a602f83614195565b91507f416363657373436f6e74726f6c3a2063616e206f6e6c792072656e6f756e636560008301527f20726f6c657320666f722073656c6600000000000000000000000000000000006020830152604082019050919050565b6000610100830160008301518482036000860152613b918282613339565b9150506020830151613ba66020860182613c2a565b5060408301518482036040860152613bbe8282613339565b9150506060830151613bd360608601826132b1565b506080830151613be66080860182613196565b5060a0830151613bf960a0860182613196565b5060c0830151613c0c60c0860182613c2a565b5060e0830151613c1f60e0860182613c2a565b508091505092915050565b613c338161424a565b82525050565b613c428161424a565b82525050565b6000613c548284613280565b915081905092915050565b6000613c6b82856133ab565b9150613c778284613308565b91508190509392505050565b6000613c8e82613783565b9150819050919050565b6000602082019050613cad60008301846131a5565b92915050565b6000608082019050613cc86000830187613187565b613cd560208301866131a5565b613ce26040830185613c39565b8181036060830152613cf48184613247565b905095945050505050565b60006020820190508181036000830152613d1981846131b4565b905092915050565b6000602082019050613d366000830184613229565b92915050565b6000602082019050613d516000830184613238565b92915050565b60006020820190508181036000830152613d7181846132cf565b905092915050565b6000610100820190508181036000830152613d94818b613372565b9050613da3602083018a613c39565b8181036040830152613db58189613372565b9050613dc460608301886132c0565b613dd160808301876131a5565b613dde60a08301866131a5565b613deb60c0830185613c39565b613df860e0830184613c39565b9998505050505050505050565b60006020820190508181036000830152613e1e81613439565b9050919050565b60006020820190508181036000830152613e3e8161349f565b9050919050565b60006020820190508181036000830152613e5e81613505565b9050919050565b60006020820190508181036000830152613e7e8161356b565b9050919050565b60006020820190508181036000830152613e9e816135ab565b9050919050565b60006020820190508181036000830152613ebe81613611565b9050919050565b60006020820190508181036000830152613ede81613651565b9050919050565b60006020820190508181036000830152613efe816136b7565b9050919050565b60006020820190508181036000830152613f1e8161371d565b9050919050565b60006020820190508181036000830152613f3e816137c3565b9050919050565b60006020820190508181036000830152613f5e81613829565b9050919050565b60006020820190508181036000830152613f7e8161388f565b9050919050565b60006020820190508181036000830152613f9e816138cf565b9050919050565b60006020820190508181036000830152613fbe81613935565b9050919050565b60006020820190508181036000830152613fde8161399b565b9050919050565b60006020820190508181036000830152613ffe81613a01565b9050919050565b6000602082019050818103600083015261401e81613a67565b9050919050565b6000602082019050818103600083015261403e81613acd565b9050919050565b6000602082019050818103600083015261405e81613b0d565b9050919050565b600060208201905061407a6000830184613c39565b92915050565b6000604051905081810181811067ffffffffffffffff821117156140a357600080fd5b8060405250919050565b600067ffffffffffffffff8211156140c457600080fd5b601f19601f8301169050602081019050919050565b600067ffffffffffffffff8211156140f057600080fd5b601f19601f8301169050602081019050919050565b6000819050919050565b60008190508160005260206000209050919050565b600060109050919050565b600081519050919050565b600081519050919050565b600081519050919050565b6000602082019050919050565b600081905092915050565b600082825260208201905092915050565b600081905092915050565b600082825260208201905092915050565b600082825260208201905092915050565b600081905092915050565b60006141bc8261422a565b9050919050565b60006141ce8261422a565b9050919050565b60008115159050919050565b6000819050919050565b60007fffffffff0000000000000000000000000000000000000000000000000000000082169050919050565b6000819050614225826142b9565b919050565b600073ffffffffffffffffffffffffffffffffffffffff82169050919050565b6000819050919050565b600061425f82614217565b9050919050565b82818337600083830152505050565b60005b83811015614293578082015181840152602081019050614278565b838111156142a2576000848401525b50505050565b6000601f19601f8301169050919050565b600481106142c357fe5b50565b6142cf816141b1565b81146142da57600080fd5b50565b6142e6816141d5565b81146142f157600080fd5b50565b6142fd816141e1565b811461430857600080fd5b50565b614314816141eb565b811461431f57600080fd5b50565b61432b8161424a565b811461433657600080fd5b5056fe4552433732313a207472616e7366657220746f206e6f6e20455243373231526563656976657220696d706c656d656e7465724552433732313a206f776e657220717565727920666f72206e6f6e6578697374656e7420746f6b656ea264697066735822122017104fd5690f655cd52b0df89582a35a92541b36b831269e7cf01be66addd09e64736f6c63430006020033",
  "source": "// SPDX-License-Identifier: MIT\npragma solidity ^0.6.2;\npragma experimental ABIEncoderV2;\n\nimport \"@openzeppelin/contracts/token/ERC721/ERC721.sol\";\nimport \"@openzeppelin/contracts/access/AccessControl.sol\";\n\ncontract AssetDonation is ERC721, AccessControl {\n\n\n    uint256 lastAssetId;\n    uint256 lastRequestId;\n\n\n    constructor() ERC721(\"MyToken\",\"MTS\") AccessControl() public {\n      lastAssetId = 0;\n      lastRequestId = 0;\n    }\n\n    bytes32 public constant DONOR = keccak256(\"DONOR\");\n    //bytes32 public constant RECEIVER = keccak256(\"RECEIVER\");\n\n    enum Status {Free, Donated, Inactive, Burned}\n\n    // struct AssetType{\n    //   string assetType;\n    // }\n\n    struct Asset {\n        string assetDescription;\n        uint256 availablityDate;\n        string location;\n        Status status;\n        address owner;\n        address recipient;\n        uint256 DonatedDateFrom;\n        uint256 DonatedDateTo;\n        //   AssetType assetType;\n    }\n    mapping(uint256 => Asset) public donationList;\n    modifier isDonor(address donorAddress) {\n        require(hasRole(DONOR, donorAddress));\n        _;\n    }\n\n    function addDonar(address assetOwner) public {\n        grantRole(DONOR, assetOwner);\n    }\n\n    function addAsset(\n        string memory assetDescription,\n        uint256 availablityDate,\n        string memory location\n    ) public /*isDonor(msg.sender)*/ {\n        uint256 assetId = mintToken(msg.sender);\n        donationList[assetId] = Asset({\n            assetDescription: assetDescription,\n            availablityDate: availablityDate,\n            location: location,\n            status: Status.Free,\n            owner: msg.sender,\n            recipient: address(0),\n            DonatedDateFrom: 0,\n            DonatedDateTo: 0\n        });\n    }\n\n    function getDonations() public view returns (Asset[16] memory) {\n        uint tokenCount = balanceOf(msg.sender);\n        uint index = 0;\n        uint tokenId;\n        Asset[16] memory assetList;\n        if(tokenCount <= 16){\n            index = tokenCount;\n        }\n        else{\n            index = 16;\n        }\n        for(uint i = 0; i < index; i++){\n            tokenId = tokenOfOwnerByIndex(msg.sender,i);\n            assetList[i]=donationList[tokenId];\n        } \n        return assetList;\n    }\n\n    function mintToken(address assetOwner) public returns (uint256) {\n        _safeMint(assetOwner, lastAssetId);\n        return lastAssetId++;\n    }\n\n    modifier assetIsFree(uint tokenId){\n      require(donationList[tokenId].recipient == address(0));\n      _;\n    }\n\n    function donateAsset(uint tokenId,address recipientAddress)isDonor(msg.sender) assetIsFree(tokenId)  public{\n      donationList[tokenId].recipient = recipientAddress;\n    }\n    // function addAsset(address assetOwner, string memory ownerName,AssetType memory assetType) isDonor public{\n    //   _safeMint(assetOwner, lastAssetId);\n    //   donationList[lastAssetId]=Asset({ownerName:ownerName,status:Status.Free,recipient:address(0),assetType:assetType});\n    //   lastAssetId ++;\n    // }\n\n    // struct AssetRequest{\n    //   address recipient;\n    //   AssetType assetType;\n    // }\n\n    // mapping (uint => AssetRequest) public requestList;\n\n\n    // modifier isRecipient(address recipientAddress){\n    //   _;\n    // }\n    // modifier isDonor(address donorAddress){\n    //   _;\n    // }\n\n\n    // function requestAsset(address recipientAddress, AssetType memory assetType) isRecipient public{\n    //   requestList[lastRequestId] = AssetRequest({recipientAddress:recipientAddress,assetType:assetType});\n    // }\n\n}\n",
  "sourcePath": "/home/fatemeh/Desktop/Consensys Course/assetdonation/AssetDonation/contracts/AssetDonation.sol",
  "compiler": {
    "name": "solc",
    "version": "0.6.2+commit.bacdbe57.Emscripten.clang"
  },
  "schemaVersion": "3.3.1",
  "updatedAt": "2020-11-23T01:19:10.809Z",
  "networkType": "ethereum",
  "devdoc": {
    "methods": {
      "approve(address,uint256)": {
        "details": "See {IERC721-approve}."
      },
      "balanceOf(address)": {
        "details": "See {IERC721-balanceOf}."
      },
      "baseURI()": {
        "details": "Returns the base URI set via {_setBaseURI}. This will be automatically added as a prefix in {tokenURI} to each token's URI, or to the token ID if no specific URI is set for that token ID."
      },
      "getApproved(uint256)": {
        "details": "See {IERC721-getApproved}."
      },
      "getRoleAdmin(bytes32)": {
        "details": "Returns the admin role that controls `role`. See {grantRole} and {revokeRole}.     * To change a role's admin, use {_setRoleAdmin}."
      },
      "getRoleMember(bytes32,uint256)": {
        "details": "Returns one of the accounts that have `role`. `index` must be a value between 0 and {getRoleMemberCount}, non-inclusive.     * Role bearers are not sorted in any particular way, and their ordering may change at any point.     * WARNING: When using {getRoleMember} and {getRoleMemberCount}, make sure you perform all queries on the same block. See the following https://forum.openzeppelin.com/t/iterating-over-elements-on-enumerableset-in-openzeppelin-contracts/2296[forum post] for more information."
      },
      "getRoleMemberCount(bytes32)": {
        "details": "Returns the number of accounts that have `role`. Can be used together with {getRoleMember} to enumerate all bearers of a role."
      },
      "grantRole(bytes32,address)": {
        "details": "Grants `role` to `account`.     * If `account` had not been already granted `role`, emits a {RoleGranted} event.     * Requirements:     * - the caller must have ``role``'s admin role."
      },
      "hasRole(bytes32,address)": {
        "details": "Returns `true` if `account` has been granted `role`."
      },
      "isApprovedForAll(address,address)": {
        "details": "See {IERC721-isApprovedForAll}."
      },
      "name()": {
        "details": "See {IERC721Metadata-name}."
      },
      "ownerOf(uint256)": {
        "details": "See {IERC721-ownerOf}."
      },
      "renounceRole(bytes32,address)": {
        "details": "Revokes `role` from the calling account.     * Roles are often managed via {grantRole} and {revokeRole}: this function's purpose is to provide a mechanism for accounts to lose their privileges if they are compromised (such as when a trusted device is misplaced).     * If the calling account had been granted `role`, emits a {RoleRevoked} event.     * Requirements:     * - the caller must be `account`."
      },
      "revokeRole(bytes32,address)": {
        "details": "Revokes `role` from `account`.     * If `account` had been granted `role`, emits a {RoleRevoked} event.     * Requirements:     * - the caller must have ``role``'s admin role."
      },
      "safeTransferFrom(address,address,uint256)": {
        "details": "See {IERC721-safeTransferFrom}."
      },
      "safeTransferFrom(address,address,uint256,bytes)": {
        "details": "See {IERC721-safeTransferFrom}."
      },
      "setApprovalForAll(address,bool)": {
        "details": "See {IERC721-setApprovalForAll}."
      },
      "supportsInterface(bytes4)": {
        "details": "See {IERC165-supportsInterface}.     * Time complexity O(1), guaranteed to always use less than 30 000 gas."
      },
      "symbol()": {
        "details": "See {IERC721Metadata-symbol}."
      },
      "tokenByIndex(uint256)": {
        "details": "See {IERC721Enumerable-tokenByIndex}."
      },
      "tokenOfOwnerByIndex(address,uint256)": {
        "details": "See {IERC721Enumerable-tokenOfOwnerByIndex}."
      },
      "tokenURI(uint256)": {
        "details": "See {IERC721Metadata-tokenURI}."
      },
      "totalSupply()": {
        "details": "See {IERC721Enumerable-totalSupply}."
      },
      "transferFrom(address,address,uint256)": {
        "details": "See {IERC721-transferFrom}."
      }
    }
  },
  "userdoc": {
    "methods": {}
  }
}