{
  "contractName": "AssetDonation",
  "abi": [
    {
      "inputs": [],
      "stateMutability": "nonpayable",
      "type": "constructor"
    },
    {
      "anonymous": false,
      "inputs": [
        {
          "indexed": true,
          "internalType": "address",
          "name": "owner",
          "type": "address"
        },
        {
          "indexed": true,
          "internalType": "address",
          "name": "approved",
          "type": "address"
        },
        {
          "indexed": true,
          "internalType": "uint256",
          "name": "tokenId",
          "type": "uint256"
        }
      ],
      "name": "Approval",
      "type": "event"
    },
    {
      "anonymous": false,
      "inputs": [
        {
          "indexed": true,
          "internalType": "address",
          "name": "owner",
          "type": "address"
        },
        {
          "indexed": true,
          "internalType": "address",
          "name": "operator",
          "type": "address"
        },
        {
          "indexed": false,
          "internalType": "bool",
          "name": "approved",
          "type": "bool"
        }
      ],
      "name": "ApprovalForAll",
      "type": "event"
    },
    {
      "anonymous": false,
      "inputs": [
        {
          "indexed": true,
          "internalType": "bytes32",
          "name": "role",
          "type": "bytes32"
        },
        {
          "indexed": true,
          "internalType": "bytes32",
          "name": "previousAdminRole",
          "type": "bytes32"
        },
        {
          "indexed": true,
          "internalType": "bytes32",
          "name": "newAdminRole",
          "type": "bytes32"
        }
      ],
      "name": "RoleAdminChanged",
      "type": "event"
    },
    {
      "anonymous": false,
      "inputs": [
        {
          "indexed": true,
          "internalType": "bytes32",
          "name": "role",
          "type": "bytes32"
        },
        {
          "indexed": true,
          "internalType": "address",
          "name": "account",
          "type": "address"
        },
        {
          "indexed": true,
          "internalType": "address",
          "name": "sender",
          "type": "address"
        }
      ],
      "name": "RoleGranted",
      "type": "event"
    },
    {
      "anonymous": false,
      "inputs": [
        {
          "indexed": true,
          "internalType": "bytes32",
          "name": "role",
          "type": "bytes32"
        },
        {
          "indexed": true,
          "internalType": "address",
          "name": "account",
          "type": "address"
        },
        {
          "indexed": true,
          "internalType": "address",
          "name": "sender",
          "type": "address"
        }
      ],
      "name": "RoleRevoked",
      "type": "event"
    },
    {
      "anonymous": false,
      "inputs": [
        {
          "indexed": true,
          "internalType": "address",
          "name": "from",
          "type": "address"
        },
        {
          "indexed": true,
          "internalType": "address",
          "name": "to",
          "type": "address"
        },
        {
          "indexed": true,
          "internalType": "uint256",
          "name": "tokenId",
          "type": "uint256"
        }
      ],
      "name": "Transfer",
      "type": "event"
    },
    {
      "inputs": [],
      "name": "DEFAULT_ADMIN_ROLE",
      "outputs": [
        {
          "internalType": "bytes32",
          "name": "",
          "type": "bytes32"
        }
      ],
      "stateMutability": "view",
      "type": "function",
      "constant": true
    },
    {
      "inputs": [],
      "name": "DONOR",
      "outputs": [
        {
          "internalType": "bytes32",
          "name": "",
          "type": "bytes32"
        }
      ],
      "stateMutability": "view",
      "type": "function",
      "constant": true
    },
    {
      "inputs": [],
      "name": "RECEIVER",
      "outputs": [
        {
          "internalType": "bytes32",
          "name": "",
          "type": "bytes32"
        }
      ],
      "stateMutability": "view",
      "type": "function",
      "constant": true
    },
    {
      "inputs": [
        {
          "internalType": "address",
          "name": "to",
          "type": "address"
        },
        {
          "internalType": "uint256",
          "name": "tokenId",
          "type": "uint256"
        }
      ],
      "name": "approve",
      "outputs": [],
      "stateMutability": "nonpayable",
      "type": "function"
    },
    {
      "inputs": [
        {
          "internalType": "uint32",
          "name": "",
          "type": "uint32"
        },
        {
          "internalType": "uint32",
          "name": "",
          "type": "uint32"
        }
      ],
      "name": "assetRequestList",
      "outputs": [
        {
          "internalType": "address",
          "name": "receiver",
          "type": "address"
        },
        {
          "internalType": "string",
          "name": "requestDescription",
          "type": "string"
        },
        {
          "internalType": "uint32",
          "name": "requestDateFrom",
          "type": "uint32"
        },
        {
          "internalType": "uint32",
          "name": "requestDateTo",
          "type": "uint32"
        }
      ],
      "stateMutability": "view",
      "type": "function",
      "constant": true
    },
    {
      "inputs": [
        {
          "internalType": "address",
          "name": "owner",
          "type": "address"
        }
      ],
      "name": "balanceOf",
      "outputs": [
        {
          "internalType": "uint256",
          "name": "",
          "type": "uint256"
        }
      ],
      "stateMutability": "view",
      "type": "function",
      "constant": true
    },
    {
      "inputs": [],
      "name": "baseURI",
      "outputs": [
        {
          "internalType": "string",
          "name": "",
          "type": "string"
        }
      ],
      "stateMutability": "view",
      "type": "function",
      "constant": true
    },
    {
      "inputs": [
        {
          "internalType": "uint32",
          "name": "",
          "type": "uint32"
        }
      ],
      "name": "donationList",
      "outputs": [
        {
          "internalType": "uint32",
          "name": "assetId",
          "type": "uint32"
        },
        {
          "internalType": "string",
          "name": "assetDescription",
          "type": "string"
        },
        {
          "internalType": "uint32",
          "name": "availablityDate",
          "type": "uint32"
        },
        {
          "internalType": "string",
          "name": "location",
          "type": "string"
        },
        {
          "internalType": "enum AssetDonation.Status",
          "name": "status",
          "type": "uint8"
        },
        {
          "internalType": "address",
          "name": "owner",
          "type": "address"
        },
        {
          "internalType": "address",
          "name": "recipient",
          "type": "address"
        },
        {
          "internalType": "uint32",
          "name": "donatedDateFrom",
          "type": "uint32"
        },
        {
          "internalType": "uint32",
          "name": "donatedDateTo",
          "type": "uint32"
        },
        {
          "internalType": "uint32",
          "name": "requestCount",
          "type": "uint32"
        },
        {
          "internalType": "string",
          "name": "imageIPFSHash",
          "type": "string"
        }
      ],
      "stateMutability": "view",
      "type": "function",
      "constant": true
    },
    {
      "inputs": [
        {
          "internalType": "address",
          "name": "",
          "type": "address"
        }
      ],
      "name": "donors",
      "outputs": [
        {
          "internalType": "bool",
          "name": "",
          "type": "bool"
        }
      ],
      "stateMutability": "view",
      "type": "function",
      "constant": true
    },
    {
      "inputs": [
        {
          "internalType": "uint256",
          "name": "tokenId",
          "type": "uint256"
        }
      ],
      "name": "getApproved",
      "outputs": [
        {
          "internalType": "address",
          "name": "",
          "type": "address"
        }
      ],
      "stateMutability": "view",
      "type": "function",
      "constant": true
    },
    {
      "inputs": [
        {
          "internalType": "bytes32",
          "name": "role",
          "type": "bytes32"
        }
      ],
      "name": "getRoleAdmin",
      "outputs": [
        {
          "internalType": "bytes32",
          "name": "",
          "type": "bytes32"
        }
      ],
      "stateMutability": "view",
      "type": "function",
      "constant": true
    },
    {
      "inputs": [
        {
          "internalType": "bytes32",
          "name": "role",
          "type": "bytes32"
        },
        {
          "internalType": "uint256",
          "name": "index",
          "type": "uint256"
        }
      ],
      "name": "getRoleMember",
      "outputs": [
        {
          "internalType": "address",
          "name": "",
          "type": "address"
        }
      ],
      "stateMutability": "view",
      "type": "function",
      "constant": true
    },
    {
      "inputs": [
        {
          "internalType": "bytes32",
          "name": "role",
          "type": "bytes32"
        }
      ],
      "name": "getRoleMemberCount",
      "outputs": [
        {
          "internalType": "uint256",
          "name": "",
          "type": "uint256"
        }
      ],
      "stateMutability": "view",
      "type": "function",
      "constant": true
    },
    {
      "inputs": [
        {
          "internalType": "bytes32",
          "name": "role",
          "type": "bytes32"
        },
        {
          "internalType": "address",
          "name": "account",
          "type": "address"
        }
      ],
      "name": "grantRole",
      "outputs": [],
      "stateMutability": "nonpayable",
      "type": "function"
    },
    {
      "inputs": [
        {
          "internalType": "bytes32",
          "name": "role",
          "type": "bytes32"
        },
        {
          "internalType": "address",
          "name": "account",
          "type": "address"
        }
      ],
      "name": "hasRole",
      "outputs": [
        {
          "internalType": "bool",
          "name": "",
          "type": "bool"
        }
      ],
      "stateMutability": "view",
      "type": "function",
      "constant": true
    },
    {
      "inputs": [
        {
          "internalType": "address",
          "name": "owner",
          "type": "address"
        },
        {
          "internalType": "address",
          "name": "operator",
          "type": "address"
        }
      ],
      "name": "isApprovedForAll",
      "outputs": [
        {
          "internalType": "bool",
          "name": "",
          "type": "bool"
        }
      ],
      "stateMutability": "view",
      "type": "function",
      "constant": true
    },
    {
      "inputs": [],
      "name": "name",
      "outputs": [
        {
          "internalType": "string",
          "name": "",
          "type": "string"
        }
      ],
      "stateMutability": "view",
      "type": "function",
      "constant": true
    },
    {
      "inputs": [
        {
          "internalType": "uint256",
          "name": "tokenId",
          "type": "uint256"
        }
      ],
      "name": "ownerOf",
      "outputs": [
        {
          "internalType": "address",
          "name": "",
          "type": "address"
        }
      ],
      "stateMutability": "view",
      "type": "function",
      "constant": true
    },
    {
      "inputs": [
        {
          "internalType": "address",
          "name": "",
          "type": "address"
        }
      ],
      "name": "receivers",
      "outputs": [
        {
          "internalType": "bool",
          "name": "",
          "type": "bool"
        }
      ],
      "stateMutability": "view",
      "type": "function",
      "constant": true
    },
    {
      "inputs": [
        {
          "internalType": "bytes32",
          "name": "role",
          "type": "bytes32"
        },
        {
          "internalType": "address",
          "name": "account",
          "type": "address"
        }
      ],
      "name": "renounceRole",
      "outputs": [],
      "stateMutability": "nonpayable",
      "type": "function"
    },
    {
      "inputs": [
        {
          "internalType": "bytes32",
          "name": "role",
          "type": "bytes32"
        },
        {
          "internalType": "address",
          "name": "account",
          "type": "address"
        }
      ],
      "name": "revokeRole",
      "outputs": [],
      "stateMutability": "nonpayable",
      "type": "function"
    },
    {
      "inputs": [
        {
          "internalType": "address",
          "name": "from",
          "type": "address"
        },
        {
          "internalType": "address",
          "name": "to",
          "type": "address"
        },
        {
          "internalType": "uint256",
          "name": "tokenId",
          "type": "uint256"
        }
      ],
      "name": "safeTransferFrom",
      "outputs": [],
      "stateMutability": "nonpayable",
      "type": "function"
    },
    {
      "inputs": [
        {
          "internalType": "address",
          "name": "from",
          "type": "address"
        },
        {
          "internalType": "address",
          "name": "to",
          "type": "address"
        },
        {
          "internalType": "uint256",
          "name": "tokenId",
          "type": "uint256"
        },
        {
          "internalType": "bytes",
          "name": "_data",
          "type": "bytes"
        }
      ],
      "name": "safeTransferFrom",
      "outputs": [],
      "stateMutability": "nonpayable",
      "type": "function"
    },
    {
      "inputs": [
        {
          "internalType": "address",
          "name": "operator",
          "type": "address"
        },
        {
          "internalType": "bool",
          "name": "approved",
          "type": "bool"
        }
      ],
      "name": "setApprovalForAll",
      "outputs": [],
      "stateMutability": "nonpayable",
      "type": "function"
    },
    {
      "inputs": [
        {
          "internalType": "bytes4",
          "name": "interfaceId",
          "type": "bytes4"
        }
      ],
      "name": "supportsInterface",
      "outputs": [
        {
          "internalType": "bool",
          "name": "",
          "type": "bool"
        }
      ],
      "stateMutability": "view",
      "type": "function",
      "constant": true
    },
    {
      "inputs": [],
      "name": "symbol",
      "outputs": [
        {
          "internalType": "string",
          "name": "",
          "type": "string"
        }
      ],
      "stateMutability": "view",
      "type": "function",
      "constant": true
    },
    {
      "inputs": [
        {
          "internalType": "uint256",
          "name": "index",
          "type": "uint256"
        }
      ],
      "name": "tokenByIndex",
      "outputs": [
        {
          "internalType": "uint256",
          "name": "",
          "type": "uint256"
        }
      ],
      "stateMutability": "view",
      "type": "function",
      "constant": true
    },
    {
      "inputs": [
        {
          "internalType": "address",
          "name": "owner",
          "type": "address"
        },
        {
          "internalType": "uint256",
          "name": "index",
          "type": "uint256"
        }
      ],
      "name": "tokenOfOwnerByIndex",
      "outputs": [
        {
          "internalType": "uint256",
          "name": "",
          "type": "uint256"
        }
      ],
      "stateMutability": "view",
      "type": "function",
      "constant": true
    },
    {
      "inputs": [
        {
          "internalType": "uint256",
          "name": "tokenId",
          "type": "uint256"
        }
      ],
      "name": "tokenURI",
      "outputs": [
        {
          "internalType": "string",
          "name": "",
          "type": "string"
        }
      ],
      "stateMutability": "view",
      "type": "function",
      "constant": true
    },
    {
      "inputs": [],
      "name": "totalSupply",
      "outputs": [
        {
          "internalType": "uint256",
          "name": "",
          "type": "uint256"
        }
      ],
      "stateMutability": "view",
      "type": "function",
      "constant": true
    },
    {
      "inputs": [
        {
          "internalType": "address",
          "name": "from",
          "type": "address"
        },
        {
          "internalType": "address",
          "name": "to",
          "type": "address"
        },
        {
          "internalType": "uint256",
          "name": "tokenId",
          "type": "uint256"
        }
      ],
      "name": "transferFrom",
      "outputs": [],
      "stateMutability": "nonpayable",
      "type": "function"
    },
    {
      "inputs": [],
      "name": "addDonor",
      "outputs": [],
      "stateMutability": "nonpayable",
      "type": "function"
    },
    {
      "inputs": [
        {
          "internalType": "address",
          "name": "donorAddress",
          "type": "address"
        }
      ],
      "name": "approveDonor",
      "outputs": [],
      "stateMutability": "nonpayable",
      "type": "function"
    },
    {
      "inputs": [
        {
          "internalType": "string",
          "name": "assetDescription",
          "type": "string"
        },
        {
          "internalType": "uint32",
          "name": "availablityDate",
          "type": "uint32"
        },
        {
          "internalType": "string",
          "name": "location",
          "type": "string"
        },
        {
          "internalType": "string",
          "name": "imageIPFSHash",
          "type": "string"
        }
      ],
      "name": "addAsset",
      "outputs": [],
      "stateMutability": "nonpayable",
      "type": "function"
    },
    {
      "inputs": [],
      "name": "getDonations",
      "outputs": [
        {
          "components": [
            {
              "internalType": "uint32",
              "name": "assetId",
              "type": "uint32"
            },
            {
              "internalType": "string",
              "name": "assetDescription",
              "type": "string"
            },
            {
              "internalType": "uint32",
              "name": "availablityDate",
              "type": "uint32"
            },
            {
              "internalType": "string",
              "name": "location",
              "type": "string"
            },
            {
              "internalType": "enum AssetDonation.Status",
              "name": "status",
              "type": "uint8"
            },
            {
              "internalType": "address",
              "name": "owner",
              "type": "address"
            },
            {
              "internalType": "address",
              "name": "recipient",
              "type": "address"
            },
            {
              "internalType": "uint32",
              "name": "donatedDateFrom",
              "type": "uint32"
            },
            {
              "internalType": "uint32",
              "name": "donatedDateTo",
              "type": "uint32"
            },
            {
              "internalType": "uint32",
              "name": "requestCount",
              "type": "uint32"
            },
            {
              "internalType": "string",
              "name": "imageIPFSHash",
              "type": "string"
            }
          ],
          "internalType": "struct AssetDonation.Asset[16]",
          "name": "",
          "type": "tuple[16]"
        }
      ],
      "stateMutability": "view",
      "type": "function",
      "constant": true
    },
    {
      "inputs": [],
      "name": "getAllDonations",
      "outputs": [
        {
          "components": [
            {
              "internalType": "uint32",
              "name": "assetId",
              "type": "uint32"
            },
            {
              "internalType": "string",
              "name": "assetDescription",
              "type": "string"
            },
            {
              "internalType": "uint32",
              "name": "availablityDate",
              "type": "uint32"
            },
            {
              "internalType": "string",
              "name": "location",
              "type": "string"
            },
            {
              "internalType": "enum AssetDonation.Status",
              "name": "status",
              "type": "uint8"
            },
            {
              "internalType": "address",
              "name": "owner",
              "type": "address"
            },
            {
              "internalType": "address",
              "name": "recipient",
              "type": "address"
            },
            {
              "internalType": "uint32",
              "name": "donatedDateFrom",
              "type": "uint32"
            },
            {
              "internalType": "uint32",
              "name": "donatedDateTo",
              "type": "uint32"
            },
            {
              "internalType": "uint32",
              "name": "requestCount",
              "type": "uint32"
            },
            {
              "internalType": "string",
              "name": "imageIPFSHash",
              "type": "string"
            }
          ],
          "internalType": "struct AssetDonation.Asset[16]",
          "name": "",
          "type": "tuple[16]"
        }
      ],
      "stateMutability": "view",
      "type": "function",
      "constant": true
    },
    {
      "inputs": [
        {
          "internalType": "uint32",
          "name": "assetId",
          "type": "uint32"
        }
      ],
      "name": "getDonationRequests",
      "outputs": [
        {
          "components": [
            {
              "internalType": "address",
              "name": "receiver",
              "type": "address"
            },
            {
              "internalType": "string",
              "name": "requestDescription",
              "type": "string"
            },
            {
              "internalType": "uint32",
              "name": "requestDateFrom",
              "type": "uint32"
            },
            {
              "internalType": "uint32",
              "name": "requestDateTo",
              "type": "uint32"
            }
          ],
          "internalType": "struct AssetDonation.Request[16]",
          "name": "",
          "type": "tuple[16]"
        }
      ],
      "stateMutability": "view",
      "type": "function",
      "constant": true
    },
    {
      "inputs": [
        {
          "internalType": "address",
          "name": "assetOwner",
          "type": "address"
        }
      ],
      "name": "mintToken",
      "outputs": [
        {
          "internalType": "uint32",
          "name": "",
          "type": "uint32"
        }
      ],
      "stateMutability": "nonpayable",
      "type": "function"
    },
    {
      "inputs": [
        {
          "internalType": "uint32",
          "name": "assetId",
          "type": "uint32"
        },
        {
          "internalType": "address",
          "name": "recipientAddress",
          "type": "address"
        }
      ],
      "name": "donateAsset",
      "outputs": [],
      "stateMutability": "nonpayable",
      "type": "function"
    },
    {
      "inputs": [],
      "name": "addReceiver",
      "outputs": [],
      "stateMutability": "nonpayable",
      "type": "function"
    },
    {
      "inputs": [
        {
          "internalType": "address",
          "name": "receiverAddress",
          "type": "address"
        }
      ],
      "name": "approveReceiver",
      "outputs": [],
      "stateMutability": "nonpayable",
      "type": "function"
    },
    {
      "inputs": [
        {
          "internalType": "uint32",
          "name": "assetId",
          "type": "uint32"
        },
        {
          "internalType": "string",
          "name": "requestDescription",
          "type": "string"
        },
        {
          "internalType": "uint32",
          "name": "requestDateFrom",
          "type": "uint32"
        },
        {
          "internalType": "uint32",
          "name": "requestDateTo",
          "type": "uint32"
        }
      ],
      "name": "requestAsset",
      "outputs": [],
      "stateMutability": "nonpayable",
      "type": "function"
    }
  ],
  "bytecode": "0x60806040523480156200001157600080fd5b506040518060400160405280600781526020017f4d79546f6b656e000000000000000000000000000000000000000000000000008152506040518060400160405280600381526020017f4d54530000000000000000000000000000000000000000000000000000000000815250620000966301ffc9a760e01b6200015c60201b60201c565b8160069080519060200190620000ae92919062000234565b508060079080519060200190620000c792919062000234565b50620000e06380ac58cd60e01b6200015c60201b60201c565b620000f8635b5e139f60e01b6200015c60201b60201c565b6200011063780e9d6360e01b6200015c60201b60201c565b50506000600b60006101000a81548163ffffffff021916908363ffffffff1602179055506000600b60046101000a81548163ffffffff021916908363ffffffff16021790555062000358565b63ffffffff60e01b817bffffffffffffffffffffffffffffffffffffffffffffffffffffffff19161415620001c8576040517f08c379a0000000000000000000000000000000000000000000000000000000008152600401620001bf9062000325565b60405180910390fd5b6001600080837bffffffffffffffffffffffffffffffffffffffffffffffffffffffff19167bffffffffffffffffffffffffffffffffffffffffffffffffffffffff1916815260200190815260200160002060006101000a81548160ff02191690831515021790555050565b828054600181600116156101000203166002900490600052602060002090601f016020900481019282601f106200027757805160ff1916838001178555620002a8565b82800160010185558215620002a8579182015b82811115620002a75782518255916020019190600101906200028a565b5b509050620002b79190620002bb565b5090565b620002e091905b80821115620002dc576000816000905550600101620002c2565b5090565b90565b6000620002f2601c8362000347565b91507f4552433136353a20696e76616c696420696e74657266616365206964000000006000830152602082019050919050565b600060208201905081810360008301526200034081620002e3565b9050919050565b600082825260208201905092915050565b61593f80620003686000396000f3fe608060405234801561001057600080fd5b506004361061025e5760003560e01c80636352211e1161014657806395d89b41116100c3578063c87b56dd11610087578063c87b56dd14610764578063ca0cdea814610794578063ca15c873146107c4578063d547741f146107f4578063e25f841614610810578063e985e9c51461082e5761025e565b806395d89b41146106d2578063a217fddf146106f0578063a22cb4651461070e578063ad7430cc1461072a578063b88d4fde146107485761025e565b806379e085a21161010a57806379e085a21461062e5780638ad54512146106385780638e25a7ef146106425780639010d07c1461067257806391d14854146106a25761025e565b80636352211e1461056157806367c7e979146105915780636c0360eb146105c457806370a08231146105e257806372dbb89f146106125761025e565b80632a781270116101df57806338a59a07116101a357806338a59a071461048357806342842e0e146104a15780634576d251146104bd57806349d17fe9146104db5780634bb0eaaf146104f75780634f6ccce7146105315761025e565b80632a781270146103e35780632cdbf349146103ff5780632f2ff15d1461041b5780632f745c591461043757806336568abe146104675761025e565b80630cb8150f116102265780630cb8150f1461032d57806311cef2c41461035d57806318160ddd1461037957806323b872dd14610397578063248a9ca3146103b35761025e565b806301173a741461026357806301ffc9a71461029357806306fdde03146102c3578063081812fc146102e1578063095ea7b314610311575b600080fd5b61027d60048036036102789190810190613fb7565b61085e565b60405161028a91906154c6565b60405180910390f35b6102ad60048036036102a891908101906141ff565b6108dd565b6040516102ba91906151f3565b60405180910390f35b6102cb610944565b6040516102d89190615229565b60405180910390f35b6102fb60048036036102f691908101906142fc565b6109e6565b60405161030891906150fc565b60405180910390f35b61032b60048036036103269190810190614122565b610a6b565b005b61034760048036036103429190810190613fb7565b610b83565b60405161035491906151f3565b60405180910390f35b6103776004803603610372919081019061438a565b610ba3565b005b610381610d96565b60405161038e91906154ab565b60405180910390f35b6103b160048036036103ac919081019061401c565b610da7565b005b6103cd60048036036103c8919081019061415e565b610e07565b6040516103da919061520e565b60405180910390f35b6103fd60048036036103f89190810190613fb7565b610e27565b005b61041960048036036104149190810190614251565b610e9f565b005b61043560048036036104309190810190614187565b61114f565b005b610451600480360361044c9190810190614122565b6111c3565b60405161045e91906154ab565b60405180910390f35b610481600480360361047c9190810190614187565b61121e565b005b61048b6112a1565b60405161049891906151af565b60405180910390f35b6104bb60048036036104b6919081019061401c565b6116e7565b005b6104c5611707565b6040516104d2919061520e565b60405180910390f35b6104f560048036036104f0919081019061434e565b61171e565b005b610511600480360361050c9190810190614325565b611844565b6040516105289b9a999897969594939291906154e1565b60405180910390f35b61054b600480360361054691908101906142fc565b611b03565b60405161055891906154ab565b60405180910390f35b61057b600480360361057691908101906142fc565b611b26565b60405161058891906150fc565b60405180910390f35b6105ab60048036036105a69190810190614405565b611b5d565b6040516105bb9493929190615163565b60405180910390f35b6105cc611c72565b6040516105d99190615229565b60405180910390f35b6105fc60048036036105f79190810190613fb7565b611d14565b60405161060991906154ab565b60405180910390f35b61062c60048036036106279190810190613fb7565b611dd3565b005b610636611e4b565b005b610640611eae565b005b61065c60048036036106579190810190614325565b611f08565b60405161066991906151d1565b60405180910390f35b61068c600480360361068791908101906141c3565b612126565b60405161069991906150fc565b60405180910390f35b6106bc60048036036106b79190810190614187565b612158565b6040516106c991906151f3565b60405180910390f35b6106da61218a565b6040516106e79190615229565b60405180910390f35b6106f861222c565b604051610705919061520e565b60405180910390f35b610728600480360361072391908101906140e6565b612233565b005b6107326123b4565b60405161073f919061520e565b60405180910390f35b610762600480360361075d919081019061406b565b6123cb565b005b61077e600480360361077991908101906142fc565b61242d565b60405161078b9190615229565b60405180910390f35b6107ae60048036036107a99190810190613fb7565b6125b8565b6040516107bb91906151f3565b60405180910390f35b6107de60048036036107d9919081019061415e565b6125d8565b6040516107eb91906154ab565b60405180910390f35b61080e60048036036108099190810190614187565b6125ff565b005b610818612673565b60405161082591906151af565b60405180910390f35b61084860048036036108439190810190613fe0565b612ab8565b60405161085591906151f3565b60405180910390f35b600061088282600b60009054906101000a900463ffffffff1663ffffffff16612b4c565b6000600b60009054906101000a900463ffffffff169050600b600081819054906101000a900463ffffffff168092919060010191906101000a81548163ffffffff021916908363ffffffff1602179055505080915050919050565b6000806000837bffffffffffffffffffffffffffffffffffffffffffffffffffffffff19167bffffffffffffffffffffffffffffffffffffffffffffffffffffffff1916815260200190815260200160002060009054906101000a900460ff169050919050565b606060068054600181600116156101000203166002900480601f0160208091040260200160405190810160405280929190818152602001828054600181600116156101000203166002900480156109dc5780601f106109b1576101008083540402835291602001916109dc565b820191906000526020600020905b8154815290600101906020018083116109bf57829003601f168201915b5050505050905090565b60006109f182612b6a565b610a30576040517f08c379a0000000000000000000000000000000000000000000000000000000008152600401610a27906153cb565b60405180910390fd5b6004600083815260200190815260200160002060009054906101000a900473ffffffffffffffffffffffffffffffffffffffff169050919050565b6000610a7682611b26565b90508073ffffffffffffffffffffffffffffffffffffffff168373ffffffffffffffffffffffffffffffffffffffff161415610ae7576040517f08c379a0000000000000000000000000000000000000000000000000000000008152600401610ade9061542b565b60405180910390fd5b8073ffffffffffffffffffffffffffffffffffffffff16610b06612b87565b73ffffffffffffffffffffffffffffffffffffffff161480610b355750610b3481610b2f612b87565b612ab8565b5b610b74576040517f08c379a0000000000000000000000000000000000000000000000000000000008152600401610b6b9061534b565b60405180910390fd5b610b7e8383612b8f565b505050565b600d6020528060005260406000206000915054906101000a900460ff1681565b6000600e60008663ffffffff1663ffffffff168152602001908152602001600020905060405180608001604052803373ffffffffffffffffffffffffffffffffffffffff1681526020018581526020018463ffffffff1681526020018363ffffffff16815250600f60008763ffffffff1663ffffffff168152602001908152602001600020600083600501601c9054906101000a900463ffffffff1663ffffffff1663ffffffff16815260200190815260200160002060008201518160000160006101000a81548173ffffffffffffffffffffffffffffffffffffffff021916908373ffffffffffffffffffffffffffffffffffffffff1602179055506020820151816001019080519060200190610cbc929190613c82565b5060408201518160020160006101000a81548163ffffffff021916908363ffffffff16021790555060608201518160020160046101000a81548163ffffffff021916908363ffffffff1602179055509050506001600e60008763ffffffff1663ffffffff16815260200190815260200160002060040160006101000a81548160ff02191690836004811115610d4d57fe5b021790555080600501601c81819054906101000a900463ffffffff168092919060010191906101000a81548163ffffffff021916908363ffffffff160217905550505050505050565b6000610da26002612c48565b905090565b610db8610db2612b87565b82612c5d565b610df7576040517f08c379a0000000000000000000000000000000000000000000000000000000008152600401610dee9061544b565b60405180910390fd5b610e02838383612d3b565b505050565b6000600a6000838152602001908152602001600020600201549050919050565b610e44604051610e36906150d2565b60405180910390208261114f565b6001600c60008373ffffffffffffffffffffffffffffffffffffffff1673ffffffffffffffffffffffffffffffffffffffff16815260200190815260200160002060006101000a81548160ff02191690831515021790555050565b6000610eaa3361085e565b90506040518061016001604052808263ffffffff1681526020018681526020018563ffffffff16815260200184815260200160006004811115610ee957fe5b81526020013373ffffffffffffffffffffffffffffffffffffffff168152602001600073ffffffffffffffffffffffffffffffffffffffff168152602001600063ffffffff168152602001600063ffffffff168152602001600063ffffffff16815260200183815250600e60008363ffffffff1663ffffffff16815260200190815260200160002060008201518160000160006101000a81548163ffffffff021916908363ffffffff1602179055506020820151816001019080519060200190610fb4929190613c82565b5060408201518160020160006101000a81548163ffffffff021916908363ffffffff1602179055506060820151816003019080519060200190610ff8929190613c82565b5060808201518160040160006101000a81548160ff0219169083600481111561101d57fe5b021790555060a08201518160040160016101000a81548173ffffffffffffffffffffffffffffffffffffffff021916908373ffffffffffffffffffffffffffffffffffffffff16021790555060c08201518160050160006101000a81548173ffffffffffffffffffffffffffffffffffffffff021916908373ffffffffffffffffffffffffffffffffffffffff16021790555060e08201518160050160146101000a81548163ffffffff021916908363ffffffff1602179055506101008201518160050160186101000a81548163ffffffff021916908363ffffffff16021790555061012082015181600501601c6101000a81548163ffffffff021916908363ffffffff160217905550610140820151816006019080519060200190611144929190613c82565b509050505050505050565b611176600a600084815260200190815260200160002060020154611171612b87565b612158565b6111b5576040517f08c379a00000000000000000000000000000000000000000000000000000000081526004016111ac9061526b565b60405180910390fd5b6111bf8282612f52565b5050565b600061121682600160008673ffffffffffffffffffffffffffffffffffffffff1673ffffffffffffffffffffffffffffffffffffffff168152602001908152602001600020612fe690919063ffffffff16565b905092915050565b611226612b87565b73ffffffffffffffffffffffffffffffffffffffff168173ffffffffffffffffffffffffffffffffffffffff1614611293576040517f08c379a000000000000000000000000000000000000000000000000000000000815260040161128a9061548b565b60405180910390fd5b61129d8282613000565b5050565b6112a9613d02565b60008090506112b6613d02565b6010600b60009054906101000a900463ffffffff1663ffffffff16116112f057600b60009054906101000a900463ffffffff1691506112f5565b601091505b60008090505b8263ffffffff168163ffffffff1610156116de57600e60008263ffffffff1663ffffffff168152602001908152602001600020604051806101600160405290816000820160009054906101000a900463ffffffff1663ffffffff1663ffffffff168152602001600182018054600181600116156101000203166002900480601f0160208091040260200160405190810160405280929190818152602001828054600181600116156101000203166002900480156113f95780601f106113ce576101008083540402835291602001916113f9565b820191906000526020600020905b8154815290600101906020018083116113dc57829003601f168201915b505050505081526020016002820160009054906101000a900463ffffffff1663ffffffff1663ffffffff168152602001600382018054600181600116156101000203166002900480601f0160208091040260200160405190810160405280929190818152602001828054600181600116156101000203166002900480156114c15780601f10611496576101008083540402835291602001916114c1565b820191906000526020600020905b8154815290600101906020018083116114a457829003601f168201915b505050505081526020016004820160009054906101000a900460ff1660048111156114e857fe5b60048111156114f357fe5b81526020016004820160019054906101000a900473ffffffffffffffffffffffffffffffffffffffff1673ffffffffffffffffffffffffffffffffffffffff1673ffffffffffffffffffffffffffffffffffffffff1681526020016005820160009054906101000a900473ffffffffffffffffffffffffffffffffffffffff1673ffffffffffffffffffffffffffffffffffffffff1673ffffffffffffffffffffffffffffffffffffffff1681526020016005820160149054906101000a900463ffffffff1663ffffffff1663ffffffff1681526020016005820160189054906101000a900463ffffffff1663ffffffff1663ffffffff16815260200160058201601c9054906101000a900463ffffffff1663ffffffff1663ffffffff168152602001600682018054600181600116156101000203166002900480601f0160208091040260200160405190810160405280929190818152602001828054600181600116156101000203166002900480156116ae5780601f10611683576101008083540402835291602001916116ae565b820191906000526020600020905b81548152906001019060200180831161169157829003601f168201915b505050505081525050828263ffffffff16601081106116c957fe5b602002018190525080806001019150506112fb565b50809250505090565b611702838383604051806020016040528060008152506123cb565b505050565b604051611713906150d2565b604051809103902081565b81600073ffffffffffffffffffffffffffffffffffffffff16600e60008363ffffffff1663ffffffff16815260200190815260200160002060050160009054906101000a900473ffffffffffffffffffffffffffffffffffffffff1673ffffffffffffffffffffffffffffffffffffffff161461179a57600080fd5b81600e60008563ffffffff1663ffffffff16815260200190815260200160002060050160006101000a81548173ffffffffffffffffffffffffffffffffffffffff021916908373ffffffffffffffffffffffffffffffffffffffff1602179055506002600e60008563ffffffff1663ffffffff16815260200190815260200160002060040160006101000a81548160ff0219169083600481111561183a57fe5b0217905550505050565b600e6020528060005260406000206000915090508060000160009054906101000a900463ffffffff1690806001018054600181600116156101000203166002900480601f0160208091040260200160405190810160405280929190818152602001828054600181600116156101000203166002900480156119065780601f106118db57610100808354040283529160200191611906565b820191906000526020600020905b8154815290600101906020018083116118e957829003601f168201915b5050505050908060020160009054906101000a900463ffffffff1690806003018054600181600116156101000203166002900480601f0160208091040260200160405190810160405280929190818152602001828054600181600116156101000203166002900480156119ba5780601f1061198f576101008083540402835291602001916119ba565b820191906000526020600020905b81548152906001019060200180831161199d57829003601f168201915b5050505050908060040160009054906101000a900460ff16908060040160019054906101000a900473ffffffffffffffffffffffffffffffffffffffff16908060050160009054906101000a900473ffffffffffffffffffffffffffffffffffffffff16908060050160149054906101000a900463ffffffff16908060050160189054906101000a900463ffffffff169080600501601c9054906101000a900463ffffffff1690806006018054600181600116156101000203166002900480601f016020809104026020016040519081016040528092919081815260200182805460018160011615610100020316600290048015611af95780601f10611ace57610100808354040283529160200191611af9565b820191906000526020600020905b815481529060010190602001808311611adc57829003601f168201915b505050505090508b565b600080611b1a83600261309490919063ffffffff16565b50905080915050919050565b6000611b56826040518060600160405280602981526020016158e16029913960026130c39092919063ffffffff16565b9050919050565b600f602052816000526040600020602052806000526040600020600091509150508060000160009054906101000a900473ffffffffffffffffffffffffffffffffffffffff1690806001018054600181600116156101000203166002900480601f016020809104026020016040519081016040528092919081815260200182805460018160011615610100020316600290048015611c3c5780601f10611c1157610100808354040283529160200191611c3c565b820191906000526020600020905b815481529060010190602001808311611c1f57829003601f168201915b5050505050908060020160009054906101000a900463ffffffff16908060020160049054906101000a900463ffffffff16905084565b606060098054600181600116156101000203166002900480601f016020809104026020016040519081016040528092919081815260200182805460018160011615610100020316600290048015611d0a5780601f10611cdf57610100808354040283529160200191611d0a565b820191906000526020600020905b815481529060010190602001808311611ced57829003601f168201915b5050505050905090565b60008073ffffffffffffffffffffffffffffffffffffffff168273ffffffffffffffffffffffffffffffffffffffff161415611d85576040517f08c379a0000000000000000000000000000000000000000000000000000000008152600401611d7c9061536b565b60405180910390fd5b611dcc600160008473ffffffffffffffffffffffffffffffffffffffff1673ffffffffffffffffffffffffffffffffffffffff1681526020019081526020016000206130e2565b9050919050565b611df0604051611de2906150e7565b60405180910390208261114f565b6001600d60008373ffffffffffffffffffffffffffffffffffffffff1673ffffffffffffffffffffffffffffffffffffffff16815260200190815260200160002060006101000a81548160ff02191690831515021790555050565b6000600c60003373ffffffffffffffffffffffffffffffffffffffff1673ffffffffffffffffffffffffffffffffffffffff16815260200190815260200160002060006101000a81548160ff021916908315150217905550611eac33610e27565b565b6000600d60003373ffffffffffffffffffffffffffffffffffffffff1673ffffffffffffffffffffffffffffffffffffffff16815260200190815260200160002060006101000a81548160ff021916908315150217905550565b611f10613d30565b611f18613d30565b6000600f60008563ffffffff1663ffffffff168152602001908152602001600020905060008090505b600e60008663ffffffff1663ffffffff168152602001908152602001600020600501601c9054906101000a900463ffffffff1663ffffffff168163ffffffff16101561211b578160008263ffffffff1663ffffffff1681526020019081526020016000206040518060800160405290816000820160009054906101000a900473ffffffffffffffffffffffffffffffffffffffff1673ffffffffffffffffffffffffffffffffffffffff1673ffffffffffffffffffffffffffffffffffffffff168152602001600182018054600181600116156101000203166002900480601f01602080910402602001604051908101604052809291908181526020018280546001816001161561010002031660029004801561209f5780601f106120745761010080835404028352916020019161209f565b820191906000526020600020905b81548152906001019060200180831161208257829003601f168201915b505050505081526020016002820160009054906101000a900463ffffffff1663ffffffff1663ffffffff1681526020016002820160049054906101000a900463ffffffff1663ffffffff1663ffffffff1681525050838263ffffffff166010811061210657fe5b60200201819052508080600101915050611f41565b508192505050919050565b600061215082600a60008681526020019081526020016000206000016130f790919063ffffffff16565b905092915050565b600061218282600a600086815260200190815260200160002060000161311190919063ffffffff16565b905092915050565b606060078054600181600116156101000203166002900480601f0160208091040260200160405190810160405280929190818152602001828054600181600116156101000203166002900480156122225780601f106121f757610100808354040283529160200191612222565b820191906000526020600020905b81548152906001019060200180831161220557829003601f168201915b5050505050905090565b6000801b81565b61223b612b87565b73ffffffffffffffffffffffffffffffffffffffff168273ffffffffffffffffffffffffffffffffffffffff1614156122a9576040517f08c379a00000000000000000000000000000000000000000000000000000000081526004016122a0906152eb565b60405180910390fd5b80600560006122b6612b87565b73ffffffffffffffffffffffffffffffffffffffff1673ffffffffffffffffffffffffffffffffffffffff16815260200190815260200160002060008473ffffffffffffffffffffffffffffffffffffffff1673ffffffffffffffffffffffffffffffffffffffff16815260200190815260200160002060006101000a81548160ff0219169083151502179055508173ffffffffffffffffffffffffffffffffffffffff16612363612b87565b73ffffffffffffffffffffffffffffffffffffffff167f17307eab39ab6107e8899845ad3d59bd9653f200f220920489ca2b5937696c31836040516123a891906151f3565b60405180910390a35050565b6040516123c0906150e7565b604051809103902081565b6123dc6123d6612b87565b83612c5d565b61241b576040517f08c379a00000000000000000000000000000000000000000000000000000000081526004016124129061544b565b60405180910390fd5b61242784848484613141565b50505050565b606061243882612b6a565b612477576040517f08c379a000000000000000000000000000000000000000000000000000000000815260040161246e9061540b565b60405180910390fd5b6060600860008481526020019081526020016000208054600181600116156101000203166002900480601f0160208091040260200160405190810160405280929190818152602001828054600181600116156101000203166002900480156125205780601f106124f557610100808354040283529160200191612520565b820191906000526020600020905b81548152906001019060200180831161250357829003601f168201915b5050505050905060006009805460018160011615610100020316600290049050141561254f57809150506125b3565b6000815111156125845760098160405160200161256d9291906150ae565b6040516020818303038152906040529150506125b3565b600961258f8461319d565b6040516020016125a09291906150ae565b6040516020818303038152906040529150505b919050565b600c6020528060005260406000206000915054906101000a900460ff1681565b60006125f8600a60008481526020019081526020016000206000016132cd565b9050919050565b612626600a600084815260200190815260200160002060020154612621612b87565b612158565b612665576040517f08c379a000000000000000000000000000000000000000000000000000000000815260040161265c9061532b565b60405180910390fd5b61266f8282613000565b5050565b61267b613d02565b600061268633611d14565b905060008090506000612697613d02565b60108463ffffffff16116126ad578392506126b2565b601092505b60008090505b8363ffffffff168163ffffffff161015612aad576126dc338263ffffffff166111c3565b9250600e60008463ffffffff1663ffffffff168152602001908152602001600020604051806101600160405290816000820160009054906101000a900463ffffffff1663ffffffff1663ffffffff168152602001600182018054600181600116156101000203166002900480601f0160208091040260200160405190810160405280929190818152602001828054600181600116156101000203166002900480156127c85780601f1061279d576101008083540402835291602001916127c8565b820191906000526020600020905b8154815290600101906020018083116127ab57829003601f168201915b505050505081526020016002820160009054906101000a900463ffffffff1663ffffffff1663ffffffff168152602001600382018054600181600116156101000203166002900480601f0160208091040260200160405190810160405280929190818152602001828054600181600116156101000203166002900480156128905780601f1061286557610100808354040283529160200191612890565b820191906000526020600020905b81548152906001019060200180831161287357829003601f168201915b505050505081526020016004820160009054906101000a900460ff1660048111156128b757fe5b60048111156128c257fe5b81526020016004820160019054906101000a900473ffffffffffffffffffffffffffffffffffffffff1673ffffffffffffffffffffffffffffffffffffffff1673ffffffffffffffffffffffffffffffffffffffff1681526020016005820160009054906101000a900473ffffffffffffffffffffffffffffffffffffffff1673ffffffffffffffffffffffffffffffffffffffff1673ffffffffffffffffffffffffffffffffffffffff1681526020016005820160149054906101000a900463ffffffff1663ffffffff1663ffffffff1681526020016005820160189054906101000a900463ffffffff1663ffffffff1663ffffffff16815260200160058201601c9054906101000a900463ffffffff1663ffffffff1663ffffffff168152602001600682018054600181600116156101000203166002900480601f016020809104026020016040519081016040528092919081815260200182805460018160011615610100020316600290048015612a7d5780601f10612a5257610100808354040283529160200191612a7d565b820191906000526020600020905b815481529060010190602001808311612a6057829003601f168201915b505050505081525050828263ffffffff1660108110612a9857fe5b602002018190525080806001019150506126b8565b508094505050505090565b6000600560008473ffffffffffffffffffffffffffffffffffffffff1673ffffffffffffffffffffffffffffffffffffffff16815260200190815260200160002060008373ffffffffffffffffffffffffffffffffffffffff1673ffffffffffffffffffffffffffffffffffffffff16815260200190815260200160002060009054906101000a900460ff16905092915050565b612b668282604051806020016040528060008152506132e2565b5050565b6000612b8082600261333d90919063ffffffff16565b9050919050565b600033905090565b816004600083815260200190815260200160002060006101000a81548173ffffffffffffffffffffffffffffffffffffffff021916908373ffffffffffffffffffffffffffffffffffffffff160217905550808273ffffffffffffffffffffffffffffffffffffffff16612c0283611b26565b73ffffffffffffffffffffffffffffffffffffffff167f8c5be1e5ebec7d5bd14f71427d1e84f3dd0314c0f7b2291e5b200ac8c7c3b92560405160405180910390a45050565b6000612c5682600001613357565b9050919050565b6000612c6882612b6a565b612ca7576040517f08c379a0000000000000000000000000000000000000000000000000000000008152600401612c9e9061530b565b60405180910390fd5b6000612cb283611b26565b90508073ffffffffffffffffffffffffffffffffffffffff168473ffffffffffffffffffffffffffffffffffffffff161480612d2157508373ffffffffffffffffffffffffffffffffffffffff16612d09846109e6565b73ffffffffffffffffffffffffffffffffffffffff16145b80612d325750612d318185612ab8565b5b91505092915050565b8273ffffffffffffffffffffffffffffffffffffffff16612d5b82611b26565b73ffffffffffffffffffffffffffffffffffffffff1614612db1576040517f08c379a0000000000000000000000000000000000000000000000000000000008152600401612da8906153eb565b60405180910390fd5b600073ffffffffffffffffffffffffffffffffffffffff168273ffffffffffffffffffffffffffffffffffffffff161415612e21576040517f08c379a0000000000000000000000000000000000000000000000000000000008152600401612e18906152cb565b60405180910390fd5b612e2c838383613368565b612e37600082612b8f565b612e8881600160008673ffffffffffffffffffffffffffffffffffffffff1673ffffffffffffffffffffffffffffffffffffffff16815260200190815260200160002061336d90919063ffffffff16565b50612eda81600160008573ffffffffffffffffffffffffffffffffffffffff1673ffffffffffffffffffffffffffffffffffffffff16815260200190815260200160002061338790919063ffffffff16565b50612ef1818360026133a19092919063ffffffff16565b50808273ffffffffffffffffffffffffffffffffffffffff168473ffffffffffffffffffffffffffffffffffffffff167fddf252ad1be2c89b69c2b068fc378daa952ba7f163c4a11628f55a4df523b3ef60405160405180910390a4505050565b612f7a81600a60008581526020019081526020016000206000016133d690919063ffffffff16565b15612fe257612f87612b87565b73ffffffffffffffffffffffffffffffffffffffff168173ffffffffffffffffffffffffffffffffffffffff16837f2f8788117e7eff1d82e926ec794901d17c78024a50270940304540a733656f0d60405160405180910390a45b5050565b6000612ff58360000183613406565b60001c905092915050565b61302881600a600085815260200190815260200160002060000161347390919063ffffffff16565b1561309057613035612b87565b73ffffffffffffffffffffffffffffffffffffffff168173ffffffffffffffffffffffffffffffffffffffff16837ff6391f5c32d9c69d2a47ea670b442974b53935d1edc7fd64eb21e047a839171b60405160405180910390a45b5050565b6000806000806130a786600001866134a3565b915091508160001c8160001c8090509350935050509250929050565b60006130d6846000018460001b84613526565b60001c90509392505050565b60006130f0826000016135b7565b9050919050565b60006131068360000183613406565b60001c905092915050565b6000613139836000018373ffffffffffffffffffffffffffffffffffffffff1660001b6135c8565b905092915050565b61314c848484612d3b565b613158848484846135eb565b613197576040517f08c379a000000000000000000000000000000000000000000000000000000000815260040161318e9061528b565b60405180910390fd5b50505050565b606060008214156131e5576040518060400160405280600181526020017f300000000000000000000000000000000000000000000000000000000000000081525090506132c8565b600082905060005b6000821461320f578080600101915050600a828161320757fe5b0491506131ed565b6060816040519080825280601f01601f1916602001820160405280156132445781602001600182028038833980820191505090505b50905060006001830390508593505b600084146132c057600a848161326557fe5b0660300160f81b8282806001900393508151811061327f57fe5b60200101907effffffffffffffffffffffffffffffffffffffffffffffffffffffffffffff1916908160001a905350600a84816132b857fe5b049350613253565b819450505050505b919050565b60006132db826000016135b7565b9050919050565b6132ec838361374f565b6132f960008484846135eb565b613338576040517f08c379a000000000000000000000000000000000000000000000000000000000815260040161332f9061528b565b60405180910390fd5b505050565b600061334f836000018360001b6138dd565b905092915050565b600081600001805490509050919050565b505050565b600061337f836000018360001b613900565b905092915050565b6000613399836000018360001b6139e8565b905092915050565b60006133cd846000018460001b8473ffffffffffffffffffffffffffffffffffffffff1660001b613a58565b90509392505050565b60006133fe836000018373ffffffffffffffffffffffffffffffffffffffff1660001b6139e8565b905092915050565b600081836000018054905011613451576040517f08c379a00000000000000000000000000000000000000000000000000000000081526004016134489061524b565b60405180910390fd5b82600001828154811061346057fe5b9060005260206000200154905092915050565b600061349b836000018373ffffffffffffffffffffffffffffffffffffffff1660001b613900565b905092915050565b600080828460000180549050116134ef576040517f08c379a00000000000000000000000000000000000000000000000000000000081526004016134e69061538b565b60405180910390fd5b600084600001848154811061350057fe5b906000526020600020906002020190508060000154816001015492509250509250929050565b60008084600101600085815260200190815260200160002054905060008114158390613588576040517f08c379a000000000000000000000000000000000000000000000000000000000815260040161357f9190615229565b60405180910390fd5b5084600001600182038154811061359b57fe5b9060005260206000209060020201600101549150509392505050565b600081600001805490509050919050565b600080836001016000848152602001908152602001600020541415905092915050565b600061360c8473ffffffffffffffffffffffffffffffffffffffff16613b34565b6136195760019050613747565b60606136e063150b7a0260e01b61362e612b87565b8887876040516024016136449493929190615117565b604051602081830303815290604052907bffffffffffffffffffffffffffffffffffffffffffffffffffffffff19166020820180517bffffffffffffffffffffffffffffffffffffffffffffffffffffffff83818316178352505050506040518060600160405280603281526020016158af603291398773ffffffffffffffffffffffffffffffffffffffff16613b479092919063ffffffff16565b90506000818060200190516136f89190810190614228565b905063150b7a0260e01b7bffffffffffffffffffffffffffffffffffffffffffffffffffffffff1916817bffffffffffffffffffffffffffffffffffffffffffffffffffffffff191614925050505b949350505050565b600073ffffffffffffffffffffffffffffffffffffffff168273ffffffffffffffffffffffffffffffffffffffff1614156137bf576040517f08c379a00000000000000000000000000000000000000000000000000000000081526004016137b6906153ab565b60405180910390fd5b6137c881612b6a565b15613808576040517f08c379a00000000000000000000000000000000000000000000000000000000081526004016137ff906152ab565b60405180910390fd5b61381460008383613368565b61386581600160008573ffffffffffffffffffffffffffffffffffffffff1673ffffffffffffffffffffffffffffffffffffffff16815260200190815260200160002061338790919063ffffffff16565b5061387c818360026133a19092919063ffffffff16565b50808273ffffffffffffffffffffffffffffffffffffffff16600073ffffffffffffffffffffffffffffffffffffffff167fddf252ad1be2c89b69c2b068fc378daa952ba7f163c4a11628f55a4df523b3ef60405160405180910390a45050565b600080836001016000848152602001908152602001600020541415905092915050565b600080836001016000848152602001908152602001600020549050600081146139dc576000600182039050600060018660000180549050039050600086600001828154811061394b57fe5b906000526020600020015490508087600001848154811061396857fe5b90600052602060002001819055506001830187600101600083815260200190815260200160002081905550866000018054806139a057fe5b600190038181906000526020600020016000905590558660010160008781526020019081526020016000206000905560019450505050506139e2565b60009150505b92915050565b60006139f483836135c8565b613a4d578260000182908060018154018082558091505060019003906000526020600020016000909190919091505582600001805490508360010160008481526020019081526020016000208190555060019050613a52565b600090505b92915050565b6000808460010160008581526020019081526020016000205490506000811415613aff57846000016040518060400160405280868152602001858152509080600181540180825580915050600190039060005260206000209060020201600090919091909150600082015181600001556020820151816001015550508460000180549050856001016000868152602001908152602001600020819055506001915050613b2d565b82856000016001830381548110613b1257fe5b90600052602060002090600202016001018190555060009150505b9392505050565b600080823b905060008111915050919050565b6060613b568484600085613b5f565b90509392505050565b6060613b6a85613b34565b613ba9576040517f08c379a0000000000000000000000000000000000000000000000000000000008152600401613ba09061546b565b60405180910390fd5b600060608673ffffffffffffffffffffffffffffffffffffffff168587604051613bd39190615097565b60006040518083038185875af1925050503d8060008114613c10576040519150601f19603f3d011682016040523d82523d6000602084013e613c15565b606091505b50915091508115613c2a578092505050613c7a565b600081511115613c3d5780518082602001fd5b836040517f08c379a0000000000000000000000000000000000000000000000000000000008152600401613c719190615229565b60405180910390fd5b949350505050565b828054600181600116156101000203166002900490600052602060002090601f016020900481019282601f10613cc357805160ff1916838001178555613cf1565b82800160010185558215613cf1579182015b82811115613cf0578251825591602001919060010190613cd5565b5b509050613cfe9190613d5e565b5090565b6040518061020001604052806010905b613d1a613d83565b815260200190600190039081613d125790505090565b6040518061020001604052806010905b613d48613e32565b815260200190600190039081613d405790505090565b613d8091905b80821115613d7c576000816000905550600101613d64565b5090565b90565b604051806101600160405280600063ffffffff16815260200160608152602001600063ffffffff1681526020016060815260200160006004811115613dc457fe5b8152602001600073ffffffffffffffffffffffffffffffffffffffff168152602001600073ffffffffffffffffffffffffffffffffffffffff168152602001600063ffffffff168152602001600063ffffffff168152602001600063ffffffff168152602001606081525090565b6040518060800160405280600073ffffffffffffffffffffffffffffffffffffffff16815260200160608152602001600063ffffffff168152602001600063ffffffff1681525090565b600081359050613e8b81615824565b92915050565b600081359050613ea08161583b565b92915050565b600081359050613eb581615852565b92915050565b600081359050613eca81615869565b92915050565b600081519050613edf81615869565b92915050565b600082601f830112613ef657600080fd5b8135613f09613f04826155ce565b6155a1565b91508082526020830160208301858383011115613f2557600080fd5b613f308382846157c4565b50505092915050565b600082601f830112613f4a57600080fd5b8135613f5d613f58826155fa565b6155a1565b91508082526020830160208301858383011115613f7957600080fd5b613f848382846157c4565b50505092915050565b600081359050613f9c81615880565b92915050565b600081359050613fb181615897565b92915050565b600060208284031215613fc957600080fd5b6000613fd784828501613e7c565b91505092915050565b60008060408385031215613ff357600080fd5b600061400185828601613e7c565b925050602061401285828601613e7c565b9150509250929050565b60008060006060848603121561403157600080fd5b600061403f86828701613e7c565b935050602061405086828701613e7c565b925050604061406186828701613f8d565b9150509250925092565b6000806000806080858703121561408157600080fd5b600061408f87828801613e7c565b94505060206140a087828801613e7c565b93505060406140b187828801613f8d565b925050606085013567ffffffffffffffff8111156140ce57600080fd5b6140da87828801613ee5565b91505092959194509250565b600080604083850312156140f957600080fd5b600061410785828601613e7c565b925050602061411885828601613e91565b9150509250929050565b6000806040838503121561413557600080fd5b600061414385828601613e7c565b925050602061415485828601613f8d565b9150509250929050565b60006020828403121561417057600080fd5b600061417e84828501613ea6565b91505092915050565b6000806040838503121561419a57600080fd5b60006141a885828601613ea6565b92505060206141b985828601613e7c565b9150509250929050565b600080604083850312156141d657600080fd5b60006141e485828601613ea6565b92505060206141f585828601613f8d565b9150509250929050565b60006020828403121561421157600080fd5b600061421f84828501613ebb565b91505092915050565b60006020828403121561423a57600080fd5b600061424884828501613ed0565b91505092915050565b6000806000806080858703121561426757600080fd5b600085013567ffffffffffffffff81111561428157600080fd5b61428d87828801613f39565b945050602061429e87828801613fa2565b935050604085013567ffffffffffffffff8111156142bb57600080fd5b6142c787828801613f39565b925050606085013567ffffffffffffffff8111156142e457600080fd5b6142f087828801613f39565b91505092959194509250565b60006020828403121561430e57600080fd5b600061431c84828501613f8d565b91505092915050565b60006020828403121561433757600080fd5b600061434584828501613fa2565b91505092915050565b6000806040838503121561436157600080fd5b600061436f85828601613fa2565b925050602061438085828601613e7c565b9150509250929050565b600080600080608085870312156143a057600080fd5b60006143ae87828801613fa2565b945050602085013567ffffffffffffffff8111156143cb57600080fd5b6143d787828801613f39565b93505060406143e887828801613fa2565b92505060606143f987828801613fa2565b91505092959194509250565b6000806040838503121561441857600080fd5b600061442685828601613fa2565b925050602061443785828601613fa2565b9150509250929050565b600061444d8383614f0a565b905092915050565b60006144618383615007565b905092915050565b61447281615711565b82525050565b614481816156ff565b82525050565b614490816156ff565b82525050565b60006144a18261564f565b6144ab81856156a0565b9350836020820285016144bd85615626565b8060005b858110156144f957848403895281516144da8582614441565b94506144e583615686565b925060208a019950506001810190506144c1565b50829750879550505050505092915050565b60006145168261565a565b61452081856156ab565b93508360208202850161453285615630565b8060005b8581101561456e578484038952815161454f8582614455565b945061455a83615693565b925060208a01995050600181019050614536565b50829750879550505050505092915050565b61458981615723565b82525050565b6145988161572f565b82525050565b60006145a982615665565b6145b381856156b6565b93506145c38185602086016157d3565b6145cc81615806565b840191505092915050565b60006145e282615665565b6145ec81856156c7565b93506145fc8185602086016157d3565b80840191505092915050565b614611816157b2565b82525050565b614620816157b2565b82525050565b60006146318261567b565b61463b81856156e3565b935061464b8185602086016157d3565b61465481615806565b840191505092915050565b600061466a8261567b565b61467481856156f4565b93506146848185602086016157d3565b80840191505092915050565b600061469b82615670565b6146a581856156d2565b93506146b58185602086016157d3565b6146be81615806565b840191505092915050565b60006146d482615670565b6146de81856156e3565b93506146ee8185602086016157d3565b6146f781615806565b840191505092915050565b60008154600181166000811461471f576001811461474457614788565b607f600283041661473081876156f4565b955060ff1983168652808601935050614788565b6002820461475281876156f4565b955061475d8561563a565b60005b8281101561477f57815481890152600182019150602081019050614760565b82880195505050505b505092915050565b600061479d6022836156e3565b91507f456e756d657261626c655365743a20696e646578206f7574206f6620626f756e60008301527f64730000000000000000000000000000000000000000000000000000000000006020830152604082019050919050565b6000614803602f836156e3565b91507f416363657373436f6e74726f6c3a2073656e646572206d75737420626520616e60008301527f2061646d696e20746f206772616e7400000000000000000000000000000000006020830152604082019050919050565b60006148696032836156e3565b91507f4552433732313a207472616e7366657220746f206e6f6e20455243373231526560008301527f63656976657220696d706c656d656e74657200000000000000000000000000006020830152604082019050919050565b60006148cf601c836156e3565b91507f4552433732313a20746f6b656e20616c7265616479206d696e746564000000006000830152602082019050919050565b600061490f6024836156e3565b91507f4552433732313a207472616e7366657220746f20746865207a65726f2061646460008301527f72657373000000000000000000000000000000000000000000000000000000006020830152604082019050919050565b60006149756019836156e3565b91507f4552433732313a20617070726f766520746f2063616c6c6572000000000000006000830152602082019050919050565b60006149b5602c836156e3565b91507f4552433732313a206f70657261746f7220717565727920666f72206e6f6e657860008301527f697374656e7420746f6b656e00000000000000000000000000000000000000006020830152604082019050919050565b6000614a1b6030836156e3565b91507f416363657373436f6e74726f6c3a2073656e646572206d75737420626520616e60008301527f2061646d696e20746f207265766f6b65000000000000000000000000000000006020830152604082019050919050565b6000614a816038836156e3565b91507f4552433732313a20617070726f76652063616c6c6572206973206e6f74206f7760008301527f6e6572206e6f7220617070726f76656420666f7220616c6c00000000000000006020830152604082019050919050565b6000614ae76005836156f4565b91507f444f4e4f520000000000000000000000000000000000000000000000000000006000830152600582019050919050565b6000614b27602a836156e3565b91507f4552433732313a2062616c616e636520717565727920666f7220746865207a6560008301527f726f2061646472657373000000000000000000000000000000000000000000006020830152604082019050919050565b6000614b8d6022836156e3565b91507f456e756d657261626c654d61703a20696e646578206f7574206f6620626f756e60008301527f64730000000000000000000000000000000000000000000000000000000000006020830152604082019050919050565b6000614bf36020836156e3565b91507f4552433732313a206d696e7420746f20746865207a65726f20616464726573736000830152602082019050919050565b6000614c33602c836156e3565b91507f4552433732313a20617070726f76656420717565727920666f72206e6f6e657860008301527f697374656e7420746f6b656e00000000000000000000000000000000000000006020830152604082019050919050565b6000614c996008836156f4565b91507f52454345495645520000000000000000000000000000000000000000000000006000830152600882019050919050565b6000614cd96029836156e3565b91507f4552433732313a207472616e73666572206f6620746f6b656e2074686174206960008301527f73206e6f74206f776e00000000000000000000000000000000000000000000006020830152604082019050919050565b6000614d3f602f836156e3565b91507f4552433732314d657461646174613a2055524920717565727920666f72206e6f60008301527f6e6578697374656e7420746f6b656e00000000000000000000000000000000006020830152604082019050919050565b6000614da56021836156e3565b91507f4552433732313a20617070726f76616c20746f2063757272656e74206f776e6560008301527f72000000000000000000000000000000000000000000000000000000000000006020830152604082019050919050565b6000614e0b6031836156e3565b91507f4552433732313a207472616e736665722063616c6c6572206973206e6f74206f60008301527f776e6572206e6f7220617070726f7665640000000000000000000000000000006020830152604082019050919050565b6000614e71601d836156e3565b91507f416464726573733a2063616c6c20746f206e6f6e2d636f6e74726163740000006000830152602082019050919050565b6000614eb1602f836156e3565b91507f416363657373436f6e74726f6c3a2063616e206f6e6c792072656e6f756e636560008301527f20726f6c657320666f722073656c6600000000000000000000000000000000006020830152604082019050919050565b600061016083016000830151614f236000860182615079565b5060208301518482036020860152614f3b8282614690565b9150506040830151614f506040860182615079565b5060608301518482036060860152614f688282614690565b9150506080830151614f7d6080860182614608565b5060a0830151614f9060a0860182614478565b5060c0830151614fa360c0860182614478565b5060e0830151614fb660e0860182615079565b50610100830151614fcb610100860182615079565b50610120830151614fe0610120860182615079565b50610140830151848203610140860152614ffa8282614690565b9150508091505092915050565b600060808301600083015161501f6000860182614478565b50602083015184820360208601526150378282614690565b915050604083015161504c6040860182615079565b50606083015161505f6060860182615079565b508091505092915050565b61507381615798565b82525050565b615082816157a2565b82525050565b615091816157a2565b82525050565b60006150a382846145d7565b915081905092915050565b60006150ba8285614702565b91506150c6828461465f565b91508190509392505050565b60006150dd82614ada565b9150819050919050565b60006150f282614c8c565b9150819050919050565b60006020820190506151116000830184614487565b92915050565b600060808201905061512c6000830187614469565b6151396020830186614487565b615146604083018561506a565b8181036060830152615158818461459e565b905095945050505050565b60006080820190506151786000830187614487565b818103602083015261518a81866146c9565b90506151996040830185615088565b6151a66060830184615088565b95945050505050565b600060208201905081810360008301526151c98184614496565b905092915050565b600060208201905081810360008301526151eb818461450b565b905092915050565b60006020820190506152086000830184614580565b92915050565b6000602082019050615223600083018461458f565b92915050565b600060208201905081810360008301526152438184614626565b905092915050565b6000602082019050818103600083015261526481614790565b9050919050565b60006020820190508181036000830152615284816147f6565b9050919050565b600060208201905081810360008301526152a48161485c565b9050919050565b600060208201905081810360008301526152c4816148c2565b9050919050565b600060208201905081810360008301526152e481614902565b9050919050565b6000602082019050818103600083015261530481614968565b9050919050565b60006020820190508181036000830152615324816149a8565b9050919050565b6000602082019050818103600083015261534481614a0e565b9050919050565b6000602082019050818103600083015261536481614a74565b9050919050565b6000602082019050818103600083015261538481614b1a565b9050919050565b600060208201905081810360008301526153a481614b80565b9050919050565b600060208201905081810360008301526153c481614be6565b9050919050565b600060208201905081810360008301526153e481614c26565b9050919050565b6000602082019050818103600083015261540481614ccc565b9050919050565b6000602082019050818103600083015261542481614d32565b9050919050565b6000602082019050818103600083015261544481614d98565b9050919050565b6000602082019050818103600083015261546481614dfe565b9050919050565b6000602082019050818103600083015261548481614e64565b9050919050565b600060208201905081810360008301526154a481614ea4565b9050919050565b60006020820190506154c0600083018461506a565b92915050565b60006020820190506154db6000830184615088565b92915050565b6000610160820190506154f7600083018e615088565b8181036020830152615509818d6146c9565b9050615518604083018c615088565b818103606083015261552a818b6146c9565b9050615539608083018a614617565b61554660a0830189614487565b61555360c0830188614487565b61556060e0830187615088565b61556e610100830186615088565b61557c610120830185615088565b81810361014083015261558f81846146c9565b90509c9b505050505050505050505050565b6000604051905081810181811067ffffffffffffffff821117156155c457600080fd5b8060405250919050565b600067ffffffffffffffff8211156155e557600080fd5b601f19601f8301169050602081019050919050565b600067ffffffffffffffff82111561561157600080fd5b601f19601f8301169050602081019050919050565b6000819050919050565b6000819050919050565b60008190508160005260206000209050919050565b600060109050919050565b600060109050919050565b600081519050919050565b600081519050919050565b600081519050919050565b6000602082019050919050565b6000602082019050919050565b600081905092915050565b600081905092915050565b600082825260208201905092915050565b600081905092915050565b600082825260208201905092915050565b600082825260208201905092915050565b600081905092915050565b600061570a82615778565b9050919050565b600061571c82615778565b9050919050565b60008115159050919050565b6000819050919050565b60007fffffffff0000000000000000000000000000000000000000000000000000000082169050919050565b600081905061577382615817565b919050565b600073ffffffffffffffffffffffffffffffffffffffff82169050919050565b6000819050919050565b600063ffffffff82169050919050565b60006157bd82615765565b9050919050565b82818337600083830152505050565b60005b838110156157f15780820151818401526020810190506157d6565b83811115615800576000848401525b50505050565b6000601f19601f8301169050919050565b6005811061582157fe5b50565b61582d816156ff565b811461583857600080fd5b50565b61584481615723565b811461584f57600080fd5b50565b61585b8161572f565b811461586657600080fd5b50565b61587281615739565b811461587d57600080fd5b50565b61588981615798565b811461589457600080fd5b50565b6158a0816157a2565b81146158ab57600080fd5b5056fe4552433732313a207472616e7366657220746f206e6f6e20455243373231526563656976657220696d706c656d656e7465724552433732313a206f776e657220717565727920666f72206e6f6e6578697374656e7420746f6b656ea26469706673582212209fad408aea5a76cecbbe3a3acdbe9ccce0d58e671312aeb71870fe55013a904264736f6c63430006020033",
  "source": "// SPDX-License-Identifier: MIT\npragma solidity ^0.6.2;\npragma experimental ABIEncoderV2;\n\nimport \"@openzeppelin/contracts/token/ERC721/ERC721.sol\";\nimport \"@openzeppelin/contracts/access/AccessControl.sol\";\n\ncontract AssetDonation is ERC721, AccessControl {\n    uint32 lastAssetId;\n    uint32 lastRequestId;\n    uint32 constant maxNoOfReqsPerAsst = 3;\n\n    mapping(address => bool) public donors;\n    mapping(address => bool) public receivers;\n\n    constructor() public ERC721(\"MyToken\", \"MTS\") AccessControl() {\n        lastAssetId = 0;\n        lastRequestId = 0;\n    }\n\n    bytes32 public constant DONOR = keccak256(\"DONOR\");\n    bytes32 public constant RECEIVER = keccak256(\"RECEIVER\");\n\n    enum Status {Free, Requested, Donated, Inactive, Burned}\n\n    // struct AssetType{\n    //   string assetType;\n    // }\n\n    struct Asset {\n        uint32 assetId; \n        string assetDescription;\n        uint32 availablityDate;\n        string location;\n        Status status;\n        address owner;\n        address recipient;\n        uint32 donatedDateFrom;\n        uint32 donatedDateTo;\n        uint32 requestCount;\n        string imageIPFSHash;\n        //AssetType assetType;\n    }\n\n    mapping(uint32 => Asset) public donationList;\n\n    struct Request {\n        address receiver;\n        string requestDescription;\n        uint32 requestDateFrom;\n        uint32 requestDateTo;\n        //   AssetType assetType;\n    }\n    mapping(uint32 => mapping(uint32 => Request)) public assetRequestList;\n\n    modifier isDonor(address donorAddress) {\n        require(hasRole(DONOR, donorAddress));\n        _;\n    }\n\n    function addDonor() public {\n        donors[msg.sender] = false;\n        approveDonor(msg.sender);\n    }\n\n    function approveDonor(address donorAddress) public {\n        grantRole(DONOR, donorAddress);\n        donors[donorAddress] = true;\n    }\n\n    function addAsset(\n        string memory assetDescription,\n        uint32 availablityDate,\n        string memory location /*isDonor(msg.sender)*/\n        ,string memory imageIPFSHash\n    ) public {\n        //Request[maxNoOfReqsPerAsst] storage requests;\n        //mapping(uint=>Request) memory\n        uint32 assetId = mintToken(msg.sender);\n        donationList[assetId] = Asset({\n            assetId:assetId,\n            assetDescription: assetDescription,\n            availablityDate: availablityDate,\n            location: location,\n            status: Status.Free,\n            owner: msg.sender,\n            recipient: address(0),\n            donatedDateFrom: 0,\n            donatedDateTo: 0, //requestList: requests,\n            requestCount: 0,\n            imageIPFSHash: imageIPFSHash\n        });\n    }\n\n    function getDonations() public view returns (Asset[16] memory) {\n        uint32 tokenCount = uint32(balanceOf(msg.sender));\n        uint32 index = 0;\n        uint32 tokenId;\n        Asset[16] memory assetList;\n        if (tokenCount <= 16) {\n            index = tokenCount;\n        } else {\n            index = 16;\n        }\n        for (uint32 i = 0; i < index; i++) {\n            tokenId = uint32(tokenOfOwnerByIndex(msg.sender, i));\n            assetList[i] = donationList[tokenId];\n        }\n        return assetList;\n    }\n\n    function getAllDonations() public view returns (Asset[16] memory) {\n        uint32 index = 0;\n        Asset[16] memory assetList;\n        if (lastAssetId <= 16) {\n            index = lastAssetId;\n        } else {\n            index = 16;\n        }\n        for (uint32 i = 0; i < index; i++) {\n            assetList[i] = donationList[i];\n        }\n        return assetList;\n    }\n\n    function getDonationRequests(uint32 assetId)\n        public\n        view\n        returns (Request[16] memory)\n    {\n        Request[16] memory requestArray;\n\n\n            mapping(uint32 => Request) storage requestMapping\n         = assetRequestList[assetId];\n        for (uint32 i = 0; i < donationList[assetId].requestCount; i++) {\n            requestArray[i] = requestMapping[i];\n        }\n        return requestArray;\n    }\n\n    function mintToken(address assetOwner) public returns (uint32) {\n        _safeMint(assetOwner, lastAssetId);\n        uint32 assetId = lastAssetId;\n        lastAssetId++;\n        return assetId;\n    }\n\n    modifier assetIsFree(uint32 assetId) {\n        require(donationList[assetId].recipient == address(0));\n        _;\n    }\n\n    function donateAsset(uint32 assetId, address recipientAddress)\n        public\n        /*isDonor(msg.sender) isRequester(recipientAddress)*/\n        assetIsFree(assetId)\n    {\n        donationList[assetId].recipient = recipientAddress;\n        donationList[assetId].status = Status.Donated;\n    }\n\n    function addReceiver() public {\n        receivers[msg.sender] = false;\n    }\n\n    function approveReceiver(address receiverAddress) public {\n        grantRole(RECEIVER, receiverAddress);\n        receivers[receiverAddress] = true;\n    }\n\n    function requestAsset(\n        uint32 assetId,\n        string memory requestDescription,\n        uint32 requestDateFrom,\n        uint32 requestDateTo\n    ) public {\n        Asset storage requestedItem = donationList[assetId];\n        //if (requestedItem.requestCount < maxNoOfReqsPerAsst) {\n        assetRequestList[assetId][requestedItem.requestCount] = Request({\n            receiver:msg.sender,\n            requestDescription: requestDescription,\n            requestDateFrom: requestDateFrom,\n            requestDateTo: requestDateTo\n        });\n        donationList[assetId].status = Status.Requested;\n        requestedItem.requestCount++;\n        //}\n    }\n\n    // function addAsset(address assetOwner, string memory ownerName,AssetType memory assetType) isDonor public{\n    //   _safeMint(assetOwner, lastAssetId);\n    //   donationList[lastAssetId]=Asset({ownerName:ownerName,status:Status.Free,recipient:address(0),assetType:assetType});\n    //   lastAssetId ++;\n    // }\n\n    // struct AssetRequest{\n    //   address recipient;\n    //   AssetType assetType;\n    // }\n\n    // mapping (uint => AssetRequest) public requestList;\n\n    // modifier isRecipient(address recipientAddress){\n    //   _;\n    // }\n    // modifier isDonor(address donorAddress){\n    //   _;\n    // }\n\n    // function requestAsset(address recipientAddress, AssetType memory assetType) isRecipient public{\n    //   requestList[lastRequestId] = AssetRequest({recipientAddress:recipientAddress,assetType:assetType});\n    // }\n}\n",
  "sourcePath": "/home/fatemeh/Desktop/Consensys Course/assetdonation/AssetDonation/contracts/AssetDonation.sol",
  "compiler": {
    "name": "solc",
    "version": "0.6.2+commit.bacdbe57.Emscripten.clang"
  },
  "schemaVersion": "3.3.1",
  "updatedAt": "2020-12-03T06:31:39.833Z",
  "networkType": "ethereum",
  "devdoc": {
    "methods": {
      "approve(address,uint256)": {
        "details": "See {IERC721-approve}."
      },
      "balanceOf(address)": {
        "details": "See {IERC721-balanceOf}."
      },
      "baseURI()": {
        "details": "Returns the base URI set via {_setBaseURI}. This will be automatically added as a prefix in {tokenURI} to each token's URI, or to the token ID if no specific URI is set for that token ID."
      },
      "getApproved(uint256)": {
        "details": "See {IERC721-getApproved}."
      },
      "getRoleAdmin(bytes32)": {
        "details": "Returns the admin role that controls `role`. See {grantRole} and {revokeRole}.     * To change a role's admin, use {_setRoleAdmin}."
      },
      "getRoleMember(bytes32,uint256)": {
        "details": "Returns one of the accounts that have `role`. `index` must be a value between 0 and {getRoleMemberCount}, non-inclusive.     * Role bearers are not sorted in any particular way, and their ordering may change at any point.     * WARNING: When using {getRoleMember} and {getRoleMemberCount}, make sure you perform all queries on the same block. See the following https://forum.openzeppelin.com/t/iterating-over-elements-on-enumerableset-in-openzeppelin-contracts/2296[forum post] for more information."
      },
      "getRoleMemberCount(bytes32)": {
        "details": "Returns the number of accounts that have `role`. Can be used together with {getRoleMember} to enumerate all bearers of a role."
      },
      "grantRole(bytes32,address)": {
        "details": "Grants `role` to `account`.     * If `account` had not been already granted `role`, emits a {RoleGranted} event.     * Requirements:     * - the caller must have ``role``'s admin role."
      },
      "hasRole(bytes32,address)": {
        "details": "Returns `true` if `account` has been granted `role`."
      },
      "isApprovedForAll(address,address)": {
        "details": "See {IERC721-isApprovedForAll}."
      },
      "name()": {
        "details": "See {IERC721Metadata-name}."
      },
      "ownerOf(uint256)": {
        "details": "See {IERC721-ownerOf}."
      },
      "renounceRole(bytes32,address)": {
        "details": "Revokes `role` from the calling account.     * Roles are often managed via {grantRole} and {revokeRole}: this function's purpose is to provide a mechanism for accounts to lose their privileges if they are compromised (such as when a trusted device is misplaced).     * If the calling account had been granted `role`, emits a {RoleRevoked} event.     * Requirements:     * - the caller must be `account`."
      },
      "revokeRole(bytes32,address)": {
        "details": "Revokes `role` from `account`.     * If `account` had been granted `role`, emits a {RoleRevoked} event.     * Requirements:     * - the caller must have ``role``'s admin role."
      },
      "safeTransferFrom(address,address,uint256)": {
        "details": "See {IERC721-safeTransferFrom}."
      },
      "safeTransferFrom(address,address,uint256,bytes)": {
        "details": "See {IERC721-safeTransferFrom}."
      },
      "setApprovalForAll(address,bool)": {
        "details": "See {IERC721-setApprovalForAll}."
      },
      "supportsInterface(bytes4)": {
        "details": "See {IERC165-supportsInterface}.     * Time complexity O(1), guaranteed to always use less than 30 000 gas."
      },
      "symbol()": {
        "details": "See {IERC721Metadata-symbol}."
      },
      "tokenByIndex(uint256)": {
        "details": "See {IERC721Enumerable-tokenByIndex}."
      },
      "tokenOfOwnerByIndex(address,uint256)": {
        "details": "See {IERC721Enumerable-tokenOfOwnerByIndex}."
      },
      "tokenURI(uint256)": {
        "details": "See {IERC721Metadata-tokenURI}."
      },
      "totalSupply()": {
        "details": "See {IERC721Enumerable-totalSupply}."
      },
      "transferFrom(address,address,uint256)": {
        "details": "See {IERC721-transferFrom}."
      }
    }
  },
  "userdoc": {
    "methods": {}
  }
}