{
  "contractName": "AssetDonation",
  "abi": [
    {
      "inputs": [],
      "stateMutability": "nonpayable",
      "type": "constructor"
    },
    {
      "anonymous": false,
      "inputs": [
        {
          "indexed": true,
          "internalType": "address",
          "name": "owner",
          "type": "address"
        },
        {
          "indexed": true,
          "internalType": "address",
          "name": "approved",
          "type": "address"
        },
        {
          "indexed": true,
          "internalType": "uint256",
          "name": "tokenId",
          "type": "uint256"
        }
      ],
      "name": "Approval",
      "type": "event"
    },
    {
      "anonymous": false,
      "inputs": [
        {
          "indexed": true,
          "internalType": "address",
          "name": "owner",
          "type": "address"
        },
        {
          "indexed": true,
          "internalType": "address",
          "name": "operator",
          "type": "address"
        },
        {
          "indexed": false,
          "internalType": "bool",
          "name": "approved",
          "type": "bool"
        }
      ],
      "name": "ApprovalForAll",
      "type": "event"
    },
    {
      "anonymous": false,
      "inputs": [
        {
          "indexed": true,
          "internalType": "bytes32",
          "name": "role",
          "type": "bytes32"
        },
        {
          "indexed": true,
          "internalType": "bytes32",
          "name": "previousAdminRole",
          "type": "bytes32"
        },
        {
          "indexed": true,
          "internalType": "bytes32",
          "name": "newAdminRole",
          "type": "bytes32"
        }
      ],
      "name": "RoleAdminChanged",
      "type": "event"
    },
    {
      "anonymous": false,
      "inputs": [
        {
          "indexed": true,
          "internalType": "bytes32",
          "name": "role",
          "type": "bytes32"
        },
        {
          "indexed": true,
          "internalType": "address",
          "name": "account",
          "type": "address"
        },
        {
          "indexed": true,
          "internalType": "address",
          "name": "sender",
          "type": "address"
        }
      ],
      "name": "RoleGranted",
      "type": "event"
    },
    {
      "anonymous": false,
      "inputs": [
        {
          "indexed": true,
          "internalType": "bytes32",
          "name": "role",
          "type": "bytes32"
        },
        {
          "indexed": true,
          "internalType": "address",
          "name": "account",
          "type": "address"
        },
        {
          "indexed": true,
          "internalType": "address",
          "name": "sender",
          "type": "address"
        }
      ],
      "name": "RoleRevoked",
      "type": "event"
    },
    {
      "anonymous": false,
      "inputs": [
        {
          "indexed": true,
          "internalType": "address",
          "name": "from",
          "type": "address"
        },
        {
          "indexed": true,
          "internalType": "address",
          "name": "to",
          "type": "address"
        },
        {
          "indexed": true,
          "internalType": "uint256",
          "name": "tokenId",
          "type": "uint256"
        }
      ],
      "name": "Transfer",
      "type": "event"
    },
    {
      "inputs": [],
      "name": "DEFAULT_ADMIN_ROLE",
      "outputs": [
        {
          "internalType": "bytes32",
          "name": "",
          "type": "bytes32"
        }
      ],
      "stateMutability": "view",
      "type": "function"
    },
    {
      "inputs": [],
      "name": "DONOR",
      "outputs": [
        {
          "internalType": "bytes32",
          "name": "",
          "type": "bytes32"
        }
      ],
      "stateMutability": "view",
      "type": "function"
    },
    {
      "inputs": [],
      "name": "RECEIVER",
      "outputs": [
        {
          "internalType": "bytes32",
          "name": "",
          "type": "bytes32"
        }
      ],
      "stateMutability": "view",
      "type": "function"
    },
    {
      "inputs": [
        {
          "internalType": "address",
          "name": "to",
          "type": "address"
        },
        {
          "internalType": "uint256",
          "name": "tokenId",
          "type": "uint256"
        }
      ],
      "name": "approve",
      "outputs": [],
      "stateMutability": "nonpayable",
      "type": "function"
    },
    {
      "inputs": [
        {
          "internalType": "uint256",
          "name": "",
          "type": "uint256"
        },
        {
          "internalType": "uint256",
          "name": "",
          "type": "uint256"
        }
      ],
      "name": "assetRequestList",
      "outputs": [
        {
          "internalType": "address",
          "name": "receiver",
          "type": "address"
        },
        {
          "internalType": "string",
          "name": "requestDescription",
          "type": "string"
        },
        {
          "internalType": "uint256",
          "name": "requestDateFrom",
          "type": "uint256"
        },
        {
          "internalType": "uint256",
          "name": "requestDateTo",
          "type": "uint256"
        }
      ],
      "stateMutability": "view",
      "type": "function"
    },
    {
      "inputs": [
        {
          "internalType": "address",
          "name": "owner",
          "type": "address"
        }
      ],
      "name": "balanceOf",
      "outputs": [
        {
          "internalType": "uint256",
          "name": "",
          "type": "uint256"
        }
      ],
      "stateMutability": "view",
      "type": "function"
    },
    {
      "inputs": [],
      "name": "baseURI",
      "outputs": [
        {
          "internalType": "string",
          "name": "",
          "type": "string"
        }
      ],
      "stateMutability": "view",
      "type": "function"
    },
    {
      "inputs": [
        {
          "internalType": "uint256",
          "name": "",
          "type": "uint256"
        }
      ],
      "name": "donationList",
      "outputs": [
        {
          "internalType": "uint256",
          "name": "assetId",
          "type": "uint256"
        },
        {
          "internalType": "string",
          "name": "assetDescription",
          "type": "string"
        },
        {
          "internalType": "uint256",
          "name": "availablityDate",
          "type": "uint256"
        },
        {
          "internalType": "string",
          "name": "location",
          "type": "string"
        },
        {
          "internalType": "enum AssetDonation.Status",
          "name": "status",
          "type": "uint8"
        },
        {
          "internalType": "address",
          "name": "owner",
          "type": "address"
        },
        {
          "internalType": "address",
          "name": "recipient",
          "type": "address"
        },
        {
          "internalType": "uint256",
          "name": "donatedDateFrom",
          "type": "uint256"
        },
        {
          "internalType": "uint256",
          "name": "donatedDateTo",
          "type": "uint256"
        },
        {
          "internalType": "uint256",
          "name": "requestCount",
          "type": "uint256"
        }
      ],
      "stateMutability": "view",
      "type": "function"
    },
    {
      "inputs": [
        {
          "internalType": "address",
          "name": "",
          "type": "address"
        }
      ],
      "name": "donors",
      "outputs": [
        {
          "internalType": "bool",
          "name": "",
          "type": "bool"
        }
      ],
      "stateMutability": "view",
      "type": "function"
    },
    {
      "inputs": [
        {
          "internalType": "uint256",
          "name": "tokenId",
          "type": "uint256"
        }
      ],
      "name": "getApproved",
      "outputs": [
        {
          "internalType": "address",
          "name": "",
          "type": "address"
        }
      ],
      "stateMutability": "view",
      "type": "function"
    },
    {
      "inputs": [
        {
          "internalType": "bytes32",
          "name": "role",
          "type": "bytes32"
        }
      ],
      "name": "getRoleAdmin",
      "outputs": [
        {
          "internalType": "bytes32",
          "name": "",
          "type": "bytes32"
        }
      ],
      "stateMutability": "view",
      "type": "function"
    },
    {
      "inputs": [
        {
          "internalType": "bytes32",
          "name": "role",
          "type": "bytes32"
        },
        {
          "internalType": "uint256",
          "name": "index",
          "type": "uint256"
        }
      ],
      "name": "getRoleMember",
      "outputs": [
        {
          "internalType": "address",
          "name": "",
          "type": "address"
        }
      ],
      "stateMutability": "view",
      "type": "function"
    },
    {
      "inputs": [
        {
          "internalType": "bytes32",
          "name": "role",
          "type": "bytes32"
        }
      ],
      "name": "getRoleMemberCount",
      "outputs": [
        {
          "internalType": "uint256",
          "name": "",
          "type": "uint256"
        }
      ],
      "stateMutability": "view",
      "type": "function"
    },
    {
      "inputs": [
        {
          "internalType": "bytes32",
          "name": "role",
          "type": "bytes32"
        },
        {
          "internalType": "address",
          "name": "account",
          "type": "address"
        }
      ],
      "name": "grantRole",
      "outputs": [],
      "stateMutability": "nonpayable",
      "type": "function"
    },
    {
      "inputs": [
        {
          "internalType": "bytes32",
          "name": "role",
          "type": "bytes32"
        },
        {
          "internalType": "address",
          "name": "account",
          "type": "address"
        }
      ],
      "name": "hasRole",
      "outputs": [
        {
          "internalType": "bool",
          "name": "",
          "type": "bool"
        }
      ],
      "stateMutability": "view",
      "type": "function"
    },
    {
      "inputs": [
        {
          "internalType": "address",
          "name": "owner",
          "type": "address"
        },
        {
          "internalType": "address",
          "name": "operator",
          "type": "address"
        }
      ],
      "name": "isApprovedForAll",
      "outputs": [
        {
          "internalType": "bool",
          "name": "",
          "type": "bool"
        }
      ],
      "stateMutability": "view",
      "type": "function"
    },
    {
      "inputs": [],
      "name": "name",
      "outputs": [
        {
          "internalType": "string",
          "name": "",
          "type": "string"
        }
      ],
      "stateMutability": "view",
      "type": "function"
    },
    {
      "inputs": [
        {
          "internalType": "uint256",
          "name": "tokenId",
          "type": "uint256"
        }
      ],
      "name": "ownerOf",
      "outputs": [
        {
          "internalType": "address",
          "name": "",
          "type": "address"
        }
      ],
      "stateMutability": "view",
      "type": "function"
    },
    {
      "inputs": [
        {
          "internalType": "address",
          "name": "",
          "type": "address"
        }
      ],
      "name": "receivers",
      "outputs": [
        {
          "internalType": "bool",
          "name": "",
          "type": "bool"
        }
      ],
      "stateMutability": "view",
      "type": "function"
    },
    {
      "inputs": [
        {
          "internalType": "bytes32",
          "name": "role",
          "type": "bytes32"
        },
        {
          "internalType": "address",
          "name": "account",
          "type": "address"
        }
      ],
      "name": "renounceRole",
      "outputs": [],
      "stateMutability": "nonpayable",
      "type": "function"
    },
    {
      "inputs": [
        {
          "internalType": "bytes32",
          "name": "role",
          "type": "bytes32"
        },
        {
          "internalType": "address",
          "name": "account",
          "type": "address"
        }
      ],
      "name": "revokeRole",
      "outputs": [],
      "stateMutability": "nonpayable",
      "type": "function"
    },
    {
      "inputs": [
        {
          "internalType": "address",
          "name": "from",
          "type": "address"
        },
        {
          "internalType": "address",
          "name": "to",
          "type": "address"
        },
        {
          "internalType": "uint256",
          "name": "tokenId",
          "type": "uint256"
        }
      ],
      "name": "safeTransferFrom",
      "outputs": [],
      "stateMutability": "nonpayable",
      "type": "function"
    },
    {
      "inputs": [
        {
          "internalType": "address",
          "name": "from",
          "type": "address"
        },
        {
          "internalType": "address",
          "name": "to",
          "type": "address"
        },
        {
          "internalType": "uint256",
          "name": "tokenId",
          "type": "uint256"
        },
        {
          "internalType": "bytes",
          "name": "_data",
          "type": "bytes"
        }
      ],
      "name": "safeTransferFrom",
      "outputs": [],
      "stateMutability": "nonpayable",
      "type": "function"
    },
    {
      "inputs": [
        {
          "internalType": "address",
          "name": "operator",
          "type": "address"
        },
        {
          "internalType": "bool",
          "name": "approved",
          "type": "bool"
        }
      ],
      "name": "setApprovalForAll",
      "outputs": [],
      "stateMutability": "nonpayable",
      "type": "function"
    },
    {
      "inputs": [
        {
          "internalType": "bytes4",
          "name": "interfaceId",
          "type": "bytes4"
        }
      ],
      "name": "supportsInterface",
      "outputs": [
        {
          "internalType": "bool",
          "name": "",
          "type": "bool"
        }
      ],
      "stateMutability": "view",
      "type": "function"
    },
    {
      "inputs": [],
      "name": "symbol",
      "outputs": [
        {
          "internalType": "string",
          "name": "",
          "type": "string"
        }
      ],
      "stateMutability": "view",
      "type": "function"
    },
    {
      "inputs": [
        {
          "internalType": "uint256",
          "name": "index",
          "type": "uint256"
        }
      ],
      "name": "tokenByIndex",
      "outputs": [
        {
          "internalType": "uint256",
          "name": "",
          "type": "uint256"
        }
      ],
      "stateMutability": "view",
      "type": "function"
    },
    {
      "inputs": [
        {
          "internalType": "address",
          "name": "owner",
          "type": "address"
        },
        {
          "internalType": "uint256",
          "name": "index",
          "type": "uint256"
        }
      ],
      "name": "tokenOfOwnerByIndex",
      "outputs": [
        {
          "internalType": "uint256",
          "name": "",
          "type": "uint256"
        }
      ],
      "stateMutability": "view",
      "type": "function"
    },
    {
      "inputs": [
        {
          "internalType": "uint256",
          "name": "tokenId",
          "type": "uint256"
        }
      ],
      "name": "tokenURI",
      "outputs": [
        {
          "internalType": "string",
          "name": "",
          "type": "string"
        }
      ],
      "stateMutability": "view",
      "type": "function"
    },
    {
      "inputs": [],
      "name": "totalSupply",
      "outputs": [
        {
          "internalType": "uint256",
          "name": "",
          "type": "uint256"
        }
      ],
      "stateMutability": "view",
      "type": "function"
    },
    {
      "inputs": [
        {
          "internalType": "address",
          "name": "from",
          "type": "address"
        },
        {
          "internalType": "address",
          "name": "to",
          "type": "address"
        },
        {
          "internalType": "uint256",
          "name": "tokenId",
          "type": "uint256"
        }
      ],
      "name": "transferFrom",
      "outputs": [],
      "stateMutability": "nonpayable",
      "type": "function"
    },
    {
      "inputs": [],
      "name": "addDonor",
      "outputs": [],
      "stateMutability": "nonpayable",
      "type": "function"
    },
    {
      "inputs": [
        {
          "internalType": "address",
          "name": "donorAddress",
          "type": "address"
        }
      ],
      "name": "approveDonor",
      "outputs": [],
      "stateMutability": "nonpayable",
      "type": "function"
    },
    {
      "inputs": [
        {
          "internalType": "string",
          "name": "assetDescription",
          "type": "string"
        },
        {
          "internalType": "uint256",
          "name": "availablityDate",
          "type": "uint256"
        },
        {
          "internalType": "string",
          "name": "location",
          "type": "string"
        }
      ],
      "name": "addAsset",
      "outputs": [],
      "stateMutability": "nonpayable",
      "type": "function"
    },
    {
      "inputs": [],
      "name": "getDonation",
      "outputs": [
        {
          "components": [
            {
              "internalType": "uint256",
              "name": "assetId",
              "type": "uint256"
            },
            {
              "internalType": "string",
              "name": "assetDescription",
              "type": "string"
            },
            {
              "internalType": "uint256",
              "name": "availablityDate",
              "type": "uint256"
            },
            {
              "internalType": "string",
              "name": "location",
              "type": "string"
            },
            {
              "internalType": "enum AssetDonation.Status",
              "name": "status",
              "type": "uint8"
            },
            {
              "internalType": "address",
              "name": "owner",
              "type": "address"
            },
            {
              "internalType": "address",
              "name": "recipient",
              "type": "address"
            },
            {
              "internalType": "uint256",
              "name": "donatedDateFrom",
              "type": "uint256"
            },
            {
              "internalType": "uint256",
              "name": "donatedDateTo",
              "type": "uint256"
            },
            {
              "internalType": "uint256",
              "name": "requestCount",
              "type": "uint256"
            }
          ],
          "internalType": "struct AssetDonation.Asset[16]",
          "name": "",
          "type": "tuple[16]"
        }
      ],
      "stateMutability": "view",
      "type": "function"
    },
    {
      "inputs": [],
      "name": "getAllDonations",
      "outputs": [
        {
          "components": [
            {
              "internalType": "uint256",
              "name": "assetId",
              "type": "uint256"
            },
            {
              "internalType": "string",
              "name": "assetDescription",
              "type": "string"
            },
            {
              "internalType": "uint256",
              "name": "availablityDate",
              "type": "uint256"
            },
            {
              "internalType": "string",
              "name": "location",
              "type": "string"
            },
            {
              "internalType": "enum AssetDonation.Status",
              "name": "status",
              "type": "uint8"
            },
            {
              "internalType": "address",
              "name": "owner",
              "type": "address"
            },
            {
              "internalType": "address",
              "name": "recipient",
              "type": "address"
            },
            {
              "internalType": "uint256",
              "name": "donatedDateFrom",
              "type": "uint256"
            },
            {
              "internalType": "uint256",
              "name": "donatedDateTo",
              "type": "uint256"
            },
            {
              "internalType": "uint256",
              "name": "requestCount",
              "type": "uint256"
            }
          ],
          "internalType": "struct AssetDonation.Asset[16]",
          "name": "",
          "type": "tuple[16]"
        }
      ],
      "stateMutability": "view",
      "type": "function"
    },
    {
      "inputs": [
        {
          "internalType": "uint256",
          "name": "assetId",
          "type": "uint256"
        }
      ],
      "name": "getDonationRequests",
      "outputs": [
        {
          "components": [
            {
              "internalType": "address",
              "name": "receiver",
              "type": "address"
            },
            {
              "internalType": "string",
              "name": "requestDescription",
              "type": "string"
            },
            {
              "internalType": "uint256",
              "name": "requestDateFrom",
              "type": "uint256"
            },
            {
              "internalType": "uint256",
              "name": "requestDateTo",
              "type": "uint256"
            }
          ],
          "internalType": "struct AssetDonation.Request[16]",
          "name": "",
          "type": "tuple[16]"
        }
      ],
      "stateMutability": "view",
      "type": "function"
    },
    {
      "inputs": [
        {
          "internalType": "address",
          "name": "assetOwner",
          "type": "address"
        }
      ],
      "name": "mintToken",
      "outputs": [
        {
          "internalType": "uint256",
          "name": "",
          "type": "uint256"
        }
      ],
      "stateMutability": "nonpayable",
      "type": "function"
    },
    {
      "inputs": [
        {
          "internalType": "uint256",
          "name": "assetId",
          "type": "uint256"
        },
        {
          "internalType": "address",
          "name": "recipientAddress",
          "type": "address"
        }
      ],
      "name": "donateAsset",
      "outputs": [],
      "stateMutability": "nonpayable",
      "type": "function"
    },
    {
      "inputs": [],
      "name": "addReceiver",
      "outputs": [],
      "stateMutability": "nonpayable",
      "type": "function"
    },
    {
      "inputs": [
        {
          "internalType": "address",
          "name": "receiverAddress",
          "type": "address"
        }
      ],
      "name": "approveReceiver",
      "outputs": [],
      "stateMutability": "nonpayable",
      "type": "function"
    },
    {
      "inputs": [
        {
          "internalType": "address",
          "name": "receiver",
          "type": "address"
        },
        {
          "internalType": "uint256",
          "name": "assetId",
          "type": "uint256"
        },
        {
          "internalType": "string",
          "name": "requestDescription",
          "type": "string"
        },
        {
          "internalType": "uint256",
          "name": "requestDateFrom",
          "type": "uint256"
        },
        {
          "internalType": "uint256",
          "name": "requestDateTo",
          "type": "uint256"
        }
      ],
      "name": "requestAsset",
      "outputs": [],
      "stateMutability": "nonpayable",
      "type": "function"
    }
  ],
  "bytecode": "0x60806040523480156200001157600080fd5b506040518060400160405280600781526020017f4d79546f6b656e000000000000000000000000000000000000000000000000008152506040518060400160405280600381526020017f4d54530000000000000000000000000000000000000000000000000000000000815250620000966301ffc9a760e01b6200012860201b60201c565b8160069080519060200190620000ae92919062000200565b508060079080519060200190620000c792919062000200565b50620000e06380ac58cd60e01b6200012860201b60201c565b620000f8635b5e139f60e01b6200012860201b60201c565b6200011063780e9d6360e01b6200012860201b60201c565b50506000600b819055506000600c8190555062000324565b63ffffffff60e01b817bffffffffffffffffffffffffffffffffffffffffffffffffffffffff1916141562000194576040517f08c379a00000000000000000000000000000000000000000000000000000000081526004016200018b90620002f1565b60405180910390fd5b6001600080837bffffffffffffffffffffffffffffffffffffffffffffffffffffffff19167bffffffffffffffffffffffffffffffffffffffffffffffffffffffff1916815260200190815260200160002060006101000a81548160ff02191690831515021790555050565b828054600181600116156101000203166002900490600052602060002090601f016020900481019282601f106200024357805160ff191683800117855562000274565b8280016001018555821562000274579182015b828111156200027357825182559160200191906001019062000256565b5b50905062000283919062000287565b5090565b620002ac91905b80821115620002a85760008160009055506001016200028e565b5090565b90565b6000620002be601c8362000313565b91507f4552433136353a20696e76616c696420696e74657266616365206964000000006000830152602082019050919050565b600060208201905081810360008301526200030c81620002af565b9050919050565b600082825260208201905092915050565b6151d380620003346000396000f3fe608060405234801561001057600080fd5b506004361061025e5760003560e01c80636352211e11610146578063a22cb465116100c3578063ca15c87311610087578063ca15c87314610776578063d547741f146107a6578063da8470d8146107c2578063e985e9c5146107f5578063ed45855a14610825578063eebf36a1146108415761025e565b8063a22cb465146106c0578063ad7430cc146106dc578063b88d4fde146106fa578063c87b56dd14610716578063ca0cdea8146107465761025e565b80638ad545121161010a5780638ad545121461061a5780639010d07c1461062457806391d148541461065457806395d89b4114610684578063a217fddf146106a25761025e565b80636352211e146105765780636c0360eb146105a657806370a08231146105c457806372dbb89f146105f457806379e085a2146106105761025e565b8063248a9ca3116101df57806338a59a07116101a357806338a59a07146104a057806342842e0e146104be5780634576d251146104da5780634bd6d987146104f85780634bf71729146105285780634f6ccce7146105465761025e565b8063248a9ca3146103ec5780632a7812701461041c5780632f2ff15d146104385780632f745c591461045457806336568abe146104845761025e565b8063095ea7b311610226578063095ea7b31461034a5780630cb8150f146103665780630e94ed191461039657806318160ddd146103b257806323b872dd146103d05761025e565b806301173a741461026357806301ffc9a7146102935780630238cbdc146102c357806306fdde03146102fc578063081812fc1461031a575b600080fd5b61027d6004803603610278919081019061390f565b61085d565b60405161028a9190614d97565b60405180910390f35b6102ad60048036036102a89190810190613be6565b610883565b6040516102ba9190614adf565b60405180910390f35b6102dd60048036036102d89190810190613cb7565b6108ea565b6040516102f39a99989796959493929190614db2565b60405180910390f35b610304610abb565b6040516103119190614b15565b60405180910390f35b610334600480360361032f9190810190613cb7565b610b5d565b60405161034191906149e8565b60405180910390f35b610364600480360361035f9190810190613a7a565b610be2565b005b610380600480360361037b919081019061390f565b610cfa565b60405161038d9190614adf565b60405180910390f35b6103b060048036036103ab9190810190613ce0565b610d1a565b005b6103ba610e1c565b6040516103c79190614d97565b60405180910390f35b6103ea60048036036103e59190810190613974565b610e2d565b005b61040660048036036104019190810190613b45565b610e8d565b6040516104139190614afa565b60405180910390f35b6104366004803603610431919081019061390f565b610ead565b005b610452600480360361044d9190810190613b6e565b610f25565b005b61046e60048036036104699190810190613a7a565b610f99565b60405161047b9190614d97565b60405180910390f35b61049e60048036036104999190810190613b6e565b610ff4565b005b6104a8611077565b6040516104b59190614a9b565b60405180910390f35b6104d860048036036104d39190810190613974565b61134b565b005b6104e261136b565b6040516104ef9190614afa565b60405180910390f35b610512600480360361050d9190810190613cb7565b611382565b60405161051f9190614abd565b60405180910390f35b610530611522565b60405161053d9190614a9b565b60405180910390f35b610560600480360361055b9190810190613cb7565b61180f565b60405161056d9190614d97565b60405180910390f35b610590600480360361058b9190810190613cb7565b611832565b60405161059d91906149e8565b60405180910390f35b6105ae611869565b6040516105bb9190614b15565b60405180910390f35b6105de60048036036105d9919081019061390f565b61190b565b6040516105eb9190614d97565b60405180910390f35b61060e6004803603610609919081019061390f565b6119ca565b005b610618611a42565b005b610622611aa5565b005b61063e60048036036106399190810190613baa565b611aff565b60405161064b91906149e8565b60405180910390f35b61066e60048036036106699190810190613b6e565b611b31565b60405161067b9190614adf565b60405180910390f35b61068c611b63565b6040516106999190614b15565b60405180910390f35b6106aa611c05565b6040516106b79190614afa565b60405180910390f35b6106da60048036036106d59190810190613a3e565b611c0c565b005b6106e4611d8d565b6040516106f19190614afa565b60405180910390f35b610714600480360361070f91908101906139c3565b611da4565b005b610730600480360361072b9190810190613cb7565b611e06565b60405161073d9190614b15565b60405180910390f35b610760600480360361075b919081019061390f565b611f91565b60405161076d9190614adf565b60405180910390f35b610790600480360361078b9190810190613b45565b611fb1565b60405161079d9190614d97565b60405180910390f35b6107c060048036036107bb9190810190613b6e565b611fd8565b005b6107dc60048036036107d79190810190613d1c565b61204c565b6040516107ec9493929190614a4f565b60405180910390f35b61080f600480360361080a9190810190613938565b612141565b60405161081c9190614adf565b60405180910390f35b61083f600480360361083a9190810190613ab6565b6121d5565b005b61085b60048036036108569190810190613c38565b61231a565b005b600061086b82600b546124ea565b600b6000815480929190600101919050559050919050565b6000806000837bffffffffffffffffffffffffffffffffffffffffffffffffffffffff19167bffffffffffffffffffffffffffffffffffffffffffffffffffffffff1916815260200190815260200160002060009054906101000a900460ff169050919050565b600f602052806000526040600020600091509050806000015490806001018054600181600116156101000203166002900480601f01602080910402602001604051908101604052809291908181526020018280546001816001161561010002031660029004801561099c5780601f106109715761010080835404028352916020019161099c565b820191906000526020600020905b81548152906001019060200180831161097f57829003601f168201915b505050505090806002015490806003018054600181600116156101000203166002900480601f016020809104026020016040519081016040528092919081815260200182805460018160011615610100020316600290048015610a405780601f10610a1557610100808354040283529160200191610a40565b820191906000526020600020905b815481529060010190602001808311610a2357829003601f168201915b5050505050908060040160009054906101000a900460ff16908060040160019054906101000a900473ffffffffffffffffffffffffffffffffffffffff16908060050160009054906101000a900473ffffffffffffffffffffffffffffffffffffffff1690806006015490806007015490806008015490508a565b606060068054600181600116156101000203166002900480601f016020809104026020016040519081016040528092919081815260200182805460018160011615610100020316600290048015610b535780601f10610b2857610100808354040283529160200191610b53565b820191906000526020600020905b815481529060010190602001808311610b3657829003601f168201915b5050505050905090565b6000610b6882612508565b610ba7576040517f08c379a0000000000000000000000000000000000000000000000000000000008152600401610b9e90614cb7565b60405180910390fd5b6004600083815260200190815260200160002060009054906101000a900473ffffffffffffffffffffffffffffffffffffffff169050919050565b6000610bed82611832565b90508073ffffffffffffffffffffffffffffffffffffffff168373ffffffffffffffffffffffffffffffffffffffff161415610c5e576040517f08c379a0000000000000000000000000000000000000000000000000000000008152600401610c5590614d17565b60405180910390fd5b8073ffffffffffffffffffffffffffffffffffffffff16610c7d612525565b73ffffffffffffffffffffffffffffffffffffffff161480610cac5750610cab81610ca6612525565b612141565b5b610ceb576040517f08c379a0000000000000000000000000000000000000000000000000000000008152600401610ce290614c37565b60405180910390fd5b610cf5838361252d565b505050565b600e6020528060005260406000206000915054906101000a900460ff1681565b81600073ffffffffffffffffffffffffffffffffffffffff16600f600083815260200190815260200160002060050160009054906101000a900473ffffffffffffffffffffffffffffffffffffffff1673ffffffffffffffffffffffffffffffffffffffff1614610d8a57600080fd5b81600f600085815260200190815260200160002060050160006101000a81548173ffffffffffffffffffffffffffffffffffffffff021916908373ffffffffffffffffffffffffffffffffffffffff1602179055506002600f600085815260200190815260200160002060040160006101000a81548160ff02191690836004811115610e1257fe5b0217905550505050565b6000610e2860026125e6565b905090565b610e3e610e38612525565b826125fb565b610e7d576040517f08c379a0000000000000000000000000000000000000000000000000000000008152600401610e7490614d37565b60405180910390fd5b610e888383836126d9565b505050565b6000600a6000838152602001908152602001600020600201549050919050565b610eca604051610ebc906149be565b604051809103902082610f25565b6001600d60008373ffffffffffffffffffffffffffffffffffffffff1673ffffffffffffffffffffffffffffffffffffffff16815260200190815260200160002060006101000a81548160ff02191690831515021790555050565b610f4c600a600084815260200190815260200160002060020154610f47612525565b611b31565b610f8b576040517f08c379a0000000000000000000000000000000000000000000000000000000008152600401610f8290614b57565b60405180910390fd5b610f9582826128f0565b5050565b6000610fec82600160008673ffffffffffffffffffffffffffffffffffffffff1673ffffffffffffffffffffffffffffffffffffffff16815260200190815260200160002061298490919063ffffffff16565b905092915050565b610ffc612525565b73ffffffffffffffffffffffffffffffffffffffff168173ffffffffffffffffffffffffffffffffffffffff1614611069576040517f08c379a000000000000000000000000000000000000000000000000000000000815260040161106090614d77565b60405180910390fd5b611073828261299e565b5050565b61107f613620565b600080905061108c613620565b6010600b54116110a057600b5491506110a5565b601091505b60008090505b8281101561134257600f60008281526020019081526020016000206040518061014001604052908160008201548152602001600182018054600181600116156101000203166002900480601f0160208091040260200160405190810160405280929190818152602001828054600181600116156101000203166002900480156111755780601f1061114a57610100808354040283529160200191611175565b820191906000526020600020905b81548152906001019060200180831161115857829003601f168201915b5050505050815260200160028201548152602001600382018054600181600116156101000203166002900480601f0160208091040260200160405190810160405280929190818152602001828054600181600116156101000203166002900480156112215780601f106111f657610100808354040283529160200191611221565b820191906000526020600020905b81548152906001019060200180831161120457829003601f168201915b505050505081526020016004820160009054906101000a900460ff16600481111561124857fe5b600481111561125357fe5b81526020016004820160019054906101000a900473ffffffffffffffffffffffffffffffffffffffff1673ffffffffffffffffffffffffffffffffffffffff1673ffffffffffffffffffffffffffffffffffffffff1681526020016005820160009054906101000a900473ffffffffffffffffffffffffffffffffffffffff1673ffffffffffffffffffffffffffffffffffffffff1673ffffffffffffffffffffffffffffffffffffffff168152602001600682015481526020016007820154815260200160088201548152505082826010811061132d57fe5b602002018190525080806001019150506110ab565b50809250505090565b61136683838360405180602001604052806000815250611da4565b505050565b604051611377906149be565b604051809103902081565b61138a61364e565b61139261364e565b600060106000858152602001908152602001600020905060008090505b600f600086815260200190815260200160002060080154811015611517578160008281526020019081526020016000206040518060800160405290816000820160009054906101000a900473ffffffffffffffffffffffffffffffffffffffff1673ffffffffffffffffffffffffffffffffffffffff1673ffffffffffffffffffffffffffffffffffffffff168152602001600182018054600181600116156101000203166002900480601f0160208091040260200160405190810160405280929190818152602001828054600181600116156101000203166002900480156114d95780601f106114ae576101008083540402835291602001916114d9565b820191906000526020600020905b8154815290600101906020018083116114bc57829003601f168201915b505050505081526020016002820154815260200160038201548152505083826010811061150257fe5b602002018190525080806001019150506113af565b508192505050919050565b61152a613620565b60006115353361190b565b905060008090506000611546613620565b601084116115565783925061155b565b601092505b60008090505b83811015611804576115733382610f99565b9250600f60008481526020019081526020016000206040518061014001604052908160008201548152602001600182018054600181600116156101000203166002900480601f0160208091040260200160405190810160405280929190818152602001828054600181600116156101000203166002900480156116375780601f1061160c57610100808354040283529160200191611637565b820191906000526020600020905b81548152906001019060200180831161161a57829003601f168201915b5050505050815260200160028201548152602001600382018054600181600116156101000203166002900480601f0160208091040260200160405190810160405280929190818152602001828054600181600116156101000203166002900480156116e35780601f106116b8576101008083540402835291602001916116e3565b820191906000526020600020905b8154815290600101906020018083116116c657829003601f168201915b505050505081526020016004820160009054906101000a900460ff16600481111561170a57fe5b600481111561171557fe5b81526020016004820160019054906101000a900473ffffffffffffffffffffffffffffffffffffffff1673ffffffffffffffffffffffffffffffffffffffff1673ffffffffffffffffffffffffffffffffffffffff1681526020016005820160009054906101000a900473ffffffffffffffffffffffffffffffffffffffff1673ffffffffffffffffffffffffffffffffffffffff1673ffffffffffffffffffffffffffffffffffffffff16815260200160068201548152602001600782015481526020016008820154815250508282601081106117ef57fe5b60200201819052508080600101915050611561565b508094505050505090565b600080611826836002612a3290919063ffffffff16565b50905080915050919050565b600061186282604051806060016040528060298152602001615175602991396002612a619092919063ffffffff16565b9050919050565b606060098054600181600116156101000203166002900480601f0160208091040260200160405190810160405280929190818152602001828054600181600116156101000203166002900480156119015780601f106118d657610100808354040283529160200191611901565b820191906000526020600020905b8154815290600101906020018083116118e457829003601f168201915b5050505050905090565b60008073ffffffffffffffffffffffffffffffffffffffff168273ffffffffffffffffffffffffffffffffffffffff16141561197c576040517f08c379a000000000000000000000000000000000000000000000000000000000815260040161197390614c57565b60405180910390fd5b6119c3600160008473ffffffffffffffffffffffffffffffffffffffff1673ffffffffffffffffffffffffffffffffffffffff168152602001908152602001600020612a80565b9050919050565b6119e76040516119d9906149d3565b604051809103902082610f25565b6001600e60008373ffffffffffffffffffffffffffffffffffffffff1673ffffffffffffffffffffffffffffffffffffffff16815260200190815260200160002060006101000a81548160ff02191690831515021790555050565b6000600d60003373ffffffffffffffffffffffffffffffffffffffff1673ffffffffffffffffffffffffffffffffffffffff16815260200190815260200160002060006101000a81548160ff021916908315150217905550611aa333610ead565b565b6000600e60003373ffffffffffffffffffffffffffffffffffffffff1673ffffffffffffffffffffffffffffffffffffffff16815260200190815260200160002060006101000a81548160ff021916908315150217905550565b6000611b2982600a6000868152602001908152602001600020600001612a9590919063ffffffff16565b905092915050565b6000611b5b82600a6000868152602001908152602001600020600001612aaf90919063ffffffff16565b905092915050565b606060078054600181600116156101000203166002900480601f016020809104026020016040519081016040528092919081815260200182805460018160011615610100020316600290048015611bfb5780601f10611bd057610100808354040283529160200191611bfb565b820191906000526020600020905b815481529060010190602001808311611bde57829003601f168201915b5050505050905090565b6000801b81565b611c14612525565b73ffffffffffffffffffffffffffffffffffffffff168273ffffffffffffffffffffffffffffffffffffffff161415611c82576040517f08c379a0000000000000000000000000000000000000000000000000000000008152600401611c7990614bd7565b60405180910390fd5b8060056000611c8f612525565b73ffffffffffffffffffffffffffffffffffffffff1673ffffffffffffffffffffffffffffffffffffffff16815260200190815260200160002060008473ffffffffffffffffffffffffffffffffffffffff1673ffffffffffffffffffffffffffffffffffffffff16815260200190815260200160002060006101000a81548160ff0219169083151502179055508173ffffffffffffffffffffffffffffffffffffffff16611d3c612525565b73ffffffffffffffffffffffffffffffffffffffff167f17307eab39ab6107e8899845ad3d59bd9653f200f220920489ca2b5937696c3183604051611d819190614adf565b60405180910390a35050565b604051611d99906149d3565b604051809103902081565b611db5611daf612525565b836125fb565b611df4576040517f08c379a0000000000000000000000000000000000000000000000000000000008152600401611deb90614d37565b60405180910390fd5b611e0084848484612adf565b50505050565b6060611e1182612508565b611e50576040517f08c379a0000000000000000000000000000000000000000000000000000000008152600401611e4790614cf7565b60405180910390fd5b6060600860008481526020019081526020016000208054600181600116156101000203166002900480601f016020809104026020016040519081016040528092919081815260200182805460018160011615610100020316600290048015611ef95780601f10611ece57610100808354040283529160200191611ef9565b820191906000526020600020905b815481529060010190602001808311611edc57829003601f168201915b50505050509050600060098054600181600116156101000203166002900490501415611f285780915050611f8c565b600081511115611f5d57600981604051602001611f4692919061499a565b604051602081830303815290604052915050611f8c565b6009611f6884612b3b565b604051602001611f7992919061499a565b6040516020818303038152906040529150505b919050565b600d6020528060005260406000206000915054906101000a900460ff1681565b6000611fd1600a6000848152602001908152602001600020600001612c6b565b9050919050565b611fff600a600084815260200190815260200160002060020154611ffa612525565b611b31565b61203e576040517f08c379a000000000000000000000000000000000000000000000000000000000815260040161203590614c17565b60405180910390fd5b612048828261299e565b5050565b6010602052816000526040600020602052806000526040600020600091509150508060000160009054906101000a900473ffffffffffffffffffffffffffffffffffffffff1690806001018054600181600116156101000203166002900480601f01602080910402602001604051908101604052809291908181526020018280546001816001161561010002031660029004801561212b5780601f106121005761010080835404028352916020019161212b565b820191906000526020600020905b81548152906001019060200180831161210e57829003601f168201915b5050505050908060020154908060030154905084565b6000600560008473ffffffffffffffffffffffffffffffffffffffff1673ffffffffffffffffffffffffffffffffffffffff16815260200190815260200160002060008373ffffffffffffffffffffffffffffffffffffffff1673ffffffffffffffffffffffffffffffffffffffff16815260200190815260200160002060009054906101000a900460ff16905092915050565b6000600f6000868152602001908152602001600020905060405180608001604052808773ffffffffffffffffffffffffffffffffffffffff168152602001858152602001848152602001838152506010600087815260200190815260200160002060008360080154815260200190815260200160002060008201518160000160006101000a81548173ffffffffffffffffffffffffffffffffffffffff021916908373ffffffffffffffffffffffffffffffffffffffff16021790555060208201518160010190805190602001906122ae92919061367c565b5060408201518160020155606082015181600301559050506001600f600087815260200190815260200160002060040160006101000a81548160ff021916908360048111156122f957fe5b02179055508060080160008154809291906001019190505550505050505050565b60006123253361085d565b90506040518061014001604052808281526020018581526020018481526020018381526020016000600481111561235857fe5b81526020013373ffffffffffffffffffffffffffffffffffffffff168152602001600073ffffffffffffffffffffffffffffffffffffffff16815260200160008152602001600081526020016000815250600f60008381526020019081526020016000206000820151816000015560208201518160010190805190602001906123e292919061367c565b5060408201518160020155606082015181600301908051906020019061240992919061367c565b5060808201518160040160006101000a81548160ff0219169083600481111561242e57fe5b021790555060a08201518160040160016101000a81548173ffffffffffffffffffffffffffffffffffffffff021916908373ffffffffffffffffffffffffffffffffffffffff16021790555060c08201518160050160006101000a81548173ffffffffffffffffffffffffffffffffffffffff021916908373ffffffffffffffffffffffffffffffffffffffff16021790555060e082015181600601556101008201518160070155610120820151816008015590505050505050565b612504828260405180602001604052806000815250612c80565b5050565b600061251e826002612cdb90919063ffffffff16565b9050919050565b600033905090565b816004600083815260200190815260200160002060006101000a81548173ffffffffffffffffffffffffffffffffffffffff021916908373ffffffffffffffffffffffffffffffffffffffff160217905550808273ffffffffffffffffffffffffffffffffffffffff166125a083611832565b73ffffffffffffffffffffffffffffffffffffffff167f8c5be1e5ebec7d5bd14f71427d1e84f3dd0314c0f7b2291e5b200ac8c7c3b92560405160405180910390a45050565b60006125f482600001612cf5565b9050919050565b600061260682612508565b612645576040517f08c379a000000000000000000000000000000000000000000000000000000000815260040161263c90614bf7565b60405180910390fd5b600061265083611832565b90508073ffffffffffffffffffffffffffffffffffffffff168473ffffffffffffffffffffffffffffffffffffffff1614806126bf57508373ffffffffffffffffffffffffffffffffffffffff166126a784610b5d565b73ffffffffffffffffffffffffffffffffffffffff16145b806126d057506126cf8185612141565b5b91505092915050565b8273ffffffffffffffffffffffffffffffffffffffff166126f982611832565b73ffffffffffffffffffffffffffffffffffffffff161461274f576040517f08c379a000000000000000000000000000000000000000000000000000000000815260040161274690614cd7565b60405180910390fd5b600073ffffffffffffffffffffffffffffffffffffffff168273ffffffffffffffffffffffffffffffffffffffff1614156127bf576040517f08c379a00000000000000000000000000000000000000000000000000000000081526004016127b690614bb7565b60405180910390fd5b6127ca838383612d06565b6127d560008261252d565b61282681600160008673ffffffffffffffffffffffffffffffffffffffff1673ffffffffffffffffffffffffffffffffffffffff168152602001908152602001600020612d0b90919063ffffffff16565b5061287881600160008573ffffffffffffffffffffffffffffffffffffffff1673ffffffffffffffffffffffffffffffffffffffff168152602001908152602001600020612d2590919063ffffffff16565b5061288f81836002612d3f9092919063ffffffff16565b50808273ffffffffffffffffffffffffffffffffffffffff168473ffffffffffffffffffffffffffffffffffffffff167fddf252ad1be2c89b69c2b068fc378daa952ba7f163c4a11628f55a4df523b3ef60405160405180910390a4505050565b61291881600a6000858152602001908152602001600020600001612d7490919063ffffffff16565b1561298057612925612525565b73ffffffffffffffffffffffffffffffffffffffff168173ffffffffffffffffffffffffffffffffffffffff16837f2f8788117e7eff1d82e926ec794901d17c78024a50270940304540a733656f0d60405160405180910390a45b5050565b60006129938360000183612da4565b60001c905092915050565b6129c681600a6000858152602001908152602001600020600001612e1190919063ffffffff16565b15612a2e576129d3612525565b73ffffffffffffffffffffffffffffffffffffffff168173ffffffffffffffffffffffffffffffffffffffff16837ff6391f5c32d9c69d2a47ea670b442974b53935d1edc7fd64eb21e047a839171b60405160405180910390a45b5050565b600080600080612a458660000186612e41565b915091508160001c8160001c8090509350935050509250929050565b6000612a74846000018460001b84612ec4565b60001c90509392505050565b6000612a8e82600001612f55565b9050919050565b6000612aa48360000183612da4565b60001c905092915050565b6000612ad7836000018373ffffffffffffffffffffffffffffffffffffffff1660001b612f66565b905092915050565b612aea8484846126d9565b612af684848484612f89565b612b35576040517f08c379a0000000000000000000000000000000000000000000000000000000008152600401612b2c90614b77565b60405180910390fd5b50505050565b60606000821415612b83576040518060400160405280600181526020017f30000000000000000000000000000000000000000000000000000000000000008152509050612c66565b600082905060005b60008214612bad578080600101915050600a8281612ba557fe5b049150612b8b565b6060816040519080825280601f01601f191660200182016040528015612be25781602001600182028038833980820191505090505b50905060006001830390508593505b60008414612c5e57600a8481612c0357fe5b0660300160f81b82828060019003935081518110612c1d57fe5b60200101907effffffffffffffffffffffffffffffffffffffffffffffffffffffffffffff1916908160001a905350600a8481612c5657fe5b049350612bf1565b819450505050505b919050565b6000612c7982600001612f55565b9050919050565b612c8a83836130ed565b612c976000848484612f89565b612cd6576040517f08c379a0000000000000000000000000000000000000000000000000000000008152600401612ccd90614b77565b60405180910390fd5b505050565b6000612ced836000018360001b61327b565b905092915050565b600081600001805490509050919050565b505050565b6000612d1d836000018360001b61329e565b905092915050565b6000612d37836000018360001b613386565b905092915050565b6000612d6b846000018460001b8473ffffffffffffffffffffffffffffffffffffffff1660001b6133f6565b90509392505050565b6000612d9c836000018373ffffffffffffffffffffffffffffffffffffffff1660001b613386565b905092915050565b600081836000018054905011612def576040517f08c379a0000000000000000000000000000000000000000000000000000000008152600401612de690614b37565b60405180910390fd5b826000018281548110612dfe57fe5b9060005260206000200154905092915050565b6000612e39836000018373ffffffffffffffffffffffffffffffffffffffff1660001b61329e565b905092915050565b60008082846000018054905011612e8d576040517f08c379a0000000000000000000000000000000000000000000000000000000008152600401612e8490614c77565b60405180910390fd5b6000846000018481548110612e9e57fe5b906000526020600020906002020190508060000154816001015492509250509250929050565b60008084600101600085815260200190815260200160002054905060008114158390612f26576040517f08c379a0000000000000000000000000000000000000000000000000000000008152600401612f1d9190614b15565b60405180910390fd5b50846000016001820381548110612f3957fe5b9060005260206000209060020201600101549150509392505050565b600081600001805490509050919050565b600080836001016000848152602001908152602001600020541415905092915050565b6000612faa8473ffffffffffffffffffffffffffffffffffffffff166134d2565b612fb757600190506130e5565b606061307e63150b7a0260e01b612fcc612525565b888787604051602401612fe29493929190614a03565b604051602081830303815290604052907bffffffffffffffffffffffffffffffffffffffffffffffffffffffff19166020820180517bffffffffffffffffffffffffffffffffffffffffffffffffffffffff8381831617835250505050604051806060016040528060328152602001615143603291398773ffffffffffffffffffffffffffffffffffffffff166134e59092919063ffffffff16565b90506000818060200190516130969190810190613c0f565b905063150b7a0260e01b7bffffffffffffffffffffffffffffffffffffffffffffffffffffffff1916817bffffffffffffffffffffffffffffffffffffffffffffffffffffffff191614925050505b949350505050565b600073ffffffffffffffffffffffffffffffffffffffff168273ffffffffffffffffffffffffffffffffffffffff16141561315d576040517f08c379a000000000000000000000000000000000000000000000000000000000815260040161315490614c97565b60405180910390fd5b61316681612508565b156131a6576040517f08c379a000000000000000000000000000000000000000000000000000000000815260040161319d90614b97565b60405180910390fd5b6131b260008383612d06565b61320381600160008573ffffffffffffffffffffffffffffffffffffffff1673ffffffffffffffffffffffffffffffffffffffff168152602001908152602001600020612d2590919063ffffffff16565b5061321a81836002612d3f9092919063ffffffff16565b50808273ffffffffffffffffffffffffffffffffffffffff16600073ffffffffffffffffffffffffffffffffffffffff167fddf252ad1be2c89b69c2b068fc378daa952ba7f163c4a11628f55a4df523b3ef60405160405180910390a45050565b600080836001016000848152602001908152602001600020541415905092915050565b6000808360010160008481526020019081526020016000205490506000811461337a57600060018203905060006001866000018054905003905060008660000182815481106132e957fe5b906000526020600020015490508087600001848154811061330657fe5b906000526020600020018190555060018301876001016000838152602001908152602001600020819055508660000180548061333e57fe5b60019003818190600052602060002001600090559055866001016000878152602001908152602001600020600090556001945050505050613380565b60009150505b92915050565b60006133928383612f66565b6133eb5782600001829080600181540180825580915050600190039060005260206000200160009091909190915055826000018054905083600101600084815260200190815260200160002081905550600190506133f0565b600090505b92915050565b600080846001016000858152602001908152602001600020549050600081141561349d578460000160405180604001604052808681526020018581525090806001815401808255809150506001900390600052602060002090600202016000909190919091506000820151816000015560208201518160010155505084600001805490508560010160008681526020019081526020016000208190555060019150506134cb565b828560000160018303815481106134b057fe5b90600052602060002090600202016001018190555060009150505b9392505050565b600080823b905060008111915050919050565b60606134f484846000856134fd565b90509392505050565b6060613508856134d2565b613547576040517f08c379a000000000000000000000000000000000000000000000000000000000815260040161353e90614d57565b60405180910390fd5b600060608673ffffffffffffffffffffffffffffffffffffffff1685876040516135719190614983565b60006040518083038185875af1925050503d80600081146135ae576040519150601f19603f3d011682016040523d82523d6000602084013e6135b3565b606091505b509150915081156135c8578092505050613618565b6000815111156135db5780518082602001fd5b836040517f08c379a000000000000000000000000000000000000000000000000000000000815260040161360f9190614b15565b60405180910390fd5b949350505050565b6040518061020001604052806010905b6136386136fc565b8152602001906001900390816136305790505090565b6040518061020001604052806010905b613666613786565b81526020019060019003908161365e5790505090565b828054600181600116156101000203166002900490600052602060002090601f016020900481019282601f106136bd57805160ff19168380011785556136eb565b828001600101855582156136eb579182015b828111156136ea5782518255916020019190600101906136cf565b5b5090506136f891906137c4565b5090565b604051806101400160405280600081526020016060815260200160008152602001606081526020016000600481111561373157fe5b8152602001600073ffffffffffffffffffffffffffffffffffffffff168152602001600073ffffffffffffffffffffffffffffffffffffffff1681526020016000815260200160008152602001600081525090565b6040518060800160405280600073ffffffffffffffffffffffffffffffffffffffff1681526020016060815260200160008152602001600081525090565b6137e691905b808211156137e25760008160009055506001016137ca565b5090565b90565b6000813590506137f8816150cf565b92915050565b60008135905061380d816150e6565b92915050565b600081359050613822816150fd565b92915050565b60008135905061383781615114565b92915050565b60008151905061384c81615114565b92915050565b600082601f83011261386357600080fd5b813561387661387182614e89565b614e5c565b9150808252602083016020830185838301111561389257600080fd5b61389d83828461506f565b50505092915050565b600082601f8301126138b757600080fd5b81356138ca6138c582614eb5565b614e5c565b915080825260208301602083018583830111156138e657600080fd5b6138f183828461506f565b50505092915050565b6000813590506139098161512b565b92915050565b60006020828403121561392157600080fd5b600061392f848285016137e9565b91505092915050565b6000806040838503121561394b57600080fd5b6000613959858286016137e9565b925050602061396a858286016137e9565b9150509250929050565b60008060006060848603121561398957600080fd5b6000613997868287016137e9565b93505060206139a8868287016137e9565b92505060406139b9868287016138fa565b9150509250925092565b600080600080608085870312156139d957600080fd5b60006139e7878288016137e9565b94505060206139f8878288016137e9565b9350506040613a09878288016138fa565b925050606085013567ffffffffffffffff811115613a2657600080fd5b613a3287828801613852565b91505092959194509250565b60008060408385031215613a5157600080fd5b6000613a5f858286016137e9565b9250506020613a70858286016137fe565b9150509250929050565b60008060408385031215613a8d57600080fd5b6000613a9b858286016137e9565b9250506020613aac858286016138fa565b9150509250929050565b600080600080600060a08688031215613ace57600080fd5b6000613adc888289016137e9565b9550506020613aed888289016138fa565b945050604086013567ffffffffffffffff811115613b0a57600080fd5b613b16888289016138a6565b9350506060613b27888289016138fa565b9250506080613b38888289016138fa565b9150509295509295909350565b600060208284031215613b5757600080fd5b6000613b6584828501613813565b91505092915050565b60008060408385031215613b8157600080fd5b6000613b8f85828601613813565b9250506020613ba0858286016137e9565b9150509250929050565b60008060408385031215613bbd57600080fd5b6000613bcb85828601613813565b9250506020613bdc858286016138fa565b9150509250929050565b600060208284031215613bf857600080fd5b6000613c0684828501613828565b91505092915050565b600060208284031215613c2157600080fd5b6000613c2f8482850161383d565b91505092915050565b600080600060608486031215613c4d57600080fd5b600084013567ffffffffffffffff811115613c6757600080fd5b613c73868287016138a6565b9350506020613c84868287016138fa565b925050604084013567ffffffffffffffff811115613ca157600080fd5b613cad868287016138a6565b9150509250925092565b600060208284031215613cc957600080fd5b6000613cd7848285016138fa565b91505092915050565b60008060408385031215613cf357600080fd5b6000613d01858286016138fa565b9250506020613d12858286016137e9565b9150509250929050565b60008060408385031215613d2f57600080fd5b6000613d3d858286016138fa565b9250506020613d4e858286016138fa565b9150509250929050565b6000613d648383614821565b905092915050565b6000613d788383614902565b905092915050565b613d8981614fcc565b82525050565b613d9881614fba565b82525050565b613da781614fba565b82525050565b6000613db882614f0a565b613dc28185614f5b565b935083602082028501613dd485614ee1565b8060005b85811015613e105784840389528151613df18582613d58565b9450613dfc83614f41565b925060208a01995050600181019050613dd8565b50829750879550505050505092915050565b6000613e2d82614f15565b613e378185614f66565b935083602082028501613e4985614eeb565b8060005b85811015613e855784840389528151613e668582613d6c565b9450613e7183614f4e565b925060208a01995050600181019050613e4d565b50829750879550505050505092915050565b613ea081614fde565b82525050565b613eaf81614fea565b82525050565b6000613ec082614f20565b613eca8185614f71565b9350613eda81856020860161507e565b613ee3816150b1565b840191505092915050565b6000613ef982614f20565b613f038185614f82565b9350613f1381856020860161507e565b80840191505092915050565b613f288161505d565b82525050565b613f378161505d565b82525050565b6000613f4882614f36565b613f528185614f9e565b9350613f6281856020860161507e565b613f6b816150b1565b840191505092915050565b6000613f8182614f36565b613f8b8185614faf565b9350613f9b81856020860161507e565b80840191505092915050565b6000613fb282614f2b565b613fbc8185614f8d565b9350613fcc81856020860161507e565b613fd5816150b1565b840191505092915050565b6000613feb82614f2b565b613ff58185614f9e565b935061400581856020860161507e565b61400e816150b1565b840191505092915050565b600081546001811660008114614036576001811461405b5761409f565b607f60028304166140478187614faf565b955060ff198316865280860193505061409f565b600282046140698187614faf565b955061407485614ef5565b60005b8281101561409657815481890152600182019150602081019050614077565b82880195505050505b505092915050565b60006140b4602283614f9e565b91507f456e756d657261626c655365743a20696e646578206f7574206f6620626f756e60008301527f64730000000000000000000000000000000000000000000000000000000000006020830152604082019050919050565b600061411a602f83614f9e565b91507f416363657373436f6e74726f6c3a2073656e646572206d75737420626520616e60008301527f2061646d696e20746f206772616e7400000000000000000000000000000000006020830152604082019050919050565b6000614180603283614f9e565b91507f4552433732313a207472616e7366657220746f206e6f6e20455243373231526560008301527f63656976657220696d706c656d656e74657200000000000000000000000000006020830152604082019050919050565b60006141e6601c83614f9e565b91507f4552433732313a20746f6b656e20616c7265616479206d696e746564000000006000830152602082019050919050565b6000614226602483614f9e565b91507f4552433732313a207472616e7366657220746f20746865207a65726f2061646460008301527f72657373000000000000000000000000000000000000000000000000000000006020830152604082019050919050565b600061428c601983614f9e565b91507f4552433732313a20617070726f766520746f2063616c6c6572000000000000006000830152602082019050919050565b60006142cc602c83614f9e565b91507f4552433732313a206f70657261746f7220717565727920666f72206e6f6e657860008301527f697374656e7420746f6b656e00000000000000000000000000000000000000006020830152604082019050919050565b6000614332603083614f9e565b91507f416363657373436f6e74726f6c3a2073656e646572206d75737420626520616e60008301527f2061646d696e20746f207265766f6b65000000000000000000000000000000006020830152604082019050919050565b6000614398603883614f9e565b91507f4552433732313a20617070726f76652063616c6c6572206973206e6f74206f7760008301527f6e6572206e6f7220617070726f76656420666f7220616c6c00000000000000006020830152604082019050919050565b60006143fe600583614faf565b91507f444f4e4f520000000000000000000000000000000000000000000000000000006000830152600582019050919050565b600061443e602a83614f9e565b91507f4552433732313a2062616c616e636520717565727920666f7220746865207a6560008301527f726f2061646472657373000000000000000000000000000000000000000000006020830152604082019050919050565b60006144a4602283614f9e565b91507f456e756d657261626c654d61703a20696e646578206f7574206f6620626f756e60008301527f64730000000000000000000000000000000000000000000000000000000000006020830152604082019050919050565b600061450a602083614f9e565b91507f4552433732313a206d696e7420746f20746865207a65726f20616464726573736000830152602082019050919050565b600061454a602c83614f9e565b91507f4552433732313a20617070726f76656420717565727920666f72206e6f6e657860008301527f697374656e7420746f6b656e00000000000000000000000000000000000000006020830152604082019050919050565b60006145b0600883614faf565b91507f52454345495645520000000000000000000000000000000000000000000000006000830152600882019050919050565b60006145f0602983614f9e565b91507f4552433732313a207472616e73666572206f6620746f6b656e2074686174206960008301527f73206e6f74206f776e00000000000000000000000000000000000000000000006020830152604082019050919050565b6000614656602f83614f9e565b91507f4552433732314d657461646174613a2055524920717565727920666f72206e6f60008301527f6e6578697374656e7420746f6b656e00000000000000000000000000000000006020830152604082019050919050565b60006146bc602183614f9e565b91507f4552433732313a20617070726f76616c20746f2063757272656e74206f776e6560008301527f72000000000000000000000000000000000000000000000000000000000000006020830152604082019050919050565b6000614722603183614f9e565b91507f4552433732313a207472616e736665722063616c6c6572206973206e6f74206f60008301527f776e6572206e6f7220617070726f7665640000000000000000000000000000006020830152604082019050919050565b6000614788601d83614f9e565b91507f416464726573733a2063616c6c20746f206e6f6e2d636f6e74726163740000006000830152602082019050919050565b60006147c8602f83614f9e565b91507f416363657373436f6e74726f6c3a2063616e206f6e6c792072656e6f756e636560008301527f20726f6c657320666f722073656c6600000000000000000000000000000000006020830152604082019050919050565b60006101408301600083015161483a6000860182614965565b50602083015184820360208601526148528282613fa7565b91505060408301516148676040860182614965565b506060830151848203606086015261487f8282613fa7565b91505060808301516148946080860182613f1f565b5060a08301516148a760a0860182613d8f565b5060c08301516148ba60c0860182613d8f565b5060e08301516148cd60e0860182614965565b506101008301516148e2610100860182614965565b506101208301516148f7610120860182614965565b508091505092915050565b600060808301600083015161491a6000860182613d8f565b50602083015184820360208601526149328282613fa7565b91505060408301516149476040860182614965565b50606083015161495a6060860182614965565b508091505092915050565b61496e81615053565b82525050565b61497d81615053565b82525050565b600061498f8284613eee565b915081905092915050565b60006149a68285614019565b91506149b28284613f76565b91508190509392505050565b60006149c9826143f1565b9150819050919050565b60006149de826145a3565b9150819050919050565b60006020820190506149fd6000830184613d9e565b92915050565b6000608082019050614a186000830187613d80565b614a256020830186613d9e565b614a326040830185614974565b8181036060830152614a448184613eb5565b905095945050505050565b6000608082019050614a646000830187613d9e565b8181036020830152614a768186613fe0565b9050614a856040830185614974565b614a926060830184614974565b95945050505050565b60006020820190508181036000830152614ab58184613dad565b905092915050565b60006020820190508181036000830152614ad78184613e22565b905092915050565b6000602082019050614af46000830184613e97565b92915050565b6000602082019050614b0f6000830184613ea6565b92915050565b60006020820190508181036000830152614b2f8184613f3d565b905092915050565b60006020820190508181036000830152614b50816140a7565b9050919050565b60006020820190508181036000830152614b708161410d565b9050919050565b60006020820190508181036000830152614b9081614173565b9050919050565b60006020820190508181036000830152614bb0816141d9565b9050919050565b60006020820190508181036000830152614bd081614219565b9050919050565b60006020820190508181036000830152614bf08161427f565b9050919050565b60006020820190508181036000830152614c10816142bf565b9050919050565b60006020820190508181036000830152614c3081614325565b9050919050565b60006020820190508181036000830152614c508161438b565b9050919050565b60006020820190508181036000830152614c7081614431565b9050919050565b60006020820190508181036000830152614c9081614497565b9050919050565b60006020820190508181036000830152614cb0816144fd565b9050919050565b60006020820190508181036000830152614cd08161453d565b9050919050565b60006020820190508181036000830152614cf0816145e3565b9050919050565b60006020820190508181036000830152614d1081614649565b9050919050565b60006020820190508181036000830152614d30816146af565b9050919050565b60006020820190508181036000830152614d5081614715565b9050919050565b60006020820190508181036000830152614d708161477b565b9050919050565b60006020820190508181036000830152614d90816147bb565b9050919050565b6000602082019050614dac6000830184614974565b92915050565b600061014082019050614dc8600083018d614974565b8181036020830152614dda818c613fe0565b9050614de9604083018b614974565b8181036060830152614dfb818a613fe0565b9050614e0a6080830189613f2e565b614e1760a0830188613d9e565b614e2460c0830187613d9e565b614e3160e0830186614974565b614e3f610100830185614974565b614e4d610120830184614974565b9b9a5050505050505050505050565b6000604051905081810181811067ffffffffffffffff82111715614e7f57600080fd5b8060405250919050565b600067ffffffffffffffff821115614ea057600080fd5b601f19601f8301169050602081019050919050565b600067ffffffffffffffff821115614ecc57600080fd5b601f19601f8301169050602081019050919050565b6000819050919050565b6000819050919050565b60008190508160005260206000209050919050565b600060109050919050565b600060109050919050565b600081519050919050565b600081519050919050565b600081519050919050565b6000602082019050919050565b6000602082019050919050565b600081905092915050565b600081905092915050565b600082825260208201905092915050565b600081905092915050565b600082825260208201905092915050565b600082825260208201905092915050565b600081905092915050565b6000614fc582615033565b9050919050565b6000614fd782615033565b9050919050565b60008115159050919050565b6000819050919050565b60007fffffffff0000000000000000000000000000000000000000000000000000000082169050919050565b600081905061502e826150c2565b919050565b600073ffffffffffffffffffffffffffffffffffffffff82169050919050565b6000819050919050565b600061506882615020565b9050919050565b82818337600083830152505050565b60005b8381101561509c578082015181840152602081019050615081565b838111156150ab576000848401525b50505050565b6000601f19601f8301169050919050565b600581106150cc57fe5b50565b6150d881614fba565b81146150e357600080fd5b50565b6150ef81614fde565b81146150fa57600080fd5b50565b61510681614fea565b811461511157600080fd5b50565b61511d81614ff4565b811461512857600080fd5b50565b61513481615053565b811461513f57600080fd5b5056fe4552433732313a207472616e7366657220746f206e6f6e20455243373231526563656976657220696d706c656d656e7465724552433732313a206f776e657220717565727920666f72206e6f6e6578697374656e7420746f6b656ea26469706673582212207cd5cfbfb0c4afe2abaea74dfcc8aef63c5f59a0acee216bf8c677cafd93a16864736f6c63430006020033",
  "source": "// SPDX-License-Identifier: MIT\npragma solidity ^0.6.2;\npragma experimental ABIEncoderV2;\n\nimport \"@openzeppelin/contracts/token/ERC721/ERC721.sol\";\nimport \"@openzeppelin/contracts/access/AccessControl.sol\";\n\ncontract AssetDonation is ERC721, AccessControl {\n    uint256 lastAssetId;\n    uint256 lastRequestId;\n    uint256 constant maxNoOfReqsPerAsst = 3;\n\n    mapping(address => bool) public donors;\n    mapping(address => bool) public receivers;\n\n    constructor() public ERC721(\"MyToken\", \"MTS\") AccessControl() {\n        lastAssetId = 0;\n        lastRequestId = 0;\n    }\n\n    bytes32 public constant DONOR = keccak256(\"DONOR\");\n    bytes32 public constant RECEIVER = keccak256(\"RECEIVER\");\n\n    enum Status {Free, Requested, Donated, Inactive, Burned}\n\n    // struct AssetType{\n    //   string assetType;\n    // }\n\n    struct Asset {\n        uint assetId; \n        string assetDescription;\n        uint256 availablityDate;\n        string location;\n        Status status;\n        address owner;\n        address recipient;\n        uint256 donatedDateFrom;\n        uint256 donatedDateTo;\n        //mapping (uint=>Request) requestList;\n        //Request[maxNoOfReqsPerAsst] requestList;\n        uint256 requestCount;\n        //   AssetType assetType;\n    }\n\n    mapping(uint256 => Asset) public donationList;\n\n    struct Request {\n        address receiver;\n        string requestDescription;\n        uint256 requestDateFrom;\n        uint256 requestDateTo;\n        //   AssetType assetType;\n    }\n    mapping(uint256 => mapping(uint256 => Request)) public assetRequestList;\n\n    modifier isDonor(address donorAddress) {\n        require(hasRole(DONOR, donorAddress));\n        _;\n    }\n\n    function addDonor() public {\n        donors[msg.sender] = false;\n        approveDonor(msg.sender);\n    }\n\n    function approveDonor(address donorAddress) public {\n        grantRole(DONOR, donorAddress);\n        donors[donorAddress] = true;\n    }\n\n    function addAsset(\n        string memory assetDescription,\n        uint256 availablityDate,\n        string memory location /*isDonor(msg.sender)*/\n    ) public {\n        //Request[maxNoOfReqsPerAsst] storage requests;\n        //mapping(uint=>Request) memory\n        uint256 assetId = mintToken(msg.sender);\n        donationList[assetId] = Asset({\n            assetId:assetId,\n            assetDescription: assetDescription,\n            availablityDate: availablityDate,\n            location: location,\n            status: Status.Free,\n            owner: msg.sender,\n            recipient: address(0),\n            donatedDateFrom: 0,\n            donatedDateTo: 0, //requestList: requests,\n            requestCount: 0\n        });\n    }\n\n    function getDonation() public view returns (Asset[16] memory) {\n        uint256 tokenCount = balanceOf(msg.sender);\n        uint256 index = 0;\n        uint256 tokenId;\n        Asset[16] memory assetList;\n        if (tokenCount <= 16) {\n            index = tokenCount;\n        } else {\n            index = 16;\n        }\n        for (uint256 i = 0; i < index; i++) {\n            tokenId = tokenOfOwnerByIndex(msg.sender, i);\n            assetList[i] = donationList[tokenId];\n        }\n        return assetList;\n    }\n\n    function getAllDonations() public view returns (Asset[16] memory) {\n        uint256 index = 0;\n        Asset[16] memory assetList;\n        if (lastAssetId <= 16) {\n            index = lastAssetId;\n        } else {\n            index = 16;\n        }\n        for (uint256 i = 0; i < index; i++) {\n            assetList[i] = donationList[i];\n        }\n        return assetList;\n    }\n\n    function getDonationRequests(uint256 assetId)\n        public\n        view\n        returns (Request[16] memory)\n    {\n        Request[16] memory requestArray;\n\n\n            mapping(uint256 => Request) storage requestMapping\n         = assetRequestList[assetId];\n        for (uint256 i = 0; i < donationList[assetId].requestCount; i++) {\n            requestArray[i] = requestMapping[i];\n        }\n        return requestArray;\n    }\n\n    function mintToken(address assetOwner) public returns (uint256) {\n        _safeMint(assetOwner, lastAssetId);\n        return lastAssetId++;\n    }\n\n    modifier assetIsFree(uint256 assetId) {\n        require(donationList[assetId].recipient == address(0));\n        _;\n    }\n\n    function donateAsset(uint256 assetId, address recipientAddress)\n        public\n        /*isDonor(msg.sender) isRequester(recipientAddress)*/\n        assetIsFree(assetId)\n    {\n        donationList[assetId].recipient = recipientAddress;\n        donationList[assetId].status = Status.Donated;\n    }\n\n    function addReceiver() public {\n        receivers[msg.sender] = false;\n    }\n\n    function approveReceiver(address receiverAddress) public {\n        grantRole(RECEIVER, receiverAddress);\n        receivers[receiverAddress] = true;\n    }\n\n    function requestAsset(\n        address receiver,\n        uint256 assetId,\n        string memory requestDescription,\n        uint256 requestDateFrom,\n        uint256 requestDateTo\n    ) public {\n        Asset storage requestedItem = donationList[assetId];\n        //if (requestedItem.requestCount < maxNoOfReqsPerAsst) {\n        assetRequestList[assetId][requestedItem.requestCount] = Request({\n            receiver: receiver,\n            requestDescription: requestDescription,\n            requestDateFrom: requestDateFrom,\n            requestDateTo: requestDateTo\n        });\n        donationList[assetId].status = Status.Requested;\n        requestedItem.requestCount++;\n        //}\n    }\n\n    // function addAsset(address assetOwner, string memory ownerName,AssetType memory assetType) isDonor public{\n    //   _safeMint(assetOwner, lastAssetId);\n    //   donationList[lastAssetId]=Asset({ownerName:ownerName,status:Status.Free,recipient:address(0),assetType:assetType});\n    //   lastAssetId ++;\n    // }\n\n    // struct AssetRequest{\n    //   address recipient;\n    //   AssetType assetType;\n    // }\n\n    // mapping (uint => AssetRequest) public requestList;\n\n    // modifier isRecipient(address recipientAddress){\n    //   _;\n    // }\n    // modifier isDonor(address donorAddress){\n    //   _;\n    // }\n\n    // function requestAsset(address recipientAddress, AssetType memory assetType) isRecipient public{\n    //   requestList[lastRequestId] = AssetRequest({recipientAddress:recipientAddress,assetType:assetType});\n    // }\n}\n",
  "sourcePath": "/home/fatemeh/Desktop/Consensys Course/assetdonation/AssetDonation/contracts/AssetDonation.sol",
  "compiler": {
    "name": "solc",
    "version": "0.6.2+commit.bacdbe57.Emscripten.clang"
  },
  "schemaVersion": "3.3.1",
  "updatedAt": "2020-12-01T02:31:28.500Z",
  "devdoc": {
    "methods": {
      "approve(address,uint256)": {
        "details": "See {IERC721-approve}."
      },
      "balanceOf(address)": {
        "details": "See {IERC721-balanceOf}."
      },
      "baseURI()": {
        "details": "Returns the base URI set via {_setBaseURI}. This will be automatically added as a prefix in {tokenURI} to each token's URI, or to the token ID if no specific URI is set for that token ID."
      },
      "getApproved(uint256)": {
        "details": "See {IERC721-getApproved}."
      },
      "getRoleAdmin(bytes32)": {
        "details": "Returns the admin role that controls `role`. See {grantRole} and {revokeRole}.     * To change a role's admin, use {_setRoleAdmin}."
      },
      "getRoleMember(bytes32,uint256)": {
        "details": "Returns one of the accounts that have `role`. `index` must be a value between 0 and {getRoleMemberCount}, non-inclusive.     * Role bearers are not sorted in any particular way, and their ordering may change at any point.     * WARNING: When using {getRoleMember} and {getRoleMemberCount}, make sure you perform all queries on the same block. See the following https://forum.openzeppelin.com/t/iterating-over-elements-on-enumerableset-in-openzeppelin-contracts/2296[forum post] for more information."
      },
      "getRoleMemberCount(bytes32)": {
        "details": "Returns the number of accounts that have `role`. Can be used together with {getRoleMember} to enumerate all bearers of a role."
      },
      "grantRole(bytes32,address)": {
        "details": "Grants `role` to `account`.     * If `account` had not been already granted `role`, emits a {RoleGranted} event.     * Requirements:     * - the caller must have ``role``'s admin role."
      },
      "hasRole(bytes32,address)": {
        "details": "Returns `true` if `account` has been granted `role`."
      },
      "isApprovedForAll(address,address)": {
        "details": "See {IERC721-isApprovedForAll}."
      },
      "name()": {
        "details": "See {IERC721Metadata-name}."
      },
      "ownerOf(uint256)": {
        "details": "See {IERC721-ownerOf}."
      },
      "renounceRole(bytes32,address)": {
        "details": "Revokes `role` from the calling account.     * Roles are often managed via {grantRole} and {revokeRole}: this function's purpose is to provide a mechanism for accounts to lose their privileges if they are compromised (such as when a trusted device is misplaced).     * If the calling account had been granted `role`, emits a {RoleRevoked} event.     * Requirements:     * - the caller must be `account`."
      },
      "revokeRole(bytes32,address)": {
        "details": "Revokes `role` from `account`.     * If `account` had been granted `role`, emits a {RoleRevoked} event.     * Requirements:     * - the caller must have ``role``'s admin role."
      },
      "safeTransferFrom(address,address,uint256)": {
        "details": "See {IERC721-safeTransferFrom}."
      },
      "safeTransferFrom(address,address,uint256,bytes)": {
        "details": "See {IERC721-safeTransferFrom}."
      },
      "setApprovalForAll(address,bool)": {
        "details": "See {IERC721-setApprovalForAll}."
      },
      "supportsInterface(bytes4)": {
        "details": "See {IERC165-supportsInterface}.     * Time complexity O(1), guaranteed to always use less than 30 000 gas."
      },
      "symbol()": {
        "details": "See {IERC721Metadata-symbol}."
      },
      "tokenByIndex(uint256)": {
        "details": "See {IERC721Enumerable-tokenByIndex}."
      },
      "tokenOfOwnerByIndex(address,uint256)": {
        "details": "See {IERC721Enumerable-tokenOfOwnerByIndex}."
      },
      "tokenURI(uint256)": {
        "details": "See {IERC721Metadata-tokenURI}."
      },
      "totalSupply()": {
        "details": "See {IERC721Enumerable-totalSupply}."
      },
      "transferFrom(address,address,uint256)": {
        "details": "See {IERC721-transferFrom}."
      }
    }
  },
  "userdoc": {
    "methods": {}
  }
}