{
  "contractName": "DonateAsset",
  "abi": [
    {
      "inputs": [
        {
          "internalType": "address",
          "name": "_adm",
          "type": "address"
        }
      ],
      "stateMutability": "nonpayable",
      "type": "constructor"
    },
    {
      "anonymous": false,
      "inputs": [
        {
          "indexed": true,
          "internalType": "address",
          "name": "owner",
          "type": "address"
        },
        {
          "indexed": true,
          "internalType": "address",
          "name": "approved",
          "type": "address"
        },
        {
          "indexed": true,
          "internalType": "uint256",
          "name": "tokenId",
          "type": "uint256"
        }
      ],
      "name": "Approval",
      "type": "event"
    },
    {
      "anonymous": false,
      "inputs": [
        {
          "indexed": true,
          "internalType": "address",
          "name": "owner",
          "type": "address"
        },
        {
          "indexed": true,
          "internalType": "address",
          "name": "operator",
          "type": "address"
        },
        {
          "indexed": false,
          "internalType": "bool",
          "name": "approved",
          "type": "bool"
        }
      ],
      "name": "ApprovalForAll",
      "type": "event"
    },
    {
      "anonymous": false,
      "inputs": [
        {
          "indexed": false,
          "internalType": "uint32",
          "name": "assetId",
          "type": "uint32"
        }
      ],
      "name": "LogDonated",
      "type": "event"
    },
    {
      "anonymous": false,
      "inputs": [
        {
          "indexed": false,
          "internalType": "uint32",
          "name": "assetId",
          "type": "uint32"
        }
      ],
      "name": "LogFree",
      "type": "event"
    },
    {
      "anonymous": false,
      "inputs": [
        {
          "indexed": true,
          "internalType": "address",
          "name": "from",
          "type": "address"
        },
        {
          "indexed": true,
          "internalType": "address",
          "name": "to",
          "type": "address"
        },
        {
          "indexed": true,
          "internalType": "uint256",
          "name": "tokenId",
          "type": "uint256"
        }
      ],
      "name": "Transfer",
      "type": "event"
    },
    {
      "inputs": [
        {
          "internalType": "uint256",
          "name": "",
          "type": "uint256"
        }
      ],
      "name": "AssetList",
      "outputs": [
        {
          "internalType": "string",
          "name": "assetTitle",
          "type": "string"
        },
        {
          "internalType": "string",
          "name": "assetDescription",
          "type": "string"
        },
        {
          "internalType": "uint32",
          "name": "availablityDate",
          "type": "uint32"
        },
        {
          "internalType": "string",
          "name": "location",
          "type": "string"
        },
        {
          "internalType": "address",
          "name": "owner",
          "type": "address"
        },
        {
          "internalType": "string",
          "name": "imageIPFSHash",
          "type": "string"
        }
      ],
      "stateMutability": "view",
      "type": "function"
    },
    {
      "inputs": [
        {
          "internalType": "address",
          "name": "to",
          "type": "address"
        },
        {
          "internalType": "uint256",
          "name": "tokenId",
          "type": "uint256"
        }
      ],
      "name": "approve",
      "outputs": [],
      "stateMutability": "nonpayable",
      "type": "function"
    },
    {
      "inputs": [
        {
          "internalType": "address",
          "name": "owner",
          "type": "address"
        }
      ],
      "name": "balanceOf",
      "outputs": [
        {
          "internalType": "uint256",
          "name": "",
          "type": "uint256"
        }
      ],
      "stateMutability": "view",
      "type": "function"
    },
    {
      "inputs": [],
      "name": "baseURI",
      "outputs": [
        {
          "internalType": "string",
          "name": "",
          "type": "string"
        }
      ],
      "stateMutability": "view",
      "type": "function"
    },
    {
      "inputs": [
        {
          "internalType": "uint32",
          "name": "",
          "type": "uint32"
        }
      ],
      "name": "donationList",
      "outputs": [
        {
          "internalType": "uint256",
          "name": "assetId",
          "type": "uint256"
        },
        {
          "internalType": "uint32",
          "name": "availablityDate",
          "type": "uint32"
        },
        {
          "internalType": "string",
          "name": "location",
          "type": "string"
        },
        {
          "internalType": "enum DonateAsset.Status",
          "name": "status",
          "type": "uint8"
        },
        {
          "internalType": "address",
          "name": "owner",
          "type": "address"
        },
        {
          "internalType": "address",
          "name": "recipient",
          "type": "address"
        },
        {
          "internalType": "uint32",
          "name": "requestCount",
          "type": "uint32"
        }
      ],
      "stateMutability": "view",
      "type": "function"
    },
    {
      "inputs": [
        {
          "internalType": "uint256",
          "name": "tokenId",
          "type": "uint256"
        }
      ],
      "name": "getApproved",
      "outputs": [
        {
          "internalType": "address",
          "name": "",
          "type": "address"
        }
      ],
      "stateMutability": "view",
      "type": "function"
    },
    {
      "inputs": [
        {
          "internalType": "address",
          "name": "owner",
          "type": "address"
        },
        {
          "internalType": "address",
          "name": "operator",
          "type": "address"
        }
      ],
      "name": "isApprovedForAll",
      "outputs": [
        {
          "internalType": "bool",
          "name": "",
          "type": "bool"
        }
      ],
      "stateMutability": "view",
      "type": "function"
    },
    {
      "inputs": [],
      "name": "name",
      "outputs": [
        {
          "internalType": "string",
          "name": "",
          "type": "string"
        }
      ],
      "stateMutability": "view",
      "type": "function"
    },
    {
      "inputs": [
        {
          "internalType": "uint256",
          "name": "tokenId",
          "type": "uint256"
        }
      ],
      "name": "ownerOf",
      "outputs": [
        {
          "internalType": "address",
          "name": "",
          "type": "address"
        }
      ],
      "stateMutability": "view",
      "type": "function"
    },
    {
      "inputs": [
        {
          "internalType": "address",
          "name": "from",
          "type": "address"
        },
        {
          "internalType": "address",
          "name": "to",
          "type": "address"
        },
        {
          "internalType": "uint256",
          "name": "tokenId",
          "type": "uint256"
        }
      ],
      "name": "safeTransferFrom",
      "outputs": [],
      "stateMutability": "nonpayable",
      "type": "function"
    },
    {
      "inputs": [
        {
          "internalType": "address",
          "name": "from",
          "type": "address"
        },
        {
          "internalType": "address",
          "name": "to",
          "type": "address"
        },
        {
          "internalType": "uint256",
          "name": "tokenId",
          "type": "uint256"
        },
        {
          "internalType": "bytes",
          "name": "_data",
          "type": "bytes"
        }
      ],
      "name": "safeTransferFrom",
      "outputs": [],
      "stateMutability": "nonpayable",
      "type": "function"
    },
    {
      "inputs": [
        {
          "internalType": "address",
          "name": "operator",
          "type": "address"
        },
        {
          "internalType": "bool",
          "name": "approved",
          "type": "bool"
        }
      ],
      "name": "setApprovalForAll",
      "outputs": [],
      "stateMutability": "nonpayable",
      "type": "function"
    },
    {
      "inputs": [
        {
          "internalType": "bytes4",
          "name": "interfaceId",
          "type": "bytes4"
        }
      ],
      "name": "supportsInterface",
      "outputs": [
        {
          "internalType": "bool",
          "name": "",
          "type": "bool"
        }
      ],
      "stateMutability": "view",
      "type": "function"
    },
    {
      "inputs": [],
      "name": "symbol",
      "outputs": [
        {
          "internalType": "string",
          "name": "",
          "type": "string"
        }
      ],
      "stateMutability": "view",
      "type": "function"
    },
    {
      "inputs": [
        {
          "internalType": "uint256",
          "name": "index",
          "type": "uint256"
        }
      ],
      "name": "tokenByIndex",
      "outputs": [
        {
          "internalType": "uint256",
          "name": "",
          "type": "uint256"
        }
      ],
      "stateMutability": "view",
      "type": "function"
    },
    {
      "inputs": [
        {
          "internalType": "address",
          "name": "owner",
          "type": "address"
        },
        {
          "internalType": "uint256",
          "name": "index",
          "type": "uint256"
        }
      ],
      "name": "tokenOfOwnerByIndex",
      "outputs": [
        {
          "internalType": "uint256",
          "name": "",
          "type": "uint256"
        }
      ],
      "stateMutability": "view",
      "type": "function"
    },
    {
      "inputs": [
        {
          "internalType": "uint256",
          "name": "tokenId",
          "type": "uint256"
        }
      ],
      "name": "tokenURI",
      "outputs": [
        {
          "internalType": "string",
          "name": "",
          "type": "string"
        }
      ],
      "stateMutability": "view",
      "type": "function"
    },
    {
      "inputs": [],
      "name": "totalSupply",
      "outputs": [
        {
          "internalType": "uint256",
          "name": "",
          "type": "uint256"
        }
      ],
      "stateMutability": "view",
      "type": "function"
    },
    {
      "inputs": [
        {
          "internalType": "address",
          "name": "from",
          "type": "address"
        },
        {
          "internalType": "address",
          "name": "to",
          "type": "address"
        },
        {
          "internalType": "uint256",
          "name": "tokenId",
          "type": "uint256"
        }
      ],
      "name": "transferFrom",
      "outputs": [],
      "stateMutability": "nonpayable",
      "type": "function"
    },
    {
      "inputs": [
        {
          "components": [
            {
              "internalType": "uint256",
              "name": "assetId",
              "type": "uint256"
            },
            {
              "internalType": "uint32",
              "name": "availablityDate",
              "type": "uint32"
            },
            {
              "internalType": "string",
              "name": "location",
              "type": "string"
            },
            {
              "internalType": "enum DonateAsset.Status",
              "name": "status",
              "type": "uint8"
            },
            {
              "internalType": "address",
              "name": "owner",
              "type": "address"
            },
            {
              "internalType": "address",
              "name": "recipient",
              "type": "address"
            },
            {
              "internalType": "uint32",
              "name": "requestCount",
              "type": "uint32"
            }
          ],
          "internalType": "struct DonateAsset.Donation",
          "name": "donation",
          "type": "tuple"
        },
        {
          "internalType": "uint32",
          "name": "donationId",
          "type": "uint32"
        }
      ],
      "name": "UpdateDonation",
      "outputs": [],
      "stateMutability": "nonpayable",
      "type": "function"
    },
    {
      "inputs": [
        {
          "internalType": "string",
          "name": "assetTitle",
          "type": "string"
        },
        {
          "internalType": "string",
          "name": "assetDescription",
          "type": "string"
        },
        {
          "internalType": "uint32",
          "name": "availablityDate",
          "type": "uint32"
        },
        {
          "internalType": "string",
          "name": "location",
          "type": "string"
        },
        {
          "internalType": "string",
          "name": "imageIPFSHash",
          "type": "string"
        }
      ],
      "name": "addAsset",
      "outputs": [],
      "stateMutability": "nonpayable",
      "type": "function"
    },
    {
      "inputs": [
        {
          "internalType": "uint256",
          "name": "pageNo",
          "type": "uint256"
        }
      ],
      "name": "getDonationsByOwner",
      "outputs": [
        {
          "components": [
            {
              "internalType": "uint256",
              "name": "assetId",
              "type": "uint256"
            },
            {
              "internalType": "uint32",
              "name": "availablityDate",
              "type": "uint32"
            },
            {
              "internalType": "string",
              "name": "location",
              "type": "string"
            },
            {
              "internalType": "enum DonateAsset.Status",
              "name": "status",
              "type": "uint8"
            },
            {
              "internalType": "address",
              "name": "owner",
              "type": "address"
            },
            {
              "internalType": "address",
              "name": "recipient",
              "type": "address"
            },
            {
              "internalType": "uint32",
              "name": "requestCount",
              "type": "uint32"
            }
          ],
          "internalType": "struct DonateAsset.Donation[8]",
          "name": "",
          "type": "tuple[8]"
        }
      ],
      "stateMutability": "view",
      "type": "function"
    },
    {
      "inputs": [],
      "name": "getAllDonations",
      "outputs": [
        {
          "components": [
            {
              "internalType": "uint256",
              "name": "assetId",
              "type": "uint256"
            },
            {
              "internalType": "uint32",
              "name": "availablityDate",
              "type": "uint32"
            },
            {
              "internalType": "string",
              "name": "location",
              "type": "string"
            },
            {
              "internalType": "enum DonateAsset.Status",
              "name": "status",
              "type": "uint8"
            },
            {
              "internalType": "address",
              "name": "owner",
              "type": "address"
            },
            {
              "internalType": "address",
              "name": "recipient",
              "type": "address"
            },
            {
              "internalType": "uint32",
              "name": "requestCount",
              "type": "uint32"
            }
          ],
          "internalType": "struct DonateAsset.Donation[16]",
          "name": "",
          "type": "tuple[16]"
        }
      ],
      "stateMutability": "view",
      "type": "function"
    },
    {
      "inputs": [
        {
          "internalType": "address",
          "name": "assetOwner",
          "type": "address"
        }
      ],
      "name": "mintToken",
      "outputs": [
        {
          "internalType": "uint32",
          "name": "",
          "type": "uint32"
        }
      ],
      "stateMutability": "nonpayable",
      "type": "function"
    },
    {
      "inputs": [
        {
          "internalType": "uint32",
          "name": "donationId",
          "type": "uint32"
        },
        {
          "internalType": "address",
          "name": "recipientAddress",
          "type": "address"
        }
      ],
      "name": "donateAsset",
      "outputs": [],
      "stateMutability": "nonpayable",
      "type": "function"
    },
    {
      "inputs": [
        {
          "internalType": "uint32",
          "name": "donationId",
          "type": "uint32"
        }
      ],
      "name": "getAssetRequestCount",
      "outputs": [
        {
          "internalType": "uint32",
          "name": "",
          "type": "uint32"
        }
      ],
      "stateMutability": "view",
      "type": "function"
    },
    {
      "inputs": [
        {
          "internalType": "uint32",
          "name": "donationId",
          "type": "uint32"
        }
      ],
      "name": "getDonation",
      "outputs": [
        {
          "components": [
            {
              "internalType": "uint256",
              "name": "assetId",
              "type": "uint256"
            },
            {
              "internalType": "uint32",
              "name": "availablityDate",
              "type": "uint32"
            },
            {
              "internalType": "string",
              "name": "location",
              "type": "string"
            },
            {
              "internalType": "enum DonateAsset.Status",
              "name": "status",
              "type": "uint8"
            },
            {
              "internalType": "address",
              "name": "owner",
              "type": "address"
            },
            {
              "internalType": "address",
              "name": "recipient",
              "type": "address"
            },
            {
              "internalType": "uint32",
              "name": "requestCount",
              "type": "uint32"
            }
          ],
          "internalType": "struct DonateAsset.Donation",
          "name": "",
          "type": "tuple"
        }
      ],
      "stateMutability": "view",
      "type": "function"
    }
  ],
  "bytecode": "0x60806040523480156200001157600080fd5b50604051620036073803806200360783398101604081905262000034916200023a565b604080518082018252600781526626bcaa37b5b2b760c91b602080830191909152825180840190935260038352624d545360e81b9083015290620000886301ffc9a760e01b6001600160e01b036200013a16565b81516200009d90600690602085019062000195565b508051620000b390600790602084019062000195565b50620000cf6380ac58cd60e01b6001600160e01b036200013a16565b620000ea635b5e139f60e01b6001600160e01b036200013a16565b6200010563780e9d6360e01b6001600160e01b036200013a16565b5050600a80546001600160a01b0319166001600160a01b039290921691909117600160a01b600160e01b0319169055620002a1565b6001600160e01b03198082161415620001705760405162461bcd60e51b815260040162000167906200026a565b60405180910390fd5b6001600160e01b0319166000908152602081905260409020805460ff19166001179055565b828054600181600116156101000203166002900490600052602060002090601f016020900481019282601f10620001d857805160ff191683800117855562000208565b8280016001018555821562000208579182015b8281111562000208578251825591602001919060010190620001eb565b50620002169291506200021a565b5090565b6200023791905b8082111562000216576000815560010162000221565b90565b6000602082840312156200024c578081fd5b81516001600160a01b038116811462000263578182fd5b9392505050565b6020808252601c908201527f4552433136353a20696e76616c696420696e7465726661636520696400000000604082015260600190565b61335680620002b16000396000f3fe608060405234801561001057600080fd5b50600436106101495760003560e01c806301173a741461014e57806301ffc9a71461017757806306fdde0314610197578063081812fc146101ac578063095ea7b3146101cc57806318160ddd146101e1578063209fe64e146101f657806321f54c211461020957806323b872dd1461021c578063247f05421461022f5780632f745c591461024f57806338a59a071461026257806342842e0e1461027757806349d17fe91461028a5780634bb0eaaf1461029d5780634f6ccce7146102c357806355e2bf10146102d65780636352211e146102fb5780636c0360eb1461030e57806370a0823114610316578063718841361461032957806395d89b4114610349578063a22cb46514610351578063b88d4fde14610364578063c87b56dd14610377578063cac78d851461038a578063e985e9c51461039d575b600080fd5b61016161015c366004612581565b6103b0565b60405161016e91906131f4565b60405180910390f35b61018a6101853660046126f4565b6104bf565b60405161016e9190612ba2565b61019f6104de565b60405161016e9190612bad565b6101bf6101ba366004612917565b610575565b60405161016e9190612ac1565b6101df6101da3660046126ae565b6105b8565b005b6101e9610650565b60405161016e919061318d565b6101df6102043660046127e8565b610661565b61016161021736600461292f565b610713565b6101df61022a3660046125d0565b610738565b61024261023d366004612917565b610770565b60405161016e9190612b60565b6101e961025d3660046126ae565b610a37565b61026a610a68565b60405161016e9190612b12565b6101df6102853660046125d0565b610c0f565b6101df61029836600461294b565b610c2a565b6102b06102ab36600461292f565b610d6f565b60405161016e9796959493929190613196565b6101e96102d1366004612917565b610e54565b6102e96102e4366004612917565b610e70565b60405161016e96959493929190612bc0565b6101bf610309366004612917565b6110ef565b61019f61111d565b6101e9610324366004612581565b61117e565b61033c61033736600461292f565b6111c7565b60405161016e919061317a565b61019f6112fc565b6101df61035f366004612677565b61135d565b6101df610372366004612610565b61142b565b61019f610385366004612917565b61146a565b6101df61039836600461272c565b6115b4565b61018a6103ab36600461259c565b61194e565b600a54604080516309d2f83f60e41b815290516000926001600160a01b031691639d2f83f091600480830192602092919082900301818787803b1580156103f657600080fd5b505af115801561040a573d6000803e3d6000fd5b505050506040513d601f19601f8201168201806040525061042e91908101906126d8565b156104545760405162461bcd60e51b815260040161044b90612f9d565b60405180910390fd5b600a5461046f908390600160a01b900463ffffffff1661197c565b600a54600160a01b900463ffffffff1661049261048d82600161199a565b6119bf565b600a805463ffffffff92909216600160a01b0263ffffffff60a01b1990921691909117905590505b919050565b6001600160e01b03191660009081526020819052604090205460ff1690565b60068054604080516020601f600260001961010060018816150201909516949094049384018190048102820181019092528281526060939092909183018282801561056a5780601f1061053f5761010080835404028352916020019161056a565b820191906000526020600020905b81548152906001019060200180831161054d57829003601f168201915b505050505090505b90565b6000610580826119e8565b61059c5760405162461bcd60e51b815260040161044b90612f51565b506000908152600460205260409020546001600160a01b031690565b60006105c3826110ef565b9050806001600160a01b0316836001600160a01b031614156105f75760405162461bcd60e51b815260040161044b9061306b565b806001600160a01b03166106096119fb565b6001600160a01b031614806106255750610625816103ab6119fb565b6106415760405162461bcd60e51b815260040161044b90612df7565b61064b83836119ff565b505050565b600061065c6002611a6d565b905090565b63ffffffff81166000908152600b602052604090206003015460ff16600481111561068857fe5b8260600151600481111561069857fe5b11156106d557606082015163ffffffff82166000908152600b60205260409020600301805460ff191660018360048111156106cf57fe5b02179055505b60c0919091015163ffffffff9182166000908152600b60205260409020600401805463ffffffff60a01b1916600160a01b9390921692909202179055565b63ffffffff9081166000908152600b6020526040902060040154600160a01b90041690565b6107496107436119fb565b82611a78565b6107655760405162461bcd60e51b815260040161044b906130ac565b61064b838383611afd565b610778612390565b6107806123be565b600a546040516396c5904360e01b81526001600160a01b03909116906396c59043906107b0903390600401612ac1565b60606040518083038186803b1580156107c857600080fd5b505afa1580156107dc573d6000803e3d6000fd5b505050506040513d601f19601f8201168201806040525061080091908101906128c2565b604081015190915063ffffffff16600061081b856008611c0b565b905060006108298383611c45565b9050600080610836612390565b60088410156108475783925061084c565b600892505b6000610858868561199a565b905060005b600a5463ffffffff600160c01b90910481169082161015610a265763ffffffff81166000908152600b602052604090206003015461010090046001600160a01b0316331415610a0b57868463ffffffff161115610a045763ffffffff8181166000908152600b6020908152604091829020825160e08101845281548152600180830154909516818401526002808301805486516101009882161598909802600019011691909104601f81018590048502870185018652808752919592948601939091908301828280156109715780601f1061094657610100808354040283529160200191610971565b820191906000526020600020905b81548152906001019060200180831161095457829003601f168201915b5050509183525050600382015460209091019060ff16600481111561099257fe5b600481111561099d57fe5b815260038201546001600160a01b0361010090910481166020830152600490920154918216604082015263ffffffff600160a01b909204821660609091015284906109ea9087168a611c45565b600881106109f457fe5b6020020152600190930192610a0b565b6001909301925b818463ffffffff161415610a1e57610a26565b60010161085d565b5081985050505050505050506104ba565b6001600160a01b0382166000908152600160205260408120610a5f908363ffffffff611c8716565b90505b92915050565b610a706123de565b6000610a7a6123de565b600a546010600160a01b90910463ffffffff1611610aa957600a54600160c01b900463ffffffff169150610aae565b601091505b60005b8263ffffffff168163ffffffff161015610c085763ffffffff8181166000908152600b6020908152604091829020825160e08101845281548152600180830154909516818401526002808301805486516101009882161598909802600019011691909104601f8101859004850287018501865280875291959294860193909190830182828015610b825780601f10610b5757610100808354040283529160200191610b82565b820191906000526020600020905b815481529060010190602001808311610b6557829003601f168201915b5050509183525050600382015460209091019060ff166004811115610ba357fe5b6004811115610bae57fe5b815260038201546001600160a01b0361010090910481166020830152600490920154918216604082015263ffffffff600160a01b90920482166060909101528390831660108110610bfb57fe5b6020020152600101610ab1565b5091505090565b61064b8383836040518060200160405280600081525061142b565b600a60009054906101000a90046001600160a01b03166001600160a01b0316639d2f83f06040518163ffffffff1660e01b8152600401602060405180830381600087803b158015610c7a57600080fd5b505af1158015610c8e573d6000803e3d6000fd5b505050506040513d601f19601f82011682018060405250610cb291908101906126d8565b15610ccf5760405162461bcd60e51b815260040161044b90612f9d565b63ffffffff82166000908152600b6020526040902054610cf0338383610c0f565b63ffffffff83166000908152600b6020526040908190206004810180546001600160a01b0386166001600160a01b0319909116179055600301805460ff19166002179055517f9869ee1482368b4ea48cb13a191ba8022b944e7785dbe1804c4e4c11ed347dd190610d629085906131f4565b60405180910390a1505050565b600b6020908152600091825260409182902080546001808301546002808501805488516101009582161595909502600019011691909104601f8101879004870284018701909752868352929563ffffffff90911694919291830182828015610e185780601f10610ded57610100808354040283529160200191610e18565b820191906000526020600020905b815481529060010190602001808311610dfb57829003601f168201915b505050506003830154600490930154919260ff8116926101009091046001600160a01b039081169250811690600160a01b900463ffffffff1687565b600080610e6860028463ffffffff611c9316565b509392505050565b600c6020908152600091825260409182902080548351601f60026000196101006001861615020190931692909204918201849004840281018401909452808452909291839190830182828015610f075780601f10610edc57610100808354040283529160200191610f07565b820191906000526020600020905b815481529060010190602001808311610eea57829003601f168201915b505050505090806001018054600181600116156101000203166002900480601f016020809104026020016040519081016040528092919081815260200182805460018160011615610100020316600290048015610fa55780601f10610f7a57610100808354040283529160200191610fa5565b820191906000526020600020905b815481529060010190602001808311610f8857829003601f168201915b505050506002838101546003850180546040805160206101006001851615026000190190931695909504601f8101839004830286018301909152808552959663ffffffff909316959294509091908301828280156110445780601f1061101957610100808354040283529160200191611044565b820191906000526020600020905b81548152906001019060200180831161102757829003601f168201915b50505050600483015460058401805460408051602060026101006001861615026000190190941693909304601f810184900484028201840190925281815295966001600160a01b0390941695939450908301828280156110e55780601f106110ba576101008083540402835291602001916110e5565b820191906000526020600020905b8154815290600101906020018083116110c857829003601f168201915b5050505050905086565b6000610a62826040518060600160405280602981526020016132d8602991396002919063ffffffff611caf16565b60098054604080516020601f600260001961010060018816150201909516949094049384018190048102820181019092528281526060939092909183018282801561056a5780601f1061053f5761010080835404028352916020019161056a565b60006001600160a01b0382166111a65760405162461bcd60e51b815260040161044b90612e4f565b6001600160a01b0382166000908152600160205260409020610a6290611a6d565b6111cf61240c565b63ffffffff8281166000908152600b6020908152604091829020825160e08101845281548152600180830154909516818401526002808301805486516101009882161598909802600019011691909104601f810185900485028701850186528087529195929486019390919083018282801561128c5780601f106112615761010080835404028352916020019161128c565b820191906000526020600020905b81548152906001019060200180831161126f57829003601f168201915b5050509183525050600382015460209091019060ff1660048111156112ad57fe5b60048111156112b857fe5b8152600382015461010090046001600160a01b0390811660208301526004909201549182166040820152600160a01b90910463ffffffff1660609091015292915050565b60078054604080516020601f600260001961010060018816150201909516949094049384018190048102820181019092528281526060939092909183018282801561056a5780601f1061053f5761010080835404028352916020019161056a565b6113656119fb565b6001600160a01b0316826001600160a01b031614156113965760405162461bcd60e51b815260040161044b90612d78565b80600560006113a36119fb565b6001600160a01b03908116825260208083019390935260409182016000908120918716808252919093529120805460ff1916921515929092179091556113e76119fb565b6001600160a01b03167f17307eab39ab6107e8899845ad3d59bd9653f200f220920489ca2b5937696c318360405161141f9190612ba2565b60405180910390a35050565b61143c6114366119fb565b83611a78565b6114585760405162461bcd60e51b815260040161044b906130ac565b61146484848484611cc6565b50505050565b6060611475826119e8565b6114915760405162461bcd60e51b815260040161044b9061301c565b60008281526008602090815260409182902080548351601f60026000196101006001861615020190931692909204918201849004840281018401909452808452606093928301828280156115265780601f106114fb57610100808354040283529160200191611526565b820191906000526020600020905b81548152906001019060200180831161150957829003601f168201915b50506009549394505050506002600019610100600184161502019091160461154f5790506104ba565b8051156115815760098160405160200161156a929190612a40565b6040516020818303038152906040529150506104ba565b600961158c84611cf9565b60405160200161159d929190612a40565b604051602081830303815290604052915050919050565b600a60009054906101000a90046001600160a01b03166001600160a01b0316639d2f83f06040518163ffffffff1660e01b8152600401602060405180830381600087803b15801561160457600080fd5b505af1158015611618573d6000803e3d6000fd5b505050506040513d601f19601f8201168201806040525061163c91908101906126d8565b156116595760405162461bcd60e51b815260040161044b90612f9d565b600a5460405163095d1a0d60e21b81526001600160a01b0390911690632574683490611689903390600401612ac1565b600060405180830381600087803b1580156116a357600080fd5b505af11580156116b7573d6000803e3d6000fd5b5050505060006116c6336103b0565b6040805160c081018252888152602080820189905263ffffffff808916838501526060830188905233608084015260a0830187905284166000908152600c825292909220815180519495509193909261172392849291019061245a565b50602082810151805161173c926001850192019061245a565b50604082015160028201805463ffffffff191663ffffffff9092169190911790556060820151805161177891600384019160209091019061245a565b5060808201516004820180546001600160a01b0319166001600160a01b0390921691909117905560a082015180516117ba91600584019160209091019061245a565b50506040805160e08101825263ffffffff8481168252878116602080840191825283850189815260006060860181905233608087015260a0860181905260c08601819052600a54600160c01b900485168152600b83529590952084518155915160018301805463ffffffff1916919094161790925592518051929450611849926002850192919091019061245a565b50606082015160038201805460ff1916600183600481111561186757fe5b02179055506080820151600382018054610100600160a81b0319166101006001600160a01b039384160217905560a08301516004909201805460c0909401516001600160a01b0319909416929091169190911763ffffffff60a01b1916600160a01b63ffffffff93841602179055600a546118ef9161048d91600160c01b900416600161199a565b600a60186101000a81548163ffffffff021916908363ffffffff1602179055507f02be38ab1ac25d38c43ba8eef640edc80bd26853df4de2f92af4fa493699009c8160405161193e91906131f4565b60405180910390a1505050505050565b6001600160a01b03918216600090815260056020908152604080832093909416825291909152205460ff1690565b611996828260405180602001604052806000815250611dbd565b5050565b600082820183811015610a5f5760405162461bcd60e51b815260040161044b90612cff565b6000600160201b82106119e45760405162461bcd60e51b815260040161044b906130fd565b5090565b6000610a6260028363ffffffff611df016565b3390565b600081815260046020526040902080546001600160a01b0319166001600160a01b0384169081179091558190611a34826110ef565b6001600160a01b03167f8c5be1e5ebec7d5bd14f71427d1e84f3dd0314c0f7b2291e5b200ac8c7c3b92560405160405180910390a45050565b6000610a6282611dfc565b6000611a83826119e8565b611a9f5760405162461bcd60e51b815260040161044b90612dab565b6000611aaa836110ef565b9050806001600160a01b0316846001600160a01b03161480611ae55750836001600160a01b0316611ada84610575565b6001600160a01b0316145b80611af55750611af5818561194e565b949350505050565b826001600160a01b0316611b10826110ef565b6001600160a01b031614611b365760405162461bcd60e51b815260040161044b90612fd3565b6001600160a01b038216611b5c5760405162461bcd60e51b815260040161044b90612d34565b611b6783838361064b565b611b726000826119ff565b6001600160a01b0383166000908152600160205260409020611b9a908263ffffffff611e0016565b506001600160a01b0382166000908152600160205260409020611bc3908263ffffffff611e0c16565b50611bd66002828463ffffffff611e1816565b5080826001600160a01b0316846001600160a01b031660008051602061330183398151915260405160405180910390a4505050565b600082611c1a57506000610a62565b82820282848281611c2757fe5b0414610a5f5760405162461bcd60e51b815260040161044b90612f10565b6000610a5f83836040518060400160405280601e81526020017f536166654d6174683a207375627472616374696f6e206f766572666c6f770000815250611e2e565b6000610a5f8383611e5a565b6000808080611ca28686611e9f565b9097909650945050505050565b6000611cbc848484611efb565b90505b9392505050565b611cd1848484611afd565b611cdd84848484611f5a565b6114645760405162461bcd60e51b815260040161044b90612c77565b606081611d1e57506040805180820190915260018152600360fc1b60208201526104ba565b8160005b8115611d3657600101600a82049150611d22565b6060816040519080825280601f01601f191660200182016040528015611d63576020820181803883390190505b50859350905060001982015b8315611db457600a840660300160f81b82828060019003935081518110611d9257fe5b60200101906001600160f81b031916908160001a905350600a84049350611d6f565b50949350505050565b611dc7838361203f565b611dd46000848484611f5a565b61064b5760405162461bcd60e51b815260040161044b90612c77565b6000610a5f83836120fd565b5490565b6000610a5f8383612115565b6000610a5f83836121db565b6000611cbc84846001600160a01b038516612225565b60008184841115611e525760405162461bcd60e51b815260040161044b9190612bad565b505050900390565b81546000908210611e7d5760405162461bcd60e51b815260040161044b90612c35565b826000018281548110611e8c57fe5b9060005260206000200154905092915050565b815460009081908310611ec45760405162461bcd60e51b815260040161044b90612e99565b6000846000018481548110611ed557fe5b906000526020600020906002020190508060000154816001015492509250509250929050565b60008281526001840160205260408120548281611f2b5760405162461bcd60e51b815260040161044b9190612bad565b50846000016001820381548110611f3e57fe5b9060005260206000209060020201600101549150509392505050565b6000611f6e846001600160a01b03166122bc565b611f7a57506001611af5565b6060612008630a85bd0160e11b611f8f6119fb565b888787604051602401611fa59493929190612ad5565b604051602081830303815290604052906001600160e01b0319166020820180516001600160e01b0383818316178352505050506040518060600160405280603281526020016132a6603291396001600160a01b038816919063ffffffff6122c216565b90506000818060200190516120209190810190612710565b6001600160e01b031916630a85bd0160e11b1492505050949350505050565b6001600160a01b0382166120655760405162461bcd60e51b815260040161044b90612edb565b61206e816119e8565b1561208b5760405162461bcd60e51b815260040161044b90612cc9565b6120976000838361064b565b6001600160a01b03821660009081526001602052604090206120bf908263ffffffff611e0c16565b506120d26002828463ffffffff611e1816565b5060405181906001600160a01b03841690600090600080516020613301833981519152908290a45050565b60009081526001919091016020526040902054151590565b600081815260018301602052604081205480156121d1578354600019808301919081019060009087908390811061214857fe5b906000526020600020015490508087600001848154811061216557fe5b60009182526020808320909101929092558281526001898101909252604090209084019055865487908061219557fe5b60019003818190600052602060002001600090559055866001016000878152602001908152602001600020600090556001945050505050610a62565b6000915050610a62565b60006121e783836120fd565b61221d57508154600181810184556000848152602080822090930184905584548482528286019093526040902091909155610a62565b506000610a62565b60008281526001840160205260408120548061228a575050604080518082018252838152602080820184815286546001818101895560008981528481209551600290930290950191825591519082015586548684528188019092529290912055611cbf565b8285600001600183038154811061229d57fe5b9060005260206000209060020201600101819055506000915050611cbf565b3b151590565b6060611cbc848460008560606122d7856122bc565b6122f35760405162461bcd60e51b815260040161044b90613143565b60006060866001600160a01b031685876040516123109190612a24565b60006040518083038185875af1925050503d806000811461234d576040519150601f19603f3d011682016040523d82523d6000602084013e612352565b606091505b50915091508115612366579150611af59050565b8051156123765780518082602001fd5b8360405162461bcd60e51b815260040161044b9190612bad565b6040518061010001604052806008905b6123a861240c565b8152602001906001900390816123a05790505090565b604080516060810182526000808252602082018190529181019190915290565b6040518061020001604052806010905b6123f661240c565b8152602001906001900390816123ee5790505090565b6040518060e0016040528060008152602001600063ffffffff168152602001606081526020016000600481111561243f57fe5b81526000602082018190526040820181905260609091015290565b828054600181600116156101000203166002900490600052602060002090601f016020900481019282601f1061249b57805160ff19168380011785556124c8565b828001600101855582156124c8579182015b828111156124c85782518255916020019190600101906124ad565b506119e4926105729250905b808211156119e457600081556001016124d4565b80356001600160a01b0381168114610a6257600080fd5b600082601f83011261250f578081fd5b81356001600160401b03811115612524578182fd5b612537601f8201601f1916602001613205565b915080825283602082850101111561254e57600080fd5b8060208401602084013760009082016020015292915050565b803560058110610a6257600080fd5b8035610a6281613293565b600060208284031215612592578081fd5b610a5f83836124e8565b600080604083850312156125ae578081fd5b6125b884846124e8565b91506125c784602085016124e8565b90509250929050565b6000806000606084860312156125e4578081fd5b83356125ef81613257565b925060208401356125ff81613257565b929592945050506040919091013590565b60008060008060808587031215612625578081fd5b61262f86866124e8565b935061263e86602087016124e8565b92506040850135915060608501356001600160401b0381111561265f578182fd5b61266b878288016124ff565b91505092959194509250565b60008060408385031215612689578182fd5b61269384846124e8565b915060208301356126a38161326f565b809150509250929050565b600080604083850312156126c0578182fd5b6126ca84846124e8565b946020939093013593505050565b6000602082840312156126e9578081fd5b8151610a5f8161326f565b600060208284031215612705578081fd5b8135610a5f8161327d565b600060208284031215612721578081fd5b8151610a5f8161327d565b600080600080600060a08688031215612743578283fd5b85356001600160401b0380821115612759578485fd5b61276589838a016124ff565b9650602088013591508082111561277a578485fd5b61278689838a016124ff565b95506040880135915061279882613293565b909350606087013590808211156127ad578283fd5b6127b989838a016124ff565b935060808801359150808211156127ce578283fd5b506127db888289016124ff565b9150509295509295909350565b600080604083850312156127fa578182fd5b82356001600160401b0380821115612810578384fd5b81850160e08188031215612822578485fd5b61282c60e0613205565b92508035835261283f8760208301612576565b6020840152604081013582811115612855578586fd5b612861888284016124ff565b6040850152506128748760608301612567565b606084015261288687608083016124e8565b60808401526128988760a083016124e8565b60a08401526128aa8760c08301612576565b60c08401525050809250506125c78460208501612576565b6000606082840312156128d3578081fd5b6128dd6060613205565b82516128e88161326f565b815260208301516128f88161326f565b6020820152604083015161290b81613293565b60408201529392505050565b600060208284031215612928578081fd5b5035919050565b600060208284031215612940578081fd5b8135610a5f81613293565b6000806040838503121561295d578182fd5b82356125b881613293565b6000815180845261298081602086016020860161322b565b601f01601f19169290920160200192915050565b6005811061299e57fe5b9052565b600081518352602082015163ffffffff80821660208601526040840151915060e060408601526129d560e0860183612968565b606085015192506129e96060870184612994565b6080850151925060018060a01b0380841660808801528060a08701511660a0880152508160c08601511660c087015280935050505092915050565b60008251612a3681846020870161322b565b9190910192915050565b6000808454600180821660008114612a5f5760018114612a7657612aa5565b60ff198316865260028304607f1686019350612aa5565b600283048886526020808720875b83811015612a9d5781548a820152908501908201612a84565b505050860193505b5050508351612ab881836020880161322b565b01949350505050565b6001600160a01b0391909116815260200190565b6001600160a01b0385811682528416602082015260408101839052608060608201819052600090612b0890830184612968565b9695505050505050565b6020808252600090610220830183820185845b6010811015612b5457601f19878503018352612b428483516129a2565b93509184019190840190600101612b25565b50919695505050505050565b6020808252600090610120830183820185845b6008811015612b5457601f19878503018352612b908483516129a2565b93509184019190840190600101612b73565b901515815260200190565b600060208252610a5f6020830184612968565b600060c08252612bd360c0830189612968565b8281036020840152612be58189612968565b63ffffffff881660408501528381036060850152612c038188612968565b6001600160a01b038716608086015284810360a08601529150612c2890508185612968565b9998505050505050505050565b60208082526022908201527f456e756d657261626c655365743a20696e646578206f7574206f6620626f756e604082015261647360f01b606082015260800190565b60208082526032908201527f4552433732313a207472616e7366657220746f206e6f6e20455243373231526560408201527131b2b4bb32b91034b6b83632b6b2b73a32b960711b606082015260800190565b6020808252601c908201527b115490cdcc8c4e881d1bdad95b88185b1c9958591e481b5a5b9d195960221b604082015260600190565b6020808252601b908201527a536166654d6174683a206164646974696f6e206f766572666c6f7760281b604082015260600190565b60208082526024908201527f4552433732313a207472616e7366657220746f20746865207a65726f206164646040820152637265737360e01b606082015260800190565b60208082526019908201527822a9219b99189d1030b8383937bb32903a379031b0b63632b960391b604082015260600190565b6020808252602c908201527f4552433732313a206f70657261746f7220717565727920666f72206e6f6e657860408201526b34b9ba32b73a103a37b5b2b760a11b606082015260800190565b60208082526038908201527f4552433732313a20617070726f76652063616c6c6572206973206e6f74206f776040820152771b995c881b9bdc88185c1c1c9bdd995908199bdc88185b1b60421b606082015260800190565b6020808252602a908201527f4552433732313a2062616c616e636520717565727920666f7220746865207a65604082015269726f206164647265737360b01b606082015260800190565b60208082526022908201527f456e756d657261626c654d61703a20696e646578206f7574206f6620626f756e604082015261647360f01b606082015260800190565b6020808252818101527f4552433732313a206d696e7420746f20746865207a65726f2061646472657373604082015260600190565b60208082526021908201527f536166654d6174683a206d756c7469706c69636174696f6e206f766572666c6f6040820152607760f81b606082015260800190565b6020808252602c908201527f4552433732313a20617070726f76656420717565727920666f72206e6f6e657860408201526b34b9ba32b73a103a37b5b2b760a11b606082015260800190565b6020808252601c908201527b29bcb9ba32b69034b99034b71032b6b2b933b2b731bc9039ba37b81760211b604082015260600190565b60208082526029908201527f4552433732313a207472616e73666572206f6620746f6b656e2074686174206960408201526839903737ba1037bbb760b91b606082015260800190565b6020808252602f908201527f4552433732314d657461646174613a2055524920717565727920666f72206e6f60408201526e3732bc34b9ba32b73a103a37b5b2b760891b606082015260800190565b60208082526021908201527f4552433732313a20617070726f76616c20746f2063757272656e74206f776e656040820152603960f91b606082015260800190565b60208082526031908201527f4552433732313a207472616e736665722063616c6c6572206973206e6f74206f6040820152701ddb995c881b9bdc88185c1c1c9bdd9959607a1b606082015260800190565b60208082526026908201527f53616665436173743a2076616c756520646f65736e27742066697420696e203360408201526532206269747360d01b606082015260800190565b6020808252601d908201527f416464726573733a2063616c6c20746f206e6f6e2d636f6e7472616374000000604082015260600190565b600060208252610a5f60208301846129a2565b90815260200190565b600088825263ffffffff808916602084015260e060408401526131bc60e0840189612968565b91506131cb6060840188612994565b6001600160a01b0395861660808401529390941660a0820152911660c090910152949350505050565b63ffffffff91909116815260200190565b6040518181016001600160401b038111828210171561322357600080fd5b604052919050565b60005b8381101561324657818101518382015260200161322e565b838111156114645750506000910152565b6001600160a01b038116811461326c57600080fd5b50565b801515811461326c57600080fd5b6001600160e01b03198116811461326c57600080fd5b63ffffffff8116811461326c57600080fdfe4552433732313a207472616e7366657220746f206e6f6e20455243373231526563656976657220696d706c656d656e7465724552433732313a206f776e657220717565727920666f72206e6f6e6578697374656e7420746f6b656eddf252ad1be2c89b69c2b068fc378daa952ba7f163c4a11628f55a4df523b3efa2646970667358221220578a5227bc0321a917ee7dfd06de403c86b14fea3a400f94cdece5eb8d0fe99664736f6c63430006020033",
  "source": "pragma solidity ^0.6.2;\npragma experimental ABIEncoderV2;\nstruct donor {\n    bool exists;\n    bool approved;\n    uint32 donationCount;\n}\n\ncontract Administration {\n    function systemPaused() public returns (bool) {}\n\n    function addDonor(address donorAddress) public {}\n\n    function getDonor(address donorAddress)\n        public\n        view\n        returns (donor memory)\n    {}\n}\n\nimport \"@openzeppelin/contracts/token/ERC721/ERC721.sol\";\nimport \"@openzeppelin/contracts/access/AccessControl.sol\";\nimport \"@openzeppelin/contracts/math/SafeMath.sol\";\nimport \"@openzeppelin/contracts/utils/SafeCast.sol\";\n\n/// @title A Asset donation smart contract\n/// @author Fatemeh Heidari Soureshjani\n/// @notice This contract facilitates donation of physical assets for specific periods of time between asset owners and receivers\n/// @dev time\n\ncontract DonateAsset is ERC721 {\n    Administration ADM;\n\n    uint32 lastAssetId;\n    uint32 lastDonationId;\n\n    constructor(address _adm) public ERC721(\"MyToken\", \"MTS\") {\n        ADM = Administration(_adm);\n        lastAssetId = 0;\n        lastDonationId = 0;\n    }\n\n    enum Status {Free, Requested, Donated, Inactive, Burned}\n\n    struct Asset {\n        string assetTitle;\n        string assetDescription;\n        uint32 availablityDate;\n        string location;\n        address owner;\n        string imageIPFSHash;\n    }\n\n    struct Donation {\n        uint256 assetId;\n        uint32 availablityDate;\n        string location;\n        Status status;\n        address owner;\n        address recipient;\n        uint32 requestCount;\n    }\n\n    mapping(uint32 => Donation) public donationList;\n    mapping(uint256 => Asset) public AssetList;\n\n    modifier assetIsFree(uint32 donationId) {\n        require(\n            donationList[donationId].recipient == address(0) &&\n                (donationList[donationId].status == Status.Free ||\n                    donationList[donationId].status == Status.Requested),\n            \"Asset is not Free.\"\n        );\n        _;\n    }\n\n    modifier assetExists(uint32 donationId) {\n        require(donationList[donationId].owner != address(0), \"Invalid asset\");\n        _;\n    }\n\n    modifier isAssetOwner(uint256 assetId) {\n        require(ownerOf(assetId) == msg.sender, \"Sender nis ot asset owner.\");\n        _;\n    }\n\n    modifier whenNotPaused() {\n        require(!ADM.systemPaused(), \"System is in emergency stop.\");\n        _;\n    }\n\n    event LogFree(uint32 assetId);\n\n    event LogDonated(uint32 assetId);\n\n    // event LogInactive(uint32 assetId);\n    // event LogIBurned(uint32 assetId);\n\n    function UpdateDonation(Donation memory donation, uint32 donationId)\n        public\n    {\n        if (donation.status > donationList[donationId].status) {\n            donationList[donationId].status = donation.status;\n        }\n        donationList[donationId].requestCount = donation.requestCount;\n    }\n\n    /// @notice Adds a new asset to list of donated assets(Should be called by a donor)\n    /// @dev other asset struct members should be added\n    /// @param assetDescription Descrption of the asset entered by owner\n    /// @param availablityDate the first date the owner can donate the asset\n    /// @param location the location of the donated asset\n    /// @param imageIPFSHash IPFS hash of the asset image uploaded by owner and saved to IPFS\n    function addAsset(\n        string memory assetTitle,\n        string memory assetDescription,\n        uint32 availablityDate,\n        string memory location,\n        string memory imageIPFSHash\n    ) public whenNotPaused {\n        ADM.addDonor(msg.sender);\n        uint32 assetId = mintToken(msg.sender);\n        AssetList[assetId] = Asset({\n            assetTitle: assetTitle,\n            assetDescription: assetDescription,\n            availablityDate: availablityDate,\n            location: location,\n            owner: msg.sender,\n            imageIPFSHash: imageIPFSHash\n        });\n        donationList[lastDonationId] = Donation({\n            assetId: assetId,\n            availablityDate: availablityDate,\n            location: location,\n            status: Status.Free,\n            owner: msg.sender,\n            recipient: address(0),\n            requestCount: 0\n        });\n        lastDonationId = SafeCast.toUint32(\n            SafeMath.add(uint256(lastDonationId), 1)\n        );\n        emit LogFree(assetId);\n    }\n\n    /// @notice Returns all donations of an donor(it shoud be called by a donor)\n    /// @dev There must be better way than returing always an array of 16\n    /// @return Asset returns an array of type asset and length 16 of donations of msg.sender\n    function getDonationsByOwner(uint256 pageNo)\n        public\n        view\n        returns (Donation[8] memory)\n    {\n        donor memory d = ADM.getDonor(msg.sender);\n        uint256 donationCount = d.donationCount; //uint(balanceOf(msg.sender)); //donors[msg.sender].donationCount;\n        //uint32 pageNo = donors[msg.sender].pageNo;\n        uint256 nextStart = SafeMath.mul(pageNo, 8); //0\n        uint256 rem = SafeMath.sub(donationCount, nextStart); //1\n        uint256 index = 0;\n        uint32 j = 0;\n        Donation[8] memory _donationList;\n        if (rem < 0) {\n            return _donationList;\n        } else {\n            if ((rem) < 8) {\n                index = rem; //1\n            } else {\n                index = 8;\n            }\n            uint256 loopEnd = SafeMath.add(nextStart, index); //9\n            for (uint32 i = 0; i < lastDonationId; i++) {\n                if (donationList[i].owner == msg.sender) {\n                    if (j > nextStart) {\n                        _donationList[SafeMath.sub(\n                            j,\n                            nextStart\n                        )] = donationList[i];\n                        j++;\n                    } else {\n                        j++;\n                    }\n                }\n                if (j == loopEnd) {\n                    break;\n                }\n            }\n            // for (uint i = nextStart; i < loopEnd; i++) {\n            //     tokenId = uint32(donationOfOwnerByIndex(msg.sender, i));\n            //     assetList[SafeMath.sub(i , nextStart)] = donationList[tokenId];\n            // }\n            return _donationList;\n        }\n    }\n\n    /// @notice returns all donations\n    /// @dev There must be better way than returing always an array of 16\n    /// @return Asset returns an array of type asset and length 16 of all donations\n    function getAllDonations() public view returns (Donation[16] memory) {\n        uint32 index = 0;\n        Donation[16] memory _donationList;\n        if (lastAssetId <= 16) {\n            index = lastDonationId;\n        } else {\n            index = 16;\n        }\n        for (uint32 i = 0; i < index; i++) {\n            _donationList[i] = donationList[i];\n        }\n        return _donationList;\n    }\n\n    /// @notice The ERC721 stadard for nunfungible token is used to maintain ownership of assets\n    /// @notice everytime a new token is minted based on current value of lastAssetId for assetOwner address, and then lastAssetId is increased\n    /// @param assetOwner the owner of the new asset\n    /// @return returns the id of new minted token\n    function mintToken(\n        address assetOwner //isDonor(msg.sender)\n    ) public whenNotPaused returns (uint32) {\n        _safeMint(assetOwner, lastAssetId);\n        uint32 assetId = lastAssetId;\n        lastAssetId = SafeCast.toUint32(SafeMath.add(uint256(lastAssetId), 1));\n        return assetId;\n    }\n\n    /// @notice a donor can approve a specific request and this function assigns the recipient of this asset to the recipientAddress\n    /// @notice caller should be a donor and recipient should be a receiver\n    /// @dev change related request's status to approved\n    /// @param donationId unique id of donation to be donated\n    /// @param recipientAddress donation receiver\n    function donateAsset(uint32 donationId, address recipientAddress)\n        public\n        //assetExists(assetId)\n        //isReceiver(recipientAddress)\n        //assetIsFree(assetId)\n        //isAssetOwner(assetId)\n        //isDonor(msg.sender)\n        whenNotPaused\n    {\n        uint tokenId = donationList[donationId].assetId;\n        safeTransferFrom(msg.sender, recipientAddress, tokenId);\n        donationList[donationId].recipient = recipientAddress;\n        donationList[donationId].status = Status.Donated;\n        emit LogDonated(donationId);\n    }\n\n    function getAssetRequestCount(uint32 donationId)\n        public\n        view\n        returns (uint32)\n    {\n        return donationList[donationId].requestCount;\n    }\n\n    function getDonation(uint32 donationId)\n        public\n        view\n        returns (Donation memory)\n    {\n        return donationList[donationId];\n    }\n}\n",
  "sourcePath": "/home/fatemeh/Desktop/Consensys Course/assetdonation/AssetDonation/contracts/DonateAsset.sol",
  "compiler": {
    "name": "solc",
    "version": "0.6.2+commit.bacdbe57.Emscripten.clang"
  },
  "schemaVersion": "3.3.1",
  "updatedAt": "2020-12-15T00:10:00.880Z",
  "devdoc": {
    "author": "Fatemeh Heidari Soureshjani",
    "details": "time",
    "methods": {
      "addAsset(string,string,uint32,string,string)": {
        "details": "other asset struct members should be added",
        "params": {
          "assetDescription": "Descrption of the asset entered by owner",
          "availablityDate": "the first date the owner can donate the asset",
          "imageIPFSHash": "IPFS hash of the asset image uploaded by owner and saved to IPFS",
          "location": "the location of the donated asset"
        }
      },
      "approve(address,uint256)": {
        "details": "See {IERC721-approve}."
      },
      "balanceOf(address)": {
        "details": "See {IERC721-balanceOf}."
      },
      "baseURI()": {
        "details": "Returns the base URI set via {_setBaseURI}. This will be automatically added as a prefix in {tokenURI} to each token's URI, or to the token ID if no specific URI is set for that token ID."
      },
      "donateAsset(uint32,address)": {
        "details": "change related request's status to approved",
        "params": {
          "donationId": "unique id of donation to be donated",
          "recipientAddress": "donation receiver"
        }
      },
      "getAllDonations()": {
        "details": "There must be better way than returing always an array of 16",
        "returns": {
          "_0": "Asset returns an array of type asset and length 16 of all donations"
        }
      },
      "getApproved(uint256)": {
        "details": "See {IERC721-getApproved}."
      },
      "getDonationsByOwner(uint256)": {
        "details": "There must be better way than returing always an array of 16",
        "returns": {
          "_0": "Asset returns an array of type asset and length 16 of donations of msg.sender"
        }
      },
      "isApprovedForAll(address,address)": {
        "details": "See {IERC721-isApprovedForAll}."
      },
      "mintToken(address)": {
        "params": {
          "assetOwner": "the owner of the new asset"
        },
        "returns": {
          "_0": "returns the id of new minted token"
        }
      },
      "name()": {
        "details": "See {IERC721Metadata-name}."
      },
      "ownerOf(uint256)": {
        "details": "See {IERC721-ownerOf}."
      },
      "safeTransferFrom(address,address,uint256)": {
        "details": "See {IERC721-safeTransferFrom}."
      },
      "safeTransferFrom(address,address,uint256,bytes)": {
        "details": "See {IERC721-safeTransferFrom}."
      },
      "setApprovalForAll(address,bool)": {
        "details": "See {IERC721-setApprovalForAll}."
      },
      "supportsInterface(bytes4)": {
        "details": "See {IERC165-supportsInterface}.     * Time complexity O(1), guaranteed to always use less than 30 000 gas."
      },
      "symbol()": {
        "details": "See {IERC721Metadata-symbol}."
      },
      "tokenByIndex(uint256)": {
        "details": "See {IERC721Enumerable-tokenByIndex}."
      },
      "tokenOfOwnerByIndex(address,uint256)": {
        "details": "See {IERC721Enumerable-tokenOfOwnerByIndex}."
      },
      "tokenURI(uint256)": {
        "details": "See {IERC721Metadata-tokenURI}."
      },
      "totalSupply()": {
        "details": "See {IERC721Enumerable-totalSupply}."
      },
      "transferFrom(address,address,uint256)": {
        "details": "See {IERC721-transferFrom}."
      }
    },
    "title": "A Asset donation smart contract"
  },
  "userdoc": {
    "methods": {
      "addAsset(string,string,uint32,string,string)": {
        "notice": "Adds a new asset to list of donated assets(Should be called by a donor)"
      },
      "donateAsset(uint32,address)": {
        "notice": "a donor can approve a specific request and this function assigns the recipient of this asset to the recipientAddresscaller should be a donor and recipient should be a receiver"
      },
      "getAllDonations()": {
        "notice": "returns all donations"
      },
      "getDonationsByOwner(uint256)": {
        "notice": "Returns all donations of an donor(it shoud be called by a donor)"
      },
      "mintToken(address)": {
        "notice": "The ERC721 stadard for nunfungible token is used to maintain ownership of assetseverytime a new token is minted based on current value of lastAssetId for assetOwner address, and then lastAssetId is increased"
      }
    },
    "notice": "This contract facilitates donation of physical assets for specific periods of time between asset owners and receivers"
  }
}