{
  "contractName": "DonateAsset",
  "abi": [
    {
      "inputs": [
        {
          "internalType": "address",
          "name": "_adm",
          "type": "address"
        }
      ],
      "stateMutability": "nonpayable",
      "type": "constructor"
    },
    {
      "anonymous": false,
      "inputs": [
        {
          "indexed": true,
          "internalType": "address",
          "name": "owner",
          "type": "address"
        },
        {
          "indexed": true,
          "internalType": "address",
          "name": "approved",
          "type": "address"
        },
        {
          "indexed": true,
          "internalType": "uint256",
          "name": "tokenId",
          "type": "uint256"
        }
      ],
      "name": "Approval",
      "type": "event"
    },
    {
      "anonymous": false,
      "inputs": [
        {
          "indexed": true,
          "internalType": "address",
          "name": "owner",
          "type": "address"
        },
        {
          "indexed": true,
          "internalType": "address",
          "name": "operator",
          "type": "address"
        },
        {
          "indexed": false,
          "internalType": "bool",
          "name": "approved",
          "type": "bool"
        }
      ],
      "name": "ApprovalForAll",
      "type": "event"
    },
    {
      "anonymous": false,
      "inputs": [
        {
          "indexed": false,
          "internalType": "uint32",
          "name": "assetId",
          "type": "uint32"
        }
      ],
      "name": "LogDonated",
      "type": "event"
    },
    {
      "anonymous": false,
      "inputs": [
        {
          "indexed": false,
          "internalType": "uint32",
          "name": "assetId",
          "type": "uint32"
        }
      ],
      "name": "LogFree",
      "type": "event"
    },
    {
      "anonymous": false,
      "inputs": [
        {
          "indexed": true,
          "internalType": "address",
          "name": "from",
          "type": "address"
        },
        {
          "indexed": true,
          "internalType": "address",
          "name": "to",
          "type": "address"
        },
        {
          "indexed": true,
          "internalType": "uint256",
          "name": "tokenId",
          "type": "uint256"
        }
      ],
      "name": "Transfer",
      "type": "event"
    },
    {
      "inputs": [
        {
          "internalType": "uint256",
          "name": "",
          "type": "uint256"
        }
      ],
      "name": "AssetList",
      "outputs": [
        {
          "internalType": "string",
          "name": "assetTitle",
          "type": "string"
        },
        {
          "internalType": "string",
          "name": "assetDescription",
          "type": "string"
        },
        {
          "internalType": "uint32",
          "name": "availablityDate",
          "type": "uint32"
        },
        {
          "internalType": "string",
          "name": "location",
          "type": "string"
        },
        {
          "internalType": "address",
          "name": "owner",
          "type": "address"
        },
        {
          "internalType": "string",
          "name": "imageIPFSHash",
          "type": "string"
        }
      ],
      "stateMutability": "view",
      "type": "function"
    },
    {
      "inputs": [
        {
          "internalType": "address",
          "name": "to",
          "type": "address"
        },
        {
          "internalType": "uint256",
          "name": "tokenId",
          "type": "uint256"
        }
      ],
      "name": "approve",
      "outputs": [],
      "stateMutability": "nonpayable",
      "type": "function"
    },
    {
      "inputs": [
        {
          "internalType": "address",
          "name": "owner",
          "type": "address"
        }
      ],
      "name": "balanceOf",
      "outputs": [
        {
          "internalType": "uint256",
          "name": "",
          "type": "uint256"
        }
      ],
      "stateMutability": "view",
      "type": "function"
    },
    {
      "inputs": [],
      "name": "baseURI",
      "outputs": [
        {
          "internalType": "string",
          "name": "",
          "type": "string"
        }
      ],
      "stateMutability": "view",
      "type": "function"
    },
    {
      "inputs": [
        {
          "internalType": "uint32",
          "name": "",
          "type": "uint32"
        }
      ],
      "name": "donationList",
      "outputs": [
        {
          "internalType": "uint32",
          "name": "donationId",
          "type": "uint32"
        },
        {
          "internalType": "uint256",
          "name": "assetId",
          "type": "uint256"
        },
        {
          "internalType": "uint32",
          "name": "availablityDate",
          "type": "uint32"
        },
        {
          "internalType": "string",
          "name": "location",
          "type": "string"
        },
        {
          "internalType": "enum DonateAsset.Status",
          "name": "status",
          "type": "uint8"
        },
        {
          "internalType": "address",
          "name": "owner",
          "type": "address"
        },
        {
          "internalType": "address",
          "name": "recipient",
          "type": "address"
        },
        {
          "internalType": "uint32",
          "name": "requestCount",
          "type": "uint32"
        }
      ],
      "stateMutability": "view",
      "type": "function"
    },
    {
      "inputs": [
        {
          "internalType": "uint256",
          "name": "tokenId",
          "type": "uint256"
        }
      ],
      "name": "getApproved",
      "outputs": [
        {
          "internalType": "address",
          "name": "",
          "type": "address"
        }
      ],
      "stateMutability": "view",
      "type": "function"
    },
    {
      "inputs": [
        {
          "internalType": "address",
          "name": "owner",
          "type": "address"
        },
        {
          "internalType": "address",
          "name": "operator",
          "type": "address"
        }
      ],
      "name": "isApprovedForAll",
      "outputs": [
        {
          "internalType": "bool",
          "name": "",
          "type": "bool"
        }
      ],
      "stateMutability": "view",
      "type": "function"
    },
    {
      "inputs": [],
      "name": "name",
      "outputs": [
        {
          "internalType": "string",
          "name": "",
          "type": "string"
        }
      ],
      "stateMutability": "view",
      "type": "function"
    },
    {
      "inputs": [
        {
          "internalType": "uint256",
          "name": "tokenId",
          "type": "uint256"
        }
      ],
      "name": "ownerOf",
      "outputs": [
        {
          "internalType": "address",
          "name": "",
          "type": "address"
        }
      ],
      "stateMutability": "view",
      "type": "function"
    },
    {
      "inputs": [
        {
          "internalType": "address",
          "name": "from",
          "type": "address"
        },
        {
          "internalType": "address",
          "name": "to",
          "type": "address"
        },
        {
          "internalType": "uint256",
          "name": "tokenId",
          "type": "uint256"
        }
      ],
      "name": "safeTransferFrom",
      "outputs": [],
      "stateMutability": "nonpayable",
      "type": "function"
    },
    {
      "inputs": [
        {
          "internalType": "address",
          "name": "from",
          "type": "address"
        },
        {
          "internalType": "address",
          "name": "to",
          "type": "address"
        },
        {
          "internalType": "uint256",
          "name": "tokenId",
          "type": "uint256"
        },
        {
          "internalType": "bytes",
          "name": "_data",
          "type": "bytes"
        }
      ],
      "name": "safeTransferFrom",
      "outputs": [],
      "stateMutability": "nonpayable",
      "type": "function"
    },
    {
      "inputs": [
        {
          "internalType": "address",
          "name": "operator",
          "type": "address"
        },
        {
          "internalType": "bool",
          "name": "approved",
          "type": "bool"
        }
      ],
      "name": "setApprovalForAll",
      "outputs": [],
      "stateMutability": "nonpayable",
      "type": "function"
    },
    {
      "inputs": [
        {
          "internalType": "bytes4",
          "name": "interfaceId",
          "type": "bytes4"
        }
      ],
      "name": "supportsInterface",
      "outputs": [
        {
          "internalType": "bool",
          "name": "",
          "type": "bool"
        }
      ],
      "stateMutability": "view",
      "type": "function"
    },
    {
      "inputs": [],
      "name": "symbol",
      "outputs": [
        {
          "internalType": "string",
          "name": "",
          "type": "string"
        }
      ],
      "stateMutability": "view",
      "type": "function"
    },
    {
      "inputs": [
        {
          "internalType": "uint256",
          "name": "index",
          "type": "uint256"
        }
      ],
      "name": "tokenByIndex",
      "outputs": [
        {
          "internalType": "uint256",
          "name": "",
          "type": "uint256"
        }
      ],
      "stateMutability": "view",
      "type": "function"
    },
    {
      "inputs": [
        {
          "internalType": "address",
          "name": "owner",
          "type": "address"
        },
        {
          "internalType": "uint256",
          "name": "index",
          "type": "uint256"
        }
      ],
      "name": "tokenOfOwnerByIndex",
      "outputs": [
        {
          "internalType": "uint256",
          "name": "",
          "type": "uint256"
        }
      ],
      "stateMutability": "view",
      "type": "function"
    },
    {
      "inputs": [
        {
          "internalType": "uint256",
          "name": "tokenId",
          "type": "uint256"
        }
      ],
      "name": "tokenURI",
      "outputs": [
        {
          "internalType": "string",
          "name": "",
          "type": "string"
        }
      ],
      "stateMutability": "view",
      "type": "function"
    },
    {
      "inputs": [],
      "name": "totalSupply",
      "outputs": [
        {
          "internalType": "uint256",
          "name": "",
          "type": "uint256"
        }
      ],
      "stateMutability": "view",
      "type": "function"
    },
    {
      "inputs": [
        {
          "internalType": "address",
          "name": "from",
          "type": "address"
        },
        {
          "internalType": "address",
          "name": "to",
          "type": "address"
        },
        {
          "internalType": "uint256",
          "name": "tokenId",
          "type": "uint256"
        }
      ],
      "name": "transferFrom",
      "outputs": [],
      "stateMutability": "nonpayable",
      "type": "function"
    },
    {
      "inputs": [
        {
          "components": [
            {
              "internalType": "uint32",
              "name": "donationId",
              "type": "uint32"
            },
            {
              "internalType": "uint256",
              "name": "assetId",
              "type": "uint256"
            },
            {
              "internalType": "uint32",
              "name": "availablityDate",
              "type": "uint32"
            },
            {
              "internalType": "string",
              "name": "location",
              "type": "string"
            },
            {
              "internalType": "enum DonateAsset.Status",
              "name": "status",
              "type": "uint8"
            },
            {
              "internalType": "address",
              "name": "owner",
              "type": "address"
            },
            {
              "internalType": "address",
              "name": "recipient",
              "type": "address"
            },
            {
              "internalType": "uint32",
              "name": "requestCount",
              "type": "uint32"
            }
          ],
          "internalType": "struct DonateAsset.Donation",
          "name": "donation",
          "type": "tuple"
        },
        {
          "internalType": "uint32",
          "name": "donationId",
          "type": "uint32"
        }
      ],
      "name": "UpdateDonation",
      "outputs": [],
      "stateMutability": "nonpayable",
      "type": "function"
    },
    {
      "inputs": [
        {
          "internalType": "string",
          "name": "assetTitle",
          "type": "string"
        },
        {
          "internalType": "string",
          "name": "assetDescription",
          "type": "string"
        },
        {
          "internalType": "uint32",
          "name": "availablityDate",
          "type": "uint32"
        },
        {
          "internalType": "string",
          "name": "location",
          "type": "string"
        },
        {
          "internalType": "string",
          "name": "imageIPFSHash",
          "type": "string"
        }
      ],
      "name": "addAsset",
      "outputs": [],
      "stateMutability": "nonpayable",
      "type": "function"
    },
    {
      "inputs": [
        {
          "internalType": "uint256",
          "name": "pageNo",
          "type": "uint256"
        }
      ],
      "name": "getDonationsByOwner",
      "outputs": [
        {
          "components": [
            {
              "internalType": "uint32",
              "name": "donationId",
              "type": "uint32"
            },
            {
              "internalType": "uint256",
              "name": "assetId",
              "type": "uint256"
            },
            {
              "internalType": "uint32",
              "name": "availablityDate",
              "type": "uint32"
            },
            {
              "internalType": "string",
              "name": "location",
              "type": "string"
            },
            {
              "internalType": "enum DonateAsset.Status",
              "name": "status",
              "type": "uint8"
            },
            {
              "internalType": "address",
              "name": "owner",
              "type": "address"
            },
            {
              "internalType": "address",
              "name": "recipient",
              "type": "address"
            },
            {
              "internalType": "uint32",
              "name": "requestCount",
              "type": "uint32"
            }
          ],
          "internalType": "struct DonateAsset.Donation[8]",
          "name": "",
          "type": "tuple[8]"
        }
      ],
      "stateMutability": "view",
      "type": "function"
    },
    {
      "inputs": [],
      "name": "getAllDonations",
      "outputs": [
        {
          "components": [
            {
              "internalType": "uint32",
              "name": "donationId",
              "type": "uint32"
            },
            {
              "internalType": "uint256",
              "name": "assetId",
              "type": "uint256"
            },
            {
              "internalType": "uint32",
              "name": "availablityDate",
              "type": "uint32"
            },
            {
              "internalType": "string",
              "name": "location",
              "type": "string"
            },
            {
              "internalType": "enum DonateAsset.Status",
              "name": "status",
              "type": "uint8"
            },
            {
              "internalType": "address",
              "name": "owner",
              "type": "address"
            },
            {
              "internalType": "address",
              "name": "recipient",
              "type": "address"
            },
            {
              "internalType": "uint32",
              "name": "requestCount",
              "type": "uint32"
            }
          ],
          "internalType": "struct DonateAsset.Donation[16]",
          "name": "",
          "type": "tuple[16]"
        }
      ],
      "stateMutability": "view",
      "type": "function"
    },
    {
      "inputs": [
        {
          "internalType": "address",
          "name": "assetOwner",
          "type": "address"
        }
      ],
      "name": "mintToken",
      "outputs": [
        {
          "internalType": "uint32",
          "name": "",
          "type": "uint32"
        }
      ],
      "stateMutability": "nonpayable",
      "type": "function"
    },
    {
      "inputs": [
        {
          "internalType": "uint32",
          "name": "donationId",
          "type": "uint32"
        },
        {
          "internalType": "uint256",
          "name": "assetId",
          "type": "uint256"
        },
        {
          "internalType": "address",
          "name": "recipientAddress",
          "type": "address"
        }
      ],
      "name": "donateAsset",
      "outputs": [],
      "stateMutability": "nonpayable",
      "type": "function"
    },
    {
      "inputs": [
        {
          "internalType": "uint32",
          "name": "donationId",
          "type": "uint32"
        }
      ],
      "name": "getDonationRequestCount",
      "outputs": [
        {
          "internalType": "uint32",
          "name": "",
          "type": "uint32"
        }
      ],
      "stateMutability": "view",
      "type": "function"
    },
    {
      "inputs": [
        {
          "internalType": "uint32",
          "name": "donationId",
          "type": "uint32"
        }
      ],
      "name": "getDonation",
      "outputs": [
        {
          "components": [
            {
              "internalType": "uint32",
              "name": "donationId",
              "type": "uint32"
            },
            {
              "internalType": "uint256",
              "name": "assetId",
              "type": "uint256"
            },
            {
              "internalType": "uint32",
              "name": "availablityDate",
              "type": "uint32"
            },
            {
              "internalType": "string",
              "name": "location",
              "type": "string"
            },
            {
              "internalType": "enum DonateAsset.Status",
              "name": "status",
              "type": "uint8"
            },
            {
              "internalType": "address",
              "name": "owner",
              "type": "address"
            },
            {
              "internalType": "address",
              "name": "recipient",
              "type": "address"
            },
            {
              "internalType": "uint32",
              "name": "requestCount",
              "type": "uint32"
            }
          ],
          "internalType": "struct DonateAsset.Donation",
          "name": "",
          "type": "tuple"
        }
      ],
      "stateMutability": "view",
      "type": "function"
    },
    {
      "inputs": [
        {
          "internalType": "uint256",
          "name": "assetId",
          "type": "uint256"
        }
      ],
      "name": "getAsset",
      "outputs": [
        {
          "components": [
            {
              "internalType": "string",
              "name": "assetTitle",
              "type": "string"
            },
            {
              "internalType": "string",
              "name": "assetDescription",
              "type": "string"
            },
            {
              "internalType": "uint32",
              "name": "availablityDate",
              "type": "uint32"
            },
            {
              "internalType": "string",
              "name": "location",
              "type": "string"
            },
            {
              "internalType": "address",
              "name": "owner",
              "type": "address"
            },
            {
              "internalType": "string",
              "name": "imageIPFSHash",
              "type": "string"
            }
          ],
          "internalType": "struct DonateAsset.Asset",
          "name": "",
          "type": "tuple"
        }
      ],
      "stateMutability": "view",
      "type": "function"
    }
  ],
  "bytecode": "0x60806040523480156200001157600080fd5b5060405162003a4138038062003a4183398101604081905262000034916200023a565b604080518082018252600781526626bcaa37b5b2b760c91b602080830191909152825180840190935260038352624d545360e81b9083015290620000886301ffc9a760e01b6001600160e01b036200013a16565b81516200009d90600690602085019062000195565b508051620000b390600790602084019062000195565b50620000cf6380ac58cd60e01b6001600160e01b036200013a16565b620000ea635b5e139f60e01b6001600160e01b036200013a16565b6200010563780e9d6360e01b6001600160e01b036200013a16565b5050600a80546001600160a01b0319166001600160a01b039290921691909117600160a01b600160e01b0319169055620002a1565b6001600160e01b03198082161415620001705760405162461bcd60e51b815260040162000167906200026a565b60405180910390fd5b6001600160e01b0319166000908152602081905260409020805460ff19166001179055565b828054600181600116156101000203166002900490600052602060002090601f016020900481019282601f10620001d857805160ff191683800117855562000208565b8280016001018555821562000208579182015b8281111562000208578251825591602001919060010190620001eb565b50620002169291506200021a565b5090565b6200023791905b8082111562000216576000815560010162000221565b90565b6000602082840312156200024c578081fd5b81516001600160a01b038116811462000263578182fd5b9392505050565b6020808252601c908201527f4552433136353a20696e76616c696420696e7465726661636520696400000000604082015260600190565b61379080620002b16000396000f3fe608060405234801561001057600080fd5b50600436106101545760003560e01c806301173a741461015957806301ffc9a71461018257806306fdde03146101a2578063081812fc146101b7578063095ea7b3146101d7578063098eb3d3146101ec57806318160ddd146101ff57806323b872dd14610214578063247f0542146102275780632f745c59146102475780633274e1581461025a57806338a59a071461026d57806342842e0e146102825780634bb0eaaf146102955780634f6ccce7146102bc57806355e2bf10146102cf5780636352211e146102f45780636c0360eb1461030757806370a082311461030f578063718841361461032257806395d89b4114610342578063a22cb4651461034a578063b88d4fde1461035d578063c18782b414610370578063c87b56dd14610383578063cac78d8514610396578063e985e9c5146103a9578063eac8f5b8146103bc575b600080fd5b61016c6101673660046128c6565b6103dc565b60405161017991906135c0565b60405180910390f35b610195610190366004612a39565b6104eb565b6040516101799190612f36565b6101aa61050a565b6040516101799190612f41565b6101ca6101c5366004612c6f565b6105a1565b6040516101799190612e55565b6101ea6101e53660046129f3565b6105e4565b005b6101ea6101fa366004612ca3565b61067c565b6102076107ab565b60405161017991906135b7565b6101ea610222366004612915565b6107bc565b61023a610235366004612c6f565b6107f4565b6040516101799190612ef4565b6102076102553660046129f3565b610ab8565b6101ea610268366004612b2d565b610ae9565b610275610ba3565b6040516101799190612ea6565b6101ea610290366004612915565b610d55565b6102a86102a3366004612c87565b610d70565b6040516101799897969594939291906135d1565b6102076102ca366004612c6f565b610e5e565b6102e26102dd366004612c6f565b610e7a565b60405161017996959493929190612f54565b6101ca610302366004612c6f565b6110f9565b6101aa611127565b61020761031d3660046128c6565b611188565b610335610330366004612c87565b6111d1565b60405161017991906135a4565b6101aa611311565b6101ea6103583660046129bc565b611372565b6101ea61036b366004612955565b611440565b61016c61037e366004612c87565b61147f565b6101aa610391366004612c6f565b6114a4565b6101ea6103a4366004612a71565b6115ee565b6101956103b73660046128e1565b6119ae565b6103cf6103ca366004612c6f565b6119dc565b604051610179919061350e565b600a54604080516309d2f83f60e41b815290516000926001600160a01b031691639d2f83f091600480830192602092919082900301818787803b15801561042257600080fd5b505af1158015610436573d6000803e3d6000fd5b505050506040513d601f19601f8201168201806040525061045a9190810190612a1d565b156104805760405162461bcd60e51b815260040161047790613331565b60405180910390fd5b600a5461049b908390600160a01b900463ffffffff16611c80565b600a54600160a01b900463ffffffff166104be6104b9826001611c9e565b611cc3565b600a805463ffffffff92909216600160a01b0263ffffffff60a01b1990921691909117905590505b919050565b6001600160e01b03191660009081526020819052604090205460ff1690565b60068054604080516020601f60026000196101006001881615020190951694909404938401819004810282018101909252828152606093909290918301828280156105965780601f1061056b57610100808354040283529160200191610596565b820191906000526020600020905b81548152906001019060200180831161057957829003601f168201915b505050505090505b90565b60006105ac82611cec565b6105c85760405162461bcd60e51b8152600401610477906132e5565b506000908152600460205260409020546001600160a01b031690565b60006105ef826110f9565b9050806001600160a01b0316836001600160a01b031614156106235760405162461bcd60e51b8152600401610477906133ff565b806001600160a01b0316610635611cff565b6001600160a01b031614806106515750610651816103b7611cff565b61066d5760405162461bcd60e51b81526004016104779061318b565b6106778383611d03565b505050565b600a60009054906101000a90046001600160a01b03166001600160a01b0316639d2f83f06040518163ffffffff1660e01b8152600401602060405180830381600087803b1580156106cc57600080fd5b505af11580156106e0573d6000803e3d6000fd5b505050506040513d601f19601f820116820180604052506107049190810190612a1d565b156107215760405162461bcd60e51b815260040161047790613331565b61072c338284610d55565b63ffffffff83166000908152600b6020526040908190206005810180546001600160a01b0385166001600160a01b0319909116179055600401805460ff19166002179055517f9869ee1482368b4ea48cb13a191ba8022b944e7785dbe1804c4e4c11ed347dd19061079e9085906135c0565b60405180910390a1505050565b60006107b76002611d71565b905090565b6107cd6107c7611cff565b82611d7c565b6107e95760405162461bcd60e51b815260040161047790613440565b610677838383611e01565b6107fc612694565b6108046126c2565b600a546040516396c5904360e01b81526001600160a01b03909116906396c5904390610834903390600401612e55565b60606040518083038186803b15801561084c57600080fd5b505afa158015610860573d6000803e3d6000fd5b505050506040513d601f19601f820116820180604052506108849190810190612c1a565b604081015190915063ffffffff16600061089f856008611f0f565b905060006108ad8383611f49565b90506000806108ba612694565b60088410156108cb578392506108d0565b600892505b60006108dc8685611c9e565b905060006108e987611cc3565b90505b600a5463ffffffff600160c01b90910481169082161015610aa75763ffffffff81166000908152600b602052604090206004015461010090046001600160a01b0316331415610a8c5763ffffffff8181166000908152600b60209081526040918290208251610100808201855282548616825260018084015483860152600280850154909716838701526003840180548751928116159093026000190190921696909604601f81018590048502870185019095528486529094919360608601938301828280156109fd5780601f106109d2576101008083540402835291602001916109fd565b820191906000526020600020905b8154815290600101906020018083116109e057829003601f168201915b505050918352505060048281015460209092019160ff1690811115610a1e57fe5b6004811115610a2957fe5b815260048201546001600160a01b0361010090910481166020830152600590920154918216604082015263ffffffff600160a01b90920482166060909101528490610a769087168a611f49565b60088110610a8057fe5b60200201526001909301925b818463ffffffff161415610a9f57610aa7565b6001016108ec565b5081985050505050505050506104e6565b6001600160a01b0382166000908152600160205260408120610ae0908363ffffffff611f8b16565b90505b92915050565b63ffffffff81166000908152600b6020526040902060049081015460ff1690811115610b1157fe5b82608001516004811115610b2157fe5b1115610b6557608082015163ffffffff82166000908152600b6020526040902060049081018054909160ff19909116906001908490811115610b5f57fe5b02179055505b60e0919091015163ffffffff9182166000908152600b60205260409020600501805463ffffffff60a01b1916600160a01b9390921692909202179055565b610bab6126e2565b6000610bb56126e2565b600a546010600160a01b90910463ffffffff1611610be457600a54600160c01b900463ffffffff169150610be9565b601091505b60005b8263ffffffff168163ffffffff161015610d4e5763ffffffff8181166000908152600b60209081526040918290208251610100808201855282548616825260018084015483860152600280850154909716838701526003840180548751928116159093026000190190921696909604601f8101859004850287018501909552848652909491936060860193830182828015610cc85780601f10610c9d57610100808354040283529160200191610cc8565b820191906000526020600020905b815481529060010190602001808311610cab57829003601f168201915b505050918352505060048281015460209092019160ff1690811115610ce957fe5b6004811115610cf457fe5b815260048201546001600160a01b0361010090910481166020830152600590920154918216604082015263ffffffff600160a01b90920482166060909101528390831660108110610d4157fe5b6020020152600101610bec565b5091505090565b61067783838360405180602001604052806000815250611440565b600b60209081526000918252604091829020805460018083015460028085015460038601805489516101009682161596909602600019011692909204601f810188900488028501880190985287845263ffffffff94851697929694169493909190830182828015610e225780601f10610df757610100808354040283529160200191610e22565b820191906000526020600020905b815481529060010190602001808311610e0557829003601f168201915b505050506004830154600590930154919260ff8116926101009091046001600160a01b039081169250811690600160a01b900463ffffffff1688565b600080610e7260028463ffffffff611f9716565b509392505050565b600c6020908152600091825260409182902080548351601f60026000196101006001861615020190931692909204918201849004840281018401909452808452909291839190830182828015610f115780601f10610ee657610100808354040283529160200191610f11565b820191906000526020600020905b815481529060010190602001808311610ef457829003601f168201915b505050505090806001018054600181600116156101000203166002900480601f016020809104026020016040519081016040528092919081815260200182805460018160011615610100020316600290048015610faf5780601f10610f8457610100808354040283529160200191610faf565b820191906000526020600020905b815481529060010190602001808311610f9257829003601f168201915b505050506002838101546003850180546040805160206101006001851615026000190190931695909504601f8101839004830286018301909152808552959663ffffffff9093169592945090919083018282801561104e5780601f106110235761010080835404028352916020019161104e565b820191906000526020600020905b81548152906001019060200180831161103157829003601f168201915b50505050600483015460058401805460408051602060026101006001861615026000190190941693909304601f810184900484028201840190925281815295966001600160a01b0390941695939450908301828280156110ef5780601f106110c4576101008083540402835291602001916110ef565b820191906000526020600020905b8154815290600101906020018083116110d257829003601f168201915b5050505050905086565b6000610ae382604051806060016040528060298152602001613712602991396002919063ffffffff611fb316565b60098054604080516020601f60026000196101006001881615020190951694909404938401819004810282018101909252828152606093909290918301828280156105965780601f1061056b57610100808354040283529160200191610596565b60006001600160a01b0382166111b05760405162461bcd60e51b8152600401610477906131e3565b6001600160a01b0382166000908152600160205260409020610ae390611d71565b6111d9612710565b63ffffffff8281166000908152600b60209081526040918290208251610100808201855282548616825260018084015483860152600280850154909716838701526003840180548751928116159093026000190190921696909604601f81018590048502870185019095528486529094919360608601938301828280156112a15780601f10611276576101008083540402835291602001916112a1565b820191906000526020600020905b81548152906001019060200180831161128457829003601f168201915b505050918352505060048281015460209092019160ff16908111156112c257fe5b60048111156112cd57fe5b8152600482015461010090046001600160a01b0390811660208301526005909201549182166040820152600160a01b90910463ffffffff1660609091015292915050565b60078054604080516020601f60026000196101006001881615020190951694909404938401819004810282018101909252828152606093909290918301828280156105965780601f1061056b57610100808354040283529160200191610596565b61137a611cff565b6001600160a01b0316826001600160a01b031614156113ab5760405162461bcd60e51b81526004016104779061310c565b80600560006113b8611cff565b6001600160a01b03908116825260208083019390935260409182016000908120918716808252919093529120805460ff1916921515929092179091556113fc611cff565b6001600160a01b03167f17307eab39ab6107e8899845ad3d59bd9653f200f220920489ca2b5937696c31836040516114349190612f36565b60405180910390a35050565b61145161144b611cff565b83611d7c565b61146d5760405162461bcd60e51b815260040161047790613440565b61147984848484611fca565b50505050565b63ffffffff9081166000908152600b6020526040902060050154600160a01b90041690565b60606114af82611cec565b6114cb5760405162461bcd60e51b8152600401610477906133b0565b60008281526008602090815260409182902080548351601f60026000196101006001861615020190931692909204918201849004840281018401909452808452606093928301828280156115605780601f1061153557610100808354040283529160200191611560565b820191906000526020600020905b81548152906001019060200180831161154357829003601f168201915b5050600954939450505050600260001961010060018416150201909116046115895790506104e6565b8051156115bb576009816040516020016115a4929190612dd4565b6040516020818303038152906040529150506104e6565b60096115c684611ffd565b6040516020016115d7929190612dd4565b604051602081830303815290604052915050919050565b600a60009054906101000a90046001600160a01b03166001600160a01b0316639d2f83f06040518163ffffffff1660e01b8152600401602060405180830381600087803b15801561163e57600080fd5b505af1158015611652573d6000803e3d6000fd5b505050506040513d601f19601f820116820180604052506116769190810190612a1d565b156116935760405162461bcd60e51b815260040161047790613331565b600a5460405163095d1a0d60e21b81526001600160a01b03909116906325746834906116c3903390600401612e55565b600060405180830381600087803b1580156116dd57600080fd5b505af11580156116f1573d6000803e3d6000fd5b505050506000611700336103dc565b6040805160c081018252888152602080820189905263ffffffff808916838501526060830188905233608084015260a0830187905284166000908152600c825292909220815180519495509193909261175d928492910190612754565b5060208281015180516117769260018501920190612754565b50604082015160028201805463ffffffff191663ffffffff909216919091179055606082015180516117b2916003840191602090910190612754565b5060808201516004820180546001600160a01b0319166001600160a01b0390921691909117905560a082015180516117f4916005840191602090910190612754565b50506040805161010081018252600a5463ffffffff600160c01b909104811680835285821660208085019182528a8416858701908152606086018b81526000608088018190523360a089015260c0880181905260e08801819052948552600b8352969093208551815490861663ffffffff1991821617825592516001820155925160028401805491909516921691909117909255925180519294506118a29260038501929190910190612754565b5060808201518160040160006101000a81548160ff021916908360048111156118c757fe5b021790555060a0820151600482018054610100600160a81b0319166101006001600160a01b039384160217905560c08301516005909201805460e0909401516001600160a01b0319909416929091169190911763ffffffff60a01b1916600160a01b63ffffffff93841602179055600a5461194f916104b991600160c01b9004166001611c9e565b600a60186101000a81548163ffffffff021916908363ffffffff1602179055507f02be38ab1ac25d38c43ba8eef640edc80bd26853df4de2f92af4fa493699009c8160405161199e91906135c0565b60405180910390a1505050505050565b6001600160a01b03918216600090815260056020908152604080832093909416825291909152205460ff1690565b6119e46127ce565b6000828152600c60209081526040918290208251815460026001821615610100026000190190911604601f8101849004909302810160e090810190945260c08101838152909391928492849190840182828015611a825780601f10611a5757610100808354040283529160200191611a82565b820191906000526020600020905b815481529060010190602001808311611a6557829003601f168201915b50505050508152602001600182018054600181600116156101000203166002900480601f016020809104026020016040519081016040528092919081815260200182805460018160011615610100020316600290048015611b245780601f10611af957610100808354040283529160200191611b24565b820191906000526020600020905b815481529060010190602001808311611b0757829003601f168201915b505050918352505060028281015463ffffffff1660208084019190915260038401805460408051601f60001960018516156101000201909316959095049182018490048402850184018152818552909401939091830182828015611bc95780601f10611b9e57610100808354040283529160200191611bc9565b820191906000526020600020905b815481529060010190602001808311611bac57829003601f168201915b505050918352505060048201546001600160a01b031660208083019190915260058301805460408051601f60026000196001861615610100020190941693909304928301859004850281018501825282815294019392830182828015611c705780601f10611c4557610100808354040283529160200191611c70565b820191906000526020600020905b815481529060010190602001808311611c5357829003601f168201915b5050505050815250509050919050565b611c9a8282604051806020016040528060008152506120c1565b5050565b600082820183811015610ae05760405162461bcd60e51b815260040161047790613093565b6000600160201b8210611ce85760405162461bcd60e51b815260040161047790613491565b5090565b6000610ae360028363ffffffff6120f416565b3390565b600081815260046020526040902080546001600160a01b0319166001600160a01b0384169081179091558190611d38826110f9565b6001600160a01b03167f8c5be1e5ebec7d5bd14f71427d1e84f3dd0314c0f7b2291e5b200ac8c7c3b92560405160405180910390a45050565b6000610ae382612100565b6000611d8782611cec565b611da35760405162461bcd60e51b81526004016104779061313f565b6000611dae836110f9565b9050806001600160a01b0316846001600160a01b03161480611de95750836001600160a01b0316611dde846105a1565b6001600160a01b0316145b80611df95750611df981856119ae565b949350505050565b826001600160a01b0316611e14826110f9565b6001600160a01b031614611e3a5760405162461bcd60e51b815260040161047790613367565b6001600160a01b038216611e605760405162461bcd60e51b8152600401610477906130c8565b611e6b838383610677565b611e76600082611d03565b6001600160a01b0383166000908152600160205260409020611e9e908263ffffffff61210416565b506001600160a01b0382166000908152600160205260409020611ec7908263ffffffff61211016565b50611eda6002828463ffffffff61211c16565b5080826001600160a01b0316846001600160a01b031660008051602061373b83398151915260405160405180910390a4505050565b600082611f1e57506000610ae3565b82820282848281611f2b57fe5b0414610ae05760405162461bcd60e51b8152600401610477906132a4565b6000610ae083836040518060400160405280601e81526020017f536166654d6174683a207375627472616374696f6e206f766572666c6f770000815250612132565b6000610ae0838361215e565b6000808080611fa686866121a3565b9097909650945050505050565b6000611fc08484846121ff565b90505b9392505050565b611fd5848484611e01565b611fe18484848461225e565b6114795760405162461bcd60e51b81526004016104779061300b565b60608161202257506040805180820190915260018152600360fc1b60208201526104e6565b8160005b811561203a57600101600a82049150612026565b6060816040519080825280601f01601f191660200182016040528015612067576020820181803883390190505b50859350905060001982015b83156120b857600a840660300160f81b8282806001900393508151811061209657fe5b60200101906001600160f81b031916908160001a905350600a84049350612073565b50949350505050565b6120cb8383612343565b6120d8600084848461225e565b6106775760405162461bcd60e51b81526004016104779061300b565b6000610ae08383612401565b5490565b6000610ae08383612419565b6000610ae083836124df565b6000611fc084846001600160a01b038516612529565b600081848411156121565760405162461bcd60e51b81526004016104779190612f41565b505050900390565b815460009082106121815760405162461bcd60e51b815260040161047790612fc9565b82600001828154811061219057fe5b9060005260206000200154905092915050565b8154600090819083106121c85760405162461bcd60e51b81526004016104779061322d565b60008460000184815481106121d957fe5b906000526020600020906002020190508060000154816001015492509250509250929050565b6000828152600184016020526040812054828161222f5760405162461bcd60e51b81526004016104779190612f41565b5084600001600182038154811061224257fe5b9060005260206000209060020201600101549150509392505050565b6000612272846001600160a01b03166125c0565b61227e57506001611df9565b606061230c630a85bd0160e11b612293611cff565b8887876040516024016122a99493929190612e69565b604051602081830303815290604052906001600160e01b0319166020820180516001600160e01b0383818316178352505050506040518060600160405280603281526020016136e0603291396001600160a01b038816919063ffffffff6125c616565b90506000818060200190516123249190810190612a55565b6001600160e01b031916630a85bd0160e11b1492505050949350505050565b6001600160a01b0382166123695760405162461bcd60e51b81526004016104779061326f565b61237281611cec565b1561238f5760405162461bcd60e51b81526004016104779061305d565b61239b60008383610677565b6001600160a01b03821660009081526001602052604090206123c3908263ffffffff61211016565b506123d66002828463ffffffff61211c16565b5060405181906001600160a01b0384169060009060008051602061373b833981519152908290a45050565b60009081526001919091016020526040902054151590565b600081815260018301602052604081205480156124d5578354600019808301919081019060009087908390811061244c57fe5b906000526020600020015490508087600001848154811061246957fe5b60009182526020808320909101929092558281526001898101909252604090209084019055865487908061249957fe5b60019003818190600052602060002001600090559055866001016000878152602001908152602001600020600090556001945050505050610ae3565b6000915050610ae3565b60006124eb8383612401565b61252157508154600181810184556000848152602080822090930184905584548482528286019093526040902091909155610ae3565b506000610ae3565b60008281526001840160205260408120548061258e575050604080518082018252838152602080820184815286546001818101895560008981528481209551600290930290950191825591519082015586548684528188019092529290912055611fc3565b828560000160018303815481106125a157fe5b9060005260206000209060020201600101819055506000915050611fc3565b3b151590565b6060611fc0848460008560606125db856125c0565b6125f75760405162461bcd60e51b8152600401610477906134d7565b60006060866001600160a01b031685876040516126149190612db8565b60006040518083038185875af1925050503d8060008114612651576040519150601f19603f3d011682016040523d82523d6000602084013e612656565b606091505b5091509150811561266a579150611df99050565b80511561267a5780518082602001fd5b8360405162461bcd60e51b81526004016104779190612f41565b6040518061010001604052806008905b6126ac612710565b8152602001906001900390816126a45790505090565b604080516060810182526000808252602082018190529181019190915290565b6040518061020001604052806010905b6126fa612710565b8152602001906001900390816126f25790505090565b604080516101008101825260008082526020820181905291810182905260608082015290608082019081526000602082018190526040820181905260609091015290565b828054600181600116156101000203166002900490600052602060002090601f016020900481019282601f1061279557805160ff19168380011785556127c2565b828001600101855582156127c2579182015b828111156127c25782518255916020019190600101906127a7565b50611ce8929150612813565b6040518060c001604052806060815260200160608152602001600063ffffffff1681526020016060815260200160006001600160a01b03168152602001606081525090565b61059e91905b80821115611ce85760008155600101612819565b80356001600160a01b0381168114610ae357600080fd5b600082601f830112612854578081fd5b81356001600160401b03811115612869578182fd5b61287c601f8201601f191660200161363f565b915080825283602082850101111561289357600080fd5b8060208401602084013760009082016020015292915050565b803560058110610ae357600080fd5b8035610ae3816136cd565b6000602082840312156128d7578081fd5b610ae0838361282d565b600080604083850312156128f3578081fd5b6128fd848461282d565b915061290c846020850161282d565b90509250929050565b600080600060608486031215612929578081fd5b833561293481613691565b9250602084013561294481613691565b929592945050506040919091013590565b6000806000806080858703121561296a578081fd5b612974868661282d565b9350612983866020870161282d565b92506040850135915060608501356001600160401b038111156129a4578182fd5b6129b087828801612844565b91505092959194509250565b600080604083850312156129ce578182fd5b6129d8848461282d565b915060208301356129e8816136a9565b809150509250929050565b60008060408385031215612a05578182fd5b612a0f848461282d565b946020939093013593505050565b600060208284031215612a2e578081fd5b8151610ae0816136a9565b600060208284031215612a4a578081fd5b8135610ae0816136b7565b600060208284031215612a66578081fd5b8151610ae0816136b7565b600080600080600060a08688031215612a88578283fd5b85356001600160401b0380821115612a9e578485fd5b612aaa89838a01612844565b96506020880135915080821115612abf578485fd5b612acb89838a01612844565b955060408801359150612add826136cd565b90935060608701359080821115612af2578283fd5b612afe89838a01612844565b93506080880135915080821115612b13578283fd5b50612b2088828901612844565b9150509295509295909350565b60008060408385031215612b3f578182fd5b82356001600160401b0380821115612b55578384fd5b610100918501808703831315612b69578485fd5b612b728361363f565b612b7c88836128bb565b815260208201356020820152612b9588604084016128bb565b60408201526060820135935082841115612bad578586fd5b612bb988858401612844565b6060820152612bcb88608084016128ac565b6080820152612bdd8860a0840161282d565b60a0820152612bef8860c0840161282d565b60c0820152612c018860e084016128bb565b60e08201528095505050505061290c84602085016128bb565b600060608284031215612c2b578081fd5b612c35606061363f565b8251612c40816136a9565b81526020830151612c50816136a9565b60208201526040830151612c63816136cd565b60408201529392505050565b600060208284031215612c80578081fd5b5035919050565b600060208284031215612c98578081fd5b8135610ae0816136cd565b600080600060608486031215612cb7578081fd5b8335612cc2816136cd565b925060208401359150612cd8856040860161282d565b90509250925092565b60008151808452612cf9816020860160208601613665565b601f01601f19169290920160200192915050565b60058110612d1757fe5b9052565b600061010063ffffffff80845116855260208401516020860152806040850151166040860152506060830151816060860152612d5982860182612ce1565b60808501519250612d6d6080870184612d0d565b60a0850151925060018060a01b03915081831660a08701528160c08601511660c087015260e08501519250612da560e0870184612dae565b95945050505050565b63ffffffff169052565b60008251612dca818460208701613665565b9190910192915050565b6000808454600180821660008114612df35760018114612e0a57612e39565b60ff198316865260028304607f1686019350612e39565b600283048886526020808720875b83811015612e315781548a820152908501908201612e18565b505050860193505b5050508351612e4c818360208801613665565b01949350505050565b6001600160a01b0391909116815260200190565b6001600160a01b0385811682528416602082015260408101839052608060608201819052600090612e9c90830184612ce1565b9695505050505050565b6020808252600090610220830183820185845b6010811015612ee857601f19878503018352612ed6848351612d1b565b93509184019190840190600101612eb9565b50919695505050505050565b6020808252600090610120830183820185845b6008811015612ee857601f19878503018352612f24848351612d1b565b93509184019190840190600101612f07565b901515815260200190565b600060208252610ae06020830184612ce1565b600060c08252612f6760c0830189612ce1565b8281036020840152612f798189612ce1565b63ffffffff881660408501528381036060850152612f978188612ce1565b6001600160a01b038716608086015284810360a08601529150612fbc90508185612ce1565b9998505050505050505050565b60208082526022908201527f456e756d657261626c655365743a20696e646578206f7574206f6620626f756e604082015261647360f01b606082015260800190565b60208082526032908201527f4552433732313a207472616e7366657220746f206e6f6e20455243373231526560408201527131b2b4bb32b91034b6b83632b6b2b73a32b960711b606082015260800190565b6020808252601c908201527b115490cdcc8c4e881d1bdad95b88185b1c9958591e481b5a5b9d195960221b604082015260600190565b6020808252601b908201527a536166654d6174683a206164646974696f6e206f766572666c6f7760281b604082015260600190565b60208082526024908201527f4552433732313a207472616e7366657220746f20746865207a65726f206164646040820152637265737360e01b606082015260800190565b60208082526019908201527822a9219b99189d1030b8383937bb32903a379031b0b63632b960391b604082015260600190565b6020808252602c908201527f4552433732313a206f70657261746f7220717565727920666f72206e6f6e657860408201526b34b9ba32b73a103a37b5b2b760a11b606082015260800190565b60208082526038908201527f4552433732313a20617070726f76652063616c6c6572206973206e6f74206f776040820152771b995c881b9bdc88185c1c1c9bdd995908199bdc88185b1b60421b606082015260800190565b6020808252602a908201527f4552433732313a2062616c616e636520717565727920666f7220746865207a65604082015269726f206164647265737360b01b606082015260800190565b60208082526022908201527f456e756d657261626c654d61703a20696e646578206f7574206f6620626f756e604082015261647360f01b606082015260800190565b6020808252818101527f4552433732313a206d696e7420746f20746865207a65726f2061646472657373604082015260600190565b60208082526021908201527f536166654d6174683a206d756c7469706c69636174696f6e206f766572666c6f6040820152607760f81b606082015260800190565b6020808252602c908201527f4552433732313a20617070726f76656420717565727920666f72206e6f6e657860408201526b34b9ba32b73a103a37b5b2b760a11b606082015260800190565b6020808252601c908201527b29bcb9ba32b69034b99034b71032b6b2b933b2b731bc9039ba37b81760211b604082015260600190565b60208082526029908201527f4552433732313a207472616e73666572206f6620746f6b656e2074686174206960408201526839903737ba1037bbb760b91b606082015260800190565b6020808252602f908201527f4552433732314d657461646174613a2055524920717565727920666f72206e6f60408201526e3732bc34b9ba32b73a103a37b5b2b760891b606082015260800190565b60208082526021908201527f4552433732313a20617070726f76616c20746f2063757272656e74206f776e656040820152603960f91b606082015260800190565b60208082526031908201527f4552433732313a207472616e736665722063616c6c6572206973206e6f74206f6040820152701ddb995c881b9bdc88185c1c1c9bdd9959607a1b606082015260800190565b60208082526026908201527f53616665436173743a2076616c756520646f65736e27742066697420696e203360408201526532206269747360d01b606082015260800190565b6020808252601d908201527f416464726573733a2063616c6c20746f206e6f6e2d636f6e7472616374000000604082015260600190565b600060208252825160c0602084015261352a60e0840182612ce1565b60208501519150601f19808583030160408601526135488284612ce1565b63ffffffff604088015116606087015260608701519350818682030160808701526135738185612ce1565b92505060018060a01b0360808701511660a086015260a08601519250808583030160c086015250612da58183612ce1565b600060208252610ae06020830184612d1b565b90815260200190565b63ffffffff91909116815260200190565b600061010063ffffffff808c1684528a6020850152808a1660408501528160608501526136008285018a612ce1565b925061360f6080850189612d0d565b6001600160a01b0396871660a08501529490951660c08301529190921660e0909201919091529695505050505050565b6040518181016001600160401b038111828210171561365d57600080fd5b604052919050565b60005b83811015613680578181015183820152602001613668565b838111156114795750506000910152565b6001600160a01b03811681146136a657600080fd5b50565b80151581146136a657600080fd5b6001600160e01b0319811681146136a657600080fd5b63ffffffff811681146136a657600080fdfe4552433732313a207472616e7366657220746f206e6f6e20455243373231526563656976657220696d706c656d656e7465724552433732313a206f776e657220717565727920666f72206e6f6e6578697374656e7420746f6b656eddf252ad1be2c89b69c2b068fc378daa952ba7f163c4a11628f55a4df523b3efa264697066735822122053b4fba350fbe0dd9abd977286df6b4e851485e85d31ef6b36545aa07e8687e664736f6c63430006020033",
  "source": "pragma solidity ^0.6.2;\npragma experimental ABIEncoderV2;\nstruct donor {\n    bool exists;\n    bool approved;\n    uint32 donationCount;\n}\n\ncontract Administration {\n    function systemPaused() public returns (bool) {}\n\n    function addDonor(address donorAddress) public {}\n\n    function getDonor(address donorAddress)\n        public\n        view\n        returns (donor memory)\n    {}\n}\n\nimport \"@openzeppelin/contracts/token/ERC721/ERC721.sol\";\nimport \"@openzeppelin/contracts/access/AccessControl.sol\";\nimport \"@openzeppelin/contracts/math/SafeMath.sol\";\nimport \"@openzeppelin/contracts/utils/SafeCast.sol\";\n\n/// @title A Asset donation smart contract\n/// @author Fatemeh Heidari Soureshjani\n/// @notice This contract facilitates donation of physical assets for specific periods of time between asset owners and receivers\n/// @dev time\n\ncontract DonateAsset is ERC721 {\n    Administration ADM;\n\n    uint32 lastAssetId;\n    uint32 lastDonationId;\n\n    constructor(address _adm) public ERC721(\"MyToken\", \"MTS\") {\n        ADM = Administration(_adm);\n        lastAssetId = 0;\n        lastDonationId = 0;\n    }\n\n    enum Status {Free, Requested, Donated, Inactive, Burned}\n\n    struct Asset {\n        string assetTitle;\n        string assetDescription;\n        uint32 availablityDate;\n        string location;\n        address owner;\n        string imageIPFSHash;\n    }\n\n    struct Donation {\n        uint32 donationId;\n        uint256 assetId;\n        uint32 availablityDate;\n        string location;\n        Status status;\n        address owner;\n        address recipient;\n        uint32 requestCount;\n    }\n\n    mapping(uint32 => Donation) public donationList;\n    mapping(uint256 => Asset) public AssetList;\n\n    modifier assetIsFree(uint32 donationId) {\n        require(\n            donationList[donationId].recipient == address(0) &&\n                (donationList[donationId].status == Status.Free ||\n                    donationList[donationId].status == Status.Requested),\n            \"Asset is not Free.\"\n        );\n        _;\n    }\n\n    modifier assetExists(uint32 donationId) {\n        require(donationList[donationId].owner != address(0), \"Invalid asset\");\n        _;\n    }\n\n    modifier isAssetOwner(uint256 assetId) {\n        require(ownerOf(assetId) == msg.sender, \"Sender nis ot asset owner.\");\n        _;\n    }\n\n    modifier whenNotPaused() {\n        require(!ADM.systemPaused(), \"System is in emergency stop.\");\n        _;\n    }\n\n    event LogFree(uint32 assetId);\n\n    event LogDonated(uint32 assetId);\n\n    // event LogInactive(uint32 assetId);\n    // event LogIBurned(uint32 assetId);\n\n    function UpdateDonation(Donation memory donation, uint32 donationId)\n        public\n    {\n        if (donation.status > donationList[donationId].status) {\n            donationList[donationId].status = donation.status;\n        }\n        donationList[donationId].requestCount = donation.requestCount;\n    }\n\n    /// @notice Adds a new asset to list of donated assets(Should be called by a donor)\n    /// @dev other asset struct members should be added\n    /// @param assetDescription Descrption of the asset entered by owner\n    /// @param availablityDate the first date the owner can donate the asset\n    /// @param location the location of the donated asset\n    /// @param imageIPFSHash IPFS hash of the asset image uploaded by owner and saved to IPFS\n    function addAsset(\n        string memory assetTitle,\n        string memory assetDescription,\n        uint32 availablityDate,\n        string memory location,\n        string memory imageIPFSHash\n    ) public whenNotPaused {\n        ADM.addDonor(msg.sender);\n        uint32 assetId = mintToken(msg.sender);\n        AssetList[assetId] = Asset({\n            assetTitle: assetTitle,\n            assetDescription: assetDescription,\n            availablityDate: availablityDate,\n            location: location,\n            owner: msg.sender,\n            imageIPFSHash: imageIPFSHash\n        });\n        donationList[lastDonationId] = Donation({\n            donationId:lastDonationId,\n            assetId: assetId,\n            availablityDate: availablityDate,\n            location: location,\n            status: Status.Free,\n            owner: msg.sender,\n            recipient: address(0),\n            requestCount: 0\n        });\n        lastDonationId = SafeCast.toUint32(\n            SafeMath.add(uint256(lastDonationId), 1)\n        );\n        emit LogFree(assetId);\n    }\n\n    /// @notice Returns all donations of an donor(it shoud be called by a donor)\n    /// @dev There must be better way than returing always an array of 16\n    /// @return Asset returns an array of type asset and length 16 of donations of msg.sender\n    function getDonationsByOwner(uint256 pageNo)\n        public\n        view\n        returns (Donation[8] memory)\n    {\n        donor memory d = ADM.getDonor(msg.sender);\n        uint256 donationCount = d.donationCount; //uint(balanceOf(msg.sender)); //donors[msg.sender].donationCount;\n        //uint32 pageNo = donors[msg.sender].pageNo;\n        uint256 nextStart = SafeMath.mul(pageNo, 8); //0\n        uint256 rem = SafeMath.sub(donationCount, nextStart); //1\n        uint256 index = 0;\n        uint32 j = 0;\n        Donation[8] memory _donationList;\n        if (rem < 0) {\n            return _donationList;\n        } else {\n            if ((rem) < 8) {\n                index = rem; //1\n            } else {\n                index = 8;\n            }\n            uint256 loopEnd = SafeMath.add(nextStart, index); //9\n            for (uint32 i = SafeCast.toUint32( nextStart); i < lastDonationId; i++) {\n                if (donationList[i].owner == msg.sender) {\n                    //if (j > nextStart) {\n                        _donationList[SafeMath.sub(\n                            j,\n                            nextStart\n                        )] = donationList[i];\n                        j++;\n                    //} else {\n                    //    j++;\n                    //}\n                }\n                if (j == loopEnd) {\n                    break;\n                }\n            }\n            // for (uint i = nextStart; i < loopEnd; i++) {\n            //     tokenId = uint32(donationOfOwnerByIndex(msg.sender, i));\n            //     assetList[SafeMath.sub(i , nextStart)] = donationList[tokenId];\n            // }\n            return _donationList;\n        }\n    }\n\n    /// @notice returns all donations\n    /// @dev There must be better way than returing always an array of 16\n    /// @return Asset returns an array of type asset and length 16 of all donations\n    function getAllDonations() public view returns (Donation[16] memory) {\n        uint32 index = 0;\n        Donation[16] memory _donationList;\n        if (lastAssetId <= 16) {\n            index = lastDonationId;\n        } else {\n            index = 16;\n        }\n        for (uint32 i = 0; i < index; i++) {\n            _donationList[i] = donationList[i];\n        }\n        return _donationList;\n    }\n\n    /// @notice The ERC721 stadard for nunfungible token is used to maintain ownership of assets\n    /// @notice everytime a new token is minted based on current value of lastAssetId for assetOwner address, and then lastAssetId is increased\n    /// @param assetOwner the owner of the new asset\n    /// @return returns the id of new minted token\n    function mintToken(\n        address assetOwner //isDonor(msg.sender)\n    ) public whenNotPaused returns (uint32) {\n        _safeMint(assetOwner, lastAssetId);\n        uint32 assetId = lastAssetId;\n        lastAssetId = SafeCast.toUint32(SafeMath.add(uint256(lastAssetId), 1));\n        return assetId;\n    }\n\n    /// @notice a donor can approve a specific request and this function assigns the recipient of this asset to the recipientAddress\n    /// @notice caller should be a donor and recipient should be a receiver\n    /// @dev change related request's status to approved\n    /// @param donationId unique id of donation to be donated\n    /// @param recipientAddress donation receiver\n    function donateAsset(\n        uint32 donationId,\n        uint256 assetId,\n        address recipientAddress\n    ) public \n    //assetIsFree(donationId) \n    //isAssetOwner(assetId) \n    whenNotPaused \n    {\n        //uint256 tokenId = donationList[donationId].assetId;\n        safeTransferFrom(msg.sender, recipientAddress, assetId);\n        donationList[donationId].recipient = recipientAddress;\n        donationList[donationId].status = Status.Donated;\n        emit LogDonated(donationId);\n    }\n\n    function getDonationRequestCount(uint32 donationId)\n        public\n        view\n        returns (uint32)\n    {\n        return donationList[donationId].requestCount;\n    }\n\n    function getDonation(uint32 donationId)\n        public\n        view\n        returns (Donation memory)\n    {\n        return donationList[donationId];\n    }\n\n    function getAsset(uint256 assetId) public view returns (Asset memory) {\n        return AssetList[assetId];\n    }\n}\n",
  "sourcePath": "/home/fatemeh/Desktop/Consensys Course/assetdonation/AssetDonation/contracts/DonateAsset.sol",
  "compiler": {
    "name": "solc",
    "version": "0.6.2+commit.bacdbe57.Emscripten.clang"
  },
  "schemaVersion": "3.3.1",
  "updatedAt": "2020-12-15T19:14:44.572Z",
  "devdoc": {
    "author": "Fatemeh Heidari Soureshjani",
    "details": "time",
    "methods": {
      "addAsset(string,string,uint32,string,string)": {
        "details": "other asset struct members should be added",
        "params": {
          "assetDescription": "Descrption of the asset entered by owner",
          "availablityDate": "the first date the owner can donate the asset",
          "imageIPFSHash": "IPFS hash of the asset image uploaded by owner and saved to IPFS",
          "location": "the location of the donated asset"
        }
      },
      "approve(address,uint256)": {
        "details": "See {IERC721-approve}."
      },
      "balanceOf(address)": {
        "details": "See {IERC721-balanceOf}."
      },
      "baseURI()": {
        "details": "Returns the base URI set via {_setBaseURI}. This will be automatically added as a prefix in {tokenURI} to each token's URI, or to the token ID if no specific URI is set for that token ID."
      },
      "donateAsset(uint32,uint256,address)": {
        "details": "change related request's status to approved",
        "params": {
          "donationId": "unique id of donation to be donated",
          "recipientAddress": "donation receiver"
        }
      },
      "getAllDonations()": {
        "details": "There must be better way than returing always an array of 16",
        "returns": {
          "_0": "Asset returns an array of type asset and length 16 of all donations"
        }
      },
      "getApproved(uint256)": {
        "details": "See {IERC721-getApproved}."
      },
      "getDonationsByOwner(uint256)": {
        "details": "There must be better way than returing always an array of 16",
        "returns": {
          "_0": "Asset returns an array of type asset and length 16 of donations of msg.sender"
        }
      },
      "isApprovedForAll(address,address)": {
        "details": "See {IERC721-isApprovedForAll}."
      },
      "mintToken(address)": {
        "params": {
          "assetOwner": "the owner of the new asset"
        },
        "returns": {
          "_0": "returns the id of new minted token"
        }
      },
      "name()": {
        "details": "See {IERC721Metadata-name}."
      },
      "ownerOf(uint256)": {
        "details": "See {IERC721-ownerOf}."
      },
      "safeTransferFrom(address,address,uint256)": {
        "details": "See {IERC721-safeTransferFrom}."
      },
      "safeTransferFrom(address,address,uint256,bytes)": {
        "details": "See {IERC721-safeTransferFrom}."
      },
      "setApprovalForAll(address,bool)": {
        "details": "See {IERC721-setApprovalForAll}."
      },
      "supportsInterface(bytes4)": {
        "details": "See {IERC165-supportsInterface}.     * Time complexity O(1), guaranteed to always use less than 30 000 gas."
      },
      "symbol()": {
        "details": "See {IERC721Metadata-symbol}."
      },
      "tokenByIndex(uint256)": {
        "details": "See {IERC721Enumerable-tokenByIndex}."
      },
      "tokenOfOwnerByIndex(address,uint256)": {
        "details": "See {IERC721Enumerable-tokenOfOwnerByIndex}."
      },
      "tokenURI(uint256)": {
        "details": "See {IERC721Metadata-tokenURI}."
      },
      "totalSupply()": {
        "details": "See {IERC721Enumerable-totalSupply}."
      },
      "transferFrom(address,address,uint256)": {
        "details": "See {IERC721-transferFrom}."
      }
    },
    "title": "A Asset donation smart contract"
  },
  "userdoc": {
    "methods": {
      "addAsset(string,string,uint32,string,string)": {
        "notice": "Adds a new asset to list of donated assets(Should be called by a donor)"
      },
      "donateAsset(uint32,uint256,address)": {
        "notice": "a donor can approve a specific request and this function assigns the recipient of this asset to the recipientAddresscaller should be a donor and recipient should be a receiver"
      },
      "getAllDonations()": {
        "notice": "returns all donations"
      },
      "getDonationsByOwner(uint256)": {
        "notice": "Returns all donations of an donor(it shoud be called by a donor)"
      },
      "mintToken(address)": {
        "notice": "The ERC721 stadard for nunfungible token is used to maintain ownership of assetseverytime a new token is minted based on current value of lastAssetId for assetOwner address, and then lastAssetId is increased"
      }
    },
    "notice": "This contract facilitates donation of physical assets for specific periods of time between asset owners and receivers"
  }
}