{
  "contractName": "DonateAsset",
  "abi": [
    {
      "inputs": [
        {
          "internalType": "address",
          "name": "_adm",
          "type": "address"
        }
      ],
      "stateMutability": "nonpayable",
      "type": "constructor"
    },
    {
      "anonymous": false,
      "inputs": [
        {
          "indexed": true,
          "internalType": "address",
          "name": "owner",
          "type": "address"
        },
        {
          "indexed": true,
          "internalType": "address",
          "name": "approved",
          "type": "address"
        },
        {
          "indexed": true,
          "internalType": "uint256",
          "name": "tokenId",
          "type": "uint256"
        }
      ],
      "name": "Approval",
      "type": "event"
    },
    {
      "anonymous": false,
      "inputs": [
        {
          "indexed": true,
          "internalType": "address",
          "name": "owner",
          "type": "address"
        },
        {
          "indexed": true,
          "internalType": "address",
          "name": "operator",
          "type": "address"
        },
        {
          "indexed": false,
          "internalType": "bool",
          "name": "approved",
          "type": "bool"
        }
      ],
      "name": "ApprovalForAll",
      "type": "event"
    },
    {
      "anonymous": false,
      "inputs": [
        {
          "indexed": false,
          "internalType": "uint32",
          "name": "assetId",
          "type": "uint32"
        }
      ],
      "name": "LogDonated",
      "type": "event"
    },
    {
      "anonymous": false,
      "inputs": [
        {
          "indexed": false,
          "internalType": "uint32",
          "name": "assetId",
          "type": "uint32"
        }
      ],
      "name": "LogFree",
      "type": "event"
    },
    {
      "anonymous": false,
      "inputs": [
        {
          "indexed": true,
          "internalType": "address",
          "name": "from",
          "type": "address"
        },
        {
          "indexed": true,
          "internalType": "address",
          "name": "to",
          "type": "address"
        },
        {
          "indexed": true,
          "internalType": "uint256",
          "name": "tokenId",
          "type": "uint256"
        }
      ],
      "name": "Transfer",
      "type": "event"
    },
    {
      "inputs": [
        {
          "internalType": "address",
          "name": "to",
          "type": "address"
        },
        {
          "internalType": "uint256",
          "name": "tokenId",
          "type": "uint256"
        }
      ],
      "name": "approve",
      "outputs": [],
      "stateMutability": "nonpayable",
      "type": "function"
    },
    {
      "inputs": [
        {
          "internalType": "address",
          "name": "owner",
          "type": "address"
        }
      ],
      "name": "balanceOf",
      "outputs": [
        {
          "internalType": "uint256",
          "name": "",
          "type": "uint256"
        }
      ],
      "stateMutability": "view",
      "type": "function",
      "constant": true
    },
    {
      "inputs": [],
      "name": "baseURI",
      "outputs": [
        {
          "internalType": "string",
          "name": "",
          "type": "string"
        }
      ],
      "stateMutability": "view",
      "type": "function",
      "constant": true
    },
    {
      "inputs": [
        {
          "internalType": "uint32",
          "name": "",
          "type": "uint32"
        }
      ],
      "name": "donationList",
      "outputs": [
        {
          "internalType": "uint32",
          "name": "assetId",
          "type": "uint32"
        },
        {
          "internalType": "string",
          "name": "assetTitle",
          "type": "string"
        },
        {
          "internalType": "string",
          "name": "assetDescription",
          "type": "string"
        },
        {
          "internalType": "uint32",
          "name": "availablityDate",
          "type": "uint32"
        },
        {
          "internalType": "string",
          "name": "location",
          "type": "string"
        },
        {
          "internalType": "enum DonateAsset.Status",
          "name": "status",
          "type": "uint8"
        },
        {
          "internalType": "address",
          "name": "owner",
          "type": "address"
        },
        {
          "internalType": "address",
          "name": "recipient",
          "type": "address"
        },
        {
          "internalType": "uint32",
          "name": "donatedDateFrom",
          "type": "uint32"
        },
        {
          "internalType": "uint32",
          "name": "donatedDateTo",
          "type": "uint32"
        },
        {
          "internalType": "uint32",
          "name": "requestCount",
          "type": "uint32"
        },
        {
          "internalType": "string",
          "name": "imageIPFSHash",
          "type": "string"
        }
      ],
      "stateMutability": "view",
      "type": "function",
      "constant": true
    },
    {
      "inputs": [
        {
          "internalType": "uint256",
          "name": "tokenId",
          "type": "uint256"
        }
      ],
      "name": "getApproved",
      "outputs": [
        {
          "internalType": "address",
          "name": "",
          "type": "address"
        }
      ],
      "stateMutability": "view",
      "type": "function",
      "constant": true
    },
    {
      "inputs": [
        {
          "internalType": "address",
          "name": "owner",
          "type": "address"
        },
        {
          "internalType": "address",
          "name": "operator",
          "type": "address"
        }
      ],
      "name": "isApprovedForAll",
      "outputs": [
        {
          "internalType": "bool",
          "name": "",
          "type": "bool"
        }
      ],
      "stateMutability": "view",
      "type": "function",
      "constant": true
    },
    {
      "inputs": [],
      "name": "name",
      "outputs": [
        {
          "internalType": "string",
          "name": "",
          "type": "string"
        }
      ],
      "stateMutability": "view",
      "type": "function",
      "constant": true
    },
    {
      "inputs": [
        {
          "internalType": "uint256",
          "name": "tokenId",
          "type": "uint256"
        }
      ],
      "name": "ownerOf",
      "outputs": [
        {
          "internalType": "address",
          "name": "",
          "type": "address"
        }
      ],
      "stateMutability": "view",
      "type": "function",
      "constant": true
    },
    {
      "inputs": [
        {
          "internalType": "address",
          "name": "from",
          "type": "address"
        },
        {
          "internalType": "address",
          "name": "to",
          "type": "address"
        },
        {
          "internalType": "uint256",
          "name": "tokenId",
          "type": "uint256"
        }
      ],
      "name": "safeTransferFrom",
      "outputs": [],
      "stateMutability": "nonpayable",
      "type": "function"
    },
    {
      "inputs": [
        {
          "internalType": "address",
          "name": "from",
          "type": "address"
        },
        {
          "internalType": "address",
          "name": "to",
          "type": "address"
        },
        {
          "internalType": "uint256",
          "name": "tokenId",
          "type": "uint256"
        },
        {
          "internalType": "bytes",
          "name": "_data",
          "type": "bytes"
        }
      ],
      "name": "safeTransferFrom",
      "outputs": [],
      "stateMutability": "nonpayable",
      "type": "function"
    },
    {
      "inputs": [
        {
          "internalType": "address",
          "name": "operator",
          "type": "address"
        },
        {
          "internalType": "bool",
          "name": "approved",
          "type": "bool"
        }
      ],
      "name": "setApprovalForAll",
      "outputs": [],
      "stateMutability": "nonpayable",
      "type": "function"
    },
    {
      "inputs": [
        {
          "internalType": "bytes4",
          "name": "interfaceId",
          "type": "bytes4"
        }
      ],
      "name": "supportsInterface",
      "outputs": [
        {
          "internalType": "bool",
          "name": "",
          "type": "bool"
        }
      ],
      "stateMutability": "view",
      "type": "function",
      "constant": true
    },
    {
      "inputs": [],
      "name": "symbol",
      "outputs": [
        {
          "internalType": "string",
          "name": "",
          "type": "string"
        }
      ],
      "stateMutability": "view",
      "type": "function",
      "constant": true
    },
    {
      "inputs": [
        {
          "internalType": "uint256",
          "name": "index",
          "type": "uint256"
        }
      ],
      "name": "tokenByIndex",
      "outputs": [
        {
          "internalType": "uint256",
          "name": "",
          "type": "uint256"
        }
      ],
      "stateMutability": "view",
      "type": "function",
      "constant": true
    },
    {
      "inputs": [
        {
          "internalType": "address",
          "name": "owner",
          "type": "address"
        },
        {
          "internalType": "uint256",
          "name": "index",
          "type": "uint256"
        }
      ],
      "name": "tokenOfOwnerByIndex",
      "outputs": [
        {
          "internalType": "uint256",
          "name": "",
          "type": "uint256"
        }
      ],
      "stateMutability": "view",
      "type": "function",
      "constant": true
    },
    {
      "inputs": [
        {
          "internalType": "uint256",
          "name": "tokenId",
          "type": "uint256"
        }
      ],
      "name": "tokenURI",
      "outputs": [
        {
          "internalType": "string",
          "name": "",
          "type": "string"
        }
      ],
      "stateMutability": "view",
      "type": "function",
      "constant": true
    },
    {
      "inputs": [],
      "name": "totalSupply",
      "outputs": [
        {
          "internalType": "uint256",
          "name": "",
          "type": "uint256"
        }
      ],
      "stateMutability": "view",
      "type": "function",
      "constant": true
    },
    {
      "inputs": [
        {
          "internalType": "address",
          "name": "from",
          "type": "address"
        },
        {
          "internalType": "address",
          "name": "to",
          "type": "address"
        },
        {
          "internalType": "uint256",
          "name": "tokenId",
          "type": "uint256"
        }
      ],
      "name": "transferFrom",
      "outputs": [],
      "stateMutability": "nonpayable",
      "type": "function"
    },
    {
      "inputs": [
        {
          "components": [
            {
              "internalType": "uint32",
              "name": "assetId",
              "type": "uint32"
            },
            {
              "internalType": "string",
              "name": "assetTitle",
              "type": "string"
            },
            {
              "internalType": "string",
              "name": "assetDescription",
              "type": "string"
            },
            {
              "internalType": "uint32",
              "name": "availablityDate",
              "type": "uint32"
            },
            {
              "internalType": "string",
              "name": "location",
              "type": "string"
            },
            {
              "internalType": "enum DonateAsset.Status",
              "name": "status",
              "type": "uint8"
            },
            {
              "internalType": "address",
              "name": "owner",
              "type": "address"
            },
            {
              "internalType": "address",
              "name": "recipient",
              "type": "address"
            },
            {
              "internalType": "uint32",
              "name": "donatedDateFrom",
              "type": "uint32"
            },
            {
              "internalType": "uint32",
              "name": "donatedDateTo",
              "type": "uint32"
            },
            {
              "internalType": "uint32",
              "name": "requestCount",
              "type": "uint32"
            },
            {
              "internalType": "string",
              "name": "imageIPFSHash",
              "type": "string"
            }
          ],
          "internalType": "struct DonateAsset.Asset",
          "name": "asset",
          "type": "tuple"
        }
      ],
      "name": "UpdateAsset",
      "outputs": [],
      "stateMutability": "nonpayable",
      "type": "function"
    },
    {
      "inputs": [
        {
          "internalType": "string",
          "name": "assetTitle",
          "type": "string"
        },
        {
          "internalType": "string",
          "name": "assetDescription",
          "type": "string"
        },
        {
          "internalType": "uint32",
          "name": "availablityDate",
          "type": "uint32"
        },
        {
          "internalType": "string",
          "name": "location",
          "type": "string"
        },
        {
          "internalType": "string",
          "name": "imageIPFSHash",
          "type": "string"
        }
      ],
      "name": "addAsset",
      "outputs": [],
      "stateMutability": "nonpayable",
      "type": "function"
    },
    {
      "inputs": [
        {
          "internalType": "uint256",
          "name": "pageNo",
          "type": "uint256"
        }
      ],
      "name": "getDonationsByOwner",
      "outputs": [
        {
          "components": [
            {
              "internalType": "uint32",
              "name": "assetId",
              "type": "uint32"
            },
            {
              "internalType": "string",
              "name": "assetTitle",
              "type": "string"
            },
            {
              "internalType": "string",
              "name": "assetDescription",
              "type": "string"
            },
            {
              "internalType": "uint32",
              "name": "availablityDate",
              "type": "uint32"
            },
            {
              "internalType": "string",
              "name": "location",
              "type": "string"
            },
            {
              "internalType": "enum DonateAsset.Status",
              "name": "status",
              "type": "uint8"
            },
            {
              "internalType": "address",
              "name": "owner",
              "type": "address"
            },
            {
              "internalType": "address",
              "name": "recipient",
              "type": "address"
            },
            {
              "internalType": "uint32",
              "name": "donatedDateFrom",
              "type": "uint32"
            },
            {
              "internalType": "uint32",
              "name": "donatedDateTo",
              "type": "uint32"
            },
            {
              "internalType": "uint32",
              "name": "requestCount",
              "type": "uint32"
            },
            {
              "internalType": "string",
              "name": "imageIPFSHash",
              "type": "string"
            }
          ],
          "internalType": "struct DonateAsset.Asset[8]",
          "name": "",
          "type": "tuple[8]"
        }
      ],
      "stateMutability": "view",
      "type": "function",
      "constant": true
    },
    {
      "inputs": [],
      "name": "getAllDonations",
      "outputs": [
        {
          "components": [
            {
              "internalType": "uint32",
              "name": "assetId",
              "type": "uint32"
            },
            {
              "internalType": "string",
              "name": "assetTitle",
              "type": "string"
            },
            {
              "internalType": "string",
              "name": "assetDescription",
              "type": "string"
            },
            {
              "internalType": "uint32",
              "name": "availablityDate",
              "type": "uint32"
            },
            {
              "internalType": "string",
              "name": "location",
              "type": "string"
            },
            {
              "internalType": "enum DonateAsset.Status",
              "name": "status",
              "type": "uint8"
            },
            {
              "internalType": "address",
              "name": "owner",
              "type": "address"
            },
            {
              "internalType": "address",
              "name": "recipient",
              "type": "address"
            },
            {
              "internalType": "uint32",
              "name": "donatedDateFrom",
              "type": "uint32"
            },
            {
              "internalType": "uint32",
              "name": "donatedDateTo",
              "type": "uint32"
            },
            {
              "internalType": "uint32",
              "name": "requestCount",
              "type": "uint32"
            },
            {
              "internalType": "string",
              "name": "imageIPFSHash",
              "type": "string"
            }
          ],
          "internalType": "struct DonateAsset.Asset[16]",
          "name": "",
          "type": "tuple[16]"
        }
      ],
      "stateMutability": "view",
      "type": "function",
      "constant": true
    },
    {
      "inputs": [
        {
          "internalType": "address",
          "name": "assetOwner",
          "type": "address"
        }
      ],
      "name": "mintToken",
      "outputs": [
        {
          "internalType": "uint32",
          "name": "",
          "type": "uint32"
        }
      ],
      "stateMutability": "nonpayable",
      "type": "function"
    },
    {
      "inputs": [
        {
          "internalType": "uint32",
          "name": "assetId",
          "type": "uint32"
        },
        {
          "internalType": "address",
          "name": "recipientAddress",
          "type": "address"
        }
      ],
      "name": "donateAsset",
      "outputs": [],
      "stateMutability": "nonpayable",
      "type": "function"
    },
    {
      "inputs": [
        {
          "internalType": "uint32",
          "name": "assetId",
          "type": "uint32"
        }
      ],
      "name": "getAssetRequestCount",
      "outputs": [
        {
          "internalType": "uint32",
          "name": "",
          "type": "uint32"
        }
      ],
      "stateMutability": "view",
      "type": "function",
      "constant": true
    },
    {
      "inputs": [
        {
          "internalType": "uint32",
          "name": "assetId",
          "type": "uint32"
        }
      ],
      "name": "getDonation",
      "outputs": [
        {
          "components": [
            {
              "internalType": "uint32",
              "name": "assetId",
              "type": "uint32"
            },
            {
              "internalType": "string",
              "name": "assetTitle",
              "type": "string"
            },
            {
              "internalType": "string",
              "name": "assetDescription",
              "type": "string"
            },
            {
              "internalType": "uint32",
              "name": "availablityDate",
              "type": "uint32"
            },
            {
              "internalType": "string",
              "name": "location",
              "type": "string"
            },
            {
              "internalType": "enum DonateAsset.Status",
              "name": "status",
              "type": "uint8"
            },
            {
              "internalType": "address",
              "name": "owner",
              "type": "address"
            },
            {
              "internalType": "address",
              "name": "recipient",
              "type": "address"
            },
            {
              "internalType": "uint32",
              "name": "donatedDateFrom",
              "type": "uint32"
            },
            {
              "internalType": "uint32",
              "name": "donatedDateTo",
              "type": "uint32"
            },
            {
              "internalType": "uint32",
              "name": "requestCount",
              "type": "uint32"
            },
            {
              "internalType": "string",
              "name": "imageIPFSHash",
              "type": "string"
            }
          ],
          "internalType": "struct DonateAsset.Asset",
          "name": "",
          "type": "tuple"
        }
      ],
      "stateMutability": "view",
      "type": "function",
      "constant": true
    }
  ],
  "bytecode": "0x60806040523480156200001157600080fd5b5060405162003c1b38038062003c1b833981016040819052620000349162000237565b604080518082018252600781526626bcaa37b5b2b760c91b602080830191909152825180840190935260038352624d545360e81b9083015290620000886301ffc9a760e01b6001600160e01b036200013716565b81516200009d90600690602085019062000192565b508051620000b390600790602084019062000192565b50620000cf6380ac58cd60e01b6001600160e01b036200013716565b620000ea635b5e139f60e01b6001600160e01b036200013716565b6200010563780e9d6360e01b6001600160e01b036200013716565b5050600a80546001600160a01b0319166001600160a01b03929092169190911763ffffffff60a01b191690556200029e565b6001600160e01b031980821614156200016d5760405162461bcd60e51b8152600401620001649062000267565b60405180910390fd5b6001600160e01b0319166000908152602081905260409020805460ff19166001179055565b828054600181600116156101000203166002900490600052602060002090601f016020900481019282601f10620001d557805160ff191683800117855562000205565b8280016001018555821562000205579182015b8281111562000205578251825591602001919060010190620001e8565b506200021392915062000217565b5090565b6200023491905b808211156200021357600081556001016200021e565b90565b60006020828403121562000249578081fd5b81516001600160a01b038116811462000260578182fd5b9392505050565b6020808252601c908201527f4552433136353a20696e76616c696420696e7465726661636520696400000000604082015260600190565b61396d80620002ae6000396000f3fe608060405234801561001057600080fd5b506004361061013e5760003560e01c806301173a741461014357806301ffc9a71461016c57806306fdde031461018c578063081812fc146101a1578063095ea7b3146101c157806318160ddd146101d657806321f54c21146101eb57806323b872dd146101fe578063247f0542146102115780632f745c591461023157806338a59a071461024457806342842e0e1461025957806349d17fe91461026c5780634bb0eaaf1461027f5780634f6ccce7146102aa5780636352211e146102bd5780636c0360eb146102d05780636de50578146102d857806370a08231146102eb57806371884136146102fe57806395d89b411461031e578063a22cb46514610326578063b88d4fde14610339578063c87b56dd1461034c578063cac78d851461035f578063e985e9c514610372575b600080fd5b610156610151366004612a34565b610385565b6040516101639190613742565b60405180910390f35b61017f61017a366004612ba7565b610494565b604051610163919061313c565b6101946104b3565b6040516101639190613147565b6101b46101af366004612e10565b61054a565b6040516101639190613065565b6101d46101cf366004612b61565b61058d565b005b6101de610625565b6040516101639190613739565b6101566101f9366004612e28565b610636565b6101d461020c366004612a83565b61065b565b61022461021f366004612e10565b610693565b60405161016391906130fa565b6101de61023f366004612b61565b610a4f565b61024c610a80565b60405161016391906130ac565b6101d4610267366004612a83565b610e14565b6101d461027a366004612e44565b610e2f565b61029261028d366004612e28565b611072565b6040516101639c9b9a99989796959493929190613753565b6101de6102b8366004612e10565b61132a565b6101b46102cb366004612e10565b611346565b610194611374565b6101d46102e6366004612c9b565b6113d5565b6101de6102f9366004612a34565b611488565b61031161030c366004612e28565b6114d1565b6040516101639190613726565b6101946117f1565b6101d4610334366004612b2a565b611852565b6101d4610347366004612ac3565b611920565b61019461035a366004612e10565b61195f565b6101d461036d366004612bdf565b611aa9565b61017f610380366004612a4f565b611dec565b600a54604080516309d2f83f60e41b815290516000926001600160a01b031691639d2f83f091600480830192602092919082900301818787803b1580156103cb57600080fd5b505af11580156103df573d6000803e3d6000fd5b505050506040513d601f19601f820116820180604052506104039190810190612b8b565b156104295760405162461bcd60e51b815260040161042090613549565b60405180910390fd5b600a54610444908390600160a01b900463ffffffff16611e1a565b600a54600160a01b900463ffffffff16610467610462826001611e38565b611e5d565b600a805463ffffffff92909216600160a01b0263ffffffff60a01b1990921691909117905590505b919050565b6001600160e01b03191660009081526020819052604090205460ff1690565b60068054604080516020601f600260001961010060018816150201909516949094049384018190048102820181019092528281526060939092909183018282801561053f5780601f106105145761010080835404028352916020019161053f565b820191906000526020600020905b81548152906001019060200180831161052257829003601f168201915b505050505090505b90565b600061055582611e86565b6105715760405162461bcd60e51b8152600401610420906134fd565b506000908152600460205260409020546001600160a01b031690565b600061059882611346565b9050806001600160a01b0316836001600160a01b031614156105cc5760405162461bcd60e51b815260040161042090613617565b806001600160a01b03166105de611e99565b6001600160a01b031614806105fa57506105fa81610380611e99565b6106165760405162461bcd60e51b8152600401610420906133a3565b6106208383611e9d565b505050565b60006106316002611f0b565b905090565b63ffffffff9081166000908152600b6020526040902060060154600160e01b90041690565b61066c610666611e99565b82611f16565b6106885760405162461bcd60e51b815260040161042090613658565b610620838383611f9b565b61069b61282e565b60006106a633611488565b905060006106b58460086120a9565b905060006106c383836120e3565b90506000806106d061282e565b60088410156106e1578392506106e6565b600892505b60006106f28685611e38565b9050855b81811015610a3f576107083382610a4f565b63ffffffff8181166000908152600b602090815260409182902082516101808101845281549094168452600180820180548551600261010094831615949094026000190190911692909204601f8101859004850283018501909552848252959950939490938583019390928301828280156107c45780601f10610799576101008083540402835291602001916107c4565b820191906000526020600020905b8154815290600101906020018083116107a757829003601f168201915b5050509183525050600282810180546040805160206001841615610100026000190190931694909404601f810183900483028501830190915280845293810193908301828280156108565780601f1061082b57610100808354040283529160200191610856565b820191906000526020600020905b81548152906001019060200180831161083957829003601f168201915b5050509183525050600382015463ffffffff1660208083019190915260048301805460408051601f600260001960018616156101000201909416939093049283018590048502810185018252828152940193928301828280156108fa5780601f106108cf576101008083540402835291602001916108fa565b820191906000526020600020905b8154815290600101906020018083116108dd57829003601f168201915b5050509183525050600582015460209091019060ff16600481111561091b57fe5b600481111561092657fe5b81526005820154610100908190046001600160a01b039081166020808501919091526006850154918216604080860191909152600160a01b830463ffffffff9081166060870152600160c01b840481166080870152600160e01b90930490921660a08501526007850180548351600260018316159096026000190190911694909404601f810183900483028501830190935282845260c0909401939190830182828015610a145780601f106109e957610100808354040283529160200191610a14565b820191906000526020600020905b8154815290600101906020018083116109f757829003601f168201915b50505050508152505083610a28838a6120e3565b60088110610a3257fe5b60200201526001016106f6565b508197505050505050505061048f565b6001600160a01b0382166000908152600160205260408120610a77908363ffffffff61212516565b90505b92915050565b610a8861285c565b6000610a9261285c565b600a546010600160a01b90910463ffffffff1611610ac157600a54600160a01b900463ffffffff169150610ac6565b601091505b60005b8263ffffffff168163ffffffff161015610e0d5763ffffffff8181166000908152600b602090815260409182902082516101808101845281549094168452600180820180548551600261010094831615949094026000190190911692909204601f8101859004850283018501909552848252919385840193919291830182828015610b955780601f10610b6a57610100808354040283529160200191610b95565b820191906000526020600020905b815481529060010190602001808311610b7857829003601f168201915b5050509183525050600282810180546040805160206001841615610100026000190190931694909404601f81018390048302850183019091528084529381019390830182828015610c275780601f10610bfc57610100808354040283529160200191610c27565b820191906000526020600020905b815481529060010190602001808311610c0a57829003601f168201915b5050509183525050600382015463ffffffff1660208083019190915260048301805460408051601f60026000196001861615610100020190941693909304928301859004850281018501825282815294019392830182828015610ccb5780601f10610ca057610100808354040283529160200191610ccb565b820191906000526020600020905b815481529060010190602001808311610cae57829003601f168201915b5050509183525050600582015460209091019060ff166004811115610cec57fe5b6004811115610cf757fe5b81526005820154610100908190046001600160a01b039081166020808501919091526006850154918216604080860191909152600160a01b830463ffffffff9081166060870152600160c01b840481166080870152600160e01b90930490921660a08501526007850180548351600260018316159096026000190190911694909404601f810183900483028501830190935282845260c0909401939190830182828015610de55780601f10610dba57610100808354040283529160200191610de5565b820191906000526020600020905b815481529060010190602001808311610dc857829003601f168201915b505050505081525050828263ffffffff1660108110610e0057fe5b6020020152600101610ac9565b5091505090565b61062083838360405180602001604052806000815250611920565b63ffffffff82166000908152600b6020526040902060050154829061010090046001600160a01b0316610e745760405162461bcd60e51b81526004016104209061319c565b63ffffffff83166000908152600b602052604090206006015483906001600160a01b0316158015610ef9575063ffffffff81166000908152600b602052604081206005015460ff166004811115610ec757fe5b1480610ef95750600163ffffffff82166000908152600b602052604090206005015460ff166004811115610ef757fe5b145b610f155760405162461bcd60e51b815260040161042090613377565b63ffffffff841633610f2682611346565b6001600160a01b031614610f4c5760405162461bcd60e51b815260040161042090613280565b600a60009054906101000a90046001600160a01b03166001600160a01b0316639d2f83f06040518163ffffffff1660e01b8152600401602060405180830381600087803b158015610f9c57600080fd5b505af1158015610fb0573d6000803e3d6000fd5b505050506040513d601f19601f82011682018060405250610fd49190810190612b8b565b15610ff15760405162461bcd60e51b815260040161042090613549565b63ffffffff85166000908152600b6020526040908190206006810180546001600160a01b0388166001600160a01b0319909116179055600501805460ff19166002179055517f9869ee1482368b4ea48cb13a191ba8022b944e7785dbe1804c4e4c11ed347dd190611063908790613742565b60405180910390a15050505050565b600b602090815260009182526040918290208054600180830180548651600261010094831615949094026000190190911692909204601f810186900486028301860190965285825263ffffffff9092169492939092908301828280156111195780601f106110ee57610100808354040283529160200191611119565b820191906000526020600020905b8154815290600101906020018083116110fc57829003601f168201915b50505060028085018054604080516020601f60001961010060018716150201909416959095049283018590048502810185019091528181529596959450909250908301828280156111ab5780601f10611180576101008083540402835291602001916111ab565b820191906000526020600020905b81548152906001019060200180831161118e57829003601f168201915b50505050600383015460048401805460408051602060026101006001861615026000190190941693909304601f8101849004840282018401909252818152959663ffffffff90941695939450908301828280156112495780601f1061121e57610100808354040283529160200191611249565b820191906000526020600020905b81548152906001019060200180831161122c57829003601f168201915b50505050600583015460068401546007850180546040805160206002610100600186161581026000190190951604601f8101829004820283018201909352828252979860ff871698939096046001600160a01b039081169750851695600160a01b860463ffffffff90811696600160c01b8104821696600160e01b90910490911694919390918301828280156113205780601f106112f557610100808354040283529160200191611320565b820191906000526020600020905b81548152906001019060200180831161130357829003601f168201915b505050505090508c565b60008061133e60028463ffffffff61213116565b509392505050565b6000610a7a826040518060600160405280602981526020016138ef602991396002919063ffffffff61214d16565b60098054604080516020601f600260001961010060018816150201909516949094049384018190048102820181019092528281526060939092909183018282801561053f5780601f106105145761010080835404028352916020019161053f565b805163ffffffff166000908152600b602052604090206005015460ff1660048111156113fd57fe5b8160a00151600481111561140d57fe5b111561144b5760a0810151815163ffffffff166000908152600b60205260409020600501805460ff1916600183600481111561144557fe5b02179055505b610140810151905163ffffffff9081166000908152600b60205260409020600601805491909216600160e01b026001600160e01b03909116179055565b60006001600160a01b0382166114b05760405162461bcd60e51b8152600401610420906133fb565b6001600160a01b0382166000908152600160205260409020610a7a90611f0b565b6114d961288a565b63ffffffff8281166000908152600b602090815260409182902082516101808101845281549094168452600180820180548551600261010094831615949094026000190190911692909204601f81018590048502830185019095528482529193858401939192918301828280156115915780601f1061156657610100808354040283529160200191611591565b820191906000526020600020905b81548152906001019060200180831161157457829003601f168201915b5050509183525050600282810180546040805160206001841615610100026000190190931694909404601f810183900483028501830190915280845293810193908301828280156116235780601f106115f857610100808354040283529160200191611623565b820191906000526020600020905b81548152906001019060200180831161160657829003601f168201915b5050509183525050600382015463ffffffff1660208083019190915260048301805460408051601f600260001960018616156101000201909416939093049283018590048502810185018252828152940193928301828280156116c75780601f1061169c576101008083540402835291602001916116c7565b820191906000526020600020905b8154815290600101906020018083116116aa57829003601f168201915b5050509183525050600582015460209091019060ff1660048111156116e857fe5b60048111156116f357fe5b81526005820154610100908190046001600160a01b039081166020808501919091526006850154918216604080860191909152600160a01b830463ffffffff9081166060870152600160c01b840481166080870152600160e01b90930490921660a08501526007850180548351600260018316159096026000190190911694909404601f810183900483028501830190935282845260c09094019391908301828280156117e15780601f106117b6576101008083540402835291602001916117e1565b820191906000526020600020905b8154815290600101906020018083116117c457829003601f168201915b5050505050815250509050919050565b60078054604080516020601f600260001961010060018816150201909516949094049384018190048102820181019092528281526060939092909183018282801561053f5780601f106105145761010080835404028352916020019161053f565b61185a611e99565b6001600160a01b0316826001600160a01b0316141561188b5760405162461bcd60e51b8152600401610420906132f8565b8060056000611898611e99565b6001600160a01b03908116825260208083019390935260409182016000908120918716808252919093529120805460ff1916921515929092179091556118dc611e99565b6001600160a01b03167f17307eab39ab6107e8899845ad3d59bd9653f200f220920489ca2b5937696c3183604051611914919061313c565b60405180910390a35050565b61193161192b611e99565b83611f16565b61194d5760405162461bcd60e51b815260040161042090613658565b61195984848484612164565b50505050565b606061196a82611e86565b6119865760405162461bcd60e51b8152600401610420906135c8565b60008281526008602090815260409182902080548351601f6002600019610100600186161502019093169290920491820184900484028101840190945280845260609392830182828015611a1b5780601f106119f057610100808354040283529160200191611a1b565b820191906000526020600020905b8154815290600101906020018083116119fe57829003601f168201915b505060095493945050505060026000196101006001841615020190911604611a4457905061048f565b805115611a7657600981604051602001611a5f929190612fe4565b60405160208183030381529060405291505061048f565b6009611a8184612197565b604051602001611a92929190612fe4565b604051602081830303815290604052915050919050565b600a60009054906101000a90046001600160a01b03166001600160a01b0316639d2f83f06040518163ffffffff1660e01b8152600401602060405180830381600087803b158015611af957600080fd5b505af1158015611b0d573d6000803e3d6000fd5b505050506040513d601f19601f82011682018060405250611b319190810190612b8b565b15611b4e5760405162461bcd60e51b815260040161042090613549565b600a5460405163095d1a0d60e21b81526001600160a01b0390911690632574683490611b7e903390600401613065565b600060405180830381600087803b158015611b9857600080fd5b505af1158015611bac573d6000803e3d6000fd5b505050506000611bbb33610385565b90506040518061018001604052808263ffffffff1681526020018781526020018681526020018563ffffffff16815260200184815260200160006004811115611c0057fe5b81523360208083019190915260006040808401829052606084018290526080840182905260a0840182905260c090930186905263ffffffff8581168252600b83529290208351815463ffffffff19169316929092178255828101518051611c6d9260018501920190612904565b5060408201518051611c89916002840191602090910190612904565b50606082015160038201805463ffffffff191663ffffffff90921691909117905560808201518051611cc5916004840191602090910190612904565b5060a082015160058201805460ff19166001836004811115611ce357fe5b021790555060c0820151600582018054610100600160a81b0319166101006001600160a01b0393841681029190911790915560e0840151600684018054928601516101208701516101408801516001600160a01b0319909516939095169290921763ffffffff60a01b1916600160a01b63ffffffff938416021763ffffffff60c01b1916600160c01b94831694909402939093176001600160e01b0316600160e01b91909216021790556101608201518051611da9916007840191602090910190612904565b509050507f02be38ab1ac25d38c43ba8eef640edc80bd26853df4de2f92af4fa493699009c81604051611ddc9190613742565b60405180910390a1505050505050565b6001600160a01b03918216600090815260056020908152604080832093909416825291909152205460ff1690565b611e3482826040518060200160405280600081525061225b565b5050565b600082820183811015610a775760405162461bcd60e51b81526004016104209061324b565b6000600160201b8210611e825760405162461bcd60e51b8152600401610420906136a9565b5090565b6000610a7a60028363ffffffff61228e16565b3390565b600081815260046020526040902080546001600160a01b0319166001600160a01b0384169081179091558190611ed282611346565b6001600160a01b03167f8c5be1e5ebec7d5bd14f71427d1e84f3dd0314c0f7b2291e5b200ac8c7c3b92560405160405180910390a45050565b6000610a7a8261229a565b6000611f2182611e86565b611f3d5760405162461bcd60e51b81526004016104209061332b565b6000611f4883611346565b9050806001600160a01b0316846001600160a01b03161480611f835750836001600160a01b0316611f788461054a565b6001600160a01b0316145b80611f935750611f938185611dec565b949350505050565b826001600160a01b0316611fae82611346565b6001600160a01b031614611fd45760405162461bcd60e51b81526004016104209061357f565b6001600160a01b038216611ffa5760405162461bcd60e51b8152600401610420906132b4565b612005838383610620565b612010600082611e9d565b6001600160a01b0383166000908152600160205260409020612038908263ffffffff61229e16565b506001600160a01b0382166000908152600160205260409020612061908263ffffffff6122aa16565b506120746002828463ffffffff6122b616565b5080826001600160a01b0316846001600160a01b031660008051602061391883398151915260405160405180910390a4505050565b6000826120b857506000610a7a565b828202828482816120c557fe5b0414610a775760405162461bcd60e51b8152600401610420906134bc565b6000610a7783836040518060400160405280601e81526020017f536166654d6174683a207375627472616374696f6e206f766572666c6f7700008152506122cc565b6000610a7783836122f8565b6000808080612140868661233d565b9097909650945050505050565b600061215a848484612399565b90505b9392505050565b61216f848484611f9b565b61217b848484846123f8565b6119595760405162461bcd60e51b8152600401610420906131c3565b6060816121bc57506040805180820190915260018152600360fc1b602082015261048f565b8160005b81156121d457600101600a820491506121c0565b6060816040519080825280601f01601f191660200182016040528015612201576020820181803883390190505b50859350905060001982015b831561225257600a840660300160f81b8282806001900393508151811061223057fe5b60200101906001600160f81b031916908160001a905350600a8404935061220d565b50949350505050565b61226583836124dd565b61227260008484846123f8565b6106205760405162461bcd60e51b8152600401610420906131c3565b6000610a77838361259b565b5490565b6000610a7783836125b3565b6000610a778383612679565b600061215a84846001600160a01b0385166126c3565b600081848411156122f05760405162461bcd60e51b81526004016104209190613147565b505050900390565b8154600090821061231b5760405162461bcd60e51b81526004016104209061315a565b82600001828154811061232a57fe5b9060005260206000200154905092915050565b8154600090819083106123625760405162461bcd60e51b815260040161042090613445565b600084600001848154811061237357fe5b906000526020600020906002020190508060000154816001015492509250509250929050565b600082815260018401602052604081205482816123c95760405162461bcd60e51b81526004016104209190613147565b508460000160018203815481106123dc57fe5b9060005260206000209060020201600101549150509392505050565b600061240c846001600160a01b031661275a565b61241857506001611f93565b60606124a6630a85bd0160e11b61242d611e99565b8887876040516024016124439493929190613079565b604051602081830303815290604052906001600160e01b0319166020820180516001600160e01b0383818316178352505050506040518060600160405280603281526020016138bd603291396001600160a01b038816919063ffffffff61276016565b90506000818060200190516124be9190810190612bc3565b6001600160e01b031916630a85bd0160e11b1492505050949350505050565b6001600160a01b0382166125035760405162461bcd60e51b815260040161042090613487565b61250c81611e86565b156125295760405162461bcd60e51b815260040161042090613215565b61253560008383610620565b6001600160a01b038216600090815260016020526040902061255d908263ffffffff6122aa16565b506125706002828463ffffffff6122b616565b5060405181906001600160a01b03841690600090600080516020613918833981519152908290a45050565b60009081526001919091016020526040902054151590565b6000818152600183016020526040812054801561266f57835460001980830191908101906000908790839081106125e657fe5b906000526020600020015490508087600001848154811061260357fe5b60009182526020808320909101929092558281526001898101909252604090209084019055865487908061263357fe5b60019003818190600052602060002001600090559055866001016000878152602001908152602001600020600090556001945050505050610a7a565b6000915050610a7a565b6000612685838361259b565b6126bb57508154600181810184556000848152602080822090930184905584548482528286019093526040902091909155610a7a565b506000610a7a565b60008281526001840160205260408120548061272857505060408051808201825283815260208082018481528654600181810189556000898152848120955160029093029095019182559151908201558654868452818801909252929091205561215d565b8285600001600183038154811061273b57fe5b906000526020600020906002020160010181905550600091505061215d565b3b151590565b606061215a848460008560606127758561275a565b6127915760405162461bcd60e51b8152600401610420906136ef565b60006060866001600160a01b031685876040516127ae9190612fc8565b60006040518083038185875af1925050503d80600081146127eb576040519150601f19603f3d011682016040523d82523d6000602084013e6127f0565b606091505b50915091508115612804579150611f939050565b8051156128145780518082602001fd5b8360405162461bcd60e51b81526004016104209190613147565b6040518061010001604052806008905b61284661288a565b81526020019060019003908161283e5790505090565b6040518061020001604052806010905b61287461288a565b81526020019060019003908161286c5790505090565b604051806101800160405280600063ffffffff1681526020016060815260200160608152602001600063ffffffff16815260200160608152602001600060048111156128d257fe5b81526000602082018190526040820181905260608083018290526080830182905260a083019190915260c09091015290565b828054600181600116156101000203166002900490600052602060002090601f016020900481019282601f1061294557805160ff1916838001178555612972565b82800160010185558215612972579182015b82811115612972578251825591602001919060010190612957565b50611e82926105479250905b80821115611e82576000815560010161297e565b80356001600160a01b0381168114610a7a57600080fd5b600082601f8301126129b9578081fd5b81356001600160401b038111156129ce578182fd5b6129e1601f8201601f191660200161381c565b91508082528360208285010111156129f857600080fd5b8060208401602084013760009082016020015292915050565b803560058110610a7a57600080fd5b803563ffffffff81168114610a7a57600080fd5b600060208284031215612a45578081fd5b610a778383612992565b60008060408385031215612a61578081fd5b612a6b8484612992565b9150612a7a8460208501612992565b90509250929050565b600080600060608486031215612a97578081fd5b8335612aa28161386e565b92506020840135612ab28161386e565b929592945050506040919091013590565b60008060008060808587031215612ad8578081fd5b612ae28686612992565b9350612af18660208701612992565b92506040850135915060608501356001600160401b03811115612b12578182fd5b612b1e878288016129a9565b91505092959194509250565b60008060408385031215612b3c578182fd5b612b468484612992565b91506020830135612b5681613886565b809150509250929050565b60008060408385031215612b73578182fd5b612b7d8484612992565b946020939093013593505050565b600060208284031215612b9c578081fd5b8151610a7781613886565b600060208284031215612bb8578081fd5b8135610a7781613894565b600060208284031215612bd4578081fd5b8151610a7781613894565b600080600080600060a08688031215612bf6578283fd5b85356001600160401b0380821115612c0c578485fd5b612c1889838a016129a9565b96506020880135915080821115612c2d578485fd5b612c3989838a016129a9565b955060408801359150612c4b826138aa565b90935060608701359080821115612c60578283fd5b612c6c89838a016129a9565b93506080880135915080821115612c81578283fd5b50612c8e888289016129a9565b9150509295509295909350565b600060208284031215612cac578081fd5b81356001600160401b0380821115612cc2578283fd5b610180918401808603831315612cd6578384fd5b612cdf8361381c565b612ce98783612a20565b81526020820135935082841115612cfe578485fd5b612d0a878584016129a9565b60208201526040820135935082841115612d22578485fd5b612d2e878584016129a9565b6040820152612d408760608401612a20565b60608201526080820135935082841115612d58578485fd5b612d64878584016129a9565b6080820152612d768760a08401612a11565b60a0820152612d888760c08401612992565b60c0820152612d9a8760e08401612992565b60e08201526101009350612db087858401612a20565b848201526101209350612dc587858401612a20565b848201526101409350612dda87858401612a20565b8482015261016093508382013583811115612df3578586fd5b612dff888285016129a9565b948201949094529695505050505050565b600060208284031215612e21578081fd5b5035919050565b600060208284031215612e39578081fd5b8135610a77816138aa565b60008060408385031215612e56578182fd5b612a6b8484612a20565b6001600160a01b03169052565b60008151808452612e85816020860160208601613842565b601f01601f19169290920160200192915050565b60058110612ea357fe5b9052565b6000610180612eb7848451612fbe565b6020830151816020860152612ece82860182612e6d565b604085015192508581036040870152612ee78184612e6d565b91505060608401519150612efe6060860183612fbe565b608084015191508481036080860152612f178183612e6d565b60a08501519250612f2b60a0870184612e99565b60c08501519250612f3f60c0870184612e60565b60e08501519250612f5360e0870184612e60565b6101009250828501519150612f6a83870183612fbe565b6101209250828501519150612f8183870183612fbe565b6101409250828501519150612f9883870183612fbe565b610160925082850151915085810383870152612fb48183612e6d565b9695505050505050565b63ffffffff169052565b60008251612fda818460208701613842565b9190910192915050565b6000808454600180821660008114613003576001811461301a57613049565b60ff198316865260028304607f1686019350613049565b600283048886526020808720875b838110156130415781548a820152908501908201613028565b505050860193505b505050835161305c818360208801613842565b01949350505050565b6001600160a01b0391909116815260200190565b6001600160a01b0385811682528416602082015260408101839052608060608201819052600090612fb490830184612e6d565b6020808252600090610220830183820185845b60108110156130ee57601f198785030183526130dc848351612ea7565b935091840191908401906001016130bf565b50919695505050505050565b6020808252600090610120830183820185845b60088110156130ee57601f1987850301835261312a848351612ea7565b9350918401919084019060010161310d565b901515815260200190565b600060208252610a776020830184612e6d565b60208082526022908201527f456e756d657261626c655365743a20696e646578206f7574206f6620626f756e604082015261647360f01b606082015260800190565b6020808252600d908201526c125b9d985b1a5908185cdcd95d609a1b604082015260600190565b60208082526032908201527f4552433732313a207472616e7366657220746f206e6f6e20455243373231526560408201527131b2b4bb32b91034b6b83632b6b2b73a32b960711b606082015260800190565b6020808252601c908201527b115490cdcc8c4e881d1bdad95b88185b1c9958591e481b5a5b9d195960221b604082015260600190565b6020808252601b908201527a536166654d6174683a206164646974696f6e206f766572666c6f7760281b604082015260600190565b6020808252601a908201527929b2b73232b9103734b99037ba1030b9b9b2ba1037bbb732b91760311b604082015260600190565b60208082526024908201527f4552433732313a207472616e7366657220746f20746865207a65726f206164646040820152637265737360e01b606082015260800190565b60208082526019908201527822a9219b99189d1030b8383937bb32903a379031b0b63632b960391b604082015260600190565b6020808252602c908201527f4552433732313a206f70657261746f7220717565727920666f72206e6f6e657860408201526b34b9ba32b73a103a37b5b2b760a11b606082015260800190565b60208082526012908201527120b9b9b2ba1034b9903737ba10233932b29760711b604082015260600190565b60208082526038908201527f4552433732313a20617070726f76652063616c6c6572206973206e6f74206f776040820152771b995c881b9bdc88185c1c1c9bdd995908199bdc88185b1b60421b606082015260800190565b6020808252602a908201527f4552433732313a2062616c616e636520717565727920666f7220746865207a65604082015269726f206164647265737360b01b606082015260800190565b60208082526022908201527f456e756d657261626c654d61703a20696e646578206f7574206f6620626f756e604082015261647360f01b606082015260800190565b6020808252818101527f4552433732313a206d696e7420746f20746865207a65726f2061646472657373604082015260600190565b60208082526021908201527f536166654d6174683a206d756c7469706c69636174696f6e206f766572666c6f6040820152607760f81b606082015260800190565b6020808252602c908201527f4552433732313a20617070726f76656420717565727920666f72206e6f6e657860408201526b34b9ba32b73a103a37b5b2b760a11b606082015260800190565b6020808252601c908201527b29bcb9ba32b69034b99034b71032b6b2b933b2b731bc9039ba37b81760211b604082015260600190565b60208082526029908201527f4552433732313a207472616e73666572206f6620746f6b656e2074686174206960408201526839903737ba1037bbb760b91b606082015260800190565b6020808252602f908201527f4552433732314d657461646174613a2055524920717565727920666f72206e6f60408201526e3732bc34b9ba32b73a103a37b5b2b760891b606082015260800190565b60208082526021908201527f4552433732313a20617070726f76616c20746f2063757272656e74206f776e656040820152603960f91b606082015260800190565b60208082526031908201527f4552433732313a207472616e736665722063616c6c6572206973206e6f74206f6040820152701ddb995c881b9bdc88185c1c1c9bdd9959607a1b606082015260800190565b60208082526026908201527f53616665436173743a2076616c756520646f65736e27742066697420696e203360408201526532206269747360d01b606082015260800190565b6020808252601d908201527f416464726573733a2063616c6c20746f206e6f6e2d636f6e7472616374000000604082015260600190565b600060208252610a776020830184612ea7565b90815260200190565b63ffffffff91909116815260200190565b600063ffffffff808f168352610180602084015261377561018084018f612e6d565b8381036040850152613787818f612e6d565b828e16606086015284810360808601526137a1818e612e6d565b925050506137b260a084018b612e99565b6137bf60c084018a612e60565b6137cc60e0840189612e60565b6137da610100840188612fbe565b6137e8610120840187612fbe565b6137f6610140840186612fbe565b8281036101608401526138098185612e6d565b9f9e505050505050505050505050505050565b6040518181016001600160401b038111828210171561383a57600080fd5b604052919050565b60005b8381101561385d578181015183820152602001613845565b838111156119595750506000910152565b6001600160a01b038116811461388357600080fd5b50565b801515811461388357600080fd5b6001600160e01b03198116811461388357600080fd5b63ffffffff8116811461388357600080fdfe4552433732313a207472616e7366657220746f206e6f6e20455243373231526563656976657220696d706c656d656e7465724552433732313a206f776e657220717565727920666f72206e6f6e6578697374656e7420746f6b656eddf252ad1be2c89b69c2b068fc378daa952ba7f163c4a11628f55a4df523b3efa2646970667358221220a1ad71a550e79429cfcd9f6239cc1aa9d48eb1d02595eaad6c925da0933d3bb764736f6c63430006020033",
  "source": "pragma solidity ^0.6.2;\npragma experimental ABIEncoderV2;\n\ncontract Administration {\n    function systemPaused() public returns(bool){}\n    function addDonor(address donorAddress) public {}\n}\n\nimport \"@openzeppelin/contracts/token/ERC721/ERC721.sol\";\nimport \"@openzeppelin/contracts/access/AccessControl.sol\";\nimport \"@openzeppelin/contracts/math/SafeMath.sol\";\nimport \"@openzeppelin/contracts/utils/SafeCast.sol\";\n\n/// @title A Asset donation smart contract\n/// @author Fatemeh Heidari Soureshjani\n/// @notice This contract facilitates donation of physical assets for specific periods of time between asset owners and receivers\n/// @dev time\n\ncontract DonateAsset is ERC721 {\n    Administration ADM;\n\n    uint32 lastAssetId;\n\n    constructor(address _adm) public ERC721(\"MyToken\", \"MTS\") {\n        ADM = Administration(_adm);\n        lastAssetId = 0;\n    }\n\n    enum Status {Free, Requested, Donated, Inactive, Burned}\n\n    struct Asset {\n        uint32 assetId;\n        string assetTitle;\n        string assetDescription;\n        uint32 availablityDate;\n        string location;\n        Status status;\n        address owner;\n        address recipient;\n        uint32 donatedDateFrom;\n        uint32 donatedDateTo;\n        uint32 requestCount;\n        string imageIPFSHash;\n    }\n\n    mapping(uint32 => Asset) public donationList;\n\n    modifier assetIsFree(uint32 assetId) {\n        require(\n            donationList[assetId].recipient == address(0) &&\n                (donationList[assetId].status == Status.Free ||\n                    donationList[assetId].status == Status.Requested)\n        ,\"Asset is not Free.\");\n        _;\n    }\n\n    modifier assetExists(uint32 assetId) {\n        require(donationList[assetId].owner != address(0), \"Invalid asset\");\n        _;\n    }\n\n    modifier isAssetOwner(uint256 assetId) {\n        require(ownerOf(assetId) == msg.sender,\"Sender nis ot asset owner.\");\n        _;\n    }\n\n    modifier whenNotPaused(){\n        require(!ADM.systemPaused(),\"System is in emergency stop.\");\n        _;\n    }\n\n    event LogFree(uint32 assetId);\n\n    event LogDonated(uint32 assetId);\n\n    // event LogInactive(uint32 assetId);\n    // event LogIBurned(uint32 assetId);\n\n    function UpdateAsset(Asset memory asset) public {\n        if (asset.status > donationList[asset.assetId].status) {\n            donationList[asset.assetId].status = asset.status;\n        }\n        donationList[asset.assetId].requestCount = asset.requestCount;\n    }\n\n    /// @notice Adds a new asset to list of donated assets(Should be called by a donor)\n    /// @dev other asset struct members should be added\n    /// @param assetDescription Descrption of the asset entered by owner\n    /// @param availablityDate the first date the owner can donate the asset\n    /// @param location the location of the donated asset\n    /// @param imageIPFSHash IPFS hash of the asset image uploaded by owner and saved to IPFS\n    function addAsset(\n        string memory assetTitle,\n        string memory assetDescription,\n        uint32 availablityDate,\n        string memory location,\n        string memory imageIPFSHash\n    ) public whenNotPaused {\n        ADM.addDonor(msg.sender);\n        uint32 assetId = mintToken(msg.sender);\n        donationList[assetId] = Asset({\n            assetId: assetId,\n            assetTitle: assetTitle,\n            assetDescription: assetDescription,\n            availablityDate: availablityDate,\n            location: location,\n            status: Status.Free,\n            owner: msg.sender,\n            recipient: address(0),\n            donatedDateFrom: 0,\n            donatedDateTo: 0,\n            requestCount: 0,\n            imageIPFSHash: imageIPFSHash\n        });\n        emit LogFree(assetId);\n    }\n\n    /// @notice Returns all donations of an donor(it shoud be called by a donor)\n    /// @dev There must be better way than returing always an array of 16\n    /// @return Asset returns an array of type asset and length 16 of donations of msg.sender\n    function getDonationsByOwner(uint pageNo)\n        public\n        view\n        returns (Asset[8] memory)\n    {\n        uint tokenCount = uint(balanceOf(msg.sender)); //donors[msg.sender].donationCount;\n        //uint32 pageNo = donors[msg.sender].pageNo;\n        uint nextStart = SafeMath.mul(pageNo , 8);//0\n        uint rem = SafeMath.sub( tokenCount , nextStart);//1\n        uint index = 0;\n        uint32 tokenId;\n        Asset[8] memory assetList;\n        if (rem < 0) {\n            return assetList;\n        } else {\n            if ((rem) < 8) {\n                index = rem;//1\n            } else {\n                index = 8;\n            }\n            uint loopEnd = SafeMath.add( nextStart , index);//9\n            for (uint i = nextStart; i < loopEnd; i++) {\n                tokenId = uint32(tokenOfOwnerByIndex(msg.sender, i));\n                assetList[SafeMath.sub(i , nextStart)] = donationList[tokenId];\n            }\n            return assetList;\n        }\n    }\n\n    /// @notice returns all donations\n    /// @dev There must be better way than returing always an array of 16\n    /// @return Asset returns an array of type asset and length 16 of all donations\n    function getAllDonations() public view returns (Asset[16] memory) {\n        uint32 index = 0;\n        Asset[16] memory assetList;\n        if (lastAssetId <= 16) {\n            index = lastAssetId;\n        } else {\n            index = 16;\n        }\n        for (uint32 i = 0; i < index; i++) {\n            assetList[i] = donationList[i];\n        }\n        return assetList;\n    }\n\n    /// @notice The ERC721 stadard for nunfungible token is used to maintain ownership of assets\n    /// @notice everytime a new token is minted based on current value of lastAssetId for assetOwner address, and then lastAssetId is increased\n    /// @param assetOwner the owner of the new asset\n    /// @return returns the id of new minted token\n    function mintToken(\n        address assetOwner //isDonor(msg.sender)\n    ) public whenNotPaused returns (uint32) {\n        _safeMint(assetOwner, lastAssetId);\n        uint32 assetId = lastAssetId;\n        lastAssetId = SafeCast.toUint32(SafeMath.add(uint256(lastAssetId),1));\n        return assetId;\n    }\n\n    /// @notice a donor can approve a specific request and this function assigns the recipient of this asset to the recipientAddress\n    /// @notice caller should be a donor and recipient should be a receiver\n    /// @dev change related request's status to approved\n    /// @param assetId unique id of asset to be donated\n    /// @param recipientAddress donation receiver\n    function donateAsset(uint32 assetId, address recipientAddress)\n        public\n        assetExists(assetId)\n        //isReceiver(recipientAddress)\n        assetIsFree(assetId)\n        isAssetOwner(assetId)\n        //isDonor(msg.sender)\n        whenNotPaused\n    {\n        donationList[assetId].recipient = recipientAddress;\n        donationList[assetId].status = Status.Donated;\n        emit LogDonated(assetId);\n    }\n\n    function getAssetRequestCount(uint32 assetId) public view returns (uint32) {\n        return donationList[assetId].requestCount;\n    }\n\n    function getDonation(uint32 assetId) public view returns (Asset memory) {\n        return donationList[assetId];\n    }\n}\n",
  "sourcePath": "/home/fatemeh/Desktop/Consensys Course/assetdonation/AssetDonation/contracts/DonateAsset.sol",
  "compiler": {
    "name": "solc",
    "version": "0.6.2+commit.bacdbe57.Emscripten.clang"
  },
  "schemaVersion": "3.3.1",
  "updatedAt": "2020-12-14T00:50:19.976Z",
  "networkType": "ethereum",
  "devdoc": {
    "author": "Fatemeh Heidari Soureshjani",
    "details": "time",
    "methods": {
      "addAsset(string,string,uint32,string,string)": {
        "details": "other asset struct members should be added",
        "params": {
          "assetDescription": "Descrption of the asset entered by owner",
          "availablityDate": "the first date the owner can donate the asset",
          "imageIPFSHash": "IPFS hash of the asset image uploaded by owner and saved to IPFS",
          "location": "the location of the donated asset"
        }
      },
      "approve(address,uint256)": {
        "details": "See {IERC721-approve}."
      },
      "balanceOf(address)": {
        "details": "See {IERC721-balanceOf}."
      },
      "baseURI()": {
        "details": "Returns the base URI set via {_setBaseURI}. This will be automatically added as a prefix in {tokenURI} to each token's URI, or to the token ID if no specific URI is set for that token ID."
      },
      "donateAsset(uint32,address)": {
        "details": "change related request's status to approved",
        "params": {
          "assetId": "unique id of asset to be donated",
          "recipientAddress": "donation receiver"
        }
      },
      "getAllDonations()": {
        "details": "There must be better way than returing always an array of 16",
        "returns": {
          "_0": "Asset returns an array of type asset and length 16 of all donations"
        }
      },
      "getApproved(uint256)": {
        "details": "See {IERC721-getApproved}."
      },
      "getDonationsByOwner(uint256)": {
        "details": "There must be better way than returing always an array of 16",
        "returns": {
          "_0": "Asset returns an array of type asset and length 16 of donations of msg.sender"
        }
      },
      "isApprovedForAll(address,address)": {
        "details": "See {IERC721-isApprovedForAll}."
      },
      "mintToken(address)": {
        "params": {
          "assetOwner": "the owner of the new asset"
        },
        "returns": {
          "_0": "returns the id of new minted token"
        }
      },
      "name()": {
        "details": "See {IERC721Metadata-name}."
      },
      "ownerOf(uint256)": {
        "details": "See {IERC721-ownerOf}."
      },
      "safeTransferFrom(address,address,uint256)": {
        "details": "See {IERC721-safeTransferFrom}."
      },
      "safeTransferFrom(address,address,uint256,bytes)": {
        "details": "See {IERC721-safeTransferFrom}."
      },
      "setApprovalForAll(address,bool)": {
        "details": "See {IERC721-setApprovalForAll}."
      },
      "supportsInterface(bytes4)": {
        "details": "See {IERC165-supportsInterface}.     * Time complexity O(1), guaranteed to always use less than 30 000 gas."
      },
      "symbol()": {
        "details": "See {IERC721Metadata-symbol}."
      },
      "tokenByIndex(uint256)": {
        "details": "See {IERC721Enumerable-tokenByIndex}."
      },
      "tokenOfOwnerByIndex(address,uint256)": {
        "details": "See {IERC721Enumerable-tokenOfOwnerByIndex}."
      },
      "tokenURI(uint256)": {
        "details": "See {IERC721Metadata-tokenURI}."
      },
      "totalSupply()": {
        "details": "See {IERC721Enumerable-totalSupply}."
      },
      "transferFrom(address,address,uint256)": {
        "details": "See {IERC721-transferFrom}."
      }
    },
    "title": "A Asset donation smart contract"
  },
  "userdoc": {
    "methods": {
      "addAsset(string,string,uint32,string,string)": {
        "notice": "Adds a new asset to list of donated assets(Should be called by a donor)"
      },
      "donateAsset(uint32,address)": {
        "notice": "a donor can approve a specific request and this function assigns the recipient of this asset to the recipientAddresscaller should be a donor and recipient should be a receiver"
      },
      "getAllDonations()": {
        "notice": "returns all donations"
      },
      "getDonationsByOwner(uint256)": {
        "notice": "Returns all donations of an donor(it shoud be called by a donor)"
      },
      "mintToken(address)": {
        "notice": "The ERC721 stadard for nunfungible token is used to maintain ownership of assetseverytime a new token is minted based on current value of lastAssetId for assetOwner address, and then lastAssetId is increased"
      }
    },
    "notice": "This contract facilitates donation of physical assets for specific periods of time between asset owners and receivers"
  }
}