{
  "contractName": "DonateAsset",
  "abi": [
    {
      "inputs": [
        {
          "internalType": "address",
          "name": "_adm",
          "type": "address"
        }
      ],
      "stateMutability": "nonpayable",
      "type": "constructor"
    },
    {
      "anonymous": false,
      "inputs": [
        {
          "indexed": true,
          "internalType": "address",
          "name": "owner",
          "type": "address"
        },
        {
          "indexed": true,
          "internalType": "address",
          "name": "approved",
          "type": "address"
        },
        {
          "indexed": true,
          "internalType": "uint256",
          "name": "tokenId",
          "type": "uint256"
        }
      ],
      "name": "Approval",
      "type": "event"
    },
    {
      "anonymous": false,
      "inputs": [
        {
          "indexed": true,
          "internalType": "address",
          "name": "owner",
          "type": "address"
        },
        {
          "indexed": true,
          "internalType": "address",
          "name": "operator",
          "type": "address"
        },
        {
          "indexed": false,
          "internalType": "bool",
          "name": "approved",
          "type": "bool"
        }
      ],
      "name": "ApprovalForAll",
      "type": "event"
    },
    {
      "anonymous": false,
      "inputs": [
        {
          "indexed": false,
          "internalType": "uint32",
          "name": "assetId",
          "type": "uint32"
        }
      ],
      "name": "LogDonated",
      "type": "event"
    },
    {
      "anonymous": false,
      "inputs": [
        {
          "indexed": false,
          "internalType": "uint32",
          "name": "assetId",
          "type": "uint32"
        }
      ],
      "name": "LogFree",
      "type": "event"
    },
    {
      "anonymous": false,
      "inputs": [
        {
          "indexed": true,
          "internalType": "address",
          "name": "from",
          "type": "address"
        },
        {
          "indexed": true,
          "internalType": "address",
          "name": "to",
          "type": "address"
        },
        {
          "indexed": true,
          "internalType": "uint256",
          "name": "tokenId",
          "type": "uint256"
        }
      ],
      "name": "Transfer",
      "type": "event"
    },
    {
      "inputs": [
        {
          "internalType": "address",
          "name": "to",
          "type": "address"
        },
        {
          "internalType": "uint256",
          "name": "tokenId",
          "type": "uint256"
        }
      ],
      "name": "approve",
      "outputs": [],
      "stateMutability": "nonpayable",
      "type": "function"
    },
    {
      "inputs": [
        {
          "internalType": "address",
          "name": "owner",
          "type": "address"
        }
      ],
      "name": "balanceOf",
      "outputs": [
        {
          "internalType": "uint256",
          "name": "",
          "type": "uint256"
        }
      ],
      "stateMutability": "view",
      "type": "function",
      "constant": true
    },
    {
      "inputs": [],
      "name": "baseURI",
      "outputs": [
        {
          "internalType": "string",
          "name": "",
          "type": "string"
        }
      ],
      "stateMutability": "view",
      "type": "function",
      "constant": true
    },
    {
      "inputs": [
        {
          "internalType": "uint32",
          "name": "",
          "type": "uint32"
        }
      ],
      "name": "donationList",
      "outputs": [
        {
          "internalType": "uint32",
          "name": "assetId",
          "type": "uint32"
        },
        {
          "internalType": "string",
          "name": "assetTitle",
          "type": "string"
        },
        {
          "internalType": "string",
          "name": "assetDescription",
          "type": "string"
        },
        {
          "internalType": "uint32",
          "name": "availablityDate",
          "type": "uint32"
        },
        {
          "internalType": "string",
          "name": "location",
          "type": "string"
        },
        {
          "internalType": "enum DonateAsset.Status",
          "name": "status",
          "type": "uint8"
        },
        {
          "internalType": "address",
          "name": "owner",
          "type": "address"
        },
        {
          "internalType": "address",
          "name": "recipient",
          "type": "address"
        },
        {
          "internalType": "uint32",
          "name": "donatedDateFrom",
          "type": "uint32"
        },
        {
          "internalType": "uint32",
          "name": "donatedDateTo",
          "type": "uint32"
        },
        {
          "internalType": "uint32",
          "name": "requestCount",
          "type": "uint32"
        },
        {
          "internalType": "string",
          "name": "imageIPFSHash",
          "type": "string"
        }
      ],
      "stateMutability": "view",
      "type": "function",
      "constant": true
    },
    {
      "inputs": [
        {
          "internalType": "uint256",
          "name": "tokenId",
          "type": "uint256"
        }
      ],
      "name": "getApproved",
      "outputs": [
        {
          "internalType": "address",
          "name": "",
          "type": "address"
        }
      ],
      "stateMutability": "view",
      "type": "function",
      "constant": true
    },
    {
      "inputs": [
        {
          "internalType": "address",
          "name": "owner",
          "type": "address"
        },
        {
          "internalType": "address",
          "name": "operator",
          "type": "address"
        }
      ],
      "name": "isApprovedForAll",
      "outputs": [
        {
          "internalType": "bool",
          "name": "",
          "type": "bool"
        }
      ],
      "stateMutability": "view",
      "type": "function",
      "constant": true
    },
    {
      "inputs": [],
      "name": "name",
      "outputs": [
        {
          "internalType": "string",
          "name": "",
          "type": "string"
        }
      ],
      "stateMutability": "view",
      "type": "function",
      "constant": true
    },
    {
      "inputs": [
        {
          "internalType": "uint256",
          "name": "tokenId",
          "type": "uint256"
        }
      ],
      "name": "ownerOf",
      "outputs": [
        {
          "internalType": "address",
          "name": "",
          "type": "address"
        }
      ],
      "stateMutability": "view",
      "type": "function",
      "constant": true
    },
    {
      "inputs": [
        {
          "internalType": "address",
          "name": "from",
          "type": "address"
        },
        {
          "internalType": "address",
          "name": "to",
          "type": "address"
        },
        {
          "internalType": "uint256",
          "name": "tokenId",
          "type": "uint256"
        }
      ],
      "name": "safeTransferFrom",
      "outputs": [],
      "stateMutability": "nonpayable",
      "type": "function"
    },
    {
      "inputs": [
        {
          "internalType": "address",
          "name": "from",
          "type": "address"
        },
        {
          "internalType": "address",
          "name": "to",
          "type": "address"
        },
        {
          "internalType": "uint256",
          "name": "tokenId",
          "type": "uint256"
        },
        {
          "internalType": "bytes",
          "name": "_data",
          "type": "bytes"
        }
      ],
      "name": "safeTransferFrom",
      "outputs": [],
      "stateMutability": "nonpayable",
      "type": "function"
    },
    {
      "inputs": [
        {
          "internalType": "address",
          "name": "operator",
          "type": "address"
        },
        {
          "internalType": "bool",
          "name": "approved",
          "type": "bool"
        }
      ],
      "name": "setApprovalForAll",
      "outputs": [],
      "stateMutability": "nonpayable",
      "type": "function"
    },
    {
      "inputs": [
        {
          "internalType": "bytes4",
          "name": "interfaceId",
          "type": "bytes4"
        }
      ],
      "name": "supportsInterface",
      "outputs": [
        {
          "internalType": "bool",
          "name": "",
          "type": "bool"
        }
      ],
      "stateMutability": "view",
      "type": "function",
      "constant": true
    },
    {
      "inputs": [],
      "name": "symbol",
      "outputs": [
        {
          "internalType": "string",
          "name": "",
          "type": "string"
        }
      ],
      "stateMutability": "view",
      "type": "function",
      "constant": true
    },
    {
      "inputs": [
        {
          "internalType": "uint256",
          "name": "index",
          "type": "uint256"
        }
      ],
      "name": "tokenByIndex",
      "outputs": [
        {
          "internalType": "uint256",
          "name": "",
          "type": "uint256"
        }
      ],
      "stateMutability": "view",
      "type": "function",
      "constant": true
    },
    {
      "inputs": [
        {
          "internalType": "address",
          "name": "owner",
          "type": "address"
        },
        {
          "internalType": "uint256",
          "name": "index",
          "type": "uint256"
        }
      ],
      "name": "tokenOfOwnerByIndex",
      "outputs": [
        {
          "internalType": "uint256",
          "name": "",
          "type": "uint256"
        }
      ],
      "stateMutability": "view",
      "type": "function",
      "constant": true
    },
    {
      "inputs": [
        {
          "internalType": "uint256",
          "name": "tokenId",
          "type": "uint256"
        }
      ],
      "name": "tokenURI",
      "outputs": [
        {
          "internalType": "string",
          "name": "",
          "type": "string"
        }
      ],
      "stateMutability": "view",
      "type": "function",
      "constant": true
    },
    {
      "inputs": [],
      "name": "totalSupply",
      "outputs": [
        {
          "internalType": "uint256",
          "name": "",
          "type": "uint256"
        }
      ],
      "stateMutability": "view",
      "type": "function",
      "constant": true
    },
    {
      "inputs": [
        {
          "internalType": "address",
          "name": "from",
          "type": "address"
        },
        {
          "internalType": "address",
          "name": "to",
          "type": "address"
        },
        {
          "internalType": "uint256",
          "name": "tokenId",
          "type": "uint256"
        }
      ],
      "name": "transferFrom",
      "outputs": [],
      "stateMutability": "nonpayable",
      "type": "function"
    },
    {
      "inputs": [
        {
          "components": [
            {
              "internalType": "uint32",
              "name": "assetId",
              "type": "uint32"
            },
            {
              "internalType": "string",
              "name": "assetTitle",
              "type": "string"
            },
            {
              "internalType": "string",
              "name": "assetDescription",
              "type": "string"
            },
            {
              "internalType": "uint32",
              "name": "availablityDate",
              "type": "uint32"
            },
            {
              "internalType": "string",
              "name": "location",
              "type": "string"
            },
            {
              "internalType": "enum DonateAsset.Status",
              "name": "status",
              "type": "uint8"
            },
            {
              "internalType": "address",
              "name": "owner",
              "type": "address"
            },
            {
              "internalType": "address",
              "name": "recipient",
              "type": "address"
            },
            {
              "internalType": "uint32",
              "name": "donatedDateFrom",
              "type": "uint32"
            },
            {
              "internalType": "uint32",
              "name": "donatedDateTo",
              "type": "uint32"
            },
            {
              "internalType": "uint32",
              "name": "requestCount",
              "type": "uint32"
            },
            {
              "internalType": "string",
              "name": "imageIPFSHash",
              "type": "string"
            }
          ],
          "internalType": "struct DonateAsset.Asset",
          "name": "asset",
          "type": "tuple"
        }
      ],
      "name": "UpdateAsset",
      "outputs": [],
      "stateMutability": "nonpayable",
      "type": "function"
    },
    {
      "inputs": [
        {
          "internalType": "string",
          "name": "assetTitle",
          "type": "string"
        },
        {
          "internalType": "string",
          "name": "assetDescription",
          "type": "string"
        },
        {
          "internalType": "uint32",
          "name": "availablityDate",
          "type": "uint32"
        },
        {
          "internalType": "string",
          "name": "location",
          "type": "string"
        },
        {
          "internalType": "string",
          "name": "imageIPFSHash",
          "type": "string"
        }
      ],
      "name": "addAsset",
      "outputs": [],
      "stateMutability": "nonpayable",
      "type": "function"
    },
    {
      "inputs": [
        {
          "internalType": "uint32",
          "name": "pageNo",
          "type": "uint32"
        }
      ],
      "name": "getDonationsByOwner",
      "outputs": [
        {
          "components": [
            {
              "internalType": "uint32",
              "name": "assetId",
              "type": "uint32"
            },
            {
              "internalType": "string",
              "name": "assetTitle",
              "type": "string"
            },
            {
              "internalType": "string",
              "name": "assetDescription",
              "type": "string"
            },
            {
              "internalType": "uint32",
              "name": "availablityDate",
              "type": "uint32"
            },
            {
              "internalType": "string",
              "name": "location",
              "type": "string"
            },
            {
              "internalType": "enum DonateAsset.Status",
              "name": "status",
              "type": "uint8"
            },
            {
              "internalType": "address",
              "name": "owner",
              "type": "address"
            },
            {
              "internalType": "address",
              "name": "recipient",
              "type": "address"
            },
            {
              "internalType": "uint32",
              "name": "donatedDateFrom",
              "type": "uint32"
            },
            {
              "internalType": "uint32",
              "name": "donatedDateTo",
              "type": "uint32"
            },
            {
              "internalType": "uint32",
              "name": "requestCount",
              "type": "uint32"
            },
            {
              "internalType": "string",
              "name": "imageIPFSHash",
              "type": "string"
            }
          ],
          "internalType": "struct DonateAsset.Asset[8]",
          "name": "",
          "type": "tuple[8]"
        }
      ],
      "stateMutability": "view",
      "type": "function",
      "constant": true
    },
    {
      "inputs": [],
      "name": "getAllDonations",
      "outputs": [
        {
          "components": [
            {
              "internalType": "uint32",
              "name": "assetId",
              "type": "uint32"
            },
            {
              "internalType": "string",
              "name": "assetTitle",
              "type": "string"
            },
            {
              "internalType": "string",
              "name": "assetDescription",
              "type": "string"
            },
            {
              "internalType": "uint32",
              "name": "availablityDate",
              "type": "uint32"
            },
            {
              "internalType": "string",
              "name": "location",
              "type": "string"
            },
            {
              "internalType": "enum DonateAsset.Status",
              "name": "status",
              "type": "uint8"
            },
            {
              "internalType": "address",
              "name": "owner",
              "type": "address"
            },
            {
              "internalType": "address",
              "name": "recipient",
              "type": "address"
            },
            {
              "internalType": "uint32",
              "name": "donatedDateFrom",
              "type": "uint32"
            },
            {
              "internalType": "uint32",
              "name": "donatedDateTo",
              "type": "uint32"
            },
            {
              "internalType": "uint32",
              "name": "requestCount",
              "type": "uint32"
            },
            {
              "internalType": "string",
              "name": "imageIPFSHash",
              "type": "string"
            }
          ],
          "internalType": "struct DonateAsset.Asset[16]",
          "name": "",
          "type": "tuple[16]"
        }
      ],
      "stateMutability": "view",
      "type": "function",
      "constant": true
    },
    {
      "inputs": [
        {
          "internalType": "address",
          "name": "assetOwner",
          "type": "address"
        }
      ],
      "name": "mintToken",
      "outputs": [
        {
          "internalType": "uint32",
          "name": "",
          "type": "uint32"
        }
      ],
      "stateMutability": "nonpayable",
      "type": "function"
    },
    {
      "inputs": [
        {
          "internalType": "uint32",
          "name": "assetId",
          "type": "uint32"
        },
        {
          "internalType": "address",
          "name": "recipientAddress",
          "type": "address"
        }
      ],
      "name": "donateAsset",
      "outputs": [],
      "stateMutability": "nonpayable",
      "type": "function"
    },
    {
      "inputs": [
        {
          "internalType": "uint32",
          "name": "assetId",
          "type": "uint32"
        }
      ],
      "name": "getAssetRequestCount",
      "outputs": [
        {
          "internalType": "uint32",
          "name": "",
          "type": "uint32"
        }
      ],
      "stateMutability": "view",
      "type": "function",
      "constant": true
    },
    {
      "inputs": [
        {
          "internalType": "uint32",
          "name": "assetId",
          "type": "uint32"
        }
      ],
      "name": "getDonation",
      "outputs": [
        {
          "components": [
            {
              "internalType": "uint32",
              "name": "assetId",
              "type": "uint32"
            },
            {
              "internalType": "string",
              "name": "assetTitle",
              "type": "string"
            },
            {
              "internalType": "string",
              "name": "assetDescription",
              "type": "string"
            },
            {
              "internalType": "uint32",
              "name": "availablityDate",
              "type": "uint32"
            },
            {
              "internalType": "string",
              "name": "location",
              "type": "string"
            },
            {
              "internalType": "enum DonateAsset.Status",
              "name": "status",
              "type": "uint8"
            },
            {
              "internalType": "address",
              "name": "owner",
              "type": "address"
            },
            {
              "internalType": "address",
              "name": "recipient",
              "type": "address"
            },
            {
              "internalType": "uint32",
              "name": "donatedDateFrom",
              "type": "uint32"
            },
            {
              "internalType": "uint32",
              "name": "donatedDateTo",
              "type": "uint32"
            },
            {
              "internalType": "uint32",
              "name": "requestCount",
              "type": "uint32"
            },
            {
              "internalType": "string",
              "name": "imageIPFSHash",
              "type": "string"
            }
          ],
          "internalType": "struct DonateAsset.Asset",
          "name": "",
          "type": "tuple"
        }
      ],
      "stateMutability": "view",
      "type": "function",
      "constant": true
    }
  ],
  "bytecode": "0x60806040523480156200001157600080fd5b5060405162003acb38038062003acb833981016040819052620000349162000237565b604080518082018252600781526626bcaa37b5b2b760c91b602080830191909152825180840190935260038352624d545360e81b9083015290620000886301ffc9a760e01b6001600160e01b036200013716565b81516200009d90600690602085019062000192565b508051620000b390600790602084019062000192565b50620000cf6380ac58cd60e01b6001600160e01b036200013716565b620000ea635b5e139f60e01b6001600160e01b036200013716565b6200010563780e9d6360e01b6001600160e01b036200013716565b5050600a80546001600160a01b0319166001600160a01b03929092169190911763ffffffff60a01b191690556200029e565b6001600160e01b031980821614156200016d5760405162461bcd60e51b8152600401620001649062000267565b60405180910390fd5b6001600160e01b0319166000908152602081905260409020805460ff19166001179055565b828054600181600116156101000203166002900490600052602060002090601f016020900481019282601f10620001d557805160ff191683800117855562000205565b8280016001018555821562000205579182015b8281111562000205578251825591602001919060010190620001e8565b506200021392915062000217565b5090565b6200023491905b808211156200021357600081556001016200021e565b90565b60006020828403121562000249578081fd5b81516001600160a01b038116811462000260578182fd5b9392505050565b6020808252601c908201527f4552433136353a20696e76616c696420696e7465726661636520696400000000604082015260600190565b61381d80620002ae6000396000f3fe608060405234801561001057600080fd5b506004361061013e5760003560e01c806301173a741461014357806301ffc9a71461016c57806306fdde031461018c578063081812fc146101a1578063095ea7b3146101c15780630feea26e146101d657806318160ddd146101f657806321f54c211461020b57806323b872dd1461021e5780632f745c591461023157806338a59a071461024457806342842e0e1461025957806349d17fe91461026c5780634bb0eaaf1461027f5780634f6ccce7146102aa5780636352211e146102bd5780636c0360eb146102d05780636de50578146102d857806370a08231146102eb57806371884136146102fe57806395d89b411461031e578063a22cb46514610326578063b88d4fde14610339578063c87b56dd1461034c578063cac78d851461035f578063e985e9c514610372575b600080fd5b6101566101513660046129c0565b610385565b60405161016391906135f2565b60405180910390f35b61017f61017a366004612b33565b610470565b60405161016391906130c8565b61019461048f565b60405161016391906130d3565b6101b46101af366004612d9c565b610526565b6040516101639190612ff1565b6101d46101cf366004612aed565b610572565b005b6101e96101e4366004612db4565b61060a565b6040516101639190613086565b6101fe6109d2565b60405161016391906135e9565b610156610219366004612db4565b6109e3565b6101d461022c366004612a0f565b610a08565b6101fe61023f366004612aed565b610a40565b61024c610a71565b6040516101639190613038565b6101d4610267366004612a0f565b610e05565b6101d461027a366004612dd0565b610e20565b61029261028d366004612db4565b61102a565b6040516101639c9b9a99989796959493929190613603565b6101fe6102b8366004612d9c565b6112e2565b6101b46102cb366004612d9c565b6112fe565b61019461132c565b6101d46102e6366004612c27565b61138d565b6101fe6102f93660046129c0565b611440565b61031161030c366004612db4565b611489565b60405161016391906135d6565b6101946117a9565b6101d4610334366004612ab6565b61180a565b6101d4610347366004612a4f565b6118d8565b61019461035a366004612d9c565b611917565b6101d461036d366004612b6b565b611a61565b61017f6103803660046129db565b611d97565b600a54604080516309d2f83f60e41b815290516000926001600160a01b031691639d2f83f091600480830192602092919082900301818787803b1580156103cb57600080fd5b505af11580156103df573d6000803e3d6000fd5b505050506040513d601f19601f820116820180604052506104039190810190612b17565b1561040d57600080fd5b600a54610428908390600160a01b900463ffffffff16611dc5565b600a54600160a01b900463ffffffff16610443816001611de3565b600a805463ffffffff92909216600160a01b0263ffffffff60a01b1990921691909117905590505b919050565b6001600160e01b03191660009081526020819052604090205460ff1690565b60068054604080516020601f600260001961010060018816150201909516949094049384018190048102820181019092528281526060939092909183018282801561051b5780601f106104f05761010080835404028352916020019161051b565b820191906000526020600020905b8154815290600101906020018083116104fe57829003601f168201915b505050505090505b90565b600061053182611e08565b6105565760405162461bcd60e51b815260040161054d90613429565b60405180910390fd5b506000908152600460205260409020546001600160a01b031690565b600061057d826112fe565b9050806001600160a01b0316836001600160a01b031614156105b15760405162461bcd60e51b815260040161054d9061350d565b806001600160a01b03166105c3611e1b565b6001600160a01b031614806105df57506105df81610380611e1b565b6105fb5760405162461bcd60e51b815260040161054d906132cf565b6106058383611e1f565b505050565b6106126127b0565b600061061d33611440565b63ffffffff16905060006106388463ffffffff166008611e8d565b905060006106468383611ec7565b90506000806106536127b0565b600884101561066457839250610669565b600892505b60006106758685611de3565b9050855b818110156109c25761068b3382610a40565b63ffffffff8181166000908152600b602090815260409182902082516101808101845281549094168452600180820180548551600261010094831615949094026000190190911692909204601f8101859004850283018501909552848252959950939490938583019390928301828280156107475780601f1061071c57610100808354040283529160200191610747565b820191906000526020600020905b81548152906001019060200180831161072a57829003601f168201915b5050509183525050600282810180546040805160206001841615610100026000190190931694909404601f810183900483028501830190915280845293810193908301828280156107d95780601f106107ae576101008083540402835291602001916107d9565b820191906000526020600020905b8154815290600101906020018083116107bc57829003601f168201915b5050509183525050600382015463ffffffff1660208083019190915260048301805460408051601f6002600019600186161561010002019094169390930492830185900485028101850182528281529401939283018282801561087d5780601f106108525761010080835404028352916020019161087d565b820191906000526020600020905b81548152906001019060200180831161086057829003601f168201915b5050509183525050600582015460209091019060ff16600481111561089e57fe5b60048111156108a957fe5b81526005820154610100908190046001600160a01b039081166020808501919091526006850154918216604080860191909152600160a01b830463ffffffff9081166060870152600160c01b840481166080870152600160e01b90930490921660a08501526007850180548351600260018316159096026000190190911694909404601f810183900483028501830190935282845260c09094019391908301828280156109975780601f1061096c57610100808354040283529160200191610997565b820191906000526020600020905b81548152906001019060200180831161097a57829003601f168201915b505050505081525050836109ab838a611ec7565b600881106109b557fe5b6020020152600101610679565b508197505050505050505061046b565b60006109de6002611f09565b905090565b63ffffffff9081166000908152600b6020526040902060060154600160e01b90041690565b610a19610a13611e1b565b82611f14565b610a355760405162461bcd60e51b815260040161054d9061354e565b610605838383611f99565b6001600160a01b0382166000908152600160205260408120610a68908363ffffffff6120a716565b90505b92915050565b610a796127de565b6000610a836127de565b600a546010600160a01b90910463ffffffff1611610ab257600a54600160a01b900463ffffffff169150610ab7565b601091505b60005b8263ffffffff168163ffffffff161015610dfe5763ffffffff8181166000908152600b602090815260409182902082516101808101845281549094168452600180820180548551600261010094831615949094026000190190911692909204601f8101859004850283018501909552848252919385840193919291830182828015610b865780601f10610b5b57610100808354040283529160200191610b86565b820191906000526020600020905b815481529060010190602001808311610b6957829003601f168201915b5050509183525050600282810180546040805160206001841615610100026000190190931694909404601f81018390048302850183019091528084529381019390830182828015610c185780601f10610bed57610100808354040283529160200191610c18565b820191906000526020600020905b815481529060010190602001808311610bfb57829003601f168201915b5050509183525050600382015463ffffffff1660208083019190915260048301805460408051601f60026000196001861615610100020190941693909304928301859004850281018501825282815294019392830182828015610cbc5780601f10610c9157610100808354040283529160200191610cbc565b820191906000526020600020905b815481529060010190602001808311610c9f57829003601f168201915b5050509183525050600582015460209091019060ff166004811115610cdd57fe5b6004811115610ce857fe5b81526005820154610100908190046001600160a01b039081166020808501919091526006850154918216604080860191909152600160a01b830463ffffffff9081166060870152600160c01b840481166080870152600160e01b90930490921660a08501526007850180548351600260018316159096026000190190911694909404601f810183900483028501830190935282845260c0909401939190830182828015610dd65780601f10610dab57610100808354040283529160200191610dd6565b820191906000526020600020905b815481529060010190602001808311610db957829003601f168201915b505050505081525050828263ffffffff1660108110610df157fe5b6020020152600101610aba565b5091505090565b610605838383604051806020016040528060008152506118d8565b63ffffffff82166000908152600b6020526040902060050154829061010090046001600160a01b0316610e655760405162461bcd60e51b815260040161054d90613128565b63ffffffff83166000908152600b602052604090206006015483906001600160a01b0316158015610eea575063ffffffff81166000908152600b602052604081206005015460ff166004811115610eb857fe5b1480610eea5750600163ffffffff82166000908152600b602052604090206005015460ff166004811115610ee857fe5b145b610ef357600080fd5b63ffffffff841633610f04826112fe565b6001600160a01b031614610f1757600080fd5b600a60009054906101000a90046001600160a01b03166001600160a01b0316639d2f83f06040518163ffffffff1660e01b8152600401602060405180830381600087803b158015610f6757600080fd5b505af1158015610f7b573d6000803e3d6000fd5b505050506040513d601f19601f82011682018060405250610f9f9190810190612b17565b15610fa957600080fd5b63ffffffff85166000908152600b6020526040908190206006810180546001600160a01b0388166001600160a01b0319909116179055600501805460ff19166002179055517f9869ee1482368b4ea48cb13a191ba8022b944e7785dbe1804c4e4c11ed347dd19061101b9087906135f2565b60405180910390a15050505050565b600b602090815260009182526040918290208054600180830180548651600261010094831615949094026000190190911692909204601f810186900486028301860190965285825263ffffffff9092169492939092908301828280156110d15780601f106110a6576101008083540402835291602001916110d1565b820191906000526020600020905b8154815290600101906020018083116110b457829003601f168201915b50505060028085018054604080516020601f60001961010060018716150201909416959095049283018590048502810185019091528181529596959450909250908301828280156111635780601f1061113857610100808354040283529160200191611163565b820191906000526020600020905b81548152906001019060200180831161114657829003601f168201915b50505050600383015460048401805460408051602060026101006001861615026000190190941693909304601f8101849004840282018401909252818152959663ffffffff90941695939450908301828280156112015780601f106111d657610100808354040283529160200191611201565b820191906000526020600020905b8154815290600101906020018083116111e457829003601f168201915b50505050600583015460068401546007850180546040805160206002610100600186161581026000190190951604601f8101829004820283018201909352828252979860ff871698939096046001600160a01b039081169750851695600160a01b860463ffffffff90811696600160c01b8104821696600160e01b90910490911694919390918301828280156112d85780601f106112ad576101008083540402835291602001916112d8565b820191906000526020600020905b8154815290600101906020018083116112bb57829003601f168201915b505050505090508c565b6000806112f660028463ffffffff6120b316565b509392505050565b6000610a6b8260405180606001604052806029815260200161379f602991396002919063ffffffff6120cf16565b60098054604080516020601f600260001961010060018816150201909516949094049384018190048102820181019092528281526060939092909183018282801561051b5780601f106104f05761010080835404028352916020019161051b565b805163ffffffff166000908152600b602052604090206005015460ff1660048111156113b557fe5b8160a0015160048111156113c557fe5b11156114035760a0810151815163ffffffff166000908152600b60205260409020600501805460ff191660018360048111156113fd57fe5b02179055505b610140810151905163ffffffff9081166000908152600b60205260409020600601805491909216600160e01b026001600160e01b03909116179055565b60006001600160a01b0382166114685760405162461bcd60e51b815260040161054d90613327565b6001600160a01b0382166000908152600160205260409020610a6b90611f09565b61149161280c565b63ffffffff8281166000908152600b602090815260409182902082516101808101845281549094168452600180820180548551600261010094831615949094026000190190911692909204601f81018590048502830185019095528482529193858401939192918301828280156115495780601f1061151e57610100808354040283529160200191611549565b820191906000526020600020905b81548152906001019060200180831161152c57829003601f168201915b5050509183525050600282810180546040805160206001841615610100026000190190931694909404601f810183900483028501830190915280845293810193908301828280156115db5780601f106115b0576101008083540402835291602001916115db565b820191906000526020600020905b8154815290600101906020018083116115be57829003601f168201915b5050509183525050600382015463ffffffff1660208083019190915260048301805460408051601f6002600019600186161561010002019094169390930492830185900485028101850182528281529401939283018282801561167f5780601f106116545761010080835404028352916020019161167f565b820191906000526020600020905b81548152906001019060200180831161166257829003601f168201915b5050509183525050600582015460209091019060ff1660048111156116a057fe5b60048111156116ab57fe5b81526005820154610100908190046001600160a01b039081166020808501919091526006850154918216604080860191909152600160a01b830463ffffffff9081166060870152600160c01b840481166080870152600160e01b90930490921660a08501526007850180548351600260018316159096026000190190911694909404601f810183900483028501830190935282845260c09094019391908301828280156117995780601f1061176e57610100808354040283529160200191611799565b820191906000526020600020905b81548152906001019060200180831161177c57829003601f168201915b5050505050815250509050919050565b60078054604080516020601f600260001961010060018816150201909516949094049384018190048102820181019092528281526060939092909183018282801561051b5780601f106104f05761010080835404028352916020019161051b565b611812611e1b565b6001600160a01b0316826001600160a01b031614156118435760405162461bcd60e51b815260040161054d90613250565b8060056000611850611e1b565b6001600160a01b03908116825260208083019390935260409182016000908120918716808252919093529120805460ff191692151592909217909155611894611e1b565b6001600160a01b03167f17307eab39ab6107e8899845ad3d59bd9653f200f220920489ca2b5937696c31836040516118cc91906130c8565b60405180910390a35050565b6118e96118e3611e1b565b83611f14565b6119055760405162461bcd60e51b815260040161054d9061354e565b611911848484846120e6565b50505050565b606061192282611e08565b61193e5760405162461bcd60e51b815260040161054d906134be565b60008281526008602090815260409182902080548351601f60026000196101006001861615020190931692909204918201849004840281018401909452808452606093928301828280156119d35780601f106119a8576101008083540402835291602001916119d3565b820191906000526020600020905b8154815290600101906020018083116119b657829003601f168201915b5050600954939450505050600260001961010060018416150201909116046119fc57905061046b565b805115611a2e57600981604051602001611a17929190612f70565b60405160208183030381529060405291505061046b565b6009611a3984612119565b604051602001611a4a929190612f70565b604051602081830303815290604052915050919050565b600a60009054906101000a90046001600160a01b03166001600160a01b0316639d2f83f06040518163ffffffff1660e01b8152600401602060405180830381600087803b158015611ab157600080fd5b505af1158015611ac5573d6000803e3d6000fd5b505050506040513d601f19601f82011682018060405250611ae99190810190612b17565b15611af357600080fd5b600a60009054906101000a90046001600160a01b03166001600160a01b03166379e085a26040518163ffffffff1660e01b8152600401600060405180830381600087803b158015611b4357600080fd5b505af1158015611b57573d6000803e3d6000fd5b505050506000611b6633610385565b90506040518061018001604052808263ffffffff1681526020018781526020018681526020018563ffffffff16815260200184815260200160006004811115611bab57fe5b81523360208083019190915260006040808401829052606084018290526080840182905260a0840182905260c090930186905263ffffffff8581168252600b83529290208351815463ffffffff19169316929092178255828101518051611c189260018501920190612886565b5060408201518051611c34916002840191602090910190612886565b50606082015160038201805463ffffffff191663ffffffff90921691909117905560808201518051611c70916004840191602090910190612886565b5060a082015160058201805460ff19166001836004811115611c8e57fe5b021790555060c0820151600582018054610100600160a81b0319166101006001600160a01b0393841681029190911790915560e0840151600684018054928601516101208701516101408801516001600160a01b0319909516939095169290921763ffffffff60a01b1916600160a01b63ffffffff938416021763ffffffff60c01b1916600160c01b94831694909402939093176001600160e01b0316600160e01b91909216021790556101608201518051611d54916007840191602090910190612886565b509050507f02be38ab1ac25d38c43ba8eef640edc80bd26853df4de2f92af4fa493699009c81604051611d8791906135f2565b60405180910390a1505050505050565b6001600160a01b03918216600090815260056020908152604080832093909416825291909152205460ff1690565b611ddf8282604051806020016040528060008152506121dd565b5050565b600082820183811015610a685760405162461bcd60e51b815260040161054d906131d7565b6000610a6b60028363ffffffff61221016565b3390565b600081815260046020526040902080546001600160a01b0319166001600160a01b0384169081179091558190611e54826112fe565b6001600160a01b03167f8c5be1e5ebec7d5bd14f71427d1e84f3dd0314c0f7b2291e5b200ac8c7c3b92560405160405180910390a45050565b600082611e9c57506000610a6b565b82820282848281611ea957fe5b0414610a685760405162461bcd60e51b815260040161054d906133e8565b6000610a6883836040518060400160405280601e81526020017f536166654d6174683a207375627472616374696f6e206f766572666c6f77000081525061221c565b6000610a6b82612248565b6000611f1f82611e08565b611f3b5760405162461bcd60e51b815260040161054d90613283565b6000611f46836112fe565b9050806001600160a01b0316846001600160a01b03161480611f815750836001600160a01b0316611f7684610526565b6001600160a01b0316145b80611f915750611f918185611d97565b949350505050565b826001600160a01b0316611fac826112fe565b6001600160a01b031614611fd25760405162461bcd60e51b815260040161054d90613475565b6001600160a01b038216611ff85760405162461bcd60e51b815260040161054d9061320c565b612003838383610605565b61200e600082611e1f565b6001600160a01b0383166000908152600160205260409020612036908263ffffffff61224c16565b506001600160a01b038216600090815260016020526040902061205f908263ffffffff61225816565b506120726002828463ffffffff61226416565b5080826001600160a01b0316846001600160a01b03166000805160206137c883398151915260405160405180910390a4505050565b6000610a68838361227a565b60008080806120c286866122bf565b9097909650945050505050565b60006120dc84848461231b565b90505b9392505050565b6120f1848484611f99565b6120fd8484848461237a565b6119115760405162461bcd60e51b815260040161054d9061314f565b60608161213e57506040805180820190915260018152600360fc1b602082015261046b565b8160005b811561215657600101600a82049150612142565b6060816040519080825280601f01601f191660200182016040528015612183576020820181803883390190505b50859350905060001982015b83156121d457600a840660300160f81b828280600190039350815181106121b257fe5b60200101906001600160f81b031916908160001a905350600a8404935061218f565b50949350505050565b6121e7838361245f565b6121f4600084848461237a565b6106055760405162461bcd60e51b815260040161054d9061314f565b6000610a68838361251d565b600081848411156122405760405162461bcd60e51b815260040161054d91906130d3565b505050900390565b5490565b6000610a688383612535565b6000610a6883836125fb565b60006120dc84846001600160a01b038516612645565b8154600090821061229d5760405162461bcd60e51b815260040161054d906130e6565b8260000182815481106122ac57fe5b9060005260206000200154905092915050565b8154600090819083106122e45760405162461bcd60e51b815260040161054d90613371565b60008460000184815481106122f557fe5b906000526020600020906002020190508060000154816001015492509250509250929050565b6000828152600184016020526040812054828161234b5760405162461bcd60e51b815260040161054d91906130d3565b5084600001600182038154811061235e57fe5b9060005260206000209060020201600101549150509392505050565b600061238e846001600160a01b03166126dc565b61239a57506001611f91565b6060612428630a85bd0160e11b6123af611e1b565b8887876040516024016123c59493929190613005565b604051602081830303815290604052906001600160e01b0319166020820180516001600160e01b03838183161783525050505060405180606001604052806032815260200161376d603291396001600160a01b038816919063ffffffff6126e216565b90506000818060200190516124409190810190612b4f565b6001600160e01b031916630a85bd0160e11b1492505050949350505050565b6001600160a01b0382166124855760405162461bcd60e51b815260040161054d906133b3565b61248e81611e08565b156124ab5760405162461bcd60e51b815260040161054d906131a1565b6124b760008383610605565b6001600160a01b03821660009081526001602052604090206124df908263ffffffff61225816565b506124f26002828463ffffffff61226416565b5060405181906001600160a01b038416906000906000805160206137c8833981519152908290a45050565b60009081526001919091016020526040902054151590565b600081815260018301602052604081205480156125f1578354600019808301919081019060009087908390811061256857fe5b906000526020600020015490508087600001848154811061258557fe5b6000918252602080832090910192909255828152600189810190925260409020908401905586548790806125b557fe5b60019003818190600052602060002001600090559055866001016000878152602001908152602001600020600090556001945050505050610a6b565b6000915050610a6b565b6000612607838361251d565b61263d57508154600181810184556000848152602080822090930184905584548482528286019093526040902091909155610a6b565b506000610a6b565b6000828152600184016020526040812054806126aa5750506040805180820182528381526020808201848152865460018181018955600089815284812095516002909302909501918255915190820155865486845281880190925292909120556120df565b828560000160018303815481106126bd57fe5b90600052602060002090600202016001018190555060009150506120df565b3b151590565b60606120dc848460008560606126f7856126dc565b6127135760405162461bcd60e51b815260040161054d9061359f565b60006060866001600160a01b031685876040516127309190612f54565b60006040518083038185875af1925050503d806000811461276d576040519150601f19603f3d011682016040523d82523d6000602084013e612772565b606091505b50915091508115612786579150611f919050565b8051156127965780518082602001fd5b8360405162461bcd60e51b815260040161054d91906130d3565b6040518061010001604052806008905b6127c861280c565b8152602001906001900390816127c05790505090565b6040518061020001604052806010905b6127f661280c565b8152602001906001900390816127ee5790505090565b604051806101800160405280600063ffffffff1681526020016060815260200160608152602001600063ffffffff168152602001606081526020016000600481111561285457fe5b81526000602082018190526040820181905260608083018290526080830182905260a083019190915260c09091015290565b828054600181600116156101000203166002900490600052602060002090601f016020900481019282601f106128c757805160ff19168380011785556128f4565b828001600101855582156128f4579182015b828111156128f45782518255916020019190600101906128d9565b50612900929150612904565b5090565b61052391905b80821115612900576000815560010161290a565b80356001600160a01b0381168114610a6b57600080fd5b600082601f830112612945578081fd5b81356001600160401b0381111561295a578182fd5b61296d601f8201601f19166020016136cc565b915080825283602082850101111561298457600080fd5b8060208401602084013760009082016020015292915050565b803560058110610a6b57600080fd5b803563ffffffff81168114610a6b57600080fd5b6000602082840312156129d1578081fd5b610a68838361291e565b600080604083850312156129ed578081fd5b6129f7848461291e565b9150612a06846020850161291e565b90509250929050565b600080600060608486031215612a23578081fd5b8335612a2e8161371e565b92506020840135612a3e8161371e565b929592945050506040919091013590565b60008060008060808587031215612a64578081fd5b612a6e868661291e565b9350612a7d866020870161291e565b92506040850135915060608501356001600160401b03811115612a9e578182fd5b612aaa87828801612935565b91505092959194509250565b60008060408385031215612ac8578182fd5b612ad2848461291e565b91506020830135612ae281613736565b809150509250929050565b60008060408385031215612aff578182fd5b612b09848461291e565b946020939093013593505050565b600060208284031215612b28578081fd5b8151610a6881613736565b600060208284031215612b44578081fd5b8135610a6881613744565b600060208284031215612b60578081fd5b8151610a6881613744565b600080600080600060a08688031215612b82578283fd5b85356001600160401b0380821115612b98578485fd5b612ba489838a01612935565b96506020880135915080821115612bb9578485fd5b612bc589838a01612935565b955060408801359150612bd78261375a565b90935060608701359080821115612bec578283fd5b612bf889838a01612935565b93506080880135915080821115612c0d578283fd5b50612c1a88828901612935565b9150509295509295909350565b600060208284031215612c38578081fd5b81356001600160401b0380821115612c4e578283fd5b610180918401808603831315612c62578384fd5b612c6b836136cc565b612c7587836129ac565b81526020820135935082841115612c8a578485fd5b612c9687858401612935565b60208201526040820135935082841115612cae578485fd5b612cba87858401612935565b6040820152612ccc87606084016129ac565b60608201526080820135935082841115612ce4578485fd5b612cf087858401612935565b6080820152612d028760a0840161299d565b60a0820152612d148760c0840161291e565b60c0820152612d268760e0840161291e565b60e08201526101009350612d3c878584016129ac565b848201526101209350612d51878584016129ac565b848201526101409350612d66878584016129ac565b8482015261016093508382013583811115612d7f578586fd5b612d8b88828501612935565b948201949094529695505050505050565b600060208284031215612dad578081fd5b5035919050565b600060208284031215612dc5578081fd5b8135610a688161375a565b60008060408385031215612de2578182fd5b6129f784846129ac565b6001600160a01b03169052565b60008151808452612e118160208601602086016136f2565b601f01601f19169290920160200192915050565b60058110612e2f57fe5b9052565b6000610180612e43848451612f4a565b6020830151816020860152612e5a82860182612df9565b604085015192508581036040870152612e738184612df9565b91505060608401519150612e8a6060860183612f4a565b608084015191508481036080860152612ea38183612df9565b60a08501519250612eb760a0870184612e25565b60c08501519250612ecb60c0870184612dec565b60e08501519250612edf60e0870184612dec565b6101009250828501519150612ef683870183612f4a565b6101209250828501519150612f0d83870183612f4a565b6101409250828501519150612f2483870183612f4a565b610160925082850151915085810383870152612f408183612df9565b9695505050505050565b63ffffffff169052565b60008251612f668184602087016136f2565b9190910192915050565b6000808454600180821660008114612f8f5760018114612fa657612fd5565b60ff198316865260028304607f1686019350612fd5565b600283048886526020808720875b83811015612fcd5781548a820152908501908201612fb4565b505050860193505b5050508351612fe88183602088016136f2565b01949350505050565b6001600160a01b0391909116815260200190565b6001600160a01b0385811682528416602082015260408101839052608060608201819052600090612f4090830184612df9565b6020808252600090610220830183820185845b601081101561307a57601f19878503018352613068848351612e33565b9350918401919084019060010161304b565b50919695505050505050565b6020808252600090610120830183820185845b600881101561307a57601f198785030183526130b6848351612e33565b93509184019190840190600101613099565b901515815260200190565b600060208252610a686020830184612df9565b60208082526022908201527f456e756d657261626c655365743a20696e646578206f7574206f6620626f756e604082015261647360f01b606082015260800190565b6020808252600d908201526c125b9d985b1a5908185cdcd95d609a1b604082015260600190565b60208082526032908201527f4552433732313a207472616e7366657220746f206e6f6e20455243373231526560408201527131b2b4bb32b91034b6b83632b6b2b73a32b960711b606082015260800190565b6020808252601c908201527b115490cdcc8c4e881d1bdad95b88185b1c9958591e481b5a5b9d195960221b604082015260600190565b6020808252601b908201527a536166654d6174683a206164646974696f6e206f766572666c6f7760281b604082015260600190565b60208082526024908201527f4552433732313a207472616e7366657220746f20746865207a65726f206164646040820152637265737360e01b606082015260800190565b60208082526019908201527822a9219b99189d1030b8383937bb32903a379031b0b63632b960391b604082015260600190565b6020808252602c908201527f4552433732313a206f70657261746f7220717565727920666f72206e6f6e657860408201526b34b9ba32b73a103a37b5b2b760a11b606082015260800190565b60208082526038908201527f4552433732313a20617070726f76652063616c6c6572206973206e6f74206f776040820152771b995c881b9bdc88185c1c1c9bdd995908199bdc88185b1b60421b606082015260800190565b6020808252602a908201527f4552433732313a2062616c616e636520717565727920666f7220746865207a65604082015269726f206164647265737360b01b606082015260800190565b60208082526022908201527f456e756d657261626c654d61703a20696e646578206f7574206f6620626f756e604082015261647360f01b606082015260800190565b6020808252818101527f4552433732313a206d696e7420746f20746865207a65726f2061646472657373604082015260600190565b60208082526021908201527f536166654d6174683a206d756c7469706c69636174696f6e206f766572666c6f6040820152607760f81b606082015260800190565b6020808252602c908201527f4552433732313a20617070726f76656420717565727920666f72206e6f6e657860408201526b34b9ba32b73a103a37b5b2b760a11b606082015260800190565b60208082526029908201527f4552433732313a207472616e73666572206f6620746f6b656e2074686174206960408201526839903737ba1037bbb760b91b606082015260800190565b6020808252602f908201527f4552433732314d657461646174613a2055524920717565727920666f72206e6f60408201526e3732bc34b9ba32b73a103a37b5b2b760891b606082015260800190565b60208082526021908201527f4552433732313a20617070726f76616c20746f2063757272656e74206f776e656040820152603960f91b606082015260800190565b60208082526031908201527f4552433732313a207472616e736665722063616c6c6572206973206e6f74206f6040820152701ddb995c881b9bdc88185c1c1c9bdd9959607a1b606082015260800190565b6020808252601d908201527f416464726573733a2063616c6c20746f206e6f6e2d636f6e7472616374000000604082015260600190565b600060208252610a686020830184612e33565b90815260200190565b63ffffffff91909116815260200190565b600063ffffffff808f168352610180602084015261362561018084018f612df9565b8381036040850152613637818f612df9565b828e1660608601528481036080860152613651818e612df9565b9250505061366260a084018b612e25565b61366f60c084018a612dec565b61367c60e0840189612dec565b61368a610100840188612f4a565b613698610120840187612f4a565b6136a6610140840186612f4a565b8281036101608401526136b98185612df9565b9f9e505050505050505050505050505050565b6040518181016001600160401b03811182821017156136ea57600080fd5b604052919050565b60005b8381101561370d5781810151838201526020016136f5565b838111156119115750506000910152565b6001600160a01b038116811461373357600080fd5b50565b801515811461373357600080fd5b6001600160e01b03198116811461373357600080fd5b63ffffffff8116811461373357600080fdfe4552433732313a207472616e7366657220746f206e6f6e20455243373231526563656976657220696d706c656d656e7465724552433732313a206f776e657220717565727920666f72206e6f6e6578697374656e7420746f6b656eddf252ad1be2c89b69c2b068fc378daa952ba7f163c4a11628f55a4df523b3efa2646970667358221220edbc340a80b6bed09e83682aecf98d4e98e2240d75bfd1cb7f011897d5008a0f64736f6c63430006020033",
  "source": "pragma solidity ^0.6.2;\npragma experimental ABIEncoderV2;\n\ncontract Administration {\n    function systemPaused() public returns(bool){}\n    function addDonor() public {}\n}\n\nimport \"@openzeppelin/contracts/token/ERC721/ERC721.sol\";\nimport \"@openzeppelin/contracts/access/AccessControl.sol\";\nimport \"@openzeppelin/contracts/math/SafeMath.sol\";\n\n/// @title A Asset donation smart contract\n/// @author Fatemeh Heidari Soureshjani\n/// @notice This contract facilitates donation of physical assets for specific periods of time between asset owners and receivers\n/// @dev time\n\ncontract DonateAsset is ERC721 {\n    Administration ADM;\n\n    uint32 lastAssetId;\n\n    constructor(address _adm) public ERC721(\"MyToken\", \"MTS\") {\n        ADM = Administration(_adm);\n        lastAssetId = 0;\n    }\n\n    enum Status {Free, Requested, Donated, Inactive, Burned}\n\n    struct Asset {\n        uint32 assetId;\n        string assetTitle;\n        string assetDescription;\n        uint32 availablityDate;\n        string location;\n        Status status;\n        address owner;\n        address recipient;\n        uint32 donatedDateFrom;\n        uint32 donatedDateTo;\n        uint32 requestCount;\n        string imageIPFSHash;\n    }\n\n    mapping(uint32 => Asset) public donationList;\n\n    modifier assetIsFree(uint32 assetId) {\n        require(\n            donationList[assetId].recipient == address(0) &&\n                (donationList[assetId].status == Status.Free ||\n                    donationList[assetId].status == Status.Requested)\n        );\n        _;\n    }\n\n    modifier assetExists(uint32 assetId) {\n        require(donationList[assetId].owner != address(0), \"Invalid asset\");\n        _;\n    }\n\n    modifier isAssetOwner(uint256 assetId) {\n        require(ownerOf(assetId) == msg.sender);\n        _;\n    }\n\n    modifier whenNotPaused(){\n        require(!ADM.systemPaused());\n        _;\n    }\n\n    event LogFree(uint32 assetId);\n\n    event LogDonated(uint32 assetId);\n\n    // event LogInactive(uint32 assetId);\n    // event LogIBurned(uint32 assetId);\n\n    function UpdateAsset(Asset memory asset) public {\n        if (asset.status > donationList[asset.assetId].status) {\n            donationList[asset.assetId].status = asset.status;\n        }\n        donationList[asset.assetId].requestCount = asset.requestCount;\n    }\n\n    /// @notice Adds a new asset to list of donated assets(Should be called by a donor)\n    /// @dev other asset struct members should be added\n    /// @param assetDescription Descrption of the asset entered by owner\n    /// @param availablityDate the first date the owner can donate the asset\n    /// @param location the location of the donated asset\n    /// @param imageIPFSHash IPFS hash of the asset image uploaded by owner and saved to IPFS\n    function addAsset(\n        string memory assetTitle,\n        string memory assetDescription,\n        uint32 availablityDate,\n        string memory location,\n        string memory imageIPFSHash\n    ) public whenNotPaused {\n        ADM.addDonor();\n        uint32 assetId = mintToken(msg.sender);\n        donationList[assetId] = Asset({\n            assetId: assetId,\n            assetTitle: assetTitle,\n            assetDescription: assetDescription,\n            availablityDate: availablityDate,\n            location: location,\n            status: Status.Free,\n            owner: msg.sender,\n            recipient: address(0),\n            donatedDateFrom: 0,\n            donatedDateTo: 0,\n            requestCount: 0,\n            imageIPFSHash: imageIPFSHash\n        });\n        emit LogFree(assetId);\n    }\n\n    /// @notice Returns all donations of an donor(it shoud be called by a donor)\n    /// @dev There must be better way than returing always an array of 16\n    /// @return Asset returns an array of type asset and length 16 of donations of msg.sender\n    function getDonationsByOwner(uint32 pageNo)\n        public\n        view\n        returns (Asset[8] memory)\n    {\n        uint tokenCount = uint32(balanceOf(msg.sender)); //donors[msg.sender].donationCount;\n        //uint32 pageNo = donors[msg.sender].pageNo;\n        uint nextStart = SafeMath.mul(uint256(pageNo) , 8);\n        uint rem = SafeMath.sub( tokenCount , nextStart);\n        uint index = 0;\n        uint32 tokenId;\n        Asset[8] memory assetList;\n        if (rem < 0) {\n            return assetList;\n        } else {\n            if ((rem) < 8) {\n                index = rem;\n            } else {\n                index = 8;\n            }\n            uint loopEnd = SafeMath.add( nextStart , index);\n            for (uint i = nextStart; i < loopEnd; i++) {\n                tokenId = uint32(tokenOfOwnerByIndex(msg.sender, i));\n                assetList[SafeMath.sub(i , nextStart)] = donationList[tokenId];\n            }\n            return assetList;\n        }\n    }\n\n    /// @notice returns all donations\n    /// @dev There must be better way than returing always an array of 16\n    /// @return Asset returns an array of type asset and length 16 of all donations\n    function getAllDonations() public view returns (Asset[16] memory) {\n        uint32 index = 0;\n        Asset[16] memory assetList;\n        if (lastAssetId <= 16) {\n            index = lastAssetId;\n        } else {\n            index = 16;\n        }\n        for (uint32 i = 0; i < index; i++) {\n            assetList[i] = donationList[i];\n        }\n        return assetList;\n    }\n\n    /// @notice The ERC721 stadard for nunfungible token is used to maintain ownership of assets\n    /// @notice everytime a new token is minted based on current value of lastAssetId for assetOwner address, and then lastAssetId is increased\n    /// @param assetOwner the owner of the new asset\n    /// @return returns the id of new minted token\n    function mintToken(\n        address assetOwner //isDonor(msg.sender)\n    ) public whenNotPaused returns (uint32) {\n        _safeMint(assetOwner, lastAssetId);\n        uint32 assetId = lastAssetId;\n        lastAssetId = uint32(SafeMath.add(uint256(lastAssetId),1));\n        return assetId;\n    }\n\n    /// @notice a donor can approve a specific request and this function assigns the recipient of this asset to the recipientAddress\n    /// @notice caller should be a donor and recipient should be a receiver\n    /// @dev change related request's status to approved\n    /// @param assetId unique id of asset to be donated\n    /// @param recipientAddress donation receiver\n    function donateAsset(uint32 assetId, address recipientAddress)\n        public\n        assetExists(assetId)\n        //isReceiver(recipientAddress)\n        assetIsFree(assetId)\n        isAssetOwner(assetId)\n        //isDonor(msg.sender)\n        whenNotPaused\n    {\n        donationList[assetId].recipient = recipientAddress;\n        donationList[assetId].status = Status.Donated;\n        emit LogDonated(assetId);\n    }\n\n    function getAssetRequestCount(uint32 assetId) public view returns (uint32) {\n        return donationList[assetId].requestCount;\n    }\n\n    function getDonation(uint32 assetId) public view returns (Asset memory) {\n        return donationList[assetId];\n    }\n}\n",
  "sourcePath": "/home/fatemeh/Desktop/Consensys Course/assetdonation/AssetDonation/contracts/DonateAsset.sol",
  "compiler": {
    "name": "solc",
    "version": "0.6.2+commit.bacdbe57.Emscripten.clang"
  },
  "schemaVersion": "3.3.1",
  "updatedAt": "2020-12-09T15:39:40.962Z",
  "networkType": "ethereum",
  "devdoc": {
    "author": "Fatemeh Heidari Soureshjani",
    "details": "time",
    "methods": {
      "addAsset(string,string,uint32,string,string)": {
        "details": "other asset struct members should be added",
        "params": {
          "assetDescription": "Descrption of the asset entered by owner",
          "availablityDate": "the first date the owner can donate the asset",
          "imageIPFSHash": "IPFS hash of the asset image uploaded by owner and saved to IPFS",
          "location": "the location of the donated asset"
        }
      },
      "approve(address,uint256)": {
        "details": "See {IERC721-approve}."
      },
      "balanceOf(address)": {
        "details": "See {IERC721-balanceOf}."
      },
      "baseURI()": {
        "details": "Returns the base URI set via {_setBaseURI}. This will be automatically added as a prefix in {tokenURI} to each token's URI, or to the token ID if no specific URI is set for that token ID."
      },
      "donateAsset(uint32,address)": {
        "details": "change related request's status to approved",
        "params": {
          "assetId": "unique id of asset to be donated",
          "recipientAddress": "donation receiver"
        }
      },
      "getAllDonations()": {
        "details": "There must be better way than returing always an array of 16",
        "returns": {
          "_0": "Asset returns an array of type asset and length 16 of all donations"
        }
      },
      "getApproved(uint256)": {
        "details": "See {IERC721-getApproved}."
      },
      "getDonationsByOwner(uint32)": {
        "details": "There must be better way than returing always an array of 16",
        "returns": {
          "_0": "Asset returns an array of type asset and length 16 of donations of msg.sender"
        }
      },
      "isApprovedForAll(address,address)": {
        "details": "See {IERC721-isApprovedForAll}."
      },
      "mintToken(address)": {
        "params": {
          "assetOwner": "the owner of the new asset"
        },
        "returns": {
          "_0": "returns the id of new minted token"
        }
      },
      "name()": {
        "details": "See {IERC721Metadata-name}."
      },
      "ownerOf(uint256)": {
        "details": "See {IERC721-ownerOf}."
      },
      "safeTransferFrom(address,address,uint256)": {
        "details": "See {IERC721-safeTransferFrom}."
      },
      "safeTransferFrom(address,address,uint256,bytes)": {
        "details": "See {IERC721-safeTransferFrom}."
      },
      "setApprovalForAll(address,bool)": {
        "details": "See {IERC721-setApprovalForAll}."
      },
      "supportsInterface(bytes4)": {
        "details": "See {IERC165-supportsInterface}.     * Time complexity O(1), guaranteed to always use less than 30 000 gas."
      },
      "symbol()": {
        "details": "See {IERC721Metadata-symbol}."
      },
      "tokenByIndex(uint256)": {
        "details": "See {IERC721Enumerable-tokenByIndex}."
      },
      "tokenOfOwnerByIndex(address,uint256)": {
        "details": "See {IERC721Enumerable-tokenOfOwnerByIndex}."
      },
      "tokenURI(uint256)": {
        "details": "See {IERC721Metadata-tokenURI}."
      },
      "totalSupply()": {
        "details": "See {IERC721Enumerable-totalSupply}."
      },
      "transferFrom(address,address,uint256)": {
        "details": "See {IERC721-transferFrom}."
      }
    },
    "title": "A Asset donation smart contract"
  },
  "userdoc": {
    "methods": {
      "addAsset(string,string,uint32,string,string)": {
        "notice": "Adds a new asset to list of donated assets(Should be called by a donor)"
      },
      "donateAsset(uint32,address)": {
        "notice": "a donor can approve a specific request and this function assigns the recipient of this asset to the recipientAddresscaller should be a donor and recipient should be a receiver"
      },
      "getAllDonations()": {
        "notice": "returns all donations"
      },
      "getDonationsByOwner(uint32)": {
        "notice": "Returns all donations of an donor(it shoud be called by a donor)"
      },
      "mintToken(address)": {
        "notice": "The ERC721 stadard for nunfungible token is used to maintain ownership of assetseverytime a new token is minted based on current value of lastAssetId for assetOwner address, and then lastAssetId is increased"
      }
    },
    "notice": "This contract facilitates donation of physical assets for specific periods of time between asset owners and receivers"
  }
}