{
  "contractName": "DonateAsset",
  "abi": [
    {
      "inputs": [],
      "stateMutability": "nonpayable",
      "type": "constructor"
    },
    {
      "anonymous": false,
      "inputs": [
        {
          "indexed": true,
          "internalType": "address",
          "name": "owner",
          "type": "address"
        },
        {
          "indexed": true,
          "internalType": "address",
          "name": "approved",
          "type": "address"
        },
        {
          "indexed": true,
          "internalType": "uint256",
          "name": "tokenId",
          "type": "uint256"
        }
      ],
      "name": "Approval",
      "type": "event"
    },
    {
      "anonymous": false,
      "inputs": [
        {
          "indexed": true,
          "internalType": "address",
          "name": "owner",
          "type": "address"
        },
        {
          "indexed": true,
          "internalType": "address",
          "name": "operator",
          "type": "address"
        },
        {
          "indexed": false,
          "internalType": "bool",
          "name": "approved",
          "type": "bool"
        }
      ],
      "name": "ApprovalForAll",
      "type": "event"
    },
    {
      "anonymous": false,
      "inputs": [
        {
          "indexed": false,
          "internalType": "uint32",
          "name": "assetId",
          "type": "uint32"
        }
      ],
      "name": "LogDonated",
      "type": "event"
    },
    {
      "anonymous": false,
      "inputs": [
        {
          "indexed": false,
          "internalType": "uint32",
          "name": "assetId",
          "type": "uint32"
        }
      ],
      "name": "LogFree",
      "type": "event"
    },
    {
      "anonymous": false,
      "inputs": [
        {
          "indexed": false,
          "internalType": "address",
          "name": "account",
          "type": "address"
        }
      ],
      "name": "Paused",
      "type": "event"
    },
    {
      "anonymous": false,
      "inputs": [
        {
          "indexed": true,
          "internalType": "bytes32",
          "name": "role",
          "type": "bytes32"
        },
        {
          "indexed": true,
          "internalType": "bytes32",
          "name": "previousAdminRole",
          "type": "bytes32"
        },
        {
          "indexed": true,
          "internalType": "bytes32",
          "name": "newAdminRole",
          "type": "bytes32"
        }
      ],
      "name": "RoleAdminChanged",
      "type": "event"
    },
    {
      "anonymous": false,
      "inputs": [
        {
          "indexed": true,
          "internalType": "bytes32",
          "name": "role",
          "type": "bytes32"
        },
        {
          "indexed": true,
          "internalType": "address",
          "name": "account",
          "type": "address"
        },
        {
          "indexed": true,
          "internalType": "address",
          "name": "sender",
          "type": "address"
        }
      ],
      "name": "RoleGranted",
      "type": "event"
    },
    {
      "anonymous": false,
      "inputs": [
        {
          "indexed": true,
          "internalType": "bytes32",
          "name": "role",
          "type": "bytes32"
        },
        {
          "indexed": true,
          "internalType": "address",
          "name": "account",
          "type": "address"
        },
        {
          "indexed": true,
          "internalType": "address",
          "name": "sender",
          "type": "address"
        }
      ],
      "name": "RoleRevoked",
      "type": "event"
    },
    {
      "anonymous": false,
      "inputs": [
        {
          "indexed": true,
          "internalType": "address",
          "name": "from",
          "type": "address"
        },
        {
          "indexed": true,
          "internalType": "address",
          "name": "to",
          "type": "address"
        },
        {
          "indexed": true,
          "internalType": "uint256",
          "name": "tokenId",
          "type": "uint256"
        }
      ],
      "name": "Transfer",
      "type": "event"
    },
    {
      "anonymous": false,
      "inputs": [
        {
          "indexed": false,
          "internalType": "address",
          "name": "account",
          "type": "address"
        }
      ],
      "name": "Unpaused",
      "type": "event"
    },
    {
      "inputs": [],
      "name": "DEFAULT_ADMIN_ROLE",
      "outputs": [
        {
          "internalType": "bytes32",
          "name": "",
          "type": "bytes32"
        }
      ],
      "stateMutability": "view",
      "type": "function",
      "constant": true
    },
    {
      "inputs": [],
      "name": "DONOR",
      "outputs": [
        {
          "internalType": "bytes32",
          "name": "",
          "type": "bytes32"
        }
      ],
      "stateMutability": "view",
      "type": "function",
      "constant": true
    },
    {
      "inputs": [],
      "name": "RECEIVER",
      "outputs": [
        {
          "internalType": "bytes32",
          "name": "",
          "type": "bytes32"
        }
      ],
      "stateMutability": "view",
      "type": "function",
      "constant": true
    },
    {
      "inputs": [],
      "name": "addDonor",
      "outputs": [],
      "stateMutability": "nonpayable",
      "type": "function"
    },
    {
      "inputs": [],
      "name": "addReceiver",
      "outputs": [],
      "stateMutability": "nonpayable",
      "type": "function"
    },
    {
      "inputs": [
        {
          "internalType": "address",
          "name": "to",
          "type": "address"
        },
        {
          "internalType": "uint256",
          "name": "tokenId",
          "type": "uint256"
        }
      ],
      "name": "approve",
      "outputs": [],
      "stateMutability": "nonpayable",
      "type": "function"
    },
    {
      "inputs": [
        {
          "internalType": "address",
          "name": "donorAddress",
          "type": "address"
        }
      ],
      "name": "approveDonor",
      "outputs": [],
      "stateMutability": "nonpayable",
      "type": "function"
    },
    {
      "inputs": [
        {
          "internalType": "address",
          "name": "receiverAddress",
          "type": "address"
        }
      ],
      "name": "approveReceiver",
      "outputs": [],
      "stateMutability": "nonpayable",
      "type": "function"
    },
    {
      "inputs": [
        {
          "internalType": "address",
          "name": "owner",
          "type": "address"
        }
      ],
      "name": "balanceOf",
      "outputs": [
        {
          "internalType": "uint256",
          "name": "",
          "type": "uint256"
        }
      ],
      "stateMutability": "view",
      "type": "function",
      "constant": true
    },
    {
      "inputs": [],
      "name": "baseURI",
      "outputs": [
        {
          "internalType": "string",
          "name": "",
          "type": "string"
        }
      ],
      "stateMutability": "view",
      "type": "function",
      "constant": true
    },
    {
      "inputs": [
        {
          "internalType": "uint32",
          "name": "",
          "type": "uint32"
        }
      ],
      "name": "donationList",
      "outputs": [
        {
          "internalType": "uint32",
          "name": "assetId",
          "type": "uint32"
        },
        {
          "internalType": "string",
          "name": "assetDescription",
          "type": "string"
        },
        {
          "internalType": "uint32",
          "name": "availablityDate",
          "type": "uint32"
        },
        {
          "internalType": "string",
          "name": "location",
          "type": "string"
        },
        {
          "internalType": "enum DonateAsset.Status",
          "name": "status",
          "type": "uint8"
        },
        {
          "internalType": "address",
          "name": "owner",
          "type": "address"
        },
        {
          "internalType": "address",
          "name": "recipient",
          "type": "address"
        },
        {
          "internalType": "uint32",
          "name": "donatedDateFrom",
          "type": "uint32"
        },
        {
          "internalType": "uint32",
          "name": "donatedDateTo",
          "type": "uint32"
        },
        {
          "internalType": "uint32",
          "name": "requestCount",
          "type": "uint32"
        },
        {
          "internalType": "string",
          "name": "imageIPFSHash",
          "type": "string"
        }
      ],
      "stateMutability": "view",
      "type": "function",
      "constant": true
    },
    {
      "inputs": [
        {
          "internalType": "address",
          "name": "",
          "type": "address"
        }
      ],
      "name": "donors",
      "outputs": [
        {
          "internalType": "bool",
          "name": "",
          "type": "bool"
        }
      ],
      "stateMutability": "view",
      "type": "function",
      "constant": true
    },
    {
      "inputs": [
        {
          "internalType": "uint256",
          "name": "tokenId",
          "type": "uint256"
        }
      ],
      "name": "getApproved",
      "outputs": [
        {
          "internalType": "address",
          "name": "",
          "type": "address"
        }
      ],
      "stateMutability": "view",
      "type": "function",
      "constant": true
    },
    {
      "inputs": [
        {
          "internalType": "bytes32",
          "name": "role",
          "type": "bytes32"
        }
      ],
      "name": "getRoleAdmin",
      "outputs": [
        {
          "internalType": "bytes32",
          "name": "",
          "type": "bytes32"
        }
      ],
      "stateMutability": "view",
      "type": "function",
      "constant": true
    },
    {
      "inputs": [
        {
          "internalType": "bytes32",
          "name": "role",
          "type": "bytes32"
        },
        {
          "internalType": "uint256",
          "name": "index",
          "type": "uint256"
        }
      ],
      "name": "getRoleMember",
      "outputs": [
        {
          "internalType": "address",
          "name": "",
          "type": "address"
        }
      ],
      "stateMutability": "view",
      "type": "function",
      "constant": true
    },
    {
      "inputs": [
        {
          "internalType": "bytes32",
          "name": "role",
          "type": "bytes32"
        }
      ],
      "name": "getRoleMemberCount",
      "outputs": [
        {
          "internalType": "uint256",
          "name": "",
          "type": "uint256"
        }
      ],
      "stateMutability": "view",
      "type": "function",
      "constant": true
    },
    {
      "inputs": [
        {
          "internalType": "bytes32",
          "name": "role",
          "type": "bytes32"
        },
        {
          "internalType": "address",
          "name": "account",
          "type": "address"
        }
      ],
      "name": "grantRole",
      "outputs": [],
      "stateMutability": "nonpayable",
      "type": "function"
    },
    {
      "inputs": [
        {
          "internalType": "bytes32",
          "name": "role",
          "type": "bytes32"
        },
        {
          "internalType": "address",
          "name": "account",
          "type": "address"
        }
      ],
      "name": "hasRole",
      "outputs": [
        {
          "internalType": "bool",
          "name": "",
          "type": "bool"
        }
      ],
      "stateMutability": "view",
      "type": "function",
      "constant": true
    },
    {
      "inputs": [
        {
          "internalType": "address",
          "name": "owner",
          "type": "address"
        },
        {
          "internalType": "address",
          "name": "operator",
          "type": "address"
        }
      ],
      "name": "isApprovedForAll",
      "outputs": [
        {
          "internalType": "bool",
          "name": "",
          "type": "bool"
        }
      ],
      "stateMutability": "view",
      "type": "function",
      "constant": true
    },
    {
      "inputs": [],
      "name": "name",
      "outputs": [
        {
          "internalType": "string",
          "name": "",
          "type": "string"
        }
      ],
      "stateMutability": "view",
      "type": "function",
      "constant": true
    },
    {
      "inputs": [
        {
          "internalType": "uint256",
          "name": "tokenId",
          "type": "uint256"
        }
      ],
      "name": "ownerOf",
      "outputs": [
        {
          "internalType": "address",
          "name": "",
          "type": "address"
        }
      ],
      "stateMutability": "view",
      "type": "function",
      "constant": true
    },
    {
      "inputs": [],
      "name": "pause",
      "outputs": [],
      "stateMutability": "nonpayable",
      "type": "function"
    },
    {
      "inputs": [],
      "name": "paused",
      "outputs": [
        {
          "internalType": "bool",
          "name": "",
          "type": "bool"
        }
      ],
      "stateMutability": "view",
      "type": "function",
      "constant": true
    },
    {
      "inputs": [
        {
          "internalType": "address",
          "name": "",
          "type": "address"
        }
      ],
      "name": "receivers",
      "outputs": [
        {
          "internalType": "bool",
          "name": "",
          "type": "bool"
        }
      ],
      "stateMutability": "view",
      "type": "function",
      "constant": true
    },
    {
      "inputs": [
        {
          "internalType": "bytes32",
          "name": "role",
          "type": "bytes32"
        },
        {
          "internalType": "address",
          "name": "account",
          "type": "address"
        }
      ],
      "name": "renounceRole",
      "outputs": [],
      "stateMutability": "nonpayable",
      "type": "function"
    },
    {
      "inputs": [
        {
          "internalType": "bytes32",
          "name": "role",
          "type": "bytes32"
        },
        {
          "internalType": "address",
          "name": "account",
          "type": "address"
        }
      ],
      "name": "revokeRole",
      "outputs": [],
      "stateMutability": "nonpayable",
      "type": "function"
    },
    {
      "inputs": [
        {
          "internalType": "address",
          "name": "from",
          "type": "address"
        },
        {
          "internalType": "address",
          "name": "to",
          "type": "address"
        },
        {
          "internalType": "uint256",
          "name": "tokenId",
          "type": "uint256"
        }
      ],
      "name": "safeTransferFrom",
      "outputs": [],
      "stateMutability": "nonpayable",
      "type": "function"
    },
    {
      "inputs": [
        {
          "internalType": "address",
          "name": "from",
          "type": "address"
        },
        {
          "internalType": "address",
          "name": "to",
          "type": "address"
        },
        {
          "internalType": "uint256",
          "name": "tokenId",
          "type": "uint256"
        },
        {
          "internalType": "bytes",
          "name": "_data",
          "type": "bytes"
        }
      ],
      "name": "safeTransferFrom",
      "outputs": [],
      "stateMutability": "nonpayable",
      "type": "function"
    },
    {
      "inputs": [
        {
          "internalType": "address",
          "name": "operator",
          "type": "address"
        },
        {
          "internalType": "bool",
          "name": "approved",
          "type": "bool"
        }
      ],
      "name": "setApprovalForAll",
      "outputs": [],
      "stateMutability": "nonpayable",
      "type": "function"
    },
    {
      "inputs": [
        {
          "internalType": "bytes4",
          "name": "interfaceId",
          "type": "bytes4"
        }
      ],
      "name": "supportsInterface",
      "outputs": [
        {
          "internalType": "bool",
          "name": "",
          "type": "bool"
        }
      ],
      "stateMutability": "view",
      "type": "function",
      "constant": true
    },
    {
      "inputs": [],
      "name": "symbol",
      "outputs": [
        {
          "internalType": "string",
          "name": "",
          "type": "string"
        }
      ],
      "stateMutability": "view",
      "type": "function",
      "constant": true
    },
    {
      "inputs": [
        {
          "internalType": "uint256",
          "name": "index",
          "type": "uint256"
        }
      ],
      "name": "tokenByIndex",
      "outputs": [
        {
          "internalType": "uint256",
          "name": "",
          "type": "uint256"
        }
      ],
      "stateMutability": "view",
      "type": "function",
      "constant": true
    },
    {
      "inputs": [
        {
          "internalType": "address",
          "name": "owner",
          "type": "address"
        },
        {
          "internalType": "uint256",
          "name": "index",
          "type": "uint256"
        }
      ],
      "name": "tokenOfOwnerByIndex",
      "outputs": [
        {
          "internalType": "uint256",
          "name": "",
          "type": "uint256"
        }
      ],
      "stateMutability": "view",
      "type": "function",
      "constant": true
    },
    {
      "inputs": [
        {
          "internalType": "uint256",
          "name": "tokenId",
          "type": "uint256"
        }
      ],
      "name": "tokenURI",
      "outputs": [
        {
          "internalType": "string",
          "name": "",
          "type": "string"
        }
      ],
      "stateMutability": "view",
      "type": "function",
      "constant": true
    },
    {
      "inputs": [],
      "name": "totalSupply",
      "outputs": [
        {
          "internalType": "uint256",
          "name": "",
          "type": "uint256"
        }
      ],
      "stateMutability": "view",
      "type": "function",
      "constant": true
    },
    {
      "inputs": [
        {
          "internalType": "address",
          "name": "from",
          "type": "address"
        },
        {
          "internalType": "address",
          "name": "to",
          "type": "address"
        },
        {
          "internalType": "uint256",
          "name": "tokenId",
          "type": "uint256"
        }
      ],
      "name": "transferFrom",
      "outputs": [],
      "stateMutability": "nonpayable",
      "type": "function"
    },
    {
      "inputs": [],
      "name": "unpause",
      "outputs": [],
      "stateMutability": "nonpayable",
      "type": "function"
    },
    {
      "inputs": [
        {
          "components": [
            {
              "internalType": "uint32",
              "name": "assetId",
              "type": "uint32"
            },
            {
              "internalType": "string",
              "name": "assetDescription",
              "type": "string"
            },
            {
              "internalType": "uint32",
              "name": "availablityDate",
              "type": "uint32"
            },
            {
              "internalType": "string",
              "name": "location",
              "type": "string"
            },
            {
              "internalType": "enum DonateAsset.Status",
              "name": "status",
              "type": "uint8"
            },
            {
              "internalType": "address",
              "name": "owner",
              "type": "address"
            },
            {
              "internalType": "address",
              "name": "recipient",
              "type": "address"
            },
            {
              "internalType": "uint32",
              "name": "donatedDateFrom",
              "type": "uint32"
            },
            {
              "internalType": "uint32",
              "name": "donatedDateTo",
              "type": "uint32"
            },
            {
              "internalType": "uint32",
              "name": "requestCount",
              "type": "uint32"
            },
            {
              "internalType": "string",
              "name": "imageIPFSHash",
              "type": "string"
            }
          ],
          "internalType": "struct DonateAsset.Asset",
          "name": "asset",
          "type": "tuple"
        }
      ],
      "name": "UpdateAsset",
      "outputs": [],
      "stateMutability": "nonpayable",
      "type": "function"
    },
    {
      "inputs": [
        {
          "internalType": "string",
          "name": "assetDescription",
          "type": "string"
        },
        {
          "internalType": "uint32",
          "name": "availablityDate",
          "type": "uint32"
        },
        {
          "internalType": "string",
          "name": "location",
          "type": "string"
        },
        {
          "internalType": "string",
          "name": "imageIPFSHash",
          "type": "string"
        }
      ],
      "name": "addAsset",
      "outputs": [],
      "stateMutability": "nonpayable",
      "type": "function"
    },
    {
      "inputs": [],
      "name": "getDonationsByOwner",
      "outputs": [
        {
          "components": [
            {
              "internalType": "uint32",
              "name": "assetId",
              "type": "uint32"
            },
            {
              "internalType": "string",
              "name": "assetDescription",
              "type": "string"
            },
            {
              "internalType": "uint32",
              "name": "availablityDate",
              "type": "uint32"
            },
            {
              "internalType": "string",
              "name": "location",
              "type": "string"
            },
            {
              "internalType": "enum DonateAsset.Status",
              "name": "status",
              "type": "uint8"
            },
            {
              "internalType": "address",
              "name": "owner",
              "type": "address"
            },
            {
              "internalType": "address",
              "name": "recipient",
              "type": "address"
            },
            {
              "internalType": "uint32",
              "name": "donatedDateFrom",
              "type": "uint32"
            },
            {
              "internalType": "uint32",
              "name": "donatedDateTo",
              "type": "uint32"
            },
            {
              "internalType": "uint32",
              "name": "requestCount",
              "type": "uint32"
            },
            {
              "internalType": "string",
              "name": "imageIPFSHash",
              "type": "string"
            }
          ],
          "internalType": "struct DonateAsset.Asset[16]",
          "name": "",
          "type": "tuple[16]"
        }
      ],
      "stateMutability": "view",
      "type": "function",
      "constant": true
    },
    {
      "inputs": [],
      "name": "getAllDonations",
      "outputs": [
        {
          "components": [
            {
              "internalType": "uint32",
              "name": "assetId",
              "type": "uint32"
            },
            {
              "internalType": "string",
              "name": "assetDescription",
              "type": "string"
            },
            {
              "internalType": "uint32",
              "name": "availablityDate",
              "type": "uint32"
            },
            {
              "internalType": "string",
              "name": "location",
              "type": "string"
            },
            {
              "internalType": "enum DonateAsset.Status",
              "name": "status",
              "type": "uint8"
            },
            {
              "internalType": "address",
              "name": "owner",
              "type": "address"
            },
            {
              "internalType": "address",
              "name": "recipient",
              "type": "address"
            },
            {
              "internalType": "uint32",
              "name": "donatedDateFrom",
              "type": "uint32"
            },
            {
              "internalType": "uint32",
              "name": "donatedDateTo",
              "type": "uint32"
            },
            {
              "internalType": "uint32",
              "name": "requestCount",
              "type": "uint32"
            },
            {
              "internalType": "string",
              "name": "imageIPFSHash",
              "type": "string"
            }
          ],
          "internalType": "struct DonateAsset.Asset[16]",
          "name": "",
          "type": "tuple[16]"
        }
      ],
      "stateMutability": "view",
      "type": "function",
      "constant": true
    },
    {
      "inputs": [
        {
          "internalType": "address",
          "name": "assetOwner",
          "type": "address"
        }
      ],
      "name": "mintToken",
      "outputs": [
        {
          "internalType": "uint32",
          "name": "",
          "type": "uint32"
        }
      ],
      "stateMutability": "nonpayable",
      "type": "function"
    },
    {
      "inputs": [
        {
          "internalType": "uint32",
          "name": "assetId",
          "type": "uint32"
        },
        {
          "internalType": "address",
          "name": "recipientAddress",
          "type": "address"
        }
      ],
      "name": "donateAsset",
      "outputs": [],
      "stateMutability": "nonpayable",
      "type": "function"
    },
    {
      "inputs": [
        {
          "internalType": "uint32",
          "name": "assetId",
          "type": "uint32"
        }
      ],
      "name": "getAssetRequestCount",
      "outputs": [
        {
          "internalType": "uint32",
          "name": "",
          "type": "uint32"
        }
      ],
      "stateMutability": "view",
      "type": "function",
      "constant": true
    },
    {
      "inputs": [
        {
          "internalType": "uint32",
          "name": "assetId",
          "type": "uint32"
        }
      ],
      "name": "getDonation",
      "outputs": [
        {
          "components": [
            {
              "internalType": "uint32",
              "name": "assetId",
              "type": "uint32"
            },
            {
              "internalType": "string",
              "name": "assetDescription",
              "type": "string"
            },
            {
              "internalType": "uint32",
              "name": "availablityDate",
              "type": "uint32"
            },
            {
              "internalType": "string",
              "name": "location",
              "type": "string"
            },
            {
              "internalType": "enum DonateAsset.Status",
              "name": "status",
              "type": "uint8"
            },
            {
              "internalType": "address",
              "name": "owner",
              "type": "address"
            },
            {
              "internalType": "address",
              "name": "recipient",
              "type": "address"
            },
            {
              "internalType": "uint32",
              "name": "donatedDateFrom",
              "type": "uint32"
            },
            {
              "internalType": "uint32",
              "name": "donatedDateTo",
              "type": "uint32"
            },
            {
              "internalType": "uint32",
              "name": "requestCount",
              "type": "uint32"
            },
            {
              "internalType": "string",
              "name": "imageIPFSHash",
              "type": "string"
            }
          ],
          "internalType": "struct DonateAsset.Asset",
          "name": "",
          "type": "tuple"
        }
      ],
      "stateMutability": "view",
      "type": "function",
      "constant": true
    }
  ],
  "bytecode": "0x60806040523480156200001157600080fd5b50604080518082018252600781526626bcaa37b5b2b760c91b602080830191909152825180840190935260038352624d545360e81b9083015290620000666301ffc9a760e01b6001600160e01b036200011d16565b81516200007b906006906020850190620002b3565b50805162000091906007906020840190620002b3565b50620000ad6380ac58cd60e01b6001600160e01b036200011d16565b620000c8635b5e139f60e01b6001600160e01b036200011d16565b620000e363780e9d6360e01b6001600160e01b036200011d16565b5050600b805461ffff19166101001790556200010a6000336001600160e01b036200017816565b600e805463ffffffff191690556200038c565b6001600160e01b03198082161415620001535760405162461bcd60e51b81526004016200014a9062000355565b60405180910390fd5b6001600160e01b0319166000908152602081905260409020805460ff19166001179055565b6200018d82826001600160e01b036200019116565b5050565b6000828152600a60209081526040909120620001b89183906200235e62000215821b17901c565b156200018d57620001d16001600160e01b036200023e16565b6001600160a01b0316816001600160a01b0316837f2f8788117e7eff1d82e926ec794901d17c78024a50270940304540a733656f0d60405160405180910390a45050565b600062000235836001600160a01b0384166001600160e01b036200024316565b90505b92915050565b335b90565b60006200025a83836001600160e01b036200029b16565b620002925750815460018181018455600084815260208082209093018490558454848252828601909352604090209190915562000238565b50600062000238565b60009081526001919091016020526040902054151590565b828054600181600116156101000203166002900490600052602060002090601f016020900481019282601f10620002f657805160ff191683800117855562000326565b8280016001018555821562000326579182015b828111156200032657825182559160200191906001019062000309565b506200033492915062000338565b5090565b6200024091905b808211156200033457600081556001016200033f565b6020808252601c908201527f4552433136353a20696e76616c696420696e7465726661636520696400000000604082015260600190565b613929806200039c6000396000f3fe608060405234801561001057600080fd5b506004361061020f5760003560e01c806301173a741461021457806301ffc9a71461023d57806306fdde031461025d578063081812fc14610272578063095ea7b3146102925780630cb8150f146102a757806318160ddd146102ba57806321f54c21146102cf57806323b872dd146102e2578063248a9ca3146102f55780632a781270146103085780632cdbf3491461031b5780632f2ff15d1461032e5780632f745c591461034157806336568abe1461035457806338a59a07146103675780633f4ba83a1461037c57806342842e0e146103845780634576d2511461039757806349d17fe91461039f5780634bb0eaaf146103b25780634f6ccce7146103dc57806350b7b880146103ef5780635c975abb146103f75780636352211e146103ff5780636c0360eb1461041257806370a082311461041a578063718841361461042d57806372dbb89f1461044d57806379e085a2146104605780638456cb59146104685780638ad54512146104705780639010d07c1461047857806391d148541461048b57806395d89b411461049e578063a217fddf146104a6578063a22cb465146104ae578063ad7430cc146104c1578063b88d4fde146104c9578063c87b56dd146104dc578063ca0cdea8146104ef578063ca15c87314610502578063d547741f14610515578063e985e9c514610528578063f44549631461053b575b600080fd5b610227610222366004612a99565b61054e565b6040516102349190613710565b60405180910390f35b61025061024b366004612c51565b6105b8565b604051610234919061313a565b6102656105d7565b604051610234919061314e565b610285610280366004612bf4565b61066e565b60405161023491906130a5565b6102a56102a0366004612bca565b6106b1565b005b6102506102b5366004612a99565b610749565b6102c261075e565b6040516102349190613145565b6102276102dd366004612e63565b61076f565b6102a56102f0366004612ae8565b610794565b6102c2610303366004612bf4565b6107cc565b6102a5610316366004612a99565b6107e1565b6102a5610329366004612c89565b610822565b6102a561033c366004612c0c565b610a6f565b6102c261034f366004612bca565b610ab7565b6102a5610362366004612c0c565b610ae8565b61036f610b2a565b60405161023491906130ec565b6102a5610e20565b6102a5610392366004612ae8565b610e3e565b6102c2610e59565b6102a56103ad366004612e7f565b610e70565b6103c56103c0366004612e63565b610ffe565b6040516102349b9a99989796959493929190613721565b6102c26103ea366004612bf4565b611225565b61036f611241565b61025061154f565b61028561040d366004612bf4565b611558565b610265611586565b6102c2610428366004612a99565b6115e7565b61044061043b366004612e63565b611630565b60405161023491906136fd565b6102a561045b366004612a99565b6118bf565b6102a56118f2565b6102a5611922565b6102a561193e565b610285610486366004612c30565b61196e565b610250610499366004612c0c565b61198c565b6102656119aa565b6102c2611a0b565b6102a56104bc366004612b8f565b611a10565b6102c2611ade565b6102a56104d7366004612b28565b611aea565b6102656104ea366004612bf4565b611b29565b6102506104fd366004612a99565b611c73565b6102c2610510366004612bf4565b611c88565b6102a5610523366004612c0c565b611c9f565b610250610536366004612ab4565b611cd9565b6102a5610549366004612d15565b611d07565b600b5460009060ff161561057d5760405162461bcd60e51b8152600401610574906133be565b60405180910390fd5b600e5461059190839063ffffffff16611dc2565b50600e805463ffffffff198116600163ffffffff928316908101909216179091555b919050565b6001600160e01b03191660009081526020819052604090205460ff1690565b60068054604080516020601f60026000196101006001881615020190951694909404938401819004810282018101909252828152606093909290918301828280156106635780601f1061063857610100808354040283529160200191610663565b820191906000526020600020905b81548152906001019060200180831161064657829003601f168201915b505050505090505b90565b600061067982611ddc565b6106955760405162461bcd60e51b815260040161057490613501565b506000908152600460205260409020546001600160a01b031690565b60006106bc82611558565b9050806001600160a01b0316836001600160a01b031614156106f05760405162461bcd60e51b8152600401610574906135e5565b806001600160a01b0316610702611def565b6001600160a01b0316148061071e575061071e81610536611def565b61073a5760405162461bcd60e51b8152600401610574906133e8565b6107448383611df3565b505050565b600d6020526000908152604090205460ff1681565b600061076a6002611e61565b905090565b63ffffffff9081166000908152600f6020526040902060050154600160e01b90041690565b6107a561079f611def565b82611e6c565b6107c15760405162461bcd60e51b815260040161057490613626565b610744838383611ef1565b6000908152600a602052604090206002015490565b6107fe6040516107f090613080565b604051809103902082610a6f565b6001600160a01b03166000908152600c60205260409020805460ff19166001179055565b600b5460ff16156108455760405162461bcd60e51b8152600401610574906133be565b61084d6118f2565b60006108583361054e565b90506040518061016001604052808263ffffffff1681526020018681526020018563ffffffff1681526020018481526020016000600481111561089757fe5b81523360208083019190915260006040808401829052606084018290526080840182905260a0840182905260c090930186905263ffffffff8581168252600f83529290208351815463ffffffff1916931692909217825582810151805161090492600185019201906128be565b50604082015160028201805463ffffffff191663ffffffff909216919091179055606082015180516109409160038401916020909101906128be565b5060808201518160040160006101000a81548160ff0219169083600481111561096557fe5b021790555060a0820151600482018054610100600160a81b0319166101006001600160a01b0393841681029190911790915560c084015160058401805460e0870151938701516101208801516001600160a01b0319909216939095169290921763ffffffff60a01b1916600160a01b63ffffffff948516021763ffffffff60c01b1916600160c01b94841694909402939093176001600160e01b0316600160e01b92909116919091021790556101408201518051610a2d9160068401916020909101906128be565b509050507f02be38ab1ac25d38c43ba8eef640edc80bd26853df4de2f92af4fa493699009c81604051610a609190613710565b60405180910390a15050505050565b6000828152600a6020526040902060020154610a8d90610499611def565b610aa95760405162461bcd60e51b8152600401610574906131a3565b610ab38282611fff565b5050565b6001600160a01b0382166000908152600160205260408120610adf908363ffffffff61206e16565b90505b92915050565b610af0611def565b6001600160a01b0316816001600160a01b031614610b205760405162461bcd60e51b8152600401610574906136ae565b610ab3828261207a565b610b3261293c565b6000610b3c61293c565b600e54601063ffffffff90911611610b5e57600e5463ffffffff169150610b63565b601091505b60005b8263ffffffff168163ffffffff161015610e195763ffffffff8181166000908152600f602090815260409182902082516101608101845281549094168452600180820180548551600261010094831615949094026000190190911692909204601f8101859004850283018501909552848252919385840193919291830182828015610c325780601f10610c0757610100808354040283529160200191610c32565b820191906000526020600020905b815481529060010190602001808311610c1557829003601f168201915b505050918352505060028281015463ffffffff1660208084019190915260038401805460408051601f60001960018516156101000201909316959095049182018490048402850184018152818552909401939091830182828015610cd75780601f10610cac57610100808354040283529160200191610cd7565b820191906000526020600020905b815481529060010190602001808311610cba57829003601f168201915b505050918352505060048281015460209092019160ff1690811115610cf857fe5b6004811115610d0357fe5b81526004820154610100908190046001600160a01b039081166020808501919091526005850154918216604080860191909152600160a01b830463ffffffff9081166060870152600160c01b840481166080870152600160e01b90930490921660a08501526006850180548351600260018316159096026000190190911694909404601f810183900483028501830190935282845260c0909401939190830182828015610df15780601f10610dc657610100808354040283529160200191610df1565b820191906000526020600020905b815481529060010190602001808311610dd457829003601f168201915b505050505081525050828263ffffffff1660108110610e0c57fe5b6020020152600101610b66565b5091505090565b610e2b60003361198c565b610e3457600080fd5b610e3c6120e9565b565b61074483838360405180602001604052806000815250611aea565b604051610e6590613080565b604051809103902081565b63ffffffff82166000908152600f6020526040902060040154829061010090046001600160a01b0316610eb55760405162461bcd60e51b81526004016105749061320e565b63ffffffff83166000908152600f602052604090206005015483906001600160a01b0316158015610f3c575063ffffffff81166000908152600f6020526040812060049081015460ff1690811115610f0957fe5b1480610f3c5750600163ffffffff82166000908152600f6020526040902060049081015460ff1690811115610f3a57fe5b145b610f4557600080fd5b63ffffffff841633610f5682611558565b6001600160a01b031614610f6957600080fd5b600b5460ff1615610f8c5760405162461bcd60e51b8152600401610574906133be565b63ffffffff85166000908152600f6020526040908190206005810180546001600160a01b0388166001600160a01b0319909116179055600401805460ff19166002179055517f9869ee1482368b4ea48cb13a191ba8022b944e7785dbe1804c4e4c11ed347dd190610a60908790613710565b600f602090815260009182526040918290208054600180830180548651600261010094831615949094026000190190911692909204601f810186900486028301860190965285825263ffffffff9092169492939092908301828280156110a55780601f1061107a576101008083540402835291602001916110a5565b820191906000526020600020905b81548152906001019060200180831161108857829003601f168201915b505050506002838101546003850180546040805160206101006001851615026000190190931695909504601f8101839004830286018301909152808552959663ffffffff909316959294509091908301828280156111445780601f1061111957610100808354040283529160200191611144565b820191906000526020600020905b81548152906001019060200180831161112757829003601f168201915b50505050600483015460058401546006850180546040805160206002610100600186161581026000190190951604601f8101829004820283018201909352828252979860ff871698939096046001600160a01b039081169750851695600160a01b860463ffffffff90811696600160c01b8104821696600160e01b909104909116949193909183018282801561121b5780601f106111f05761010080835404028352916020019161121b565b820191906000526020600020905b8154815290600101906020018083116111fe57829003601f168201915b505050505090508b565b60008061123960028463ffffffff61215516565b509392505050565b61124961293c565b6000611254336115e7565b905060008061126161293c565b60108463ffffffff16116112775783925061127c565b601092505b60005b8363ffffffff168163ffffffff161015611546576112a3338263ffffffff16610ab7565b63ffffffff8181166000908152600f602090815260409182902082516101608101845281549094168452600180820180548551600261010094831615949094026000190190911692909204601f81018590048502830185019095528482529598509394909385830193909283018282801561135f5780601f106113345761010080835404028352916020019161135f565b820191906000526020600020905b81548152906001019060200180831161134257829003601f168201915b505050918352505060028281015463ffffffff1660208084019190915260038401805460408051601f600019600185161561010002019093169590950491820184900484028501840181528185529094019390918301828280156114045780601f106113d957610100808354040283529160200191611404565b820191906000526020600020905b8154815290600101906020018083116113e757829003601f168201915b505050918352505060048281015460209092019160ff169081111561142557fe5b600481111561143057fe5b81526004820154610100908190046001600160a01b039081166020808501919091526005850154918216604080860191909152600160a01b830463ffffffff9081166060870152600160c01b840481166080870152600160e01b90930490921660a08501526006850180548351600260018316159096026000190190911694909404601f810183900483028501830190935282845260c090940193919083018282801561151e5780601f106114f35761010080835404028352916020019161151e565b820191906000526020600020905b81548152906001019060200180831161150157829003601f168201915b505050505081525050828263ffffffff166010811061153957fe5b602002015260010161127f565b50935050505090565b600b5460ff1690565b6000610ae28260405180606001604052806029815260200161388b602991396002919063ffffffff61217116565b60098054604080516020601f60026000196101006001881615020190951694909404938401819004810282018101909252828152606093909290918301828280156106635780601f1061063857610100808354040283529160200191610663565b60006001600160a01b03821661160f5760405162461bcd60e51b815260040161057490613440565b6001600160a01b0382166000908152600160205260409020610ae290611e61565b61163861296a565b63ffffffff8281166000908152600f602090815260409182902082516101608101845281549094168452600180820180548551600261010094831615949094026000190190911692909204601f81018590048502830185019095528482529193858401939192918301828280156116f05780601f106116c5576101008083540402835291602001916116f0565b820191906000526020600020905b8154815290600101906020018083116116d357829003601f168201915b505050918352505060028281015463ffffffff1660208084019190915260038401805460408051601f600019600185161561010002019093169590950491820184900484028501840181528185529094019390918301828280156117955780601f1061176a57610100808354040283529160200191611795565b820191906000526020600020905b81548152906001019060200180831161177857829003601f168201915b505050918352505060048281015460209092019160ff16908111156117b657fe5b60048111156117c157fe5b81526004820154610100908190046001600160a01b039081166020808501919091526005850154918216604080860191909152600160a01b830463ffffffff9081166060870152600160c01b840481166080870152600160e01b90930490921660a08501526006850180548351600260018316159096026000190190911694909404601f810183900483028501830190935282845260c09094019391908301828280156118af5780601f10611884576101008083540402835291602001916118af565b820191906000526020600020905b81548152906001019060200180831161189257829003601f168201915b5050505050815250509050919050565b6118ce6040516107f090613091565b6001600160a01b03166000908152600d60205260409020805460ff19166001179055565b336000908152600c602052604090205460ff16610e3c57336000908152600c60205260409020805460ff19169055565b61192d60003361198c565b61193657600080fd5b610e3c612188565b336000908152600d602052604090205460ff16610e3c57336000908152600d60205260409020805460ff19169055565b6000828152600a60205260408120610adf908363ffffffff61206e16565b6000828152600a60205260408120610adf908363ffffffff6121e116565b60078054604080516020601f60026000196101006001881615020190951694909404938401819004810282018101909252828152606093909290918301828280156106635780601f1061063857610100808354040283529160200191610663565b600081565b611a18611def565b6001600160a01b0316826001600160a01b03161415611a495760405162461bcd60e51b815260040161057490613301565b8060056000611a56611def565b6001600160a01b03908116825260208083019390935260409182016000908120918716808252919093529120805460ff191692151592909217909155611a9a611def565b6001600160a01b03167f17307eab39ab6107e8899845ad3d59bd9653f200f220920489ca2b5937696c3183604051611ad2919061313a565b60405180910390a35050565b604051610e6590613091565b611afb611af5611def565b83611e6c565b611b175760405162461bcd60e51b815260040161057490613626565b611b23848484846121f6565b50505050565b6060611b3482611ddc565b611b505760405162461bcd60e51b815260040161057490613596565b60008281526008602090815260409182902080548351601f6002600019610100600186161502019093169290920491820184900484028101840190945280845260609392830182828015611be55780601f10611bba57610100808354040283529160200191611be5565b820191906000526020600020905b815481529060010190602001808311611bc857829003601f168201915b505060095493945050505060026000196101006001841615020190911604611c0e5790506105b3565b805115611c4057600981604051602001611c29929190612fff565b6040516020818303038152906040529150506105b3565b6009611c4b84612229565b604051602001611c5c929190612fff565b604051602081830303815290604052915050919050565b600c6020526000908152604090205460ff1681565b6000818152600a60205260408120610ae290611e61565b6000828152600a6020526040902060020154611cbd90610499611def565b610b205760405162461bcd60e51b815260040161057490613380565b6001600160a01b03918216600090815260056020908152604080832093909416825291909152205460ff1690565b805163ffffffff166000908152600f6020526040902060049081015460ff1690811115611d3057fe5b81608001516004811115611d4057fe5b1115611d85576080810151815163ffffffff166000908152600f6020526040902060049081018054909160ff19909116906001908490811115611d7f57fe5b02179055505b610120810151905163ffffffff9081166000908152600f60205260409020600501805491909216600160e01b026001600160e01b03909116179055565b610ab38282604051806020016040528060008152506122ed565b6000610ae260028363ffffffff61232016565b3390565b600081815260046020526040902080546001600160a01b0319166001600160a01b0384169081179091558190611e2882611558565b6001600160a01b03167f8c5be1e5ebec7d5bd14f71427d1e84f3dd0314c0f7b2291e5b200ac8c7c3b92560405160405180910390a45050565b6000610ae28261232c565b6000611e7782611ddc565b611e935760405162461bcd60e51b815260040161057490613334565b6000611e9e83611558565b9050806001600160a01b0316846001600160a01b03161480611ed95750836001600160a01b0316611ece8461066e565b6001600160a01b0316145b80611ee95750611ee98185611cd9565b949350505050565b826001600160a01b0316611f0482611558565b6001600160a01b031614611f2a5760405162461bcd60e51b81526004016105749061354d565b6001600160a01b038216611f505760405162461bcd60e51b8152600401610574906132bd565b611f5b838383610744565b611f66600082611df3565b6001600160a01b0383166000908152600160205260409020611f8e908263ffffffff61233016565b506001600160a01b0382166000908152600160205260409020611fb7908263ffffffff61233c16565b50611fca6002828463ffffffff61234816565b5080826001600160a01b0316846001600160a01b03166000805160206138b483398151915260405160405180910390a4505050565b6000828152600a6020526040902061201d908263ffffffff61235e16565b15610ab35761202a611def565b6001600160a01b0316816001600160a01b0316837f2f8788117e7eff1d82e926ec794901d17c78024a50270940304540a733656f0d60405160405180910390a45050565b6000610adf8383612373565b6000828152600a60205260409020612098908263ffffffff6123b816565b15610ab3576120a5611def565b6001600160a01b0316816001600160a01b0316837ff6391f5c32d9c69d2a47ea670b442974b53935d1edc7fd64eb21e047a839171b60405160405180910390a45050565b600b5460ff1661210b5760405162461bcd60e51b8152600401610574906131e0565b600b805460ff191690557f5db9ee0a495bf2e6ff9c91a7834c1ba4fdd244a5e8aa4e537bd38aeae4b073aa61213e611def565b60405161214b91906130a5565b60405180910390a1565b600080808061216486866123cd565b9097909650945050505050565b600061217e848484612429565b90505b9392505050565b600b5460ff16156121ab5760405162461bcd60e51b8152600401610574906133be565b600b805460ff191660011790557f62e78cea01bee320cd4e420270b5ea74000d11b0c9f74754ebdbfc544b05a25861213e611def565b6000610adf836001600160a01b038416612488565b612201848484611ef1565b61220d848484846124a0565b611b235760405162461bcd60e51b815260040161057490613235565b60608161224e57506040805180820190915260018152600360fc1b60208201526105b3565b8160005b811561226657600101600a82049150612252565b6060816040519080825280601f01601f191660200182016040528015612293576020820181803883390190505b50859350905060001982015b83156122e457600a840660300160f81b828280600190039350815181106122c257fe5b60200101906001600160f81b031916908160001a905350600a8404935061229f565b50949350505050565b6122f78383612585565b61230460008484846124a0565b6107445760405162461bcd60e51b815260040161057490613235565b6000610adf8383612488565b5490565b6000610adf8383612643565b6000610adf8383612709565b600061217e84846001600160a01b038516612753565b6000610adf836001600160a01b038416612709565b815460009082106123965760405162461bcd60e51b815260040161057490613161565b8260000182815481106123a557fe5b9060005260206000200154905092915050565b6000610adf836001600160a01b038416612643565b8154600090819083106123f25760405162461bcd60e51b81526004016105749061348a565b600084600001848154811061240357fe5b906000526020600020906002020190508060000154816001015492509250509250929050565b600082815260018401602052604081205482816124595760405162461bcd60e51b8152600401610574919061314e565b5084600001600182038154811061246c57fe5b9060005260206000209060020201600101549150509392505050565b60009081526001919091016020526040902054151590565b60006124b4846001600160a01b03166127ea565b6124c057506001611ee9565b606061254e630a85bd0160e11b6124d5611def565b8887876040516024016124eb94939291906130b9565b604051602081830303815290604052906001600160e01b0319166020820180516001600160e01b038381831617835250505050604051806060016040528060328152602001613859603291396001600160a01b038816919063ffffffff6127f016565b90506000818060200190516125669190810190612c6d565b6001600160e01b031916630a85bd0160e11b1492505050949350505050565b6001600160a01b0382166125ab5760405162461bcd60e51b8152600401610574906134cc565b6125b481611ddc565b156125d15760405162461bcd60e51b815260040161057490613287565b6125dd60008383610744565b6001600160a01b0382166000908152600160205260409020612605908263ffffffff61233c16565b506126186002828463ffffffff61234816565b5060405181906001600160a01b038416906000906000805160206138b4833981519152908290a45050565b600081815260018301602052604081205480156126ff578354600019808301919081019060009087908390811061267657fe5b906000526020600020015490508087600001848154811061269357fe5b6000918252602080832090910192909255828152600189810190925260409020908401905586548790806126c357fe5b60019003818190600052602060002001600090559055866001016000878152602001908152602001600020600090556001945050505050610ae2565b6000915050610ae2565b60006127158383612488565b61274b57508154600181810184556000848152602080822090930184905584548482528286019093526040902091909155610ae2565b506000610ae2565b6000828152600184016020526040812054806127b8575050604080518082018252838152602080820184815286546001818101895560008981528481209551600290930290950191825591519082015586548684528188019092529290912055612181565b828560000160018303815481106127cb57fe5b9060005260206000209060020201600101819055506000915050612181565b3b151590565b606061217e84846000856060612805856127ea565b6128215760405162461bcd60e51b815260040161057490613677565b60006060866001600160a01b0316858760405161283e9190612fe3565b60006040518083038185875af1925050503d806000811461287b576040519150601f19603f3d011682016040523d82523d6000602084013e612880565b606091505b50915091508115612894579150611ee99050565b8051156128a45780518082602001fd5b8360405162461bcd60e51b8152600401610574919061314e565b828054600181600116156101000203166002900490600052602060002090601f016020900481019282601f106128ff57805160ff191683800117855561292c565b8280016001018555821561292c579182015b8281111561292c578251825591602001919060010190612911565b506129389291506129dd565b5090565b6040518061020001604052806010905b61295461296a565b81526020019060019003908161294c5790505090565b604051806101600160405280600063ffffffff16815260200160608152602001600063ffffffff16815260200160608152602001600060048111156129ab57fe5b81526000602082018190526040820181905260608083018290526080830182905260a083019190915260c09091015290565b61066b91905b8082111561293857600081556001016129e3565b80356001600160a01b0381168114610ae257600080fd5b600082601f830112612a1e578081fd5b81356001600160401b03811115612a33578182fd5b612a46601f8201601f19166020016137c6565b9150808252836020828501011115612a5d57600080fd5b8060208401602084013760009082016020015292915050565b803560058110610ae257600080fd5b803563ffffffff81168114610ae257600080fd5b600060208284031215612aaa578081fd5b610adf83836129f7565b60008060408385031215612ac6578081fd5b612ad084846129f7565b9150612adf84602085016129f7565b90509250929050565b600080600060608486031215612afc578081fd5b8335612b0781613818565b92506020840135612b1781613818565b929592945050506040919091013590565b60008060008060808587031215612b3d578081fd5b612b4786866129f7565b9350612b5686602087016129f7565b92506040850135915060608501356001600160401b03811115612b77578182fd5b612b8387828801612a0e565b91505092959194509250565b60008060408385031215612ba1578182fd5b612bab84846129f7565b915060208301358015158114612bbf578182fd5b809150509250929050565b60008060408385031215612bdc578182fd5b612be684846129f7565b946020939093013593505050565b600060208284031215612c05578081fd5b5035919050565b60008060408385031215612c1e578182fd5b823591506020830135612bbf81613818565b60008060408385031215612c42578182fd5b50508035926020909101359150565b600060208284031215612c62578081fd5b813561218181613830565b600060208284031215612c7e578081fd5b815161218181613830565b60008060008060808587031215612c9e578182fd5b84356001600160401b0380821115612cb4578384fd5b612cc088838901612a0e565b955060208701359150612cd282613846565b90935060408601359080821115612ce7578384fd5b612cf388838901612a0e565b93506060870135915080821115612d08578283fd5b50612b8387828801612a0e565b600060208284031215612d26578081fd5b81356001600160401b0380821115612d3c578283fd5b610160918401808603831315612d50578384fd5b612d59836137c6565b612d638783612a85565b81526020820135935082841115612d78578485fd5b612d8487858401612a0e565b6020820152612d968760408401612a85565b60408201526060820135935082841115612dae578485fd5b612dba87858401612a0e565b6060820152612dcc8760808401612a76565b6080820152612dde8760a084016129f7565b60a0820152612df08760c084016129f7565b60c0820152612e028760e08401612a85565b60e08201526101009350612e1887858401612a85565b848201526101209350612e2d87858401612a85565b8482015261014093508382013583811115612e46578586fd5b612e5288828501612a0e565b948201949094529695505050505050565b600060208284031215612e74578081fd5b813561218181613846565b60008060408385031215612e91578182fd5b612ad08484612a85565b6001600160a01b03169052565b60008151808452612ec08160208601602086016137ec565b601f01601f19169290920160200192915050565b60058110612ede57fe5b9052565b6000610160612ef2848451612fd9565b6020830151816020860152612f0982860182612ea8565b60408501519250612f1d6040870184612fd9565b606085015192508581036060870152612f368184612ea8565b91505060808401519150612f4d6080860183612ed4565b60a08401519150612f6160a0860183612e9b565b60c08401519150612f7560c0860183612e9b565b60e08401519150612f8960e0860183612fd9565b610100915081840151612f9e83870182612fd9565b50610120915081840151612fb483870182612fd9565b5061014091508184015185820383870152612fcf8282612ea8565b9695505050505050565b63ffffffff169052565b60008251612ff58184602087016137ec565b9190910192915050565b600080845460018082166000811461301e576001811461303557613064565b60ff198316865260028304607f1686019350613064565b600283048886526020808720875b8381101561305c5781548a820152908501908201613043565b505050860193505b50505083516130778183602088016137ec565b01949350505050565b642227a727a960d91b815260050190565b672922a1a2a4ab22a960c11b815260080190565b6001600160a01b0391909116815260200190565b6001600160a01b0385811682528416602082015260408101839052608060608201819052600090612fcf90830184612ea8565b6020808252600090610220830183820185845b601081101561312e57601f1987850301835261311c848351612ee2565b935091840191908401906001016130ff565b50919695505050505050565b901515815260200190565b90815260200190565b600060208252610adf6020830184612ea8565b60208082526022908201527f456e756d657261626c655365743a20696e646578206f7574206f6620626f756e604082015261647360f01b606082015260800190565b6020808252602f908201526000805160206138d483398151915260408201526e0818591b5a5b881d1bc819dc985b9d608a1b606082015260800190565b60208082526014908201527314185d5cd8589b194e881b9bdd081c185d5cd95960621b604082015260600190565b6020808252600d908201526c125b9d985b1a5908185cdcd95d609a1b604082015260600190565b60208082526032908201527f4552433732313a207472616e7366657220746f206e6f6e20455243373231526560408201527131b2b4bb32b91034b6b83632b6b2b73a32b960711b606082015260800190565b6020808252601c908201527b115490cdcc8c4e881d1bdad95b88185b1c9958591e481b5a5b9d195960221b604082015260600190565b60208082526024908201527f4552433732313a207472616e7366657220746f20746865207a65726f206164646040820152637265737360e01b606082015260800190565b60208082526019908201527822a9219b99189d1030b8383937bb32903a379031b0b63632b960391b604082015260600190565b6020808252602c908201527f4552433732313a206f70657261746f7220717565727920666f72206e6f6e657860408201526b34b9ba32b73a103a37b5b2b760a11b606082015260800190565b60208082526030908201526000805160206138d483398151915260408201526f2061646d696e20746f207265766f6b6560801b606082015260800190565b60208082526010908201526f14185d5cd8589b194e881c185d5cd95960821b604082015260600190565b60208082526038908201527f4552433732313a20617070726f76652063616c6c6572206973206e6f74206f776040820152771b995c881b9bdc88185c1c1c9bdd995908199bdc88185b1b60421b606082015260800190565b6020808252602a908201527f4552433732313a2062616c616e636520717565727920666f7220746865207a65604082015269726f206164647265737360b01b606082015260800190565b60208082526022908201527f456e756d657261626c654d61703a20696e646578206f7574206f6620626f756e604082015261647360f01b606082015260800190565b6020808252818101527f4552433732313a206d696e7420746f20746865207a65726f2061646472657373604082015260600190565b6020808252602c908201527f4552433732313a20617070726f76656420717565727920666f72206e6f6e657860408201526b34b9ba32b73a103a37b5b2b760a11b606082015260800190565b60208082526029908201527f4552433732313a207472616e73666572206f6620746f6b656e2074686174206960408201526839903737ba1037bbb760b91b606082015260800190565b6020808252602f908201527f4552433732314d657461646174613a2055524920717565727920666f72206e6f60408201526e3732bc34b9ba32b73a103a37b5b2b760891b606082015260800190565b60208082526021908201527f4552433732313a20617070726f76616c20746f2063757272656e74206f776e656040820152603960f91b606082015260800190565b60208082526031908201527f4552433732313a207472616e736665722063616c6c6572206973206e6f74206f6040820152701ddb995c881b9bdc88185c1c1c9bdd9959607a1b606082015260800190565b6020808252601d908201527f416464726573733a2063616c6c20746f206e6f6e2d636f6e7472616374000000604082015260600190565b6020808252602f908201527f416363657373436f6e74726f6c3a2063616e206f6e6c792072656e6f756e636560408201526e103937b632b9903337b91039b2b63360891b606082015260800190565b600060208252610adf6020830184612ee2565b63ffffffff91909116815260200190565b600061016063ffffffff808f1684528160208501526137428285018f612ea8565b818e166040860152848103606086015261375c818e612ea8565b92505061376c608085018c612ed4565b6001600160a01b038a811660a0860152891660c085015287811660e085015286166101008401526137a1610120840186612fd9565b8281036101408401526137b48185612ea8565b9e9d5050505050505050505050505050565b6040518181016001600160401b03811182821017156137e457600080fd5b604052919050565b60005b838110156138075781810151838201526020016137ef565b83811115611b235750506000910152565b6001600160a01b038116811461382d57600080fd5b50565b6001600160e01b03198116811461382d57600080fd5b63ffffffff8116811461382d57600080fdfe4552433732313a207472616e7366657220746f206e6f6e20455243373231526563656976657220696d706c656d656e7465724552433732313a206f776e657220717565727920666f72206e6f6e6578697374656e7420746f6b656eddf252ad1be2c89b69c2b068fc378daa952ba7f163c4a11628f55a4df523b3ef416363657373436f6e74726f6c3a2073656e646572206d75737420626520616ea2646970667358221220e2b61a65773795eedf386b1b3fcdc3777a264a513e71f99b23627df1518fbf5764736f6c63430006020033",
  "source": "pragma solidity ^0.6.2;\npragma experimental ABIEncoderV2;\n\nimport \"@openzeppelin/contracts/token/ERC721/ERC721.sol\";\nimport \"@openzeppelin/contracts/access/AccessControl.sol\";\nimport \"./Administration.sol\";\n\n/// @title A Asset donation smart contract\n/// @author Fatemeh Heidari Soureshjani\n/// @notice This contract facilitates donation of physical assets for specific periods of time between asset owners and receivers\n/// @dev time\n\ncontract DonateAsset is ERC721, Administration {\n    uint32 lastAssetId;\n\n    constructor() public ERC721(\"MyToken\", \"MTS\") Administration() {\n        lastAssetId = 0;\n    }\n\n    enum Status {Free, Requested, Donated, Inactive, Burned}\n\n    struct Asset {\n        uint32 assetId;\n        string assetDescription;\n        uint32 availablityDate;\n        string location;\n        Status status;\n        address owner;\n        address recipient;\n        uint32 donatedDateFrom;\n        uint32 donatedDateTo;\n        uint32 requestCount;\n        string imageIPFSHash;\n    }\n\n    mapping(uint32 => Asset) public donationList;\n\n    modifier assetIsFree(uint32 assetId) {\n        require(donationList[assetId].recipient == address(0) && (donationList[assetId].status == Status.Free || donationList[assetId].status == Status.Requested));\n        _;\n    }\n\n    modifier assetExists(uint32 assetId) {\n        require(donationList[assetId].owner != address(0), \"Invalid asset\");\n        _;\n    }\n\n    modifier isAssetOwner(uint assetId){\n        require(ownerOf(assetId) == msg.sender);\n        _; \n    }\n\n    event LogFree(uint32 assetId);\n    \n    event LogDonated(uint32 assetId);\n    // event LogInactive(uint32 assetId);\n    // event LogIBurned(uint32 assetId);\n\n    function UpdateAsset(Asset memory asset) public {\n        if (asset.status > donationList[asset.assetId].status) {\n            donationList[asset.assetId].status = asset.status;\n        }\n        donationList[asset.assetId].requestCount = asset.requestCount;\n    }\n\n    /// @notice Adds a new asset to list of donated assets(Should be called by a donor)\n    /// @dev other asset struct members should be added\n    /// @param assetDescription Descrption of the asset entered by owner\n    /// @param availablityDate the first date the owner can donate the asset\n    /// @param location the location of the donated asset\n    /// @param imageIPFSHash IPFS hash of the asset image uploaded by owner and saved to IPFS\n    function addAsset(\n        string memory assetDescription,\n        uint32 availablityDate,\n        string memory location,\n        string memory imageIPFSHash\n    ) public whenNotPaused {\n        addDonor();\n        uint32 assetId = mintToken(msg.sender);\n        donationList[assetId] = Asset({\n            assetId: assetId,\n            assetDescription: assetDescription,\n            availablityDate: availablityDate,\n            location: location,\n            status: Status.Free,\n            owner: msg.sender,\n            recipient: address(0),\n            donatedDateFrom: 0,\n            donatedDateTo: 0,\n            requestCount: 0,\n            imageIPFSHash: imageIPFSHash\n        });\n        emit LogFree(assetId);\n    }\n\n    /// @notice Returns all donations of an donor(it shoud be called by a donor)\n    /// @dev There must be better way than returing always an array of 16\n    /// @return Asset returns an array of type asset and length 16 of donations of msg.sender\n    function getDonationsByOwner()\n        public \n        view\n        returns (\n            Asset[16] memory\n        )\n    {\n        uint32 tokenCount = uint32(balanceOf(msg.sender));\n        uint32 index = 0;\n        uint32 tokenId;\n        Asset[16] memory assetList;\n        if (tokenCount <= 16) {\n            index = tokenCount;\n        } else {\n            index = 16;\n        }\n        for (uint32 i = 0; i < index; i++) {\n            tokenId = uint32(tokenOfOwnerByIndex(msg.sender, i));\n            assetList[i] = donationList[tokenId];\n        }\n        return assetList;\n    }\n\n    /// @notice returns all donations\n    /// @dev There must be better way than returing always an array of 16\n    /// @return Asset returns an array of type asset and length 16 of all donations\n    function getAllDonations() public view returns (Asset[16] memory) {\n        uint32 index = 0;\n        Asset[16] memory assetList;\n        if (lastAssetId <= 16) {\n            index = lastAssetId;\n        } else {\n            index = 16;\n        }\n        for (uint32 i = 0; i < index; i++) {\n            assetList[i] = donationList[i];\n        }\n        return assetList;\n    }\n\n    /// @notice The ERC721 stadard for nunfungible token is used to maintain ownership of assets\n    /// @notice everytime a new token is minted based on current value of lastAssetId for assetOwner address, and then lastAssetId is increased\n    /// @param assetOwner the owner of the new asset\n    /// @return returns the id of new minted token\n    function mintToken(\n        address assetOwner //isDonor(msg.sender)\n    ) public whenNotPaused returns (uint32) {\n        _safeMint(assetOwner, lastAssetId);\n        uint32 assetId = lastAssetId;\n        lastAssetId++;\n        return assetId;\n    }\n\n    /// @notice a donor can approve a specific request and this function assigns the recipient of this asset to the recipientAddress\n    /// @notice caller should be a donor and recipient should be a receiver\n    /// @param assetId unique id of asset to be donated\n    /// @param recipientAddress donation receiver\n    function donateAsset(uint32 assetId, address recipientAddress)\n        public\n        assetExists(assetId)\n        //isReceiver(recipientAddress)\n        assetIsFree(assetId)\n        isAssetOwner(assetId)\n        //isDonor(msg.sender)\n        whenNotPaused\n    {\n        donationList[assetId].recipient = recipientAddress;\n        donationList[assetId].status = Status.Donated;\n        emit LogDonated(assetId);\n    }\n\n\n    function getAssetRequestCount(uint32 assetId) public view returns (uint32) {\n        return donationList[assetId].requestCount;\n    }\n\n    function getDonation(uint32 assetId) public view returns (Asset memory) {\n        return donationList[assetId];\n    }\n}\n",
  "sourcePath": "/home/fatemeh/Desktop/Consensys Course/assetdonation/AssetDonation/contracts/DonateAsset.sol",
  "compiler": {
    "name": "solc",
    "version": "0.6.2+commit.bacdbe57.Emscripten.clang"
  },
  "schemaVersion": "3.3.1",
  "updatedAt": "2020-12-07T00:12:52.679Z",
  "networkType": "ethereum",
  "devdoc": {
    "author": "Fatemeh Heidari Soureshjani",
    "details": "time",
    "methods": {
      "addAsset(string,uint32,string,string)": {
        "details": "other asset struct members should be added",
        "params": {
          "assetDescription": "Descrption of the asset entered by owner",
          "availablityDate": "the first date the owner can donate the asset",
          "imageIPFSHash": "IPFS hash of the asset image uploaded by owner and saved to IPFS",
          "location": "the location of the donated asset"
        }
      },
      "approve(address,uint256)": {
        "details": "See {IERC721-approve}."
      },
      "approveDonor(address)": {
        "params": {
          "donorAddress": "The address of donor to be approved"
        }
      },
      "approveReceiver(address)": {
        "params": {
          "receiverAddress": "The address of receiver to be approved"
        }
      },
      "balanceOf(address)": {
        "details": "See {IERC721-balanceOf}."
      },
      "baseURI()": {
        "details": "Returns the base URI set via {_setBaseURI}. This will be automatically added as a prefix in {tokenURI} to each token's URI, or to the token ID if no specific URI is set for that token ID."
      },
      "donateAsset(uint32,address)": {
        "params": {
          "assetId": "unique id of asset to be donated",
          "recipientAddress": "donation receiver"
        }
      },
      "getAllDonations()": {
        "details": "There must be better way than returing always an array of 16",
        "returns": {
          "_0": "Asset returns an array of type asset and length 16 of all donations"
        }
      },
      "getApproved(uint256)": {
        "details": "See {IERC721-getApproved}."
      },
      "getDonationsByOwner()": {
        "details": "There must be better way than returing always an array of 16",
        "returns": {
          "_0": "Asset returns an array of type asset and length 16 of donations of msg.sender"
        }
      },
      "getRoleAdmin(bytes32)": {
        "details": "Returns the admin role that controls `role`. See {grantRole} and {revokeRole}.     * To change a role's admin, use {_setRoleAdmin}."
      },
      "getRoleMember(bytes32,uint256)": {
        "details": "Returns one of the accounts that have `role`. `index` must be a value between 0 and {getRoleMemberCount}, non-inclusive.     * Role bearers are not sorted in any particular way, and their ordering may change at any point.     * WARNING: When using {getRoleMember} and {getRoleMemberCount}, make sure you perform all queries on the same block. See the following https://forum.openzeppelin.com/t/iterating-over-elements-on-enumerableset-in-openzeppelin-contracts/2296[forum post] for more information."
      },
      "getRoleMemberCount(bytes32)": {
        "details": "Returns the number of accounts that have `role`. Can be used together with {getRoleMember} to enumerate all bearers of a role."
      },
      "grantRole(bytes32,address)": {
        "details": "Grants `role` to `account`.     * If `account` had not been already granted `role`, emits a {RoleGranted} event.     * Requirements:     * - the caller must have ``role``'s admin role."
      },
      "hasRole(bytes32,address)": {
        "details": "Returns `true` if `account` has been granted `role`."
      },
      "isApprovedForAll(address,address)": {
        "details": "See {IERC721-isApprovedForAll}."
      },
      "mintToken(address)": {
        "params": {
          "assetOwner": "the owner of the new asset"
        },
        "returns": {
          "_0": "returns the id of new minted token"
        }
      },
      "name()": {
        "details": "See {IERC721Metadata-name}."
      },
      "ownerOf(uint256)": {
        "details": "See {IERC721-ownerOf}."
      },
      "paused()": {
        "details": "Returns true if the contract is paused, and false otherwise."
      },
      "renounceRole(bytes32,address)": {
        "details": "Revokes `role` from the calling account.     * Roles are often managed via {grantRole} and {revokeRole}: this function's purpose is to provide a mechanism for accounts to lose their privileges if they are compromised (such as when a trusted device is misplaced).     * If the calling account had been granted `role`, emits a {RoleRevoked} event.     * Requirements:     * - the caller must be `account`."
      },
      "revokeRole(bytes32,address)": {
        "details": "Revokes `role` from `account`.     * If `account` had been granted `role`, emits a {RoleRevoked} event.     * Requirements:     * - the caller must have ``role``'s admin role."
      },
      "safeTransferFrom(address,address,uint256)": {
        "details": "See {IERC721-safeTransferFrom}."
      },
      "safeTransferFrom(address,address,uint256,bytes)": {
        "details": "See {IERC721-safeTransferFrom}."
      },
      "setApprovalForAll(address,bool)": {
        "details": "See {IERC721-setApprovalForAll}."
      },
      "supportsInterface(bytes4)": {
        "details": "See {IERC165-supportsInterface}.     * Time complexity O(1), guaranteed to always use less than 30 000 gas."
      },
      "symbol()": {
        "details": "See {IERC721Metadata-symbol}."
      },
      "tokenByIndex(uint256)": {
        "details": "See {IERC721Enumerable-tokenByIndex}."
      },
      "tokenOfOwnerByIndex(address,uint256)": {
        "details": "See {IERC721Enumerable-tokenOfOwnerByIndex}."
      },
      "tokenURI(uint256)": {
        "details": "See {IERC721Metadata-tokenURI}."
      },
      "totalSupply()": {
        "details": "See {IERC721Enumerable-totalSupply}."
      },
      "transferFrom(address,address,uint256)": {
        "details": "See {IERC721-transferFrom}."
      }
    },
    "title": "A Asset donation smart contract"
  },
  "userdoc": {
    "methods": {
      "addAsset(string,uint32,string,string)": {
        "notice": "Adds a new asset to list of donated assets(Should be called by a donor)"
      },
      "addReceiver()": {
        "notice": "Adds an address to list of receivers"
      },
      "approveDonor(address)": {
        "notice": "Admin approves an address to have the donor role"
      },
      "approveReceiver(address)": {
        "notice": "Admin approves an address to have the receiver role"
      },
      "donateAsset(uint32,address)": {
        "notice": "a donor can approve a specific request and this function assigns the recipient of this asset to the recipientAddresscaller should be a donor and recipient should be a receiver"
      },
      "getAllDonations()": {
        "notice": "returns all donations"
      },
      "getDonationsByOwner()": {
        "notice": "Returns all donations of an donor(it shoud be called by a donor)"
      },
      "mintToken(address)": {
        "notice": "The ERC721 stadard for nunfungible token is used to maintain ownership of assetseverytime a new token is minted based on current value of lastAssetId for assetOwner address, and then lastAssetId is increased"
      }
    },
    "notice": "This contract facilitates donation of physical assets for specific periods of time between asset owners and receivers"
  }
}