{
  "contractName": "DonateAsset",
  "abi": [
    {
      "inputs": [],
      "stateMutability": "nonpayable",
      "type": "constructor"
    },
    {
      "anonymous": false,
      "inputs": [
        {
          "indexed": true,
          "internalType": "address",
          "name": "owner",
          "type": "address"
        },
        {
          "indexed": true,
          "internalType": "address",
          "name": "approved",
          "type": "address"
        },
        {
          "indexed": true,
          "internalType": "uint256",
          "name": "tokenId",
          "type": "uint256"
        }
      ],
      "name": "Approval",
      "type": "event"
    },
    {
      "anonymous": false,
      "inputs": [
        {
          "indexed": true,
          "internalType": "address",
          "name": "owner",
          "type": "address"
        },
        {
          "indexed": true,
          "internalType": "address",
          "name": "operator",
          "type": "address"
        },
        {
          "indexed": false,
          "internalType": "bool",
          "name": "approved",
          "type": "bool"
        }
      ],
      "name": "ApprovalForAll",
      "type": "event"
    },
    {
      "anonymous": false,
      "inputs": [
        {
          "indexed": false,
          "internalType": "uint32",
          "name": "assetId",
          "type": "uint32"
        }
      ],
      "name": "LogDonated",
      "type": "event"
    },
    {
      "anonymous": false,
      "inputs": [
        {
          "indexed": false,
          "internalType": "uint32",
          "name": "assetId",
          "type": "uint32"
        }
      ],
      "name": "LogFree",
      "type": "event"
    },
    {
      "anonymous": false,
      "inputs": [
        {
          "indexed": false,
          "internalType": "uint32",
          "name": "assetId",
          "type": "uint32"
        }
      ],
      "name": "LogIBurned",
      "type": "event"
    },
    {
      "anonymous": false,
      "inputs": [
        {
          "indexed": false,
          "internalType": "uint32",
          "name": "assetId",
          "type": "uint32"
        }
      ],
      "name": "LogInactive",
      "type": "event"
    },
    {
      "anonymous": false,
      "inputs": [
        {
          "indexed": false,
          "internalType": "uint32",
          "name": "assetId",
          "type": "uint32"
        }
      ],
      "name": "LogRequested",
      "type": "event"
    },
    {
      "anonymous": false,
      "inputs": [
        {
          "indexed": false,
          "internalType": "address",
          "name": "account",
          "type": "address"
        }
      ],
      "name": "Paused",
      "type": "event"
    },
    {
      "anonymous": false,
      "inputs": [
        {
          "indexed": true,
          "internalType": "bytes32",
          "name": "role",
          "type": "bytes32"
        },
        {
          "indexed": true,
          "internalType": "bytes32",
          "name": "previousAdminRole",
          "type": "bytes32"
        },
        {
          "indexed": true,
          "internalType": "bytes32",
          "name": "newAdminRole",
          "type": "bytes32"
        }
      ],
      "name": "RoleAdminChanged",
      "type": "event"
    },
    {
      "anonymous": false,
      "inputs": [
        {
          "indexed": true,
          "internalType": "bytes32",
          "name": "role",
          "type": "bytes32"
        },
        {
          "indexed": true,
          "internalType": "address",
          "name": "account",
          "type": "address"
        },
        {
          "indexed": true,
          "internalType": "address",
          "name": "sender",
          "type": "address"
        }
      ],
      "name": "RoleGranted",
      "type": "event"
    },
    {
      "anonymous": false,
      "inputs": [
        {
          "indexed": true,
          "internalType": "bytes32",
          "name": "role",
          "type": "bytes32"
        },
        {
          "indexed": true,
          "internalType": "address",
          "name": "account",
          "type": "address"
        },
        {
          "indexed": true,
          "internalType": "address",
          "name": "sender",
          "type": "address"
        }
      ],
      "name": "RoleRevoked",
      "type": "event"
    },
    {
      "anonymous": false,
      "inputs": [
        {
          "indexed": true,
          "internalType": "address",
          "name": "from",
          "type": "address"
        },
        {
          "indexed": true,
          "internalType": "address",
          "name": "to",
          "type": "address"
        },
        {
          "indexed": true,
          "internalType": "uint256",
          "name": "tokenId",
          "type": "uint256"
        }
      ],
      "name": "Transfer",
      "type": "event"
    },
    {
      "anonymous": false,
      "inputs": [
        {
          "indexed": false,
          "internalType": "address",
          "name": "account",
          "type": "address"
        }
      ],
      "name": "Unpaused",
      "type": "event"
    },
    {
      "inputs": [],
      "name": "DEFAULT_ADMIN_ROLE",
      "outputs": [
        {
          "internalType": "bytes32",
          "name": "",
          "type": "bytes32"
        }
      ],
      "stateMutability": "view",
      "type": "function",
      "constant": true
    },
    {
      "inputs": [],
      "name": "DONOR",
      "outputs": [
        {
          "internalType": "bytes32",
          "name": "",
          "type": "bytes32"
        }
      ],
      "stateMutability": "view",
      "type": "function",
      "constant": true
    },
    {
      "inputs": [],
      "name": "RECEIVER",
      "outputs": [
        {
          "internalType": "bytes32",
          "name": "",
          "type": "bytes32"
        }
      ],
      "stateMutability": "view",
      "type": "function",
      "constant": true
    },
    {
      "inputs": [],
      "name": "addDonor",
      "outputs": [],
      "stateMutability": "nonpayable",
      "type": "function"
    },
    {
      "inputs": [],
      "name": "addReceiver",
      "outputs": [],
      "stateMutability": "nonpayable",
      "type": "function"
    },
    {
      "inputs": [
        {
          "internalType": "address",
          "name": "to",
          "type": "address"
        },
        {
          "internalType": "uint256",
          "name": "tokenId",
          "type": "uint256"
        }
      ],
      "name": "approve",
      "outputs": [],
      "stateMutability": "nonpayable",
      "type": "function"
    },
    {
      "inputs": [
        {
          "internalType": "address",
          "name": "donorAddress",
          "type": "address"
        }
      ],
      "name": "approveDonor",
      "outputs": [],
      "stateMutability": "nonpayable",
      "type": "function"
    },
    {
      "inputs": [
        {
          "internalType": "address",
          "name": "receiverAddress",
          "type": "address"
        }
      ],
      "name": "approveReceiver",
      "outputs": [],
      "stateMutability": "nonpayable",
      "type": "function"
    },
    {
      "inputs": [
        {
          "internalType": "address",
          "name": "owner",
          "type": "address"
        }
      ],
      "name": "balanceOf",
      "outputs": [
        {
          "internalType": "uint256",
          "name": "",
          "type": "uint256"
        }
      ],
      "stateMutability": "view",
      "type": "function",
      "constant": true
    },
    {
      "inputs": [],
      "name": "baseURI",
      "outputs": [
        {
          "internalType": "string",
          "name": "",
          "type": "string"
        }
      ],
      "stateMutability": "view",
      "type": "function",
      "constant": true
    },
    {
      "inputs": [
        {
          "internalType": "uint32",
          "name": "",
          "type": "uint32"
        }
      ],
      "name": "donationList",
      "outputs": [
        {
          "internalType": "uint32",
          "name": "assetId",
          "type": "uint32"
        },
        {
          "internalType": "string",
          "name": "assetDescription",
          "type": "string"
        },
        {
          "internalType": "uint32",
          "name": "availablityDate",
          "type": "uint32"
        },
        {
          "internalType": "string",
          "name": "location",
          "type": "string"
        },
        {
          "internalType": "enum DonateAsset.Status",
          "name": "status",
          "type": "uint8"
        },
        {
          "internalType": "address",
          "name": "owner",
          "type": "address"
        },
        {
          "internalType": "address",
          "name": "recipient",
          "type": "address"
        },
        {
          "internalType": "uint32",
          "name": "donatedDateFrom",
          "type": "uint32"
        },
        {
          "internalType": "uint32",
          "name": "donatedDateTo",
          "type": "uint32"
        },
        {
          "internalType": "uint32",
          "name": "requestCount",
          "type": "uint32"
        },
        {
          "internalType": "string",
          "name": "imageIPFSHash",
          "type": "string"
        }
      ],
      "stateMutability": "view",
      "type": "function",
      "constant": true
    },
    {
      "inputs": [
        {
          "internalType": "address",
          "name": "",
          "type": "address"
        }
      ],
      "name": "donors",
      "outputs": [
        {
          "internalType": "bool",
          "name": "",
          "type": "bool"
        }
      ],
      "stateMutability": "view",
      "type": "function",
      "constant": true
    },
    {
      "inputs": [
        {
          "internalType": "uint256",
          "name": "tokenId",
          "type": "uint256"
        }
      ],
      "name": "getApproved",
      "outputs": [
        {
          "internalType": "address",
          "name": "",
          "type": "address"
        }
      ],
      "stateMutability": "view",
      "type": "function",
      "constant": true
    },
    {
      "inputs": [
        {
          "internalType": "bytes32",
          "name": "role",
          "type": "bytes32"
        }
      ],
      "name": "getRoleAdmin",
      "outputs": [
        {
          "internalType": "bytes32",
          "name": "",
          "type": "bytes32"
        }
      ],
      "stateMutability": "view",
      "type": "function",
      "constant": true
    },
    {
      "inputs": [
        {
          "internalType": "bytes32",
          "name": "role",
          "type": "bytes32"
        },
        {
          "internalType": "uint256",
          "name": "index",
          "type": "uint256"
        }
      ],
      "name": "getRoleMember",
      "outputs": [
        {
          "internalType": "address",
          "name": "",
          "type": "address"
        }
      ],
      "stateMutability": "view",
      "type": "function",
      "constant": true
    },
    {
      "inputs": [
        {
          "internalType": "bytes32",
          "name": "role",
          "type": "bytes32"
        }
      ],
      "name": "getRoleMemberCount",
      "outputs": [
        {
          "internalType": "uint256",
          "name": "",
          "type": "uint256"
        }
      ],
      "stateMutability": "view",
      "type": "function",
      "constant": true
    },
    {
      "inputs": [
        {
          "internalType": "bytes32",
          "name": "role",
          "type": "bytes32"
        },
        {
          "internalType": "address",
          "name": "account",
          "type": "address"
        }
      ],
      "name": "grantRole",
      "outputs": [],
      "stateMutability": "nonpayable",
      "type": "function"
    },
    {
      "inputs": [
        {
          "internalType": "bytes32",
          "name": "role",
          "type": "bytes32"
        },
        {
          "internalType": "address",
          "name": "account",
          "type": "address"
        }
      ],
      "name": "hasRole",
      "outputs": [
        {
          "internalType": "bool",
          "name": "",
          "type": "bool"
        }
      ],
      "stateMutability": "view",
      "type": "function",
      "constant": true
    },
    {
      "inputs": [
        {
          "internalType": "address",
          "name": "owner",
          "type": "address"
        },
        {
          "internalType": "address",
          "name": "operator",
          "type": "address"
        }
      ],
      "name": "isApprovedForAll",
      "outputs": [
        {
          "internalType": "bool",
          "name": "",
          "type": "bool"
        }
      ],
      "stateMutability": "view",
      "type": "function",
      "constant": true
    },
    {
      "inputs": [],
      "name": "name",
      "outputs": [
        {
          "internalType": "string",
          "name": "",
          "type": "string"
        }
      ],
      "stateMutability": "view",
      "type": "function",
      "constant": true
    },
    {
      "inputs": [
        {
          "internalType": "uint256",
          "name": "tokenId",
          "type": "uint256"
        }
      ],
      "name": "ownerOf",
      "outputs": [
        {
          "internalType": "address",
          "name": "",
          "type": "address"
        }
      ],
      "stateMutability": "view",
      "type": "function",
      "constant": true
    },
    {
      "inputs": [],
      "name": "paused",
      "outputs": [
        {
          "internalType": "bool",
          "name": "",
          "type": "bool"
        }
      ],
      "stateMutability": "view",
      "type": "function",
      "constant": true
    },
    {
      "inputs": [
        {
          "internalType": "address",
          "name": "",
          "type": "address"
        }
      ],
      "name": "receivers",
      "outputs": [
        {
          "internalType": "bool",
          "name": "",
          "type": "bool"
        }
      ],
      "stateMutability": "view",
      "type": "function",
      "constant": true
    },
    {
      "inputs": [
        {
          "internalType": "bytes32",
          "name": "role",
          "type": "bytes32"
        },
        {
          "internalType": "address",
          "name": "account",
          "type": "address"
        }
      ],
      "name": "renounceRole",
      "outputs": [],
      "stateMutability": "nonpayable",
      "type": "function"
    },
    {
      "inputs": [
        {
          "internalType": "bytes32",
          "name": "role",
          "type": "bytes32"
        },
        {
          "internalType": "address",
          "name": "account",
          "type": "address"
        }
      ],
      "name": "revokeRole",
      "outputs": [],
      "stateMutability": "nonpayable",
      "type": "function"
    },
    {
      "inputs": [
        {
          "internalType": "address",
          "name": "from",
          "type": "address"
        },
        {
          "internalType": "address",
          "name": "to",
          "type": "address"
        },
        {
          "internalType": "uint256",
          "name": "tokenId",
          "type": "uint256"
        }
      ],
      "name": "safeTransferFrom",
      "outputs": [],
      "stateMutability": "nonpayable",
      "type": "function"
    },
    {
      "inputs": [
        {
          "internalType": "address",
          "name": "from",
          "type": "address"
        },
        {
          "internalType": "address",
          "name": "to",
          "type": "address"
        },
        {
          "internalType": "uint256",
          "name": "tokenId",
          "type": "uint256"
        },
        {
          "internalType": "bytes",
          "name": "_data",
          "type": "bytes"
        }
      ],
      "name": "safeTransferFrom",
      "outputs": [],
      "stateMutability": "nonpayable",
      "type": "function"
    },
    {
      "inputs": [
        {
          "internalType": "address",
          "name": "operator",
          "type": "address"
        },
        {
          "internalType": "bool",
          "name": "approved",
          "type": "bool"
        }
      ],
      "name": "setApprovalForAll",
      "outputs": [],
      "stateMutability": "nonpayable",
      "type": "function"
    },
    {
      "inputs": [
        {
          "internalType": "bytes4",
          "name": "interfaceId",
          "type": "bytes4"
        }
      ],
      "name": "supportsInterface",
      "outputs": [
        {
          "internalType": "bool",
          "name": "",
          "type": "bool"
        }
      ],
      "stateMutability": "view",
      "type": "function",
      "constant": true
    },
    {
      "inputs": [],
      "name": "symbol",
      "outputs": [
        {
          "internalType": "string",
          "name": "",
          "type": "string"
        }
      ],
      "stateMutability": "view",
      "type": "function",
      "constant": true
    },
    {
      "inputs": [
        {
          "internalType": "uint256",
          "name": "index",
          "type": "uint256"
        }
      ],
      "name": "tokenByIndex",
      "outputs": [
        {
          "internalType": "uint256",
          "name": "",
          "type": "uint256"
        }
      ],
      "stateMutability": "view",
      "type": "function",
      "constant": true
    },
    {
      "inputs": [
        {
          "internalType": "address",
          "name": "owner",
          "type": "address"
        },
        {
          "internalType": "uint256",
          "name": "index",
          "type": "uint256"
        }
      ],
      "name": "tokenOfOwnerByIndex",
      "outputs": [
        {
          "internalType": "uint256",
          "name": "",
          "type": "uint256"
        }
      ],
      "stateMutability": "view",
      "type": "function",
      "constant": true
    },
    {
      "inputs": [
        {
          "internalType": "uint256",
          "name": "tokenId",
          "type": "uint256"
        }
      ],
      "name": "tokenURI",
      "outputs": [
        {
          "internalType": "string",
          "name": "",
          "type": "string"
        }
      ],
      "stateMutability": "view",
      "type": "function",
      "constant": true
    },
    {
      "inputs": [],
      "name": "totalSupply",
      "outputs": [
        {
          "internalType": "uint256",
          "name": "",
          "type": "uint256"
        }
      ],
      "stateMutability": "view",
      "type": "function",
      "constant": true
    },
    {
      "inputs": [
        {
          "internalType": "address",
          "name": "from",
          "type": "address"
        },
        {
          "internalType": "address",
          "name": "to",
          "type": "address"
        },
        {
          "internalType": "uint256",
          "name": "tokenId",
          "type": "uint256"
        }
      ],
      "name": "transferFrom",
      "outputs": [],
      "stateMutability": "nonpayable",
      "type": "function"
    },
    {
      "inputs": [
        {
          "components": [
            {
              "internalType": "uint32",
              "name": "assetId",
              "type": "uint32"
            },
            {
              "internalType": "string",
              "name": "assetDescription",
              "type": "string"
            },
            {
              "internalType": "uint32",
              "name": "availablityDate",
              "type": "uint32"
            },
            {
              "internalType": "string",
              "name": "location",
              "type": "string"
            },
            {
              "internalType": "enum DonateAsset.Status",
              "name": "status",
              "type": "uint8"
            },
            {
              "internalType": "address",
              "name": "owner",
              "type": "address"
            },
            {
              "internalType": "address",
              "name": "recipient",
              "type": "address"
            },
            {
              "internalType": "uint32",
              "name": "donatedDateFrom",
              "type": "uint32"
            },
            {
              "internalType": "uint32",
              "name": "donatedDateTo",
              "type": "uint32"
            },
            {
              "internalType": "uint32",
              "name": "requestCount",
              "type": "uint32"
            },
            {
              "internalType": "string",
              "name": "imageIPFSHash",
              "type": "string"
            }
          ],
          "internalType": "struct DonateAsset.Asset",
          "name": "asset",
          "type": "tuple"
        }
      ],
      "name": "UpdateAsset",
      "outputs": [],
      "stateMutability": "nonpayable",
      "type": "function"
    },
    {
      "inputs": [
        {
          "internalType": "string",
          "name": "assetDescription",
          "type": "string"
        },
        {
          "internalType": "uint32",
          "name": "availablityDate",
          "type": "uint32"
        },
        {
          "internalType": "string",
          "name": "location",
          "type": "string"
        },
        {
          "internalType": "string",
          "name": "imageIPFSHash",
          "type": "string"
        }
      ],
      "name": "addAsset",
      "outputs": [],
      "stateMutability": "nonpayable",
      "type": "function"
    },
    {
      "inputs": [],
      "name": "getDonationsByOwner",
      "outputs": [
        {
          "components": [
            {
              "internalType": "uint32",
              "name": "assetId",
              "type": "uint32"
            },
            {
              "internalType": "string",
              "name": "assetDescription",
              "type": "string"
            },
            {
              "internalType": "uint32",
              "name": "availablityDate",
              "type": "uint32"
            },
            {
              "internalType": "string",
              "name": "location",
              "type": "string"
            },
            {
              "internalType": "enum DonateAsset.Status",
              "name": "status",
              "type": "uint8"
            },
            {
              "internalType": "address",
              "name": "owner",
              "type": "address"
            },
            {
              "internalType": "address",
              "name": "recipient",
              "type": "address"
            },
            {
              "internalType": "uint32",
              "name": "donatedDateFrom",
              "type": "uint32"
            },
            {
              "internalType": "uint32",
              "name": "donatedDateTo",
              "type": "uint32"
            },
            {
              "internalType": "uint32",
              "name": "requestCount",
              "type": "uint32"
            },
            {
              "internalType": "string",
              "name": "imageIPFSHash",
              "type": "string"
            }
          ],
          "internalType": "struct DonateAsset.Asset[16]",
          "name": "",
          "type": "tuple[16]"
        }
      ],
      "stateMutability": "view",
      "type": "function",
      "constant": true
    },
    {
      "inputs": [],
      "name": "getAllDonations",
      "outputs": [
        {
          "components": [
            {
              "internalType": "uint32",
              "name": "assetId",
              "type": "uint32"
            },
            {
              "internalType": "string",
              "name": "assetDescription",
              "type": "string"
            },
            {
              "internalType": "uint32",
              "name": "availablityDate",
              "type": "uint32"
            },
            {
              "internalType": "string",
              "name": "location",
              "type": "string"
            },
            {
              "internalType": "enum DonateAsset.Status",
              "name": "status",
              "type": "uint8"
            },
            {
              "internalType": "address",
              "name": "owner",
              "type": "address"
            },
            {
              "internalType": "address",
              "name": "recipient",
              "type": "address"
            },
            {
              "internalType": "uint32",
              "name": "donatedDateFrom",
              "type": "uint32"
            },
            {
              "internalType": "uint32",
              "name": "donatedDateTo",
              "type": "uint32"
            },
            {
              "internalType": "uint32",
              "name": "requestCount",
              "type": "uint32"
            },
            {
              "internalType": "string",
              "name": "imageIPFSHash",
              "type": "string"
            }
          ],
          "internalType": "struct DonateAsset.Asset[16]",
          "name": "",
          "type": "tuple[16]"
        }
      ],
      "stateMutability": "view",
      "type": "function",
      "constant": true
    },
    {
      "inputs": [
        {
          "internalType": "address",
          "name": "assetOwner",
          "type": "address"
        }
      ],
      "name": "mintToken",
      "outputs": [
        {
          "internalType": "uint32",
          "name": "",
          "type": "uint32"
        }
      ],
      "stateMutability": "nonpayable",
      "type": "function"
    },
    {
      "inputs": [
        {
          "internalType": "uint32",
          "name": "assetId",
          "type": "uint32"
        },
        {
          "internalType": "address",
          "name": "recipientAddress",
          "type": "address"
        }
      ],
      "name": "donateAsset",
      "outputs": [],
      "stateMutability": "nonpayable",
      "type": "function"
    },
    {
      "inputs": [
        {
          "internalType": "uint32",
          "name": "assetId",
          "type": "uint32"
        }
      ],
      "name": "getDonation",
      "outputs": [
        {
          "components": [
            {
              "internalType": "uint32",
              "name": "assetId",
              "type": "uint32"
            },
            {
              "internalType": "string",
              "name": "assetDescription",
              "type": "string"
            },
            {
              "internalType": "uint32",
              "name": "availablityDate",
              "type": "uint32"
            },
            {
              "internalType": "string",
              "name": "location",
              "type": "string"
            },
            {
              "internalType": "enum DonateAsset.Status",
              "name": "status",
              "type": "uint8"
            },
            {
              "internalType": "address",
              "name": "owner",
              "type": "address"
            },
            {
              "internalType": "address",
              "name": "recipient",
              "type": "address"
            },
            {
              "internalType": "uint32",
              "name": "donatedDateFrom",
              "type": "uint32"
            },
            {
              "internalType": "uint32",
              "name": "donatedDateTo",
              "type": "uint32"
            },
            {
              "internalType": "uint32",
              "name": "requestCount",
              "type": "uint32"
            },
            {
              "internalType": "string",
              "name": "imageIPFSHash",
              "type": "string"
            }
          ],
          "internalType": "struct DonateAsset.Asset",
          "name": "",
          "type": "tuple"
        }
      ],
      "stateMutability": "view",
      "type": "function",
      "constant": true
    },
    {
      "inputs": [
        {
          "internalType": "uint32",
          "name": "assetId",
          "type": "uint32"
        }
      ],
      "name": "getAssetRequestCount",
      "outputs": [
        {
          "internalType": "uint256",
          "name": "",
          "type": "uint256"
        }
      ],
      "stateMutability": "view",
      "type": "function",
      "constant": true
    }
  ],
  "bytecode": "0x60806040523480156200001157600080fd5b50604080518082018252600781526626bcaa37b5b2b760c91b602080830191909152825180840190935260038352624d545360e81b9083015290620000666301ffc9a760e01b6001600160e01b036200011016565b81516200007b906006906020850190620002a6565b50805162000091906007906020840190620002a6565b50620000ad6380ac58cd60e01b6001600160e01b036200011016565b620000c8635b5e139f60e01b6001600160e01b036200011016565b620000e363780e9d6360e01b6001600160e01b036200011016565b50620000fc90506000336001600160e01b036200016b16565b600d805464ffffffffff191690556200037f565b6001600160e01b03198082161415620001465760405162461bcd60e51b81526004016200013d9062000348565b60405180910390fd5b6001600160e01b0319166000908152602081905260409020805460ff19166001179055565b6200018082826001600160e01b036200018416565b5050565b6000828152600a60209081526040909120620001ab918390620021a862000208821b17901c565b156200018057620001c46001600160e01b036200023116565b6001600160a01b0316816001600160a01b0316837f2f8788117e7eff1d82e926ec794901d17c78024a50270940304540a733656f0d60405160405180910390a45050565b600062000228836001600160a01b0384166001600160e01b036200023616565b90505b92915050565b335b90565b60006200024d83836001600160e01b036200028e16565b62000285575081546001818101845560008481526020808220909301849055845484825282860190935260409020919091556200022b565b5060006200022b565b60009081526001919091016020526040902054151590565b828054600181600116156101000203166002900490600052602060002090601f016020900481019282601f10620002e957805160ff191683800117855562000319565b8280016001018555821562000319579182015b8281111562000319578251825591602001919060010190620002fc565b50620003279291506200032b565b5090565b6200023391905b8082111562000327576000815560010162000332565b6020808252601c908201527f4552433136353a20696e76616c696420696e7465726661636520696400000000604082015260600190565b613741806200038f6000396000f3fe608060405234801561001057600080fd5b50600436106101f95760003560e01c806301173a74146101fe57806301ffc9a71461022757806306fdde0314610247578063081812fc1461025c578063095ea7b31461027c5780630cb8150f1461029157806318160ddd146102a457806321f54c21146102b957806323b872dd146102cc578063248a9ca3146102df5780632a781270146102f25780632cdbf349146103055780632f2ff15d146103185780632f745c591461032b57806336568abe1461033e57806338a59a071461035157806342842e0e146103665780634576d2511461037957806349d17fe9146103815780634bb0eaaf146103945780634f6ccce7146103be57806350b7b880146103d15780635c975abb146103d95780636352211e146103e15780636c0360eb146103f457806370a08231146103fc578063718841361461040f57806372dbb89f1461042f57806379e085a2146104425780638ad545121461044a5780639010d07c1461045257806391d148541461046557806395d89b4114610478578063a217fddf14610480578063a22cb46514610488578063ad7430cc1461049b578063b88d4fde146104a3578063c87b56dd146104b6578063ca0cdea8146104c9578063ca15c873146104dc578063d547741f146104ef578063e985e9c514610502578063f445496314610515575b600080fd5b61021161020c3660046128df565b610528565b60405161021e9190613528565b60405180910390f35b61023a610235366004612a97565b6105c6565b60405161021e9190612f80565b61024f6105e9565b60405161021e9190612f94565b61026f61026a366004612a3a565b610680565b60405161021e9190612eeb565b61028f61028a366004612a10565b6106c3565b005b61023a61029f3660046128df565b61075b565b6102ac610770565b60405161021e9190612f8b565b6102ac6102c7366004612ca9565b610781565b61028f6102da36600461292e565b6107a6565b6102ac6102ed366004612a3a565b6107de565b61028f6103003660046128df565b6107f3565b61028f610313366004612acf565b610834565b61028f610326366004612a52565b610a93565b6102ac610339366004612a10565b610adb565b61028f61034c366004612a52565b610b0c565b610359610b4e565b60405161021e9190612f32565b61028f61037436600461292e565b610e4d565b6102ac610e68565b61028f61038f366004612cc5565b610e7f565b6103a76103a2366004612ca9565b610f7c565b60405161021e9b9a99989796959493929190613539565b6102ac6103cc366004612a3a565b6111a3565b6103596111bf565b61023a6114e8565b61026f6103ef366004612a3a565b6114f1565b61024f61151f565b6102ac61040a3660046128df565b611580565b61042261041d366004612ca9565b6115c9565b60405161021e9190613515565b61028f61043d3660046128df565b611858565b61028f61188b565b61028f6118a4565b61026f610460366004612a76565b6118bd565b61023a610473366004612a52565b6118db565b61024f6118f9565b6102ac61195a565b61028f6104963660046129d5565b61195f565b6102ac611a2d565b61028f6104b136600461296e565b611a39565b61024f6104c4366004612a3a565b611a78565b61023a6104d73660046128df565b611bc2565b6102ac6104ea366004612a3a565b611bd7565b61028f6104fd366004612a52565b611bee565b61023a6105103660046128fa565b611c28565b61028f610523366004612b5b565b611c56565b60003361054860405161053a90612ec6565b6040518091039020826118db565b61055157600080fd5b600d5460ff161561057d5760405162461bcd60e51b8152600401610574906131d6565b60405180910390fd5b600d54610596908490610100900463ffffffff16611cd1565b5050600d805464ffffffff0019811660016101009283900463ffffffff9081169182011690920217909155919050565b6001600160e01b0319811660009081526020819052604090205460ff165b919050565b60068054604080516020601f60026000196101006001881615020190951694909404938401819004810282018101909252828152606093909290918301828280156106755780601f1061064a57610100808354040283529160200191610675565b820191906000526020600020905b81548152906001019060200180831161065857829003601f168201915b505050505090505b90565b600061068b82611ceb565b6106a75760405162461bcd60e51b815260040161057490613319565b506000908152600460205260409020546001600160a01b031690565b60006106ce826114f1565b9050806001600160a01b0316836001600160a01b031614156107025760405162461bcd60e51b8152600401610574906133fd565b806001600160a01b0316610714611cfe565b6001600160a01b03161480610730575061073081610510611cfe565b61074c5760405162461bcd60e51b815260040161057490613200565b6107568383611d02565b505050565b600c6020526000908152604090205460ff1681565b600061077c6002611d70565b905090565b63ffffffff9081166000908152600e6020526040902060050154600160e01b90041690565b6107b76107b1611cfe565b82611d7b565b6107d35760405162461bcd60e51b81526004016105749061343e565b610756838383611e00565b6000908152600a602052604090206002015490565b61081060405161080290612ec6565b604051809103902082610a93565b6001600160a01b03166000908152600b60205260409020805460ff19166001179055565b3361084460405161053a90612ec6565b61084d57600080fd5b600d5460ff16156108705760405162461bcd60e51b8152600401610574906131d6565b600061087b33610528565b90506040518061016001604052808263ffffffff1681526020018781526020018663ffffffff168152602001858152602001600060048111156108ba57fe5b81523360208083019190915260006040808401829052606084018290526080840182905260a0840182905260c090930187905263ffffffff8581168252600e83529290208351815463ffffffff191693169290921782558281015180516109279260018501920190612708565b50604082015160028201805463ffffffff191663ffffffff90921691909117905560608201518051610963916003840191602090910190612708565b5060808201518160040160006101000a81548160ff0219169083600481111561098857fe5b021790555060a0820151600482018054610100600160a81b0319166101006001600160a01b0393841681029190911790915560c084015160058401805460e0870151938701516101208801516001600160a01b0319909216939095169290921763ffffffff60a01b1916600160a01b63ffffffff948516021763ffffffff60c01b1916600160c01b94841694909402939093176001600160e01b0316600160e01b92909116919091021790556101408201518051610a50916006840191602090910190612708565b509050507f02be38ab1ac25d38c43ba8eef640edc80bd26853df4de2f92af4fa493699009c81604051610a839190613528565b60405180910390a1505050505050565b6000828152600a6020526040902060020154610ab190610473611cfe565b610acd5760405162461bcd60e51b815260040161057490612fe9565b610ad78282611f0e565b5050565b6001600160a01b0382166000908152600160205260408120610b03908363ffffffff611f7d16565b90505b92915050565b610b14611cfe565b6001600160a01b0316816001600160a01b031614610b445760405162461bcd60e51b8152600401610574906134c6565b610ad78282611f89565b610b56612782565b6000610b60612782565b600d54601061010090910463ffffffff1611610b8b57600d54610100900463ffffffff169150610b90565b601091505b60005b8263ffffffff168163ffffffff161015610e465763ffffffff8181166000908152600e602090815260409182902082516101608101845281549094168452600180820180548551600261010094831615949094026000190190911692909204601f8101859004850283018501909552848252919385840193919291830182828015610c5f5780601f10610c3457610100808354040283529160200191610c5f565b820191906000526020600020905b815481529060010190602001808311610c4257829003601f168201915b505050918352505060028281015463ffffffff1660208084019190915260038401805460408051601f60001960018516156101000201909316959095049182018490048402850184018152818552909401939091830182828015610d045780601f10610cd957610100808354040283529160200191610d04565b820191906000526020600020905b815481529060010190602001808311610ce757829003601f168201915b505050918352505060048281015460209092019160ff1690811115610d2557fe5b6004811115610d3057fe5b81526004820154610100908190046001600160a01b039081166020808501919091526005850154918216604080860191909152600160a01b830463ffffffff9081166060870152600160c01b840481166080870152600160e01b90930490921660a08501526006850180548351600260018316159096026000190190911694909404601f810183900483028501830190935282845260c0909401939190830182828015610e1e5780601f10610df357610100808354040283529160200191610e1e565b820191906000526020600020905b815481529060010190602001808311610e0157829003601f168201915b505050505081525050828263ffffffff1660108110610e3957fe5b6020020152600101610b93565b5091505090565b61075683838360405180602001604052806000815250611a39565b604051610e7490612ec6565b604051809103902081565b63ffffffff82166000908152600e6020526040902060040154829061010090046001600160a01b0316610ec45760405162461bcd60e51b815260040161057490613026565b63ffffffff83166000908152600e602052604090206005015483906001600160a01b031615610ef257600080fd5b33610f0260405161053a90612ec6565b610f0b57600080fd5b600d5460ff1615610f2e5760405162461bcd60e51b8152600401610574906131d6565b63ffffffff85166000908152600e602052604090206005810180546001600160a01b0319166001600160a01b03871617905560040180546002919060ff191660018302179055505050505050565b600e602090815260009182526040918290208054600180830180548651600261010094831615949094026000190190911692909204601f810186900486028301860190965285825263ffffffff9092169492939092908301828280156110235780601f10610ff857610100808354040283529160200191611023565b820191906000526020600020905b81548152906001019060200180831161100657829003601f168201915b505050506002838101546003850180546040805160206101006001851615026000190190931695909504601f8101839004830286018301909152808552959663ffffffff909316959294509091908301828280156110c25780601f10611097576101008083540402835291602001916110c2565b820191906000526020600020905b8154815290600101906020018083116110a557829003601f168201915b50505050600483015460058401546006850180546040805160206002610100600186161581026000190190951604601f8101829004820283018201909352828252979860ff871698939096046001600160a01b039081169750851695600160a01b860463ffffffff90811696600160c01b8104821696600160e01b90910490911694919390918301828280156111995780601f1061116e57610100808354040283529160200191611199565b820191906000526020600020905b81548152906001019060200180831161117c57829003601f168201915b505050505090508b565b6000806111b760028463ffffffff611ff816565b509392505050565b6111c7612782565b336111d760405161053a90612ec6565b6111e057600080fd5b60006111eb33611580565b90506000806111f8612782565b60108463ffffffff161161120e57839250611213565b601092505b60005b8363ffffffff168163ffffffff1610156114dd5761123a338263ffffffff16610adb565b63ffffffff8181166000908152600e602090815260409182902082516101608101845281549094168452600180820180548551600261010094831615949094026000190190911692909204601f8101859004850283018501909552848252959850939490938583019390928301828280156112f65780601f106112cb576101008083540402835291602001916112f6565b820191906000526020600020905b8154815290600101906020018083116112d957829003601f168201915b505050918352505060028281015463ffffffff1660208084019190915260038401805460408051601f6000196001851615610100020190931695909504918201849004840285018401815281855290940193909183018282801561139b5780601f106113705761010080835404028352916020019161139b565b820191906000526020600020905b81548152906001019060200180831161137e57829003601f168201915b505050918352505060048281015460209092019160ff16908111156113bc57fe5b60048111156113c757fe5b81526004820154610100908190046001600160a01b039081166020808501919091526005850154918216604080860191909152600160a01b830463ffffffff9081166060870152600160c01b840481166080870152600160e01b90930490921660a08501526006850180548351600260018316159096026000190190911694909404601f810183900483028501830190935282845260c09094019391908301828280156114b55780601f1061148a576101008083540402835291602001916114b5565b820191906000526020600020905b81548152906001019060200180831161149857829003601f168201915b505050505081525050828263ffffffff16601081106114d057fe5b6020020152600101611216565b5094505050505b5090565b600d5460ff1690565b6000610b06826040518060600160405280602981526020016136a3602991396002919063ffffffff61201416565b60098054604080516020601f60026000196101006001881615020190951694909404938401819004810282018101909252828152606093909290918301828280156106755780601f1061064a57610100808354040283529160200191610675565b60006001600160a01b0382166115a85760405162461bcd60e51b815260040161057490613258565b6001600160a01b0382166000908152600160205260409020610b0690611d70565b6115d16127b0565b63ffffffff8281166000908152600e602090815260409182902082516101608101845281549094168452600180820180548551600261010094831615949094026000190190911692909204601f81018590048502830185019095528482529193858401939192918301828280156116895780601f1061165e57610100808354040283529160200191611689565b820191906000526020600020905b81548152906001019060200180831161166c57829003601f168201915b505050918352505060028281015463ffffffff1660208084019190915260038401805460408051601f6000196001851615610100020190931695909504918201849004840285018401815281855290940193909183018282801561172e5780601f106117035761010080835404028352916020019161172e565b820191906000526020600020905b81548152906001019060200180831161171157829003601f168201915b505050918352505060048281015460209092019160ff169081111561174f57fe5b600481111561175a57fe5b81526004820154610100908190046001600160a01b039081166020808501919091526005850154918216604080860191909152600160a01b830463ffffffff9081166060870152600160c01b840481166080870152600160e01b90930490921660a08501526006850180548351600260018316159096026000190190911694909404601f810183900483028501830190935282845260c09094019391908301828280156118485780601f1061181d57610100808354040283529160200191611848565b820191906000526020600020905b81548152906001019060200180831161182b57829003601f168201915b5050505050815250509050919050565b61186760405161080290612ed7565b6001600160a01b03166000908152600c60205260409020805460ff19166001179055565b336000908152600b60205260409020805460ff19169055565b336000908152600c60205260409020805460ff19169055565b6000828152600a60205260408120610b03908363ffffffff611f7d16565b6000828152600a60205260408120610b03908363ffffffff61202b16565b60078054604080516020601f60026000196101006001881615020190951694909404938401819004810282018101909252828152606093909290918301828280156106755780601f1061064a57610100808354040283529160200191610675565b600081565b611967611cfe565b6001600160a01b0316826001600160a01b031614156119985760405162461bcd60e51b815260040161057490613119565b80600560006119a5611cfe565b6001600160a01b03908116825260208083019390935260409182016000908120918716808252919093529120805460ff1916921515929092179091556119e9611cfe565b6001600160a01b03167f17307eab39ab6107e8899845ad3d59bd9653f200f220920489ca2b5937696c3183604051611a219190612f80565b60405180910390a35050565b604051610e7490612ed7565b611a4a611a44611cfe565b83611d7b565b611a665760405162461bcd60e51b81526004016105749061343e565b611a7284848484612040565b50505050565b6060611a8382611ceb565b611a9f5760405162461bcd60e51b8152600401610574906133ae565b60008281526008602090815260409182902080548351601f6002600019610100600186161502019093169290920491820184900484028101840190945280845260609392830182828015611b345780601f10611b0957610100808354040283529160200191611b34565b820191906000526020600020905b815481529060010190602001808311611b1757829003601f168201915b505060095493945050505060026000196101006001841615020190911604611b5d5790506105e4565b805115611b8f57600981604051602001611b78929190612e45565b6040516020818303038152906040529150506105e4565b6009611b9a84612073565b604051602001611bab929190612e45565b604051602081830303815290604052915050919050565b600b6020526000908152604090205460ff1681565b6000818152600a60205260408120610b0690611d70565b6000828152600a6020526040902060020154611c0c90610473611cfe565b610b445760405162461bcd60e51b815260040161057490613198565b6001600160a01b03918216600090815260056020908152604080832093909416825291909152205460ff1690565b6080810151815163ffffffff166000908152600e6020526040902060049081018054909160ff19909116906001908490811115611c8f57fe5b0217905550610120810151905163ffffffff9081166000908152600e60205260409020600501805491909216600160e01b026001600160e01b03909116179055565b610ad7828260405180602001604052806000815250612137565b6000610b0660028363ffffffff61216a16565b3390565b600081815260046020526040902080546001600160a01b0319166001600160a01b0384169081179091558190611d37826114f1565b6001600160a01b03167f8c5be1e5ebec7d5bd14f71427d1e84f3dd0314c0f7b2291e5b200ac8c7c3b92560405160405180910390a45050565b6000610b0682612176565b6000611d8682611ceb565b611da25760405162461bcd60e51b81526004016105749061314c565b6000611dad836114f1565b9050806001600160a01b0316846001600160a01b03161480611de85750836001600160a01b0316611ddd84610680565b6001600160a01b0316145b80611df85750611df88185611c28565b949350505050565b826001600160a01b0316611e13826114f1565b6001600160a01b031614611e395760405162461bcd60e51b815260040161057490613365565b6001600160a01b038216611e5f5760405162461bcd60e51b8152600401610574906130d5565b611e6a838383610756565b611e75600082611d02565b6001600160a01b0383166000908152600160205260409020611e9d908263ffffffff61217a16565b506001600160a01b0382166000908152600160205260409020611ec6908263ffffffff61218616565b50611ed96002828463ffffffff61219216565b5080826001600160a01b0316846001600160a01b03166000805160206136cc83398151915260405160405180910390a4505050565b6000828152600a60205260409020611f2c908263ffffffff6121a816565b15610ad757611f39611cfe565b6001600160a01b0316816001600160a01b0316837f2f8788117e7eff1d82e926ec794901d17c78024a50270940304540a733656f0d60405160405180910390a45050565b6000610b0383836121bd565b6000828152600a60205260409020611fa7908263ffffffff61220216565b15610ad757611fb4611cfe565b6001600160a01b0316816001600160a01b0316837ff6391f5c32d9c69d2a47ea670b442974b53935d1edc7fd64eb21e047a839171b60405160405180910390a45050565b60008080806120078686612217565b9097909650945050505050565b6000612021848484612273565b90505b9392505050565b6000610b03836001600160a01b0384166122d2565b61204b848484611e00565b612057848484846122ea565b611a725760405162461bcd60e51b81526004016105749061304d565b60608161209857506040805180820190915260018152600360fc1b60208201526105e4565b8160005b81156120b057600101600a8204915061209c565b6060816040519080825280601f01601f1916602001820160405280156120dd576020820181803883390190505b50859350905060001982015b831561212e57600a840660300160f81b8282806001900393508151811061210c57fe5b60200101906001600160f81b031916908160001a905350600a840493506120e9565b50949350505050565b61214183836123cf565b61214e60008484846122ea565b6107565760405162461bcd60e51b81526004016105749061304d565b6000610b0383836122d2565b5490565b6000610b03838361248d565b6000610b038383612553565b600061202184846001600160a01b03851661259d565b6000610b03836001600160a01b038416612553565b815460009082106121e05760405162461bcd60e51b815260040161057490612fa7565b8260000182815481106121ef57fe5b9060005260206000200154905092915050565b6000610b03836001600160a01b03841661248d565b81546000908190831061223c5760405162461bcd60e51b8152600401610574906132a2565b600084600001848154811061224d57fe5b906000526020600020906002020190508060000154816001015492509250509250929050565b600082815260018401602052604081205482816122a35760405162461bcd60e51b81526004016105749190612f94565b508460000160018203815481106122b657fe5b9060005260206000209060020201600101549150509392505050565b60009081526001919091016020526040902054151590565b60006122fe846001600160a01b0316612634565b61230a57506001611df8565b6060612398630a85bd0160e11b61231f611cfe565b8887876040516024016123359493929190612eff565b604051602081830303815290604052906001600160e01b0319166020820180516001600160e01b038381831617835250505050604051806060016040528060328152602001613671603291396001600160a01b038816919063ffffffff61263a16565b90506000818060200190516123b09190810190612ab3565b6001600160e01b031916630a85bd0160e11b1492505050949350505050565b6001600160a01b0382166123f55760405162461bcd60e51b8152600401610574906132e4565b6123fe81611ceb565b1561241b5760405162461bcd60e51b81526004016105749061309f565b61242760008383610756565b6001600160a01b038216600090815260016020526040902061244f908263ffffffff61218616565b506124626002828463ffffffff61219216565b5060405181906001600160a01b038416906000906000805160206136cc833981519152908290a45050565b6000818152600183016020526040812054801561254957835460001980830191908101906000908790839081106124c057fe5b90600052602060002001549050808760000184815481106124dd57fe5b60009182526020808320909101929092558281526001898101909252604090209084019055865487908061250d57fe5b60019003818190600052602060002001600090559055866001016000878152602001908152602001600020600090556001945050505050610b06565b6000915050610b06565b600061255f83836122d2565b61259557508154600181810184556000848152602080822090930184905584548482528286019093526040902091909155610b06565b506000610b06565b600082815260018401602052604081205480612602575050604080518082018252838152602080820184815286546001818101895560008981528481209551600290930290950191825591519082015586548684528188019092529290912055612024565b8285600001600183038154811061261557fe5b9060005260206000209060020201600101819055506000915050612024565b3b151590565b60606120218484600085606061264f85612634565b61266b5760405162461bcd60e51b81526004016105749061348f565b60006060866001600160a01b031685876040516126889190612e29565b60006040518083038185875af1925050503d80600081146126c5576040519150601f19603f3d011682016040523d82523d6000602084013e6126ca565b606091505b509150915081156126de579150611df89050565b8051156126ee5780518082602001fd5b8360405162461bcd60e51b81526004016105749190612f94565b828054600181600116156101000203166002900490600052602060002090601f016020900481019282601f1061274957805160ff1916838001178555612776565b82800160010185558215612776579182015b8281111561277657825182559160200191906001019061275b565b506114e4929150612823565b6040518061020001604052806010905b61279a6127b0565b8152602001906001900390816127925790505090565b604051806101600160405280600063ffffffff16815260200160608152602001600063ffffffff16815260200160608152602001600060048111156127f157fe5b81526000602082018190526040820181905260608083018290526080830182905260a083019190915260c09091015290565b61067d91905b808211156114e45760008155600101612829565b80356001600160a01b0381168114610b0657600080fd5b600082601f830112612864578081fd5b81356001600160401b03811115612879578182fd5b61288c601f8201601f19166020016135de565b91508082528360208285010111156128a357600080fd5b8060208401602084013760009082016020015292915050565b803560058110610b0657600080fd5b803563ffffffff81168114610b0657600080fd5b6000602082840312156128f0578081fd5b610b03838361283d565b6000806040838503121561290c578081fd5b612916848461283d565b9150612925846020850161283d565b90509250929050565b600080600060608486031215612942578081fd5b833561294d81613630565b9250602084013561295d81613630565b929592945050506040919091013590565b60008060008060808587031215612983578081fd5b61298d868661283d565b935061299c866020870161283d565b92506040850135915060608501356001600160401b038111156129bd578182fd5b6129c987828801612854565b91505092959194509250565b600080604083850312156129e7578182fd5b6129f1848461283d565b915060208301358015158114612a05578182fd5b809150509250929050565b60008060408385031215612a22578182fd5b612a2c848461283d565b946020939093013593505050565b600060208284031215612a4b578081fd5b5035919050565b60008060408385031215612a64578182fd5b823591506020830135612a0581613630565b60008060408385031215612a88578182fd5b50508035926020909101359150565b600060208284031215612aa8578081fd5b813561202481613648565b600060208284031215612ac4578081fd5b815161202481613648565b60008060008060808587031215612ae4578182fd5b84356001600160401b0380821115612afa578384fd5b612b0688838901612854565b955060208701359150612b188261365e565b90935060408601359080821115612b2d578384fd5b612b3988838901612854565b93506060870135915080821115612b4e578283fd5b506129c987828801612854565b600060208284031215612b6c578081fd5b81356001600160401b0380821115612b82578283fd5b610160918401808603831315612b96578384fd5b612b9f836135de565b612ba987836128cb565b81526020820135935082841115612bbe578485fd5b612bca87858401612854565b6020820152612bdc87604084016128cb565b60408201526060820135935082841115612bf4578485fd5b612c0087858401612854565b6060820152612c1287608084016128bc565b6080820152612c248760a0840161283d565b60a0820152612c368760c0840161283d565b60c0820152612c488760e084016128cb565b60e08201526101009350612c5e878584016128cb565b848201526101209350612c73878584016128cb565b8482015261014093508382013583811115612c8c578586fd5b612c9888828501612854565b948201949094529695505050505050565b600060208284031215612cba578081fd5b81356120248161365e565b60008060408385031215612cd7578182fd5b61291684846128cb565b6001600160a01b03169052565b60008151808452612d06816020860160208601613604565b601f01601f19169290920160200192915050565b60058110612d2457fe5b9052565b6000610160612d38848451612e1f565b6020830151816020860152612d4f82860182612cee565b60408501519250612d636040870184612e1f565b606085015192508581036060870152612d7c8184612cee565b91505060808401519150612d936080860183612d1a565b60a08401519150612da760a0860183612ce1565b60c08401519150612dbb60c0860183612ce1565b60e08401519150612dcf60e0860183612e1f565b610100915081840151612de483870182612e1f565b50610120915081840151612dfa83870182612e1f565b5061014091508184015185820383870152612e158282612cee565b9695505050505050565b63ffffffff169052565b60008251612e3b818460208701613604565b9190910192915050565b6000808454600180821660008114612e645760018114612e7b57612eaa565b60ff198316865260028304607f1686019350612eaa565b600283048886526020808720875b83811015612ea25781548a820152908501908201612e89565b505050860193505b5050508351612ebd818360208801613604565b01949350505050565b642227a727a960d91b815260050190565b672922a1a2a4ab22a960c11b815260080190565b6001600160a01b0391909116815260200190565b6001600160a01b0385811682528416602082015260408101839052608060608201819052600090612e1590830184612cee565b6020808252600090610220830183820185845b6010811015612f7457601f19878503018352612f62848351612d28565b93509184019190840190600101612f45565b50919695505050505050565b901515815260200190565b90815260200190565b600060208252610b036020830184612cee565b60208082526022908201527f456e756d657261626c655365743a20696e646578206f7574206f6620626f756e604082015261647360f01b606082015260800190565b6020808252602f908201526000805160206136ec83398151915260408201526e0818591b5a5b881d1bc819dc985b9d608a1b606082015260800190565b6020808252600d908201526c125b9d985b1a5908185cdcd95d609a1b604082015260600190565b60208082526032908201527f4552433732313a207472616e7366657220746f206e6f6e20455243373231526560408201527131b2b4bb32b91034b6b83632b6b2b73a32b960711b606082015260800190565b6020808252601c908201527b115490cdcc8c4e881d1bdad95b88185b1c9958591e481b5a5b9d195960221b604082015260600190565b60208082526024908201527f4552433732313a207472616e7366657220746f20746865207a65726f206164646040820152637265737360e01b606082015260800190565b60208082526019908201527822a9219b99189d1030b8383937bb32903a379031b0b63632b960391b604082015260600190565b6020808252602c908201527f4552433732313a206f70657261746f7220717565727920666f72206e6f6e657860408201526b34b9ba32b73a103a37b5b2b760a11b606082015260800190565b60208082526030908201526000805160206136ec83398151915260408201526f2061646d696e20746f207265766f6b6560801b606082015260800190565b60208082526010908201526f14185d5cd8589b194e881c185d5cd95960821b604082015260600190565b60208082526038908201527f4552433732313a20617070726f76652063616c6c6572206973206e6f74206f776040820152771b995c881b9bdc88185c1c1c9bdd995908199bdc88185b1b60421b606082015260800190565b6020808252602a908201527f4552433732313a2062616c616e636520717565727920666f7220746865207a65604082015269726f206164647265737360b01b606082015260800190565b60208082526022908201527f456e756d657261626c654d61703a20696e646578206f7574206f6620626f756e604082015261647360f01b606082015260800190565b6020808252818101527f4552433732313a206d696e7420746f20746865207a65726f2061646472657373604082015260600190565b6020808252602c908201527f4552433732313a20617070726f76656420717565727920666f72206e6f6e657860408201526b34b9ba32b73a103a37b5b2b760a11b606082015260800190565b60208082526029908201527f4552433732313a207472616e73666572206f6620746f6b656e2074686174206960408201526839903737ba1037bbb760b91b606082015260800190565b6020808252602f908201527f4552433732314d657461646174613a2055524920717565727920666f72206e6f60408201526e3732bc34b9ba32b73a103a37b5b2b760891b606082015260800190565b60208082526021908201527f4552433732313a20617070726f76616c20746f2063757272656e74206f776e656040820152603960f91b606082015260800190565b60208082526031908201527f4552433732313a207472616e736665722063616c6c6572206973206e6f74206f6040820152701ddb995c881b9bdc88185c1c1c9bdd9959607a1b606082015260800190565b6020808252601d908201527f416464726573733a2063616c6c20746f206e6f6e2d636f6e7472616374000000604082015260600190565b6020808252602f908201527f416363657373436f6e74726f6c3a2063616e206f6e6c792072656e6f756e636560408201526e103937b632b9903337b91039b2b63360891b606082015260800190565b600060208252610b036020830184612d28565b63ffffffff91909116815260200190565b600061016063ffffffff808f16845281602085015261355a8285018f612cee565b818e1660408601528481036060860152613574818e612cee565b925050613584608085018c612d1a565b6001600160a01b038a811660a0860152891660c085015287811660e085015286166101008401526135b9610120840186612e1f565b8281036101408401526135cc8185612cee565b9e9d5050505050505050505050505050565b6040518181016001600160401b03811182821017156135fc57600080fd5b604052919050565b60005b8381101561361f578181015183820152602001613607565b83811115611a725750506000910152565b6001600160a01b038116811461364557600080fd5b50565b6001600160e01b03198116811461364557600080fd5b63ffffffff8116811461364557600080fdfe4552433732313a207472616e7366657220746f206e6f6e20455243373231526563656976657220696d706c656d656e7465724552433732313a206f776e657220717565727920666f72206e6f6e6578697374656e7420746f6b656eddf252ad1be2c89b69c2b068fc378daa952ba7f163c4a11628f55a4df523b3ef416363657373436f6e74726f6c3a2073656e646572206d75737420626520616ea264697066735822122016384655d91fc52ee7085c56941cf8f6fff0fb3e04979c1809c8ae6e7c5e9da864736f6c63430006020033",
  "source": "pragma solidity ^0.6.2;\npragma experimental ABIEncoderV2;\n\nimport \"@openzeppelin/contracts/token/ERC721/ERC721.sol\";\nimport \"@openzeppelin/contracts/access/AccessControl.sol\";\nimport \"@openzeppelin/contracts/utils/Pausable.sol\";\nimport './Administration.sol';\n\n/// @title A Asset donation smart contract\n/// @author Fatemeh Heidari Soureshjani\n/// @notice This contract facilitates donation of physical assets for specific periods of time between asset owners and receivers\n/// @dev time\n\ncontract DonateAsset is ERC721, Administration ,Pausable{\n    uint32 lastAssetId;\n\n\n    constructor() public ERC721(\"MyToken\", \"MTS\") Administration() Pausable(){\n        lastAssetId = 0;\n    }\n\n    enum Status {Free, Requested, Donated, Inactive, Burned}\n\n    struct Asset {\n        uint32 assetId;\n        string assetDescription;\n        uint32 availablityDate;\n        string location;\n        Status status;\n        address owner;\n        address recipient;\n        uint32 donatedDateFrom;\n        uint32 donatedDateTo;\n        uint32 requestCount;\n        string imageIPFSHash;\n    }\n\n    mapping(uint32 => Asset) public donationList;\n\n\n\n    modifier assetIsFree(uint32 assetId) {\n        require(donationList[assetId].recipient == address(0));\n        _;\n    }\n\n    modifier assetExists(uint32 assetId) {\n        require(donationList[assetId].owner != address(0), \"Invalid asset\");\n        _;\n    }\n\n    event LogFree(uint32 assetId);\n    event LogRequested(uint32 assetId);\n    event LogDonated(uint32 assetId);\n    event LogInactive(uint32 assetId);\n    event LogIBurned(uint32 assetId);\n\n    function UpdateAsset(Asset memory asset) public {\n        donationList[asset.assetId].status = asset.status;\n        donationList[asset.assetId].requestCount = asset.requestCount;\n    }\n\n\n\n    /// @notice Adds a new asset to list of donated assets(Should be called by a donor)\n    /// @dev other asset struct members should be added\n    /// @param assetDescription Descrption of the asset entered by owner\n    /// @param availablityDate the first date the owner can donate the asset\n    /// @param location the location of the donated asset\n    /// @param imageIPFSHash IPFS hash of the asset image uploaded by owner and saved to IPFS\n    function addAsset(\n        string memory assetDescription,\n        uint32 availablityDate,\n        string memory location, /*isDonor(msg.sender)*/\n        string memory imageIPFSHash\n    ) public isDonor(msg.sender) whenNotPaused{\n        uint32 assetId = mintToken(msg.sender);\n        donationList[assetId] = Asset({\n            assetId: assetId,\n            assetDescription: assetDescription,\n            availablityDate: availablityDate,\n            location: location,\n            status: Status.Free,\n            owner: msg.sender,\n            recipient: address(0),\n            donatedDateFrom: 0,\n            donatedDateTo: 0,\n            requestCount: 0,\n            imageIPFSHash: imageIPFSHash\n        });\n        emit LogFree(assetId);\n    }\n\n    /// @notice Returns all donations of an donor(it shoud be called by a donor)\n    /// @dev There must be better way than returing always an array of 16\n    /// @return Asset returns an array of type asset and length 16 of donations of msg.sender\n    function getDonationsByOwner()\n        public\n        view\n        isDonor(msg.sender)\n        returns (Asset[16] memory)\n    {\n        uint32 tokenCount = uint32(balanceOf(msg.sender));\n        uint32 index = 0;\n        uint32 tokenId;\n        Asset[16] memory assetList;\n        if (tokenCount <= 16) {\n            index = tokenCount;\n        } else {\n            index = 16;\n        }\n        for (uint32 i = 0; i < index; i++) {\n            tokenId = uint32(tokenOfOwnerByIndex(msg.sender, i));\n            assetList[i] = donationList[tokenId];\n        }\n        return assetList;\n    }\n\n    /// @notice returns all donations\n    /// @dev There must be better way than returing always an array of 16\n    /// @return Asset returns an array of type asset and length 16 of all donations\n    function getAllDonations() public view returns (Asset[16] memory) {\n        uint32 index = 0;\n        Asset[16] memory assetList;\n        if (lastAssetId <= 16) {\n            index = lastAssetId;\n        } else {\n            index = 16;\n        }\n        for (uint32 i = 0; i < index; i++) {\n            assetList[i] = donationList[i];\n        }\n        return assetList;\n    }\n\n    /// @notice The ERC721 stadard for nunfungible token is used to maintain ownership of assets\n    /// @notice everytime a new token is minted based on current value of lastAssetId for assetOwner address, and then lastAssetId is increased\n    /// @param assetOwner the owner of the new asset\n    /// @return returns the id of new minted token\n    function mintToken(address assetOwner) public isDonor(msg.sender) whenNotPaused returns (uint32){\n        _safeMint(assetOwner, lastAssetId);\n        uint32 assetId = lastAssetId;\n        lastAssetId++;\n        return assetId;\n    }\n\n    /// @notice a donor can approve a specific request and this function assigns the recipient of this asset to the recipientAddress\n    /// @notice caller should be a donor and recipient should be a receiver\n    /// @param assetId unique id of asset to be donated\n    /// @param recipientAddress donation receiver\n    function donateAsset(uint32 assetId, address recipientAddress)\n        public\n        assetExists(assetId)\n        //isDonor(msg.sender)\n        //isReceiver(recipientAddress)\n        assetIsFree(assetId)\n        isDonor(msg.sender)\n        whenNotPaused\n    {\n        donationList[assetId].recipient = recipientAddress;\n        donationList[assetId].status = Status.Donated;\n    }\n\n    function getDonation(uint32 assetId) public view returns (Asset memory) {\n        return donationList[assetId];\n    }\n\n    function getAssetRequestCount(uint32 assetId) public view returns (uint) {\n        return donationList[assetId].requestCount;\n    }\n}\n",
  "sourcePath": "/home/fatemeh/Desktop/Consensys Course/assetdonation/AssetDonation/contracts/DonateAsset.sol",
  "compiler": {
    "name": "solc",
    "version": "0.6.2+commit.bacdbe57.Emscripten.clang"
  },
  "schemaVersion": "3.3.1",
  "updatedAt": "2020-12-05T08:20:30.670Z",
  "networkType": "ethereum",
  "devdoc": {
    "author": "Fatemeh Heidari Soureshjani",
    "details": "time",
    "methods": {
      "addAsset(string,uint32,string,string)": {
        "details": "other asset struct members should be added",
        "params": {
          "assetDescription": "Descrption of the asset entered by owner",
          "availablityDate": "the first date the owner can donate the asset",
          "imageIPFSHash": "IPFS hash of the asset image uploaded by owner and saved to IPFS",
          "location": "the location of the donated asset"
        }
      },
      "approve(address,uint256)": {
        "details": "See {IERC721-approve}."
      },
      "approveDonor(address)": {
        "params": {
          "donorAddress": "The address of donor to be approved"
        }
      },
      "approveReceiver(address)": {
        "params": {
          "receiverAddress": "The address of receiver to be approved"
        }
      },
      "balanceOf(address)": {
        "details": "See {IERC721-balanceOf}."
      },
      "baseURI()": {
        "details": "Returns the base URI set via {_setBaseURI}. This will be automatically added as a prefix in {tokenURI} to each token's URI, or to the token ID if no specific URI is set for that token ID."
      },
      "donateAsset(uint32,address)": {
        "params": {
          "assetId": "unique id of asset to be donated",
          "recipientAddress": "donation receiver"
        }
      },
      "getAllDonations()": {
        "details": "There must be better way than returing always an array of 16",
        "returns": {
          "_0": "Asset returns an array of type asset and length 16 of all donations"
        }
      },
      "getApproved(uint256)": {
        "details": "See {IERC721-getApproved}."
      },
      "getDonationsByOwner()": {
        "details": "There must be better way than returing always an array of 16",
        "returns": {
          "_0": "Asset returns an array of type asset and length 16 of donations of msg.sender"
        }
      },
      "getRoleAdmin(bytes32)": {
        "details": "Returns the admin role that controls `role`. See {grantRole} and {revokeRole}.     * To change a role's admin, use {_setRoleAdmin}."
      },
      "getRoleMember(bytes32,uint256)": {
        "details": "Returns one of the accounts that have `role`. `index` must be a value between 0 and {getRoleMemberCount}, non-inclusive.     * Role bearers are not sorted in any particular way, and their ordering may change at any point.     * WARNING: When using {getRoleMember} and {getRoleMemberCount}, make sure you perform all queries on the same block. See the following https://forum.openzeppelin.com/t/iterating-over-elements-on-enumerableset-in-openzeppelin-contracts/2296[forum post] for more information."
      },
      "getRoleMemberCount(bytes32)": {
        "details": "Returns the number of accounts that have `role`. Can be used together with {getRoleMember} to enumerate all bearers of a role."
      },
      "grantRole(bytes32,address)": {
        "details": "Grants `role` to `account`.     * If `account` had not been already granted `role`, emits a {RoleGranted} event.     * Requirements:     * - the caller must have ``role``'s admin role."
      },
      "hasRole(bytes32,address)": {
        "details": "Returns `true` if `account` has been granted `role`."
      },
      "isApprovedForAll(address,address)": {
        "details": "See {IERC721-isApprovedForAll}."
      },
      "mintToken(address)": {
        "params": {
          "assetOwner": "the owner of the new asset"
        },
        "returns": {
          "_0": "returns the id of new minted token"
        }
      },
      "name()": {
        "details": "See {IERC721Metadata-name}."
      },
      "ownerOf(uint256)": {
        "details": "See {IERC721-ownerOf}."
      },
      "paused()": {
        "details": "Returns true if the contract is paused, and false otherwise."
      },
      "renounceRole(bytes32,address)": {
        "details": "Revokes `role` from the calling account.     * Roles are often managed via {grantRole} and {revokeRole}: this function's purpose is to provide a mechanism for accounts to lose their privileges if they are compromised (such as when a trusted device is misplaced).     * If the calling account had been granted `role`, emits a {RoleRevoked} event.     * Requirements:     * - the caller must be `account`."
      },
      "revokeRole(bytes32,address)": {
        "details": "Revokes `role` from `account`.     * If `account` had been granted `role`, emits a {RoleRevoked} event.     * Requirements:     * - the caller must have ``role``'s admin role."
      },
      "safeTransferFrom(address,address,uint256)": {
        "details": "See {IERC721-safeTransferFrom}."
      },
      "safeTransferFrom(address,address,uint256,bytes)": {
        "details": "See {IERC721-safeTransferFrom}."
      },
      "setApprovalForAll(address,bool)": {
        "details": "See {IERC721-setApprovalForAll}."
      },
      "supportsInterface(bytes4)": {
        "details": "See {IERC165-supportsInterface}.     * Time complexity O(1), guaranteed to always use less than 30 000 gas."
      },
      "symbol()": {
        "details": "See {IERC721Metadata-symbol}."
      },
      "tokenByIndex(uint256)": {
        "details": "See {IERC721Enumerable-tokenByIndex}."
      },
      "tokenOfOwnerByIndex(address,uint256)": {
        "details": "See {IERC721Enumerable-tokenOfOwnerByIndex}."
      },
      "tokenURI(uint256)": {
        "details": "See {IERC721Metadata-tokenURI}."
      },
      "totalSupply()": {
        "details": "See {IERC721Enumerable-totalSupply}."
      },
      "transferFrom(address,address,uint256)": {
        "details": "See {IERC721-transferFrom}."
      }
    },
    "title": "A Asset donation smart contract"
  },
  "userdoc": {
    "methods": {
      "addAsset(string,uint32,string,string)": {
        "notice": "Adds a new asset to list of donated assets(Should be called by a donor)"
      },
      "addReceiver()": {
        "notice": "Adds an address to list of receivers"
      },
      "approveDonor(address)": {
        "notice": "Admin approves an address to have the donor role"
      },
      "approveReceiver(address)": {
        "notice": "Admin approves an address to have the receiver role"
      },
      "donateAsset(uint32,address)": {
        "notice": "a donor can approve a specific request and this function assigns the recipient of this asset to the recipientAddresscaller should be a donor and recipient should be a receiver"
      },
      "getAllDonations()": {
        "notice": "returns all donations"
      },
      "getDonationsByOwner()": {
        "notice": "Returns all donations of an donor(it shoud be called by a donor)"
      },
      "mintToken(address)": {
        "notice": "The ERC721 stadard for nunfungible token is used to maintain ownership of assetseverytime a new token is minted based on current value of lastAssetId for assetOwner address, and then lastAssetId is increased"
      }
    },
    "notice": "This contract facilitates donation of physical assets for specific periods of time between asset owners and receivers"
  }
}