{
  "contractName": "DonateAsset",
  "abi": [
    {
      "inputs": [
        {
          "internalType": "address",
          "name": "_adm",
          "type": "address"
        }
      ],
      "stateMutability": "nonpayable",
      "type": "constructor"
    },
    {
      "anonymous": false,
      "inputs": [
        {
          "indexed": true,
          "internalType": "address",
          "name": "owner",
          "type": "address"
        },
        {
          "indexed": true,
          "internalType": "address",
          "name": "approved",
          "type": "address"
        },
        {
          "indexed": true,
          "internalType": "uint256",
          "name": "tokenId",
          "type": "uint256"
        }
      ],
      "name": "Approval",
      "type": "event"
    },
    {
      "anonymous": false,
      "inputs": [
        {
          "indexed": true,
          "internalType": "address",
          "name": "owner",
          "type": "address"
        },
        {
          "indexed": true,
          "internalType": "address",
          "name": "operator",
          "type": "address"
        },
        {
          "indexed": false,
          "internalType": "bool",
          "name": "approved",
          "type": "bool"
        }
      ],
      "name": "ApprovalForAll",
      "type": "event"
    },
    {
      "anonymous": false,
      "inputs": [
        {
          "indexed": false,
          "internalType": "uint32",
          "name": "assetId",
          "type": "uint32"
        }
      ],
      "name": "LogDonated",
      "type": "event"
    },
    {
      "anonymous": false,
      "inputs": [
        {
          "indexed": false,
          "internalType": "uint32",
          "name": "assetId",
          "type": "uint32"
        }
      ],
      "name": "LogFree",
      "type": "event"
    },
    {
      "anonymous": false,
      "inputs": [
        {
          "indexed": true,
          "internalType": "address",
          "name": "from",
          "type": "address"
        },
        {
          "indexed": true,
          "internalType": "address",
          "name": "to",
          "type": "address"
        },
        {
          "indexed": true,
          "internalType": "uint256",
          "name": "tokenId",
          "type": "uint256"
        }
      ],
      "name": "Transfer",
      "type": "event"
    },
    {
      "inputs": [
        {
          "internalType": "address",
          "name": "to",
          "type": "address"
        },
        {
          "internalType": "uint256",
          "name": "tokenId",
          "type": "uint256"
        }
      ],
      "name": "approve",
      "outputs": [],
      "stateMutability": "nonpayable",
      "type": "function"
    },
    {
      "inputs": [
        {
          "internalType": "address",
          "name": "owner",
          "type": "address"
        }
      ],
      "name": "balanceOf",
      "outputs": [
        {
          "internalType": "uint256",
          "name": "",
          "type": "uint256"
        }
      ],
      "stateMutability": "view",
      "type": "function",
      "constant": true
    },
    {
      "inputs": [],
      "name": "baseURI",
      "outputs": [
        {
          "internalType": "string",
          "name": "",
          "type": "string"
        }
      ],
      "stateMutability": "view",
      "type": "function",
      "constant": true
    },
    {
      "inputs": [
        {
          "internalType": "uint32",
          "name": "",
          "type": "uint32"
        }
      ],
      "name": "donationList",
      "outputs": [
        {
          "internalType": "uint32",
          "name": "assetId",
          "type": "uint32"
        },
        {
          "internalType": "string",
          "name": "assetTitle",
          "type": "string"
        },
        {
          "internalType": "string",
          "name": "assetDescription",
          "type": "string"
        },
        {
          "internalType": "uint32",
          "name": "availablityDate",
          "type": "uint32"
        },
        {
          "internalType": "string",
          "name": "location",
          "type": "string"
        },
        {
          "internalType": "enum DonateAsset.Status",
          "name": "status",
          "type": "uint8"
        },
        {
          "internalType": "address",
          "name": "owner",
          "type": "address"
        },
        {
          "internalType": "address",
          "name": "recipient",
          "type": "address"
        },
        {
          "internalType": "uint32",
          "name": "donatedDateFrom",
          "type": "uint32"
        },
        {
          "internalType": "uint32",
          "name": "donatedDateTo",
          "type": "uint32"
        },
        {
          "internalType": "uint32",
          "name": "requestCount",
          "type": "uint32"
        },
        {
          "internalType": "string",
          "name": "imageIPFSHash",
          "type": "string"
        }
      ],
      "stateMutability": "view",
      "type": "function",
      "constant": true
    },
    {
      "inputs": [
        {
          "internalType": "uint256",
          "name": "tokenId",
          "type": "uint256"
        }
      ],
      "name": "getApproved",
      "outputs": [
        {
          "internalType": "address",
          "name": "",
          "type": "address"
        }
      ],
      "stateMutability": "view",
      "type": "function",
      "constant": true
    },
    {
      "inputs": [
        {
          "internalType": "address",
          "name": "owner",
          "type": "address"
        },
        {
          "internalType": "address",
          "name": "operator",
          "type": "address"
        }
      ],
      "name": "isApprovedForAll",
      "outputs": [
        {
          "internalType": "bool",
          "name": "",
          "type": "bool"
        }
      ],
      "stateMutability": "view",
      "type": "function",
      "constant": true
    },
    {
      "inputs": [],
      "name": "name",
      "outputs": [
        {
          "internalType": "string",
          "name": "",
          "type": "string"
        }
      ],
      "stateMutability": "view",
      "type": "function",
      "constant": true
    },
    {
      "inputs": [
        {
          "internalType": "uint256",
          "name": "tokenId",
          "type": "uint256"
        }
      ],
      "name": "ownerOf",
      "outputs": [
        {
          "internalType": "address",
          "name": "",
          "type": "address"
        }
      ],
      "stateMutability": "view",
      "type": "function",
      "constant": true
    },
    {
      "inputs": [
        {
          "internalType": "address",
          "name": "from",
          "type": "address"
        },
        {
          "internalType": "address",
          "name": "to",
          "type": "address"
        },
        {
          "internalType": "uint256",
          "name": "tokenId",
          "type": "uint256"
        }
      ],
      "name": "safeTransferFrom",
      "outputs": [],
      "stateMutability": "nonpayable",
      "type": "function"
    },
    {
      "inputs": [
        {
          "internalType": "address",
          "name": "from",
          "type": "address"
        },
        {
          "internalType": "address",
          "name": "to",
          "type": "address"
        },
        {
          "internalType": "uint256",
          "name": "tokenId",
          "type": "uint256"
        },
        {
          "internalType": "bytes",
          "name": "_data",
          "type": "bytes"
        }
      ],
      "name": "safeTransferFrom",
      "outputs": [],
      "stateMutability": "nonpayable",
      "type": "function"
    },
    {
      "inputs": [
        {
          "internalType": "address",
          "name": "operator",
          "type": "address"
        },
        {
          "internalType": "bool",
          "name": "approved",
          "type": "bool"
        }
      ],
      "name": "setApprovalForAll",
      "outputs": [],
      "stateMutability": "nonpayable",
      "type": "function"
    },
    {
      "inputs": [
        {
          "internalType": "bytes4",
          "name": "interfaceId",
          "type": "bytes4"
        }
      ],
      "name": "supportsInterface",
      "outputs": [
        {
          "internalType": "bool",
          "name": "",
          "type": "bool"
        }
      ],
      "stateMutability": "view",
      "type": "function",
      "constant": true
    },
    {
      "inputs": [],
      "name": "symbol",
      "outputs": [
        {
          "internalType": "string",
          "name": "",
          "type": "string"
        }
      ],
      "stateMutability": "view",
      "type": "function",
      "constant": true
    },
    {
      "inputs": [
        {
          "internalType": "uint256",
          "name": "index",
          "type": "uint256"
        }
      ],
      "name": "tokenByIndex",
      "outputs": [
        {
          "internalType": "uint256",
          "name": "",
          "type": "uint256"
        }
      ],
      "stateMutability": "view",
      "type": "function",
      "constant": true
    },
    {
      "inputs": [
        {
          "internalType": "address",
          "name": "owner",
          "type": "address"
        },
        {
          "internalType": "uint256",
          "name": "index",
          "type": "uint256"
        }
      ],
      "name": "tokenOfOwnerByIndex",
      "outputs": [
        {
          "internalType": "uint256",
          "name": "",
          "type": "uint256"
        }
      ],
      "stateMutability": "view",
      "type": "function",
      "constant": true
    },
    {
      "inputs": [
        {
          "internalType": "uint256",
          "name": "tokenId",
          "type": "uint256"
        }
      ],
      "name": "tokenURI",
      "outputs": [
        {
          "internalType": "string",
          "name": "",
          "type": "string"
        }
      ],
      "stateMutability": "view",
      "type": "function",
      "constant": true
    },
    {
      "inputs": [],
      "name": "totalSupply",
      "outputs": [
        {
          "internalType": "uint256",
          "name": "",
          "type": "uint256"
        }
      ],
      "stateMutability": "view",
      "type": "function",
      "constant": true
    },
    {
      "inputs": [
        {
          "internalType": "address",
          "name": "from",
          "type": "address"
        },
        {
          "internalType": "address",
          "name": "to",
          "type": "address"
        },
        {
          "internalType": "uint256",
          "name": "tokenId",
          "type": "uint256"
        }
      ],
      "name": "transferFrom",
      "outputs": [],
      "stateMutability": "nonpayable",
      "type": "function"
    },
    {
      "inputs": [
        {
          "components": [
            {
              "internalType": "uint32",
              "name": "assetId",
              "type": "uint32"
            },
            {
              "internalType": "string",
              "name": "assetTitle",
              "type": "string"
            },
            {
              "internalType": "string",
              "name": "assetDescription",
              "type": "string"
            },
            {
              "internalType": "uint32",
              "name": "availablityDate",
              "type": "uint32"
            },
            {
              "internalType": "string",
              "name": "location",
              "type": "string"
            },
            {
              "internalType": "enum DonateAsset.Status",
              "name": "status",
              "type": "uint8"
            },
            {
              "internalType": "address",
              "name": "owner",
              "type": "address"
            },
            {
              "internalType": "address",
              "name": "recipient",
              "type": "address"
            },
            {
              "internalType": "uint32",
              "name": "donatedDateFrom",
              "type": "uint32"
            },
            {
              "internalType": "uint32",
              "name": "donatedDateTo",
              "type": "uint32"
            },
            {
              "internalType": "uint32",
              "name": "requestCount",
              "type": "uint32"
            },
            {
              "internalType": "string",
              "name": "imageIPFSHash",
              "type": "string"
            }
          ],
          "internalType": "struct DonateAsset.Asset",
          "name": "asset",
          "type": "tuple"
        }
      ],
      "name": "UpdateAsset",
      "outputs": [],
      "stateMutability": "nonpayable",
      "type": "function"
    },
    {
      "inputs": [
        {
          "internalType": "string",
          "name": "assetTitle",
          "type": "string"
        },
        {
          "internalType": "string",
          "name": "assetDescription",
          "type": "string"
        },
        {
          "internalType": "uint32",
          "name": "availablityDate",
          "type": "uint32"
        },
        {
          "internalType": "string",
          "name": "location",
          "type": "string"
        },
        {
          "internalType": "string",
          "name": "imageIPFSHash",
          "type": "string"
        }
      ],
      "name": "addAsset",
      "outputs": [],
      "stateMutability": "nonpayable",
      "type": "function"
    },
    {
      "inputs": [
        {
          "internalType": "uint256",
          "name": "pageNo",
          "type": "uint256"
        }
      ],
      "name": "getDonationsByOwner",
      "outputs": [
        {
          "components": [
            {
              "internalType": "uint32",
              "name": "assetId",
              "type": "uint32"
            },
            {
              "internalType": "string",
              "name": "assetTitle",
              "type": "string"
            },
            {
              "internalType": "string",
              "name": "assetDescription",
              "type": "string"
            },
            {
              "internalType": "uint32",
              "name": "availablityDate",
              "type": "uint32"
            },
            {
              "internalType": "string",
              "name": "location",
              "type": "string"
            },
            {
              "internalType": "enum DonateAsset.Status",
              "name": "status",
              "type": "uint8"
            },
            {
              "internalType": "address",
              "name": "owner",
              "type": "address"
            },
            {
              "internalType": "address",
              "name": "recipient",
              "type": "address"
            },
            {
              "internalType": "uint32",
              "name": "donatedDateFrom",
              "type": "uint32"
            },
            {
              "internalType": "uint32",
              "name": "donatedDateTo",
              "type": "uint32"
            },
            {
              "internalType": "uint32",
              "name": "requestCount",
              "type": "uint32"
            },
            {
              "internalType": "string",
              "name": "imageIPFSHash",
              "type": "string"
            }
          ],
          "internalType": "struct DonateAsset.Asset[8]",
          "name": "",
          "type": "tuple[8]"
        }
      ],
      "stateMutability": "view",
      "type": "function",
      "constant": true
    },
    {
      "inputs": [],
      "name": "getAllDonations",
      "outputs": [
        {
          "components": [
            {
              "internalType": "uint32",
              "name": "assetId",
              "type": "uint32"
            },
            {
              "internalType": "string",
              "name": "assetTitle",
              "type": "string"
            },
            {
              "internalType": "string",
              "name": "assetDescription",
              "type": "string"
            },
            {
              "internalType": "uint32",
              "name": "availablityDate",
              "type": "uint32"
            },
            {
              "internalType": "string",
              "name": "location",
              "type": "string"
            },
            {
              "internalType": "enum DonateAsset.Status",
              "name": "status",
              "type": "uint8"
            },
            {
              "internalType": "address",
              "name": "owner",
              "type": "address"
            },
            {
              "internalType": "address",
              "name": "recipient",
              "type": "address"
            },
            {
              "internalType": "uint32",
              "name": "donatedDateFrom",
              "type": "uint32"
            },
            {
              "internalType": "uint32",
              "name": "donatedDateTo",
              "type": "uint32"
            },
            {
              "internalType": "uint32",
              "name": "requestCount",
              "type": "uint32"
            },
            {
              "internalType": "string",
              "name": "imageIPFSHash",
              "type": "string"
            }
          ],
          "internalType": "struct DonateAsset.Asset[16]",
          "name": "",
          "type": "tuple[16]"
        }
      ],
      "stateMutability": "view",
      "type": "function",
      "constant": true
    },
    {
      "inputs": [
        {
          "internalType": "address",
          "name": "assetOwner",
          "type": "address"
        }
      ],
      "name": "mintToken",
      "outputs": [
        {
          "internalType": "uint32",
          "name": "",
          "type": "uint32"
        }
      ],
      "stateMutability": "nonpayable",
      "type": "function"
    },
    {
      "inputs": [
        {
          "internalType": "uint32",
          "name": "assetId",
          "type": "uint32"
        },
        {
          "internalType": "address",
          "name": "recipientAddress",
          "type": "address"
        }
      ],
      "name": "donateAsset",
      "outputs": [],
      "stateMutability": "nonpayable",
      "type": "function"
    },
    {
      "inputs": [
        {
          "internalType": "uint32",
          "name": "assetId",
          "type": "uint32"
        }
      ],
      "name": "getAssetRequestCount",
      "outputs": [
        {
          "internalType": "uint32",
          "name": "",
          "type": "uint32"
        }
      ],
      "stateMutability": "view",
      "type": "function",
      "constant": true
    },
    {
      "inputs": [
        {
          "internalType": "uint32",
          "name": "assetId",
          "type": "uint32"
        }
      ],
      "name": "getDonation",
      "outputs": [
        {
          "components": [
            {
              "internalType": "uint32",
              "name": "assetId",
              "type": "uint32"
            },
            {
              "internalType": "string",
              "name": "assetTitle",
              "type": "string"
            },
            {
              "internalType": "string",
              "name": "assetDescription",
              "type": "string"
            },
            {
              "internalType": "uint32",
              "name": "availablityDate",
              "type": "uint32"
            },
            {
              "internalType": "string",
              "name": "location",
              "type": "string"
            },
            {
              "internalType": "enum DonateAsset.Status",
              "name": "status",
              "type": "uint8"
            },
            {
              "internalType": "address",
              "name": "owner",
              "type": "address"
            },
            {
              "internalType": "address",
              "name": "recipient",
              "type": "address"
            },
            {
              "internalType": "uint32",
              "name": "donatedDateFrom",
              "type": "uint32"
            },
            {
              "internalType": "uint32",
              "name": "donatedDateTo",
              "type": "uint32"
            },
            {
              "internalType": "uint32",
              "name": "requestCount",
              "type": "uint32"
            },
            {
              "internalType": "string",
              "name": "imageIPFSHash",
              "type": "string"
            }
          ],
          "internalType": "struct DonateAsset.Asset",
          "name": "",
          "type": "tuple"
        }
      ],
      "stateMutability": "view",
      "type": "function",
      "constant": true
    }
  ],
  "bytecode": "0x60806040523480156200001157600080fd5b5060405162003ab938038062003ab9833981016040819052620000349162000237565b604080518082018252600781526626bcaa37b5b2b760c91b602080830191909152825180840190935260038352624d545360e81b9083015290620000886301ffc9a760e01b6001600160e01b036200013716565b81516200009d90600690602085019062000192565b508051620000b390600790602084019062000192565b50620000cf6380ac58cd60e01b6001600160e01b036200013716565b620000ea635b5e139f60e01b6001600160e01b036200013716565b6200010563780e9d6360e01b6001600160e01b036200013716565b5050600a80546001600160a01b0319166001600160a01b03929092169190911763ffffffff60a01b191690556200029e565b6001600160e01b031980821614156200016d5760405162461bcd60e51b8152600401620001649062000267565b60405180910390fd5b6001600160e01b0319166000908152602081905260409020805460ff19166001179055565b828054600181600116156101000203166002900490600052602060002090601f016020900481019282601f10620001d557805160ff191683800117855562000205565b8280016001018555821562000205579182015b8281111562000205578251825591602001919060010190620001e8565b506200021392915062000217565b5090565b6200023491905b808211156200021357600081556001016200021e565b90565b60006020828403121562000249578081fd5b81516001600160a01b038116811462000260578182fd5b9392505050565b6020808252601c908201527f4552433136353a20696e76616c696420696e7465726661636520696400000000604082015260600190565b61380b80620002ae6000396000f3fe608060405234801561001057600080fd5b506004361061013e5760003560e01c806301173a741461014357806301ffc9a71461016c57806306fdde031461018c578063081812fc146101a1578063095ea7b3146101c157806318160ddd146101d657806321f54c21146101eb57806323b872dd146101fe578063247f0542146102115780632f745c591461023157806338a59a071461024457806342842e0e1461025957806349d17fe91461026c5780634bb0eaaf1461027f5780634f6ccce7146102aa5780636352211e146102bd5780636c0360eb146102d05780636de50578146102d857806370a08231146102eb57806371884136146102fe57806395d89b411461031e578063a22cb46514610326578063b88d4fde14610339578063c87b56dd1461034c578063cac78d851461035f578063e985e9c514610372575b600080fd5b6101566101513660046129ae565b610385565b60405161016391906135e0565b60405180910390f35b61017f61017a366004612b21565b610470565b60405161016391906130b6565b61019461048f565b60405161016391906130c1565b6101b46101af366004612d8a565b610526565b6040516101639190612fdf565b6101d46101cf366004612adb565b610572565b005b6101de61060a565b60405161016391906135d7565b6101566101f9366004612da2565b61061b565b6101d461020c3660046129fd565b610640565b61022461021f366004612d8a565b610678565b6040516101639190613074565b6101de61023f366004612adb565b610a34565b61024c610a65565b6040516101639190613026565b6101d46102673660046129fd565b610df9565b6101d461027a366004612dbe565b610e14565b61029261028d366004612da2565b61101e565b6040516101639c9b9a999897969594939291906135f1565b6101de6102b8366004612d8a565b6112d6565b6101b46102cb366004612d8a565b6112f2565b610194611320565b6101d46102e6366004612c15565b611381565b6101de6102f93660046129ae565b611434565b61031161030c366004612da2565b61147d565b60405161016391906135c4565b61019461179d565b6101d4610334366004612aa4565b6117fe565b6101d4610347366004612a3d565b6118cc565b61019461035a366004612d8a565b61190b565b6101d461036d366004612b59565b611a55565b61017f6103803660046129c9565b611d85565b600a54604080516309d2f83f60e41b815290516000926001600160a01b031691639d2f83f091600480830192602092919082900301818787803b1580156103cb57600080fd5b505af11580156103df573d6000803e3d6000fd5b505050506040513d601f19601f820116820180604052506104039190810190612b05565b1561040d57600080fd5b600a54610428908390600160a01b900463ffffffff16611db3565b600a54600160a01b900463ffffffff16610443816001611dd1565b600a805463ffffffff92909216600160a01b0263ffffffff60a01b1990921691909117905590505b919050565b6001600160e01b03191660009081526020819052604090205460ff1690565b60068054604080516020601f600260001961010060018816150201909516949094049384018190048102820181019092528281526060939092909183018282801561051b5780601f106104f05761010080835404028352916020019161051b565b820191906000526020600020905b8154815290600101906020018083116104fe57829003601f168201915b505050505090505b90565b600061053182611df6565b6105565760405162461bcd60e51b815260040161054d90613417565b60405180910390fd5b506000908152600460205260409020546001600160a01b031690565b600061057d826112f2565b9050806001600160a01b0316836001600160a01b031614156105b15760405162461bcd60e51b815260040161054d906134fb565b806001600160a01b03166105c3611e09565b6001600160a01b031614806105df57506105df81610380611e09565b6105fb5760405162461bcd60e51b815260040161054d906132bd565b6106058383611e0d565b505050565b60006106166002611e7b565b905090565b63ffffffff9081166000908152600b6020526040902060060154600160e01b90041690565b61065161064b611e09565b82611e86565b61066d5760405162461bcd60e51b815260040161054d9061353c565b610605838383611f0b565b61068061279e565b600061068b33611434565b9050600061069a846008612019565b905060006106a88383612053565b90506000806106b561279e565b60088410156106c6578392506106cb565b600892505b60006106d78685611dd1565b9050855b81811015610a24576106ed3382610a34565b63ffffffff8181166000908152600b602090815260409182902082516101808101845281549094168452600180820180548551600261010094831615949094026000190190911692909204601f8101859004850283018501909552848252959950939490938583019390928301828280156107a95780601f1061077e576101008083540402835291602001916107a9565b820191906000526020600020905b81548152906001019060200180831161078c57829003601f168201915b5050509183525050600282810180546040805160206001841615610100026000190190931694909404601f8101839004830285018301909152808452938101939083018282801561083b5780601f106108105761010080835404028352916020019161083b565b820191906000526020600020905b81548152906001019060200180831161081e57829003601f168201915b5050509183525050600382015463ffffffff1660208083019190915260048301805460408051601f600260001960018616156101000201909416939093049283018590048502810185018252828152940193928301828280156108df5780601f106108b4576101008083540402835291602001916108df565b820191906000526020600020905b8154815290600101906020018083116108c257829003601f168201915b5050509183525050600582015460209091019060ff16600481111561090057fe5b600481111561090b57fe5b81526005820154610100908190046001600160a01b039081166020808501919091526006850154918216604080860191909152600160a01b830463ffffffff9081166060870152600160c01b840481166080870152600160e01b90930490921660a08501526007850180548351600260018316159096026000190190911694909404601f810183900483028501830190935282845260c09094019391908301828280156109f95780601f106109ce576101008083540402835291602001916109f9565b820191906000526020600020905b8154815290600101906020018083116109dc57829003601f168201915b50505050508152505083610a0d838a612053565b60088110610a1757fe5b60200201526001016106db565b508197505050505050505061046b565b6001600160a01b0382166000908152600160205260408120610a5c908363ffffffff61209516565b90505b92915050565b610a6d6127cc565b6000610a776127cc565b600a546010600160a01b90910463ffffffff1611610aa657600a54600160a01b900463ffffffff169150610aab565b601091505b60005b8263ffffffff168163ffffffff161015610df25763ffffffff8181166000908152600b602090815260409182902082516101808101845281549094168452600180820180548551600261010094831615949094026000190190911692909204601f8101859004850283018501909552848252919385840193919291830182828015610b7a5780601f10610b4f57610100808354040283529160200191610b7a565b820191906000526020600020905b815481529060010190602001808311610b5d57829003601f168201915b5050509183525050600282810180546040805160206001841615610100026000190190931694909404601f81018390048302850183019091528084529381019390830182828015610c0c5780601f10610be157610100808354040283529160200191610c0c565b820191906000526020600020905b815481529060010190602001808311610bef57829003601f168201915b5050509183525050600382015463ffffffff1660208083019190915260048301805460408051601f60026000196001861615610100020190941693909304928301859004850281018501825282815294019392830182828015610cb05780601f10610c8557610100808354040283529160200191610cb0565b820191906000526020600020905b815481529060010190602001808311610c9357829003601f168201915b5050509183525050600582015460209091019060ff166004811115610cd157fe5b6004811115610cdc57fe5b81526005820154610100908190046001600160a01b039081166020808501919091526006850154918216604080860191909152600160a01b830463ffffffff9081166060870152600160c01b840481166080870152600160e01b90930490921660a08501526007850180548351600260018316159096026000190190911694909404601f810183900483028501830190935282845260c0909401939190830182828015610dca5780601f10610d9f57610100808354040283529160200191610dca565b820191906000526020600020905b815481529060010190602001808311610dad57829003601f168201915b505050505081525050828263ffffffff1660108110610de557fe5b6020020152600101610aae565b5091505090565b610605838383604051806020016040528060008152506118cc565b63ffffffff82166000908152600b6020526040902060050154829061010090046001600160a01b0316610e595760405162461bcd60e51b815260040161054d90613116565b63ffffffff83166000908152600b602052604090206006015483906001600160a01b0316158015610ede575063ffffffff81166000908152600b602052604081206005015460ff166004811115610eac57fe5b1480610ede5750600163ffffffff82166000908152600b602052604090206005015460ff166004811115610edc57fe5b145b610ee757600080fd5b63ffffffff841633610ef8826112f2565b6001600160a01b031614610f0b57600080fd5b600a60009054906101000a90046001600160a01b03166001600160a01b0316639d2f83f06040518163ffffffff1660e01b8152600401602060405180830381600087803b158015610f5b57600080fd5b505af1158015610f6f573d6000803e3d6000fd5b505050506040513d601f19601f82011682018060405250610f939190810190612b05565b15610f9d57600080fd5b63ffffffff85166000908152600b6020526040908190206006810180546001600160a01b0388166001600160a01b0319909116179055600501805460ff19166002179055517f9869ee1482368b4ea48cb13a191ba8022b944e7785dbe1804c4e4c11ed347dd19061100f9087906135e0565b60405180910390a15050505050565b600b602090815260009182526040918290208054600180830180548651600261010094831615949094026000190190911692909204601f810186900486028301860190965285825263ffffffff9092169492939092908301828280156110c55780601f1061109a576101008083540402835291602001916110c5565b820191906000526020600020905b8154815290600101906020018083116110a857829003601f168201915b50505060028085018054604080516020601f60001961010060018716150201909416959095049283018590048502810185019091528181529596959450909250908301828280156111575780601f1061112c57610100808354040283529160200191611157565b820191906000526020600020905b81548152906001019060200180831161113a57829003601f168201915b50505050600383015460048401805460408051602060026101006001861615026000190190941693909304601f8101849004840282018401909252818152959663ffffffff90941695939450908301828280156111f55780601f106111ca576101008083540402835291602001916111f5565b820191906000526020600020905b8154815290600101906020018083116111d857829003601f168201915b50505050600583015460068401546007850180546040805160206002610100600186161581026000190190951604601f8101829004820283018201909352828252979860ff871698939096046001600160a01b039081169750851695600160a01b860463ffffffff90811696600160c01b8104821696600160e01b90910490911694919390918301828280156112cc5780601f106112a1576101008083540402835291602001916112cc565b820191906000526020600020905b8154815290600101906020018083116112af57829003601f168201915b505050505090508c565b6000806112ea60028463ffffffff6120a116565b509392505050565b6000610a5f8260405180606001604052806029815260200161378d602991396002919063ffffffff6120bd16565b60098054604080516020601f600260001961010060018816150201909516949094049384018190048102820181019092528281526060939092909183018282801561051b5780601f106104f05761010080835404028352916020019161051b565b805163ffffffff166000908152600b602052604090206005015460ff1660048111156113a957fe5b8160a0015160048111156113b957fe5b11156113f75760a0810151815163ffffffff166000908152600b60205260409020600501805460ff191660018360048111156113f157fe5b02179055505b610140810151905163ffffffff9081166000908152600b60205260409020600601805491909216600160e01b026001600160e01b03909116179055565b60006001600160a01b03821661145c5760405162461bcd60e51b815260040161054d90613315565b6001600160a01b0382166000908152600160205260409020610a5f90611e7b565b6114856127fa565b63ffffffff8281166000908152600b602090815260409182902082516101808101845281549094168452600180820180548551600261010094831615949094026000190190911692909204601f810185900485028301850190955284825291938584019391929183018282801561153d5780601f106115125761010080835404028352916020019161153d565b820191906000526020600020905b81548152906001019060200180831161152057829003601f168201915b5050509183525050600282810180546040805160206001841615610100026000190190931694909404601f810183900483028501830190915280845293810193908301828280156115cf5780601f106115a4576101008083540402835291602001916115cf565b820191906000526020600020905b8154815290600101906020018083116115b257829003601f168201915b5050509183525050600382015463ffffffff1660208083019190915260048301805460408051601f600260001960018616156101000201909416939093049283018590048502810185018252828152940193928301828280156116735780601f1061164857610100808354040283529160200191611673565b820191906000526020600020905b81548152906001019060200180831161165657829003601f168201915b5050509183525050600582015460209091019060ff16600481111561169457fe5b600481111561169f57fe5b81526005820154610100908190046001600160a01b039081166020808501919091526006850154918216604080860191909152600160a01b830463ffffffff9081166060870152600160c01b840481166080870152600160e01b90930490921660a08501526007850180548351600260018316159096026000190190911694909404601f810183900483028501830190935282845260c090940193919083018282801561178d5780601f106117625761010080835404028352916020019161178d565b820191906000526020600020905b81548152906001019060200180831161177057829003601f168201915b5050505050815250509050919050565b60078054604080516020601f600260001961010060018816150201909516949094049384018190048102820181019092528281526060939092909183018282801561051b5780601f106104f05761010080835404028352916020019161051b565b611806611e09565b6001600160a01b0316826001600160a01b031614156118375760405162461bcd60e51b815260040161054d9061323e565b8060056000611844611e09565b6001600160a01b03908116825260208083019390935260409182016000908120918716808252919093529120805460ff191692151592909217909155611888611e09565b6001600160a01b03167f17307eab39ab6107e8899845ad3d59bd9653f200f220920489ca2b5937696c31836040516118c091906130b6565b60405180910390a35050565b6118dd6118d7611e09565b83611e86565b6118f95760405162461bcd60e51b815260040161054d9061353c565b611905848484846120d4565b50505050565b606061191682611df6565b6119325760405162461bcd60e51b815260040161054d906134ac565b60008281526008602090815260409182902080548351601f60026000196101006001861615020190931692909204918201849004840281018401909452808452606093928301828280156119c75780601f1061199c576101008083540402835291602001916119c7565b820191906000526020600020905b8154815290600101906020018083116119aa57829003601f168201915b5050600954939450505050600260001961010060018416150201909116046119f057905061046b565b805115611a2257600981604051602001611a0b929190612f5e565b60405160208183030381529060405291505061046b565b6009611a2d84612107565b604051602001611a3e929190612f5e565b604051602081830303815290604052915050919050565b600a60009054906101000a90046001600160a01b03166001600160a01b0316639d2f83f06040518163ffffffff1660e01b8152600401602060405180830381600087803b158015611aa557600080fd5b505af1158015611ab9573d6000803e3d6000fd5b505050506040513d601f19601f82011682018060405250611add9190810190612b05565b15611ae757600080fd5b600a5460405163095d1a0d60e21b81526001600160a01b0390911690632574683490611b17903390600401612fdf565b600060405180830381600087803b158015611b3157600080fd5b505af1158015611b45573d6000803e3d6000fd5b505050506000611b5433610385565b90506040518061018001604052808263ffffffff1681526020018781526020018681526020018563ffffffff16815260200184815260200160006004811115611b9957fe5b81523360208083019190915260006040808401829052606084018290526080840182905260a0840182905260c090930186905263ffffffff8581168252600b83529290208351815463ffffffff19169316929092178255828101518051611c069260018501920190612874565b5060408201518051611c22916002840191602090910190612874565b50606082015160038201805463ffffffff191663ffffffff90921691909117905560808201518051611c5e916004840191602090910190612874565b5060a082015160058201805460ff19166001836004811115611c7c57fe5b021790555060c0820151600582018054610100600160a81b0319166101006001600160a01b0393841681029190911790915560e0840151600684018054928601516101208701516101408801516001600160a01b0319909516939095169290921763ffffffff60a01b1916600160a01b63ffffffff938416021763ffffffff60c01b1916600160c01b94831694909402939093176001600160e01b0316600160e01b91909216021790556101608201518051611d42916007840191602090910190612874565b509050507f02be38ab1ac25d38c43ba8eef640edc80bd26853df4de2f92af4fa493699009c81604051611d7591906135e0565b60405180910390a1505050505050565b6001600160a01b03918216600090815260056020908152604080832093909416825291909152205460ff1690565b611dcd8282604051806020016040528060008152506121cb565b5050565b600082820183811015610a5c5760405162461bcd60e51b815260040161054d906131c5565b6000610a5f60028363ffffffff6121fe16565b3390565b600081815260046020526040902080546001600160a01b0319166001600160a01b0384169081179091558190611e42826112f2565b6001600160a01b03167f8c5be1e5ebec7d5bd14f71427d1e84f3dd0314c0f7b2291e5b200ac8c7c3b92560405160405180910390a45050565b6000610a5f8261220a565b6000611e9182611df6565b611ead5760405162461bcd60e51b815260040161054d90613271565b6000611eb8836112f2565b9050806001600160a01b0316846001600160a01b03161480611ef35750836001600160a01b0316611ee884610526565b6001600160a01b0316145b80611f035750611f038185611d85565b949350505050565b826001600160a01b0316611f1e826112f2565b6001600160a01b031614611f445760405162461bcd60e51b815260040161054d90613463565b6001600160a01b038216611f6a5760405162461bcd60e51b815260040161054d906131fa565b611f75838383610605565b611f80600082611e0d565b6001600160a01b0383166000908152600160205260409020611fa8908263ffffffff61220e16565b506001600160a01b0382166000908152600160205260409020611fd1908263ffffffff61221a16565b50611fe46002828463ffffffff61222616565b5080826001600160a01b0316846001600160a01b03166000805160206137b683398151915260405160405180910390a4505050565b60008261202857506000610a5f565b8282028284828161203557fe5b0414610a5c5760405162461bcd60e51b815260040161054d906133d6565b6000610a5c83836040518060400160405280601e81526020017f536166654d6174683a207375627472616374696f6e206f766572666c6f77000081525061223c565b6000610a5c8383612268565b60008080806120b086866122ad565b9097909650945050505050565b60006120ca848484612309565b90505b9392505050565b6120df848484611f0b565b6120eb84848484612368565b6119055760405162461bcd60e51b815260040161054d9061313d565b60608161212c57506040805180820190915260018152600360fc1b602082015261046b565b8160005b811561214457600101600a82049150612130565b6060816040519080825280601f01601f191660200182016040528015612171576020820181803883390190505b50859350905060001982015b83156121c257600a840660300160f81b828280600190039350815181106121a057fe5b60200101906001600160f81b031916908160001a905350600a8404935061217d565b50949350505050565b6121d5838361244d565b6121e26000848484612368565b6106055760405162461bcd60e51b815260040161054d9061313d565b6000610a5c838361250b565b5490565b6000610a5c8383612523565b6000610a5c83836125e9565b60006120ca84846001600160a01b038516612633565b600081848411156122605760405162461bcd60e51b815260040161054d91906130c1565b505050900390565b8154600090821061228b5760405162461bcd60e51b815260040161054d906130d4565b82600001828154811061229a57fe5b9060005260206000200154905092915050565b8154600090819083106122d25760405162461bcd60e51b815260040161054d9061335f565b60008460000184815481106122e357fe5b906000526020600020906002020190508060000154816001015492509250509250929050565b600082815260018401602052604081205482816123395760405162461bcd60e51b815260040161054d91906130c1565b5084600001600182038154811061234c57fe5b9060005260206000209060020201600101549150509392505050565b600061237c846001600160a01b03166126ca565b61238857506001611f03565b6060612416630a85bd0160e11b61239d611e09565b8887876040516024016123b39493929190612ff3565b604051602081830303815290604052906001600160e01b0319166020820180516001600160e01b03838183161783525050505060405180606001604052806032815260200161375b603291396001600160a01b038816919063ffffffff6126d016565b905060008180602001905161242e9190810190612b3d565b6001600160e01b031916630a85bd0160e11b1492505050949350505050565b6001600160a01b0382166124735760405162461bcd60e51b815260040161054d906133a1565b61247c81611df6565b156124995760405162461bcd60e51b815260040161054d9061318f565b6124a560008383610605565b6001600160a01b03821660009081526001602052604090206124cd908263ffffffff61221a16565b506124e06002828463ffffffff61222616565b5060405181906001600160a01b038416906000906000805160206137b6833981519152908290a45050565b60009081526001919091016020526040902054151590565b600081815260018301602052604081205480156125df578354600019808301919081019060009087908390811061255657fe5b906000526020600020015490508087600001848154811061257357fe5b6000918252602080832090910192909255828152600189810190925260409020908401905586548790806125a357fe5b60019003818190600052602060002001600090559055866001016000878152602001908152602001600020600090556001945050505050610a5f565b6000915050610a5f565b60006125f5838361250b565b61262b57508154600181810184556000848152602080822090930184905584548482528286019093526040902091909155610a5f565b506000610a5f565b6000828152600184016020526040812054806126985750506040805180820182528381526020808201848152865460018181018955600089815284812095516002909302909501918255915190820155865486845281880190925292909120556120cd565b828560000160018303815481106126ab57fe5b90600052602060002090600202016001018190555060009150506120cd565b3b151590565b60606120ca848460008560606126e5856126ca565b6127015760405162461bcd60e51b815260040161054d9061358d565b60006060866001600160a01b0316858760405161271e9190612f42565b60006040518083038185875af1925050503d806000811461275b576040519150601f19603f3d011682016040523d82523d6000602084013e612760565b606091505b50915091508115612774579150611f039050565b8051156127845780518082602001fd5b8360405162461bcd60e51b815260040161054d91906130c1565b6040518061010001604052806008905b6127b66127fa565b8152602001906001900390816127ae5790505090565b6040518061020001604052806010905b6127e46127fa565b8152602001906001900390816127dc5790505090565b604051806101800160405280600063ffffffff1681526020016060815260200160608152602001600063ffffffff168152602001606081526020016000600481111561284257fe5b81526000602082018190526040820181905260608083018290526080830182905260a083019190915260c09091015290565b828054600181600116156101000203166002900490600052602060002090601f016020900481019282601f106128b557805160ff19168380011785556128e2565b828001600101855582156128e2579182015b828111156128e25782518255916020019190600101906128c7565b506128ee9291506128f2565b5090565b61052391905b808211156128ee57600081556001016128f8565b80356001600160a01b0381168114610a5f57600080fd5b600082601f830112612933578081fd5b81356001600160401b03811115612948578182fd5b61295b601f8201601f19166020016136ba565b915080825283602082850101111561297257600080fd5b8060208401602084013760009082016020015292915050565b803560058110610a5f57600080fd5b803563ffffffff81168114610a5f57600080fd5b6000602082840312156129bf578081fd5b610a5c838361290c565b600080604083850312156129db578081fd5b6129e5848461290c565b91506129f4846020850161290c565b90509250929050565b600080600060608486031215612a11578081fd5b8335612a1c8161370c565b92506020840135612a2c8161370c565b929592945050506040919091013590565b60008060008060808587031215612a52578081fd5b612a5c868661290c565b9350612a6b866020870161290c565b92506040850135915060608501356001600160401b03811115612a8c578182fd5b612a9887828801612923565b91505092959194509250565b60008060408385031215612ab6578182fd5b612ac0848461290c565b91506020830135612ad081613724565b809150509250929050565b60008060408385031215612aed578182fd5b612af7848461290c565b946020939093013593505050565b600060208284031215612b16578081fd5b8151610a5c81613724565b600060208284031215612b32578081fd5b8135610a5c81613732565b600060208284031215612b4e578081fd5b8151610a5c81613732565b600080600080600060a08688031215612b70578283fd5b85356001600160401b0380821115612b86578485fd5b612b9289838a01612923565b96506020880135915080821115612ba7578485fd5b612bb389838a01612923565b955060408801359150612bc582613748565b90935060608701359080821115612bda578283fd5b612be689838a01612923565b93506080880135915080821115612bfb578283fd5b50612c0888828901612923565b9150509295509295909350565b600060208284031215612c26578081fd5b81356001600160401b0380821115612c3c578283fd5b610180918401808603831315612c50578384fd5b612c59836136ba565b612c63878361299a565b81526020820135935082841115612c78578485fd5b612c8487858401612923565b60208201526040820135935082841115612c9c578485fd5b612ca887858401612923565b6040820152612cba876060840161299a565b60608201526080820135935082841115612cd2578485fd5b612cde87858401612923565b6080820152612cf08760a0840161298b565b60a0820152612d028760c0840161290c565b60c0820152612d148760e0840161290c565b60e08201526101009350612d2a8785840161299a565b848201526101209350612d3f8785840161299a565b848201526101409350612d548785840161299a565b8482015261016093508382013583811115612d6d578586fd5b612d7988828501612923565b948201949094529695505050505050565b600060208284031215612d9b578081fd5b5035919050565b600060208284031215612db3578081fd5b8135610a5c81613748565b60008060408385031215612dd0578182fd5b6129e5848461299a565b6001600160a01b03169052565b60008151808452612dff8160208601602086016136e0565b601f01601f19169290920160200192915050565b60058110612e1d57fe5b9052565b6000610180612e31848451612f38565b6020830151816020860152612e4882860182612de7565b604085015192508581036040870152612e618184612de7565b91505060608401519150612e786060860183612f38565b608084015191508481036080860152612e918183612de7565b60a08501519250612ea560a0870184612e13565b60c08501519250612eb960c0870184612dda565b60e08501519250612ecd60e0870184612dda565b6101009250828501519150612ee483870183612f38565b6101209250828501519150612efb83870183612f38565b6101409250828501519150612f1283870183612f38565b610160925082850151915085810383870152612f2e8183612de7565b9695505050505050565b63ffffffff169052565b60008251612f548184602087016136e0565b9190910192915050565b6000808454600180821660008114612f7d5760018114612f9457612fc3565b60ff198316865260028304607f1686019350612fc3565b600283048886526020808720875b83811015612fbb5781548a820152908501908201612fa2565b505050860193505b5050508351612fd68183602088016136e0565b01949350505050565b6001600160a01b0391909116815260200190565b6001600160a01b0385811682528416602082015260408101839052608060608201819052600090612f2e90830184612de7565b6020808252600090610220830183820185845b601081101561306857601f19878503018352613056848351612e21565b93509184019190840190600101613039565b50919695505050505050565b6020808252600090610120830183820185845b600881101561306857601f198785030183526130a4848351612e21565b93509184019190840190600101613087565b901515815260200190565b600060208252610a5c6020830184612de7565b60208082526022908201527f456e756d657261626c655365743a20696e646578206f7574206f6620626f756e604082015261647360f01b606082015260800190565b6020808252600d908201526c125b9d985b1a5908185cdcd95d609a1b604082015260600190565b60208082526032908201527f4552433732313a207472616e7366657220746f206e6f6e20455243373231526560408201527131b2b4bb32b91034b6b83632b6b2b73a32b960711b606082015260800190565b6020808252601c908201527b115490cdcc8c4e881d1bdad95b88185b1c9958591e481b5a5b9d195960221b604082015260600190565b6020808252601b908201527a536166654d6174683a206164646974696f6e206f766572666c6f7760281b604082015260600190565b60208082526024908201527f4552433732313a207472616e7366657220746f20746865207a65726f206164646040820152637265737360e01b606082015260800190565b60208082526019908201527822a9219b99189d1030b8383937bb32903a379031b0b63632b960391b604082015260600190565b6020808252602c908201527f4552433732313a206f70657261746f7220717565727920666f72206e6f6e657860408201526b34b9ba32b73a103a37b5b2b760a11b606082015260800190565b60208082526038908201527f4552433732313a20617070726f76652063616c6c6572206973206e6f74206f776040820152771b995c881b9bdc88185c1c1c9bdd995908199bdc88185b1b60421b606082015260800190565b6020808252602a908201527f4552433732313a2062616c616e636520717565727920666f7220746865207a65604082015269726f206164647265737360b01b606082015260800190565b60208082526022908201527f456e756d657261626c654d61703a20696e646578206f7574206f6620626f756e604082015261647360f01b606082015260800190565b6020808252818101527f4552433732313a206d696e7420746f20746865207a65726f2061646472657373604082015260600190565b60208082526021908201527f536166654d6174683a206d756c7469706c69636174696f6e206f766572666c6f6040820152607760f81b606082015260800190565b6020808252602c908201527f4552433732313a20617070726f76656420717565727920666f72206e6f6e657860408201526b34b9ba32b73a103a37b5b2b760a11b606082015260800190565b60208082526029908201527f4552433732313a207472616e73666572206f6620746f6b656e2074686174206960408201526839903737ba1037bbb760b91b606082015260800190565b6020808252602f908201527f4552433732314d657461646174613a2055524920717565727920666f72206e6f60408201526e3732bc34b9ba32b73a103a37b5b2b760891b606082015260800190565b60208082526021908201527f4552433732313a20617070726f76616c20746f2063757272656e74206f776e656040820152603960f91b606082015260800190565b60208082526031908201527f4552433732313a207472616e736665722063616c6c6572206973206e6f74206f6040820152701ddb995c881b9bdc88185c1c1c9bdd9959607a1b606082015260800190565b6020808252601d908201527f416464726573733a2063616c6c20746f206e6f6e2d636f6e7472616374000000604082015260600190565b600060208252610a5c6020830184612e21565b90815260200190565b63ffffffff91909116815260200190565b600063ffffffff808f168352610180602084015261361361018084018f612de7565b8381036040850152613625818f612de7565b828e166060860152848103608086015261363f818e612de7565b9250505061365060a084018b612e13565b61365d60c084018a612dda565b61366a60e0840189612dda565b613678610100840188612f38565b613686610120840187612f38565b613694610140840186612f38565b8281036101608401526136a78185612de7565b9f9e505050505050505050505050505050565b6040518181016001600160401b03811182821017156136d857600080fd5b604052919050565b60005b838110156136fb5781810151838201526020016136e3565b838111156119055750506000910152565b6001600160a01b038116811461372157600080fd5b50565b801515811461372157600080fd5b6001600160e01b03198116811461372157600080fd5b63ffffffff8116811461372157600080fdfe4552433732313a207472616e7366657220746f206e6f6e20455243373231526563656976657220696d706c656d656e7465724552433732313a206f776e657220717565727920666f72206e6f6e6578697374656e7420746f6b656eddf252ad1be2c89b69c2b068fc378daa952ba7f163c4a11628f55a4df523b3efa26469706673582212201f71e9f65a6b0e7140c4d5c45ab59b706f9d346be17f8408c7164c947970de9d64736f6c63430006020033",
  "source": "pragma solidity ^0.6.2;\npragma experimental ABIEncoderV2;\n\ncontract Administration {\n    function systemPaused() public returns(bool){}\n    function addDonor(address donorAddress) public {}\n}\n\nimport \"@openzeppelin/contracts/token/ERC721/ERC721.sol\";\nimport \"@openzeppelin/contracts/access/AccessControl.sol\";\nimport \"@openzeppelin/contracts/math/SafeMath.sol\";\n\n/// @title A Asset donation smart contract\n/// @author Fatemeh Heidari Soureshjani\n/// @notice This contract facilitates donation of physical assets for specific periods of time between asset owners and receivers\n/// @dev time\n\ncontract DonateAsset is ERC721 {\n    Administration ADM;\n\n    uint32 lastAssetId;\n\n    constructor(address _adm) public ERC721(\"MyToken\", \"MTS\") {\n        ADM = Administration(_adm);\n        lastAssetId = 0;\n    }\n\n    enum Status {Free, Requested, Donated, Inactive, Burned}\n\n    struct Asset {\n        uint32 assetId;\n        string assetTitle;\n        string assetDescription;\n        uint32 availablityDate;\n        string location;\n        Status status;\n        address owner;\n        address recipient;\n        uint32 donatedDateFrom;\n        uint32 donatedDateTo;\n        uint32 requestCount;\n        string imageIPFSHash;\n    }\n\n    mapping(uint32 => Asset) public donationList;\n\n    modifier assetIsFree(uint32 assetId) {\n        require(\n            donationList[assetId].recipient == address(0) &&\n                (donationList[assetId].status == Status.Free ||\n                    donationList[assetId].status == Status.Requested)\n        );\n        _;\n    }\n\n    modifier assetExists(uint32 assetId) {\n        require(donationList[assetId].owner != address(0), \"Invalid asset\");\n        _;\n    }\n\n    modifier isAssetOwner(uint256 assetId) {\n        require(ownerOf(assetId) == msg.sender);\n        _;\n    }\n\n    modifier whenNotPaused(){\n        require(!ADM.systemPaused());\n        _;\n    }\n\n    event LogFree(uint32 assetId);\n\n    event LogDonated(uint32 assetId);\n\n    // event LogInactive(uint32 assetId);\n    // event LogIBurned(uint32 assetId);\n\n    function UpdateAsset(Asset memory asset) public {\n        if (asset.status > donationList[asset.assetId].status) {\n            donationList[asset.assetId].status = asset.status;\n        }\n        donationList[asset.assetId].requestCount = asset.requestCount;\n    }\n\n    /// @notice Adds a new asset to list of donated assets(Should be called by a donor)\n    /// @dev other asset struct members should be added\n    /// @param assetDescription Descrption of the asset entered by owner\n    /// @param availablityDate the first date the owner can donate the asset\n    /// @param location the location of the donated asset\n    /// @param imageIPFSHash IPFS hash of the asset image uploaded by owner and saved to IPFS\n    function addAsset(\n        string memory assetTitle,\n        string memory assetDescription,\n        uint32 availablityDate,\n        string memory location,\n        string memory imageIPFSHash\n    ) public whenNotPaused {\n        ADM.addDonor(msg.sender);\n        uint32 assetId = mintToken(msg.sender);\n        donationList[assetId] = Asset({\n            assetId: assetId,\n            assetTitle: assetTitle,\n            assetDescription: assetDescription,\n            availablityDate: availablityDate,\n            location: location,\n            status: Status.Free,\n            owner: msg.sender,\n            recipient: address(0),\n            donatedDateFrom: 0,\n            donatedDateTo: 0,\n            requestCount: 0,\n            imageIPFSHash: imageIPFSHash\n        });\n        emit LogFree(assetId);\n    }\n\n    /// @notice Returns all donations of an donor(it shoud be called by a donor)\n    /// @dev There must be better way than returing always an array of 16\n    /// @return Asset returns an array of type asset and length 16 of donations of msg.sender\n    function getDonationsByOwner(uint pageNo)\n        public\n        view\n        returns (Asset[8] memory)\n    {\n        uint tokenCount = uint(balanceOf(msg.sender)); //donors[msg.sender].donationCount;\n        //uint32 pageNo = donors[msg.sender].pageNo;\n        uint nextStart = SafeMath.mul(pageNo , 8);//0\n        uint rem = SafeMath.sub( tokenCount , nextStart);//1\n        uint index = 0;\n        uint32 tokenId;\n        Asset[8] memory assetList;\n        if (rem < 0) {\n            return assetList;\n        } else {\n            if ((rem) < 8) {\n                index = rem;//1\n            } else {\n                index = 8;\n            }\n            uint loopEnd = SafeMath.add( nextStart , index);//9\n            for (uint i = nextStart; i < loopEnd; i++) {\n                tokenId = uint32(tokenOfOwnerByIndex(msg.sender, i));\n                assetList[SafeMath.sub(i , nextStart)] = donationList[tokenId];\n            }\n            return assetList;\n        }\n    }\n\n    /// @notice returns all donations\n    /// @dev There must be better way than returing always an array of 16\n    /// @return Asset returns an array of type asset and length 16 of all donations\n    function getAllDonations() public view returns (Asset[16] memory) {\n        uint32 index = 0;\n        Asset[16] memory assetList;\n        if (lastAssetId <= 16) {\n            index = lastAssetId;\n        } else {\n            index = 16;\n        }\n        for (uint32 i = 0; i < index; i++) {\n            assetList[i] = donationList[i];\n        }\n        return assetList;\n    }\n\n    /// @notice The ERC721 stadard for nunfungible token is used to maintain ownership of assets\n    /// @notice everytime a new token is minted based on current value of lastAssetId for assetOwner address, and then lastAssetId is increased\n    /// @param assetOwner the owner of the new asset\n    /// @return returns the id of new minted token\n    function mintToken(\n        address assetOwner //isDonor(msg.sender)\n    ) public whenNotPaused returns (uint32) {\n        _safeMint(assetOwner, lastAssetId);\n        uint32 assetId = lastAssetId;\n        lastAssetId = uint32(SafeMath.add(uint256(lastAssetId),1));\n        return assetId;\n    }\n\n    /// @notice a donor can approve a specific request and this function assigns the recipient of this asset to the recipientAddress\n    /// @notice caller should be a donor and recipient should be a receiver\n    /// @dev change related request's status to approved\n    /// @param assetId unique id of asset to be donated\n    /// @param recipientAddress donation receiver\n    function donateAsset(uint32 assetId, address recipientAddress)\n        public\n        assetExists(assetId)\n        //isReceiver(recipientAddress)\n        assetIsFree(assetId)\n        isAssetOwner(assetId)\n        //isDonor(msg.sender)\n        whenNotPaused\n    {\n        donationList[assetId].recipient = recipientAddress;\n        donationList[assetId].status = Status.Donated;\n        emit LogDonated(assetId);\n    }\n\n    function getAssetRequestCount(uint32 assetId) public view returns (uint32) {\n        return donationList[assetId].requestCount;\n    }\n\n    function getDonation(uint32 assetId) public view returns (Asset memory) {\n        return donationList[assetId];\n    }\n}\n",
  "sourcePath": "/home/fatemeh/Desktop/Consensys Course/assetdonation/AssetDonation/contracts/DonateAsset.sol",
  "compiler": {
    "name": "solc",
    "version": "0.6.2+commit.bacdbe57.Emscripten.clang"
  },
  "schemaVersion": "3.3.1",
  "updatedAt": "2020-12-10T02:05:16.872Z",
  "networkType": "ethereum",
  "devdoc": {
    "author": "Fatemeh Heidari Soureshjani",
    "details": "time",
    "methods": {
      "addAsset(string,string,uint32,string,string)": {
        "details": "other asset struct members should be added",
        "params": {
          "assetDescription": "Descrption of the asset entered by owner",
          "availablityDate": "the first date the owner can donate the asset",
          "imageIPFSHash": "IPFS hash of the asset image uploaded by owner and saved to IPFS",
          "location": "the location of the donated asset"
        }
      },
      "approve(address,uint256)": {
        "details": "See {IERC721-approve}."
      },
      "balanceOf(address)": {
        "details": "See {IERC721-balanceOf}."
      },
      "baseURI()": {
        "details": "Returns the base URI set via {_setBaseURI}. This will be automatically added as a prefix in {tokenURI} to each token's URI, or to the token ID if no specific URI is set for that token ID."
      },
      "donateAsset(uint32,address)": {
        "details": "change related request's status to approved",
        "params": {
          "assetId": "unique id of asset to be donated",
          "recipientAddress": "donation receiver"
        }
      },
      "getAllDonations()": {
        "details": "There must be better way than returing always an array of 16",
        "returns": {
          "_0": "Asset returns an array of type asset and length 16 of all donations"
        }
      },
      "getApproved(uint256)": {
        "details": "See {IERC721-getApproved}."
      },
      "getDonationsByOwner(uint256)": {
        "details": "There must be better way than returing always an array of 16",
        "returns": {
          "_0": "Asset returns an array of type asset and length 16 of donations of msg.sender"
        }
      },
      "isApprovedForAll(address,address)": {
        "details": "See {IERC721-isApprovedForAll}."
      },
      "mintToken(address)": {
        "params": {
          "assetOwner": "the owner of the new asset"
        },
        "returns": {
          "_0": "returns the id of new minted token"
        }
      },
      "name()": {
        "details": "See {IERC721Metadata-name}."
      },
      "ownerOf(uint256)": {
        "details": "See {IERC721-ownerOf}."
      },
      "safeTransferFrom(address,address,uint256)": {
        "details": "See {IERC721-safeTransferFrom}."
      },
      "safeTransferFrom(address,address,uint256,bytes)": {
        "details": "See {IERC721-safeTransferFrom}."
      },
      "setApprovalForAll(address,bool)": {
        "details": "See {IERC721-setApprovalForAll}."
      },
      "supportsInterface(bytes4)": {
        "details": "See {IERC165-supportsInterface}.     * Time complexity O(1), guaranteed to always use less than 30 000 gas."
      },
      "symbol()": {
        "details": "See {IERC721Metadata-symbol}."
      },
      "tokenByIndex(uint256)": {
        "details": "See {IERC721Enumerable-tokenByIndex}."
      },
      "tokenOfOwnerByIndex(address,uint256)": {
        "details": "See {IERC721Enumerable-tokenOfOwnerByIndex}."
      },
      "tokenURI(uint256)": {
        "details": "See {IERC721Metadata-tokenURI}."
      },
      "totalSupply()": {
        "details": "See {IERC721Enumerable-totalSupply}."
      },
      "transferFrom(address,address,uint256)": {
        "details": "See {IERC721-transferFrom}."
      }
    },
    "title": "A Asset donation smart contract"
  },
  "userdoc": {
    "methods": {
      "addAsset(string,string,uint32,string,string)": {
        "notice": "Adds a new asset to list of donated assets(Should be called by a donor)"
      },
      "donateAsset(uint32,address)": {
        "notice": "a donor can approve a specific request and this function assigns the recipient of this asset to the recipientAddresscaller should be a donor and recipient should be a receiver"
      },
      "getAllDonations()": {
        "notice": "returns all donations"
      },
      "getDonationsByOwner(uint256)": {
        "notice": "Returns all donations of an donor(it shoud be called by a donor)"
      },
      "mintToken(address)": {
        "notice": "The ERC721 stadard for nunfungible token is used to maintain ownership of assetseverytime a new token is minted based on current value of lastAssetId for assetOwner address, and then lastAssetId is increased"
      }
    },
    "notice": "This contract facilitates donation of physical assets for specific periods of time between asset owners and receivers"
  }
}