{
  "contractName": "DonateAsset",
  "abi": [
    {
      "inputs": [],
      "stateMutability": "nonpayable",
      "type": "constructor"
    },
    {
      "anonymous": false,
      "inputs": [
        {
          "indexed": true,
          "internalType": "address",
          "name": "owner",
          "type": "address"
        },
        {
          "indexed": true,
          "internalType": "address",
          "name": "approved",
          "type": "address"
        },
        {
          "indexed": true,
          "internalType": "uint256",
          "name": "tokenId",
          "type": "uint256"
        }
      ],
      "name": "Approval",
      "type": "event"
    },
    {
      "anonymous": false,
      "inputs": [
        {
          "indexed": true,
          "internalType": "address",
          "name": "owner",
          "type": "address"
        },
        {
          "indexed": true,
          "internalType": "address",
          "name": "operator",
          "type": "address"
        },
        {
          "indexed": false,
          "internalType": "bool",
          "name": "approved",
          "type": "bool"
        }
      ],
      "name": "ApprovalForAll",
      "type": "event"
    },
    {
      "anonymous": false,
      "inputs": [
        {
          "indexed": false,
          "internalType": "uint32",
          "name": "assetId",
          "type": "uint32"
        }
      ],
      "name": "LogDonated",
      "type": "event"
    },
    {
      "anonymous": false,
      "inputs": [
        {
          "indexed": false,
          "internalType": "uint32",
          "name": "assetId",
          "type": "uint32"
        }
      ],
      "name": "LogFree",
      "type": "event"
    },
    {
      "anonymous": false,
      "inputs": [
        {
          "indexed": false,
          "internalType": "address",
          "name": "account",
          "type": "address"
        }
      ],
      "name": "Paused",
      "type": "event"
    },
    {
      "anonymous": false,
      "inputs": [
        {
          "indexed": true,
          "internalType": "bytes32",
          "name": "role",
          "type": "bytes32"
        },
        {
          "indexed": true,
          "internalType": "bytes32",
          "name": "previousAdminRole",
          "type": "bytes32"
        },
        {
          "indexed": true,
          "internalType": "bytes32",
          "name": "newAdminRole",
          "type": "bytes32"
        }
      ],
      "name": "RoleAdminChanged",
      "type": "event"
    },
    {
      "anonymous": false,
      "inputs": [
        {
          "indexed": true,
          "internalType": "bytes32",
          "name": "role",
          "type": "bytes32"
        },
        {
          "indexed": true,
          "internalType": "address",
          "name": "account",
          "type": "address"
        },
        {
          "indexed": true,
          "internalType": "address",
          "name": "sender",
          "type": "address"
        }
      ],
      "name": "RoleGranted",
      "type": "event"
    },
    {
      "anonymous": false,
      "inputs": [
        {
          "indexed": true,
          "internalType": "bytes32",
          "name": "role",
          "type": "bytes32"
        },
        {
          "indexed": true,
          "internalType": "address",
          "name": "account",
          "type": "address"
        },
        {
          "indexed": true,
          "internalType": "address",
          "name": "sender",
          "type": "address"
        }
      ],
      "name": "RoleRevoked",
      "type": "event"
    },
    {
      "anonymous": false,
      "inputs": [
        {
          "indexed": true,
          "internalType": "address",
          "name": "from",
          "type": "address"
        },
        {
          "indexed": true,
          "internalType": "address",
          "name": "to",
          "type": "address"
        },
        {
          "indexed": true,
          "internalType": "uint256",
          "name": "tokenId",
          "type": "uint256"
        }
      ],
      "name": "Transfer",
      "type": "event"
    },
    {
      "anonymous": false,
      "inputs": [
        {
          "indexed": false,
          "internalType": "address",
          "name": "account",
          "type": "address"
        }
      ],
      "name": "Unpaused",
      "type": "event"
    },
    {
      "inputs": [],
      "name": "DEFAULT_ADMIN_ROLE",
      "outputs": [
        {
          "internalType": "bytes32",
          "name": "",
          "type": "bytes32"
        }
      ],
      "stateMutability": "view",
      "type": "function",
      "constant": true
    },
    {
      "inputs": [],
      "name": "DONOR",
      "outputs": [
        {
          "internalType": "bytes32",
          "name": "",
          "type": "bytes32"
        }
      ],
      "stateMutability": "view",
      "type": "function",
      "constant": true
    },
    {
      "inputs": [],
      "name": "RECEIVER",
      "outputs": [
        {
          "internalType": "bytes32",
          "name": "",
          "type": "bytes32"
        }
      ],
      "stateMutability": "view",
      "type": "function",
      "constant": true
    },
    {
      "inputs": [],
      "name": "addDonor",
      "outputs": [],
      "stateMutability": "nonpayable",
      "type": "function"
    },
    {
      "inputs": [],
      "name": "addReceiver",
      "outputs": [],
      "stateMutability": "nonpayable",
      "type": "function"
    },
    {
      "inputs": [
        {
          "internalType": "address",
          "name": "to",
          "type": "address"
        },
        {
          "internalType": "uint256",
          "name": "tokenId",
          "type": "uint256"
        }
      ],
      "name": "approve",
      "outputs": [],
      "stateMutability": "nonpayable",
      "type": "function"
    },
    {
      "inputs": [
        {
          "internalType": "address",
          "name": "donorAddress",
          "type": "address"
        }
      ],
      "name": "approveDonor",
      "outputs": [],
      "stateMutability": "nonpayable",
      "type": "function"
    },
    {
      "inputs": [
        {
          "internalType": "address",
          "name": "receiverAddress",
          "type": "address"
        }
      ],
      "name": "approveReceiver",
      "outputs": [],
      "stateMutability": "nonpayable",
      "type": "function"
    },
    {
      "inputs": [
        {
          "internalType": "address",
          "name": "owner",
          "type": "address"
        }
      ],
      "name": "balanceOf",
      "outputs": [
        {
          "internalType": "uint256",
          "name": "",
          "type": "uint256"
        }
      ],
      "stateMutability": "view",
      "type": "function",
      "constant": true
    },
    {
      "inputs": [],
      "name": "baseURI",
      "outputs": [
        {
          "internalType": "string",
          "name": "",
          "type": "string"
        }
      ],
      "stateMutability": "view",
      "type": "function",
      "constant": true
    },
    {
      "inputs": [
        {
          "internalType": "uint32",
          "name": "",
          "type": "uint32"
        }
      ],
      "name": "donationList",
      "outputs": [
        {
          "internalType": "uint32",
          "name": "assetId",
          "type": "uint32"
        },
        {
          "internalType": "string",
          "name": "assetTitle",
          "type": "string"
        },
        {
          "internalType": "string",
          "name": "assetDescription",
          "type": "string"
        },
        {
          "internalType": "uint32",
          "name": "availablityDate",
          "type": "uint32"
        },
        {
          "internalType": "string",
          "name": "location",
          "type": "string"
        },
        {
          "internalType": "enum DonateAsset.Status",
          "name": "status",
          "type": "uint8"
        },
        {
          "internalType": "address",
          "name": "owner",
          "type": "address"
        },
        {
          "internalType": "address",
          "name": "recipient",
          "type": "address"
        },
        {
          "internalType": "uint32",
          "name": "donatedDateFrom",
          "type": "uint32"
        },
        {
          "internalType": "uint32",
          "name": "donatedDateTo",
          "type": "uint32"
        },
        {
          "internalType": "uint32",
          "name": "requestCount",
          "type": "uint32"
        },
        {
          "internalType": "string",
          "name": "imageIPFSHash",
          "type": "string"
        }
      ],
      "stateMutability": "view",
      "type": "function",
      "constant": true
    },
    {
      "inputs": [
        {
          "internalType": "address",
          "name": "",
          "type": "address"
        }
      ],
      "name": "donors",
      "outputs": [
        {
          "internalType": "bool",
          "name": "exists",
          "type": "bool"
        },
        {
          "internalType": "bool",
          "name": "approved",
          "type": "bool"
        },
        {
          "internalType": "uint32",
          "name": "donationCount",
          "type": "uint32"
        }
      ],
      "stateMutability": "view",
      "type": "function",
      "constant": true
    },
    {
      "inputs": [
        {
          "internalType": "uint256",
          "name": "tokenId",
          "type": "uint256"
        }
      ],
      "name": "getApproved",
      "outputs": [
        {
          "internalType": "address",
          "name": "",
          "type": "address"
        }
      ],
      "stateMutability": "view",
      "type": "function",
      "constant": true
    },
    {
      "inputs": [],
      "name": "getDonor",
      "outputs": [
        {
          "components": [
            {
              "internalType": "bool",
              "name": "exists",
              "type": "bool"
            },
            {
              "internalType": "bool",
              "name": "approved",
              "type": "bool"
            },
            {
              "internalType": "uint32",
              "name": "donationCount",
              "type": "uint32"
            }
          ],
          "internalType": "struct Administration.donor",
          "name": "",
          "type": "tuple"
        }
      ],
      "stateMutability": "view",
      "type": "function",
      "constant": true
    },
    {
      "inputs": [
        {
          "internalType": "bytes32",
          "name": "role",
          "type": "bytes32"
        }
      ],
      "name": "getRoleAdmin",
      "outputs": [
        {
          "internalType": "bytes32",
          "name": "",
          "type": "bytes32"
        }
      ],
      "stateMutability": "view",
      "type": "function",
      "constant": true
    },
    {
      "inputs": [
        {
          "internalType": "bytes32",
          "name": "role",
          "type": "bytes32"
        },
        {
          "internalType": "uint256",
          "name": "index",
          "type": "uint256"
        }
      ],
      "name": "getRoleMember",
      "outputs": [
        {
          "internalType": "address",
          "name": "",
          "type": "address"
        }
      ],
      "stateMutability": "view",
      "type": "function",
      "constant": true
    },
    {
      "inputs": [
        {
          "internalType": "bytes32",
          "name": "role",
          "type": "bytes32"
        }
      ],
      "name": "getRoleMemberCount",
      "outputs": [
        {
          "internalType": "uint256",
          "name": "",
          "type": "uint256"
        }
      ],
      "stateMutability": "view",
      "type": "function",
      "constant": true
    },
    {
      "inputs": [
        {
          "internalType": "bytes32",
          "name": "role",
          "type": "bytes32"
        },
        {
          "internalType": "address",
          "name": "account",
          "type": "address"
        }
      ],
      "name": "grantRole",
      "outputs": [],
      "stateMutability": "nonpayable",
      "type": "function"
    },
    {
      "inputs": [
        {
          "internalType": "bytes32",
          "name": "role",
          "type": "bytes32"
        },
        {
          "internalType": "address",
          "name": "account",
          "type": "address"
        }
      ],
      "name": "hasRole",
      "outputs": [
        {
          "internalType": "bool",
          "name": "",
          "type": "bool"
        }
      ],
      "stateMutability": "view",
      "type": "function",
      "constant": true
    },
    {
      "inputs": [],
      "name": "isAdminUser",
      "outputs": [
        {
          "internalType": "bool",
          "name": "",
          "type": "bool"
        }
      ],
      "stateMutability": "view",
      "type": "function",
      "constant": true
    },
    {
      "inputs": [
        {
          "internalType": "address",
          "name": "owner",
          "type": "address"
        },
        {
          "internalType": "address",
          "name": "operator",
          "type": "address"
        }
      ],
      "name": "isApprovedForAll",
      "outputs": [
        {
          "internalType": "bool",
          "name": "",
          "type": "bool"
        }
      ],
      "stateMutability": "view",
      "type": "function",
      "constant": true
    },
    {
      "inputs": [],
      "name": "name",
      "outputs": [
        {
          "internalType": "string",
          "name": "",
          "type": "string"
        }
      ],
      "stateMutability": "view",
      "type": "function",
      "constant": true
    },
    {
      "inputs": [
        {
          "internalType": "uint256",
          "name": "tokenId",
          "type": "uint256"
        }
      ],
      "name": "ownerOf",
      "outputs": [
        {
          "internalType": "address",
          "name": "",
          "type": "address"
        }
      ],
      "stateMutability": "view",
      "type": "function",
      "constant": true
    },
    {
      "inputs": [],
      "name": "pause",
      "outputs": [],
      "stateMutability": "nonpayable",
      "type": "function"
    },
    {
      "inputs": [],
      "name": "paused",
      "outputs": [
        {
          "internalType": "bool",
          "name": "",
          "type": "bool"
        }
      ],
      "stateMutability": "view",
      "type": "function",
      "constant": true
    },
    {
      "inputs": [
        {
          "internalType": "address",
          "name": "",
          "type": "address"
        }
      ],
      "name": "receivers",
      "outputs": [
        {
          "internalType": "bool",
          "name": "",
          "type": "bool"
        }
      ],
      "stateMutability": "view",
      "type": "function",
      "constant": true
    },
    {
      "inputs": [
        {
          "internalType": "bytes32",
          "name": "role",
          "type": "bytes32"
        },
        {
          "internalType": "address",
          "name": "account",
          "type": "address"
        }
      ],
      "name": "renounceRole",
      "outputs": [],
      "stateMutability": "nonpayable",
      "type": "function"
    },
    {
      "inputs": [
        {
          "internalType": "bytes32",
          "name": "role",
          "type": "bytes32"
        },
        {
          "internalType": "address",
          "name": "account",
          "type": "address"
        }
      ],
      "name": "revokeRole",
      "outputs": [],
      "stateMutability": "nonpayable",
      "type": "function"
    },
    {
      "inputs": [
        {
          "internalType": "address",
          "name": "from",
          "type": "address"
        },
        {
          "internalType": "address",
          "name": "to",
          "type": "address"
        },
        {
          "internalType": "uint256",
          "name": "tokenId",
          "type": "uint256"
        }
      ],
      "name": "safeTransferFrom",
      "outputs": [],
      "stateMutability": "nonpayable",
      "type": "function"
    },
    {
      "inputs": [
        {
          "internalType": "address",
          "name": "from",
          "type": "address"
        },
        {
          "internalType": "address",
          "name": "to",
          "type": "address"
        },
        {
          "internalType": "uint256",
          "name": "tokenId",
          "type": "uint256"
        },
        {
          "internalType": "bytes",
          "name": "_data",
          "type": "bytes"
        }
      ],
      "name": "safeTransferFrom",
      "outputs": [],
      "stateMutability": "nonpayable",
      "type": "function"
    },
    {
      "inputs": [
        {
          "internalType": "address",
          "name": "operator",
          "type": "address"
        },
        {
          "internalType": "bool",
          "name": "approved",
          "type": "bool"
        }
      ],
      "name": "setApprovalForAll",
      "outputs": [],
      "stateMutability": "nonpayable",
      "type": "function"
    },
    {
      "inputs": [
        {
          "internalType": "bytes4",
          "name": "interfaceId",
          "type": "bytes4"
        }
      ],
      "name": "supportsInterface",
      "outputs": [
        {
          "internalType": "bool",
          "name": "",
          "type": "bool"
        }
      ],
      "stateMutability": "view",
      "type": "function",
      "constant": true
    },
    {
      "inputs": [],
      "name": "symbol",
      "outputs": [
        {
          "internalType": "string",
          "name": "",
          "type": "string"
        }
      ],
      "stateMutability": "view",
      "type": "function",
      "constant": true
    },
    {
      "inputs": [
        {
          "internalType": "uint256",
          "name": "index",
          "type": "uint256"
        }
      ],
      "name": "tokenByIndex",
      "outputs": [
        {
          "internalType": "uint256",
          "name": "",
          "type": "uint256"
        }
      ],
      "stateMutability": "view",
      "type": "function",
      "constant": true
    },
    {
      "inputs": [
        {
          "internalType": "address",
          "name": "owner",
          "type": "address"
        },
        {
          "internalType": "uint256",
          "name": "index",
          "type": "uint256"
        }
      ],
      "name": "tokenOfOwnerByIndex",
      "outputs": [
        {
          "internalType": "uint256",
          "name": "",
          "type": "uint256"
        }
      ],
      "stateMutability": "view",
      "type": "function",
      "constant": true
    },
    {
      "inputs": [
        {
          "internalType": "uint256",
          "name": "tokenId",
          "type": "uint256"
        }
      ],
      "name": "tokenURI",
      "outputs": [
        {
          "internalType": "string",
          "name": "",
          "type": "string"
        }
      ],
      "stateMutability": "view",
      "type": "function",
      "constant": true
    },
    {
      "inputs": [],
      "name": "totalSupply",
      "outputs": [
        {
          "internalType": "uint256",
          "name": "",
          "type": "uint256"
        }
      ],
      "stateMutability": "view",
      "type": "function",
      "constant": true
    },
    {
      "inputs": [
        {
          "internalType": "address",
          "name": "from",
          "type": "address"
        },
        {
          "internalType": "address",
          "name": "to",
          "type": "address"
        },
        {
          "internalType": "uint256",
          "name": "tokenId",
          "type": "uint256"
        }
      ],
      "name": "transferFrom",
      "outputs": [],
      "stateMutability": "nonpayable",
      "type": "function"
    },
    {
      "inputs": [],
      "name": "unpause",
      "outputs": [],
      "stateMutability": "nonpayable",
      "type": "function"
    },
    {
      "inputs": [
        {
          "components": [
            {
              "internalType": "uint32",
              "name": "assetId",
              "type": "uint32"
            },
            {
              "internalType": "string",
              "name": "assetTitle",
              "type": "string"
            },
            {
              "internalType": "string",
              "name": "assetDescription",
              "type": "string"
            },
            {
              "internalType": "uint32",
              "name": "availablityDate",
              "type": "uint32"
            },
            {
              "internalType": "string",
              "name": "location",
              "type": "string"
            },
            {
              "internalType": "enum DonateAsset.Status",
              "name": "status",
              "type": "uint8"
            },
            {
              "internalType": "address",
              "name": "owner",
              "type": "address"
            },
            {
              "internalType": "address",
              "name": "recipient",
              "type": "address"
            },
            {
              "internalType": "uint32",
              "name": "donatedDateFrom",
              "type": "uint32"
            },
            {
              "internalType": "uint32",
              "name": "donatedDateTo",
              "type": "uint32"
            },
            {
              "internalType": "uint32",
              "name": "requestCount",
              "type": "uint32"
            },
            {
              "internalType": "string",
              "name": "imageIPFSHash",
              "type": "string"
            }
          ],
          "internalType": "struct DonateAsset.Asset",
          "name": "asset",
          "type": "tuple"
        }
      ],
      "name": "UpdateAsset",
      "outputs": [],
      "stateMutability": "nonpayable",
      "type": "function"
    },
    {
      "inputs": [
        {
          "internalType": "string",
          "name": "assetTitle",
          "type": "string"
        },
        {
          "internalType": "string",
          "name": "assetDescription",
          "type": "string"
        },
        {
          "internalType": "uint32",
          "name": "availablityDate",
          "type": "uint32"
        },
        {
          "internalType": "string",
          "name": "location",
          "type": "string"
        },
        {
          "internalType": "string",
          "name": "imageIPFSHash",
          "type": "string"
        }
      ],
      "name": "addAsset",
      "outputs": [],
      "stateMutability": "nonpayable",
      "type": "function"
    },
    {
      "inputs": [
        {
          "internalType": "uint32",
          "name": "pageNo",
          "type": "uint32"
        }
      ],
      "name": "getDonationsByOwner",
      "outputs": [
        {
          "components": [
            {
              "internalType": "uint32",
              "name": "assetId",
              "type": "uint32"
            },
            {
              "internalType": "string",
              "name": "assetTitle",
              "type": "string"
            },
            {
              "internalType": "string",
              "name": "assetDescription",
              "type": "string"
            },
            {
              "internalType": "uint32",
              "name": "availablityDate",
              "type": "uint32"
            },
            {
              "internalType": "string",
              "name": "location",
              "type": "string"
            },
            {
              "internalType": "enum DonateAsset.Status",
              "name": "status",
              "type": "uint8"
            },
            {
              "internalType": "address",
              "name": "owner",
              "type": "address"
            },
            {
              "internalType": "address",
              "name": "recipient",
              "type": "address"
            },
            {
              "internalType": "uint32",
              "name": "donatedDateFrom",
              "type": "uint32"
            },
            {
              "internalType": "uint32",
              "name": "donatedDateTo",
              "type": "uint32"
            },
            {
              "internalType": "uint32",
              "name": "requestCount",
              "type": "uint32"
            },
            {
              "internalType": "string",
              "name": "imageIPFSHash",
              "type": "string"
            }
          ],
          "internalType": "struct DonateAsset.Asset[8]",
          "name": "",
          "type": "tuple[8]"
        }
      ],
      "stateMutability": "view",
      "type": "function",
      "constant": true
    },
    {
      "inputs": [],
      "name": "getAllDonations",
      "outputs": [
        {
          "components": [
            {
              "internalType": "uint32",
              "name": "assetId",
              "type": "uint32"
            },
            {
              "internalType": "string",
              "name": "assetTitle",
              "type": "string"
            },
            {
              "internalType": "string",
              "name": "assetDescription",
              "type": "string"
            },
            {
              "internalType": "uint32",
              "name": "availablityDate",
              "type": "uint32"
            },
            {
              "internalType": "string",
              "name": "location",
              "type": "string"
            },
            {
              "internalType": "enum DonateAsset.Status",
              "name": "status",
              "type": "uint8"
            },
            {
              "internalType": "address",
              "name": "owner",
              "type": "address"
            },
            {
              "internalType": "address",
              "name": "recipient",
              "type": "address"
            },
            {
              "internalType": "uint32",
              "name": "donatedDateFrom",
              "type": "uint32"
            },
            {
              "internalType": "uint32",
              "name": "donatedDateTo",
              "type": "uint32"
            },
            {
              "internalType": "uint32",
              "name": "requestCount",
              "type": "uint32"
            },
            {
              "internalType": "string",
              "name": "imageIPFSHash",
              "type": "string"
            }
          ],
          "internalType": "struct DonateAsset.Asset[16]",
          "name": "",
          "type": "tuple[16]"
        }
      ],
      "stateMutability": "view",
      "type": "function",
      "constant": true
    },
    {
      "inputs": [
        {
          "internalType": "address",
          "name": "assetOwner",
          "type": "address"
        }
      ],
      "name": "mintToken",
      "outputs": [
        {
          "internalType": "uint32",
          "name": "",
          "type": "uint32"
        }
      ],
      "stateMutability": "nonpayable",
      "type": "function"
    },
    {
      "inputs": [
        {
          "internalType": "uint32",
          "name": "assetId",
          "type": "uint32"
        },
        {
          "internalType": "address",
          "name": "recipientAddress",
          "type": "address"
        }
      ],
      "name": "donateAsset",
      "outputs": [],
      "stateMutability": "nonpayable",
      "type": "function"
    },
    {
      "inputs": [
        {
          "internalType": "uint32",
          "name": "assetId",
          "type": "uint32"
        }
      ],
      "name": "getAssetRequestCount",
      "outputs": [
        {
          "internalType": "uint32",
          "name": "",
          "type": "uint32"
        }
      ],
      "stateMutability": "view",
      "type": "function",
      "constant": true
    },
    {
      "inputs": [
        {
          "internalType": "uint32",
          "name": "assetId",
          "type": "uint32"
        }
      ],
      "name": "getDonation",
      "outputs": [
        {
          "components": [
            {
              "internalType": "uint32",
              "name": "assetId",
              "type": "uint32"
            },
            {
              "internalType": "string",
              "name": "assetTitle",
              "type": "string"
            },
            {
              "internalType": "string",
              "name": "assetDescription",
              "type": "string"
            },
            {
              "internalType": "uint32",
              "name": "availablityDate",
              "type": "uint32"
            },
            {
              "internalType": "string",
              "name": "location",
              "type": "string"
            },
            {
              "internalType": "enum DonateAsset.Status",
              "name": "status",
              "type": "uint8"
            },
            {
              "internalType": "address",
              "name": "owner",
              "type": "address"
            },
            {
              "internalType": "address",
              "name": "recipient",
              "type": "address"
            },
            {
              "internalType": "uint32",
              "name": "donatedDateFrom",
              "type": "uint32"
            },
            {
              "internalType": "uint32",
              "name": "donatedDateTo",
              "type": "uint32"
            },
            {
              "internalType": "uint32",
              "name": "requestCount",
              "type": "uint32"
            },
            {
              "internalType": "string",
              "name": "imageIPFSHash",
              "type": "string"
            }
          ],
          "internalType": "struct DonateAsset.Asset",
          "name": "",
          "type": "tuple"
        }
      ],
      "stateMutability": "view",
      "type": "function",
      "constant": true
    }
  ],
  "bytecode": "0x60806040523480156200001157600080fd5b50604080518082018252600781526626bcaa37b5b2b760c91b602080830191909152825180840190935260038352624d545360e81b9083015290620000666301ffc9a760e01b6001600160e01b036200011816565b81516200007b906006906020850190620002ae565b50805162000091906007906020840190620002ae565b50620000ad6380ac58cd60e01b6001600160e01b036200011816565b620000c8635b5e139f60e01b6001600160e01b036200011816565b620000e363780e9d6360e01b6001600160e01b036200011816565b5050600b805460ff19169055620001056000336001600160e01b036200017316565b600e805463ffffffff1916905562000387565b6001600160e01b031980821614156200014e5760405162461bcd60e51b8152600401620001459062000350565b60405180910390fd5b6001600160e01b0319166000908152602081905260409020805460ff19166001179055565b6200018882826001600160e01b036200018c16565b5050565b6000828152600a60209081526040909120620001b39183906200285a62000210821b17901c565b156200018857620001cc6001600160e01b036200023916565b6001600160a01b0316816001600160a01b0316837f2f8788117e7eff1d82e926ec794901d17c78024a50270940304540a733656f0d60405160405180910390a45050565b600062000230836001600160a01b0384166001600160e01b036200023e16565b90505b92915050565b335b90565b60006200025583836001600160e01b036200029616565b6200028d5750815460018181018455600084815260208082209093018490558454848252828601909352604090209190915562000233565b50600062000233565b60009081526001919091016020526040902054151590565b828054600181600116156101000203166002900490600052602060002090601f016020900481019282601f10620002f157805160ff191683800117855562000321565b8280016001018555821562000321579182015b828111156200032157825182559160200191906001019062000304565b506200032f92915062000333565b5090565b6200023b91905b808211156200032f57600081556001016200033a565b6020808252601c908201527f4552433136353a20696e76616c696420696e7465726661636520696400000000604082015260600190565b61401680620003976000396000f3fe608060405234801561001057600080fd5b50600436106102255760003560e01c806301173a741461022a57806301ffc9a71461025357806306fdde0314610273578063081812fc14610288578063095ea7b3146102a85780630cb8150f146102bd5780630feea26e146102d057806315f80762146102f057806318160ddd146102f857806321f54c211461030d57806323b872dd14610320578063248a9ca3146103335780632a781270146103465780632f2ff15d146103595780632f745c591461036c57806336568abe1461037f57806338a59a07146103925780633f4ba83a146103a757806342842e0e146103af5780634576d251146103c257806349d17fe9146103ca5780634bb0eaaf146103dd5780634f6ccce7146104085780635c975abb1461041b5780636352211e146104235780636c0360eb146104365780636de505781461043e57806370a0823114610451578063718841361461046457806372dbb89f1461048457806379e085a2146104975780638456cb591461049f5780638ad54512146104a75780639010d07c146104af57806391d14854146104c257806395d89b41146104d5578063a217fddf146104dd578063a22cb465146104e5578063ad7430cc146104f8578063b88d4fde14610500578063c87b56dd14610513578063ca0cdea814610526578063ca15c87314610548578063cac78d851461055b578063d547741f1461056e578063e0218fb314610581578063e985e9c514610596575b600080fd5b61023d610238366004612fea565b6105a9565b60405161024a9190613dd9565b60405180910390f35b6102666102613660046131a2565b610609565b60405161024a9190613744565b61027b610628565b60405161024a9190613776565b61029b610296366004613145565b6106bf565b60405161024a919061366d565b6102bb6102b636600461311b565b610702565b005b6102666102cb366004612fea565b61079a565b6102e36102de36600461340b565b6107af565b60405161024a9190613702565b610266610b80565b610300610b9b565b60405161024a919061376d565b61023d61031b36600461340b565b610bac565b6102bb61032e366004613039565b610bd1565b610300610341366004613145565b610c09565b6102bb610354366004612fea565b610c1e565b6102bb61036736600461315d565b610c61565b61030061037a36600461311b565b610ca9565b6102bb61038d36600461315d565b610cda565b61039a610d1c565b60405161024a91906136b4565b6102bb6110b2565b6102bb6103bd366004613039565b6110d0565b6103006110eb565b6102bb6103d8366004613427565b611102565b6103f06103eb36600461340b565b61129d565b60405161024a9c9b9a99989796959493929190613dea565b610300610416366004613145565b611555565b610266611571565b61029b610431366004613145565b61157a565b61027b6115a8565b6102bb61044c366004613296565b611609565b61030061045f366004612fea565b6116bc565b61047761047236600461340b565b611705565b60405161024a9190613d9b565b6102bb610492366004612fea565b611a25565b6102bb611a58565b6102bb611b38565b6102bb611b54565b61029b6104bd366004613181565b611b84565b6102666104d036600461315d565b611ba2565b61027b611bc0565b610300611c21565b6102bb6104f33660046130e0565b611c26565b610300611cf4565b6102bb61050e366004613079565b611d00565b61027b610521366004613145565b611d3f565b610539610534366004612fea565b611e89565b60405161024a9392919061374f565b610300610556366004613145565b611eb6565b6102bb6105693660046131da565b611ecd565b6102bb61057c36600461315d565b612134565b61058961216e565b60405161024a9190613dae565b6102666105a4366004613005565b6121c3565b600b5460009060ff16156105d85760405162461bcd60e51b81526004016105cf90613a1b565b60405180910390fd5b600e546105ec90839063ffffffff166121f1565b600e5463ffffffff1661060081600161220b565b5090505b919050565b6001600160e01b03191660009081526020819052604090205460ff1690565b60068054604080516020601f60026000196101006001881615020190951694909404938401819004810282018101909252828152606093909290918301828280156106b45780601f10610689576101008083540402835291602001916106b4565b820191906000526020600020905b81548152906001019060200180831161069757829003601f168201915b505050505090505b90565b60006106ca82612230565b6106e65760405162461bcd60e51b81526004016105cf90613b9f565b506000908152600460205260409020546001600160a01b031690565b600061070d8261157a565b9050806001600160a01b0316836001600160a01b031614156107415760405162461bcd60e51b81526004016105cf90613c83565b806001600160a01b0316610753612243565b6001600160a01b0316148061076f575061076f816105a4612243565b61078b5760405162461bcd60e51b81526004016105cf90613a45565b6107958383612247565b505050565b600d6020526000908152604090205460ff1681565b6107b7612dba565b60006107c2336116bc565b63ffffffff16905060006107dd8463ffffffff1660086122b5565b905060006107eb83836122ef565b90506000806107f8612dba565b60088410156108095783925061080e565b600892505b600061081a868561220b565b9050855b81811015610b70576108303382610ca9565b63ffffffff8181166000908152600f602090815260409182902082516101808101845281549094168452600180820180548551600261010094831615949094026000190190911692909204601f8101859004850283018501909552848252959950939490938583019390928301828280156108ec5780601f106108c1576101008083540402835291602001916108ec565b820191906000526020600020905b8154815290600101906020018083116108cf57829003601f168201915b5050509183525050600282810180546040805160206001841615610100026000190190931694909404601f8101839004830285018301909152808452938101939083018282801561097e5780601f106109535761010080835404028352916020019161097e565b820191906000526020600020905b81548152906001019060200180831161096157829003601f168201915b5050509183525050600382015463ffffffff1660208083019190915260048301805460408051601f60026000196001861615610100020190941693909304928301859004850281018501825282815294019392830182828015610a225780601f106109f757610100808354040283529160200191610a22565b820191906000526020600020905b815481529060010190602001808311610a0557829003601f168201915b5050509183525050600582015460209091019060ff166004811115610a4357fe5b6004811115610a4e57fe5b81526005820154610100908190046001600160a01b039081166020808501919091526006850154918216604080860191909152600160a01b830463ffffffff9081166060870152600160c01b840481166080870152600160e01b90930490921660a08501526007850180548351600260018316159096026000190190911694909404601f810183900483028501830190935282845260c0909401939190830182828015610b3c5780601f10610b1157610100808354040283529160200191610b3c565b820191906000526020600020905b815481529060010190602001808311610b1f57829003601f168201915b50505050508152505083610b50838a6122ef565b60088110610b5a57fe5b6020020152610b6a81600161220b565b5061081e565b5081975050505050505050610604565b6000610b8c8133611ba2565b610b9557600080fd5b50600190565b6000610ba76002612331565b905090565b63ffffffff9081166000908152600f6020526040902060060154600160e01b90041690565b610be2610bdc612243565b8261233c565b610bfe5760405162461bcd60e51b81526004016105cf90613cc4565b6107958383836123c1565b6000908152600a602052604090206002015490565b610c3b604051610c2d90613648565b604051809103902082610c61565b6001600160a01b03166000908152600c60205260409020805461ff001916610100179055565b6000828152600a6020526040902060020154610c7f906104d0612243565b610c9b5760405162461bcd60e51b81526004016105cf906137cb565b610ca582826124cf565b5050565b6001600160a01b0382166000908152600160205260408120610cd1908363ffffffff61253e16565b90505b92915050565b610ce2612243565b6001600160a01b0316816001600160a01b031614610d125760405162461bcd60e51b81526004016105cf90613d4c565b610ca5828261254a565b610d24612de8565b6000610d2e612de8565b600e54601063ffffffff90911611610d5057600e5463ffffffff169150610d55565b601091505b60005b8263ffffffff168163ffffffff1610156110ab5763ffffffff8181166000908152600f602090815260409182902082516101808101845281549094168452600180820180548551600261010094831615949094026000190190911692909204601f8101859004850283018501909552848252919385840193919291830182828015610e245780601f10610df957610100808354040283529160200191610e24565b820191906000526020600020905b815481529060010190602001808311610e0757829003601f168201915b5050509183525050600282810180546040805160206001841615610100026000190190931694909404601f81018390048302850183019091528084529381019390830182828015610eb65780601f10610e8b57610100808354040283529160200191610eb6565b820191906000526020600020905b815481529060010190602001808311610e9957829003601f168201915b5050509183525050600382015463ffffffff1660208083019190915260048301805460408051601f60026000196001861615610100020190941693909304928301859004850281018501825282815294019392830182828015610f5a5780601f10610f2f57610100808354040283529160200191610f5a565b820191906000526020600020905b815481529060010190602001808311610f3d57829003601f168201915b5050509183525050600582015460209091019060ff166004811115610f7b57fe5b6004811115610f8657fe5b81526005820154610100908190046001600160a01b039081166020808501919091526006850154918216604080860191909152600160a01b830463ffffffff9081166060870152600160c01b840481166080870152600160e01b90930490921660a08501526007850180548351600260018316159096026000190190911694909404601f810183900483028501830190935282845260c09094019391908301828280156110745780601f1061104957610100808354040283529160200191611074565b820191906000526020600020905b81548152906001019060200180831161105757829003601f168201915b505050505081525050828263ffffffff166010811061108f57fe5b60200201526110a563ffffffff8216600161220b565b50610d58565b5091505090565b6110bd600033611ba2565b6110c657600080fd5b6110ce6125b9565b565b61079583838360405180602001604052806000815250611d00565b6040516110f790613648565b604051809103902081565b63ffffffff82166000908152600f6020526040902060050154829061010090046001600160a01b03166111475760405162461bcd60e51b81526004016105cf90613836565b63ffffffff83166000908152600f602052604090206006015483906001600160a01b03161580156111cc575063ffffffff81166000908152600f602052604081206005015460ff16600481111561119a57fe5b14806111cc5750600163ffffffff82166000908152600f602052604090206005015460ff1660048111156111ca57fe5b145b6111d557600080fd5b63ffffffff8416336111e68261157a565b6001600160a01b0316146111f957600080fd5b600b5460ff161561121c5760405162461bcd60e51b81526004016105cf90613a1b565b63ffffffff85166000908152600f6020526040908190206006810180546001600160a01b0388166001600160a01b0319909116179055600501805460ff19166002179055517f9869ee1482368b4ea48cb13a191ba8022b944e7785dbe1804c4e4c11ed347dd19061128e908790613dd9565b60405180910390a15050505050565b600f602090815260009182526040918290208054600180830180548651600261010094831615949094026000190190911692909204601f810186900486028301860190965285825263ffffffff9092169492939092908301828280156113445780601f1061131957610100808354040283529160200191611344565b820191906000526020600020905b81548152906001019060200180831161132757829003601f168201915b50505060028085018054604080516020601f60001961010060018716150201909416959095049283018590048502810185019091528181529596959450909250908301828280156113d65780601f106113ab576101008083540402835291602001916113d6565b820191906000526020600020905b8154815290600101906020018083116113b957829003601f168201915b50505050600383015460048401805460408051602060026101006001861615026000190190941693909304601f8101849004840282018401909252818152959663ffffffff90941695939450908301828280156114745780601f1061144957610100808354040283529160200191611474565b820191906000526020600020905b81548152906001019060200180831161145757829003601f168201915b50505050600583015460068401546007850180546040805160206002610100600186161581026000190190951604601f8101829004820283018201909352828252979860ff871698939096046001600160a01b039081169750851695600160a01b860463ffffffff90811696600160c01b8104821696600160e01b909104909116949193909183018282801561154b5780601f106115205761010080835404028352916020019161154b565b820191906000526020600020905b81548152906001019060200180831161152e57829003601f168201915b505050505090508c565b60008061156960028463ffffffff61262516565b509392505050565b600b5460ff1690565b6000610cd482604051806060016040528060298152602001613f78602991396002919063ffffffff61264116565b60098054604080516020601f60026000196101006001881615020190951694909404938401819004810282018101909252828152606093909290918301828280156106b45780601f10610689576101008083540402835291602001916106b4565b805163ffffffff166000908152600f602052604090206005015460ff16600481111561163157fe5b8160a00151600481111561164157fe5b111561167f5760a0810151815163ffffffff166000908152600f60205260409020600501805460ff1916600183600481111561167957fe5b02179055505b610140810151905163ffffffff9081166000908152600f60205260409020600601805491909216600160e01b026001600160e01b03909116179055565b60006001600160a01b0382166116e45760405162461bcd60e51b81526004016105cf90613a9d565b6001600160a01b0382166000908152600160205260409020610cd490612331565b61170d612e16565b63ffffffff8281166000908152600f602090815260409182902082516101808101845281549094168452600180820180548551600261010094831615949094026000190190911692909204601f81018590048502830185019095528482529193858401939192918301828280156117c55780601f1061179a576101008083540402835291602001916117c5565b820191906000526020600020905b8154815290600101906020018083116117a857829003601f168201915b5050509183525050600282810180546040805160206001841615610100026000190190931694909404601f810183900483028501830190915280845293810193908301828280156118575780601f1061182c57610100808354040283529160200191611857565b820191906000526020600020905b81548152906001019060200180831161183a57829003601f168201915b5050509183525050600382015463ffffffff1660208083019190915260048301805460408051601f600260001960018616156101000201909416939093049283018590048502810185018252828152940193928301828280156118fb5780601f106118d0576101008083540402835291602001916118fb565b820191906000526020600020905b8154815290600101906020018083116118de57829003601f168201915b5050509183525050600582015460209091019060ff16600481111561191c57fe5b600481111561192757fe5b81526005820154610100908190046001600160a01b039081166020808501919091526006850154918216604080860191909152600160a01b830463ffffffff9081166060870152600160c01b840481166080870152600160e01b90930490921660a08501526007850180548351600260018316159096026000190190911694909404601f810183900483028501830190935282845260c0909401939190830182828015611a155780601f106119ea57610100808354040283529160200191611a15565b820191906000526020600020905b8154815290600101906020018083116119f857829003601f168201915b5050505050815250509050919050565b611a34604051610c2d90613659565b6001600160a01b03166000908152600d60205260409020805460ff19166001179055565b336000908152600c602052604090205460ff16611adf5760408051606081018252600180825260006020808401828152848601938452338352600c909152939020915182549351915160ff199094169015151761ff001916610100911515919091021765ffffffff000019166201000063ffffffff909316929092029190911790556110ce565b336000908152600c6020526040902054611b069062010000900463ffffffff16600161220b565b336000908152600c60205260409020805463ffffffff92909216620100000265ffffffff000019909216919091179055565b611b43600033611ba2565b611b4c57600080fd5b6110ce612658565b336000908152600d602052604090205460ff166110ce57336000908152600d60205260409020805460ff19169055565b6000828152600a60205260408120610cd1908363ffffffff61253e16565b6000828152600a60205260408120610cd1908363ffffffff6126b116565b60078054604080516020601f60026000196101006001881615020190951694909404938401819004810282018101909252828152606093909290918301828280156106b45780601f10610689576101008083540402835291602001916106b4565b600081565b611c2e612243565b6001600160a01b0316826001600160a01b03161415611c5f5760405162461bcd60e51b81526004016105cf9061395e565b8060056000611c6c612243565b6001600160a01b03908116825260208083019390935260409182016000908120918716808252919093529120805460ff191692151592909217909155611cb0612243565b6001600160a01b03167f17307eab39ab6107e8899845ad3d59bd9653f200f220920489ca2b5937696c3183604051611ce89190613744565b60405180910390a35050565b6040516110f790613659565b611d11611d0b612243565b8361233c565b611d2d5760405162461bcd60e51b81526004016105cf90613cc4565b611d39848484846126c6565b50505050565b6060611d4a82612230565b611d665760405162461bcd60e51b81526004016105cf90613c34565b60008281526008602090815260409182902080548351601f6002600019610100600186161502019093169290920491820184900484028101840190945280845260609392830182828015611dfb5780601f10611dd057610100808354040283529160200191611dfb565b820191906000526020600020905b815481529060010190602001808311611dde57829003601f168201915b505060095493945050505060026000196101006001841615020190911604611e24579050610604565b805115611e5657600981604051602001611e3f9291906135c7565b604051602081830303815290604052915050610604565b6009611e61846126f9565b604051602001611e729291906135c7565b604051602081830303815290604052915050919050565b600c6020526000908152604090205460ff8082169161010081049091169062010000900463ffffffff1683565b6000818152600a60205260408120610cd490612331565b600b5460ff1615611ef05760405162461bcd60e51b81526004016105cf90613a1b565b611ef8611a58565b6000611f03336105a9565b90506040518061018001604052808263ffffffff1681526020018781526020018681526020018563ffffffff16815260200184815260200160006004811115611f4857fe5b81523360208083019190915260006040808401829052606084018290526080840182905260a0840182905260c090930186905263ffffffff8581168252600f83529290208351815463ffffffff19169316929092178255828101518051611fb59260018501920190612e90565b5060408201518051611fd1916002840191602090910190612e90565b50606082015160038201805463ffffffff191663ffffffff9092169190911790556080820151805161200d916004840191602090910190612e90565b5060a082015160058201805460ff1916600183600481111561202b57fe5b021790555060c0820151600582018054610100600160a81b0319166101006001600160a01b0393841681029190911790915560e0840151600684018054928601516101208701516101408801516001600160a01b0319909516939095169290921763ffffffff60a01b1916600160a01b63ffffffff938416021763ffffffff60c01b1916600160c01b94831694909402939093176001600160e01b0316600160e01b919092160217905561016082015180516120f1916007840191602090910190612e90565b509050507f02be38ab1ac25d38c43ba8eef640edc80bd26853df4de2f92af4fa493699009c816040516121249190613dd9565b60405180910390a1505050505050565b6000828152600a6020526040902060020154612152906104d0612243565b610d125760405162461bcd60e51b81526004016105cf906139dd565b612176612f0e565b50336000908152600c60209081526040918290208251606081018452905460ff808216151583526101008204161515928201929092526201000090910463ffffffff169181019190915290565b6001600160a01b03918216600090815260056020908152604080832093909416825291909152205460ff1690565b610ca58282604051806020016040528060008152506127bd565b600082820183811015610cd15760405162461bcd60e51b81526004016105cf906138e5565b6000610cd460028363ffffffff6127f016565b3390565b600081815260046020526040902080546001600160a01b0319166001600160a01b038416908117909155819061227c8261157a565b6001600160a01b03167f8c5be1e5ebec7d5bd14f71427d1e84f3dd0314c0f7b2291e5b200ac8c7c3b92560405160405180910390a45050565b6000826122c457506000610cd4565b828202828482816122d157fe5b0414610cd15760405162461bcd60e51b81526004016105cf90613b5e565b6000610cd183836040518060400160405280601e81526020017f536166654d6174683a207375627472616374696f6e206f766572666c6f7700008152506127fc565b6000610cd482612828565b600061234782612230565b6123635760405162461bcd60e51b81526004016105cf90613991565b600061236e8361157a565b9050806001600160a01b0316846001600160a01b031614806123a95750836001600160a01b031661239e846106bf565b6001600160a01b0316145b806123b957506123b981856121c3565b949350505050565b826001600160a01b03166123d48261157a565b6001600160a01b0316146123fa5760405162461bcd60e51b81526004016105cf90613beb565b6001600160a01b0382166124205760405162461bcd60e51b81526004016105cf9061391a565b61242b838383610795565b612436600082612247565b6001600160a01b038316600090815260016020526040902061245e908263ffffffff61282c16565b506001600160a01b0382166000908152600160205260409020612487908263ffffffff61283816565b5061249a6002828463ffffffff61284416565b5080826001600160a01b0316846001600160a01b0316600080516020613fa183398151915260405160405180910390a4505050565b6000828152600a602052604090206124ed908263ffffffff61285a16565b15610ca5576124fa612243565b6001600160a01b0316816001600160a01b0316837f2f8788117e7eff1d82e926ec794901d17c78024a50270940304540a733656f0d60405160405180910390a45050565b6000610cd1838361286f565b6000828152600a60205260409020612568908263ffffffff6128b416565b15610ca557612575612243565b6001600160a01b0316816001600160a01b0316837ff6391f5c32d9c69d2a47ea670b442974b53935d1edc7fd64eb21e047a839171b60405160405180910390a45050565b600b5460ff166125db5760405162461bcd60e51b81526004016105cf90613808565b600b805460ff191690557f5db9ee0a495bf2e6ff9c91a7834c1ba4fdd244a5e8aa4e537bd38aeae4b073aa61260e612243565b60405161261b919061366d565b60405180910390a1565b600080808061263486866128c9565b9097909650945050505050565b600061264e848484612925565b90505b9392505050565b600b5460ff161561267b5760405162461bcd60e51b81526004016105cf90613a1b565b600b805460ff191660011790557f62e78cea01bee320cd4e420270b5ea74000d11b0c9f74754ebdbfc544b05a25861260e612243565b6000610cd1836001600160a01b038416612984565b6126d18484846123c1565b6126dd8484848461299c565b611d395760405162461bcd60e51b81526004016105cf9061385d565b60608161271e57506040805180820190915260018152600360fc1b6020820152610604565b8160005b811561273657600101600a82049150612722565b6060816040519080825280601f01601f191660200182016040528015612763576020820181803883390190505b50859350905060001982015b83156127b457600a840660300160f81b8282806001900393508151811061279257fe5b60200101906001600160f81b031916908160001a905350600a8404935061276f565b50949350505050565b6127c78383612a81565b6127d4600084848461299c565b6107955760405162461bcd60e51b81526004016105cf9061385d565b6000610cd18383612984565b600081848411156128205760405162461bcd60e51b81526004016105cf9190613776565b505050900390565b5490565b6000610cd18383612b3f565b6000610cd18383612c05565b600061264e84846001600160a01b038516612c4f565b6000610cd1836001600160a01b038416612c05565b815460009082106128925760405162461bcd60e51b81526004016105cf90613789565b8260000182815481106128a157fe5b9060005260206000200154905092915050565b6000610cd1836001600160a01b038416612b3f565b8154600090819083106128ee5760405162461bcd60e51b81526004016105cf90613ae7565b60008460000184815481106128ff57fe5b906000526020600020906002020190508060000154816001015492509250509250929050565b600082815260018401602052604081205482816129555760405162461bcd60e51b81526004016105cf9190613776565b5084600001600182038154811061296857fe5b9060005260206000209060020201600101549150509392505050565b60009081526001919091016020526040902054151590565b60006129b0846001600160a01b0316612ce6565b6129bc575060016123b9565b6060612a4a630a85bd0160e11b6129d1612243565b8887876040516024016129e79493929190613681565b604051602081830303815290604052906001600160e01b0319166020820180516001600160e01b038381831617835250505050604051806060016040528060328152602001613f46603291396001600160a01b038816919063ffffffff612cec16565b9050600081806020019051612a6291908101906131be565b6001600160e01b031916630a85bd0160e11b1492505050949350505050565b6001600160a01b038216612aa75760405162461bcd60e51b81526004016105cf90613b29565b612ab081612230565b15612acd5760405162461bcd60e51b81526004016105cf906138af565b612ad960008383610795565b6001600160a01b0382166000908152600160205260409020612b01908263ffffffff61283816565b50612b146002828463ffffffff61284416565b5060405181906001600160a01b03841690600090600080516020613fa1833981519152908290a45050565b60008181526001830160205260408120548015612bfb5783546000198083019190810190600090879083908110612b7257fe5b9060005260206000200154905080876000018481548110612b8f57fe5b600091825260208083209091019290925582815260018981019092526040902090840190558654879080612bbf57fe5b60019003818190600052602060002001600090559055866001016000878152602001908152602001600020600090556001945050505050610cd4565b6000915050610cd4565b6000612c118383612984565b612c4757508154600181810184556000848152602080822090930184905584548482528286019093526040902091909155610cd4565b506000610cd4565b600082815260018401602052604081205480612cb4575050604080518082018252838152602080820184815286546001818101895560008981528481209551600290930290950191825591519082015586548684528188019092529290912055612651565b82856000016001830381548110612cc757fe5b9060005260206000209060020201600101819055506000915050612651565b3b151590565b606061264e84846000856060612d0185612ce6565b612d1d5760405162461bcd60e51b81526004016105cf90613d15565b60006060866001600160a01b03168587604051612d3a91906135ab565b60006040518083038185875af1925050503d8060008114612d77576040519150601f19603f3d011682016040523d82523d6000602084013e612d7c565b606091505b50915091508115612d905791506123b99050565b805115612da05780518082602001fd5b8360405162461bcd60e51b81526004016105cf9190613776565b6040518061010001604052806008905b612dd2612e16565b815260200190600190039081612dca5790505090565b6040518061020001604052806010905b612e00612e16565b815260200190600190039081612df85790505090565b604051806101800160405280600063ffffffff1681526020016060815260200160608152602001600063ffffffff1681526020016060815260200160006004811115612e5e57fe5b81526000602082018190526040820181905260608083018290526080830182905260a083019190915260c09091015290565b828054600181600116156101000203166002900490600052602060002090601f016020900481019282601f10612ed157805160ff1916838001178555612efe565b82800160010185558215612efe579182015b82811115612efe578251825591602001919060010190612ee3565b50612f0a929150612f2e565b5090565b604080516060810182526000808252602082018190529181019190915290565b6106bc91905b80821115612f0a5760008155600101612f34565b80356001600160a01b0381168114610cd457600080fd5b600082601f830112612f6f578081fd5b81356001600160401b03811115612f84578182fd5b612f97601f8201601f1916602001613eb3565b9150808252836020828501011115612fae57600080fd5b8060208401602084013760009082016020015292915050565b803560058110610cd457600080fd5b803563ffffffff81168114610cd457600080fd5b600060208284031215612ffb578081fd5b610cd18383612f48565b60008060408385031215613017578081fd5b6130218484612f48565b91506130308460208501612f48565b90509250929050565b60008060006060848603121561304d578081fd5b833561305881613f05565b9250602084013561306881613f05565b929592945050506040919091013590565b6000806000806080858703121561308e578081fd5b6130988686612f48565b93506130a78660208701612f48565b92506040850135915060608501356001600160401b038111156130c8578182fd5b6130d487828801612f5f565b91505092959194509250565b600080604083850312156130f2578182fd5b6130fc8484612f48565b915060208301358015158114613110578182fd5b809150509250929050565b6000806040838503121561312d578182fd5b6131378484612f48565b946020939093013593505050565b600060208284031215613156578081fd5b5035919050565b6000806040838503121561316f578182fd5b82359150602083013561311081613f05565b60008060408385031215613193578182fd5b50508035926020909101359150565b6000602082840312156131b3578081fd5b8135610cd181613f1d565b6000602082840312156131cf578081fd5b8151610cd181613f1d565b600080600080600060a086880312156131f1578283fd5b85356001600160401b0380821115613207578485fd5b61321389838a01612f5f565b96506020880135915080821115613228578485fd5b61323489838a01612f5f565b95506040880135915061324682613f33565b9093506060870135908082111561325b578283fd5b61326789838a01612f5f565b9350608088013591508082111561327c578283fd5b5061328988828901612f5f565b9150509295509295909350565b6000602082840312156132a7578081fd5b81356001600160401b03808211156132bd578283fd5b6101809184018086038313156132d1578384fd5b6132da83613eb3565b6132e48783612fd6565b815260208201359350828411156132f9578485fd5b61330587858401612f5f565b6020820152604082013593508284111561331d578485fd5b61332987858401612f5f565b604082015261333b8760608401612fd6565b60608201526080820135935082841115613353578485fd5b61335f87858401612f5f565b60808201526133718760a08401612fc7565b60a08201526133838760c08401612f48565b60c08201526133958760e08401612f48565b60e082015261010093506133ab87858401612fd6565b8482015261012093506133c087858401612fd6565b8482015261014093506133d587858401612fd6565b84820152610160935083820135838111156133ee578586fd5b6133fa88828501612f5f565b948201949094529695505050505050565b60006020828403121561341c578081fd5b8135610cd181613f33565b60008060408385031215613439578182fd5b6130218484612fd6565b6001600160a01b03169052565b60008151808452613468816020860160208601613ed9565b601f01601f19169290920160200192915050565b6005811061348657fe5b9052565b600061018061349a8484516135a1565b60208301518160208601526134b182860182613450565b6040850151925085810360408701526134ca8184613450565b915050606084015191506134e160608601836135a1565b6080840151915084810360808601526134fa8183613450565b60a0850151925061350e60a087018461347c565b60c0850151925061352260c0870184613443565b60e0850151925061353660e0870184613443565b610100925082850151915061354d838701836135a1565b6101209250828501519150613564838701836135a1565b610140925082850151915061357b838701836135a1565b6101609250828501519150858103838701526135978183613450565b9695505050505050565b63ffffffff169052565b600082516135bd818460208701613ed9565b9190910192915050565b60008084546001808216600081146135e657600181146135fd5761362c565b60ff198316865260028304607f168601935061362c565b600283048886526020808720875b838110156136245781548a82015290850190820161360b565b505050860193505b505050835161363f818360208801613ed9565b01949350505050565b642227a727a960d91b815260050190565b672922a1a2a4ab22a960c11b815260080190565b6001600160a01b0391909116815260200190565b6001600160a01b038581168252841660208201526040810183905260806060820181905260009061359790830184613450565b6020808252600090610220830183820185845b60108110156136f657601f198785030183526136e484835161348a565b935091840191908401906001016136c7565b50919695505050505050565b6020808252600090610120830183820185845b60088110156136f657601f1987850301835261373284835161348a565b93509184019190840190600101613715565b901515815260200190565b9215158352901515602083015263ffffffff16604082015260600190565b90815260200190565b600060208252610cd16020830184613450565b60208082526022908201527f456e756d657261626c655365743a20696e646578206f7574206f6620626f756e604082015261647360f01b606082015260800190565b6020808252602f90820152600080516020613fc183398151915260408201526e0818591b5a5b881d1bc819dc985b9d608a1b606082015260800190565b60208082526014908201527314185d5cd8589b194e881b9bdd081c185d5cd95960621b604082015260600190565b6020808252600d908201526c125b9d985b1a5908185cdcd95d609a1b604082015260600190565b60208082526032908201527f4552433732313a207472616e7366657220746f206e6f6e20455243373231526560408201527131b2b4bb32b91034b6b83632b6b2b73a32b960711b606082015260800190565b6020808252601c908201527b115490cdcc8c4e881d1bdad95b88185b1c9958591e481b5a5b9d195960221b604082015260600190565b6020808252601b908201527a536166654d6174683a206164646974696f6e206f766572666c6f7760281b604082015260600190565b60208082526024908201527f4552433732313a207472616e7366657220746f20746865207a65726f206164646040820152637265737360e01b606082015260800190565b60208082526019908201527822a9219b99189d1030b8383937bb32903a379031b0b63632b960391b604082015260600190565b6020808252602c908201527f4552433732313a206f70657261746f7220717565727920666f72206e6f6e657860408201526b34b9ba32b73a103a37b5b2b760a11b606082015260800190565b6020808252603090820152600080516020613fc183398151915260408201526f2061646d696e20746f207265766f6b6560801b606082015260800190565b60208082526010908201526f14185d5cd8589b194e881c185d5cd95960821b604082015260600190565b60208082526038908201527f4552433732313a20617070726f76652063616c6c6572206973206e6f74206f776040820152771b995c881b9bdc88185c1c1c9bdd995908199bdc88185b1b60421b606082015260800190565b6020808252602a908201527f4552433732313a2062616c616e636520717565727920666f7220746865207a65604082015269726f206164647265737360b01b606082015260800190565b60208082526022908201527f456e756d657261626c654d61703a20696e646578206f7574206f6620626f756e604082015261647360f01b606082015260800190565b6020808252818101527f4552433732313a206d696e7420746f20746865207a65726f2061646472657373604082015260600190565b60208082526021908201527f536166654d6174683a206d756c7469706c69636174696f6e206f766572666c6f6040820152607760f81b606082015260800190565b6020808252602c908201527f4552433732313a20617070726f76656420717565727920666f72206e6f6e657860408201526b34b9ba32b73a103a37b5b2b760a11b606082015260800190565b60208082526029908201527f4552433732313a207472616e73666572206f6620746f6b656e2074686174206960408201526839903737ba1037bbb760b91b606082015260800190565b6020808252602f908201527f4552433732314d657461646174613a2055524920717565727920666f72206e6f60408201526e3732bc34b9ba32b73a103a37b5b2b760891b606082015260800190565b60208082526021908201527f4552433732313a20617070726f76616c20746f2063757272656e74206f776e656040820152603960f91b606082015260800190565b60208082526031908201527f4552433732313a207472616e736665722063616c6c6572206973206e6f74206f6040820152701ddb995c881b9bdc88185c1c1c9bdd9959607a1b606082015260800190565b6020808252601d908201527f416464726573733a2063616c6c20746f206e6f6e2d636f6e7472616374000000604082015260600190565b6020808252602f908201527f416363657373436f6e74726f6c3a2063616e206f6e6c792072656e6f756e636560408201526e103937b632b9903337b91039b2b63360891b606082015260800190565b600060208252610cd1602083018461348a565b81511515815260208083015115159082015260409182015163ffffffff169181019190915260600190565b63ffffffff91909116815260200190565b600063ffffffff808f1683526101806020840152613e0c61018084018f613450565b8381036040850152613e1e818f613450565b828e1660608601528481036080860152613e38818e613450565b92505050613e4960a084018b61347c565b613e5660c084018a613443565b613e6360e0840189613443565b613e716101008401886135a1565b613e7f6101208401876135a1565b613e8d6101408401866135a1565b828103610160840152613ea08185613450565b9f9e505050505050505050505050505050565b6040518181016001600160401b0381118282101715613ed157600080fd5b604052919050565b60005b83811015613ef4578181015183820152602001613edc565b83811115611d395750506000910152565b6001600160a01b0381168114613f1a57600080fd5b50565b6001600160e01b031981168114613f1a57600080fd5b63ffffffff81168114613f1a57600080fdfe4552433732313a207472616e7366657220746f206e6f6e20455243373231526563656976657220696d706c656d656e7465724552433732313a206f776e657220717565727920666f72206e6f6e6578697374656e7420746f6b656eddf252ad1be2c89b69c2b068fc378daa952ba7f163c4a11628f55a4df523b3ef416363657373436f6e74726f6c3a2073656e646572206d75737420626520616ea2646970667358221220830cd29bef845f01c68496a1ae9e07dd077c42c4904fb4aadcf881c66ce1ba1164736f6c63430006020033",
  "source": "pragma solidity ^0.6.2;\npragma experimental ABIEncoderV2;\n\nimport \"@openzeppelin/contracts/token/ERC721/ERC721.sol\";\nimport \"@openzeppelin/contracts/access/AccessControl.sol\";\nimport \"./Administration.sol\";\nimport \"@openzeppelin/contracts/math/SafeMath.sol\";\n\n/// @title A Asset donation smart contract\n/// @author Fatemeh Heidari Soureshjani\n/// @notice This contract facilitates donation of physical assets for specific periods of time between asset owners and receivers\n/// @dev time\n\ncontract DonateAsset is ERC721, Administration {\n    uint32 lastAssetId;\n\n    constructor() public ERC721(\"MyToken\", \"MTS\") Administration() {\n        lastAssetId = 0;\n    }\n\n    enum Status {Free, Requested, Donated, Inactive, Burned}\n\n    struct Asset {\n        uint32 assetId;\n        string assetTitle;\n        string assetDescription;\n        uint32 availablityDate;\n        string location;\n        Status status;\n        address owner;\n        address recipient;\n        uint32 donatedDateFrom;\n        uint32 donatedDateTo;\n        uint32 requestCount;\n        string imageIPFSHash;\n    }\n\n    mapping(uint32 => Asset) public donationList;\n\n    modifier assetIsFree(uint32 assetId) {\n        require(\n            donationList[assetId].recipient == address(0) &&\n                (donationList[assetId].status == Status.Free ||\n                    donationList[assetId].status == Status.Requested)\n        );\n        _;\n    }\n\n    modifier assetExists(uint32 assetId) {\n        require(donationList[assetId].owner != address(0), \"Invalid asset\");\n        _;\n    }\n\n    modifier isAssetOwner(uint256 assetId) {\n        require(ownerOf(assetId) == msg.sender);\n        _;\n    }\n\n    event LogFree(uint32 assetId);\n\n    event LogDonated(uint32 assetId);\n\n    // event LogInactive(uint32 assetId);\n    // event LogIBurned(uint32 assetId);\n\n    function UpdateAsset(Asset memory asset) public {\n        if (asset.status > donationList[asset.assetId].status) {\n            donationList[asset.assetId].status = asset.status;\n        }\n        donationList[asset.assetId].requestCount = asset.requestCount;\n    }\n\n    /// @notice Adds a new asset to list of donated assets(Should be called by a donor)\n    /// @dev other asset struct members should be added\n    /// @param assetDescription Descrption of the asset entered by owner\n    /// @param availablityDate the first date the owner can donate the asset\n    /// @param location the location of the donated asset\n    /// @param imageIPFSHash IPFS hash of the asset image uploaded by owner and saved to IPFS\n    function addAsset(\n        string memory assetTitle,\n        string memory assetDescription,\n        uint32 availablityDate,\n        string memory location,\n        string memory imageIPFSHash\n    ) public whenNotPaused {\n        addDonor();\n        uint32 assetId = mintToken(msg.sender);\n        donationList[assetId] = Asset({\n            assetId: assetId,\n            assetTitle: assetTitle,\n            assetDescription: assetDescription,\n            availablityDate: availablityDate,\n            location: location,\n            status: Status.Free,\n            owner: msg.sender,\n            recipient: address(0),\n            donatedDateFrom: 0,\n            donatedDateTo: 0,\n            requestCount: 0,\n            imageIPFSHash: imageIPFSHash\n        });\n        emit LogFree(assetId);\n    }\n\n    /// @notice Returns all donations of an donor(it shoud be called by a donor)\n    /// @dev There must be better way than returing always an array of 16\n    /// @return Asset returns an array of type asset and length 16 of donations of msg.sender\n    function getDonationsByOwner(uint32 pageNo)\n        public\n        view\n        returns (Asset[8] memory)\n    {\n        uint tokenCount = uint32(balanceOf(msg.sender)); //donors[msg.sender].donationCount;\n        //uint32 pageNo = donors[msg.sender].pageNo;\n        uint nextStart = SafeMath.mul(uint256(pageNo) , 8);\n        uint rem = SafeMath.sub( tokenCount , nextStart);\n        uint index = 0;\n        uint32 tokenId;\n        Asset[8] memory assetList;\n        if (rem < 0) {\n            return assetList;\n        } else {\n            if ((rem) < 8) {\n                index = rem;\n            } else {\n                index = 8;\n            }\n            uint loopEnd = SafeMath.add( nextStart , index);\n            for (uint i = nextStart; i < loopEnd; SafeMath.add( i , 1)) {\n                tokenId = uint32(tokenOfOwnerByIndex(msg.sender, i));\n                assetList[SafeMath.sub(i , nextStart)] = donationList[tokenId];\n            }\n            return assetList;\n        }\n    }\n\n    /// @notice returns all donations\n    /// @dev There must be better way than returing always an array of 16\n    /// @return Asset returns an array of type asset and length 16 of all donations\n    function getAllDonations() public view returns (Asset[16] memory) {\n        uint32 index = 0;\n        Asset[16] memory assetList;\n        if (lastAssetId <= 16) {\n            index = lastAssetId;\n        } else {\n            index = 16;\n        }\n        for (uint32 i = 0; i < index; SafeMath.add(i,1)) {\n            assetList[i] = donationList[i];\n        }\n        return assetList;\n    }\n\n    /// @notice The ERC721 stadard for nunfungible token is used to maintain ownership of assets\n    /// @notice everytime a new token is minted based on current value of lastAssetId for assetOwner address, and then lastAssetId is increased\n    /// @param assetOwner the owner of the new asset\n    /// @return returns the id of new minted token\n    function mintToken(\n        address assetOwner //isDonor(msg.sender)\n    ) public whenNotPaused returns (uint32) {\n        _safeMint(assetOwner, lastAssetId);\n        uint32 assetId = lastAssetId;\n        SafeMath.add(lastAssetId,1);\n        return assetId;\n    }\n\n    /// @notice a donor can approve a specific request and this function assigns the recipient of this asset to the recipientAddress\n    /// @notice caller should be a donor and recipient should be a receiver\n    /// @dev change related request's status to approved\n    /// @param assetId unique id of asset to be donated\n    /// @param recipientAddress donation receiver\n    function donateAsset(uint32 assetId, address recipientAddress)\n        public\n        assetExists(assetId)\n        //isReceiver(recipientAddress)\n        assetIsFree(assetId)\n        isAssetOwner(assetId)\n        //isDonor(msg.sender)\n        whenNotPaused\n    {\n        donationList[assetId].recipient = recipientAddress;\n        donationList[assetId].status = Status.Donated;\n        emit LogDonated(assetId);\n    }\n\n    function getAssetRequestCount(uint32 assetId) public view returns (uint32) {\n        return donationList[assetId].requestCount;\n    }\n\n    function getDonation(uint32 assetId) public view returns (Asset memory) {\n        return donationList[assetId];\n    }\n}\n",
  "sourcePath": "/home/fatemeh/Desktop/Consensys Course/assetdonation/AssetDonation/contracts/DonateAsset.sol",
  "compiler": {
    "name": "solc",
    "version": "0.6.2+commit.bacdbe57.Emscripten.clang"
  },
  "schemaVersion": "3.3.1",
  "updatedAt": "2020-12-08T04:34:43.216Z",
  "networkType": "ethereum",
  "devdoc": {
    "author": "Fatemeh Heidari Soureshjani",
    "details": "time",
    "methods": {
      "addAsset(string,string,uint32,string,string)": {
        "details": "other asset struct members should be added",
        "params": {
          "assetDescription": "Descrption of the asset entered by owner",
          "availablityDate": "the first date the owner can donate the asset",
          "imageIPFSHash": "IPFS hash of the asset image uploaded by owner and saved to IPFS",
          "location": "the location of the donated asset"
        }
      },
      "approve(address,uint256)": {
        "details": "See {IERC721-approve}."
      },
      "approveDonor(address)": {
        "params": {
          "donorAddress": "The address of donor to be approved"
        }
      },
      "approveReceiver(address)": {
        "params": {
          "receiverAddress": "The address of receiver to be approved"
        }
      },
      "balanceOf(address)": {
        "details": "See {IERC721-balanceOf}."
      },
      "baseURI()": {
        "details": "Returns the base URI set via {_setBaseURI}. This will be automatically added as a prefix in {tokenURI} to each token's URI, or to the token ID if no specific URI is set for that token ID."
      },
      "donateAsset(uint32,address)": {
        "details": "change related request's status to approved",
        "params": {
          "assetId": "unique id of asset to be donated",
          "recipientAddress": "donation receiver"
        }
      },
      "getAllDonations()": {
        "details": "There must be better way than returing always an array of 16",
        "returns": {
          "_0": "Asset returns an array of type asset and length 16 of all donations"
        }
      },
      "getApproved(uint256)": {
        "details": "See {IERC721-getApproved}."
      },
      "getDonationsByOwner(uint32)": {
        "details": "There must be better way than returing always an array of 16",
        "returns": {
          "_0": "Asset returns an array of type asset and length 16 of donations of msg.sender"
        }
      },
      "getRoleAdmin(bytes32)": {
        "details": "Returns the admin role that controls `role`. See {grantRole} and {revokeRole}.     * To change a role's admin, use {_setRoleAdmin}."
      },
      "getRoleMember(bytes32,uint256)": {
        "details": "Returns one of the accounts that have `role`. `index` must be a value between 0 and {getRoleMemberCount}, non-inclusive.     * Role bearers are not sorted in any particular way, and their ordering may change at any point.     * WARNING: When using {getRoleMember} and {getRoleMemberCount}, make sure you perform all queries on the same block. See the following https://forum.openzeppelin.com/t/iterating-over-elements-on-enumerableset-in-openzeppelin-contracts/2296[forum post] for more information."
      },
      "getRoleMemberCount(bytes32)": {
        "details": "Returns the number of accounts that have `role`. Can be used together with {getRoleMember} to enumerate all bearers of a role."
      },
      "grantRole(bytes32,address)": {
        "details": "Grants `role` to `account`.     * If `account` had not been already granted `role`, emits a {RoleGranted} event.     * Requirements:     * - the caller must have ``role``'s admin role."
      },
      "hasRole(bytes32,address)": {
        "details": "Returns `true` if `account` has been granted `role`."
      },
      "isApprovedForAll(address,address)": {
        "details": "See {IERC721-isApprovedForAll}."
      },
      "mintToken(address)": {
        "params": {
          "assetOwner": "the owner of the new asset"
        },
        "returns": {
          "_0": "returns the id of new minted token"
        }
      },
      "name()": {
        "details": "See {IERC721Metadata-name}."
      },
      "ownerOf(uint256)": {
        "details": "See {IERC721-ownerOf}."
      },
      "paused()": {
        "details": "Returns true if the contract is paused, and false otherwise."
      },
      "renounceRole(bytes32,address)": {
        "details": "Revokes `role` from the calling account.     * Roles are often managed via {grantRole} and {revokeRole}: this function's purpose is to provide a mechanism for accounts to lose their privileges if they are compromised (such as when a trusted device is misplaced).     * If the calling account had been granted `role`, emits a {RoleRevoked} event.     * Requirements:     * - the caller must be `account`."
      },
      "revokeRole(bytes32,address)": {
        "details": "Revokes `role` from `account`.     * If `account` had been granted `role`, emits a {RoleRevoked} event.     * Requirements:     * - the caller must have ``role``'s admin role."
      },
      "safeTransferFrom(address,address,uint256)": {
        "details": "See {IERC721-safeTransferFrom}."
      },
      "safeTransferFrom(address,address,uint256,bytes)": {
        "details": "See {IERC721-safeTransferFrom}."
      },
      "setApprovalForAll(address,bool)": {
        "details": "See {IERC721-setApprovalForAll}."
      },
      "supportsInterface(bytes4)": {
        "details": "See {IERC165-supportsInterface}.     * Time complexity O(1), guaranteed to always use less than 30 000 gas."
      },
      "symbol()": {
        "details": "See {IERC721Metadata-symbol}."
      },
      "tokenByIndex(uint256)": {
        "details": "See {IERC721Enumerable-tokenByIndex}."
      },
      "tokenOfOwnerByIndex(address,uint256)": {
        "details": "See {IERC721Enumerable-tokenOfOwnerByIndex}."
      },
      "tokenURI(uint256)": {
        "details": "See {IERC721Metadata-tokenURI}."
      },
      "totalSupply()": {
        "details": "See {IERC721Enumerable-totalSupply}."
      },
      "transferFrom(address,address,uint256)": {
        "details": "See {IERC721-transferFrom}."
      }
    },
    "title": "A Asset donation smart contract"
  },
  "userdoc": {
    "methods": {
      "addAsset(string,string,uint32,string,string)": {
        "notice": "Adds a new asset to list of donated assets(Should be called by a donor)"
      },
      "addReceiver()": {
        "notice": "Adds an address to list of receivers"
      },
      "approveDonor(address)": {
        "notice": "Admin approves an address to have the donor role"
      },
      "approveReceiver(address)": {
        "notice": "Admin approves an address to have the receiver role"
      },
      "donateAsset(uint32,address)": {
        "notice": "a donor can approve a specific request and this function assigns the recipient of this asset to the recipientAddresscaller should be a donor and recipient should be a receiver"
      },
      "getAllDonations()": {
        "notice": "returns all donations"
      },
      "getDonationsByOwner(uint32)": {
        "notice": "Returns all donations of an donor(it shoud be called by a donor)"
      },
      "mintToken(address)": {
        "notice": "The ERC721 stadard for nunfungible token is used to maintain ownership of assetseverytime a new token is minted based on current value of lastAssetId for assetOwner address, and then lastAssetId is increased"
      }
    },
    "notice": "This contract facilitates donation of physical assets for specific periods of time between asset owners and receivers"
  }
}