{
  "contractName": "DonateAsset",
  "abi": [
    {
      "inputs": [
        {
          "internalType": "uint32",
          "name": "assetId",
          "type": "uint32"
        }
      ],
      "name": "getAssetRequestCount",
      "outputs": [
        {
          "internalType": "uint32",
          "name": "",
          "type": "uint32"
        }
      ],
      "stateMutability": "view",
      "type": "function",
      "constant": true
    },
    {
      "inputs": [
        {
          "components": [
            {
              "internalType": "uint32",
              "name": "assetId",
              "type": "uint32"
            },
            {
              "internalType": "string",
              "name": "assetDescription",
              "type": "string"
            },
            {
              "internalType": "uint32",
              "name": "availablityDate",
              "type": "uint32"
            },
            {
              "internalType": "string",
              "name": "location",
              "type": "string"
            },
            {
              "internalType": "enum Status",
              "name": "status",
              "type": "uint8"
            },
            {
              "internalType": "address",
              "name": "owner",
              "type": "address"
            },
            {
              "internalType": "address",
              "name": "recipient",
              "type": "address"
            },
            {
              "internalType": "uint32",
              "name": "donatedDateFrom",
              "type": "uint32"
            },
            {
              "internalType": "uint32",
              "name": "donatedDateTo",
              "type": "uint32"
            },
            {
              "internalType": "uint32",
              "name": "requestCount",
              "type": "uint32"
            },
            {
              "internalType": "string",
              "name": "imageIPFSHash",
              "type": "string"
            }
          ],
          "internalType": "struct Asset",
          "name": "asset",
          "type": "tuple"
        }
      ],
      "name": "UpdateAsset",
      "outputs": [],
      "stateMutability": "nonpayable",
      "type": "function"
    }
  ],
  "bytecode": "0x608060405234801561001057600080fd5b50610310806100206000396000f3fe608060405234801561001057600080fd5b50600436106100365760003560e01c806321f54c211461003b578063f445496314610064575b600080fd5b61004e610049366004610278565b610079565b60405161005b91906102a3565b60405180910390f35b61007761007236600461012a565b61007f565b005b50600090565b50565b80356001600160a01b038116811461009957600080fd5b92915050565b80356005811061009957600080fd5b600082601f8301126100be578081fd5b81356001600160401b038111156100d3578182fd5b6100e6601f8201601f19166020016102b4565b91508082528360208285010111156100fd57600080fd5b8060208401602084013760009082016020015292915050565b803563ffffffff8116811461009957600080fd5b60006020828403121561013b578081fd5b81356001600160401b0380821115610151578283fd5b610160918401808603831315610165578384fd5b61016e836102b4565b6101788783610116565b8152602082013593508284111561018d578485fd5b610199878584016100ae565b60208201526101ab8760408401610116565b604082015260608201359350828411156101c3578485fd5b6101cf878584016100ae565b60608201526101e1876080840161009f565b60808201526101f38760a08401610082565b60a08201526102058760c08401610082565b60c08201526102178760e08401610116565b60e0820152610100935061022d87858401610116565b84820152610120935061024287858401610116565b848201526101409350838201358381111561025b578586fd5b610267888285016100ae565b948201949094529695505050505050565b600060208284031215610289578081fd5b813563ffffffff8116811461029c578182fd5b9392505050565b63ffffffff91909116815260200190565b6040518181016001600160401b03811182821017156102d257600080fd5b60405291905056fea26469706673582212202c6cba2b780dae919540342f1de6b8328843b9351402eb29a40ca6397425c40b64736f6c63430006020033",
  "source": "pragma solidity ^0.6.2;\npragma experimental ABIEncoderV2;\n\ncontract DonateAsset {\n    function getAssetRequestCount(uint32 assetId)\n        public\n        view\n        returns (uint32)\n    {}\n\n    function UpdateAsset(Asset memory asset) public {}\n}\n\nimport \"@openzeppelin/contracts/token/ERC721/ERC721.sol\";\nimport \"@openzeppelin/contracts/access/AccessControl.sol\";\nimport './Administration.sol';\n\n/// @title A Asset donation smart contract\n/// @author Fatemeh Heidari Soureshjani\n/// @notice This contract facilitates donation of physical assets for specific periods of time between asset owners and receivers\n/// @dev time\nenum Status {Free, Requested, Donated, Inactive, Burned}\n\nstruct Asset {\n    uint32 assetId;\n    string assetDescription;\n    uint32 availablityDate;\n    string location;\n    Status status;\n    address owner;\n    address recipient;\n    uint32 donatedDateFrom;\n    uint32 donatedDateTo;\n    uint32 requestCount;\n    string imageIPFSHash;\n}\n\ncontract ReceiveAsset is Administration{\n\n    DonateAsset DA;\n    uint32 lastRequestId;\n\n    constructor(address _DA) public AccessControl() {\n        DA = DonateAsset(_DA);\n        lastRequestId = 0;\n    }\n\n    struct Request {\n        address receiver;\n        string requestDescription;\n        uint32 requestDateFrom;\n        uint32 requestDateTo;\n    }\n    mapping(uint32 => mapping(uint32 => Request)) public assetRequestList;\n\n\n\n    /// @notice retrieves all request for a specific donation\n    /// @dev There must be better way than returing always an array of 16\n    /// @param assetId the unique asset id of donation\n    /// @return Request returns an array of type Request and length 16\n    function getDonationRequests(\n        uint32 assetId,\n        uint256 requestCount //DA.assetExists(assetId)\n    ) public view returns (Request[16] memory) {\n        Request[16] memory requestArray;\n            mapping(uint32 => Request) storage requestMapping\n         = assetRequestList[assetId];\n        for (uint32 i = 0; i < requestCount; i++) {\n            requestArray[i] = requestMapping[i];\n        }\n        return requestArray;\n    }\n\n    /// @notice A receiver can register a request for a specific donation previousely added\n    /// @notice to list of donation by a donor\n    /// @dev date conflicts can be checked\n    /// @param assetId The unique id of donation\n    /// @param requestDescription The description entered by the receiver\n    /// @param requestDateFrom The starting date receiver needs this asset\n    /// @param requestDateTo The ending date receiver needs this asset\n    function requestAsset(\n        uint32 assetId,\n        string memory requestDescription,\n        uint32 requestDateFrom,\n        uint32 requestDateTo //assetExists(assetId)\n    ) public isReceiver(msg.sender) whenNotPaused{\n        uint32 requestCount = DA.getAssetRequestCount(assetId); ///donationList[assetId];\n        //if (requestedItem.requestCount < maxNoOfReqsPerAsst) {\n        assetRequestList[assetId][requestCount] = Request({\n            receiver: msg.sender,\n            requestDescription: requestDescription,\n            requestDateFrom: requestDateFrom,\n            requestDateTo: requestDateTo\n        });\n        requestCount++;\n        Asset memory asset = Asset({\n            assetId: assetId,\n            assetDescription: \"\",\n            availablityDate: 0,\n            location: \"\",\n            status: Status.Requested,\n            owner: address(0),\n            recipient: address(0),\n            donatedDateFrom: 0,\n            donatedDateTo: 0,\n            requestCount: 0,\n            imageIPFSHash: \"\"\n        });\n        DA.UpdateAsset(asset);\n        //donationList[assetId].status = Status.Requested;\n        //requestedItem.requestCount++;\n    }\n\n    function getRequest(uint32 assetId, uint32 requestId)\n        public\n        view\n        returns (\n            address receiver,\n            string memory requestDescription,\n            uint32 requestDateFrom,\n            uint32 requestDateTo\n        )\n    {\n        Request storage request = assetRequestList[assetId][requestId];\n        receiver = request.receiver;\n        requestDescription = request.requestDescription;\n        requestDateFrom = request.requestDateFrom;\n        requestDateTo = request.requestDateTo;\n        return (receiver, requestDescription, requestDateFrom, requestDateTo);\n    }\n}\n",
  "sourcePath": "/home/fatemeh/Desktop/Consensys Course/assetdonation/AssetDonation/contracts/ReceiveAsset.sol",
  "compiler": {
    "name": "solc",
    "version": "0.6.2+commit.bacdbe57.Emscripten.clang"
  },
  "schemaVersion": "3.3.1",
  "updatedAt": "2020-12-05T19:15:35.258Z",
  "networkType": "ethereum",
  "devdoc": {
    "methods": {}
  },
  "userdoc": {
    "methods": {}
  }
}