{
  "contractName": "DonateAsset",
  "abi": [
    {
      "inputs": [
        {
          "internalType": "address",
          "name": "_adm",
          "type": "address"
        },
        {
          "internalType": "address",
          "name": "_acl",
          "type": "address"
        }
      ],
      "stateMutability": "nonpayable",
      "type": "constructor"
    },
    {
      "anonymous": false,
      "inputs": [
        {
          "indexed": true,
          "internalType": "address",
          "name": "owner",
          "type": "address"
        },
        {
          "indexed": true,
          "internalType": "address",
          "name": "approved",
          "type": "address"
        },
        {
          "indexed": true,
          "internalType": "uint256",
          "name": "tokenId",
          "type": "uint256"
        }
      ],
      "name": "Approval",
      "type": "event"
    },
    {
      "anonymous": false,
      "inputs": [
        {
          "indexed": true,
          "internalType": "address",
          "name": "owner",
          "type": "address"
        },
        {
          "indexed": true,
          "internalType": "address",
          "name": "operator",
          "type": "address"
        },
        {
          "indexed": false,
          "internalType": "bool",
          "name": "approved",
          "type": "bool"
        }
      ],
      "name": "ApprovalForAll",
      "type": "event"
    },
    {
      "anonymous": false,
      "inputs": [
        {
          "indexed": false,
          "internalType": "uint32",
          "name": "assetId",
          "type": "uint32"
        }
      ],
      "name": "LogDonated",
      "type": "event"
    },
    {
      "anonymous": false,
      "inputs": [
        {
          "indexed": false,
          "internalType": "uint32",
          "name": "assetId",
          "type": "uint32"
        }
      ],
      "name": "LogFree",
      "type": "event"
    },
    {
      "anonymous": false,
      "inputs": [
        {
          "indexed": true,
          "internalType": "address",
          "name": "from",
          "type": "address"
        },
        {
          "indexed": true,
          "internalType": "address",
          "name": "to",
          "type": "address"
        },
        {
          "indexed": true,
          "internalType": "uint256",
          "name": "tokenId",
          "type": "uint256"
        }
      ],
      "name": "Transfer",
      "type": "event"
    },
    {
      "inputs": [
        {
          "internalType": "uint256",
          "name": "",
          "type": "uint256"
        }
      ],
      "name": "AssetList",
      "outputs": [
        {
          "internalType": "string",
          "name": "assetTitle",
          "type": "string"
        },
        {
          "internalType": "string",
          "name": "assetDescription",
          "type": "string"
        },
        {
          "internalType": "uint32",
          "name": "availablityDate",
          "type": "uint32"
        },
        {
          "internalType": "string",
          "name": "location",
          "type": "string"
        },
        {
          "internalType": "address",
          "name": "owner",
          "type": "address"
        },
        {
          "internalType": "string",
          "name": "imageIPFSHash",
          "type": "string"
        }
      ],
      "stateMutability": "view",
      "type": "function",
      "constant": true
    },
    {
      "inputs": [
        {
          "internalType": "address",
          "name": "to",
          "type": "address"
        },
        {
          "internalType": "uint256",
          "name": "tokenId",
          "type": "uint256"
        }
      ],
      "name": "approve",
      "outputs": [],
      "stateMutability": "nonpayable",
      "type": "function"
    },
    {
      "inputs": [
        {
          "internalType": "address",
          "name": "owner",
          "type": "address"
        }
      ],
      "name": "balanceOf",
      "outputs": [
        {
          "internalType": "uint256",
          "name": "",
          "type": "uint256"
        }
      ],
      "stateMutability": "view",
      "type": "function",
      "constant": true
    },
    {
      "inputs": [],
      "name": "baseURI",
      "outputs": [
        {
          "internalType": "string",
          "name": "",
          "type": "string"
        }
      ],
      "stateMutability": "view",
      "type": "function",
      "constant": true
    },
    {
      "inputs": [
        {
          "internalType": "uint32",
          "name": "",
          "type": "uint32"
        }
      ],
      "name": "donationList",
      "outputs": [
        {
          "internalType": "uint32",
          "name": "donationId",
          "type": "uint32"
        },
        {
          "internalType": "uint256",
          "name": "assetId",
          "type": "uint256"
        },
        {
          "internalType": "uint32",
          "name": "availablityDate",
          "type": "uint32"
        },
        {
          "internalType": "string",
          "name": "location",
          "type": "string"
        },
        {
          "internalType": "enum DonateAsset.Status",
          "name": "status",
          "type": "uint8"
        },
        {
          "internalType": "address",
          "name": "owner",
          "type": "address"
        },
        {
          "internalType": "address",
          "name": "recipient",
          "type": "address"
        },
        {
          "internalType": "uint32",
          "name": "requestCount",
          "type": "uint32"
        }
      ],
      "stateMutability": "view",
      "type": "function",
      "constant": true
    },
    {
      "inputs": [
        {
          "internalType": "uint256",
          "name": "tokenId",
          "type": "uint256"
        }
      ],
      "name": "getApproved",
      "outputs": [
        {
          "internalType": "address",
          "name": "",
          "type": "address"
        }
      ],
      "stateMutability": "view",
      "type": "function",
      "constant": true
    },
    {
      "inputs": [
        {
          "internalType": "address",
          "name": "owner",
          "type": "address"
        },
        {
          "internalType": "address",
          "name": "operator",
          "type": "address"
        }
      ],
      "name": "isApprovedForAll",
      "outputs": [
        {
          "internalType": "bool",
          "name": "",
          "type": "bool"
        }
      ],
      "stateMutability": "view",
      "type": "function",
      "constant": true
    },
    {
      "inputs": [],
      "name": "name",
      "outputs": [
        {
          "internalType": "string",
          "name": "",
          "type": "string"
        }
      ],
      "stateMutability": "view",
      "type": "function",
      "constant": true
    },
    {
      "inputs": [
        {
          "internalType": "uint256",
          "name": "tokenId",
          "type": "uint256"
        }
      ],
      "name": "ownerOf",
      "outputs": [
        {
          "internalType": "address",
          "name": "",
          "type": "address"
        }
      ],
      "stateMutability": "view",
      "type": "function",
      "constant": true
    },
    {
      "inputs": [
        {
          "internalType": "address",
          "name": "from",
          "type": "address"
        },
        {
          "internalType": "address",
          "name": "to",
          "type": "address"
        },
        {
          "internalType": "uint256",
          "name": "tokenId",
          "type": "uint256"
        }
      ],
      "name": "safeTransferFrom",
      "outputs": [],
      "stateMutability": "nonpayable",
      "type": "function"
    },
    {
      "inputs": [
        {
          "internalType": "address",
          "name": "from",
          "type": "address"
        },
        {
          "internalType": "address",
          "name": "to",
          "type": "address"
        },
        {
          "internalType": "uint256",
          "name": "tokenId",
          "type": "uint256"
        },
        {
          "internalType": "bytes",
          "name": "_data",
          "type": "bytes"
        }
      ],
      "name": "safeTransferFrom",
      "outputs": [],
      "stateMutability": "nonpayable",
      "type": "function"
    },
    {
      "inputs": [
        {
          "internalType": "address",
          "name": "operator",
          "type": "address"
        },
        {
          "internalType": "bool",
          "name": "approved",
          "type": "bool"
        }
      ],
      "name": "setApprovalForAll",
      "outputs": [],
      "stateMutability": "nonpayable",
      "type": "function"
    },
    {
      "inputs": [
        {
          "internalType": "bytes4",
          "name": "interfaceId",
          "type": "bytes4"
        }
      ],
      "name": "supportsInterface",
      "outputs": [
        {
          "internalType": "bool",
          "name": "",
          "type": "bool"
        }
      ],
      "stateMutability": "view",
      "type": "function",
      "constant": true
    },
    {
      "inputs": [],
      "name": "symbol",
      "outputs": [
        {
          "internalType": "string",
          "name": "",
          "type": "string"
        }
      ],
      "stateMutability": "view",
      "type": "function",
      "constant": true
    },
    {
      "inputs": [
        {
          "internalType": "uint256",
          "name": "index",
          "type": "uint256"
        }
      ],
      "name": "tokenByIndex",
      "outputs": [
        {
          "internalType": "uint256",
          "name": "",
          "type": "uint256"
        }
      ],
      "stateMutability": "view",
      "type": "function",
      "constant": true
    },
    {
      "inputs": [
        {
          "internalType": "address",
          "name": "owner",
          "type": "address"
        },
        {
          "internalType": "uint256",
          "name": "index",
          "type": "uint256"
        }
      ],
      "name": "tokenOfOwnerByIndex",
      "outputs": [
        {
          "internalType": "uint256",
          "name": "",
          "type": "uint256"
        }
      ],
      "stateMutability": "view",
      "type": "function",
      "constant": true
    },
    {
      "inputs": [
        {
          "internalType": "uint256",
          "name": "tokenId",
          "type": "uint256"
        }
      ],
      "name": "tokenURI",
      "outputs": [
        {
          "internalType": "string",
          "name": "",
          "type": "string"
        }
      ],
      "stateMutability": "view",
      "type": "function",
      "constant": true
    },
    {
      "inputs": [],
      "name": "totalSupply",
      "outputs": [
        {
          "internalType": "uint256",
          "name": "",
          "type": "uint256"
        }
      ],
      "stateMutability": "view",
      "type": "function",
      "constant": true
    },
    {
      "inputs": [
        {
          "internalType": "address",
          "name": "from",
          "type": "address"
        },
        {
          "internalType": "address",
          "name": "to",
          "type": "address"
        },
        {
          "internalType": "uint256",
          "name": "tokenId",
          "type": "uint256"
        }
      ],
      "name": "transferFrom",
      "outputs": [],
      "stateMutability": "nonpayable",
      "type": "function"
    },
    {
      "inputs": [
        {
          "components": [
            {
              "internalType": "uint32",
              "name": "donationId",
              "type": "uint32"
            },
            {
              "internalType": "uint256",
              "name": "assetId",
              "type": "uint256"
            },
            {
              "internalType": "uint32",
              "name": "availablityDate",
              "type": "uint32"
            },
            {
              "internalType": "string",
              "name": "location",
              "type": "string"
            },
            {
              "internalType": "enum DonateAsset.Status",
              "name": "status",
              "type": "uint8"
            },
            {
              "internalType": "address",
              "name": "owner",
              "type": "address"
            },
            {
              "internalType": "address",
              "name": "recipient",
              "type": "address"
            },
            {
              "internalType": "uint32",
              "name": "requestCount",
              "type": "uint32"
            }
          ],
          "internalType": "struct DonateAsset.Donation",
          "name": "donation",
          "type": "tuple"
        },
        {
          "internalType": "uint32",
          "name": "donationId",
          "type": "uint32"
        }
      ],
      "name": "UpdateDonation",
      "outputs": [],
      "stateMutability": "nonpayable",
      "type": "function"
    },
    {
      "inputs": [
        {
          "internalType": "string",
          "name": "assetTitle",
          "type": "string"
        },
        {
          "internalType": "string",
          "name": "assetDescription",
          "type": "string"
        },
        {
          "internalType": "uint32",
          "name": "availablityDate",
          "type": "uint32"
        },
        {
          "internalType": "string",
          "name": "location",
          "type": "string"
        },
        {
          "internalType": "string",
          "name": "imageIPFSHash",
          "type": "string"
        }
      ],
      "name": "addAsset",
      "outputs": [],
      "stateMutability": "nonpayable",
      "type": "function"
    },
    {
      "inputs": [
        {
          "internalType": "uint256",
          "name": "pageNo",
          "type": "uint256"
        }
      ],
      "name": "getDonationsByOwner",
      "outputs": [
        {
          "components": [
            {
              "internalType": "uint32",
              "name": "donationId",
              "type": "uint32"
            },
            {
              "internalType": "uint256",
              "name": "assetId",
              "type": "uint256"
            },
            {
              "internalType": "uint32",
              "name": "availablityDate",
              "type": "uint32"
            },
            {
              "internalType": "string",
              "name": "location",
              "type": "string"
            },
            {
              "internalType": "enum DonateAsset.Status",
              "name": "status",
              "type": "uint8"
            },
            {
              "internalType": "address",
              "name": "owner",
              "type": "address"
            },
            {
              "internalType": "address",
              "name": "recipient",
              "type": "address"
            },
            {
              "internalType": "uint32",
              "name": "requestCount",
              "type": "uint32"
            }
          ],
          "internalType": "struct DonateAsset.Donation[8]",
          "name": "",
          "type": "tuple[8]"
        },
        {
          "components": [
            {
              "internalType": "string",
              "name": "assetTitle",
              "type": "string"
            },
            {
              "internalType": "string",
              "name": "assetDescription",
              "type": "string"
            },
            {
              "internalType": "uint32",
              "name": "availablityDate",
              "type": "uint32"
            },
            {
              "internalType": "string",
              "name": "location",
              "type": "string"
            },
            {
              "internalType": "address",
              "name": "owner",
              "type": "address"
            },
            {
              "internalType": "string",
              "name": "imageIPFSHash",
              "type": "string"
            }
          ],
          "internalType": "struct DonateAsset.Asset[8]",
          "name": "",
          "type": "tuple[8]"
        }
      ],
      "stateMutability": "view",
      "type": "function",
      "constant": true
    },
    {
      "inputs": [],
      "name": "getAllDonations",
      "outputs": [
        {
          "components": [
            {
              "internalType": "uint32",
              "name": "donationId",
              "type": "uint32"
            },
            {
              "internalType": "uint256",
              "name": "assetId",
              "type": "uint256"
            },
            {
              "internalType": "uint32",
              "name": "availablityDate",
              "type": "uint32"
            },
            {
              "internalType": "string",
              "name": "location",
              "type": "string"
            },
            {
              "internalType": "enum DonateAsset.Status",
              "name": "status",
              "type": "uint8"
            },
            {
              "internalType": "address",
              "name": "owner",
              "type": "address"
            },
            {
              "internalType": "address",
              "name": "recipient",
              "type": "address"
            },
            {
              "internalType": "uint32",
              "name": "requestCount",
              "type": "uint32"
            }
          ],
          "internalType": "struct DonateAsset.Donation[16]",
          "name": "",
          "type": "tuple[16]"
        },
        {
          "components": [
            {
              "internalType": "string",
              "name": "assetTitle",
              "type": "string"
            },
            {
              "internalType": "string",
              "name": "assetDescription",
              "type": "string"
            },
            {
              "internalType": "uint32",
              "name": "availablityDate",
              "type": "uint32"
            },
            {
              "internalType": "string",
              "name": "location",
              "type": "string"
            },
            {
              "internalType": "address",
              "name": "owner",
              "type": "address"
            },
            {
              "internalType": "string",
              "name": "imageIPFSHash",
              "type": "string"
            }
          ],
          "internalType": "struct DonateAsset.Asset[16]",
          "name": "",
          "type": "tuple[16]"
        }
      ],
      "stateMutability": "view",
      "type": "function",
      "constant": true
    },
    {
      "inputs": [
        {
          "internalType": "address",
          "name": "assetOwner",
          "type": "address"
        }
      ],
      "name": "mintToken",
      "outputs": [
        {
          "internalType": "uint32",
          "name": "",
          "type": "uint32"
        }
      ],
      "stateMutability": "nonpayable",
      "type": "function"
    },
    {
      "inputs": [
        {
          "internalType": "uint32",
          "name": "donationId",
          "type": "uint32"
        },
        {
          "internalType": "uint256",
          "name": "assetId",
          "type": "uint256"
        },
        {
          "internalType": "address",
          "name": "recipientAddress",
          "type": "address"
        }
      ],
      "name": "donateAsset",
      "outputs": [],
      "stateMutability": "nonpayable",
      "type": "function"
    },
    {
      "inputs": [
        {
          "internalType": "uint32",
          "name": "donationId",
          "type": "uint32"
        }
      ],
      "name": "getDonationRequestCount",
      "outputs": [
        {
          "internalType": "uint32",
          "name": "",
          "type": "uint32"
        }
      ],
      "stateMutability": "view",
      "type": "function",
      "constant": true
    },
    {
      "inputs": [
        {
          "internalType": "uint32",
          "name": "donationId",
          "type": "uint32"
        }
      ],
      "name": "getDonation",
      "outputs": [
        {
          "components": [
            {
              "internalType": "uint32",
              "name": "donationId",
              "type": "uint32"
            },
            {
              "internalType": "uint256",
              "name": "assetId",
              "type": "uint256"
            },
            {
              "internalType": "uint32",
              "name": "availablityDate",
              "type": "uint32"
            },
            {
              "internalType": "string",
              "name": "location",
              "type": "string"
            },
            {
              "internalType": "enum DonateAsset.Status",
              "name": "status",
              "type": "uint8"
            },
            {
              "internalType": "address",
              "name": "owner",
              "type": "address"
            },
            {
              "internalType": "address",
              "name": "recipient",
              "type": "address"
            },
            {
              "internalType": "uint32",
              "name": "requestCount",
              "type": "uint32"
            }
          ],
          "internalType": "struct DonateAsset.Donation",
          "name": "",
          "type": "tuple"
        }
      ],
      "stateMutability": "view",
      "type": "function",
      "constant": true
    },
    {
      "inputs": [
        {
          "internalType": "uint256",
          "name": "assetId",
          "type": "uint256"
        }
      ],
      "name": "getAsset",
      "outputs": [
        {
          "components": [
            {
              "internalType": "string",
              "name": "assetTitle",
              "type": "string"
            },
            {
              "internalType": "string",
              "name": "assetDescription",
              "type": "string"
            },
            {
              "internalType": "uint32",
              "name": "availablityDate",
              "type": "uint32"
            },
            {
              "internalType": "string",
              "name": "location",
              "type": "string"
            },
            {
              "internalType": "address",
              "name": "owner",
              "type": "address"
            },
            {
              "internalType": "string",
              "name": "imageIPFSHash",
              "type": "string"
            }
          ],
          "internalType": "struct DonateAsset.Asset",
          "name": "",
          "type": "tuple"
        }
      ],
      "stateMutability": "view",
      "type": "function",
      "constant": true
    }
  ],
  "bytecode": "0x60806040523480156200001157600080fd5b50604051620043a1380380620043a18339810160408190526200003491620002c9565b604080518082018252600781526626bcaa37b5b2b760c91b602080830191909152825180840190935260038352624d545360e81b9083015290620000886301ffc9a760e01b6001600160e01b03620001c916565b81516200009d90600690602085019062000224565b508051620000b390600790602084019062000224565b50620000cf6380ac58cd60e01b6001600160e01b03620001c916565b620000ea635b5e139f60e01b6001600160e01b03620001c916565b6200010563780e9d6360e01b6001600160e01b03620001c916565b5050600a80546001600160a01b038085166001600160a01b031992831617909255600b8054600160a01b600160e01b0319858516919093161791821690556040516308d2250360e41b8152911690638d22503090620001679060040162000372565b602060405180830381600087803b1580156200018257600080fd5b505af115801562000197573d6000803e3d6000fd5b505050506040513d601f19601f82011682018060405250620001bd919081019062000307565b600c5550620003b99050565b6001600160e01b03198082161415620001ff5760405162461bcd60e51b8152600401620001f6906200033b565b60405180910390fd5b6001600160e01b0319166000908152602081905260409020805460ff19166001179055565b828054600181600116156101000203166002900490600052602060002090601f016020900481019282601f106200026757805160ff191683800117855562000297565b8280016001018555821562000297579182015b82811115620002975782518255916020019190600101906200027a565b50620002a5929150620002a9565b5090565b620002c691905b80821115620002a55760008155600101620002b0565b90565b60008060408385031215620002dc578182fd5b8251620002e981620003a0565b6020840151909250620002fc81620003a0565b809150509250929050565b60006020828403121562000319578081fd5b5051919050565b6008815267185919105cdcd95d60c21b602082015260400190565b6020808252601c908201527f4552433136353a20696e76616c696420696e7465726661636520696400000000604082015260600190565b600060408252620003866040830162000320565b8281036020840152620003998162000320565b9392505050565b6001600160a01b0381168114620003b657600080fd5b50565b613fd880620003c96000396000f3fe608060405234801561001057600080fd5b50600436106101545760003560e01c806301173a741461015957806301ffc9a71461018257806306fdde03146101a2578063081812fc146101b7578063095ea7b3146101d7578063098eb3d3146101ec57806318160ddd146101ff57806323b872dd14610214578063247f0542146102275780632f745c59146102485780633274e1581461025b57806338a59a071461026e57806342842e0e146102845780634bb0eaaf146102975780634f6ccce7146102be57806355e2bf10146102d15780636352211e146102f65780636c0360eb1461030957806370a0823114610311578063718841361461032457806395d89b4114610344578063a22cb4651461034c578063b88d4fde1461035f578063c18782b414610372578063c87b56dd14610385578063cac78d8514610398578063e985e9c5146103ab578063eac8f5b8146103be575b600080fd5b61016c610167366004612fd2565b6103de565b6040516101799190613dff565b60405180910390f35b610195610190366004613145565b6104ed565b604051610179919061371f565b6101aa61050c565b604051610179919061372a565b6101ca6101c536600461339a565b6105a3565b60405161017991906135b0565b6101ea6101e53660046130ff565b6105e6565b005b6101ea6101fa3660046133ce565b61067e565b610207610883565b6040516101799190613ddf565b6101ea610222366004613021565b610894565b61023a61023536600461339a565b6108cc565b604051610179929190613697565b6102076102563660046130ff565b610e71565b6101ea610269366004613258565b610ea2565b610276610f5c565b604051610179929190613601565b6101ea610292366004613021565b6113ea565b6102aa6102a53660046133b2565b611405565b604051610179989796959493929190613e10565b6102076102cc36600461339a565b6114f3565b6102e46102df36600461339a565b61150f565b6040516101799695949392919061373d565b6101ca61030436600461339a565b61178e565b6101aa6117bc565b61020761031f366004612fd2565b61181d565b6103376103323660046133b2565b611866565b6040516101799190613dcc565b6101aa6119a6565b6101ea61035a3660046130c8565b611a07565b6101ea61036d366004613061565b611ad5565b61016c6103803660046133b2565b611b14565b6101aa61039336600461339a565b611b39565b6101ea6103a636600461319c565b611c7f565b6101956103b9366004612fed565b61208f565b6103d16103cc36600461339a565b6120bd565b6040516101799190613db9565b600a54604080516309d2f83f60e41b815290516000926001600160a01b031691639d2f83f091600480830192602092919082900301818787803b15801561042457600080fd5b505af1158015610438573d6000803e3d6000fd5b505050506040513d601f19601f8201168201806040525061045c9190810190613129565b156104825760405162461bcd60e51b815260040161047990613bb1565b60405180910390fd5b600b5461049d908390600160a01b900463ffffffff16612361565b600b54600160a01b900463ffffffff166104c06104bb82600161237f565b6123a4565b600b805463ffffffff92909216600160a01b0263ffffffff60a01b1990921691909117905590505b919050565b6001600160e01b03191660009081526020819052604090205460ff1690565b60068054604080516020601f60026000196101006001881615020190951694909404938401819004810282018101909252828152606093909290918301828280156105985780601f1061056d57610100808354040283529160200191610598565b820191906000526020600020905b81548152906001019060200180831161057b57829003601f168201915b505050505090505b90565b60006105ae826123cd565b6105ca5760405162461bcd60e51b815260040161047990613b65565b506000908152600460205260409020546001600160a01b031690565b60006105f18261178e565b9050806001600160a01b0316836001600160a01b031614156106255760405162461bcd60e51b815260040161047990613caa565b806001600160a01b03166106376123e0565b6001600160a01b031614806106535750610653816103b96123e0565b61066f5760405162461bcd60e51b815260040161047990613a0b565b61067983836123e4565b505050565b63ffffffff83166000908152600d602052604090206005015483906001600160a01b0316158015610705575063ffffffff81166000908152600d6020526040812060049081015460ff16908111156106d257fe5b14806107055750600163ffffffff82166000908152600d6020526040902060049081015460ff169081111561070357fe5b145b6107215760405162461bcd60e51b8152600401610479906139df565b823361072c8261178e565b6001600160a01b0316146107525760405162461bcd60e51b8152600401610479906138b1565b600a60009054906101000a90046001600160a01b03166001600160a01b0316639d2f83f06040518163ffffffff1660e01b8152600401602060405180830381600087803b1580156107a257600080fd5b505af11580156107b6573d6000803e3d6000fd5b505050506040513d601f19601f820116820180604052506107da9190810190613129565b156107f75760405162461bcd60e51b815260040161047990613bb1565b6108023384866113ea565b63ffffffff85166000908152600d6020526040908190206005810180546001600160a01b0387166001600160a01b0319909116179055600401805460ff19166002179055517f9869ee1482368b4ea48cb13a191ba8022b944e7785dbe1804c4e4c11ed347dd190610874908790613dff565b60405180910390a15050505050565b600061088f6002612452565b905090565b6108a561089f6123e0565b8261245d565b6108c15760405162461bcd60e51b815260040161047990613ceb565b6106798383836124e2565b6108d4612d44565b6108dc612d72565b6108e4612da0565b600a546040516396c5904360e01b81526001600160a01b03909116906396c59043906109149033906004016135b0565b60606040518083038186803b15801561092c57600080fd5b505afa158015610940573d6000803e3d6000fd5b505050506040513d601f19601f820116820180604052506109649190810190613345565b604081015190915063ffffffff16600061097f8660086125f0565b9050600061098d838361262a565b905060008061099a612d44565b6109a2612d72565b60088510156109b3578493506109b8565b600893505b6000806109c5888761237f565b905060006109d2896123a4565b90505b600b5463ffffffff600160c01b90910481169082161015610e575763ffffffff81166000908152600d602052604090206004015461010090046001600160a01b0316331415610e3c57610a2e8663ffffffff168a61262a565b63ffffffff8281166000908152600d60209081526040918290208251610100808201855282548616825260018084015483860152600280850154909716838701526003840180548751928116159093026000190190921696909604601f810185900485028701850190955284865295985094909360608601939092830182828015610afa5780601f10610acf57610100808354040283529160200191610afa565b820191906000526020600020905b815481529060010190602001808311610add57829003601f168201915b505050918352505060048281015460209092019160ff1690811115610b1b57fe5b6004811115610b2657fe5b8152600482015461010090046001600160a01b0390811660208301526005909201549182166040820152600160a01b90910463ffffffff16606090910152858460088110610b7057fe5b6020908102919091019190915263ffffffff82166000908152600d825260408082206001908101548352600e84529181902081518154600281861615610100026000190190911604601f8101869004909502810160e090810190935260c081018581529a9093019992939092849290918491840182828015610c335780601f10610c0857610100808354040283529160200191610c33565b820191906000526020600020905b815481529060010190602001808311610c1657829003601f168201915b50505050508152602001600182018054600181600116156101000203166002900480601f016020809104026020016040519081016040528092919081815260200182805460018160011615610100020316600290048015610cd55780601f10610caa57610100808354040283529160200191610cd5565b820191906000526020600020905b815481529060010190602001808311610cb857829003601f168201915b505050918352505060028281015463ffffffff1660208084019190915260038401805460408051601f60001960018516156101000201909316959095049182018490048402850184018152818552909401939091830182828015610d7a5780601f10610d4f57610100808354040283529160200191610d7a565b820191906000526020600020905b815481529060010190602001808311610d5d57829003601f168201915b505050918352505060048201546001600160a01b031660208083019190915260058301805460408051601f60026000196001861615610100020190941693909304928301859004850281018501825282815294019392830182828015610e215780601f10610df657610100808354040283529160200191610e21565b820191906000526020600020905b815481529060010190602001808311610e0457829003601f168201915b505050505081525050848460088110610e3657fe5b60200201525b818663ffffffff161415610e4f57610e57565b6001016109d5565b50929a50909850610e6c975050505050505050565b915091565b6001600160a01b0382166000908152600160205260408120610e99908363ffffffff61265216565b90505b92915050565b63ffffffff81166000908152600d6020526040902060049081015460ff1690811115610eca57fe5b82608001516004811115610eda57fe5b1115610f1e57608082015163ffffffff82166000908152600d6020526040902060049081018054909160ff19909116906001908490811115610f1857fe5b02179055505b60e0919091015163ffffffff9182166000908152600d60205260409020600501805463ffffffff60a01b1916600160a01b9390921692909202179055565b610f64612dc0565b610f6c612dee565b6000610f76612dc0565b610f7e612dee565b600b546010600160a01b90910463ffffffff1611610fad57600b54600160c01b900463ffffffff169250610fb2565b601092505b60005b8363ffffffff168163ffffffff1610156113df5763ffffffff8181166000908152600d60209081526040918290208251610100808201855282548616825260018084015483860152600280850154909716838701526003840180548751928116159093026000190190921696909604601f81018590048502870185019095528486529094919360608601938301828280156110915780601f1061106657610100808354040283529160200191611091565b820191906000526020600020905b81548152906001019060200180831161107457829003601f168201915b505050918352505060048281015460209092019160ff16908111156110b257fe5b60048111156110bd57fe5b815260048201546001600160a01b0361010090910481166020830152600590920154918216604082015263ffffffff600160a01b9092048216606090910152849083166010811061110a57fe5b6020908102919091019190915263ffffffff82166000908152600d825260408082206001908101548352600e8452918190208151815460029481161561010002600019011693909304601f8101859004909402830160e090810190925260c08301848152929390928492909184918401828280156111c95780601f1061119e576101008083540402835291602001916111c9565b820191906000526020600020905b8154815290600101906020018083116111ac57829003601f168201915b50505050508152602001600182018054600181600116156101000203166002900480601f01602080910402602001604051908101604052809291908181526020018280546001816001161561010002031660029004801561126b5780601f106112405761010080835404028352916020019161126b565b820191906000526020600020905b81548152906001019060200180831161124e57829003601f168201915b505050918352505060028281015463ffffffff1660208084019190915260038401805460408051601f600019600185161561010002019093169590950491820184900484028501840181528185529094019390918301828280156113105780601f106112e557610100808354040283529160200191611310565b820191906000526020600020905b8154815290600101906020018083116112f357829003601f168201915b505050918352505060048201546001600160a01b031660208083019190915260058301805460408051601f600260001960018616156101000201909416939093049283018590048502810185018252828152940193928301828280156113b75780601f1061138c576101008083540402835291602001916113b7565b820191906000526020600020905b81548152906001019060200180831161139a57829003601f168201915b505050505081525050828263ffffffff16601081106113d257fe5b6020020152600101610fb5565b509093509150509091565b61067983838360405180602001604052806000815250611ad5565b600d60209081526000918252604091829020805460018083015460028085015460038601805489516101009682161596909602600019011692909204601f810188900488028501880190985287845263ffffffff948516979296941694939091908301828280156114b75780601f1061148c576101008083540402835291602001916114b7565b820191906000526020600020905b81548152906001019060200180831161149a57829003601f168201915b505050506004830154600590930154919260ff8116926101009091046001600160a01b039081169250811690600160a01b900463ffffffff1688565b60008061150760028463ffffffff61265e16565b509392505050565b600e6020908152600091825260409182902080548351601f600260001961010060018616150201909316929092049182018490048402810184019094528084529092918391908301828280156115a65780601f1061157b576101008083540402835291602001916115a6565b820191906000526020600020905b81548152906001019060200180831161158957829003601f168201915b505050505090806001018054600181600116156101000203166002900480601f0160208091040260200160405190810160405280929190818152602001828054600181600116156101000203166002900480156116445780601f1061161957610100808354040283529160200191611644565b820191906000526020600020905b81548152906001019060200180831161162757829003601f168201915b505050506002838101546003850180546040805160206101006001851615026000190190931695909504601f8101839004830286018301909152808552959663ffffffff909316959294509091908301828280156116e35780601f106116b8576101008083540402835291602001916116e3565b820191906000526020600020905b8154815290600101906020018083116116c657829003601f168201915b50505050600483015460058401805460408051602060026101006001861615026000190190941693909304601f810184900484028201840190925281815295966001600160a01b0390941695939450908301828280156117845780601f1061175957610100808354040283529160200191611784565b820191906000526020600020905b81548152906001019060200180831161176757829003601f168201915b5050505050905086565b6000610e9c82604051806060016040528060298152602001613f5a602991396002919063ffffffff61267a16565b60098054604080516020601f60026000196101006001881615020190951694909404938401819004810282018101909252828152606093909290918301828280156105985780601f1061056d57610100808354040283529160200191610598565b60006001600160a01b0382166118455760405162461bcd60e51b815260040161047990613a63565b6001600160a01b0382166000908152600160205260409020610e9c90612452565b61186e612e1c565b63ffffffff8281166000908152600d60209081526040918290208251610100808201855282548616825260018084015483860152600280850154909716838701526003840180548751928116159093026000190190921696909604601f81018590048502870185019095528486529094919360608601938301828280156119365780601f1061190b57610100808354040283529160200191611936565b820191906000526020600020905b81548152906001019060200180831161191957829003601f168201915b505050918352505060048281015460209092019160ff169081111561195757fe5b600481111561196257fe5b8152600482015461010090046001600160a01b0390811660208301526005909201549182166040820152600160a01b90910463ffffffff1660609091015292915050565b60078054604080516020601f60026000196101006001881615020190951694909404938401819004810282018101909252828152606093909290918301828280156105985780601f1061056d57610100808354040283529160200191610598565b611a0f6123e0565b6001600160a01b0316826001600160a01b03161415611a405760405162461bcd60e51b815260040161047990613929565b8060056000611a4d6123e0565b6001600160a01b03908116825260208083019390935260409182016000908120918716808252919093529120805460ff191692151592909217909155611a916123e0565b6001600160a01b03167f17307eab39ab6107e8899845ad3d59bd9653f200f220920489ca2b5937696c3183604051611ac9919061371f565b60405180910390a35050565b611ae6611ae06123e0565b8361245d565b611b025760405162461bcd60e51b815260040161047990613ceb565b611b0e84848484612691565b50505050565b63ffffffff9081166000908152600d6020526040902060050154600160a01b90041690565b6060611b44826123cd565b611b605760405162461bcd60e51b815260040161047990613c30565b60008281526008602090815260409182902080548351601f6002600019610100600186161502019093169290920491820184900484028101840190945280845260609392830182828015611bf55780601f10611bca57610100808354040283529160200191611bf5565b820191906000526020600020905b815481529060010190602001808311611bd857829003601f168201915b505050505090506060611c066117bc565b9050805160001415611c1a575090506104e8565b815115611c4c578082604051602001611c34929190613582565b604051602081830303815290604052925050506104e8565b80611c56856126c4565b604051602001611c67929190613582565b60405160208183030381529060405292505050919050565b600a60009054906101000a90046001600160a01b03166001600160a01b0316639d2f83f06040518163ffffffff1660e01b8152600401602060405180830381600087803b158015611ccf57600080fd5b505af1158015611ce3573d6000803e3d6000fd5b505050506040513d601f19601f82011682018060405250611d079190810190613129565b15611d245760405162461bcd60e51b815260040161047990613bb1565b600c54336000600b5460405163381e2d8560e01b81526001600160a01b039091169063381e2d8590611d5c9086908690600401613de8565b60206040518083038186803b158015611d7457600080fd5b505afa158015611d88573d6000803e3d6000fd5b505050506040513d601f19601f82011682018060405250611dac919081019061317d565b6002811115611db757fe5b14611dd45760405162461bcd60e51b815260040161047990613c7f565b6000611ddf336103de565b6040805160c0810182528a815260208082018b905263ffffffff808b1683850152606083018a905233608084015260a0830189905284166000908152600e8252929092208151805194955091939092611e3c928492910190612e60565b506020828101518051611e559260018501920190612e60565b50604082015160028201805463ffffffff191663ffffffff90921691909117905560608201518051611e91916003840191602090910190612e60565b5060808201516004820180546001600160a01b0319166001600160a01b0390921691909117905560a08201518051611ed3916005840191602090910190612e60565b50506040805161010081018252600b5463ffffffff600160c01b909104811680835285821660208085019182528c8416858701908152606086018d81526000608088018190523360a089015260c0880181905260e08801819052948552600d8352969093208551815490861663ffffffff199182161782559251600182015592516002840180549190951692169190911790925592518051929450611f819260038501929190910190612e60565b5060808201518160040160006101000a81548160ff02191690836004811115611fa657fe5b021790555060a0820151600482018054610100600160a81b0319166101006001600160a01b039384160217905560c08301516005909201805460e0909401516001600160a01b0319909416929091169190911763ffffffff60a01b1916600160a01b63ffffffff93841602179055600b5461202e916104bb91600160c01b900416600161237f565b600b60186101000a81548163ffffffff021916908363ffffffff1602179055507f02be38ab1ac25d38c43ba8eef640edc80bd26853df4de2f92af4fa493699009c8160405161207d9190613dff565b60405180910390a15050505050505050565b6001600160a01b03918216600090815260056020908152604080832093909416825291909152205460ff1690565b6120c5612eda565b6000828152600e60209081526040918290208251815460026001821615610100026000190190911604601f8101849004909302810160e090810190945260c081018381529093919284928491908401828280156121635780601f1061213857610100808354040283529160200191612163565b820191906000526020600020905b81548152906001019060200180831161214657829003601f168201915b50505050508152602001600182018054600181600116156101000203166002900480601f0160208091040260200160405190810160405280929190818152602001828054600181600116156101000203166002900480156122055780601f106121da57610100808354040283529160200191612205565b820191906000526020600020905b8154815290600101906020018083116121e857829003601f168201915b505050918352505060028281015463ffffffff1660208084019190915260038401805460408051601f600019600185161561010002019093169590950491820184900484028501840181528185529094019390918301828280156122aa5780601f1061227f576101008083540402835291602001916122aa565b820191906000526020600020905b81548152906001019060200180831161228d57829003601f168201915b505050918352505060048201546001600160a01b031660208083019190915260058301805460408051601f600260001960018616156101000201909416939093049283018590048502810185018252828152940193928301828280156123515780601f1061232657610100808354040283529160200191612351565b820191906000526020600020905b81548152906001019060200180831161233457829003601f168201915b5050505050815250509050919050565b61237b828260405180602001604052806000815250612788565b5050565b600082820183811015610e995760405162461bcd60e51b81526004016104799061387c565b6000600160201b82106123c95760405162461bcd60e51b815260040161047990613d3c565b5090565b6000610e9c60028363ffffffff6127bb16565b3390565b600081815260046020526040902080546001600160a01b0319166001600160a01b03841690811790915581906124198261178e565b6001600160a01b03167f8c5be1e5ebec7d5bd14f71427d1e84f3dd0314c0f7b2291e5b200ac8c7c3b92560405160405180910390a45050565b6000610e9c826127c7565b6000612468826123cd565b6124845760405162461bcd60e51b815260040161047990613993565b600061248f8361178e565b9050806001600160a01b0316846001600160a01b031614806124ca5750836001600160a01b03166124bf846105a3565b6001600160a01b0316145b806124da57506124da818561208f565b949350505050565b826001600160a01b03166124f58261178e565b6001600160a01b03161461251b5760405162461bcd60e51b815260040161047990613be7565b6001600160a01b0382166125415760405162461bcd60e51b8152600401610479906138e5565b61254c838383610679565b6125576000826123e4565b6001600160a01b038316600090815260016020526040902061257f908263ffffffff6127cb16565b506001600160a01b03821660009081526001602052604090206125a8908263ffffffff6127d716565b506125bb6002828463ffffffff6127e316565b5080826001600160a01b0316846001600160a01b0316600080516020613f8383398151915260405160405180910390a4505050565b6000826125ff57506000610e9c565b8282028284828161260c57fe5b0414610e995760405162461bcd60e51b815260040161047990613b24565b60008282111561264c5760405162461bcd60e51b81526004016104799061395c565b50900390565b6000610e9983836127f9565b600080808061266d868661283e565b9097909650945050505050565b600061268784848461289a565b90505b9392505050565b61269c8484846124e2565b6126a8848484846128f9565b611b0e5760405162461bcd60e51b8152600401610479906137f4565b6060816126e957506040805180820190915260018152600360fc1b60208201526104e8565b8160005b811561270157600101600a820491506126ed565b6060816040519080825280601f01601f19166020018201604052801561272e576020820181803883390190505b50859350905060001982015b831561277f57600a840660300160f81b8282806001900393508151811061275d57fe5b60200101906001600160f81b031916908160001a905350600a8404935061273a565b50949350505050565b61279283836129de565b61279f60008484846128f9565b6106795760405162461bcd60e51b8152600401610479906137f4565b6000610e998383612a9c565b5490565b6000610e998383612ab4565b6000610e998383612b7a565b600061268784846001600160a01b038516612bc4565b8154600090821061281c5760405162461bcd60e51b8152600401610479906137b2565b82600001828154811061282b57fe5b9060005260206000200154905092915050565b8154600090819083106128635760405162461bcd60e51b815260040161047990613aad565b600084600001848154811061287457fe5b906000526020600020906002020190508060000154816001015492509250509250929050565b600082815260018401602052604081205482816128ca5760405162461bcd60e51b8152600401610479919061372a565b508460000160018203815481106128dd57fe5b9060005260206000209060020201600101549150509392505050565b600061290d846001600160a01b0316612c5b565b612919575060016124da565b60606129a7630a85bd0160e11b61292e6123e0565b88878760405160240161294494939291906135c4565b604051602081830303815290604052906001600160e01b0319166020820180516001600160e01b038381831617835250505050604051806060016040528060328152602001613f28603291396001600160a01b038816919063ffffffff612c6116565b90506000818060200190516129bf9190810190613161565b6001600160e01b031916630a85bd0160e11b1492505050949350505050565b6001600160a01b038216612a045760405162461bcd60e51b815260040161047990613aef565b612a0d816123cd565b15612a2a5760405162461bcd60e51b815260040161047990613846565b612a3660008383610679565b6001600160a01b0382166000908152600160205260409020612a5e908263ffffffff6127d716565b50612a716002828463ffffffff6127e316565b5060405181906001600160a01b03841690600090600080516020613f83833981519152908290a45050565b60009081526001919091016020526040902054151590565b60008181526001830160205260408120548015612b705783546000198083019190810190600090879083908110612ae757fe5b9060005260206000200154905080876000018481548110612b0457fe5b600091825260208083209091019290925582815260018981019092526040902090840190558654879080612b3457fe5b60019003818190600052602060002001600090559055866001016000878152602001908152602001600020600090556001945050505050610e9c565b6000915050610e9c565b6000612b868383612a9c565b612bbc57508154600181810184556000848152602080822090930184905584548482528286019093526040902091909155610e9c565b506000610e9c565b600082815260018401602052604081205480612c2957505060408051808201825283815260208082018481528654600181810189556000898152848120955160029093029095019182559151908201558654868452818801909252929091205561268a565b82856000016001830381548110612c3c57fe5b906000526020600020906002020160010181905550600091505061268a565b3b151590565b6060612687848460008585612c7585612c5b565b612c915760405162461bcd60e51b815260040161047990613d82565b60006060866001600160a01b03168587604051612cae9190613566565b60006040518083038185875af1925050503d8060008114612ceb576040519150601f19603f3d011682016040523d82523d6000602084013e612cf0565b606091505b5091509150612d00828286612d0b565b979650505050505050565b60608315612d1a57508161268a565b825115612d2a5782518084602001fd5b8160405162461bcd60e51b8152600401610479919061372a565b6040518061010001604052806008905b612d5c612e1c565b815260200190600190039081612d545790505090565b6040518061010001604052806008905b612d8a612eda565b815260200190600190039081612d825790505090565b604080516060810182526000808252602082018190529181019190915290565b6040518061020001604052806010905b612dd8612e1c565b815260200190600190039081612dd05790505090565b6040518061020001604052806010905b612e06612eda565b815260200190600190039081612dfe5790505090565b604080516101008101825260008082526020820181905291810182905260608082015290608082019081526000602082018190526040820181905260609091015290565b828054600181600116156101000203166002900490600052602060002090601f016020900481019282601f10612ea157805160ff1916838001178555612ece565b82800160010185558215612ece579182015b82811115612ece578251825591602001919060010190612eb3565b506123c9929150612f1f565b6040518060c001604052806060815260200160608152602001600063ffffffff1681526020016060815260200160006001600160a01b03168152602001606081525090565b6105a091905b808211156123c95760008155600101612f25565b80356001600160a01b0381168114610e9c57600080fd5b600082601f830112612f60578081fd5b81356001600160401b03811115612f75578182fd5b612f88601f8201601f1916602001613e7d565b9150808252836020828501011115612f9f57600080fd5b8060208401602084013760009082016020015292915050565b803560058110610e9c57600080fd5b8035610e9c81613f15565b600060208284031215612fe3578081fd5b610e998383612f39565b60008060408385031215612fff578081fd5b6130098484612f39565b91506130188460208501612f39565b90509250929050565b600080600060608486031215613035578081fd5b833561304081613edc565b9250602084013561305081613edc565b929592945050506040919091013590565b60008060008060808587031215613076578081fd5b6130808686612f39565b935061308f8660208701612f39565b92506040850135915060608501356001600160401b038111156130b0578182fd5b6130bc87828801612f50565b91505092959194509250565b600080604083850312156130da578182fd5b6130e48484612f39565b915060208301356130f481613ef1565b809150509250929050565b60008060408385031215613111578182fd5b61311b8484612f39565b946020939093013593505050565b60006020828403121561313a578081fd5b8151610e9981613ef1565b600060208284031215613156578081fd5b8135610e9981613eff565b600060208284031215613172578081fd5b8151610e9981613eff565b60006020828403121561318e578081fd5b815160038110610e99578182fd5b600080600080600060a086880312156131b3578283fd5b85356001600160401b03808211156131c9578485fd5b6131d589838a01612f50565b965060208801359150808211156131ea578485fd5b6131f689838a01612f50565b95506040880135915061320882613f15565b9093506060870135908082111561321d578283fd5b61322989838a01612f50565b9350608088013591508082111561323e578283fd5b5061324b88828901612f50565b9150509295509295909350565b6000806040838503121561326a578182fd5b82356001600160401b0380821115613280578384fd5b610100918501808703831315613294578485fd5b61329d83613e7d565b6132a78883612fc7565b8152602082013560208201526132c08860408401612fc7565b604082015260608201359350828411156132d8578586fd5b6132e488858401612f50565b60608201526132f68860808401612fb8565b60808201526133088860a08401612f39565b60a082015261331a8860c08401612f39565b60c082015261332c8860e08401612fc7565b60e0820152809550505050506130188460208501612fc7565b600060608284031215613356578081fd5b6133606060613e7d565b825161336b81613ef1565b8152602083015161337b81613ef1565b6020820152604083015161338e81613f15565b60408201529392505050565b6000602082840312156133ab578081fd5b5035919050565b6000602082840312156133c3578081fd5b8135610e9981613f15565b6000806000606084860312156133e2578081fd5b83356133ed81613f15565b9250602084013591506134038560408601612f39565b90509250925092565b6001600160a01b03169052565b60008151808452613431816020860160208601613ea3565b601f01601f19169290920160200192915050565b6000815160c0845261345a60c0850182613419565b6020840151915084810360208601526134738183613419565b63ffffffff604086015116604087015260608501519250858103606087015261349c8184613419565b91505060018060a01b03608085015116608086015260a0840151915084810360a08601526134ca8183613419565b95945050505050565b600061010063ffffffff8084511685526020840151602086015280604085015116604086015250606083015181606086015261351182860182613419565b6080850151925061352183613ecf565b82608087015260018060a01b0360a08601511660a087015260c0850151925061354d60c087018461340c565b60e085015192506134ca60e087018463ffffffff169052565b60008251613578818460208701613ea3565b9190910192915050565b60008351613594818460208801613ea3565b83519083016135a7828260208801613ea3565b01949350505050565b6001600160a01b0391909116815260200190565b6001600160a01b03858116825284166020820152604081018390526080606082018190526000906135f790830184613419565b9695505050505050565b6040808252600090610240830190830185835b601081101561364657603f198685030183526136318483516134d3565b93506020928301929190910190600101613614565b50505060208382038185015281829050610200830186855b6010811015613689578583038452613677838351613445565b9385019392509084019060010161365e565b509098975050505050505050565b6040808252600090610140830190830185835b60088110156136dc57603f198685030183526136c78483516134d3565b935060209283019291909101906001016136aa565b50505060208382038185015281829050610100830186855b600881101561368957858303845261370d838351613445565b938501939250908401906001016136f4565b901515815260200190565b600060208252610e996020830184613419565b600060c0825261375060c0830189613419565b82810360208401526137628189613419565b63ffffffff8816604085015283810360608501526137808188613419565b6001600160a01b038716608086015284810360a086015291506137a590508185613419565b9998505050505050505050565b60208082526022908201527f456e756d657261626c655365743a20696e646578206f7574206f6620626f756e604082015261647360f01b606082015260800190565b60208082526032908201527f4552433732313a207472616e7366657220746f206e6f6e20455243373231526560408201527131b2b4bb32b91034b6b83632b6b2b73a32b960711b606082015260800190565b6020808252601c908201527b115490cdcc8c4e881d1bdad95b88185b1c9958591e481b5a5b9d195960221b604082015260600190565b6020808252601b908201527a536166654d6174683a206164646974696f6e206f766572666c6f7760281b604082015260600190565b6020808252601a908201527929b2b73232b9103734b99037ba1030b9b9b2ba1037bbb732b91760311b604082015260600190565b60208082526024908201527f4552433732313a207472616e7366657220746f20746865207a65726f206164646040820152637265737360e01b606082015260800190565b60208082526019908201527822a9219b99189d1030b8383937bb32903a379031b0b63632b960391b604082015260600190565b6020808252601e908201527f536166654d6174683a207375627472616374696f6e206f766572666c6f770000604082015260600190565b6020808252602c908201527f4552433732313a206f70657261746f7220717565727920666f72206e6f6e657860408201526b34b9ba32b73a103a37b5b2b760a11b606082015260800190565b60208082526012908201527120b9b9b2ba1034b9903737ba10233932b29760711b604082015260600190565b60208082526038908201527f4552433732313a20617070726f76652063616c6c6572206973206e6f74206f776040820152771b995c881b9bdc88185c1c1c9bdd995908199bdc88185b1b60421b606082015260800190565b6020808252602a908201527f4552433732313a2062616c616e636520717565727920666f7220746865207a65604082015269726f206164647265737360b01b606082015260800190565b60208082526022908201527f456e756d657261626c654d61703a20696e646578206f7574206f6620626f756e604082015261647360f01b606082015260800190565b6020808252818101527f4552433732313a206d696e7420746f20746865207a65726f2061646472657373604082015260600190565b60208082526021908201527f536166654d6174683a206d756c7469706c69636174696f6e206f766572666c6f6040820152607760f81b606082015260800190565b6020808252602c908201527f4552433732313a20617070726f76656420717565727920666f72206e6f6e657860408201526b34b9ba32b73a103a37b5b2b760a11b606082015260800190565b6020808252601c908201527b29bcb9ba32b69034b99034b71032b6b2b933b2b731bc9039ba37b81760211b604082015260600190565b60208082526029908201527f4552433732313a207472616e73666572206f6620746f6b656e2074686174206960408201526839903737ba1037bbb760b91b606082015260800190565b6020808252602f908201527f4552433732314d657461646174613a2055524920717565727920666f72206e6f60408201526e3732bc34b9ba32b73a103a37b5b2b760891b606082015260800190565b60208082526011908201527020a1a1a2a9a99024a9902222a724a2a21760791b604082015260600190565b60208082526021908201527f4552433732313a20617070726f76616c20746f2063757272656e74206f776e656040820152603960f91b606082015260800190565b60208082526031908201527f4552433732313a207472616e736665722063616c6c6572206973206e6f74206f6040820152701ddb995c881b9bdc88185c1c1c9bdd9959607a1b606082015260800190565b60208082526026908201527f53616665436173743a2076616c756520646f65736e27742066697420696e203360408201526532206269747360d01b606082015260800190565b6020808252601d908201527f416464726573733a2063616c6c20746f206e6f6e2d636f6e7472616374000000604082015260600190565b600060208252610e996020830184613445565b600060208252610e9960208301846134d3565b90815260200190565b9182526001600160a01b0316602082015260400190565b63ffffffff91909116815260200190565b600061010063ffffffff808c1684528a6020850152808a166040850152816060850152613e3f8285018a613419565b9250613e4a88613ecf565b6080840197909752506001600160a01b0394851660a08301529290931660c084015290921660e090910152949350505050565b6040518181016001600160401b0381118282101715613e9b57600080fd5b604052919050565b60005b83811015613ebe578181015183820152602001613ea6565b83811115611b0e5750506000910152565b60058110613ed957fe5b50565b6001600160a01b0381168114613ed957600080fd5b8015158114613ed957600080fd5b6001600160e01b031981168114613ed957600080fd5b63ffffffff81168114613ed957600080fdfe4552433732313a207472616e7366657220746f206e6f6e20455243373231526563656976657220696d706c656d656e7465724552433732313a206f776e657220717565727920666f72206e6f6e6578697374656e7420746f6b656eddf252ad1be2c89b69c2b068fc378daa952ba7f163c4a11628f55a4df523b3efa2646970667358221220a45d38a594a20f76667af1ed2265096624fae1e7c6f15ec2de10676deba7cde464736f6c63430006020033",
  "source": "pragma solidity ^0.6.2;\npragma experimental ABIEncoderV2;\nstruct donor {\n    bool exists;\n    bool approved;\n    uint32 donationCount;\n}\nenum ActionType {Autorized, Denied,Penalized}\n\ncontract Administration {\n    function systemPaused() public returns (bool) {}\n\n    function addDonor(address donorAddress) public {}\n\n    function getDonor(address donorAddress)\n        public\n        view\n        returns (donor memory)\n    {}\n}\n\ncontract AccessControlList {\n    function addResource(string memory resTitle, string memory resDescription)\n        public\n        returns (uint256)\n    {}\n\n    function requestResource(uint256 resourceID, address _address)\n        public\n        view\n        returns (ActionType)\n    {}\n}\n\nimport \"@openzeppelin/contracts/token/ERC721/ERC721.sol\";\nimport \"@openzeppelin/contracts/access/AccessControl.sol\";\nimport \"@openzeppelin/contracts/math/SafeMath.sol\";\nimport \"@openzeppelin/contracts/utils/SafeCast.sol\";\n\n/// @title A Asset donation smart contract\n/// @author Fatemeh Heidari Soureshjani\n/// @notice This contract facilitates donation of physical assets for specific periods of time between asset owners and receivers\n\ncontract DonateAsset is ERC721 {\n    Administration ADM;\n    AccessControlList ACL;\n\n    uint32 lastAssetId;\n    uint32 lastDonationId;\n    uint addAssetResourceId;\n\n    constructor(address _adm, address _acl) public ERC721(\"MyToken\", \"MTS\") {\n        ADM = Administration(_adm);\n        ACL = AccessControlList(_acl);\n        lastAssetId = 0;\n        lastDonationId = 0;\n        addAssetResourceId = ACL.addResource(\"addAsset\",\"addAsset\");\n    }\n\n    enum Status {Free, Requested, Donated, Inactive, Burned}\n\n    struct Asset {\n        string assetTitle;\n        string assetDescription;\n        uint32 availablityDate;\n        string location;\n        address owner;\n        string imageIPFSHash;\n    }\n\n    struct Donation {\n        uint32 donationId;\n        uint256 assetId;\n        uint32 availablityDate;\n        string location;\n        Status status;\n        address owner;\n        address recipient;\n        uint32 requestCount;\n    }\n\n    mapping(uint32 => Donation) public donationList;\n    mapping(uint256 => Asset) public AssetList;\n\n    modifier assetIsFree(uint32 donationId) {\n        require(\n            donationList[donationId].recipient == address(0) &&\n                (donationList[donationId].status == Status.Free ||\n                    donationList[donationId].status == Status.Requested),\n            \"Asset is not Free.\"\n        );\n        _;\n    }\n\n    modifier assetExists(uint32 donationId) {\n        require(donationList[donationId].owner != address(0), \"Invalid asset\");\n        _;\n    }\n\n    modifier isAssetOwner(uint256 assetId) {\n        require(ownerOf(assetId) == msg.sender, \"Sender nis ot asset owner.\");\n        _;\n    }\n\n    modifier whenNotPaused() {\n        require(!ADM.systemPaused(), \"System is in emergency stop.\");\n        _;\n    }\n\n    modifier requestResource(uint256 _resourceID, address _address) {\n        require(\n            ACL.requestResource(_resourceID, _address) == ActionType.Autorized,\n            \"ACCESS IS DENIED.\"\n        );\n        _;\n    }    \n\n    event LogFree(uint32 assetId);\n\n    event LogDonated(uint32 assetId);\n\n    // event LogInactive(uint32 assetId);\n    // event LogIBurned(uint32 assetId);\n\n    function UpdateDonation(Donation memory donation, uint32 donationId)\n        public\n    {\n        if (donation.status > donationList[donationId].status) {\n            donationList[donationId].status = donation.status;\n        }\n        donationList[donationId].requestCount = donation.requestCount;\n    }\n\n    /// @notice Adds a new asset to list of donated assets(Should be called by a donor)\n    /// @dev other asset struct members should be added\n    /// @param assetDescription Descrption of the asset entered by owner\n    /// @param availablityDate the first date the owner can donate the asset\n    /// @param location the location of the donated asset\n    /// @param imageIPFSHash IPFS hash of the asset image uploaded by owner and saved to IPFS\n    function addAsset(\n        string memory assetTitle,\n        string memory assetDescription,\n        uint32 availablityDate,\n        string memory location,\n        string memory imageIPFSHash\n    ) public whenNotPaused requestResource(addAssetResourceId,msg.sender){\n        //ADM.addDonor(msg.sender);\n        uint32 assetId = mintToken(msg.sender);\n        AssetList[assetId] = Asset({\n            assetTitle: assetTitle,\n            assetDescription: assetDescription,\n            availablityDate: availablityDate,\n            location: location,\n            owner: msg.sender,\n            imageIPFSHash: imageIPFSHash\n        });\n        donationList[lastDonationId] = Donation({\n            donationId: lastDonationId,\n            assetId: assetId,\n            availablityDate: availablityDate,\n            location: location,\n            status: Status.Free,\n            owner: msg.sender,\n            recipient: address(0),\n            requestCount: 0\n        });\n        lastDonationId = SafeCast.toUint32(\n            SafeMath.add(uint256(lastDonationId), 1)\n        );\n        emit LogFree(assetId);\n    }\n\n    /// @notice Returns all donations of an donor(it shoud be called by a donor)\n    /// @dev There must be better way than returing always an array of 16\n    /// @return Asset returns an array of type asset and length 16 of donations of msg.sender\n    function getDonationsByOwner(uint256 pageNo)\n        public\n        view\n        returns (Donation[8] memory, Asset[8] memory)\n    {\n        donor memory d = ADM.getDonor(msg.sender);\n        uint256 donationCount = d.donationCount; //uint(balanceOf(msg.sender)); //donors[msg.sender].donationCount;\n        //uint32 pageNo = donors[msg.sender].pageNo;\n        uint256 nextStart = SafeMath.mul(pageNo, 8); //0\n        uint256 rem = SafeMath.sub(donationCount, nextStart); //1\n        uint256 index = 0;\n        uint32 j = 0;\n        Donation[8] memory _donationList;\n        Asset[8] memory _assetList;\n        if (rem < 0) {\n            return (_donationList, _assetList);\n        } else {\n            if ((rem) < 8) {\n                index = rem; //1\n            } else {\n                index = 8;\n            }\n            uint256 nextInd = 0;\n            uint256 loopEnd = SafeMath.add(nextStart, index); //9\n            for (\n                uint32 i = SafeCast.toUint32(nextStart);\n                i < lastDonationId;\n                i++\n            ) {\n                if (donationList[i].owner == msg.sender) {\n                    //if (j > nextStart) {\n                    nextInd = SafeMath.sub(j, nextStart);\n                    _donationList[nextInd] = donationList[i];\n                    j++;\n                    _assetList[nextInd] = AssetList[donationList[i].assetId];\n                    //} else {\n                    //    j++;\n                    //}\n                }\n                if (j == loopEnd) {\n                    break;\n                }\n            }\n            // for (uint i = nextStart; i < loopEnd; i++) {\n            //     tokenId = uint32(donationOfOwnerByIndex(msg.sender, i));\n            //     assetList[SafeMath.sub(i , nextStart)] = donationList[tokenId];\n            // }\n            return (_donationList, _assetList);\n        }\n    }\n\n    /// @notice returns all donations\n    /// @dev There must be better way than returing always an array of 16\n    /// @return Asset returns an array of type asset and length 16 of all donations\n    function getAllDonations()\n        public\n        view\n        returns (Donation[16] memory, Asset[16] memory)\n    {\n        uint32 index = 0;\n        Donation[16] memory _donationList;\n        Asset[16] memory _assetList;\n        if (lastAssetId <= 16) {\n            index = lastDonationId;\n        } else {\n            index = 16;\n        }\n        for (uint32 i = 0; i < index; i++) {\n            _donationList[i] = donationList[i];\n            _assetList[i] = AssetList[donationList[i].assetId];\n        }\n        return (_donationList, _assetList);\n    }\n\n    /// @notice The ERC721 stadard for nunfungible token is used to maintain ownership of assets\n    /// @notice everytime a new token is minted based on current value of lastAssetId for assetOwner address, and then lastAssetId is increased\n    /// @param assetOwner the owner of the new asset\n    /// @return returns the id of new minted token\n    function mintToken(\n        address assetOwner //isDonor(msg.sender)\n    ) public whenNotPaused returns (uint32) {\n        _safeMint(assetOwner, lastAssetId);\n        uint32 assetId = lastAssetId;\n        lastAssetId = SafeCast.toUint32(SafeMath.add(uint256(lastAssetId), 1));\n        return assetId;\n    }\n\n    /// @notice a donor can approve a specific request and this function assigns the recipient of this asset to the recipientAddress and transfers the token ownership\n    /// @notice caller should be a donor and recipient should be a receiver\n    /// @dev change related request's status to approved, Project should implement onERC721Received\n    /// @param donationId unique id of donation to be donated\n    /// @param recipientAddress donation receiver\n    function donateAsset(\n        uint32 donationId,\n        uint256 assetId,\n        address recipientAddress\n    ) public assetIsFree(donationId) isAssetOwner(assetId) whenNotPaused {\n        safeTransferFrom(msg.sender, recipientAddress, assetId);\n        donationList[donationId].recipient = recipientAddress;\n        donationList[donationId].status = Status.Donated;\n        emit LogDonated(donationId);\n    }\n\n    function getDonationRequestCount(uint32 donationId)\n        public\n        view\n        returns (uint32)\n    {\n        return donationList[donationId].requestCount;\n    }\n\n    function getDonation(uint32 donationId)\n        public\n        view\n        returns (Donation memory)\n    {\n        return donationList[donationId];\n    }\n\n    function getAsset(uint256 assetId) public view returns (Asset memory) {\n        return AssetList[assetId];\n    }\n}\n",
  "sourcePath": "/home/fatemeh/Desktop/Consensys Course/assetdonation/AssetDonation/contracts/DonateAsset.sol",
  "compiler": {
    "name": "solc",
    "version": "0.6.2+commit.bacdbe57.Emscripten.clang"
  },
  "schemaVersion": "3.3.1",
  "updatedAt": "2021-03-26T00:16:14.962Z",
  "networkType": "ethereum",
  "devdoc": {
    "author": "Fatemeh Heidari Soureshjani",
    "methods": {
      "addAsset(string,string,uint32,string,string)": {
        "details": "other asset struct members should be added",
        "params": {
          "assetDescription": "Descrption of the asset entered by owner",
          "availablityDate": "the first date the owner can donate the asset",
          "imageIPFSHash": "IPFS hash of the asset image uploaded by owner and saved to IPFS",
          "location": "the location of the donated asset"
        }
      },
      "approve(address,uint256)": {
        "details": "See {IERC721-approve}."
      },
      "balanceOf(address)": {
        "details": "See {IERC721-balanceOf}."
      },
      "baseURI()": {
        "details": "Returns the base URI set via {_setBaseURI}. This will be automatically added as a prefix in {tokenURI} to each token's URI, or to the token ID if no specific URI is set for that token ID."
      },
      "donateAsset(uint32,uint256,address)": {
        "details": "change related request's status to approved, Project should implement onERC721Received",
        "params": {
          "donationId": "unique id of donation to be donated",
          "recipientAddress": "donation receiver"
        }
      },
      "getAllDonations()": {
        "details": "There must be better way than returing always an array of 16",
        "returns": {
          "_0": "Asset returns an array of type asset and length 16 of all donations"
        }
      },
      "getApproved(uint256)": {
        "details": "See {IERC721-getApproved}."
      },
      "getDonationsByOwner(uint256)": {
        "details": "There must be better way than returing always an array of 16",
        "returns": {
          "_0": "Asset returns an array of type asset and length 16 of donations of msg.sender"
        }
      },
      "isApprovedForAll(address,address)": {
        "details": "See {IERC721-isApprovedForAll}."
      },
      "mintToken(address)": {
        "params": {
          "assetOwner": "the owner of the new asset"
        },
        "returns": {
          "_0": "returns the id of new minted token"
        }
      },
      "name()": {
        "details": "See {IERC721Metadata-name}."
      },
      "ownerOf(uint256)": {
        "details": "See {IERC721-ownerOf}."
      },
      "safeTransferFrom(address,address,uint256)": {
        "details": "See {IERC721-safeTransferFrom}."
      },
      "safeTransferFrom(address,address,uint256,bytes)": {
        "details": "See {IERC721-safeTransferFrom}."
      },
      "setApprovalForAll(address,bool)": {
        "details": "See {IERC721-setApprovalForAll}."
      },
      "supportsInterface(bytes4)": {
        "details": "See {IERC165-supportsInterface}.     * Time complexity O(1), guaranteed to always use less than 30 000 gas."
      },
      "symbol()": {
        "details": "See {IERC721Metadata-symbol}."
      },
      "tokenByIndex(uint256)": {
        "details": "See {IERC721Enumerable-tokenByIndex}."
      },
      "tokenOfOwnerByIndex(address,uint256)": {
        "details": "See {IERC721Enumerable-tokenOfOwnerByIndex}."
      },
      "tokenURI(uint256)": {
        "details": "See {IERC721Metadata-tokenURI}."
      },
      "totalSupply()": {
        "details": "See {IERC721Enumerable-totalSupply}."
      },
      "transferFrom(address,address,uint256)": {
        "details": "See {IERC721-transferFrom}."
      }
    },
    "title": "A Asset donation smart contract"
  },
  "userdoc": {
    "methods": {
      "addAsset(string,string,uint32,string,string)": {
        "notice": "Adds a new asset to list of donated assets(Should be called by a donor)"
      },
      "donateAsset(uint32,uint256,address)": {
        "notice": "a donor can approve a specific request and this function assigns the recipient of this asset to the recipientAddress and transfers the token ownershipcaller should be a donor and recipient should be a receiver"
      },
      "getAllDonations()": {
        "notice": "returns all donations"
      },
      "getDonationsByOwner(uint256)": {
        "notice": "Returns all donations of an donor(it shoud be called by a donor)"
      },
      "mintToken(address)": {
        "notice": "The ERC721 stadard for nunfungible token is used to maintain ownership of assetseverytime a new token is minted based on current value of lastAssetId for assetOwner address, and then lastAssetId is increased"
      }
    },
    "notice": "This contract facilitates donation of physical assets for specific periods of time between asset owners and receivers"
  }
}