{
  "contractName": "ProjectFactory",
  "abi": [
    {
      "inputs": [],
      "stateMutability": "nonpayable",
      "type": "constructor"
    },
    {
      "anonymous": false,
      "inputs": [
        {
          "indexed": false,
          "internalType": "uint256",
          "name": "x",
          "type": "uint256"
        }
      ],
      "name": "logBalance",
      "type": "event"
    },
    {
      "anonymous": false,
      "inputs": [
        {
          "indexed": false,
          "internalType": "contract ProjectFunding",
          "name": "project",
          "type": "address"
        }
      ],
      "name": "projectCreated",
      "type": "event"
    },
    {
      "inputs": [
        {
          "internalType": "uint256",
          "name": "",
          "type": "uint256"
        }
      ],
      "name": "projects",
      "outputs": [
        {
          "internalType": "address payable",
          "name": "",
          "type": "address"
        }
      ],
      "stateMutability": "view",
      "type": "function",
      "constant": true
    },
    {
      "inputs": [
        {
          "internalType": "string",
          "name": "_projectDescription",
          "type": "string"
        },
        {
          "internalType": "string",
          "name": "_projectTitle",
          "type": "string"
        },
        {
          "internalType": "uint32",
          "name": "_projectKickOffTime",
          "type": "uint32"
        },
        {
          "internalType": "uint32",
          "name": "_projectKickOffMinBalance",
          "type": "uint32"
        }
      ],
      "name": "createProject",
      "outputs": [],
      "stateMutability": "payable",
      "type": "function",
      "payable": true
    },
    {
      "inputs": [],
      "name": "getProjects",
      "outputs": [
        {
          "components": [
            {
              "internalType": "string",
              "name": "projectTitle",
              "type": "string"
            },
            {
              "internalType": "string",
              "name": "projectDescription",
              "type": "string"
            },
            {
              "internalType": "address",
              "name": "projectOwner",
              "type": "address"
            },
            {
              "internalType": "uint32",
              "name": "projectKickOffMinBalance",
              "type": "uint32"
            },
            {
              "internalType": "uint32",
              "name": "projectKickOffTime",
              "type": "uint32"
            }
          ],
          "internalType": "struct Project[8]",
          "name": "",
          "type": "tuple[8]"
        }
      ],
      "stateMutability": "view",
      "type": "function",
      "constant": true
    },
    {
      "inputs": [
        {
          "internalType": "uint32",
          "name": "projectId",
          "type": "uint32"
        }
      ],
      "name": "getProject",
      "outputs": [
        {
          "internalType": "string",
          "name": "",
          "type": "string"
        },
        {
          "internalType": "string",
          "name": "",
          "type": "string"
        },
        {
          "internalType": "address",
          "name": "",
          "type": "address"
        },
        {
          "internalType": "uint32",
          "name": "",
          "type": "uint32"
        },
        {
          "internalType": "uint32",
          "name": "",
          "type": "uint32"
        }
      ],
      "stateMutability": "view",
      "type": "function",
      "constant": true
    },
    {
      "inputs": [
        {
          "internalType": "address payable",
          "name": "projectAddress",
          "type": "address"
        }
      ],
      "name": "getProjectByAddress",
      "outputs": [
        {
          "internalType": "string",
          "name": "",
          "type": "string"
        },
        {
          "internalType": "string",
          "name": "",
          "type": "string"
        },
        {
          "internalType": "address",
          "name": "",
          "type": "address"
        },
        {
          "internalType": "uint32",
          "name": "",
          "type": "uint32"
        },
        {
          "internalType": "uint32",
          "name": "",
          "type": "uint32"
        }
      ],
      "stateMutability": "view",
      "type": "function",
      "constant": true
    },
    {
      "inputs": [
        {
          "internalType": "uint32",
          "name": "projectId",
          "type": "uint32"
        }
      ],
      "name": "donateToProject",
      "outputs": [],
      "stateMutability": "payable",
      "type": "function",
      "payable": true
    },
    {
      "inputs": [
        {
          "internalType": "uint32",
          "name": "projectId",
          "type": "uint32"
        }
      ],
      "name": "getProjectBalance",
      "outputs": [
        {
          "internalType": "uint256",
          "name": "",
          "type": "uint256"
        }
      ],
      "stateMutability": "view",
      "type": "function",
      "constant": true
    },
    {
      "inputs": [
        {
          "internalType": "address payable",
          "name": "projectAddress",
          "type": "address"
        }
      ],
      "name": "getProjectBalanceByAddress",
      "outputs": [
        {
          "internalType": "uint256",
          "name": "",
          "type": "uint256"
        }
      ],
      "stateMutability": "view",
      "type": "function",
      "constant": true
    },
    {
      "inputs": [
        {
          "internalType": "uint256",
          "name": "projectId",
          "type": "uint256"
        }
      ],
      "name": "getProjectAddress",
      "outputs": [
        {
          "internalType": "address",
          "name": "",
          "type": "address"
        }
      ],
      "stateMutability": "view",
      "type": "function",
      "constant": true
    },
    {
      "inputs": [
        {
          "internalType": "uint32",
          "name": "projectId",
          "type": "uint32"
        }
      ],
      "name": "getProjectAddress",
      "outputs": [
        {
          "internalType": "address payable",
          "name": "",
          "type": "address"
        }
      ],
      "stateMutability": "view",
      "type": "function",
      "constant": true
    }
  ],
  "bytecode": "0x608060405234801561001057600080fd5b50600180546001600160a01b03191633179055611286806100326000396000f3fe6080604052600436106200008c5760003560e01c8063107046bd14620000915780634ca3e9b814620000ce5780635c96076514620000f357806377d0a5471462000127578063805cfef2146200015f5780638206d49f14620001845780638f1d463514620001a9578063986df02114620001ce578063dcc6012814620001e7578063de2ca3cb146200020e575b600080fd5b3480156200009e57600080fd5b50620000b6620000b036600462000897565b62000225565b604051620000c5919062000914565b60405180910390f35b348015620000db57600080fd5b50620000b6620000ed36600462000897565b6200024d565b3480156200010057600080fd5b50620001186200011236600462000738565b62000277565b604051620000c5919062000a9e565b3480156200013457600080fd5b506200014c6200014636600462000738565b62000284565b604051620000c595949392919062000a47565b3480156200016c57600080fd5b50620000b66200017e366004620008b0565b62000317565b3480156200019157600080fd5b506200014c620001a3366004620008b0565b6200032c565b348015620001b657600080fd5b5062000118620001c8366004620008b0565b6200038e565b620001e5620001df36600462000807565b620003bf565b005b348015620001f457600080fd5b50620001ff62000496565b604051620000c5919062000988565b620001e56200021f366004620008b0565b620005c4565b600081815481106200023357fe5b6000918252602090912001546001600160a01b0316905081565b60008082815481106200025c57fe5b6000918252602090912001546001600160a01b031692915050565b6001600160a01b03163190565b6060806000806000856001600160a01b0316636e57b7006040518163ffffffff1660e01b815260040160006040518083038186803b158015620002c657600080fd5b505afa158015620002db573d6000803e3d6000fd5b505050506040513d6000823e601f3d908101601f191682016040526200030591908101906200075e565b939a9299509097509550909350915050565b6000808263ffffffff16815481106200025c57fe5b6060806000806000808663ffffffff16815481106200034757fe5b600091825260208220015460408051626e57b760e81b815290516001600160a01b0390921692636e57b70092600480840193829003018186803b158015620002c657600080fd5b6000808263ffffffff1681548110620003a357fe5b6000918252602090912001546001600160a01b03163192915050565b6000333486868686604051620003d5906200061e565b620003e69695949392919062000928565b604051809103906000f08015801562000403573d6000803e3d6000fd5b50600080546001810182559080527f290decd9548b62a8d60345a988386fc84ba6bc95484008f6362f93160ef3e5630180546001600160a01b0319166001600160a01b038316179055604051909150819081907fcebf67068bdf6731b69879642c22dbe7f75cbd4e664bccb6c931362b33e69a33906200048590839062000914565b60405180910390a150505050505050565b620004a06200062c565b620004aa6200062c565b60608060008080805b60005463ffffffff82161015620005b857604051638206d49f60e01b81523090638206d49f90620004e990849060040162000aa7565b60006040518083038186803b1580156200050257600080fd5b505afa15801562000517573d6000803e3d6000fd5b505050506040513d6000823e601f3d908101601f191682016040526200054191908101906200075e565b939950919750955093509150620005576200065d565b6040518060a00160405280888152602001878152602001866001600160a01b031681526020018563ffffffff1681526020018463ffffffff16815250905080888363ffffffff1660088110620005a957fe5b602002015250600101620004b3565b50949550505050505090565b60008163ffffffff1681548110620005d857fe5b60009182526020822001546040516001600160a01b03909116913480156108fc02929091818181858888f193505050501580156200061a573d6000803e3d6000fd5b5050565b6106ee8062000b6383390190565b6040518061010001604052806008905b620006466200065d565b8152602001906001900390816200063c5790505090565b6040805160a08101825260608082526020820181905260009282018390528101829052608081019190915290565b600082601f8301126200069c578081fd5b8135620006b3620006ad8262000adf565b62000ab8565b9150808252836020828501011115620006cb57600080fd5b8060208401602084013760009082016020015292915050565b600082601f830112620006f5578081fd5b815162000706620006ad8262000adf565b91508082528360208285010111156200071e57600080fd5b6200073181602084016020860162000b03565b5092915050565b6000602082840312156200074a578081fd5b8135620007578162000b36565b9392505050565b600080600080600060a0868803121562000776578081fd5b85516001600160401b03808211156200078d578283fd5b6200079b89838a01620006e4565b96506020880151915080821115620007b1578283fd5b50620007c088828901620006e4565b9450506040860151620007d38162000b36565b6060870151909350620007e68162000b4f565b6080870151909250620007f98162000b4f565b809150509295509295909350565b600080600080608085870312156200081d578384fd5b84356001600160401b038082111562000834578586fd5b62000842888389016200068b565b9550602087013591508082111562000858578485fd5b5062000867878288016200068b565b93505060408501356200087a8162000b4f565b915060608501356200088c8162000b4f565b939692955090935050565b600060208284031215620008a9578081fd5b5035919050565b600060208284031215620008c2578081fd5b8135620007578162000b4f565b6001600160a01b03169052565b60008151808452620008f681602086016020860162000b03565b601f01601f19169290920160200192915050565b63ffffffff169052565b6001600160a01b0391909116815260200190565b600060018060a01b038816825263ffffffff808816602084015260c060408401526200095860c0840188620008dc565b83810360608501526200096c8188620008dc565b9582166080850152509290921660a09091015250949350505050565b6020808252600090610120830183820185845b600881101562000a3b57601f19878503018352815160a08151818752620009c582880182620008dc565b88840151925087810389890152620009de8184620008dc565b9150506040915081830151620009f783890182620008cf565b50606091508183015162000a0e838901826200090a565b50608091508183015162000a25838901826200090a565b509550505091840191908401906001016200099b565b50919695505050505050565b600060a0825262000a5c60a0830188620008dc565b828103602084015262000a708188620008dc565b6001600160a01b03969096166040840152505063ffffffff9283166060820152911660809091015292915050565b90815260200190565b63ffffffff91909116815260200190565b6040518181016001600160401b038111828210171562000ad757600080fd5b604052919050565b60006001600160401b0382111562000af5578081fd5b50601f01601f191660200190565b60005b8381101562000b2057818101518382015260200162000b06565b8381111562000b30576000848401525b50505050565b6001600160a01b038116811462000b4c57600080fd5b50565b63ffffffff8116811462000b4c57600080fdfe60806040526040516106ee3803806106ee8339810160408190526100229161022d565b600080546001600160a01b0319166001600160a01b0388161790556002805463ffffffff191663ffffffff871617905583516100659060049060208701906100d8565b50600580546001600160a01b0319166001600160a01b03881617905582516100949060039060208601906100d8565b506005805463ffffffff928316600160a01b0263ffffffff60a01b1994909316600160c01b0263ffffffff60c01b199091161792909216179055506102df92505050565b828054600181600116156101000203166002900490600052602060002090601f016020900481019282601f1061011957805160ff1916838001178555610146565b82800160010185558215610146579182015b8281111561014657825182559160200191906001019061012b565b50610152929150610156565b5090565b61017091905b80821115610152576000815560010161015c565b90565b600082601f830112610183578081fd5b81516001600160401b0380821115610199578283fd5b6040516020601f8401601f19168201810183811183821017156101ba578586fd5b806040525081945083825286818588010111156101d657600080fd5b600092505b838310156101f857858301810151828401820152918201916101db565b838311156102095760008185840101525b5050505092915050565b805163ffffffff8116811461022757600080fd5b92915050565b60008060008060008060c08789031215610245578182fd5b86516001600160a01b038116811461025b578283fd5b955061026a8860208901610213565b60408801519095506001600160401b0380821115610286578384fd5b6102928a838b01610173565b955060608901519150808211156102a7578384fd5b506102b489828a01610173565b9350506102c48860808901610213565b91506102d38860a08901610213565b90509295509295509295565b610400806102ee6000396000f3fe6080604052600436106100295760003560e01c80636e57b7001461002b578063f60ca60d1461005a575b005b34801561003757600080fd5b5061004061006f565b604051610051959493929190610377565b60405180910390f35b34801561006657600080fd5b506100406101d4565b6005546003805460408051602060026101006001861615026000190190941693909304601f810184900484028201840190925281815260609485946000948594859492936004936001600160a01b03821693600160a01b830463ffffffff90811694600160c01b9094041692879183018282801561012e5780601f106101035761010080835404028352916020019161012e565b820191906000526020600020905b81548152906001019060200180831161011157829003601f168201915b5050875460408051602060026001851615610100026000190190941693909304601f8101849004840282018401909252818152959a50899450925084019050828280156101bc5780601f10610191576101008083540402835291602001916101bc565b820191906000526020600020905b81548152906001019060200180831161019f57829003601f168201915b50505050509350945094509450945094509091929394565b60038054604080516020601f6002600019610100600188161502019095169490940493840181900481028201810190925282815291839183018282801561025c5780601f106102315761010080835404028352916020019161025c565b820191906000526020600020905b81548152906001019060200180831161023f57829003601f168201915b505050505090806001018054600181600116156101000203166002900480601f0160208091040260200160405190810160405280929190818152602001828054600181600116156101000203166002900480156102fa5780601f106102cf576101008083540402835291602001916102fa565b820191906000526020600020905b8154815290600101906020018083116102dd57829003601f168201915b505050600290930154919250506001600160a01b0381169063ffffffff600160a01b8204811691600160c01b90041685565b60008151808452815b8181101561035157602081850181015186830182015201610335565b818111156103625782602083870101525b50601f01601f19169290920160200192915050565b600060a0825261038a60a083018861032c565b828103602084015261039c818861032c565b6001600160a01b03969096166040840152505063ffffffff928316606082015291166080909101529291505056fea264697066735822122080588c8e911291e0372f170eac2a5e6d0036468c4e6868aca5ddbe55cb4223b464736f6c63430006020033a26469706673582212208a244b5a4e961627c13fe250f756bb28ec189e3d7c688e721e430561d4db1e1064736f6c63430006020033",
  "source": "pragma solidity ^0.6.2;\npragma experimental ABIEncoderV2;\n\nimport \"./ProjectFunding.sol\";\nstruct Project {\n    string projectTitle;\n    string projectDescription;\n    address projectOwner;\n    uint32 projectKickOffMinBalance;\n    uint32 projectKickOffTime;\n}\n\ncontract ProjectFactory {\n    address payable[] public projects;\n    event projectCreated(ProjectFunding project);\n    event logBalance(uint256 x);\n\n    address private Owner;\n\n    constructor() public {\n        Owner = msg.sender;\n    }\n\n    function createProject(\n        string memory _projectDescription,\n        string memory _projectTitle,\n        uint32 _projectKickOffTime,\n        uint32 _projectKickOffMinBalance\n    ) public payable {\n        ProjectFunding project = new ProjectFunding(\n            msg.sender,\n            uint32(msg.value),\n            _projectDescription,\n            _projectTitle,\n            _projectKickOffTime,\n            _projectKickOffMinBalance\n        );\n        address nftAddress = address(project);\n        address payable addr = address(uint160(nftAddress));\n        //addr.send(address(this).balance);\n        projects.push(addr);\n        emit projectCreated(project);\n    }\n\n    function getProjects() external view returns (Project[8] memory) {\n        Project[8] memory projectList;\n        string memory _projectTitle;\n        string memory _projectDescription;\n        address _projectOwner;\n        uint32 _projectKickOffMinBalance;\n        uint32 _projectKickOffTime;\n        for (uint32 i = 0; i < projects.length; i++) {\n            (\n                _projectTitle,\n                _projectDescription,\n                _projectOwner,\n                _projectKickOffMinBalance,\n                _projectKickOffTime\n            ) = this.getProject(i);\n            Project memory p = Project({\n                projectTitle: _projectTitle,\n                projectDescription: _projectDescription,\n                projectOwner: _projectOwner,\n                projectKickOffMinBalance: _projectKickOffMinBalance,\n                projectKickOffTime: _projectKickOffTime\n            });\n            projectList[i] = p;\n        }\n        return projectList;\n    }\n function getProjectAddress(uint projectId) external view returns (address) {\n        return projects[projectId];\n    }\n    // function getProject(uint32 projectId)\n    //     external\n    //     view\n    //     returns (Project memory\n    //     )\n    // {\n    //     return ProjectFunding(projects[projectId]).getProject();\n    // }\n\n    function getProject(uint32 projectId)\n        external\n        view\n        returns (\n            string memory,\n            string memory,\n            address,\n            uint32,\n            uint32\n        )\n    {\n        return ProjectFunding(projects[projectId]).getProject();\n    }\n\n    function getProjectByAddress(address payable projectAddress)\n        external\n        view\n        returns (\n            string memory,\n            string memory,\n            address,\n            uint32,\n            uint32\n        )\n    {\n        return ProjectFunding(projectAddress).getProject();\n    }\n\n    function donateToProject(uint32 projectId) public payable {\n        projects[projectId].transfer(msg.value);\n    }\n\n    function getProjectBalance(uint32 projectId)\n        external\n        view\n        returns (uint256)\n    {\n        return projects[projectId].balance; //.getBalance();\n        //emit logBalance(x);\n        //return x;\n    }\n\n    function getProjectBalanceByAddress(address payable projectAddress)\n        external\n        view\n        returns (uint256)\n    {\n        return projectAddress.balance; //.getBalance();\n        //emit logBalance(x);\n        //return x;\n    }    \n\n    function getProjectAddress(uint32 projectId)\n        public\n        view\n        returns (address payable)\n    {\n        return projects[projectId];\n    }\n}\n",
  "sourcePath": "/home/fatemeh/Desktop/Consensys Course/assetdonation/AssetDonation/contracts/ProjectFactory.sol",
  "compiler": {
    "name": "solc",
    "version": "0.6.2+commit.bacdbe57.Emscripten.clang"
  },
  "schemaVersion": "3.3.1",
  "updatedAt": "2020-12-14T00:51:20.346Z",
  "networkType": "ethereum",
  "devdoc": {
    "methods": {}
  },
  "userdoc": {
    "methods": {}
  }
}