{
  "contractName": "ProjectFunding",
  "abi": [
    {
      "inputs": [
        {
          "internalType": "address",
          "name": "_owner",
          "type": "address"
        },
        {
          "internalType": "uint32",
          "name": "initialBalance",
          "type": "uint32"
        },
        {
          "internalType": "string",
          "name": "_projectDescription",
          "type": "string"
        },
        {
          "internalType": "string",
          "name": "_projectTitle",
          "type": "string"
        },
        {
          "internalType": "uint32",
          "name": "_projectKickOffTime",
          "type": "uint32"
        },
        {
          "internalType": "uint32",
          "name": "_projectKickOffMinBalance",
          "type": "uint32"
        }
      ],
      "stateMutability": "payable",
      "type": "constructor"
    },
    {
      "stateMutability": "payable",
      "type": "fallback"
    },
    {
      "inputs": [],
      "name": "project",
      "outputs": [
        {
          "internalType": "string",
          "name": "projectTitle",
          "type": "string"
        },
        {
          "internalType": "string",
          "name": "projectDescription",
          "type": "string"
        },
        {
          "internalType": "address",
          "name": "projectOwner",
          "type": "address"
        },
        {
          "internalType": "uint32",
          "name": "projectKickOffMinBalance",
          "type": "uint32"
        },
        {
          "internalType": "uint32",
          "name": "projectKickOffTime",
          "type": "uint32"
        }
      ],
      "stateMutability": "view",
      "type": "function"
    },
    {
      "inputs": [],
      "name": "getProject",
      "outputs": [
        {
          "internalType": "string",
          "name": "",
          "type": "string"
        },
        {
          "internalType": "string",
          "name": "",
          "type": "string"
        },
        {
          "internalType": "address",
          "name": "",
          "type": "address"
        },
        {
          "internalType": "uint32",
          "name": "",
          "type": "uint32"
        },
        {
          "internalType": "uint32",
          "name": "",
          "type": "uint32"
        }
      ],
      "stateMutability": "view",
      "type": "function"
    }
  ],
  "bytecode": "0x60806040526040516106ee3803806106ee8339810160408190526100229161022d565b600080546001600160a01b0319166001600160a01b0388161790556002805463ffffffff191663ffffffff871617905583516100659060049060208701906100d8565b50600580546001600160a01b0319166001600160a01b03881617905582516100949060039060208601906100d8565b506005805463ffffffff928316600160a01b0263ffffffff60a01b1994909316600160c01b0263ffffffff60c01b199091161792909216179055506102df92505050565b828054600181600116156101000203166002900490600052602060002090601f016020900481019282601f1061011957805160ff1916838001178555610146565b82800160010185558215610146579182015b8281111561014657825182559160200191906001019061012b565b50610152929150610156565b5090565b61017091905b80821115610152576000815560010161015c565b90565b600082601f830112610183578081fd5b81516001600160401b0380821115610199578283fd5b6040516020601f8401601f19168201810183811183821017156101ba578586fd5b806040525081945083825286818588010111156101d657600080fd5b600092505b838310156101f857858301810151828401820152918201916101db565b838311156102095760008185840101525b5050505092915050565b805163ffffffff8116811461022757600080fd5b92915050565b60008060008060008060c08789031215610245578182fd5b86516001600160a01b038116811461025b578283fd5b955061026a8860208901610213565b60408801519095506001600160401b0380821115610286578384fd5b6102928a838b01610173565b955060608901519150808211156102a7578384fd5b506102b489828a01610173565b9350506102c48860808901610213565b91506102d38860a08901610213565b90509295509295509295565b610400806102ee6000396000f3fe6080604052600436106100295760003560e01c80636e57b7001461002b578063f60ca60d1461005a575b005b34801561003757600080fd5b5061004061006f565b604051610051959493929190610377565b60405180910390f35b34801561006657600080fd5b506100406101d4565b6005546003805460408051602060026101006001861615026000190190941693909304601f810184900484028201840190925281815260609485946000948594859492936004936001600160a01b03821693600160a01b830463ffffffff90811694600160c01b9094041692879183018282801561012e5780601f106101035761010080835404028352916020019161012e565b820191906000526020600020905b81548152906001019060200180831161011157829003601f168201915b5050875460408051602060026001851615610100026000190190941693909304601f8101849004840282018401909252818152959a50899450925084019050828280156101bc5780601f10610191576101008083540402835291602001916101bc565b820191906000526020600020905b81548152906001019060200180831161019f57829003601f168201915b50505050509350945094509450945094509091929394565b60038054604080516020601f6002600019610100600188161502019095169490940493840181900481028201810190925282815291839183018282801561025c5780601f106102315761010080835404028352916020019161025c565b820191906000526020600020905b81548152906001019060200180831161023f57829003601f168201915b505050505090806001018054600181600116156101000203166002900480601f0160208091040260200160405190810160405280929190818152602001828054600181600116156101000203166002900480156102fa5780601f106102cf576101008083540402835291602001916102fa565b820191906000526020600020905b8154815290600101906020018083116102dd57829003601f168201915b505050600290930154919250506001600160a01b0381169063ffffffff600160a01b8204811691600160c01b90041685565b60008151808452815b8181101561035157602081850181015186830182015201610335565b818111156103625782602083870101525b50601f01601f19169290920160200192915050565b600060a0825261038a60a083018861032c565b828103602084015261039c818861032c565b6001600160a01b03969096166040840152505063ffffffff928316606082015291166080909101529291505056fea264697066735822122080588c8e911291e0372f170eac2a5e6d0036468c4e6868aca5ddbe55cb4223b464736f6c63430006020033",
  "source": "pragma solidity ^0.6.2;\npragma experimental ABIEncoderV2;\n\nenum Status {Free, Requested, Donated, Inactive, Burned}\n\nstruct Asset {\n    uint32 assetId;\n    string assetTitle;\n    string assetDescription;\n    uint32 availablityDate;\n    string location;\n    Status status;\n    address owner;\n    address recipient;\n    uint32 donatedDateFrom;\n    uint32 donatedDateTo;\n    uint32 requestCount;\n    string imageIPFSHash;\n}\n\ncontract ProjectFunding {\n    address owner;\n    Asset[] donatedAssets;\n    uint32 balance;\n    Project public project;\n\n    struct Project {\n        string projectTitle;\n        string projectDescription;\n        address projectOwner;\n        uint32 projectKickOffMinBalance;\n        uint32 projectKickOffTime;\n    }\n\n    constructor(\n        address _owner,\n        uint32 initialBalance,\n        string memory _projectDescription,\n        string memory _projectTitle,\n        uint32 _projectKickOffTime,\n        uint32 _projectKickOffMinBalance\n    ) public payable {\n        owner = _owner;\n        balance = initialBalance;\n        project.projectDescription = _projectDescription;\n        project.projectOwner = _owner;\n        project.projectTitle = _projectTitle;\n        project.projectKickOffTime = _projectKickOffTime;\n        project.projectKickOffMinBalance = _projectKickOffMinBalance;\n    }\n\n    // function getProject() public view returns (Project memory) {\n    //     return project;\n    // }\n\n    function getProject()\n        public\n        view\n        returns (\n            string memory,\n            string memory,\n            address,\n            uint32,\n            uint32\n        )\n    {\n        return (\n            project.projectTitle,\n            project.projectDescription,\n            project.projectOwner,\n            project.projectKickOffMinBalance,\n            project.projectKickOffTime\n        );\n    }\n\n    fallback() external payable {}\n}\n",
  "sourcePath": "/home/fatemeh/Desktop/Consensys Course/assetdonation/AssetDonation/contracts/ProjectFunding.sol",
  "compiler": {
    "name": "solc",
    "version": "0.6.2+commit.bacdbe57.Emscripten.clang"
  },
  "schemaVersion": "3.3.1",
  "updatedAt": "2020-12-13T00:41:01.379Z",
  "devdoc": {
    "methods": {}
  },
  "userdoc": {
    "methods": {}
  }
}