{
  "contractName": "ReceiveAsset",
  "abi": [
    {
      "inputs": [
        {
          "internalType": "address",
          "name": "_DA",
          "type": "address"
        }
      ],
      "stateMutability": "nonpayable",
      "type": "constructor"
    },
    {
      "anonymous": false,
      "inputs": [
        {
          "indexed": false,
          "internalType": "uint32",
          "name": "assetId",
          "type": "uint32"
        }
      ],
      "name": "LogRequested",
      "type": "event"
    },
    {
      "anonymous": false,
      "inputs": [
        {
          "indexed": false,
          "internalType": "address",
          "name": "account",
          "type": "address"
        }
      ],
      "name": "Paused",
      "type": "event"
    },
    {
      "anonymous": false,
      "inputs": [
        {
          "indexed": true,
          "internalType": "bytes32",
          "name": "role",
          "type": "bytes32"
        },
        {
          "indexed": true,
          "internalType": "bytes32",
          "name": "previousAdminRole",
          "type": "bytes32"
        },
        {
          "indexed": true,
          "internalType": "bytes32",
          "name": "newAdminRole",
          "type": "bytes32"
        }
      ],
      "name": "RoleAdminChanged",
      "type": "event"
    },
    {
      "anonymous": false,
      "inputs": [
        {
          "indexed": true,
          "internalType": "bytes32",
          "name": "role",
          "type": "bytes32"
        },
        {
          "indexed": true,
          "internalType": "address",
          "name": "account",
          "type": "address"
        },
        {
          "indexed": true,
          "internalType": "address",
          "name": "sender",
          "type": "address"
        }
      ],
      "name": "RoleGranted",
      "type": "event"
    },
    {
      "anonymous": false,
      "inputs": [
        {
          "indexed": true,
          "internalType": "bytes32",
          "name": "role",
          "type": "bytes32"
        },
        {
          "indexed": true,
          "internalType": "address",
          "name": "account",
          "type": "address"
        },
        {
          "indexed": true,
          "internalType": "address",
          "name": "sender",
          "type": "address"
        }
      ],
      "name": "RoleRevoked",
      "type": "event"
    },
    {
      "anonymous": false,
      "inputs": [
        {
          "indexed": false,
          "internalType": "address",
          "name": "account",
          "type": "address"
        }
      ],
      "name": "Unpaused",
      "type": "event"
    },
    {
      "inputs": [],
      "name": "DEFAULT_ADMIN_ROLE",
      "outputs": [
        {
          "internalType": "bytes32",
          "name": "",
          "type": "bytes32"
        }
      ],
      "stateMutability": "view",
      "type": "function",
      "constant": true
    },
    {
      "inputs": [],
      "name": "DONOR",
      "outputs": [
        {
          "internalType": "bytes32",
          "name": "",
          "type": "bytes32"
        }
      ],
      "stateMutability": "view",
      "type": "function",
      "constant": true
    },
    {
      "inputs": [],
      "name": "RECEIVER",
      "outputs": [
        {
          "internalType": "bytes32",
          "name": "",
          "type": "bytes32"
        }
      ],
      "stateMutability": "view",
      "type": "function",
      "constant": true
    },
    {
      "inputs": [],
      "name": "addDonor",
      "outputs": [],
      "stateMutability": "nonpayable",
      "type": "function"
    },
    {
      "inputs": [],
      "name": "addReceiver",
      "outputs": [],
      "stateMutability": "nonpayable",
      "type": "function"
    },
    {
      "inputs": [
        {
          "internalType": "address",
          "name": "donorAddress",
          "type": "address"
        }
      ],
      "name": "approveDonor",
      "outputs": [],
      "stateMutability": "nonpayable",
      "type": "function"
    },
    {
      "inputs": [
        {
          "internalType": "address",
          "name": "receiverAddress",
          "type": "address"
        }
      ],
      "name": "approveReceiver",
      "outputs": [],
      "stateMutability": "nonpayable",
      "type": "function"
    },
    {
      "inputs": [
        {
          "internalType": "uint32",
          "name": "",
          "type": "uint32"
        },
        {
          "internalType": "uint32",
          "name": "",
          "type": "uint32"
        }
      ],
      "name": "assetRequestList",
      "outputs": [
        {
          "internalType": "address",
          "name": "receiver",
          "type": "address"
        },
        {
          "internalType": "string",
          "name": "requestDescription",
          "type": "string"
        },
        {
          "internalType": "uint32",
          "name": "requestDateFrom",
          "type": "uint32"
        },
        {
          "internalType": "uint32",
          "name": "requestDateTo",
          "type": "uint32"
        }
      ],
      "stateMutability": "view",
      "type": "function",
      "constant": true
    },
    {
      "inputs": [
        {
          "internalType": "address",
          "name": "",
          "type": "address"
        }
      ],
      "name": "donors",
      "outputs": [
        {
          "internalType": "bool",
          "name": "",
          "type": "bool"
        }
      ],
      "stateMutability": "view",
      "type": "function",
      "constant": true
    },
    {
      "inputs": [
        {
          "internalType": "bytes32",
          "name": "role",
          "type": "bytes32"
        }
      ],
      "name": "getRoleAdmin",
      "outputs": [
        {
          "internalType": "bytes32",
          "name": "",
          "type": "bytes32"
        }
      ],
      "stateMutability": "view",
      "type": "function",
      "constant": true
    },
    {
      "inputs": [
        {
          "internalType": "bytes32",
          "name": "role",
          "type": "bytes32"
        },
        {
          "internalType": "uint256",
          "name": "index",
          "type": "uint256"
        }
      ],
      "name": "getRoleMember",
      "outputs": [
        {
          "internalType": "address",
          "name": "",
          "type": "address"
        }
      ],
      "stateMutability": "view",
      "type": "function",
      "constant": true
    },
    {
      "inputs": [
        {
          "internalType": "bytes32",
          "name": "role",
          "type": "bytes32"
        }
      ],
      "name": "getRoleMemberCount",
      "outputs": [
        {
          "internalType": "uint256",
          "name": "",
          "type": "uint256"
        }
      ],
      "stateMutability": "view",
      "type": "function",
      "constant": true
    },
    {
      "inputs": [
        {
          "internalType": "bytes32",
          "name": "role",
          "type": "bytes32"
        },
        {
          "internalType": "address",
          "name": "account",
          "type": "address"
        }
      ],
      "name": "grantRole",
      "outputs": [],
      "stateMutability": "nonpayable",
      "type": "function"
    },
    {
      "inputs": [
        {
          "internalType": "bytes32",
          "name": "role",
          "type": "bytes32"
        },
        {
          "internalType": "address",
          "name": "account",
          "type": "address"
        }
      ],
      "name": "hasRole",
      "outputs": [
        {
          "internalType": "bool",
          "name": "",
          "type": "bool"
        }
      ],
      "stateMutability": "view",
      "type": "function",
      "constant": true
    },
    {
      "inputs": [],
      "name": "pause",
      "outputs": [],
      "stateMutability": "nonpayable",
      "type": "function"
    },
    {
      "inputs": [],
      "name": "paused",
      "outputs": [
        {
          "internalType": "bool",
          "name": "",
          "type": "bool"
        }
      ],
      "stateMutability": "view",
      "type": "function",
      "constant": true
    },
    {
      "inputs": [
        {
          "internalType": "address",
          "name": "",
          "type": "address"
        }
      ],
      "name": "receivers",
      "outputs": [
        {
          "internalType": "bool",
          "name": "",
          "type": "bool"
        }
      ],
      "stateMutability": "view",
      "type": "function",
      "constant": true
    },
    {
      "inputs": [
        {
          "internalType": "bytes32",
          "name": "role",
          "type": "bytes32"
        },
        {
          "internalType": "address",
          "name": "account",
          "type": "address"
        }
      ],
      "name": "renounceRole",
      "outputs": [],
      "stateMutability": "nonpayable",
      "type": "function"
    },
    {
      "inputs": [
        {
          "internalType": "bytes32",
          "name": "role",
          "type": "bytes32"
        },
        {
          "internalType": "address",
          "name": "account",
          "type": "address"
        }
      ],
      "name": "revokeRole",
      "outputs": [],
      "stateMutability": "nonpayable",
      "type": "function"
    },
    {
      "inputs": [],
      "name": "unpause",
      "outputs": [],
      "stateMutability": "nonpayable",
      "type": "function"
    },
    {
      "inputs": [
        {
          "internalType": "uint32",
          "name": "assetId",
          "type": "uint32"
        },
        {
          "internalType": "uint256",
          "name": "requestCount",
          "type": "uint256"
        }
      ],
      "name": "getDonationRequests",
      "outputs": [
        {
          "components": [
            {
              "internalType": "address",
              "name": "receiver",
              "type": "address"
            },
            {
              "internalType": "string",
              "name": "requestDescription",
              "type": "string"
            },
            {
              "internalType": "uint32",
              "name": "requestDateFrom",
              "type": "uint32"
            },
            {
              "internalType": "uint32",
              "name": "requestDateTo",
              "type": "uint32"
            }
          ],
          "internalType": "struct ReceiveAsset.Request[16]",
          "name": "",
          "type": "tuple[16]"
        }
      ],
      "stateMutability": "view",
      "type": "function",
      "constant": true
    },
    {
      "inputs": [
        {
          "internalType": "uint32",
          "name": "assetId",
          "type": "uint32"
        },
        {
          "internalType": "string",
          "name": "requestDescription",
          "type": "string"
        },
        {
          "internalType": "uint32",
          "name": "requestDateFrom",
          "type": "uint32"
        },
        {
          "internalType": "uint32",
          "name": "requestDateTo",
          "type": "uint32"
        }
      ],
      "name": "requestAsset",
      "outputs": [],
      "stateMutability": "nonpayable",
      "type": "function"
    },
    {
      "inputs": [
        {
          "internalType": "uint32",
          "name": "assetId",
          "type": "uint32"
        },
        {
          "internalType": "uint32",
          "name": "requestId",
          "type": "uint32"
        }
      ],
      "name": "getRequest",
      "outputs": [
        {
          "internalType": "address",
          "name": "receiver",
          "type": "address"
        },
        {
          "internalType": "string",
          "name": "requestDescription",
          "type": "string"
        },
        {
          "internalType": "uint32",
          "name": "requestDateFrom",
          "type": "uint32"
        },
        {
          "internalType": "uint32",
          "name": "requestDateTo",
          "type": "uint32"
        }
      ],
      "stateMutability": "view",
      "type": "function",
      "constant": true
    }
  ],
  "bytecode": "0x60806040523480156200001157600080fd5b5060405162001857380380620018578339810160408190526200003491620001c1565b6001805461ffff1916610100179055620000596000336001600160e01b036200008916565b600480546001600160a01b0319166001600160a01b03929092169190911763ffffffff60a01b19169055620001f1565b6200009e82826001600160e01b03620000a216565b5050565b600082815260208181526040909120620000c791839062000cf662000124821b17901c565b156200009e57620000e06001600160e01b036200014d16565b6001600160a01b0316816001600160a01b0316837f2f8788117e7eff1d82e926ec794901d17c78024a50270940304540a733656f0d60405160405180910390a45050565b600062000144836001600160a01b0384166001600160e01b036200015116565b90505b92915050565b3390565b60006200016883836001600160e01b03620001a916565b620001a05750815460018181018455600084815260208082209093018490558454848252828601909352604090209190915562000147565b50600062000147565b60009081526001919091016020526040902054151590565b600060208284031215620001d3578081fd5b81516001600160a01b0381168114620001ea578182fd5b9392505050565b61165680620002016000396000f3fe608060405234801561001057600080fd5b506004361061011d5760003560e01c80630cb8150f1461012257806311cef2c41461014b578063248a9ca3146101605780632a781270146101805780632f2ff15d1461019357806336568abe146101a65780633f4ba83a146101b95780634576d251146101c15780635c975abb146101c957806367c7e979146101d157806372dbb89f146101f457806379e085a2146102075780638456cb591461020f5780638ad54512146102175780639010d07c1461021f57806391d148541461023f57806394aa613a14610252578063a217fddf14610272578063ad7430cc1461027a578063ca0cdea814610282578063ca15c87314610295578063d547741f146102a8578063f2e99622146102bb575b600080fd5b610135610130366004610ffd565b6102ce565b604051610142919061135b565b60405180910390f35b61015e6101593660046110ba565b6102e3565b005b61017361016e36600461102b565b610596565b6040516101429190611366565b61015e61018e366004610ffd565b6105ab565b61015e6101a1366004611043565b6105ec565b61015e6101b4366004611043565b610634565b61015e610676565b610173610694565b6101356106ab565b6101e46101df3660046111b4565b6106b5565b604051610142949392919061128a565b61015e610202366004610ffd565b610787565b61015e6107ba565b61015e6107ea565b61015e610806565b61023261022d36600461107d565b610836565b6040516101429190611276565b61013561024d366004611043565b61085d565b610265610260366004611189565b61087b565b60405161014291906112cc565b6101736109c1565b6101736109c6565b610135610290366004610ffd565b6109d2565b6101736102a336600461102b565b6109e7565b61015e6102b6366004611043565b6109fe565b6101e46102c93660046111b4565b610a38565b60036020526000908152604090205460ff1681565b60015460ff161561030f5760405162461bcd60e51b81526004016103069061145a565b60405180910390fd5b600480546040516321f54c2160e01b81526000926001600160a01b03909216916321f54c2191610341918991016115da565b60206040518083038186803b15801561035957600080fd5b505afa15801561036d573d6000803e3d6000fd5b505050506040513d601f19601f82011682018060405250610391919081019061109e565b60408051608081018252338152602080820188815263ffffffff8881168486015287811660608501528a8116600090815260058452858120918716815290835293909320825181546001600160a01b0319166001600160a01b0390911617815592518051949550919361040a9260018501920190610e91565b5060408201516002909101805460609093015163ffffffff908116600160201b0263ffffffff60201b199190931663ffffffff199094169390931792909216179055600101610457610f0f565b6040518061016001604052808763ffffffff168152602001604051806020016040528060008152508152602001600063ffffffff168152602001604051806020016040528060008152508152602001600160048111156104b357fe5b8152600060208083018290526040808401839052606084018390526080840183905263ffffffff871660a08501528051918201815291815260c09092019190915260048054915163f445496360e01b81529293506001600160a01b039091169163f445496391610525918591016114d3565b600060405180830381600087803b15801561053f57600080fd5b505af1158015610553573d6000803e3d6000fd5b505050507fe6391fd03f941519ec364c5bb85023284b131a59297606d04b2eb06980485ea38660405161058691906115da565b60405180910390a1505050505050565b60009081526020819052604090206002015490565b6105c86040516105ba90611251565b6040518091039020826105ec565b6001600160a01b03166000908152600260205260409020805460ff19166001179055565b60008281526020819052604090206002015461060a9061024d610b24565b6106265760405162461bcd60e51b8152600401610306906113b1565b6106308282610b28565b5050565b61063c610b24565b6001600160a01b0316816001600160a01b03161461066c5760405162461bcd60e51b815260040161030690611484565b6106308282610b97565b61068160003361085d565b61068a57600080fd5b610692610c06565b565b6040516106a090611251565b604051809103902081565b60015460ff165b90565b60056020908152600092835260408084208252918352918190208054600180830180548551600261010094831615949094026000190190911692909204601f81018790048702830187019095528482526001600160a01b0390921694929390928301828280156107665780601f1061073b57610100808354040283529160200191610766565b820191906000526020600020905b81548152906001019060200180831161074957829003601f168201915b5050506002909301549192505063ffffffff80821691600160201b90041684565b6107966040516105ba90611262565b6001600160a01b03166000908152600360205260409020805460ff19166001179055565b3360009081526002602052604090205460ff1661069257336000908152600260205260409020805460ff19169055565b6107f560003361085d565b6107fe57600080fd5b610692610c72565b3360009081526003602052604090205460ff1661069257336000908152600360205260409020805460ff19169055565b6000828152602081905260408120610854908363ffffffff610cca16565b90505b92915050565b6000828152602081905260408120610854908363ffffffff610cd616565b610883610f82565b61088b610f82565b63ffffffff84166000908152600560205260408120905b848163ffffffff1610156109b75763ffffffff811660009081526020838152604091829020825160808101845281546001600160a01b03168152600180830180548651600261010094831615949094026000190190911692909204601f810186900486028301860190965285825291949293858101939192919083018282801561096d5780601f106109425761010080835404028352916020019161096d565b820191906000526020600020905b81548152906001019060200180831161095057829003601f168201915b50505091835250506002919091015463ffffffff8082166020840152600160201b909104811660409092019190915284908316601081106109aa57fe5b60200201526001016108a2565b5090949350505050565b600081565b6040516106a090611262565b60026020526000908152604090205460ff1681565b600081815260208190526040812061085790610ceb565b600082815260208190526040902060020154610a1c9061024d610b24565b61066c5760405162461bcd60e51b81526004016103069061141c565b63ffffffff828116600090815260056020908152604080832093851683529281528282208054600180830180548751600261010094831615949094026000190190911692909204601f81018690048602830186019097528682526001600160a01b0390921695606095948594939190830182828015610af85780601f10610acd57610100808354040283529160200191610af8565b820191906000526020600020905b815481529060010190602001808311610adb57829003601f168201915b5050506002909301549195505063ffffffff8082169450600160201b9091041691505092959194509250565b3390565b6000828152602081905260409020610b46908263ffffffff610cf616565b1561063057610b53610b24565b6001600160a01b0316816001600160a01b0316837f2f8788117e7eff1d82e926ec794901d17c78024a50270940304540a733656f0d60405160405180910390a45050565b6000828152602081905260409020610bb5908263ffffffff610d0b16565b1561063057610bc2610b24565b6001600160a01b0316816001600160a01b0316837ff6391f5c32d9c69d2a47ea670b442974b53935d1edc7fd64eb21e047a839171b60405160405180910390a45050565b60015460ff16610c285760405162461bcd60e51b8152600401610306906113ee565b6001805460ff191690557f5db9ee0a495bf2e6ff9c91a7834c1ba4fdd244a5e8aa4e537bd38aeae4b073aa610c5b610b24565b604051610c689190611276565b60405180910390a1565b60015460ff1615610c955760405162461bcd60e51b81526004016103069061145a565b6001805460ff1916811790557f62e78cea01bee320cd4e420270b5ea74000d11b0c9f74754ebdbfc544b05a258610c5b610b24565b60006108548383610d20565b6000610854836001600160a01b038416610d65565b600061085782610d7d565b6000610854836001600160a01b038416610d81565b6000610854836001600160a01b038416610dcb565b81546000908210610d435760405162461bcd60e51b81526004016103069061136f565b826000018281548110610d5257fe5b9060005260206000200154905092915050565b60009081526001919091016020526040902054151590565b5490565b6000610d8d8383610d65565b610dc357508154600181810184556000848152602080822090930184905584548482528286019093526040902091909155610857565b506000610857565b60008181526001830160205260408120548015610e875783546000198083019190810190600090879083908110610dfe57fe5b9060005260206000200154905080876000018481548110610e1b57fe5b600091825260208083209091019290925582815260018981019092526040902090840190558654879080610e4b57fe5b60019003818190600052602060002001600090559055866001016000878152602001908152602001600020600090556001945050505050610857565b6000915050610857565b828054600181600116156101000203166002900490600052602060002090601f016020900481019282601f10610ed257805160ff1916838001178555610eff565b82800160010185558215610eff579182015b82811115610eff578251825591602001919060010190610ee4565b50610f0b929150610fb0565b5090565b604051806101600160405280600063ffffffff16815260200160608152602001600063ffffffff1681526020016060815260200160006004811115610f5057fe5b81526000602082018190526040820181905260608083018290526080830182905260a083019190915260c09091015290565b6040518061020001604052806010905b610f9a610fca565b815260200190600190039081610f925790505090565b6106b291905b80821115610f0b5760008155600101610fb6565b6040805160808101825260008082526060602083018190529282018190529181019190915290565b8035610857816115eb565b60006020828403121561100e578081fd5b81356001600160a01b0381168114611024578182fd5b9392505050565b60006020828403121561103c578081fd5b5035919050565b60008060408385031215611055578081fd5b8235915060208301356001600160a01b0381168114611072578182fd5b809150509250929050565b6000806040838503121561108f578182fd5b50508035926020909101359150565b6000602082840312156110af578081fd5b8151611024816115eb565b600080600080608085870312156110cf578182fd5b84356110da816115eb565b93506020858101356001600160401b03808211156110f6578485fd5b81880189601f820112611107578586fd5b8035925081831115611117578586fd5b604051601f8401601f1916810185018381118282101715611136578788fd5b60405283815281840185018b101561114c578687fd5b838583018683013792830190930185905250935061116f90508660408701610ff2565b915061117e8660608701610ff2565b905092959194509250565b6000806040838503121561119b578182fd5b82356111a6816115eb565b946020939093013593505050565b600080604083850312156111c6578182fd5b82356111d1816115eb565b91506020830135611072816115eb565b6001600160a01b03169052565b600581106111f857fe5b9052565b60008151808452815b8181101561122157602081850181015186830182015201611205565b818111156112325782602083870101525b50601f01601f19169290920160200192915050565b63ffffffff169052565b642227a727a960d91b815260050190565b672922a1a2a4ab22a960c11b815260080190565b6001600160a01b0391909116815260200190565b6001600160a01b03851681526080602082018190526000906112ae908301866111fc565b63ffffffff9485166040840152929093166060909101529392505050565b6020808252600090610220830183820185845b601081101561134f57868403601f19018352815180516001600160a01b0316855285810151608087870181905290611319828801826111fc565b60408481015163ffffffff908116918a0191909152606094850151169390970192909252505091840191908401906001016112df565b50919695505050505050565b901515815260200190565b90815260200190565b60208082526022908201527f456e756d657261626c655365743a20696e646578206f7574206f6620626f756e604082015261647360f01b606082015260800190565b6020808252602f9082015260008051602061160183398151915260408201526e0818591b5a5b881d1bc819dc985b9d608a1b606082015260800190565b60208082526014908201527314185d5cd8589b194e881b9bdd081c185d5cd95960621b604082015260600190565b602080825260309082015260008051602061160183398151915260408201526f2061646d696e20746f207265766f6b6560801b606082015260800190565b60208082526010908201526f14185d5cd8589b194e881c185d5cd95960821b604082015260600190565b6020808252602f908201527f416363657373436f6e74726f6c3a2063616e206f6e6c792072656e6f756e636560408201526e103937b632b9903337b91039b2b63360891b606082015260800190565b6000602082526114e7602083018451611247565b60208301516101608060408501526115036101808501836111fc565b604086015192506115176060860184611247565b60608601519250601f198086830301608087015261153582856111fc565b6080880151945061154960a08801866111ee565b60a0880151945061155d60c08801866111e1565b60c0880151945061157160e08801866111e1565b60e08801519450610100925061158983880186611247565b9187015193506101209161159f87840186611247565b918701519350610140916115b587840186611247565b8288015194508187820301848801526115ce81866111fc565b98975050505050505050565b63ffffffff91909116815260200190565b63ffffffff811681146115fd57600080fd5b5056fe416363657373436f6e74726f6c3a2073656e646572206d75737420626520616ea264697066735822122079afebcc06c0bc57c4a2f566c416289ca3d8247b349a859a67c1e264f973ff1764736f6c63430006020033",
  "source": "pragma solidity ^0.6.2;\npragma experimental ABIEncoderV2;\n\ncontract DonateAsset {\n    function getAssetRequestCount(uint32 assetId)\n        public\n        view\n        returns (uint32)\n    {}\n\n    function UpdateAsset(Asset memory asset) public {}\n}\n\nimport \"@openzeppelin/contracts/token/ERC721/ERC721.sol\";\nimport \"@openzeppelin/contracts/access/AccessControl.sol\";\nimport './Administration.sol';\n\n/// @title A Asset donation smart contract\n/// @author Fatemeh Heidari Soureshjani\n/// @notice This contract facilitates donation of physical assets for specific periods of time between asset owners and receivers\n/// @dev time\nenum Status {Free, Requested, Donated, Inactive, Burned}\n\nstruct Asset {\n    uint32 assetId;\n    string assetDescription;\n    uint32 availablityDate;\n    string location;\n    Status status;\n    address owner;\n    address recipient;\n    uint32 donatedDateFrom;\n    uint32 donatedDateTo;\n    uint32 requestCount;\n    string imageIPFSHash;\n}\n\ncontract ReceiveAsset is Administration{\n\n    DonateAsset DA;\n    uint32 lastRequestId;\n\n    constructor(address _DA) public Administration() {\n        DA = DonateAsset(_DA);\n        lastRequestId = 0;\n    }\n\n    struct Request {\n        address receiver;\n        string requestDescription;\n        uint32 requestDateFrom;\n        uint32 requestDateTo;\n    }\n    mapping(uint32 => mapping(uint32 => Request)) public assetRequestList;\n\n    event LogRequested(uint32 assetId);\n\n    /// @notice retrieves all request for a specific donation\n    /// @dev There must be better way than returing always an array of 16\n    /// @param assetId the unique asset id of donation\n    /// @return Request returns an array of type Request and length 16\n    function getDonationRequests(\n        uint32 assetId,\n        uint256 requestCount\n    ) public view returns (Request[16] memory) {\n        Request[16] memory requestArray;\n            mapping(uint32 => Request) storage requestMapping\n         = assetRequestList[assetId];\n        for (uint32 i = 0; i < requestCount; i++) {\n            requestArray[i] = requestMapping[i];\n        }\n        return requestArray;\n    }\n\n    /// @notice A receiver can register a request for a specific donation previousely added\n    /// @notice to list of donation by a donor\n    /// @dev date conflicts can be checked\n    /// @param assetId The unique id of donation\n    /// @param requestDescription The description entered by the receiver\n    /// @param requestDateFrom The starting date receiver needs this asset\n    /// @param requestDateTo The ending date receiver needs this asset\n    function requestAsset(\n        uint32 assetId,\n        string memory requestDescription,\n        uint32 requestDateFrom,\n        uint32 requestDateTo\n    ) public\n             whenNotPaused{\n        uint32 requestCount = DA.getAssetRequestCount(assetId); ///donationList[assetId];\n        //if (requestedItem.requestCount < maxNoOfReqsPerAsst) {\n        assetRequestList[assetId][requestCount] = Request({\n            receiver: msg.sender,\n            requestDescription: requestDescription,\n            requestDateFrom: requestDateFrom,\n            requestDateTo: requestDateTo\n        });\n        requestCount++;\n        Asset memory asset = Asset({\n            assetId: assetId,\n            assetDescription: \"\",\n            availablityDate: 0,\n            location: \"\",\n            status: Status.Requested,\n            owner: address(0),\n            recipient: address(0),\n            donatedDateFrom: 0,\n            donatedDateTo: 0,\n            requestCount: requestCount,\n            imageIPFSHash: \"\"\n        });\n        DA.UpdateAsset(asset);\n        emit LogRequested(assetId);\n        //donationList[assetId].status = Status.Requested;\n        //requestedItem.requestCount++;\n    }\n\n    function getRequest(uint32 assetId, uint32 requestId)\n        public\n        view\n        returns (\n            address receiver,\n            string memory requestDescription,\n            uint32 requestDateFrom,\n            uint32 requestDateTo\n        )\n    {\n        Request storage request = assetRequestList[assetId][requestId];\n        receiver = request.receiver;\n        requestDescription = request.requestDescription;\n        requestDateFrom = request.requestDateFrom;\n        requestDateTo = request.requestDateTo;\n        return (receiver, requestDescription, requestDateFrom, requestDateTo);\n    }\n}\n",
  "sourcePath": "/home/fatemeh/Desktop/Consensys Course/assetdonation/AssetDonation/contracts/ReceiveAsset.sol",
  "compiler": {
    "name": "solc",
    "version": "0.6.2+commit.bacdbe57.Emscripten.clang"
  },
  "schemaVersion": "3.3.1",
  "updatedAt": "2020-12-07T00:12:52.699Z",
  "networkType": "ethereum",
  "devdoc": {
    "methods": {
      "approveDonor(address)": {
        "params": {
          "donorAddress": "The address of donor to be approved"
        }
      },
      "approveReceiver(address)": {
        "params": {
          "receiverAddress": "The address of receiver to be approved"
        }
      },
      "getDonationRequests(uint32,uint256)": {
        "details": "There must be better way than returing always an array of 16",
        "params": {
          "assetId": "the unique asset id of donation"
        },
        "returns": {
          "_0": "Request returns an array of type Request and length 16"
        }
      },
      "getRoleAdmin(bytes32)": {
        "details": "Returns the admin role that controls `role`. See {grantRole} and {revokeRole}.     * To change a role's admin, use {_setRoleAdmin}."
      },
      "getRoleMember(bytes32,uint256)": {
        "details": "Returns one of the accounts that have `role`. `index` must be a value between 0 and {getRoleMemberCount}, non-inclusive.     * Role bearers are not sorted in any particular way, and their ordering may change at any point.     * WARNING: When using {getRoleMember} and {getRoleMemberCount}, make sure you perform all queries on the same block. See the following https://forum.openzeppelin.com/t/iterating-over-elements-on-enumerableset-in-openzeppelin-contracts/2296[forum post] for more information."
      },
      "getRoleMemberCount(bytes32)": {
        "details": "Returns the number of accounts that have `role`. Can be used together with {getRoleMember} to enumerate all bearers of a role."
      },
      "grantRole(bytes32,address)": {
        "details": "Grants `role` to `account`.     * If `account` had not been already granted `role`, emits a {RoleGranted} event.     * Requirements:     * - the caller must have ``role``'s admin role."
      },
      "hasRole(bytes32,address)": {
        "details": "Returns `true` if `account` has been granted `role`."
      },
      "paused()": {
        "details": "Returns true if the contract is paused, and false otherwise."
      },
      "renounceRole(bytes32,address)": {
        "details": "Revokes `role` from the calling account.     * Roles are often managed via {grantRole} and {revokeRole}: this function's purpose is to provide a mechanism for accounts to lose their privileges if they are compromised (such as when a trusted device is misplaced).     * If the calling account had been granted `role`, emits a {RoleRevoked} event.     * Requirements:     * - the caller must be `account`."
      },
      "requestAsset(uint32,string,uint32,uint32)": {
        "details": "date conflicts can be checked",
        "params": {
          "assetId": "The unique id of donation",
          "requestDateFrom": "The starting date receiver needs this asset",
          "requestDateTo": "The ending date receiver needs this asset",
          "requestDescription": "The description entered by the receiver"
        }
      },
      "revokeRole(bytes32,address)": {
        "details": "Revokes `role` from `account`.     * If `account` had been granted `role`, emits a {RoleRevoked} event.     * Requirements:     * - the caller must have ``role``'s admin role."
      }
    }
  },
  "userdoc": {
    "methods": {
      "addReceiver()": {
        "notice": "Adds an address to list of receivers"
      },
      "approveDonor(address)": {
        "notice": "Admin approves an address to have the donor role"
      },
      "approveReceiver(address)": {
        "notice": "Admin approves an address to have the receiver role"
      },
      "getDonationRequests(uint32,uint256)": {
        "notice": "retrieves all request for a specific donation"
      },
      "requestAsset(uint32,string,uint32,uint32)": {
        "notice": "A receiver can register a request for a specific donation previousely addedto list of donation by a donor"
      }
    }
  }
}