{
  "contractName": "ReceiveAsset",
  "abi": [
    {
      "inputs": [
        {
          "internalType": "address",
          "name": "_da",
          "type": "address"
        },
        {
          "internalType": "address",
          "name": "_adm",
          "type": "address"
        }
      ],
      "stateMutability": "nonpayable",
      "type": "constructor"
    },
    {
      "anonymous": false,
      "inputs": [
        {
          "indexed": false,
          "internalType": "uint32",
          "name": "assetId",
          "type": "uint32"
        }
      ],
      "name": "LogRequested",
      "type": "event"
    },
    {
      "inputs": [
        {
          "internalType": "uint32",
          "name": "",
          "type": "uint32"
        },
        {
          "internalType": "uint32",
          "name": "",
          "type": "uint32"
        }
      ],
      "name": "assetRequestList",
      "outputs": [
        {
          "internalType": "address",
          "name": "receiver",
          "type": "address"
        },
        {
          "internalType": "string",
          "name": "requestDescription",
          "type": "string"
        },
        {
          "internalType": "uint32",
          "name": "requestDateFrom",
          "type": "uint32"
        },
        {
          "internalType": "uint32",
          "name": "requestDateTo",
          "type": "uint32"
        },
        {
          "internalType": "enum ReceiveAsset.RequestStatus",
          "name": "status",
          "type": "uint8"
        }
      ],
      "stateMutability": "view",
      "type": "function",
      "constant": true
    },
    {
      "inputs": [
        {
          "internalType": "uint32",
          "name": "assetId",
          "type": "uint32"
        },
        {
          "internalType": "uint256",
          "name": "requestCount",
          "type": "uint256"
        }
      ],
      "name": "getDonationRequests",
      "outputs": [
        {
          "components": [
            {
              "internalType": "address",
              "name": "receiver",
              "type": "address"
            },
            {
              "internalType": "string",
              "name": "requestDescription",
              "type": "string"
            },
            {
              "internalType": "uint32",
              "name": "requestDateFrom",
              "type": "uint32"
            },
            {
              "internalType": "uint32",
              "name": "requestDateTo",
              "type": "uint32"
            },
            {
              "internalType": "enum ReceiveAsset.RequestStatus",
              "name": "status",
              "type": "uint8"
            }
          ],
          "internalType": "struct ReceiveAsset.Request[16]",
          "name": "",
          "type": "tuple[16]"
        }
      ],
      "stateMutability": "view",
      "type": "function",
      "constant": true
    },
    {
      "inputs": [
        {
          "internalType": "uint32",
          "name": "assetId",
          "type": "uint32"
        },
        {
          "internalType": "string",
          "name": "requestDescription",
          "type": "string"
        },
        {
          "internalType": "uint32",
          "name": "requestDateFrom",
          "type": "uint32"
        },
        {
          "internalType": "uint32",
          "name": "requestDateTo",
          "type": "uint32"
        }
      ],
      "name": "requestAsset",
      "outputs": [],
      "stateMutability": "nonpayable",
      "type": "function"
    },
    {
      "inputs": [
        {
          "internalType": "uint32",
          "name": "assetId",
          "type": "uint32"
        },
        {
          "internalType": "uint32",
          "name": "requestId",
          "type": "uint32"
        }
      ],
      "name": "getRequest",
      "outputs": [
        {
          "internalType": "address",
          "name": "receiver",
          "type": "address"
        },
        {
          "internalType": "string",
          "name": "requestDescription",
          "type": "string"
        },
        {
          "internalType": "uint32",
          "name": "requestDateFrom",
          "type": "uint32"
        },
        {
          "internalType": "uint32",
          "name": "requestDateTo",
          "type": "uint32"
        }
      ],
      "stateMutability": "view",
      "type": "function",
      "constant": true
    }
  ],
  "bytecode": "0x608060405234801561001057600080fd5b50604051610f7b380380610f7b83398101604081905261002f9161006e565b600080546001600160a01b03199081166001600160a01b039384161790915560018054909116929091169190911763ffffffff60a01b191690556100bf565b60008060408385031215610080578182fd5b825161008b816100a7565b602084015190925061009c816100a7565b809150509250929050565b6001600160a01b03811681146100bc57600080fd5b50565b610ead806100ce6000396000f3fe608060405234801561001057600080fd5b506004361061004c5760003560e01c806311cef2c41461005157806367c7e9791461006657806394aa613a14610093578063f2e99622146100b3575b600080fd5b61006461005f36600461099d565b6100d6565b005b610079610074366004610a97565b610463565b60405161008a959493929190610b81565b60405180910390f35b6100a66100a1366004610a6c565b610540565b60405161008a9190610bd4565b6100c66100c1366004610a97565b6106ad565b60405161008a9493929190610b3f565b6000809054906101000a90046001600160a01b03166001600160a01b0316639d2f83f06040518163ffffffff1660e01b8152600401602060405180830381600087803b15801561012557600080fd5b505af1158015610139573d6000803e3d6000fd5b505050506040513d601f19601f8201168201806040525061015d9190810190610961565b156101835760405162461bcd60e51b815260040161017a90610cae565b60405180910390fd5b6001546040516321f54c2160e01b81526000916001600160a01b0316906321f54c21906101b4908890600401610e47565b60206040518083038186803b1580156101cc57600080fd5b505afa1580156101e0573d6000803e3d6000fd5b505050506040513d601f19601f820116820180604052506102049190810190610981565b90506040518060a00160405280336001600160a01b031681526020018581526020018463ffffffff1681526020018363ffffffff1681526020016000600281111561024b57fe5b905263ffffffff86811660009081526002602090815260408083209386168352928152919020825181546001600160a01b0319166001600160a01b0390911617815582820151805191926102a7926001850192909101906107ea565b50604082015160028083018054606086015163ffffffff908116600160201b0263ffffffff60201b199190951663ffffffff199092169190911716929092178083556080850151929160ff60401b1990911690600160401b90849081111561030b57fe5b02179055509050507fe6391fd03f941519ec364c5bb85023284b131a59297606d04b2eb06980485ea3856040516103429190610e47565b60405180910390a161036361035e8263ffffffff166001610795565b6107c1565b905061036d610864565b50604080516101808101825263ffffffff8781168252825160208082018552600080835281850192909252845180820186528281528486015260608401829052845180820186528281526080850152600160a0850181905260c0850183905260e085018390526101008501839052610120850183905292861661014085015284519081018552908152610160830152549151630dbca0af60e31b815290916001600160a01b031690636de5057890610429908490600401610d2a565b600060405180830381600087803b15801561044357600080fd5b505af1158015610457573d6000803e3d6000fd5b50505050505050505050565b600260208181526000938452604080852082529284529282902080546001808301805486516101009382161593909302600019011694909404601f81018790048702820187019095528481526001600160a01b039091169491939092918301828280156105115780601f106104e657610100808354040283529160200191610511565b820191906000526020600020905b8154815290600101906020018083116104f457829003601f168201915b5050506002909301549192505063ffffffff80821691600160201b81049091169060ff600160401b9091041685565b6105486108de565b6105506108de565b63ffffffff84166000908152600260205260408120905b848163ffffffff1610156106a15763ffffffff811660009081526020838152604091829020825160a08101845281546001600160a01b03168152600180830180548651600261010094831615949094026000190190911692909204601f81018690048602830186019096528582529194929385810193919291908301828280156106325780601f1061060757610100808354040283529160200191610632565b820191906000526020600020905b81548152906001019060200180831161061557829003601f168201915b505050918352505060028281015463ffffffff8082166020850152600160201b8204166040840152606090920191600160401b900460ff169081111561067457fe5b600281111561067f57fe5b9052508363ffffffff83166010811061069457fe5b6020020152600101610567565b50909150505b92915050565b63ffffffff8281166000908152600260208181526040808420948616845293815283832080546001808301805488516101009382161593909302600019011695909504601f81018590048502820185019097528681526001600160a01b03909116956060959485949091908301828280156107695780601f1061073e57610100808354040283529160200191610769565b820191906000526020600020905b81548152906001019060200180831161074c57829003601f168201915b5050506002909301549195505063ffffffff8082169450600160201b9091041691505092959194509250565b6000828201838110156107ba5760405162461bcd60e51b815260040161017a90610c79565b9392505050565b6000600160201b82106107e65760405162461bcd60e51b815260040161017a90610ce4565b5090565b828054600181600116156101000203166002900490600052602060002090601f016020900481019282601f1061082b57805160ff1916838001178555610858565b82800160010185558215610858579182015b8281111561085857825182559160200191906001019061083d565b506107e692915061090c565b604051806101800160405280600063ffffffff1681526020016060815260200160608152602001600063ffffffff16815260200160608152602001600060048111156108ac57fe5b81526000602082018190526040820181905260608083018290526080830182905260a083019190915260c09091015290565b6040518061020001604052806010905b6108f6610929565b8152602001906001900390816108ee5790505090565b61092691905b808211156107e65760008155600101610912565b90565b6040805160a081018252600080825260606020830181905292820181905291810182905290608082015290565b80356106a781610e65565b600060208284031215610972578081fd5b815180151581146107ba578182fd5b600060208284031215610992578081fd5b81516107ba81610e65565b600080600080608085870312156109b2578283fd5b84356109bd81610e65565b93506020858101356001600160401b03808211156109d9578586fd5b81880189601f8201126109ea578687fd5b80359250818311156109fa578687fd5b604051601f8401601f1916810185018381118282101715610a19578889fd5b60405283815281840185018b1015610a2f578788fd5b8385830186830137928301909301959095529350610a5290508660408701610956565b9150610a618660608701610956565b905092959194509250565b60008060408385031215610a7e578182fd5b8235610a8981610e65565b946020939093013593505050565b60008060408385031215610aa9578182fd5b8235610ab481610e65565b91506020830135610ac481610e65565b809150509250929050565b6001600160a01b03169052565b60058110610ae657fe5b9052565b60008151808452815b81811015610b0f57602081850181015186830182015201610af3565b81811115610b205782602083870101525b50601f01601f19169290920160200192915050565b63ffffffff169052565b6001600160a01b0385168152608060208201819052600090610b6390830186610aea565b63ffffffff9485166040840152929093166060909101529392505050565b6001600160a01b038616815260a060208201819052600090610ba590830187610aea565b63ffffffff8681166040850152851660608401529050610bc483610e58565b8260808301529695505050505050565b6020808252600090610220830183820185845b6010811015610c6d57868403601f19018352815180516001600160a01b031685528581015160a087870181905290610c2182880182610aea565b60408481015163ffffffff908116918a0191909152606080860151909116908901526080808501519093509150610c5782610e58565b9690910152509184019190840190600101610be7565b50919695505050505050565b6020808252601b908201527a536166654d6174683a206164646974696f6e206f766572666c6f7760281b604082015260600190565b6020808252601c908201527b29bcb9ba32b69034b99034b71032b6b2b933b2b731bc9039ba37b81760211b604082015260600190565b60208082526026908201527f53616665436173743a2076616c756520646f65736e27742066697420696e203360408201526532206269747360d01b606082015260800190565b600060208252610d3e602083018451610b35565b6020830151610180806040850152610d5a6101a0850183610aea565b60408601519250601f1980868303016060870152610d788285610aea565b60608801519450610d8c6080880186610b35565b60808801519450818782030160a0880152610da78186610aea565b92505060a08701519350610dbe60c0870185610adc565b60c08701519350610dd260e0870185610acf565b60e08701519350610100610de881880186610acf565b8701519350610120610dfc87820186610b35565b8701519350610140610e1087820186610b35565b8701519350610160610e2487820186610b35565b870151868303909101838701529250610e3d8184610aea565b9695505050505050565b63ffffffff91909116815260200190565b60038110610e6257fe5b50565b63ffffffff81168114610e6257600080fdfea2646970667358221220195620eff1e20283e0b8a8894d18b9fab4538d7994c9d3f41e8c260431c50fe864736f6c63430006020033",
  "source": "pragma solidity ^0.6.2;\npragma experimental ABIEncoderV2;\n\ncontract Administration {\n    function systemPaused() public returns (bool) {}\n\n    function addDonor() public {}\n}\n\ncontract DonateAsset {\n    function getAssetRequestCount(uint32 assetId)\n        public\n        view\n        returns (uint32)\n    {}\n\n    function UpdateAsset(Asset memory asset) public {}\n}\n\nimport \"@openzeppelin/contracts/token/ERC721/ERC721.sol\";\nimport \"@openzeppelin/contracts/access/AccessControl.sol\";\nimport \"@openzeppelin/contracts/math/SafeMath.sol\";\nimport \"@openzeppelin/contracts/utils/SafeCast.sol\";\n\n/// @title A Asset donation smart contract\n/// @author Fatemeh Heidari Soureshjani\n/// @notice This contract facilitates donation of physical assets for specific periods of time between asset owners and receivers\n/// @dev time\nenum Status {Free, Requested, Donated, Inactive, Burned}\n\nstruct Asset {\n    uint32 assetId;\n    string assetTitle;\n    string assetDescription;\n    uint32 availablityDate;\n    string location;\n    Status status;\n    address owner;\n    address recipient;\n    uint32 donatedDateFrom;\n    uint32 donatedDateTo;\n    uint32 requestCount;\n    string imageIPFSHash;\n}\n\ncontract ReceiveAsset {\n    Administration ADM;\n    DonateAsset DA;\n    uint32 lastRequestId;\n\n    constructor(address _da, address _adm) public {\n        ADM = Administration(_adm);\n        DA = DonateAsset(_da);\n        lastRequestId = 0;\n    }\n\n    enum RequestStatus {Open, Approved, Rejected}\n\n    struct Request {\n        address receiver;\n        string requestDescription;\n        uint32 requestDateFrom;\n        uint32 requestDateTo;\n        RequestStatus status;\n    }\n    mapping(uint32 => mapping(uint32 => Request)) public assetRequestList;\n    modifier whenNotPaused() {\n        require(!ADM.systemPaused(),\"System is in emergency stop.\");\n        _;\n    }\n    event LogRequested(uint32 assetId);\n\n    /// @notice retrieves all request for a specific donation\n    /// @dev There must be better way than returing always an array of 16\n    /// @param assetId the unique asset id of donation\n    /// @return Request returns an array of type Request and length 16\n    function getDonationRequests(uint32 assetId, uint256 requestCount)\n        public\n        view\n        returns (Request[16] memory)\n    {\n        Request[16] memory requestArray;\n\n\n            mapping(uint32 => Request) storage requestMapping\n         = assetRequestList[assetId];\n        for (uint32 i = 0; i < requestCount; i++) {\n            requestArray[i] = requestMapping[i];\n        }\n        return requestArray;\n    }\n    /// @notice A receiver can register a request for a specific donation previousely added\n    /// @notice to list of donation by a donor\n    /// @dev date conflicts can be checked\n    /// @param assetId The unique id of donation\n    /// @param requestDescription The description entered by the receiver\n    /// @param requestDateFrom The starting date receiver needs this asset\n    /// @param requestDateTo The ending date receiver needs this asset\n    function requestAsset(\n        uint32 assetId,\n        string memory requestDescription,\n        uint32 requestDateFrom,\n        uint32 requestDateTo\n    ) public whenNotPaused {\n        uint32 requestCount = DA.getAssetRequestCount(assetId); ///donationList[assetId];\n        //if (requestedItem.requestCount < maxNoOfReqsPerAsst) {\n        assetRequestList[assetId][requestCount] = Request({\n            receiver: msg.sender,\n            requestDescription: requestDescription,\n            requestDateFrom: requestDateFrom,\n            requestDateTo: requestDateTo,\n            status: RequestStatus.Open\n        });\n        emit LogRequested(assetId);\n        requestCount = SafeCast.toUint32(SafeMath.add(uint256(requestCount), 1));\n        Asset memory asset = Asset({\n            assetId: assetId,\n            assetTitle:\"\",\n            assetDescription: \"\",\n            availablityDate: 0,\n            location: \"\",\n            status: Status.Requested,\n            owner: address(0),\n            recipient: address(0),\n            donatedDateFrom: 0,\n            donatedDateTo: 0,\n            requestCount: requestCount,\n            imageIPFSHash: \"\"\n        });\n        DA.UpdateAsset(asset);\n    }\n\n    function getRequest(uint32 assetId, uint32 requestId)\n        public\n        view\n        returns (\n            address receiver,\n            string memory requestDescription,\n            uint32 requestDateFrom,\n            uint32 requestDateTo\n        )\n    {\n        Request storage request = assetRequestList[assetId][requestId];\n        receiver = request.receiver;\n        requestDescription = request.requestDescription;\n        requestDateFrom = request.requestDateFrom;\n        requestDateTo = request.requestDateTo;\n        return (receiver, requestDescription, requestDateFrom, requestDateTo);\n    }\n\n    // function approveRequest(uint32 assetId, address recipientAddress){\n\n    // }\n}\n",
  "sourcePath": "/home/fatemeh/Desktop/Consensys Course/assetdonation/AssetDonation/contracts/ReceiveAsset.sol",
  "compiler": {
    "name": "solc",
    "version": "0.6.2+commit.bacdbe57.Emscripten.clang"
  },
  "schemaVersion": "3.3.1",
  "updatedAt": "2020-12-10T22:47:26.687Z",
  "networkType": "ethereum",
  "devdoc": {
    "methods": {
      "getDonationRequests(uint32,uint256)": {
        "details": "There must be better way than returing always an array of 16",
        "params": {
          "assetId": "the unique asset id of donation"
        },
        "returns": {
          "_0": "Request returns an array of type Request and length 16"
        }
      },
      "requestAsset(uint32,string,uint32,uint32)": {
        "details": "date conflicts can be checked",
        "params": {
          "assetId": "The unique id of donation",
          "requestDateFrom": "The starting date receiver needs this asset",
          "requestDateTo": "The ending date receiver needs this asset",
          "requestDescription": "The description entered by the receiver"
        }
      }
    }
  },
  "userdoc": {
    "methods": {
      "getDonationRequests(uint32,uint256)": {
        "notice": "retrieves all request for a specific donation"
      },
      "requestAsset(uint32,string,uint32,uint32)": {
        "notice": "A receiver can register a request for a specific donation previousely addedto list of donation by a donor"
      }
    }
  }
}