{
  "contractName": "ReceiveAsset",
  "abi": [
    {
      "inputs": [
        {
          "internalType": "address",
          "name": "_da",
          "type": "address"
        },
        {
          "internalType": "address",
          "name": "_adm",
          "type": "address"
        }
      ],
      "stateMutability": "nonpayable",
      "type": "constructor"
    },
    {
      "anonymous": false,
      "inputs": [
        {
          "components": [
            {
              "internalType": "address",
              "name": "receiver",
              "type": "address"
            },
            {
              "internalType": "string",
              "name": "requestDescription",
              "type": "string"
            },
            {
              "internalType": "uint32",
              "name": "requestDateFrom",
              "type": "uint32"
            },
            {
              "internalType": "uint32",
              "name": "requestDateTo",
              "type": "uint32"
            },
            {
              "internalType": "enum ReceiveAsset.RequestStatus",
              "name": "status",
              "type": "uint8"
            },
            {
              "internalType": "enum ReceiveAsset.RequestType",
              "name": "requestType",
              "type": "uint8"
            }
          ],
          "indexed": false,
          "internalType": "struct ReceiveAsset.Request",
          "name": "r",
          "type": "tuple"
        },
        {
          "indexed": false,
          "internalType": "uint32",
          "name": "reCount",
          "type": "uint32"
        },
        {
          "indexed": false,
          "internalType": "address",
          "name": "receiver",
          "type": "address"
        }
      ],
      "name": "LogRequest",
      "type": "event"
    },
    {
      "anonymous": false,
      "inputs": [
        {
          "indexed": false,
          "internalType": "uint32",
          "name": "assetId",
          "type": "uint32"
        },
        {
          "indexed": false,
          "internalType": "address",
          "name": "recAddress",
          "type": "address"
        }
      ],
      "name": "LogRequestApproved",
      "type": "event"
    },
    {
      "anonymous": false,
      "inputs": [
        {
          "indexed": false,
          "internalType": "uint32",
          "name": "assetId",
          "type": "uint32"
        }
      ],
      "name": "LogRequested",
      "type": "event"
    },
    {
      "inputs": [
        {
          "internalType": "address",
          "name": "",
          "type": "address"
        },
        {
          "internalType": "uint32",
          "name": "",
          "type": "uint32"
        }
      ],
      "name": "addressRequestList",
      "outputs": [
        {
          "internalType": "address",
          "name": "receiver",
          "type": "address"
        },
        {
          "internalType": "string",
          "name": "requestDescription",
          "type": "string"
        },
        {
          "internalType": "uint32",
          "name": "requestDateFrom",
          "type": "uint32"
        },
        {
          "internalType": "uint32",
          "name": "requestDateTo",
          "type": "uint32"
        },
        {
          "internalType": "enum ReceiveAsset.RequestStatus",
          "name": "status",
          "type": "uint8"
        },
        {
          "internalType": "enum ReceiveAsset.RequestType",
          "name": "requestType",
          "type": "uint8"
        }
      ],
      "stateMutability": "view",
      "type": "function",
      "constant": true
    },
    {
      "inputs": [
        {
          "internalType": "uint32",
          "name": "",
          "type": "uint32"
        },
        {
          "internalType": "uint32",
          "name": "",
          "type": "uint32"
        }
      ],
      "name": "assetRequestList",
      "outputs": [
        {
          "internalType": "address",
          "name": "receiver",
          "type": "address"
        },
        {
          "internalType": "string",
          "name": "requestDescription",
          "type": "string"
        },
        {
          "internalType": "uint32",
          "name": "requestDateFrom",
          "type": "uint32"
        },
        {
          "internalType": "uint32",
          "name": "requestDateTo",
          "type": "uint32"
        },
        {
          "internalType": "enum ReceiveAsset.RequestStatus",
          "name": "status",
          "type": "uint8"
        },
        {
          "internalType": "enum ReceiveAsset.RequestType",
          "name": "requestType",
          "type": "uint8"
        }
      ],
      "stateMutability": "view",
      "type": "function",
      "constant": true
    },
    {
      "inputs": [
        {
          "internalType": "uint32",
          "name": "assetId",
          "type": "uint32"
        },
        {
          "internalType": "uint256",
          "name": "requestCount",
          "type": "uint256"
        }
      ],
      "name": "getDonationRequests",
      "outputs": [
        {
          "components": [
            {
              "internalType": "address",
              "name": "receiver",
              "type": "address"
            },
            {
              "internalType": "string",
              "name": "requestDescription",
              "type": "string"
            },
            {
              "internalType": "uint32",
              "name": "requestDateFrom",
              "type": "uint32"
            },
            {
              "internalType": "uint32",
              "name": "requestDateTo",
              "type": "uint32"
            },
            {
              "internalType": "enum ReceiveAsset.RequestStatus",
              "name": "status",
              "type": "uint8"
            },
            {
              "internalType": "enum ReceiveAsset.RequestType",
              "name": "requestType",
              "type": "uint8"
            }
          ],
          "internalType": "struct ReceiveAsset.Request[16]",
          "name": "",
          "type": "tuple[16]"
        }
      ],
      "stateMutability": "view",
      "type": "function",
      "constant": true
    },
    {
      "inputs": [
        {
          "internalType": "uint32",
          "name": "assetId",
          "type": "uint32"
        },
        {
          "internalType": "string",
          "name": "requestDescription",
          "type": "string"
        },
        {
          "internalType": "uint32",
          "name": "requestDateFrom",
          "type": "uint32"
        },
        {
          "internalType": "uint32",
          "name": "requestDateTo",
          "type": "uint32"
        }
      ],
      "name": "requestAsset",
      "outputs": [],
      "stateMutability": "nonpayable",
      "type": "function"
    },
    {
      "inputs": [
        {
          "internalType": "uint32",
          "name": "assetId",
          "type": "uint32"
        },
        {
          "internalType": "address",
          "name": "projectAddress",
          "type": "address"
        }
      ],
      "name": "requestAsset",
      "outputs": [],
      "stateMutability": "nonpayable",
      "type": "function"
    },
    {
      "inputs": [
        {
          "internalType": "address",
          "name": "receiverAddress",
          "type": "address"
        }
      ],
      "name": "getReceiver",
      "outputs": [
        {
          "components": [
            {
              "internalType": "bool",
              "name": "exists",
              "type": "bool"
            },
            {
              "internalType": "bool",
              "name": "approved",
              "type": "bool"
            },
            {
              "internalType": "uint32",
              "name": "requestCount",
              "type": "uint32"
            }
          ],
          "internalType": "struct receiver",
          "name": "",
          "type": "tuple"
        }
      ],
      "stateMutability": "view",
      "type": "function",
      "constant": true
    },
    {
      "inputs": [
        {
          "internalType": "uint32",
          "name": "assetId",
          "type": "uint32"
        },
        {
          "internalType": "uint32",
          "name": "requestId",
          "type": "uint32"
        }
      ],
      "name": "getRequest",
      "outputs": [
        {
          "internalType": "address",
          "name": "receiver",
          "type": "address"
        },
        {
          "internalType": "string",
          "name": "requestDescription",
          "type": "string"
        },
        {
          "internalType": "uint32",
          "name": "requestDateFrom",
          "type": "uint32"
        },
        {
          "internalType": "uint32",
          "name": "requestDateTo",
          "type": "uint32"
        }
      ],
      "stateMutability": "view",
      "type": "function",
      "constant": true
    },
    {
      "inputs": [
        {
          "internalType": "uint32",
          "name": "assetId",
          "type": "uint32"
        },
        {
          "internalType": "address",
          "name": "recipientAddress",
          "type": "address"
        }
      ],
      "name": "approveRequest",
      "outputs": [],
      "stateMutability": "nonpayable",
      "type": "function"
    },
    {
      "inputs": [
        {
          "internalType": "address",
          "name": "receiverAddress",
          "type": "address"
        }
      ],
      "name": "getRequests",
      "outputs": [
        {
          "components": [
            {
              "internalType": "address",
              "name": "receiver",
              "type": "address"
            },
            {
              "internalType": "string",
              "name": "requestDescription",
              "type": "string"
            },
            {
              "internalType": "uint32",
              "name": "requestDateFrom",
              "type": "uint32"
            },
            {
              "internalType": "uint32",
              "name": "requestDateTo",
              "type": "uint32"
            },
            {
              "internalType": "enum ReceiveAsset.RequestStatus",
              "name": "status",
              "type": "uint8"
            },
            {
              "internalType": "enum ReceiveAsset.RequestType",
              "name": "requestType",
              "type": "uint8"
            }
          ],
          "internalType": "struct ReceiveAsset.Request[8]",
          "name": "",
          "type": "tuple[8]"
        }
      ],
      "stateMutability": "view",
      "type": "function",
      "constant": true
    }
  ],
  "bytecode": "0x60806040523480156200001157600080fd5b5060405162001ee338038062001ee3833981016040819052620000349162000074565b600080546001600160a01b03199081166001600160a01b039384161790915560018054909116929091169190911763ffffffff60a01b19169055620000cb565b6000806040838503121562000087578182fd5b82516200009481620000b2565b6020840151909250620000a781620000b2565b809150509250929050565b6001600160a01b0381168114620000c857600080fd5b50565b611e0880620000db6000396000f3fe608060405234801561001057600080fd5b50600436106100835760003560e01c806311cef2c4146100885780633f036ce61461009d5780635296c6c0146100c657806367c7e979146100d9578063804e44f3146100fe57806383482ce21461011e57806394aa613a14610131578063c86f3a5c14610151578063f2e9962214610164575b600080fd5b61009b6100963660046116ab565b610187565b005b6100b06100ab366004611597565b61078a565b6040516100bd9190611cee565b60405180910390f35b61009b6100d4366004611676565b610818565b6100ec6100e7366004611795565b610c00565b6040516100bd96959493929190611906565b61011161010c366004611597565b610ce6565b6040516100bd91906119b7565b61009b61012c366004611676565b610e9e565b61014461013f36600461176a565b610fec565b6040516100bd9190611969565b6100ec61015f3660046115b2565b61117a565b610177610172366004611795565b611200565b6040516100bd94939291906118c4565b6000809054906101000a90046001600160a01b03166001600160a01b0316639d2f83f06040518163ffffffff1660e01b8152600401602060405180830381600087803b1580156101d657600080fd5b505af11580156101ea573d6000803e3d6000fd5b505050506040513d601f19601f8201168201806040525061020e91908101906115e9565b156102345760405162461bcd60e51b815260040161022b90611a2e565b60405180910390fd5b6000546040516369d83ed160e01b81526001600160a01b03909116906369d83ed1906102649033906004016118b0565b600060405180830381600087803b15801561027e57600080fd5b505af1158015610292573d6000803e3d6000fd5b5050505061029e61133d565b600054604051631f81b67360e11b81526001600160a01b0390911690633f036ce6906102ce9033906004016118b0565b60606040518083038186803b1580156102e657600080fd5b505afa1580156102fa573d6000803e3d6000fd5b505050506040513d601f19601f8201168201806040525061031e9190810190611605565b6001546040516321f54c2160e01b81529192506000916001600160a01b03909116906321f54c2190610354908990600401611d19565b60206040518083038186803b15801561036c57600080fd5b505afa158015610380573d6000803e3d6000fd5b505050506040513d601f19601f820116820180604052506103a4919081019061165a565b90506040518060c00160405280336001600160a01b031681526020018681526020018563ffffffff1681526020018463ffffffff168152602001600060028111156103eb57fe5b81526020016000905263ffffffff87811660009081526002602090815260408083209386168352928152919020825181546001600160a01b0319166001600160a01b03909116178155828201518051919261044e9260018501929091019061135d565b50604082015160028083018054606086015163ffffffff908116600160201b0263ffffffff60201b199190951663ffffffff199092169190911716929092178083556080850151929160ff60401b1990911690600160401b9084908111156104b257fe5b021790555060a082015160028201805460ff60481b1916600160481b8360018111156104da57fe5b0217905550505063ffffffff80871660009081526002602081815260408084208686168552825280842033855260038352818520888301516000199081019097168652909252909220825481546001600160a01b0319166001600160a01b039190911617815560018084018054949586959394610568948685019481161561010002909201909116046113d7565b5060028281018054838301805463ffffffff191663ffffffff928316178082558354600160201b9081900490931690920263ffffffff60201b1990921691909117808255915460ff600160401b918290041693919260ff60401b19169184908111156105d057fe5b0217905550600282810154908201805460ff600160481b93849004169260ff60481b199091169083600181111561060357fe5b0217905550905050600080516020611db3833981519152876040516106289190611d19565b60405180910390a17f4c760da27c95c0ed78cb08d0a38d92b3355d4d5772a6821f583949b5267968398184604001513360405161066793929190611bc7565b60405180910390a16106886106838363ffffffff1660016112e8565b611314565b915061069261144c565b50604080516101808101825263ffffffff8981168252825160208082018552600080835281850192909252845180820186528281528486015260608401829052845180820186528281526080850152600160a0850181905260c0850183905260e085018390526101008501839052610120850183905292871661014085015284519081018552908152610160830152549151630dbca0af60e31b815290916001600160a01b031690636de505789061074e908490600401611aaa565b600060405180830381600087803b15801561076857600080fd5b505af115801561077c573d6000803e3d6000fd5b505050505050505050505050565b61079261133d565b600054604051631f81b67360e11b81526001600160a01b0390911690633f036ce6906107c29085906004016118b0565b60606040518083038186803b1580156107da57600080fd5b505afa1580156107ee573d6000803e3d6000fd5b505050506040513d601f19601f820116820180604052506108129190810190611605565b92915050565b6000809054906101000a90046001600160a01b03166001600160a01b0316639d2f83f06040518163ffffffff1660e01b8152600401602060405180830381600087803b15801561086757600080fd5b505af115801561087b573d6000803e3d6000fd5b505050506040513d601f19601f8201168201806040525061089f91908101906115e9565b156108bc5760405162461bcd60e51b815260040161022b90611a2e565b6000546040516369d83ed160e01b81526001600160a01b03909116906369d83ed1906108ec9033906004016118b0565b600060405180830381600087803b15801561090657600080fd5b505af115801561091a573d6000803e3d6000fd5b50506001546040516321f54c2160e01b8152600093506001600160a01b0390911691506321f54c2190610951908690600401611d19565b60206040518083038186803b15801561096957600080fd5b505afa15801561097d573d6000803e3d6000fd5b505050506040513d601f19601f820116820180604052506109a1919081019061165a565b6040805160c0810182526001600160a01b03858116825282516020808201855260008083528185019283528486018190526060850181905260808501819052600160a0860181905263ffffffff8b811683526002845287832090891683528352959020845181546001600160a01b03191694169390931783559051805195965092949193610a35939085019291019061135d565b50604082015160028083018054606086015163ffffffff908116600160201b0263ffffffff60201b199190951663ffffffff199092169190911716929092178083556080850151929160ff60401b1990911690600160401b908490811115610a9957fe5b021790555060a082015160028201805460ff60481b1916600160481b836001811115610ac157fe5b0217905550905050600080516020611db383398151915283604051610ae69190611d19565b60405180910390a1610b026106838263ffffffff1660016112e8565b9050610b0c61144c565b50604080516101808101825263ffffffff8581168252825160208082018552600080835281850192909252845180820186528281528486015260608401829052845180820186528281526080850152600160a0850181905260c0850183905260e085018390526101008501839052610120850183905292861661014085015284519081018552908152610160830152549151630dbca0af60e31b815290916001600160a01b031690636de5057890610bc8908490600401611aaa565b600060405180830381600087803b158015610be257600080fd5b505af1158015610bf6573d6000803e3d6000fd5b5050505050505050565b600260208181526000938452604080852082529284529282902080546001808301805486516101009382161593909302600019011694909404601f81018790048702820187019095528481526001600160a01b03909116949193909291830182828015610cae5780601f10610c8357610100808354040283529160200191610cae565b820191906000526020600020905b815481529060010190602001808311610c9157829003601f168201915b5050506002909301549192505063ffffffff80821691600160201b81049091169060ff600160401b8204811691600160481b90041686565b610cee6114c6565b610cf661133d565b610cff8361078a565b9050610d096114c6565b6001600160a01b0384166000908152600360205260408120905b836040015163ffffffff168163ffffffff161015610e945763ffffffff811660009081526020838152604091829020825160c08101845281546001600160a01b03168152600180830180548651600261010094831615949094026000190190911692909204601f8101869004860283018601909652858252919492938581019391929190830182828015610df85780601f10610dcd57610100808354040283529160200191610df8565b820191906000526020600020905b815481529060010190602001808311610ddb57829003601f168201915b505050918352505060028281015463ffffffff8082166020850152600160201b8204166040840152606090920191600160401b900460ff1690811115610e3a57fe5b6002811115610e4557fe5b81526020016002820160099054906101000a900460ff166001811115610e6757fe5b6001811115610e7257fe5b9052508363ffffffff831660088110610e8757fe5b6020020152600101610d23565b5090949350505050565b63ffffffff821660009081526002602052604080822060015491516321f54c2160e01b81529092916001600160a01b0316906321f54c2190610ee4908790600401611d19565b60206040518083038186803b158015610efc57600080fd5b505afa158015610f10573d6000803e3d6000fd5b505050506040513d601f19601f82011682018060405250610f34919081019061165a565b905060005b8163ffffffff168163ffffffff161015610fe55763ffffffff81166000908152602084905260409020546001600160a01b0385811691161415610fdd5763ffffffff81166000908152602084905260409081902060028101805460ff60401b1916600160401b17905590517f8498acb3700ac1ae1066377dba19a3dbf6bc6dee3ae55d3f230e4fd5e741af8690610fd39088908890611d2a565b60405180910390a1505b600101610f39565b5050505050565b610ff46114f4565b610ffc6114f4565b63ffffffff84166000908152600260205260408120905b848163ffffffff161015610e945763ffffffff811660009081526020838152604091829020825160c08101845281546001600160a01b03168152600180830180548651600261010094831615949094026000190190911692909204601f81018690048602830186019096528582529194929385810193919291908301828280156110de5780601f106110b3576101008083540402835291602001916110de565b820191906000526020600020905b8154815290600101906020018083116110c157829003601f168201915b505050918352505060028281015463ffffffff8082166020850152600160201b8204166040840152606090920191600160401b900460ff169081111561112057fe5b600281111561112b57fe5b81526020016002820160099054906101000a900460ff16600181111561114d57fe5b600181111561115857fe5b9052508363ffffffff83166010811061116d57fe5b6020020152600101611013565b60036020908152600092835260408084208252918352918190208054600180830180548551600261010094831615949094026000190190911692909204601f81018790048702830187019095528482526001600160a01b039092169492939092830182828015610cae5780601f10610c8357610100808354040283529160200191610cae565b63ffffffff8281166000908152600260208181526040808420948616845293815283832080546001808301805488516101009382161593909302600019011695909504601f81018590048502820185019097528681526001600160a01b03909116956060959485949091908301828280156112bc5780601f10611291576101008083540402835291602001916112bc565b820191906000526020600020905b81548152906001019060200180831161129f57829003601f168201915b5050506002909301549195505063ffffffff8082169450600160201b9091041691505092959194509250565b60008282018381101561130d5760405162461bcd60e51b815260040161022b906119f9565b9392505050565b6000600160201b82106113395760405162461bcd60e51b815260040161022b90611a64565b5090565b604080516060810182526000808252602082018190529181019190915290565b828054600181600116156101000203166002900490600052602060002090601f016020900481019282601f1061139e57805160ff19168380011785556113cb565b828001600101855582156113cb579182015b828111156113cb5782518255916020019190600101906113b0565b50611339929150611522565b828054600181600116156101000203166002900490600052602060002090601f016020900481019282601f1061141057805485556113cb565b828001600101855582156113cb57600052602060002091601f016020900482015b828111156113cb578254825591600101919060010190611431565b604051806101800160405280600063ffffffff1681526020016060815260200160608152602001600063ffffffff168152602001606081526020016000600481111561149457fe5b81526000602082018190526040820181905260608083018290526080830182905260a083019190915260c09091015290565b6040518061010001604052806008905b6114de61153f565b8152602001906001900390816114d65790505090565b6040518061020001604052806010905b61150c61153f565b8152602001906001900390816115045790505090565b61153c91905b808211156113395760008155600101611528565b90565b6040805160c081018252600080825260606020830181905292820181905291810182905290608082019081526020016000905290565b80356001600160a01b038116811461081257600080fd5b803561081281611da0565b6000602082840312156115a8578081fd5b61130d8383611575565b600080604083850312156115c4578081fd5b6115ce8484611575565b915060208301356115de81611da0565b809150509250929050565b6000602082840312156115fa578081fd5b815161130d81611d92565b600060608284031215611616578081fd5b6116206060611d49565b825161162b81611d92565b8152602083015161163b81611d92565b6020820152604083015161164e81611da0565b60408201529392505050565b60006020828403121561166b578081fd5b815161130d81611da0565b60008060408385031215611688578182fd5b823561169381611da0565b91506116a28460208501611575565b90509250929050565b600080600080608085870312156116c0578182fd5b84356116cb81611da0565b93506020858101356001600160401b03808211156116e7578485fd5b81880189601f8201126116f8578586fd5b8035925081831115611708578586fd5b61171a601f8401601f19168501611d49565b9150828252898484830101111561172f578586fd5b8284820185840137509081019091018390529250611750866040870161158c565b915061175f866060870161158c565b905092959194509250565b6000806040838503121561177c578182fd5b823561178781611da0565b946020939093013593505050565b600080604083850312156117a7578182fd5b82356115ce81611da0565b600060018060a01b038251168352602082015160c060208501526117d960c085018261185b565b6040840151915063ffffffff8083166040870152806060860151166060870152506080840151915061180a82611d7b565b81608086015260a0840151915061182082611d88565b60a094909401525090919050565b6001600160a01b03169052565b61184481611d7b565b9052565b61184481611d88565b6005811061184457fe5b60008151808452815b8181101561188057602081850181015186830182015201611864565b818111156118915782602083870101525b50601f01601f19169290920160200192915050565b63ffffffff169052565b6001600160a01b0391909116815260200190565b6001600160a01b03851681526080602082018190526000906118e89083018661185b565b63ffffffff9485166040840152929093166060909101529392505050565b6001600160a01b038716815260c06020820181905260009061192a9083018861185b565b63ffffffff878116604085015286166060840152905061194984611d7b565b83608083015261195883611d88565b8260a0830152979650505050505050565b6020808252600090610220830183820185845b60108110156119ab57601f198785030183526119998483516117b2565b9350918401919084019060010161197c565b50919695505050505050565b6020808252600090610120830183820185845b60088110156119ab57601f198785030183526119e78483516117b2565b935091840191908401906001016119ca565b6020808252601b908201527a536166654d6174683a206164646974696f6e206f766572666c6f7760281b604082015260600190565b6020808252601c908201527b29bcb9ba32b69034b99034b71032b6b2b933b2b731bc9039ba37b81760211b604082015260600190565b60208082526026908201527f53616665436173743a2076616c756520646f65736e27742066697420696e203360408201526532206269747360d01b606082015260800190565b600060208252611abe6020830184516118a6565b6020830151610180806040850152611ada6101a085018361185b565b60408601519250601f1980868303016060870152611af8828561185b565b60608801519450611b0c60808801866118a6565b60808801519450818782030160a0880152611b27818661185b565b92505060a08701519350611b3e60c0870185611851565b60c08701519350611b5260e087018561182e565b60e08701519350610100611b688188018661182e565b8701519350610120611b7c878201866118a6565b8701519350610140611b90878201866118a6565b8701519350610160611ba4878201866118a6565b870151868303909101838701529250611bbd818461185b565b9695505050505050565b606081528354600090610120830190611be8906001600160a01b0316611d6f565b6060840152600180870160c0608086015283815483811660008114611c145760018114611c3457611c6e565b60028204607f16865260ff19821661014089015261016088019250611c6e565b600282048087528488526020808920895b83811015611c625781548c82016101400152908801908201611c45565b8b016101400195505050505b50506002890154935063ffffffff9250611c8d60a087018486166118a6565b611c9f60c08701848660201c166118a6565b611cb260e0870160ff8660401c1661183b565b611cc6610100870160ff8660481c16611848565b9350611cd99250505060208301856118a6565b611ce6604083018461182e565b949350505050565b81511515815260208083015115159082015260409182015163ffffffff169181019190915260600190565b63ffffffff91909116815260200190565b63ffffffff9290921682526001600160a01b0316602082015260400190565b6040518181016001600160401b0381118282101715611d6757600080fd5b604052919050565b6001600160a01b031690565b60038110611d8557fe5b50565b60028110611d8557fe5b8015158114611d8557600080fd5b63ffffffff81168114611d8557600080fdfee6391fd03f941519ec364c5bb85023284b131a59297606d04b2eb06980485ea3a26469706673582212201aef7a4d22ec84200729e0f23842a2b9d4b499c4bdac3c22d7b29218d1a3f17b64736f6c63430006020033",
  "source": "pragma solidity ^0.6.2;\npragma experimental ABIEncoderV2;\nstruct receiver {\n    bool exists;\n    bool approved;\n    uint32 requestCount;\n    //uint32 pageNo;\n}\n\ncontract Administration {\n    function systemPaused() public returns (bool) {}\n\n    function addReceiver(address receiverAddress) public {}\n\nfunction getReceiver(address receiverAddress)\n        public\n        view\n        returns (receiver memory){}\n}\n\ncontract DonateAsset {\n    function getAssetRequestCount(uint32 assetId)\n        public\n        view\n        returns (uint32)\n    {}\n\n    function UpdateAsset(Asset memory asset) public {}\n}\n\nimport \"@openzeppelin/contracts/token/ERC721/ERC721.sol\";\nimport \"@openzeppelin/contracts/access/AccessControl.sol\";\nimport \"@openzeppelin/contracts/math/SafeMath.sol\";\nimport \"@openzeppelin/contracts/utils/SafeCast.sol\";\n\n/// @title A Asset donation smart contract\n/// @author Fatemeh Heidari Soureshjani\n/// @notice This contract facilitates donation of physical assets for specific periods of time between asset owners and receivers\n/// @dev time\nenum Status {Free, Requested, Donated, Inactive, Burned}\n\nstruct Asset {\n    uint32 assetId;\n    string assetTitle;\n    string assetDescription;\n    uint32 availablityDate;\n    string location;\n    Status status;\n    address owner;\n    address recipient;\n    uint32 donatedDateFrom;\n    uint32 donatedDateTo;\n    uint32 requestCount;\n    string imageIPFSHash;\n}\n\ncontract ReceiveAsset {\n    Administration ADM;\n    DonateAsset DA;\n    uint32 lastRequestId;\n\n    constructor(address _da, address _adm) public {\n        ADM = Administration(_adm);\n        DA = DonateAsset(_da);\n        lastRequestId = 0;\n    }\n\n    enum RequestStatus {Open, Approved, Rejected}\n    enum RequestType {Individual, Project}\n    struct Request {\n        address receiver;\n        string requestDescription;\n        uint32 requestDateFrom;\n        uint32 requestDateTo;\n        RequestStatus status;\n        RequestType requestType;\n    }\n    mapping(uint32 => mapping(uint32 => Request)) public assetRequestList;\n    mapping(address => mapping(uint32 => Request)) public addressRequestList;\n    modifier whenNotPaused() {\n        require(!ADM.systemPaused(), \"System is in emergency stop.\");\n        _;\n    }\n    event LogRequested(uint32 assetId);\n    event LogRequest(Request r,uint32 reCount,address receiver);\n    event LogRequestApproved(uint32 assetId, address recAddress);\n\n    /// @notice retrieves all request for a specific donation\n    /// @dev There must be better way than returing always an array of 16\n    /// @param assetId the unique asset id of donation\n    /// @return Request returns an array of type Request and length 16\n    function getDonationRequests(uint32 assetId, uint256 requestCount)\n        public\n        view\n        returns (Request[16] memory)\n    {\n        Request[16] memory requestArray;\n\n\n            mapping(uint32 => Request) storage requestMapping\n         = assetRequestList[assetId];\n        for (uint32 i = 0; i < requestCount; i++) {\n            requestArray[i] = requestMapping[i];\n        }\n        return requestArray;\n    }\n\n    /// @notice A receiver can register a request for a specific donation previousely added\n    /// @notice to list of donation by a donor\n    /// @dev date conflicts can be checked\n    /// @param assetId The unique id of donation\n    /// @param requestDescription The description entered by the receiver\n    /// @param requestDateFrom The starting date receiver needs this asset\n    /// @param requestDateTo The ending date receiver needs this asset\n    function requestAsset(\n        uint32 assetId,\n        string memory requestDescription,\n        uint32 requestDateFrom,\n        uint32 requestDateTo\n    ) public whenNotPaused {\n        ADM.addReceiver(msg.sender);\n        receiver memory r = ADM.getReceiver(msg.sender);\n        uint32 requestCount = DA.getAssetRequestCount(assetId); ///donationList[assetId];\n        //if (requestedItem.requestCount < maxNoOfReqsPerAsst) {\n        assetRequestList[assetId][requestCount] = Request({\n            receiver: msg.sender,\n            requestDescription: requestDescription,\n            requestDateFrom: requestDateFrom,\n            requestDateTo: requestDateTo,\n            status: RequestStatus.Open,\n            requestType: RequestType.Individual\n        });\n        Request storage req = assetRequestList[assetId][requestCount];\n        addressRequestList[msg.sender][r.requestCount-1] = req;\n        emit LogRequested(assetId);\n        emit LogRequest(req,r.requestCount,msg.sender);\n        requestCount = SafeCast.toUint32(\n            SafeMath.add(uint256(requestCount), 1)\n        );\n        Asset memory asset = Asset({\n            assetId: assetId,\n            assetTitle: \"\",\n            assetDescription: \"\",\n            availablityDate: 0,\n            location: \"\",\n            status: Status.Requested,\n            owner: address(0),\n            recipient: address(0),\n            donatedDateFrom: 0,\n            donatedDateTo: 0,\n            requestCount: requestCount,\n            imageIPFSHash: \"\"\n        });\n        DA.UpdateAsset(asset);\n    }\n\n    /// @notice A Project can register a request for a specific donation previousely added\n    /// @notice to list of donation by a donor\n    /// @dev date conflicts can be checked\n    /// @param assetId The unique id of donation\n    /// @param projectAddress address of the project\n    function requestAsset(uint32 assetId, address projectAddress)\n        public\n        whenNotPaused\n    {\n        ADM.addReceiver(msg.sender);\n        uint32 requestCount = DA.getAssetRequestCount(assetId); ///donationList[assetId];\n        //if (requestedItem.requestCount < maxNoOfReqsPerAsst) {\n        assetRequestList[assetId][requestCount] = Request({\n            receiver: projectAddress,\n            requestDescription: \"\",\n            requestDateFrom: 0,\n            requestDateTo: 0,\n            status: RequestStatus.Open,\n            requestType: RequestType.Project\n        });\n        emit LogRequested(assetId);\n        requestCount = SafeCast.toUint32(\n            SafeMath.add(uint256(requestCount), 1)\n        );\n        Asset memory asset = Asset({\n            assetId: assetId,\n            assetTitle: \"\",\n            assetDescription: \"\",\n            availablityDate: 0,\n            location: \"\",\n            status: Status.Requested,\n            owner: address(0),\n            recipient: address(0),\n            donatedDateFrom: 0,\n            donatedDateTo: 0,\n            requestCount: requestCount,\n            imageIPFSHash: \"\"\n        });\n        DA.UpdateAsset(asset);\n    }\n\n    function getReceiver(address receiverAddress)\n        public\n        view\n        returns (receiver memory)\n    {\n        return ADM.getReceiver(receiverAddress);\n    }\n\n    function getRequest(uint32 assetId, uint32 requestId)\n        public\n        view\n        returns (\n            address receiver,\n            string memory requestDescription,\n            uint32 requestDateFrom,\n            uint32 requestDateTo\n        )\n    {\n        Request storage request = assetRequestList[assetId][requestId];\n        receiver = request.receiver;\n        requestDescription = request.requestDescription;\n        requestDateFrom = request.requestDateFrom;\n        requestDateTo = request.requestDateTo;\n        return (receiver, requestDescription, requestDateFrom, requestDateTo);\n    }\n\n    function approveRequest(uint32 assetId, address recipientAddress) public {\n\n            mapping(uint32 => Request) storage assetRequests\n         = assetRequestList[assetId];\n        uint32 requestCount = DA.getAssetRequestCount(assetId);\n        for (uint32 i = 0; i < requestCount; i++) {\n            if (assetRequests[i].receiver == recipientAddress) {\n                Request storage r = assetRequests[i];\n                r.status = RequestStatus.Approved;\n                emit LogRequestApproved(assetId, recipientAddress);\n            }\n        }\n    }\n\n    function getRequests(address receiverAddress) public view returns (Request[8] memory) {\n        receiver memory r = getReceiver(receiverAddress);\n        Request[8] memory requestList;\n        mapping(uint32 => Request) storage t = addressRequestList[receiverAddress];\n        for (uint32 i = 0; i < r.requestCount; i++) {\n            requestList[i] = t[i];\n        }\n        return requestList;\n    }\n}\n",
  "sourcePath": "/home/fatemeh/Desktop/Consensys Course/assetdonation/AssetDonation/contracts/ReceiveAsset.sol",
  "compiler": {
    "name": "solc",
    "version": "0.6.2+commit.bacdbe57.Emscripten.clang"
  },
  "schemaVersion": "3.3.1",
  "updatedAt": "2020-12-14T16:45:51.431Z",
  "networkType": "ethereum",
  "devdoc": {
    "methods": {
      "getDonationRequests(uint32,uint256)": {
        "details": "There must be better way than returing always an array of 16",
        "params": {
          "assetId": "the unique asset id of donation"
        },
        "returns": {
          "_0": "Request returns an array of type Request and length 16"
        }
      },
      "requestAsset(uint32,address)": {
        "details": "date conflicts can be checked",
        "params": {
          "assetId": "The unique id of donation",
          "projectAddress": "address of the project"
        }
      },
      "requestAsset(uint32,string,uint32,uint32)": {
        "details": "date conflicts can be checked",
        "params": {
          "assetId": "The unique id of donation",
          "requestDateFrom": "The starting date receiver needs this asset",
          "requestDateTo": "The ending date receiver needs this asset",
          "requestDescription": "The description entered by the receiver"
        }
      }
    }
  },
  "userdoc": {
    "methods": {
      "getDonationRequests(uint32,uint256)": {
        "notice": "retrieves all request for a specific donation"
      },
      "requestAsset(uint32,address)": {
        "notice": "A Project can register a request for a specific donation previousely addedto list of donation by a donor"
      },
      "requestAsset(uint32,string,uint32,uint32)": {
        "notice": "A receiver can register a request for a specific donation previousely addedto list of donation by a donor"
      }
    }
  }
}