{
  "contractName": "ReceiveAsset",
  "abi": [
    {
      "inputs": [
        {
          "internalType": "address",
          "name": "_DA",
          "type": "address"
        }
      ],
      "stateMutability": "nonpayable",
      "type": "constructor"
    },
    {
      "anonymous": false,
      "inputs": [
        {
          "indexed": false,
          "internalType": "address",
          "name": "account",
          "type": "address"
        }
      ],
      "name": "Paused",
      "type": "event"
    },
    {
      "anonymous": false,
      "inputs": [
        {
          "indexed": true,
          "internalType": "bytes32",
          "name": "role",
          "type": "bytes32"
        },
        {
          "indexed": true,
          "internalType": "bytes32",
          "name": "previousAdminRole",
          "type": "bytes32"
        },
        {
          "indexed": true,
          "internalType": "bytes32",
          "name": "newAdminRole",
          "type": "bytes32"
        }
      ],
      "name": "RoleAdminChanged",
      "type": "event"
    },
    {
      "anonymous": false,
      "inputs": [
        {
          "indexed": true,
          "internalType": "bytes32",
          "name": "role",
          "type": "bytes32"
        },
        {
          "indexed": true,
          "internalType": "address",
          "name": "account",
          "type": "address"
        },
        {
          "indexed": true,
          "internalType": "address",
          "name": "sender",
          "type": "address"
        }
      ],
      "name": "RoleGranted",
      "type": "event"
    },
    {
      "anonymous": false,
      "inputs": [
        {
          "indexed": true,
          "internalType": "bytes32",
          "name": "role",
          "type": "bytes32"
        },
        {
          "indexed": true,
          "internalType": "address",
          "name": "account",
          "type": "address"
        },
        {
          "indexed": true,
          "internalType": "address",
          "name": "sender",
          "type": "address"
        }
      ],
      "name": "RoleRevoked",
      "type": "event"
    },
    {
      "anonymous": false,
      "inputs": [
        {
          "indexed": false,
          "internalType": "address",
          "name": "account",
          "type": "address"
        }
      ],
      "name": "Unpaused",
      "type": "event"
    },
    {
      "inputs": [],
      "name": "DEFAULT_ADMIN_ROLE",
      "outputs": [
        {
          "internalType": "bytes32",
          "name": "",
          "type": "bytes32"
        }
      ],
      "stateMutability": "view",
      "type": "function",
      "constant": true
    },
    {
      "inputs": [],
      "name": "DONOR",
      "outputs": [
        {
          "internalType": "bytes32",
          "name": "",
          "type": "bytes32"
        }
      ],
      "stateMutability": "view",
      "type": "function",
      "constant": true
    },
    {
      "inputs": [],
      "name": "RECEIVER",
      "outputs": [
        {
          "internalType": "bytes32",
          "name": "",
          "type": "bytes32"
        }
      ],
      "stateMutability": "view",
      "type": "function",
      "constant": true
    },
    {
      "inputs": [],
      "name": "addDonor",
      "outputs": [],
      "stateMutability": "nonpayable",
      "type": "function"
    },
    {
      "inputs": [],
      "name": "addReceiver",
      "outputs": [],
      "stateMutability": "nonpayable",
      "type": "function"
    },
    {
      "inputs": [
        {
          "internalType": "address",
          "name": "donorAddress",
          "type": "address"
        }
      ],
      "name": "approveDonor",
      "outputs": [],
      "stateMutability": "nonpayable",
      "type": "function"
    },
    {
      "inputs": [
        {
          "internalType": "address",
          "name": "receiverAddress",
          "type": "address"
        }
      ],
      "name": "approveReceiver",
      "outputs": [],
      "stateMutability": "nonpayable",
      "type": "function"
    },
    {
      "inputs": [
        {
          "internalType": "uint32",
          "name": "",
          "type": "uint32"
        },
        {
          "internalType": "uint32",
          "name": "",
          "type": "uint32"
        }
      ],
      "name": "assetRequestList",
      "outputs": [
        {
          "internalType": "address",
          "name": "receiver",
          "type": "address"
        },
        {
          "internalType": "string",
          "name": "requestDescription",
          "type": "string"
        },
        {
          "internalType": "uint32",
          "name": "requestDateFrom",
          "type": "uint32"
        },
        {
          "internalType": "uint32",
          "name": "requestDateTo",
          "type": "uint32"
        }
      ],
      "stateMutability": "view",
      "type": "function",
      "constant": true
    },
    {
      "inputs": [
        {
          "internalType": "address",
          "name": "",
          "type": "address"
        }
      ],
      "name": "donors",
      "outputs": [
        {
          "internalType": "bool",
          "name": "",
          "type": "bool"
        }
      ],
      "stateMutability": "view",
      "type": "function",
      "constant": true
    },
    {
      "inputs": [
        {
          "internalType": "bytes32",
          "name": "role",
          "type": "bytes32"
        }
      ],
      "name": "getRoleAdmin",
      "outputs": [
        {
          "internalType": "bytes32",
          "name": "",
          "type": "bytes32"
        }
      ],
      "stateMutability": "view",
      "type": "function",
      "constant": true
    },
    {
      "inputs": [
        {
          "internalType": "bytes32",
          "name": "role",
          "type": "bytes32"
        },
        {
          "internalType": "uint256",
          "name": "index",
          "type": "uint256"
        }
      ],
      "name": "getRoleMember",
      "outputs": [
        {
          "internalType": "address",
          "name": "",
          "type": "address"
        }
      ],
      "stateMutability": "view",
      "type": "function",
      "constant": true
    },
    {
      "inputs": [
        {
          "internalType": "bytes32",
          "name": "role",
          "type": "bytes32"
        }
      ],
      "name": "getRoleMemberCount",
      "outputs": [
        {
          "internalType": "uint256",
          "name": "",
          "type": "uint256"
        }
      ],
      "stateMutability": "view",
      "type": "function",
      "constant": true
    },
    {
      "inputs": [
        {
          "internalType": "bytes32",
          "name": "role",
          "type": "bytes32"
        },
        {
          "internalType": "address",
          "name": "account",
          "type": "address"
        }
      ],
      "name": "grantRole",
      "outputs": [],
      "stateMutability": "nonpayable",
      "type": "function"
    },
    {
      "inputs": [
        {
          "internalType": "bytes32",
          "name": "role",
          "type": "bytes32"
        },
        {
          "internalType": "address",
          "name": "account",
          "type": "address"
        }
      ],
      "name": "hasRole",
      "outputs": [
        {
          "internalType": "bool",
          "name": "",
          "type": "bool"
        }
      ],
      "stateMutability": "view",
      "type": "function",
      "constant": true
    },
    {
      "inputs": [],
      "name": "pause",
      "outputs": [],
      "stateMutability": "nonpayable",
      "type": "function"
    },
    {
      "inputs": [],
      "name": "paused",
      "outputs": [
        {
          "internalType": "bool",
          "name": "",
          "type": "bool"
        }
      ],
      "stateMutability": "view",
      "type": "function",
      "constant": true
    },
    {
      "inputs": [
        {
          "internalType": "address",
          "name": "",
          "type": "address"
        }
      ],
      "name": "receivers",
      "outputs": [
        {
          "internalType": "bool",
          "name": "",
          "type": "bool"
        }
      ],
      "stateMutability": "view",
      "type": "function",
      "constant": true
    },
    {
      "inputs": [
        {
          "internalType": "bytes32",
          "name": "role",
          "type": "bytes32"
        },
        {
          "internalType": "address",
          "name": "account",
          "type": "address"
        }
      ],
      "name": "renounceRole",
      "outputs": [],
      "stateMutability": "nonpayable",
      "type": "function"
    },
    {
      "inputs": [
        {
          "internalType": "bytes32",
          "name": "role",
          "type": "bytes32"
        },
        {
          "internalType": "address",
          "name": "account",
          "type": "address"
        }
      ],
      "name": "revokeRole",
      "outputs": [],
      "stateMutability": "nonpayable",
      "type": "function"
    },
    {
      "inputs": [],
      "name": "unpause",
      "outputs": [],
      "stateMutability": "nonpayable",
      "type": "function"
    },
    {
      "inputs": [
        {
          "internalType": "uint32",
          "name": "assetId",
          "type": "uint32"
        },
        {
          "internalType": "uint256",
          "name": "requestCount",
          "type": "uint256"
        }
      ],
      "name": "getDonationRequests",
      "outputs": [
        {
          "components": [
            {
              "internalType": "address",
              "name": "receiver",
              "type": "address"
            },
            {
              "internalType": "string",
              "name": "requestDescription",
              "type": "string"
            },
            {
              "internalType": "uint32",
              "name": "requestDateFrom",
              "type": "uint32"
            },
            {
              "internalType": "uint32",
              "name": "requestDateTo",
              "type": "uint32"
            }
          ],
          "internalType": "struct ReceiveAsset.Request[16]",
          "name": "",
          "type": "tuple[16]"
        }
      ],
      "stateMutability": "view",
      "type": "function",
      "constant": true
    },
    {
      "inputs": [
        {
          "internalType": "uint32",
          "name": "assetId",
          "type": "uint32"
        },
        {
          "internalType": "string",
          "name": "requestDescription",
          "type": "string"
        },
        {
          "internalType": "uint32",
          "name": "requestDateFrom",
          "type": "uint32"
        },
        {
          "internalType": "uint32",
          "name": "requestDateTo",
          "type": "uint32"
        }
      ],
      "name": "requestAsset",
      "outputs": [],
      "stateMutability": "nonpayable",
      "type": "function"
    },
    {
      "inputs": [
        {
          "internalType": "uint32",
          "name": "assetId",
          "type": "uint32"
        },
        {
          "internalType": "uint32",
          "name": "requestId",
          "type": "uint32"
        }
      ],
      "name": "getRequest",
      "outputs": [
        {
          "internalType": "address",
          "name": "receiver",
          "type": "address"
        },
        {
          "internalType": "string",
          "name": "requestDescription",
          "type": "string"
        },
        {
          "internalType": "uint32",
          "name": "requestDateFrom",
          "type": "uint32"
        },
        {
          "internalType": "uint32",
          "name": "requestDateTo",
          "type": "uint32"
        }
      ],
      "stateMutability": "view",
      "type": "function",
      "constant": true
    }
  ],
  "bytecode": "0x60806040523480156200001157600080fd5b50604051620017f1380380620017f18339810160408190526200003491620001bc565b6001805460ff19169055620000546000336001600160e01b036200008416565b600480546001600160a01b0319166001600160a01b03929092169190911763ffffffff60a01b19169055620001ec565b6200009982826001600160e01b036200009d16565b5050565b600082815260208181526040909120620000c291839062000c8c6200011f821b17901c565b156200009957620000db6001600160e01b036200014816565b6001600160a01b0316816001600160a01b0316837f2f8788117e7eff1d82e926ec794901d17c78024a50270940304540a733656f0d60405160405180910390a45050565b60006200013f836001600160a01b0384166001600160e01b036200014c16565b90505b92915050565b3390565b60006200016383836001600160e01b03620001a416565b6200019b5750815460018181018455600084815260208082209093018490558454848252828601909352604090209190915562000142565b50600062000142565b60009081526001919091016020526040902054151590565b600060208284031215620001ce578081fd5b81516001600160a01b0381168114620001e5578182fd5b9392505050565b6115f580620001fc6000396000f3fe608060405234801561001057600080fd5b506004361061011d5760003560e01c80630cb8150f1461012257806311cef2c41461014b578063248a9ca3146101605780632a781270146101805780632f2ff15d1461019357806336568abe146101a65780633f4ba83a146101b95780634576d251146101c15780635c975abb146101c957806367c7e979146101d157806372dbb89f146101f457806379e085a2146102075780638456cb591461020f5780638ad54512146102175780639010d07c1461021f57806391d148541461023f57806394aa613a14610252578063a217fddf14610272578063ad7430cc1461027a578063ca0cdea814610282578063ca15c87314610295578063d547741f146102a8578063f2e99622146102bb575b600080fd5b610135610130366004610f93565b6102ce565b60405161014291906112ee565b60405180910390f35b61015e610159366004611050565b6102e3565b005b61017361016e366004610fc1565b610582565b60405161014291906112f9565b61015e61018e366004610f93565b610597565b61015e6101a1366004610fd9565b6105d8565b61015e6101b4366004610fd9565b610620565b61015e610662565b61017361066c565b610135610683565b6101e46101df36600461114a565b61068d565b6040516101429493929190611220565b61015e610202366004610f93565b61075f565b61015e610792565b61015e6107ab565b61015e6107b3565b61023261022d366004611013565b6107cc565b604051610142919061120c565b61013561024d366004610fd9565b6107f3565b61026561026036600461111f565b610811565b6040516101429190611262565b610173610957565b61017361095c565b610135610290366004610f93565b610968565b6101736102a3366004610fc1565b61097d565b61015e6102b6366004610fd9565b610994565b6101e46102c936600461114a565b6109ce565b60036020526000908152604090205460ff1681565b336103016040516102f3906111f8565b6040518091039020826107f3565b61030a57600080fd5b60015460ff16156103365760405162461bcd60e51b815260040161032d906113ed565b60405180910390fd5b600480546040516321f54c2160e01b81526000926001600160a01b03909216916321f54c2191610368918a910161156d565b60206040518083038186803b15801561038057600080fd5b505afa158015610394573d6000803e3d6000fd5b505050506040513d601f19601f820116820180604052506103b89190810190611034565b60408051608081018252338152602080820189815263ffffffff8981168486015288811660608501528b8116600090815260058452858120918716815290835293909320825181546001600160a01b0319166001600160a01b039091161781559251805194955091936104319260018501920190610e27565b5060408201516002909101805460609093015163ffffffff908116600160201b0263ffffffff60201b199190931663ffffffff19909416939093179290921617905560010161047e610ea5565b6040518061016001604052808863ffffffff168152602001604051806020016040528060008152508152602001600063ffffffff168152602001604051806020016040528060008152508152602001600160048111156104da57fe5b8152600060208083018290526040808401839052606084018390526080840183905260a084018390528051918201815291815260c09092019190915260048054915163f445496360e01b81529293506001600160a01b039091169163f44549639161054791859101611466565b600060405180830381600087803b15801561056157600080fd5b505af1158015610575573d6000803e3d6000fd5b5050505050505050505050565b60009081526020819052604090206002015490565b6105b46040516105a6906111e7565b6040518091039020826105d8565b6001600160a01b03166000908152600260205260409020805460ff19166001179055565b6000828152602081905260409020600201546105f69061024d610aba565b6106125760405162461bcd60e51b815260040161032d90611344565b61061c8282610abe565b5050565b610628610aba565b6001600160a01b0316816001600160a01b0316146106585760405162461bcd60e51b815260040161032d90611417565b61061c8282610b2d565b61066a610b9c565b565b604051610678906111e7565b604051809103902081565b60015460ff165b90565b60056020908152600092835260408084208252918352918190208054600180830180548551600261010094831615949094026000190190911692909204601f81018790048702830187019095528482526001600160a01b03909216949293909283018282801561073e5780601f106107135761010080835404028352916020019161073e565b820191906000526020600020905b81548152906001019060200180831161072157829003601f168201915b5050506002909301549192505063ffffffff80821691600160201b90041684565b61076e6040516105a6906111f8565b6001600160a01b03166000908152600360205260409020805460ff19166001179055565b336000908152600260205260409020805460ff19169055565b61066a610c08565b336000908152600360205260409020805460ff19169055565b60008281526020819052604081206107ea908363ffffffff610c6016565b90505b92915050565b60008281526020819052604081206107ea908363ffffffff610c6c16565b610819610f18565b610821610f18565b63ffffffff84166000908152600560205260408120905b848163ffffffff16101561094d5763ffffffff811660009081526020838152604091829020825160808101845281546001600160a01b03168152600180830180548651600261010094831615949094026000190190911692909204601f81018690048602830186019096528582529194929385810193919291908301828280156109035780601f106108d857610100808354040283529160200191610903565b820191906000526020600020905b8154815290600101906020018083116108e657829003601f168201915b50505091835250506002919091015463ffffffff8082166020840152600160201b9091048116604090920191909152849083166010811061094057fe5b6020020152600101610838565b5090949350505050565b600081565b604051610678906111f8565b60026020526000908152604090205460ff1681565b60008181526020819052604081206107ed90610c81565b6000828152602081905260409020600201546109b29061024d610aba565b6106585760405162461bcd60e51b815260040161032d906113af565b63ffffffff828116600090815260056020908152604080832093851683529281528282208054600180830180548751600261010094831615949094026000190190911692909204601f81018690048602830186019097528682526001600160a01b0390921695606095948594939190830182828015610a8e5780601f10610a6357610100808354040283529160200191610a8e565b820191906000526020600020905b815481529060010190602001808311610a7157829003601f168201915b5050506002909301549195505063ffffffff8082169450600160201b9091041691505092959194509250565b3390565b6000828152602081905260409020610adc908263ffffffff610c8c16565b1561061c57610ae9610aba565b6001600160a01b0316816001600160a01b0316837f2f8788117e7eff1d82e926ec794901d17c78024a50270940304540a733656f0d60405160405180910390a45050565b6000828152602081905260409020610b4b908263ffffffff610ca116565b1561061c57610b58610aba565b6001600160a01b0316816001600160a01b0316837ff6391f5c32d9c69d2a47ea670b442974b53935d1edc7fd64eb21e047a839171b60405160405180910390a45050565b60015460ff16610bbe5760405162461bcd60e51b815260040161032d90611381565b6001805460ff191690557f5db9ee0a495bf2e6ff9c91a7834c1ba4fdd244a5e8aa4e537bd38aeae4b073aa610bf1610aba565b604051610bfe919061120c565b60405180910390a1565b60015460ff1615610c2b5760405162461bcd60e51b815260040161032d906113ed565b6001805460ff1916811790557f62e78cea01bee320cd4e420270b5ea74000d11b0c9f74754ebdbfc544b05a258610bf1610aba565b60006107ea8383610cb6565b60006107ea836001600160a01b038416610cfb565b60006107ed82610d13565b60006107ea836001600160a01b038416610d17565b60006107ea836001600160a01b038416610d61565b81546000908210610cd95760405162461bcd60e51b815260040161032d90611302565b826000018281548110610ce857fe5b9060005260206000200154905092915050565b60009081526001919091016020526040902054151590565b5490565b6000610d238383610cfb565b610d59575081546001818101845560008481526020808220909301849055845484825282860190935260409020919091556107ed565b5060006107ed565b60008181526001830160205260408120548015610e1d5783546000198083019190810190600090879083908110610d9457fe5b9060005260206000200154905080876000018481548110610db157fe5b600091825260208083209091019290925582815260018981019092526040902090840190558654879080610de157fe5b600190038181906000526020600020016000905590558660010160008781526020019081526020016000206000905560019450505050506107ed565b60009150506107ed565b828054600181600116156101000203166002900490600052602060002090601f016020900481019282601f10610e6857805160ff1916838001178555610e95565b82800160010185558215610e95579182015b82811115610e95578251825591602001919060010190610e7a565b50610ea1929150610f46565b5090565b604051806101600160405280600063ffffffff16815260200160608152602001600063ffffffff1681526020016060815260200160006004811115610ee657fe5b81526000602082018190526040820181905260608083018290526080830182905260a083019190915260c09091015290565b6040518061020001604052806010905b610f30610f60565b815260200190600190039081610f285790505090565b61068a91905b80821115610ea15760008155600101610f4c565b6040805160808101825260008082526060602083018190529282018190529181019190915290565b80356107ed8161158a565b600060208284031215610fa4578081fd5b81356001600160a01b0381168114610fba578182fd5b9392505050565b600060208284031215610fd2578081fd5b5035919050565b60008060408385031215610feb578081fd5b8235915060208301356001600160a01b0381168114611008578182fd5b809150509250929050565b60008060408385031215611025578182fd5b50508035926020909101359150565b600060208284031215611045578081fd5b8151610fba8161158a565b60008060008060808587031215611065578182fd5b84356110708161158a565b93506020858101356001600160401b038082111561108c578485fd5b81880189601f82011261109d578586fd5b80359250818311156110ad578586fd5b604051601f8401601f19168101850183811182821017156110cc578788fd5b60405283815281840185018b10156110e2578687fd5b838583018683013792830190930185905250935061110590508660408701610f88565b91506111148660608701610f88565b905092959194509250565b60008060408385031215611131578182fd5b823561113c8161158a565b946020939093013593505050565b6000806040838503121561115c578182fd5b82356111678161158a565b915060208301356110088161158a565b6001600160a01b03169052565b6005811061118e57fe5b9052565b60008151808452815b818110156111b75760208185018101518683018201520161119b565b818111156111c85782602083870101525b50601f01601f19169290920160200192915050565b63ffffffff169052565b642227a727a960d91b815260050190565b672922a1a2a4ab22a960c11b815260080190565b6001600160a01b0391909116815260200190565b6001600160a01b038516815260806020820181905260009061124490830186611192565b63ffffffff9485166040840152929093166060909101529392505050565b6020808252600090610220830183820185845b60108110156112e257601f1987850301835281516080611295825161157e565b86528682015181888801526112ac82880182611192565b60408481015163ffffffff908116918a019190915260609485015116939097019290925250509184019190840190600101611275565b50919695505050505050565b901515815260200190565b90815260200190565b60208082526022908201527f456e756d657261626c655365743a20696e646578206f7574206f6620626f756e604082015261647360f01b606082015260800190565b6020808252602f908201526000805160206115a083398151915260408201526e0818591b5a5b881d1bc819dc985b9d608a1b606082015260800190565b60208082526014908201527314185d5cd8589b194e881b9bdd081c185d5cd95960621b604082015260600190565b60208082526030908201526000805160206115a083398151915260408201526f2061646d696e20746f207265766f6b6560801b606082015260800190565b60208082526010908201526f14185d5cd8589b194e881c185d5cd95960821b604082015260600190565b6020808252602f908201527f416363657373436f6e74726f6c3a2063616e206f6e6c792072656e6f756e636560408201526e103937b632b9903337b91039b2b63360891b606082015260800190565b60006020825261147a6020830184516111dd565b6020830151610160806040850152611496610180850183611192565b604086015192506114aa60608601846111dd565b60608601519250601f19808683030160808701526114c88285611192565b608088015194506114dc60a0880186611184565b60a088015194506114f060c0880186611177565b60c0880151945061150460e0880186611177565b60e08801519450610100925061151c838801866111dd565b91870151935061012091611532878401866111dd565b91870151935061014091611548878401866111dd565b8288015194508187820301848801526115618186611192565b98975050505050505050565b63ffffffff91909116815260200190565b6001600160a01b031690565b63ffffffff8116811461159c57600080fd5b5056fe416363657373436f6e74726f6c3a2073656e646572206d75737420626520616ea2646970667358221220d85702c097ff0e77d3022ba54bb19db4e8f83346126a6560ea97bb581486237064736f6c63430006020033",
  "source": "pragma solidity ^0.6.2;\npragma experimental ABIEncoderV2;\n\ncontract DonateAsset {\n    function getAssetRequestCount(uint32 assetId)\n        public\n        view\n        returns (uint32)\n    {}\n\n    function UpdateAsset(Asset memory asset) public {}\n}\n\nimport \"@openzeppelin/contracts/token/ERC721/ERC721.sol\";\nimport \"@openzeppelin/contracts/access/AccessControl.sol\";\nimport './Administration.sol';\n\n/// @title A Asset donation smart contract\n/// @author Fatemeh Heidari Soureshjani\n/// @notice This contract facilitates donation of physical assets for specific periods of time between asset owners and receivers\n/// @dev time\nenum Status {Free, Requested, Donated, Inactive, Burned}\n\nstruct Asset {\n    uint32 assetId;\n    string assetDescription;\n    uint32 availablityDate;\n    string location;\n    Status status;\n    address owner;\n    address recipient;\n    uint32 donatedDateFrom;\n    uint32 donatedDateTo;\n    uint32 requestCount;\n    string imageIPFSHash;\n}\n\ncontract ReceiveAsset is Administration{\n\n    DonateAsset DA;\n    uint32 lastRequestId;\n\n    constructor(address _DA) public AccessControl() {\n        DA = DonateAsset(_DA);\n        lastRequestId = 0;\n    }\n\n    struct Request {\n        address receiver;\n        string requestDescription;\n        uint32 requestDateFrom;\n        uint32 requestDateTo;\n    }\n    mapping(uint32 => mapping(uint32 => Request)) public assetRequestList;\n\n\n\n    /// @notice retrieves all request for a specific donation\n    /// @dev There must be better way than returing always an array of 16\n    /// @param assetId the unique asset id of donation\n    /// @return Request returns an array of type Request and length 16\n    function getDonationRequests(\n        uint32 assetId,\n        uint256 requestCount //DA.assetExists(assetId)\n    ) public view returns (Request[16] memory) {\n        Request[16] memory requestArray;\n            mapping(uint32 => Request) storage requestMapping\n         = assetRequestList[assetId];\n        for (uint32 i = 0; i < requestCount; i++) {\n            requestArray[i] = requestMapping[i];\n        }\n        return requestArray;\n    }\n\n    /// @notice A receiver can register a request for a specific donation previousely added\n    /// @notice to list of donation by a donor\n    /// @dev date conflicts can be checked\n    /// @param assetId The unique id of donation\n    /// @param requestDescription The description entered by the receiver\n    /// @param requestDateFrom The starting date receiver needs this asset\n    /// @param requestDateTo The ending date receiver needs this asset\n    function requestAsset(\n        uint32 assetId,\n        string memory requestDescription,\n        uint32 requestDateFrom,\n        uint32 requestDateTo //assetExists(assetId)\n    ) public isReceiver(msg.sender) whenNotPaused{\n        uint32 requestCount = DA.getAssetRequestCount(assetId); ///donationList[assetId];\n        //if (requestedItem.requestCount < maxNoOfReqsPerAsst) {\n        assetRequestList[assetId][requestCount] = Request({\n            receiver: msg.sender,\n            requestDescription: requestDescription,\n            requestDateFrom: requestDateFrom,\n            requestDateTo: requestDateTo\n        });\n        requestCount++;\n        Asset memory asset = Asset({\n            assetId: assetId,\n            assetDescription: \"\",\n            availablityDate: 0,\n            location: \"\",\n            status: Status.Requested,\n            owner: address(0),\n            recipient: address(0),\n            donatedDateFrom: 0,\n            donatedDateTo: 0,\n            requestCount: 0,\n            imageIPFSHash: \"\"\n        });\n        DA.UpdateAsset(asset);\n        //donationList[assetId].status = Status.Requested;\n        //requestedItem.requestCount++;\n    }\n\n    function getRequest(uint32 assetId, uint32 requestId)\n        public\n        view\n        returns (\n            address receiver,\n            string memory requestDescription,\n            uint32 requestDateFrom,\n            uint32 requestDateTo\n        )\n    {\n        Request storage request = assetRequestList[assetId][requestId];\n        receiver = request.receiver;\n        requestDescription = request.requestDescription;\n        requestDateFrom = request.requestDateFrom;\n        requestDateTo = request.requestDateTo;\n        return (receiver, requestDescription, requestDateFrom, requestDateTo);\n    }\n}\n",
  "sourcePath": "/home/fatemeh/Desktop/Consensys Course/assetdonation/AssetDonation/contracts/ReceiveAsset.sol",
  "compiler": {
    "name": "solc",
    "version": "0.6.2+commit.bacdbe57.Emscripten.clang"
  },
  "schemaVersion": "3.3.1",
  "updatedAt": "2020-12-05T19:15:35.277Z",
  "networkType": "ethereum",
  "devdoc": {
    "methods": {
      "approveDonor(address)": {
        "params": {
          "donorAddress": "The address of donor to be approved"
        }
      },
      "approveReceiver(address)": {
        "params": {
          "receiverAddress": "The address of receiver to be approved"
        }
      },
      "getDonationRequests(uint32,uint256)": {
        "details": "There must be better way than returing always an array of 16",
        "params": {
          "assetId": "the unique asset id of donation"
        },
        "returns": {
          "_0": "Request returns an array of type Request and length 16"
        }
      },
      "getRoleAdmin(bytes32)": {
        "details": "Returns the admin role that controls `role`. See {grantRole} and {revokeRole}.     * To change a role's admin, use {_setRoleAdmin}."
      },
      "getRoleMember(bytes32,uint256)": {
        "details": "Returns one of the accounts that have `role`. `index` must be a value between 0 and {getRoleMemberCount}, non-inclusive.     * Role bearers are not sorted in any particular way, and their ordering may change at any point.     * WARNING: When using {getRoleMember} and {getRoleMemberCount}, make sure you perform all queries on the same block. See the following https://forum.openzeppelin.com/t/iterating-over-elements-on-enumerableset-in-openzeppelin-contracts/2296[forum post] for more information."
      },
      "getRoleMemberCount(bytes32)": {
        "details": "Returns the number of accounts that have `role`. Can be used together with {getRoleMember} to enumerate all bearers of a role."
      },
      "grantRole(bytes32,address)": {
        "details": "Grants `role` to `account`.     * If `account` had not been already granted `role`, emits a {RoleGranted} event.     * Requirements:     * - the caller must have ``role``'s admin role."
      },
      "hasRole(bytes32,address)": {
        "details": "Returns `true` if `account` has been granted `role`."
      },
      "paused()": {
        "details": "Returns true if the contract is paused, and false otherwise."
      },
      "renounceRole(bytes32,address)": {
        "details": "Revokes `role` from the calling account.     * Roles are often managed via {grantRole} and {revokeRole}: this function's purpose is to provide a mechanism for accounts to lose their privileges if they are compromised (such as when a trusted device is misplaced).     * If the calling account had been granted `role`, emits a {RoleRevoked} event.     * Requirements:     * - the caller must be `account`."
      },
      "requestAsset(uint32,string,uint32,uint32)": {
        "details": "date conflicts can be checked",
        "params": {
          "assetId": "The unique id of donation",
          "requestDateFrom": "The starting date receiver needs this asset",
          "requestDateTo": "The ending date receiver needs this asset",
          "requestDescription": "The description entered by the receiver"
        }
      },
      "revokeRole(bytes32,address)": {
        "details": "Revokes `role` from `account`.     * If `account` had been granted `role`, emits a {RoleRevoked} event.     * Requirements:     * - the caller must have ``role``'s admin role."
      }
    }
  },
  "userdoc": {
    "methods": {
      "addReceiver()": {
        "notice": "Adds an address to list of receivers"
      },
      "approveDonor(address)": {
        "notice": "Admin approves an address to have the donor role"
      },
      "approveReceiver(address)": {
        "notice": "Admin approves an address to have the receiver role"
      },
      "getDonationRequests(uint32,uint256)": {
        "notice": "retrieves all request for a specific donation"
      },
      "requestAsset(uint32,string,uint32,uint32)": {
        "notice": "A receiver can register a request for a specific donation previousely addedto list of donation by a donor"
      }
    }
  }
}