{
  "contractName": "ReceiveAsset",
  "abi": [
    {
      "inputs": [
        {
          "internalType": "address",
          "name": "_DA",
          "type": "address"
        }
      ],
      "stateMutability": "nonpayable",
      "type": "constructor"
    },
    {
      "anonymous": false,
      "inputs": [
        {
          "indexed": false,
          "internalType": "uint32",
          "name": "assetId",
          "type": "uint32"
        }
      ],
      "name": "LogRequested",
      "type": "event"
    },
    {
      "anonymous": false,
      "inputs": [
        {
          "indexed": false,
          "internalType": "address",
          "name": "account",
          "type": "address"
        }
      ],
      "name": "Paused",
      "type": "event"
    },
    {
      "anonymous": false,
      "inputs": [
        {
          "indexed": true,
          "internalType": "bytes32",
          "name": "role",
          "type": "bytes32"
        },
        {
          "indexed": true,
          "internalType": "bytes32",
          "name": "previousAdminRole",
          "type": "bytes32"
        },
        {
          "indexed": true,
          "internalType": "bytes32",
          "name": "newAdminRole",
          "type": "bytes32"
        }
      ],
      "name": "RoleAdminChanged",
      "type": "event"
    },
    {
      "anonymous": false,
      "inputs": [
        {
          "indexed": true,
          "internalType": "bytes32",
          "name": "role",
          "type": "bytes32"
        },
        {
          "indexed": true,
          "internalType": "address",
          "name": "account",
          "type": "address"
        },
        {
          "indexed": true,
          "internalType": "address",
          "name": "sender",
          "type": "address"
        }
      ],
      "name": "RoleGranted",
      "type": "event"
    },
    {
      "anonymous": false,
      "inputs": [
        {
          "indexed": true,
          "internalType": "bytes32",
          "name": "role",
          "type": "bytes32"
        },
        {
          "indexed": true,
          "internalType": "address",
          "name": "account",
          "type": "address"
        },
        {
          "indexed": true,
          "internalType": "address",
          "name": "sender",
          "type": "address"
        }
      ],
      "name": "RoleRevoked",
      "type": "event"
    },
    {
      "anonymous": false,
      "inputs": [
        {
          "indexed": false,
          "internalType": "address",
          "name": "account",
          "type": "address"
        }
      ],
      "name": "Unpaused",
      "type": "event"
    },
    {
      "inputs": [],
      "name": "DEFAULT_ADMIN_ROLE",
      "outputs": [
        {
          "internalType": "bytes32",
          "name": "",
          "type": "bytes32"
        }
      ],
      "stateMutability": "view",
      "type": "function",
      "constant": true
    },
    {
      "inputs": [],
      "name": "DONOR",
      "outputs": [
        {
          "internalType": "bytes32",
          "name": "",
          "type": "bytes32"
        }
      ],
      "stateMutability": "view",
      "type": "function",
      "constant": true
    },
    {
      "inputs": [],
      "name": "RECEIVER",
      "outputs": [
        {
          "internalType": "bytes32",
          "name": "",
          "type": "bytes32"
        }
      ],
      "stateMutability": "view",
      "type": "function",
      "constant": true
    },
    {
      "inputs": [],
      "name": "addDonor",
      "outputs": [],
      "stateMutability": "nonpayable",
      "type": "function"
    },
    {
      "inputs": [],
      "name": "addReceiver",
      "outputs": [],
      "stateMutability": "nonpayable",
      "type": "function"
    },
    {
      "inputs": [
        {
          "internalType": "address",
          "name": "donorAddress",
          "type": "address"
        }
      ],
      "name": "approveDonor",
      "outputs": [],
      "stateMutability": "nonpayable",
      "type": "function"
    },
    {
      "inputs": [
        {
          "internalType": "address",
          "name": "receiverAddress",
          "type": "address"
        }
      ],
      "name": "approveReceiver",
      "outputs": [],
      "stateMutability": "nonpayable",
      "type": "function"
    },
    {
      "inputs": [
        {
          "internalType": "uint32",
          "name": "",
          "type": "uint32"
        },
        {
          "internalType": "uint32",
          "name": "",
          "type": "uint32"
        }
      ],
      "name": "assetRequestList",
      "outputs": [
        {
          "internalType": "address",
          "name": "receiver",
          "type": "address"
        },
        {
          "internalType": "string",
          "name": "requestDescription",
          "type": "string"
        },
        {
          "internalType": "uint32",
          "name": "requestDateFrom",
          "type": "uint32"
        },
        {
          "internalType": "uint32",
          "name": "requestDateTo",
          "type": "uint32"
        },
        {
          "internalType": "enum ReceiveAsset.RequestStatus",
          "name": "status",
          "type": "uint8"
        }
      ],
      "stateMutability": "view",
      "type": "function",
      "constant": true
    },
    {
      "inputs": [
        {
          "internalType": "address",
          "name": "",
          "type": "address"
        }
      ],
      "name": "donors",
      "outputs": [
        {
          "internalType": "bool",
          "name": "exists",
          "type": "bool"
        },
        {
          "internalType": "bool",
          "name": "approved",
          "type": "bool"
        },
        {
          "internalType": "uint32",
          "name": "donationCount",
          "type": "uint32"
        }
      ],
      "stateMutability": "view",
      "type": "function",
      "constant": true
    },
    {
      "inputs": [],
      "name": "getDonor",
      "outputs": [
        {
          "components": [
            {
              "internalType": "bool",
              "name": "exists",
              "type": "bool"
            },
            {
              "internalType": "bool",
              "name": "approved",
              "type": "bool"
            },
            {
              "internalType": "uint32",
              "name": "donationCount",
              "type": "uint32"
            }
          ],
          "internalType": "struct Administration.donor",
          "name": "",
          "type": "tuple"
        }
      ],
      "stateMutability": "view",
      "type": "function",
      "constant": true
    },
    {
      "inputs": [
        {
          "internalType": "bytes32",
          "name": "role",
          "type": "bytes32"
        }
      ],
      "name": "getRoleAdmin",
      "outputs": [
        {
          "internalType": "bytes32",
          "name": "",
          "type": "bytes32"
        }
      ],
      "stateMutability": "view",
      "type": "function",
      "constant": true
    },
    {
      "inputs": [
        {
          "internalType": "bytes32",
          "name": "role",
          "type": "bytes32"
        },
        {
          "internalType": "uint256",
          "name": "index",
          "type": "uint256"
        }
      ],
      "name": "getRoleMember",
      "outputs": [
        {
          "internalType": "address",
          "name": "",
          "type": "address"
        }
      ],
      "stateMutability": "view",
      "type": "function",
      "constant": true
    },
    {
      "inputs": [
        {
          "internalType": "bytes32",
          "name": "role",
          "type": "bytes32"
        }
      ],
      "name": "getRoleMemberCount",
      "outputs": [
        {
          "internalType": "uint256",
          "name": "",
          "type": "uint256"
        }
      ],
      "stateMutability": "view",
      "type": "function",
      "constant": true
    },
    {
      "inputs": [
        {
          "internalType": "bytes32",
          "name": "role",
          "type": "bytes32"
        },
        {
          "internalType": "address",
          "name": "account",
          "type": "address"
        }
      ],
      "name": "grantRole",
      "outputs": [],
      "stateMutability": "nonpayable",
      "type": "function"
    },
    {
      "inputs": [
        {
          "internalType": "bytes32",
          "name": "role",
          "type": "bytes32"
        },
        {
          "internalType": "address",
          "name": "account",
          "type": "address"
        }
      ],
      "name": "hasRole",
      "outputs": [
        {
          "internalType": "bool",
          "name": "",
          "type": "bool"
        }
      ],
      "stateMutability": "view",
      "type": "function",
      "constant": true
    },
    {
      "inputs": [],
      "name": "isAdminUser",
      "outputs": [
        {
          "internalType": "bool",
          "name": "",
          "type": "bool"
        }
      ],
      "stateMutability": "view",
      "type": "function",
      "constant": true
    },
    {
      "inputs": [],
      "name": "pause",
      "outputs": [],
      "stateMutability": "nonpayable",
      "type": "function"
    },
    {
      "inputs": [],
      "name": "paused",
      "outputs": [
        {
          "internalType": "bool",
          "name": "",
          "type": "bool"
        }
      ],
      "stateMutability": "view",
      "type": "function",
      "constant": true
    },
    {
      "inputs": [
        {
          "internalType": "address",
          "name": "",
          "type": "address"
        }
      ],
      "name": "receivers",
      "outputs": [
        {
          "internalType": "bool",
          "name": "",
          "type": "bool"
        }
      ],
      "stateMutability": "view",
      "type": "function",
      "constant": true
    },
    {
      "inputs": [
        {
          "internalType": "bytes32",
          "name": "role",
          "type": "bytes32"
        },
        {
          "internalType": "address",
          "name": "account",
          "type": "address"
        }
      ],
      "name": "renounceRole",
      "outputs": [],
      "stateMutability": "nonpayable",
      "type": "function"
    },
    {
      "inputs": [
        {
          "internalType": "bytes32",
          "name": "role",
          "type": "bytes32"
        },
        {
          "internalType": "address",
          "name": "account",
          "type": "address"
        }
      ],
      "name": "revokeRole",
      "outputs": [],
      "stateMutability": "nonpayable",
      "type": "function"
    },
    {
      "inputs": [],
      "name": "unpause",
      "outputs": [],
      "stateMutability": "nonpayable",
      "type": "function"
    },
    {
      "inputs": [
        {
          "internalType": "uint32",
          "name": "assetId",
          "type": "uint32"
        },
        {
          "internalType": "uint256",
          "name": "requestCount",
          "type": "uint256"
        }
      ],
      "name": "getDonationRequests",
      "outputs": [
        {
          "components": [
            {
              "internalType": "address",
              "name": "receiver",
              "type": "address"
            },
            {
              "internalType": "string",
              "name": "requestDescription",
              "type": "string"
            },
            {
              "internalType": "uint32",
              "name": "requestDateFrom",
              "type": "uint32"
            },
            {
              "internalType": "uint32",
              "name": "requestDateTo",
              "type": "uint32"
            },
            {
              "internalType": "enum ReceiveAsset.RequestStatus",
              "name": "status",
              "type": "uint8"
            }
          ],
          "internalType": "struct ReceiveAsset.Request[16]",
          "name": "",
          "type": "tuple[16]"
        }
      ],
      "stateMutability": "view",
      "type": "function",
      "constant": true
    },
    {
      "inputs": [
        {
          "internalType": "uint32",
          "name": "assetId",
          "type": "uint32"
        },
        {
          "internalType": "string",
          "name": "requestDescription",
          "type": "string"
        },
        {
          "internalType": "uint32",
          "name": "requestDateFrom",
          "type": "uint32"
        },
        {
          "internalType": "uint32",
          "name": "requestDateTo",
          "type": "uint32"
        }
      ],
      "name": "requestAsset",
      "outputs": [],
      "stateMutability": "nonpayable",
      "type": "function"
    },
    {
      "inputs": [
        {
          "internalType": "uint32",
          "name": "assetId",
          "type": "uint32"
        },
        {
          "internalType": "uint32",
          "name": "requestId",
          "type": "uint32"
        }
      ],
      "name": "getRequest",
      "outputs": [
        {
          "internalType": "address",
          "name": "receiver",
          "type": "address"
        },
        {
          "internalType": "string",
          "name": "requestDescription",
          "type": "string"
        },
        {
          "internalType": "uint32",
          "name": "requestDateFrom",
          "type": "uint32"
        },
        {
          "internalType": "uint32",
          "name": "requestDateTo",
          "type": "uint32"
        }
      ],
      "stateMutability": "view",
      "type": "function",
      "constant": true
    }
  ],
  "bytecode": "0x60806040523480156200001157600080fd5b5060405162001bb838038062001bb88339810160408190526200003491620001bc565b6001805460ff19169055620000546000336001600160e01b036200008416565b600480546001600160a01b0319166001600160a01b03929092169190911763ffffffff60a01b19169055620001ec565b6200009982826001600160e01b036200009d16565b5050565b600082815260208181526040909120620000c291839062000f4d6200011f821b17901c565b156200009957620000db6001600160e01b036200014816565b6001600160a01b0316816001600160a01b0316837f2f8788117e7eff1d82e926ec794901d17c78024a50270940304540a733656f0d60405160405180910390a45050565b60006200013f836001600160a01b0384166001600160e01b036200014c16565b90505b92915050565b3390565b60006200016383836001600160e01b03620001a416565b6200019b5750815460018181018455600084815260208082209093018490558454848252828601909352604090209190915562000142565b50600062000142565b60009081526001919091016020526040902054151590565b600060208284031215620001ce578081fd5b81516001600160a01b0381168114620001e5578182fd5b9392505050565b6119bc80620001fc6000396000f3fe608060405234801561001057600080fd5b50600436106101335760003560e01c80630cb8150f1461013857806311cef2c41461016157806315f8076214610176578063248a9ca31461017e5780632a7812701461019e5780632f2ff15d146101b157806336568abe146101c45780633f4ba83a146101d75780634576d251146101df5780635c975abb146101e757806367c7e979146101ef57806372dbb89f1461021357806379e085a2146102265780638456cb591461022e5780638ad54512146102365780639010d07c1461023e57806391d148541461025e57806394aa613a14610271578063a217fddf14610291578063ad7430cc14610299578063ca0cdea8146102a1578063ca15c873146102c3578063d547741f146102d6578063e0218fb3146102e9578063f2e99622146102fe575b600080fd5b61014b610146366004611279565b610321565b6040516101589190611639565b60405180910390f35b61017461016f36600461132f565b610336565b005b61014b61064c565b61019161018c3660046112a0565b610668565b6040516101589190611662565b6101746101ac366004611279565b61067d565b6101746101bf3660046112b8565b6106c0565b6101746101d23660046112b8565b610708565b61017461074a565b610191610768565b61014b61077f565b6102026101fd366004611429565b610788565b604051610158959493929190611541565b610174610221366004611279565b610868565b61017461089b565b61017461097b565b610174610997565b61025161024c3660046112f2565b6109c7565b60405161015891906114eb565b61014b61026c3660046112b8565b6109ee565b61028461027f3660046113fe565b610a0c565b6040516101589190611594565b610191610b86565b610191610b8b565b6102b46102af366004611279565b610b97565b60405161015893929190611644565b6101916102d13660046112a0565b610bc4565b6101746102e43660046112b8565b610bdb565b6102f1610c15565b604051610158919061190b565b61031161030c366004611429565b610c6a565b60405161015894939291906114ff565b60036020526000908152604090205460ff1681565b60015460ff16156103625760405162461bcd60e51b81526004016103599061178b565b60405180910390fd5b600480546040516321f54c2160e01b81526000926001600160a01b03909216916321f54c219161039491899101611936565b60206040518083038186803b1580156103ac57600080fd5b505afa1580156103c0573d6000803e3d6000fd5b505050506040513d601f19601f820116820180604052506103e49190810190611313565b90506040518060a00160405280336001600160a01b031681526020018581526020018463ffffffff1681526020018363ffffffff1681526020016000600281111561042b57fe5b905263ffffffff86811660009081526005602090815260408083209386168352928152919020825181546001600160a01b0319166001600160a01b039091161781558282015180519192610487926001850192909101906110e8565b50604082015160028083018054606086015163ffffffff908116600160201b0263ffffffff60201b199190951663ffffffff199092169190911716929092178083556080850151929160ff60401b1990911690600160401b9084908111156104eb57fe5b02179055509050506105048163ffffffff166001610d56565b5061050d611166565b6040518061016001604052808763ffffffff168152602001604051806020016040528060008152508152602001600063ffffffff1681526020016040518060200160405280600081525081526020016001600481111561056957fe5b8152600060208083018290526040808401839052606084018390526080840183905263ffffffff871660a08501528051918201815291815260c09092019190915260048054915163f445496360e01b81529293506001600160a01b039091169163f4454963916105db91859101611804565b600060405180830381600087803b1580156105f557600080fd5b505af1158015610609573d6000803e3d6000fd5b505050507fe6391fd03f941519ec364c5bb85023284b131a59297606d04b2eb06980485ea38660405161063c9190611936565b60405180910390a1505050505050565b600061065881336109ee565b61066157600080fd5b5060015b90565b60009081526020819052604090206002015490565b61069a60405161068c906114c6565b6040518091039020826106c0565b6001600160a01b03166000908152600260205260409020805461ff001916610100179055565b6000828152602081905260409020600201546106de9061026c610d7b565b6106fa5760405162461bcd60e51b8152600401610359906116ad565b6107048282610d7f565b5050565b610710610d7b565b6001600160a01b0316816001600160a01b0316146107405760405162461bcd60e51b8152600401610359906117b5565b6107048282610dee565b6107556000336109ee565b61075e57600080fd5b610766610e5d565b565b604051610774906114c6565b604051809103902081565b60015460ff1690565b60056020908152600092835260408084208252918352918190208054600180830180548551600261010094831615949094026000190190911692909204601f81018790048702830187019095528482526001600160a01b0390921694929390928301828280156108395780601f1061080e57610100808354040283529160200191610839565b820191906000526020600020905b81548152906001019060200180831161081c57829003601f168201915b5050506002909301549192505063ffffffff80821691600160201b81049091169060ff600160401b9091041685565b61087760405161068c906114d7565b6001600160a01b03166000908152600360205260409020805460ff19166001179055565b3360009081526002602052604090205460ff1661092257604080516060810182526001808252600060208084018281528486019384523383526002909152939020915182549351915160ff199094169015151761ff001916610100911515919091021765ffffffff000019166201000063ffffffff90931692909202919091179055610766565b336000908152600260205260409020546109499062010000900463ffffffff166001610d56565b336000908152600260205260409020805463ffffffff92909216620100000265ffffffff000019909216919091179055565b6109866000336109ee565b61098f57600080fd5b610766610ec9565b3360009081526003602052604090205460ff1661076657336000908152600360205260409020805460ff19169055565b60008281526020819052604081206109e5908363ffffffff610f2116565b90505b92915050565b60008281526020819052604081206109e5908363ffffffff610f2d16565b610a146111d9565b610a1c6111d9565b63ffffffff84166000908152600560205260408120905b848163ffffffff161015610b7c5763ffffffff811660009081526020838152604091829020825160a08101845281546001600160a01b03168152600180830180548651600261010094831615949094026000190190911692909204601f8101869004860283018601909652858252919492938581019391929190830182828015610afe5780601f10610ad357610100808354040283529160200191610afe565b820191906000526020600020905b815481529060010190602001808311610ae157829003601f168201915b505050918352505060028281015463ffffffff8082166020850152600160201b8204166040840152606090920191600160401b900460ff1690811115610b4057fe5b6002811115610b4b57fe5b9052508363ffffffff831660108110610b6057fe5b6020020152610b7663ffffffff82166001610d56565b50610a33565b5090949350505050565b600081565b604051610774906114d7565b60026020526000908152604090205460ff8082169161010081049091169062010000900463ffffffff1683565b60008181526020819052604081206109e890610f42565b600082815260208190526040902060020154610bf99061026c610d7b565b6107405760405162461bcd60e51b81526004016103599061174d565b610c1d611207565b50336000908152600260209081526040918290208251606081018452905460ff808216151583526101008204161515928201929092526201000090910463ffffffff169181019190915290565b63ffffffff828116600090815260056020908152604080832093851683529281528282208054600180830180548751600261010094831615949094026000190190911692909204601f81018690048602830186019097528682526001600160a01b0390921695606095948594939190830182828015610d2a5780601f10610cff57610100808354040283529160200191610d2a565b820191906000526020600020905b815481529060010190602001808311610d0d57829003601f168201915b5050506002909301549195505063ffffffff8082169450600160201b9091041691505092959194509250565b6000828201838110156109e55760405162461bcd60e51b815260040161035990611718565b3390565b6000828152602081905260409020610d9d908263ffffffff610f4d16565b1561070457610daa610d7b565b6001600160a01b0316816001600160a01b0316837f2f8788117e7eff1d82e926ec794901d17c78024a50270940304540a733656f0d60405160405180910390a45050565b6000828152602081905260409020610e0c908263ffffffff610f6216565b1561070457610e19610d7b565b6001600160a01b0316816001600160a01b0316837ff6391f5c32d9c69d2a47ea670b442974b53935d1edc7fd64eb21e047a839171b60405160405180910390a45050565b60015460ff16610e7f5760405162461bcd60e51b8152600401610359906116ea565b6001805460ff191690557f5db9ee0a495bf2e6ff9c91a7834c1ba4fdd244a5e8aa4e537bd38aeae4b073aa610eb2610d7b565b604051610ebf91906114eb565b60405180910390a1565b60015460ff1615610eec5760405162461bcd60e51b81526004016103599061178b565b6001805460ff1916811790557f62e78cea01bee320cd4e420270b5ea74000d11b0c9f74754ebdbfc544b05a258610eb2610d7b565b60006109e58383610f77565b60006109e5836001600160a01b038416610fbc565b60006109e882610fd4565b60006109e5836001600160a01b038416610fd8565b60006109e5836001600160a01b038416611022565b81546000908210610f9a5760405162461bcd60e51b81526004016103599061166b565b826000018281548110610fa957fe5b9060005260206000200154905092915050565b60009081526001919091016020526040902054151590565b5490565b6000610fe48383610fbc565b61101a575081546001818101845560008481526020808220909301849055845484825282860190935260409020919091556109e8565b5060006109e8565b600081815260018301602052604081205480156110de578354600019808301919081019060009087908390811061105557fe5b906000526020600020015490508087600001848154811061107257fe5b6000918252602080832090910192909255828152600189810190925260409020908401905586548790806110a257fe5b600190038181906000526020600020016000905590558660010160008781526020019081526020016000206000905560019450505050506109e8565b60009150506109e8565b828054600181600116156101000203166002900490600052602060002090601f016020900481019282601f1061112957805160ff1916838001178555611156565b82800160010185558215611156579182015b8281111561115657825182559160200191906001019061113b565b50611162929150611227565b5090565b604051806101600160405280600063ffffffff16815260200160608152602001600063ffffffff16815260200160608152602001600060048111156111a757fe5b81526000602082018190526040820181905260608083018290526080830182905260a083019190915260c09091015290565b6040518061020001604052806010905b6111f1611241565b8152602001906001900390816111e95790505090565b604080516060810182526000808252602082018190529181019190915290565b61066591905b80821115611162576000815560010161122d565b6040805160a081018252600080825260606020830181905292820181905291810182905290608082015290565b80356109e881611954565b60006020828403121561128a578081fd5b81356001600160a01b03811681146109e5578182fd5b6000602082840312156112b1578081fd5b5035919050565b600080604083850312156112ca578081fd5b8235915060208301356001600160a01b03811681146112e7578182fd5b809150509250929050565b60008060408385031215611304578182fd5b50508035926020909101359150565b600060208284031215611324578081fd5b81516109e581611954565b60008060008060808587031215611344578182fd5b843561134f81611954565b93506020858101356001600160401b038082111561136b578485fd5b81880189601f82011261137c578586fd5b803592508183111561138c578586fd5b604051601f8401601f19168101850183811182821017156113ab578788fd5b60405283815281840185018b10156113c1578687fd5b83858301868301379283019093018590525093506113e49050866040870161126e565b91506113f3866060870161126e565b905092959194509250565b60008060408385031215611410578182fd5b823561141b81611954565b946020939093013593505050565b6000806040838503121561143b578182fd5b823561144681611954565b915060208301356112e781611954565b6001600160a01b03169052565b6005811061146d57fe5b9052565b60008151808452815b818110156114965760208185018101518683018201520161147a565b818111156114a75782602083870101525b50601f01601f19169290920160200192915050565b63ffffffff169052565b642227a727a960d91b815260050190565b672922a1a2a4ab22a960c11b815260080190565b6001600160a01b0391909116815260200190565b6001600160a01b038516815260806020820181905260009061152390830186611471565b63ffffffff9485166040840152929093166060909101529392505050565b6001600160a01b038616815260a06020820181905260009061156590830187611471565b63ffffffff868116604085015285166060840152905061158483611947565b8260808301529695505050505050565b6020808252600090610220830183820185845b601081101561162d57868403601f19018352815180516001600160a01b031685528581015160a0878701819052906115e182880182611471565b60408481015163ffffffff908116918a019190915260608086015190911690890152608080850151909350915061161782611947565b96909101525091840191908401906001016115a7565b50919695505050505050565b901515815260200190565b9215158352901515602083015263ffffffff16604082015260600190565b90815260200190565b60208082526022908201527f456e756d657261626c655365743a20696e646578206f7574206f6620626f756e604082015261647360f01b606082015260800190565b6020808252602f9082015260008051602061196783398151915260408201526e0818591b5a5b881d1bc819dc985b9d608a1b606082015260800190565b60208082526014908201527314185d5cd8589b194e881b9bdd081c185d5cd95960621b604082015260600190565b6020808252601b908201527a536166654d6174683a206164646974696f6e206f766572666c6f7760281b604082015260600190565b602080825260309082015260008051602061196783398151915260408201526f2061646d696e20746f207265766f6b6560801b606082015260800190565b60208082526010908201526f14185d5cd8589b194e881c185d5cd95960821b604082015260600190565b6020808252602f908201527f416363657373436f6e74726f6c3a2063616e206f6e6c792072656e6f756e636560408201526e103937b632b9903337b91039b2b63360891b606082015260800190565b6000602082526118186020830184516114bc565b6020830151610160806040850152611834610180850183611471565b6040860151925061184860608601846114bc565b60608601519250601f19808683030160808701526118668285611471565b6080880151945061187a60a0880186611463565b60a0880151945061188e60c0880186611456565b60c088015194506118a260e0880186611456565b60e0880151945061010092506118ba838801866114bc565b918701519350610120916118d0878401866114bc565b918701519350610140916118e6878401866114bc565b8288015194508187820301848801526118ff8186611471565b98975050505050505050565b81511515815260208083015115159082015260409182015163ffffffff169181019190915260600190565b63ffffffff91909116815260200190565b6003811061195157fe5b50565b63ffffffff8116811461195157600080fdfe416363657373436f6e74726f6c3a2073656e646572206d75737420626520616ea2646970667358221220f87a8b154fc45b47555faae3bf99f5a9068716602542423eee2e075e9f58014b64736f6c63430006020033",
  "source": "pragma solidity ^0.6.2;\npragma experimental ABIEncoderV2;\n\ncontract DonateAsset {\n    function getAssetRequestCount(uint32 assetId)\n        public\n        view\n        returns (uint32)\n    {}\n\n    function UpdateAsset(Asset memory asset) public {}\n}\n\nimport \"@openzeppelin/contracts/token/ERC721/ERC721.sol\";\nimport \"@openzeppelin/contracts/access/AccessControl.sol\";\nimport \"./Administration.sol\";\nimport \"@openzeppelin/contracts/math/SafeMath.sol\";\n\n/// @title A Asset donation smart contract\n/// @author Fatemeh Heidari Soureshjani\n/// @notice This contract facilitates donation of physical assets for specific periods of time between asset owners and receivers\n/// @dev time\nenum Status {Free, Requested, Donated, Inactive, Burned}\n\nstruct Asset {\n    uint32 assetId;\n    string assetDescription;\n    uint32 availablityDate;\n    string location;\n    Status status;\n    address owner;\n    address recipient;\n    uint32 donatedDateFrom;\n    uint32 donatedDateTo;\n    uint32 requestCount;\n    string imageIPFSHash;\n}\n\ncontract ReceiveAsset is Administration {\n    DonateAsset DA;\n    uint32 lastRequestId;\n\n    constructor(address _DA) public Administration() {\n        DA = DonateAsset(_DA);\n        lastRequestId = 0;\n    }\n\n    enum RequestStatus {Open, Approved, Rejected}\n\n    struct Request {\n        address receiver;\n        string requestDescription;\n        uint32 requestDateFrom;\n        uint32 requestDateTo;\n        RequestStatus status;\n    }\n    mapping(uint32 => mapping(uint32 => Request)) public assetRequestList;\n\n    event LogRequested(uint32 assetId);\n\n    /// @notice retrieves all request for a specific donation\n    /// @dev There must be better way than returing always an array of 16\n    /// @param assetId the unique asset id of donation\n    /// @return Request returns an array of type Request and length 16\n    function getDonationRequests(uint32 assetId, uint256 requestCount)\n        public\n        view\n        returns (Request[16] memory)\n    {\n        Request[16] memory requestArray;\n\n            mapping(uint32 => Request) storage requestMapping\n         = assetRequestList[assetId];\n        for (uint32 i = 0; i < requestCount; SafeMath.add(i, 1)) {\n            requestArray[i] = requestMapping[i];\n        }\n        return requestArray;\n    }\n\n    /// @notice A receiver can register a request for a specific donation previousely added\n    /// @notice to list of donation by a donor\n    /// @dev date conflicts can be checked\n    /// @param assetId The unique id of donation\n    /// @param requestDescription The description entered by the receiver\n    /// @param requestDateFrom The starting date receiver needs this asset\n    /// @param requestDateTo The ending date receiver needs this asset\n    function requestAsset(\n        uint32 assetId,\n        string memory requestDescription,\n        uint32 requestDateFrom,\n        uint32 requestDateTo\n    ) public whenNotPaused {\n        uint32 requestCount = DA.getAssetRequestCount(assetId); ///donationList[assetId];\n        //if (requestedItem.requestCount < maxNoOfReqsPerAsst) {\n        assetRequestList[assetId][requestCount] = Request({\n            receiver: msg.sender,\n            requestDescription: requestDescription,\n            requestDateFrom: requestDateFrom,\n            requestDateTo: requestDateTo,\n            status: RequestStatus.Open\n        });\n        SafeMath.add( requestCount,1);\n        Asset memory asset = Asset({\n            assetId: assetId,\n            assetDescription: \"\",\n            availablityDate: 0,\n            location: \"\",\n            status: Status.Requested,\n            owner: address(0),\n            recipient: address(0),\n            donatedDateFrom: 0,\n            donatedDateTo: 0,\n            requestCount: requestCount,\n            imageIPFSHash: \"\"\n        });\n        DA.UpdateAsset(asset);\n        emit LogRequested(assetId);\n    }\n\n    function getRequest(uint32 assetId, uint32 requestId)\n        public\n        view\n        returns (\n            address receiver,\n            string memory requestDescription,\n            uint32 requestDateFrom,\n            uint32 requestDateTo\n        )\n    {\n        Request storage request = assetRequestList[assetId][requestId];\n        receiver = request.receiver;\n        requestDescription = request.requestDescription;\n        requestDateFrom = request.requestDateFrom;\n        requestDateTo = request.requestDateTo;\n        return (receiver, requestDescription, requestDateFrom, requestDateTo);\n    }\n\n    // function approveRequest(uint32 assetId, address recipientAddress){\n\n    // }\n}\n",
  "sourcePath": "/home/fatemeh/Desktop/Consensys Course/assetdonation/AssetDonation/contracts/ReceiveAsset.sol",
  "compiler": {
    "name": "solc",
    "version": "0.6.2+commit.bacdbe57.Emscripten.clang"
  },
  "schemaVersion": "3.3.1",
  "updatedAt": "2020-12-08T04:34:43.234Z",
  "networkType": "ethereum",
  "devdoc": {
    "methods": {
      "approveDonor(address)": {
        "params": {
          "donorAddress": "The address of donor to be approved"
        }
      },
      "approveReceiver(address)": {
        "params": {
          "receiverAddress": "The address of receiver to be approved"
        }
      },
      "getDonationRequests(uint32,uint256)": {
        "details": "There must be better way than returing always an array of 16",
        "params": {
          "assetId": "the unique asset id of donation"
        },
        "returns": {
          "_0": "Request returns an array of type Request and length 16"
        }
      },
      "getRoleAdmin(bytes32)": {
        "details": "Returns the admin role that controls `role`. See {grantRole} and {revokeRole}.     * To change a role's admin, use {_setRoleAdmin}."
      },
      "getRoleMember(bytes32,uint256)": {
        "details": "Returns one of the accounts that have `role`. `index` must be a value between 0 and {getRoleMemberCount}, non-inclusive.     * Role bearers are not sorted in any particular way, and their ordering may change at any point.     * WARNING: When using {getRoleMember} and {getRoleMemberCount}, make sure you perform all queries on the same block. See the following https://forum.openzeppelin.com/t/iterating-over-elements-on-enumerableset-in-openzeppelin-contracts/2296[forum post] for more information."
      },
      "getRoleMemberCount(bytes32)": {
        "details": "Returns the number of accounts that have `role`. Can be used together with {getRoleMember} to enumerate all bearers of a role."
      },
      "grantRole(bytes32,address)": {
        "details": "Grants `role` to `account`.     * If `account` had not been already granted `role`, emits a {RoleGranted} event.     * Requirements:     * - the caller must have ``role``'s admin role."
      },
      "hasRole(bytes32,address)": {
        "details": "Returns `true` if `account` has been granted `role`."
      },
      "paused()": {
        "details": "Returns true if the contract is paused, and false otherwise."
      },
      "renounceRole(bytes32,address)": {
        "details": "Revokes `role` from the calling account.     * Roles are often managed via {grantRole} and {revokeRole}: this function's purpose is to provide a mechanism for accounts to lose their privileges if they are compromised (such as when a trusted device is misplaced).     * If the calling account had been granted `role`, emits a {RoleRevoked} event.     * Requirements:     * - the caller must be `account`."
      },
      "requestAsset(uint32,string,uint32,uint32)": {
        "details": "date conflicts can be checked",
        "params": {
          "assetId": "The unique id of donation",
          "requestDateFrom": "The starting date receiver needs this asset",
          "requestDateTo": "The ending date receiver needs this asset",
          "requestDescription": "The description entered by the receiver"
        }
      },
      "revokeRole(bytes32,address)": {
        "details": "Revokes `role` from `account`.     * If `account` had been granted `role`, emits a {RoleRevoked} event.     * Requirements:     * - the caller must have ``role``'s admin role."
      }
    }
  },
  "userdoc": {
    "methods": {
      "addReceiver()": {
        "notice": "Adds an address to list of receivers"
      },
      "approveDonor(address)": {
        "notice": "Admin approves an address to have the donor role"
      },
      "approveReceiver(address)": {
        "notice": "Admin approves an address to have the receiver role"
      },
      "getDonationRequests(uint32,uint256)": {
        "notice": "retrieves all request for a specific donation"
      },
      "requestAsset(uint32,string,uint32,uint32)": {
        "notice": "A receiver can register a request for a specific donation previousely addedto list of donation by a donor"
      }
    }
  }
}