{
  "contractName": "ReceiveAsset",
  "abi": [
    {
      "inputs": [
        {
          "internalType": "address",
          "name": "_DA",
          "type": "address"
        }
      ],
      "stateMutability": "nonpayable",
      "type": "constructor"
    },
    {
      "anonymous": false,
      "inputs": [
        {
          "indexed": false,
          "internalType": "address",
          "name": "account",
          "type": "address"
        }
      ],
      "name": "Paused",
      "type": "event"
    },
    {
      "anonymous": false,
      "inputs": [
        {
          "indexed": true,
          "internalType": "bytes32",
          "name": "role",
          "type": "bytes32"
        },
        {
          "indexed": true,
          "internalType": "bytes32",
          "name": "previousAdminRole",
          "type": "bytes32"
        },
        {
          "indexed": true,
          "internalType": "bytes32",
          "name": "newAdminRole",
          "type": "bytes32"
        }
      ],
      "name": "RoleAdminChanged",
      "type": "event"
    },
    {
      "anonymous": false,
      "inputs": [
        {
          "indexed": true,
          "internalType": "bytes32",
          "name": "role",
          "type": "bytes32"
        },
        {
          "indexed": true,
          "internalType": "address",
          "name": "account",
          "type": "address"
        },
        {
          "indexed": true,
          "internalType": "address",
          "name": "sender",
          "type": "address"
        }
      ],
      "name": "RoleGranted",
      "type": "event"
    },
    {
      "anonymous": false,
      "inputs": [
        {
          "indexed": true,
          "internalType": "bytes32",
          "name": "role",
          "type": "bytes32"
        },
        {
          "indexed": true,
          "internalType": "address",
          "name": "account",
          "type": "address"
        },
        {
          "indexed": true,
          "internalType": "address",
          "name": "sender",
          "type": "address"
        }
      ],
      "name": "RoleRevoked",
      "type": "event"
    },
    {
      "anonymous": false,
      "inputs": [
        {
          "indexed": false,
          "internalType": "address",
          "name": "account",
          "type": "address"
        }
      ],
      "name": "Unpaused",
      "type": "event"
    },
    {
      "inputs": [],
      "name": "DEFAULT_ADMIN_ROLE",
      "outputs": [
        {
          "internalType": "bytes32",
          "name": "",
          "type": "bytes32"
        }
      ],
      "stateMutability": "view",
      "type": "function",
      "constant": true
    },
    {
      "inputs": [],
      "name": "DONOR",
      "outputs": [
        {
          "internalType": "bytes32",
          "name": "",
          "type": "bytes32"
        }
      ],
      "stateMutability": "view",
      "type": "function",
      "constant": true
    },
    {
      "inputs": [],
      "name": "RECEIVER",
      "outputs": [
        {
          "internalType": "bytes32",
          "name": "",
          "type": "bytes32"
        }
      ],
      "stateMutability": "view",
      "type": "function",
      "constant": true
    },
    {
      "inputs": [],
      "name": "addDonor",
      "outputs": [],
      "stateMutability": "nonpayable",
      "type": "function"
    },
    {
      "inputs": [],
      "name": "addReceiver",
      "outputs": [],
      "stateMutability": "nonpayable",
      "type": "function"
    },
    {
      "inputs": [
        {
          "internalType": "address",
          "name": "donorAddress",
          "type": "address"
        }
      ],
      "name": "approveDonor",
      "outputs": [],
      "stateMutability": "nonpayable",
      "type": "function"
    },
    {
      "inputs": [
        {
          "internalType": "address",
          "name": "receiverAddress",
          "type": "address"
        }
      ],
      "name": "approveReceiver",
      "outputs": [],
      "stateMutability": "nonpayable",
      "type": "function"
    },
    {
      "inputs": [
        {
          "internalType": "uint32",
          "name": "",
          "type": "uint32"
        },
        {
          "internalType": "uint32",
          "name": "",
          "type": "uint32"
        }
      ],
      "name": "assetRequestList",
      "outputs": [
        {
          "internalType": "address",
          "name": "receiver",
          "type": "address"
        },
        {
          "internalType": "string",
          "name": "requestDescription",
          "type": "string"
        },
        {
          "internalType": "uint32",
          "name": "requestDateFrom",
          "type": "uint32"
        },
        {
          "internalType": "uint32",
          "name": "requestDateTo",
          "type": "uint32"
        }
      ],
      "stateMutability": "view",
      "type": "function",
      "constant": true
    },
    {
      "inputs": [
        {
          "internalType": "address",
          "name": "",
          "type": "address"
        }
      ],
      "name": "donors",
      "outputs": [
        {
          "internalType": "bool",
          "name": "",
          "type": "bool"
        }
      ],
      "stateMutability": "view",
      "type": "function",
      "constant": true
    },
    {
      "inputs": [
        {
          "internalType": "bytes32",
          "name": "role",
          "type": "bytes32"
        }
      ],
      "name": "getRoleAdmin",
      "outputs": [
        {
          "internalType": "bytes32",
          "name": "",
          "type": "bytes32"
        }
      ],
      "stateMutability": "view",
      "type": "function",
      "constant": true
    },
    {
      "inputs": [
        {
          "internalType": "bytes32",
          "name": "role",
          "type": "bytes32"
        },
        {
          "internalType": "uint256",
          "name": "index",
          "type": "uint256"
        }
      ],
      "name": "getRoleMember",
      "outputs": [
        {
          "internalType": "address",
          "name": "",
          "type": "address"
        }
      ],
      "stateMutability": "view",
      "type": "function",
      "constant": true
    },
    {
      "inputs": [
        {
          "internalType": "bytes32",
          "name": "role",
          "type": "bytes32"
        }
      ],
      "name": "getRoleMemberCount",
      "outputs": [
        {
          "internalType": "uint256",
          "name": "",
          "type": "uint256"
        }
      ],
      "stateMutability": "view",
      "type": "function",
      "constant": true
    },
    {
      "inputs": [
        {
          "internalType": "bytes32",
          "name": "role",
          "type": "bytes32"
        },
        {
          "internalType": "address",
          "name": "account",
          "type": "address"
        }
      ],
      "name": "grantRole",
      "outputs": [],
      "stateMutability": "nonpayable",
      "type": "function"
    },
    {
      "inputs": [
        {
          "internalType": "bytes32",
          "name": "role",
          "type": "bytes32"
        },
        {
          "internalType": "address",
          "name": "account",
          "type": "address"
        }
      ],
      "name": "hasRole",
      "outputs": [
        {
          "internalType": "bool",
          "name": "",
          "type": "bool"
        }
      ],
      "stateMutability": "view",
      "type": "function",
      "constant": true
    },
    {
      "inputs": [],
      "name": "paused",
      "outputs": [
        {
          "internalType": "bool",
          "name": "",
          "type": "bool"
        }
      ],
      "stateMutability": "view",
      "type": "function",
      "constant": true
    },
    {
      "inputs": [
        {
          "internalType": "address",
          "name": "",
          "type": "address"
        }
      ],
      "name": "receivers",
      "outputs": [
        {
          "internalType": "bool",
          "name": "",
          "type": "bool"
        }
      ],
      "stateMutability": "view",
      "type": "function",
      "constant": true
    },
    {
      "inputs": [
        {
          "internalType": "bytes32",
          "name": "role",
          "type": "bytes32"
        },
        {
          "internalType": "address",
          "name": "account",
          "type": "address"
        }
      ],
      "name": "renounceRole",
      "outputs": [],
      "stateMutability": "nonpayable",
      "type": "function"
    },
    {
      "inputs": [
        {
          "internalType": "bytes32",
          "name": "role",
          "type": "bytes32"
        },
        {
          "internalType": "address",
          "name": "account",
          "type": "address"
        }
      ],
      "name": "revokeRole",
      "outputs": [],
      "stateMutability": "nonpayable",
      "type": "function"
    },
    {
      "inputs": [
        {
          "internalType": "uint32",
          "name": "assetId",
          "type": "uint32"
        },
        {
          "internalType": "uint256",
          "name": "requestCount",
          "type": "uint256"
        }
      ],
      "name": "getDonationRequests",
      "outputs": [
        {
          "components": [
            {
              "internalType": "address",
              "name": "receiver",
              "type": "address"
            },
            {
              "internalType": "string",
              "name": "requestDescription",
              "type": "string"
            },
            {
              "internalType": "uint32",
              "name": "requestDateFrom",
              "type": "uint32"
            },
            {
              "internalType": "uint32",
              "name": "requestDateTo",
              "type": "uint32"
            }
          ],
          "internalType": "struct ReceiveAsset.Request[16]",
          "name": "",
          "type": "tuple[16]"
        }
      ],
      "stateMutability": "view",
      "type": "function",
      "constant": true
    },
    {
      "inputs": [
        {
          "internalType": "uint32",
          "name": "assetId",
          "type": "uint32"
        },
        {
          "internalType": "string",
          "name": "requestDescription",
          "type": "string"
        },
        {
          "internalType": "uint32",
          "name": "requestDateFrom",
          "type": "uint32"
        },
        {
          "internalType": "uint32",
          "name": "requestDateTo",
          "type": "uint32"
        }
      ],
      "name": "requestAsset",
      "outputs": [],
      "stateMutability": "nonpayable",
      "type": "function"
    },
    {
      "inputs": [
        {
          "internalType": "uint32",
          "name": "assetId",
          "type": "uint32"
        },
        {
          "internalType": "uint32",
          "name": "requestId",
          "type": "uint32"
        }
      ],
      "name": "getRequest",
      "outputs": [
        {
          "internalType": "address",
          "name": "receiver",
          "type": "address"
        },
        {
          "internalType": "string",
          "name": "requestDescription",
          "type": "string"
        },
        {
          "internalType": "uint32",
          "name": "requestDateFrom",
          "type": "uint32"
        },
        {
          "internalType": "uint32",
          "name": "requestDateTo",
          "type": "uint32"
        }
      ],
      "stateMutability": "view",
      "type": "function",
      "constant": true
    }
  ],
  "bytecode": "0x60806040523480156200001157600080fd5b50604051620016c4380380620016c48339810160408190526200003491620001b7565b6200004a6000336001600160e01b036200007f16565b6003805463ffffffff60a81b196001600160a01b03909316610100026001600160a81b031990911617919091169055620001e7565b6200009482826001600160e01b036200009816565b5050565b600082815260208181526040909120620000bd91839062000b9b6200011a821b17901c565b156200009457620000d66001600160e01b036200014316565b6001600160a01b0316816001600160a01b0316837f2f8788117e7eff1d82e926ec794901d17c78024a50270940304540a733656f0d60405160405180910390a45050565b60006200013a836001600160a01b0384166001600160e01b036200014716565b90505b92915050565b3390565b60006200015e83836001600160e01b036200019f16565b62000196575081546001818101845560008481526020808220909301849055845484825282860190935260409020919091556200013d565b5060006200013d565b60009081526001919091016020526040902054151590565b600060208284031215620001c9578081fd5b81516001600160a01b0381168114620001e0578182fd5b9392505050565b6114cd80620001f76000396000f3fe608060405234801561001057600080fd5b50600436106101075760003560e01c80630cb8150f1461010c57806311cef2c414610135578063248a9ca31461014a5780632a7812701461016a5780632f2ff15d1461017d57806336568abe146101905780634576d251146101a35780635c975abb146101ab57806367c7e979146101b357806372dbb89f146101d657806379e085a2146101e95780638ad54512146101f15780639010d07c146101f957806391d148541461021957806394aa613a1461022c578063a217fddf1461024c578063ad7430cc14610254578063ca0cdea81461025c578063ca15c8731461026f578063d547741f14610282578063f2e9962214610295575b600080fd5b61011f61011a366004610ea2565b6102a8565b60405161012c9190611200565b60405180910390f35b610148610143366004610f5f565b6102bd565b005b61015d610158366004610ed0565b610564565b60405161012c919061120b565b610148610178366004610ea2565b610579565b61014861018b366004610ee8565b6105bd565b61014861019e366004610ee8565b610605565b61015d610647565b61011f61065e565b6101c66101c1366004611059565b610668565b60405161012c949392919061112f565b6101486101e4366004610ea2565b61073a565b61014861076d565b610148610786565b61020c610207366004610f22565b61079f565b60405161012c919061111b565b61011f610227366004610ee8565b6107c6565b61023f61023a36600461102e565b6107e4565b60405161012c9190611171565b61015d61092a565b61015d61092f565b61011f61026a366004610ea2565b61093b565b61015d61027d366004610ed0565b610950565b610148610290366004610ee8565b610967565b6101c66102a3366004611059565b6109a1565b60026020526000908152604090205460ff1681565b336102db6040516102cd90611107565b6040518091039020826107c6565b6102e457600080fd5b60035460ff16156103105760405162461bcd60e51b8152600401610307906112d1565b60405180910390fd5b6003546040516321f54c2160e01b815260009161010090046001600160a01b0316906321f54c2190610346908990600401611451565b60206040518083038186803b15801561035e57600080fd5b505afa158015610372573d6000803e3d6000fd5b505050506040513d601f19601f820116820180604052506103969190810190610f43565b60408051608081018252338152602080820189815263ffffffff8981168486015288811660608501528b8116600090815260048452858120918716815290835293909320825181546001600160a01b0319166001600160a01b0390911617815592518051949550919361040f9260018501920190610d36565b5060408201516002909101805460609093015163ffffffff908116600160201b0263ffffffff60201b199190931663ffffffff19909416939093179290921617905560010161045c610db4565b6040518061016001604052808863ffffffff168152602001604051806020016040528060008152508152602001600063ffffffff168152602001604051806020016040528060008152508152602001600160048111156104b857fe5b8152600060208083018290526040808401839052606084018390526080840183905260a084018390528051918201815291815260c090920191909152600354905163f445496360e01b815291925061010090046001600160a01b03169063f44549639061052990849060040161134a565b600060405180830381600087803b15801561054357600080fd5b505af1158015610557573d6000803e3d6000fd5b5050505050505050505050565b60009081526020819052604090206002015490565b610596604051610588906110f6565b6040518091039020826105bd565b6001600160a01b03166000908152600160208190526040909120805460ff19169091179055565b6000828152602081905260409020600201546105db90610227610a8d565b6105f75760405162461bcd60e51b815260040161030790611256565b6106018282610a91565b5050565b61060d610a8d565b6001600160a01b0316816001600160a01b03161461063d5760405162461bcd60e51b8152600401610307906112fb565b6106018282610b00565b604051610653906110f6565b604051809103902081565b60035460ff165b90565b60046020908152600092835260408084208252918352918190208054600180830180548551600261010094831615949094026000190190911692909204601f81018790048702830187019095528482526001600160a01b0390921694929390928301828280156107195780601f106106ee57610100808354040283529160200191610719565b820191906000526020600020905b8154815290600101906020018083116106fc57829003601f168201915b5050506002909301549192505063ffffffff80821691600160201b90041684565b61074960405161058890611107565b6001600160a01b03166000908152600260205260409020805460ff19166001179055565b336000908152600160205260409020805460ff19169055565b336000908152600260205260409020805460ff19169055565b60008281526020819052604081206107bd908363ffffffff610b6f16565b90505b92915050565b60008281526020819052604081206107bd908363ffffffff610b7b16565b6107ec610e27565b6107f4610e27565b63ffffffff84166000908152600460205260408120905b848163ffffffff1610156109205763ffffffff811660009081526020838152604091829020825160808101845281546001600160a01b03168152600180830180548651600261010094831615949094026000190190911692909204601f81018690048602830186019096528582529194929385810193919291908301828280156108d65780601f106108ab576101008083540402835291602001916108d6565b820191906000526020600020905b8154815290600101906020018083116108b957829003601f168201915b50505091835250506002919091015463ffffffff8082166020840152600160201b9091048116604090920191909152849083166010811061091357fe5b602002015260010161080b565b5090949350505050565b600081565b60405161065390611107565b60016020526000908152604090205460ff1681565b60008181526020819052604081206107c090610b90565b60008281526020819052604090206002015461098590610227610a8d565b61063d5760405162461bcd60e51b815260040161030790611293565b63ffffffff828116600090815260046020908152604080832093851683529281528282208054600180830180548751600261010094831615949094026000190190911692909204601f81018690048602830186019097528682526001600160a01b0390921695606095948594939190830182828015610a615780601f10610a3657610100808354040283529160200191610a61565b820191906000526020600020905b815481529060010190602001808311610a4457829003601f168201915b5050506002909301549195505063ffffffff8082169450600160201b9091041691505092959194509250565b3390565b6000828152602081905260409020610aaf908263ffffffff610b9b16565b1561060157610abc610a8d565b6001600160a01b0316816001600160a01b0316837f2f8788117e7eff1d82e926ec794901d17c78024a50270940304540a733656f0d60405160405180910390a45050565b6000828152602081905260409020610b1e908263ffffffff610bb016565b1561060157610b2b610a8d565b6001600160a01b0316816001600160a01b0316837ff6391f5c32d9c69d2a47ea670b442974b53935d1edc7fd64eb21e047a839171b60405160405180910390a45050565b60006107bd8383610bc5565b60006107bd836001600160a01b038416610c0a565b60006107c082610c22565b60006107bd836001600160a01b038416610c26565b60006107bd836001600160a01b038416610c70565b81546000908210610be85760405162461bcd60e51b815260040161030790611214565b826000018281548110610bf757fe5b9060005260206000200154905092915050565b60009081526001919091016020526040902054151590565b5490565b6000610c328383610c0a565b610c68575081546001818101845560008481526020808220909301849055845484825282860190935260409020919091556107c0565b5060006107c0565b60008181526001830160205260408120548015610d2c5783546000198083019190810190600090879083908110610ca357fe5b9060005260206000200154905080876000018481548110610cc057fe5b600091825260208083209091019290925582815260018981019092526040902090840190558654879080610cf057fe5b600190038181906000526020600020016000905590558660010160008781526020019081526020016000206000905560019450505050506107c0565b60009150506107c0565b828054600181600116156101000203166002900490600052602060002090601f016020900481019282601f10610d7757805160ff1916838001178555610da4565b82800160010185558215610da4579182015b82811115610da4578251825591602001919060010190610d89565b50610db0929150610e55565b5090565b604051806101600160405280600063ffffffff16815260200160608152602001600063ffffffff1681526020016060815260200160006004811115610df557fe5b81526000602082018190526040820181905260608083018290526080830182905260a083019190915260c09091015290565b6040518061020001604052806010905b610e3f610e6f565b815260200190600190039081610e375790505090565b61066591905b80821115610db05760008155600101610e5b565b6040805160808101825260008082526060602083018190529282018190529181019190915290565b80356107c081611462565b600060208284031215610eb3578081fd5b81356001600160a01b0381168114610ec9578182fd5b9392505050565b600060208284031215610ee1578081fd5b5035919050565b60008060408385031215610efa578081fd5b8235915060208301356001600160a01b0381168114610f17578182fd5b809150509250929050565b60008060408385031215610f34578182fd5b50508035926020909101359150565b600060208284031215610f54578081fd5b8151610ec981611462565b60008060008060808587031215610f74578182fd5b8435610f7f81611462565b93506020858101356001600160401b0380821115610f9b578485fd5b81880189601f820112610fac578586fd5b8035925081831115610fbc578586fd5b604051601f8401601f1916810185018381118282101715610fdb578788fd5b60405283815281840185018b1015610ff1578687fd5b838583018683013792830190930185905250935061101490508660408701610e97565b91506110238660608701610e97565b905092959194509250565b60008060408385031215611040578182fd5b823561104b81611462565b946020939093013593505050565b6000806040838503121561106b578182fd5b823561107681611462565b91506020830135610f1781611462565b6001600160a01b03169052565b6005811061109d57fe5b9052565b60008151808452815b818110156110c6576020818501810151868301820152016110aa565b818111156110d75782602083870101525b50601f01601f19169290920160200192915050565b63ffffffff169052565b642227a727a960d91b815260050190565b672922a1a2a4ab22a960c11b815260080190565b6001600160a01b0391909116815260200190565b6001600160a01b0385168152608060208201819052600090611153908301866110a1565b63ffffffff9485166040840152929093166060909101529392505050565b6020808252600090610220830183820185845b60108110156111f457868403601f19018352815180516001600160a01b03168552858101516080878701819052906111be828801826110a1565b60408481015163ffffffff908116918a019190915260609485015116939097019290925250509184019190840190600101611184565b50919695505050505050565b901515815260200190565b90815260200190565b60208082526022908201527f456e756d657261626c655365743a20696e646578206f7574206f6620626f756e604082015261647360f01b606082015260800190565b6020808252602f9082015260008051602061147883398151915260408201526e0818591b5a5b881d1bc819dc985b9d608a1b606082015260800190565b602080825260309082015260008051602061147883398151915260408201526f2061646d696e20746f207265766f6b6560801b606082015260800190565b60208082526010908201526f14185d5cd8589b194e881c185d5cd95960821b604082015260600190565b6020808252602f908201527f416363657373436f6e74726f6c3a2063616e206f6e6c792072656e6f756e636560408201526e103937b632b9903337b91039b2b63360891b606082015260800190565b60006020825261135e6020830184516110ec565b602083015161016080604085015261137a6101808501836110a1565b6040860151925061138e60608601846110ec565b60608601519250601f19808683030160808701526113ac82856110a1565b608088015194506113c060a0880186611093565b60a088015194506113d460c0880186611086565b60c088015194506113e860e0880186611086565b60e088015194506101009250611400838801866110ec565b91870151935061012091611416878401866110ec565b9187015193506101409161142c878401866110ec565b82880151945081878203018488015261144581866110a1565b98975050505050505050565b63ffffffff91909116815260200190565b63ffffffff8116811461147457600080fd5b5056fe416363657373436f6e74726f6c3a2073656e646572206d75737420626520616ea2646970667358221220f79d6c62f771550c4100aedc4e37b37b9a41b02e788c0dccbe4a492860cc3a7164736f6c63430006020033",
  "source": "pragma solidity ^0.6.2;\npragma experimental ABIEncoderV2;\n\ncontract DonateAsset {\n    function getAssetRequestCount(uint32 assetId)\n        public\n        view\n        returns (uint32)\n    {}\n\n    function UpdateAsset(Asset memory asset) public {}\n}\n\nimport \"@openzeppelin/contracts/token/ERC721/ERC721.sol\";\nimport \"@openzeppelin/contracts/access/AccessControl.sol\";\nimport \"@openzeppelin/contracts/utils/Pausable.sol\";\nimport './Administration.sol';\n\n/// @title A Asset donation smart contract\n/// @author Fatemeh Heidari Soureshjani\n/// @notice This contract facilitates donation of physical assets for specific periods of time between asset owners and receivers\n/// @dev time\nenum Status {Free, Requested, Donated, Inactive, Burned}\n\nstruct Asset {\n    uint32 assetId;\n    string assetDescription;\n    uint32 availablityDate;\n    string location;\n    Status status;\n    address owner;\n    address recipient;\n    uint32 donatedDateFrom;\n    uint32 donatedDateTo;\n    uint32 requestCount;\n    string imageIPFSHash;\n}\n\ncontract ReceiveAsset is Administration, Pausable{\n\n    DonateAsset DA;\n    uint32 lastRequestId;\n\n    constructor(address _DA) public AccessControl() Pausable() {\n        DA = DonateAsset(_DA);\n        lastRequestId = 0;\n    }\n\n    struct Request {\n        address receiver;\n        string requestDescription;\n        uint32 requestDateFrom;\n        uint32 requestDateTo;\n    }\n    mapping(uint32 => mapping(uint32 => Request)) public assetRequestList;\n\n\n\n    /// @notice retrieves all request for a specific donation\n    /// @dev There must be better way than returing always an array of 16\n    /// @param assetId the unique asset id of donation\n    /// @return Request returns an array of type Request and length 16\n    function getDonationRequests(\n        uint32 assetId,\n        uint256 requestCount //DA.assetExists(assetId)\n    ) public view returns (Request[16] memory) {\n        Request[16] memory requestArray;\n            mapping(uint32 => Request) storage requestMapping\n         = assetRequestList[assetId];\n        for (uint32 i = 0; i < requestCount; i++) {\n            requestArray[i] = requestMapping[i];\n        }\n        return requestArray;\n    }\n\n    /// @notice A receiver can register a request for a specific donation previousely added\n    /// @notice to list of donation by a donor\n    /// @dev date conflicts can be checked\n    /// @param assetId The unique id of donation\n    /// @param requestDescription The description entered by the receiver\n    /// @param requestDateFrom The starting date receiver needs this asset\n    /// @param requestDateTo The ending date receiver needs this asset\n    function requestAsset(\n        uint32 assetId,\n        string memory requestDescription,\n        uint32 requestDateFrom,\n        uint32 requestDateTo //assetExists(assetId)\n    ) public isReceiver(msg.sender) whenNotPaused{\n        uint32 requestCount = DA.getAssetRequestCount(assetId); ///donationList[assetId];\n        //if (requestedItem.requestCount < maxNoOfReqsPerAsst) {\n        assetRequestList[assetId][requestCount] = Request({\n            receiver: msg.sender,\n            requestDescription: requestDescription,\n            requestDateFrom: requestDateFrom,\n            requestDateTo: requestDateTo\n        });\n        requestCount++;\n        Asset memory asset = Asset({\n            assetId: assetId,\n            assetDescription: \"\",\n            availablityDate: 0,\n            location: \"\",\n            status: Status.Requested,\n            owner: address(0),\n            recipient: address(0),\n            donatedDateFrom: 0,\n            donatedDateTo: 0,\n            requestCount: 0,\n            imageIPFSHash: \"\"\n        });\n        DA.UpdateAsset(asset);\n        //donationList[assetId].status = Status.Requested;\n        //requestedItem.requestCount++;\n    }\n\n    function getRequest(uint32 assetId, uint32 requestId)\n        public\n        view\n        returns (\n            address receiver,\n            string memory requestDescription,\n            uint32 requestDateFrom,\n            uint32 requestDateTo\n        )\n    {\n        Request storage request = assetRequestList[assetId][requestId];\n        receiver = request.receiver;\n        requestDescription = request.requestDescription;\n        requestDateFrom = request.requestDateFrom;\n        requestDateTo = request.requestDateTo;\n        return (receiver, requestDescription, requestDateFrom, requestDateTo);\n    }\n}\n",
  "sourcePath": "/home/fatemeh/Desktop/Consensys Course/assetdonation/AssetDonation/contracts/ReceiveAsset.sol",
  "compiler": {
    "name": "solc",
    "version": "0.6.2+commit.bacdbe57.Emscripten.clang"
  },
  "schemaVersion": "3.3.1",
  "updatedAt": "2020-12-05T08:20:30.691Z",
  "networkType": "ethereum",
  "devdoc": {
    "methods": {
      "approveDonor(address)": {
        "params": {
          "donorAddress": "The address of donor to be approved"
        }
      },
      "approveReceiver(address)": {
        "params": {
          "receiverAddress": "The address of receiver to be approved"
        }
      },
      "getDonationRequests(uint32,uint256)": {
        "details": "There must be better way than returing always an array of 16",
        "params": {
          "assetId": "the unique asset id of donation"
        },
        "returns": {
          "_0": "Request returns an array of type Request and length 16"
        }
      },
      "getRoleAdmin(bytes32)": {
        "details": "Returns the admin role that controls `role`. See {grantRole} and {revokeRole}.     * To change a role's admin, use {_setRoleAdmin}."
      },
      "getRoleMember(bytes32,uint256)": {
        "details": "Returns one of the accounts that have `role`. `index` must be a value between 0 and {getRoleMemberCount}, non-inclusive.     * Role bearers are not sorted in any particular way, and their ordering may change at any point.     * WARNING: When using {getRoleMember} and {getRoleMemberCount}, make sure you perform all queries on the same block. See the following https://forum.openzeppelin.com/t/iterating-over-elements-on-enumerableset-in-openzeppelin-contracts/2296[forum post] for more information."
      },
      "getRoleMemberCount(bytes32)": {
        "details": "Returns the number of accounts that have `role`. Can be used together with {getRoleMember} to enumerate all bearers of a role."
      },
      "grantRole(bytes32,address)": {
        "details": "Grants `role` to `account`.     * If `account` had not been already granted `role`, emits a {RoleGranted} event.     * Requirements:     * - the caller must have ``role``'s admin role."
      },
      "hasRole(bytes32,address)": {
        "details": "Returns `true` if `account` has been granted `role`."
      },
      "paused()": {
        "details": "Returns true if the contract is paused, and false otherwise."
      },
      "renounceRole(bytes32,address)": {
        "details": "Revokes `role` from the calling account.     * Roles are often managed via {grantRole} and {revokeRole}: this function's purpose is to provide a mechanism for accounts to lose their privileges if they are compromised (such as when a trusted device is misplaced).     * If the calling account had been granted `role`, emits a {RoleRevoked} event.     * Requirements:     * - the caller must be `account`."
      },
      "requestAsset(uint32,string,uint32,uint32)": {
        "details": "date conflicts can be checked",
        "params": {
          "assetId": "The unique id of donation",
          "requestDateFrom": "The starting date receiver needs this asset",
          "requestDateTo": "The ending date receiver needs this asset",
          "requestDescription": "The description entered by the receiver"
        }
      },
      "revokeRole(bytes32,address)": {
        "details": "Revokes `role` from `account`.     * If `account` had been granted `role`, emits a {RoleRevoked} event.     * Requirements:     * - the caller must have ``role``'s admin role."
      }
    }
  },
  "userdoc": {
    "methods": {
      "addReceiver()": {
        "notice": "Adds an address to list of receivers"
      },
      "approveDonor(address)": {
        "notice": "Admin approves an address to have the donor role"
      },
      "approveReceiver(address)": {
        "notice": "Admin approves an address to have the receiver role"
      },
      "getDonationRequests(uint32,uint256)": {
        "notice": "retrieves all request for a specific donation"
      },
      "requestAsset(uint32,string,uint32,uint32)": {
        "notice": "A receiver can register a request for a specific donation previousely addedto list of donation by a donor"
      }
    }
  }
}